{
	"test16.sol": {
		"Attack": {
			"abi": [
				{
					"inputs": [
						{
							"internalType": "address",
							"name": "_target",
							"type": "address"
						}
					],
					"stateMutability": "nonpayable",
					"type": "constructor"
				},
				{
					"inputs": [],
					"name": "attack",
					"outputs": [],
					"stateMutability": "nonpayable",
					"type": "function"
				},
				{
					"inputs": [],
					"name": "firstCall",
					"outputs": [
						{
							"internalType": "bool",
							"name": "",
							"type": "bool"
						}
					],
					"stateMutability": "view",
					"type": "function"
				},
				{
					"inputs": [],
					"name": "t1",
					"outputs": [
						{
							"internalType": "address",
							"name": "",
							"type": "address"
						}
					],
					"stateMutability": "view",
					"type": "function"
				},
				{
					"inputs": [],
					"name": "t2",
					"outputs": [
						{
							"internalType": "address",
							"name": "",
							"type": "address"
						}
					],
					"stateMutability": "view",
					"type": "function"
				}
			],
			"devdoc": {
				"kind": "dev",
				"methods": {},
				"version": 1
			},
			"evm": {
				"assembly": "    /* \"test16.sol\":470:950  contract Attack {... */\n  mstore(0x40, 0x80)\n    /* \"test16.sol\":538:580  0x7454DC8E278527c7072D11f99811350BEfD482B0 */\n  0x7454dc8e278527c7072d11f99811350befd482b0\n    /* \"test16.sol\":518:580  address public t1 = 0x7454DC8E278527c7072D11f99811350BEfD482B0 */\n  0x01\n  exp(0x0100, 0x00)\n  dup2\n  sload\n  dup2\n  0xffffffffffffffffffffffffffffffffffffffff\n  mul\n  not\n  and\n  swap1\n  dup4\n  0xffffffffffffffffffffffffffffffffffffffff\n  and\n  mul\n  or\n  swap1\n  sstore\n  pop\n    /* \"test16.sol\":607:649  0x445B80dcC2973dA1fCdb52C71937070e8336ce32 */\n  0x445b80dcc2973da1fcdb52c71937070e8336ce32\n    /* \"test16.sol\":587:649  address public t2 = 0x445B80dcC2973dA1fCdb52C71937070e8336ce32 */\n  0x02\n  exp(0x0100, 0x00)\n  dup2\n  sload\n  dup2\n  0xffffffffffffffffffffffffffffffffffffffff\n  mul\n  not\n  and\n  swap1\n  dup4\n  0xffffffffffffffffffffffffffffffffffffffff\n  and\n  mul\n  or\n  swap1\n  sstore\n  pop\n    /* \"test16.sol\":742:746  true */\n  0x01\n    /* \"test16.sol\":718:746  bool public firstCall = true */\n  0x02\n  exp(0x0100, 0x14)\n  dup2\n  sload\n  dup2\n  0xff\n  mul\n  not\n  and\n  swap1\n  dup4\n  iszero\n  iszero\n  mul\n  or\n  swap1\n  sstore\n  pop\n    /* \"test16.sol\":755:832  constructor(address _target) {... */\n  callvalue\n  dup1\n  iszero\n  tag_1\n  jumpi\n  0x00\n  dup1\n  revert\ntag_1:\n  pop\n  mload(0x40)\n  sub(codesize, bytecodeSize)\n  dup1\n  bytecodeSize\n  dup4\n  codecopy\n  dup2\n  dup2\n  add\n  0x40\n  mstore\n  dup2\n  add\n  swap1\n  tag_2\n  swap2\n  swap1\n  tag_3\n  jump\t// in\ntag_2:\n    /* \"test16.sol\":816:823  _target */\n  dup1\n    /* \"test16.sol\":795:801  target */\n  0x00\n  dup1\n    /* \"test16.sol\":795:824  target = IReentrance(_target) */\n  0x0100\n  exp\n  dup2\n  sload\n  dup2\n  0xffffffffffffffffffffffffffffffffffffffff\n  mul\n  not\n  and\n  swap1\n  dup4\n  0xffffffffffffffffffffffffffffffffffffffff\n  and\n  mul\n  or\n  swap1\n  sstore\n  pop\n    /* \"test16.sol\":755:832  constructor(address _target) {... */\n  pop\n    /* \"test16.sol\":470:950  contract Attack {... */\n  jump(tag_6)\n    /* \"#utility.yul\":88:205   */\ntag_8:\n    /* \"#utility.yul\":197:198   */\n  0x00\n    /* \"#utility.yul\":194:195   */\n  dup1\n    /* \"#utility.yul\":187:199   */\n  revert\n    /* \"#utility.yul\":334:460   */\ntag_10:\n    /* \"#utility.yul\":371:378   */\n  0x00\n    /* \"#utility.yul\":411:453   */\n  0xffffffffffffffffffffffffffffffffffffffff\n    /* \"#utility.yul\":404:409   */\n  dup3\n    /* \"#utility.yul\":400:454   */\n  and\n    /* \"#utility.yul\":389:454   */\n  swap1\n  pop\n    /* \"#utility.yul\":334:460   */\n  swap2\n  swap1\n  pop\n  jump\t// out\n    /* \"#utility.yul\":466:562   */\ntag_11:\n    /* \"#utility.yul\":503:510   */\n  0x00\n    /* \"#utility.yul\":532:556   */\n  tag_20\n    /* \"#utility.yul\":550:555   */\n  dup3\n    /* \"#utility.yul\":532:556   */\n  tag_10\n  jump\t// in\ntag_20:\n    /* \"#utility.yul\":521:556   */\n  swap1\n  pop\n    /* \"#utility.yul\":466:562   */\n  swap2\n  swap1\n  pop\n  jump\t// out\n    /* \"#utility.yul\":568:690   */\ntag_12:\n    /* \"#utility.yul\":641:665   */\n  tag_22\n    /* \"#utility.yul\":659:664   */\n  dup2\n    /* \"#utility.yul\":641:665   */\n  tag_11\n  jump\t// in\ntag_22:\n    /* \"#utility.yul\":634:639   */\n  dup2\n    /* \"#utility.yul\":631:666   */\n  eq\n    /* \"#utility.yul\":621:684   */\n  tag_23\n  jumpi\n    /* \"#utility.yul\":680:681   */\n  0x00\n    /* \"#utility.yul\":677:678   */\n  dup1\n    /* \"#utility.yul\":670:682   */\n  revert\n    /* \"#utility.yul\":621:684   */\ntag_23:\n    /* \"#utility.yul\":568:690   */\n  pop\n  jump\t// out\n    /* \"#utility.yul\":696:839   */\ntag_13:\n    /* \"#utility.yul\":753:758   */\n  0x00\n    /* \"#utility.yul\":784:790   */\n  dup2\n    /* \"#utility.yul\":778:791   */\n  mload\n    /* \"#utility.yul\":769:791   */\n  swap1\n  pop\n    /* \"#utility.yul\":800:833   */\n  tag_25\n    /* \"#utility.yul\":827:832   */\n  dup2\n    /* \"#utility.yul\":800:833   */\n  tag_12\n  jump\t// in\ntag_25:\n    /* \"#utility.yul\":696:839   */\n  swap3\n  swap2\n  pop\n  pop\n  jump\t// out\n    /* \"#utility.yul\":845:1196   */\ntag_3:\n    /* \"#utility.yul\":915:921   */\n  0x00\n    /* \"#utility.yul\":964:966   */\n  0x20\n    /* \"#utility.yul\":952:961   */\n  dup3\n    /* \"#utility.yul\":943:950   */\n  dup5\n    /* \"#utility.yul\":939:962   */\n  sub\n    /* \"#utility.yul\":935:967   */\n  slt\n    /* \"#utility.yul\":932:1051   */\n  iszero\n  tag_27\n  jumpi\n    /* \"#utility.yul\":970:1049   */\n  tag_28\n  tag_8\n  jump\t// in\ntag_28:\n    /* \"#utility.yul\":932:1051   */\ntag_27:\n    /* \"#utility.yul\":1090:1091   */\n  0x00\n    /* \"#utility.yul\":1115:1179   */\n  tag_29\n    /* \"#utility.yul\":1171:1178   */\n  dup5\n    /* \"#utility.yul\":1162:1168   */\n  dup3\n    /* \"#utility.yul\":1151:1160   */\n  dup6\n    /* \"#utility.yul\":1147:1169   */\n  add\n    /* \"#utility.yul\":1115:1179   */\n  tag_13\n  jump\t// in\ntag_29:\n    /* \"#utility.yul\":1105:1179   */\n  swap2\n  pop\n    /* \"#utility.yul\":1061:1189   */\n  pop\n    /* \"#utility.yul\":845:1196   */\n  swap3\n  swap2\n  pop\n  pop\n  jump\t// out\n    /* \"test16.sol\":470:950  contract Attack {... */\ntag_6:\n  dataSize(sub_0)\n  dup1\n  dataOffset(sub_0)\n  0x00\n  codecopy\n  0x00\n  return\nstop\n\nsub_0: assembly {\n        /* \"test16.sol\":470:950  contract Attack {... */\n      mstore(0x40, 0x80)\n      callvalue\n      dup1\n      iszero\n      tag_1\n      jumpi\n      0x00\n      dup1\n      revert\n    tag_1:\n      pop\n      jumpi(tag_2, lt(calldatasize, 0x04))\n      shr(0xe0, calldataload(0x00))\n      dup1\n      0x1660d0b1\n      eq\n      tag_3\n      jumpi\n      dup1\n      0x9e5faafc\n      eq\n      tag_4\n      jumpi\n      dup1\n      0xbaf2f868\n      eq\n      tag_5\n      jumpi\n      dup1\n      0xfb5343f3\n      eq\n      tag_6\n      jumpi\n    tag_2:\n      0x00\n      dup1\n      revert\n        /* \"test16.sol\":718:746  bool public firstCall = true */\n    tag_3:\n      tag_7\n      tag_8\n      jump\t// in\n    tag_7:\n      mload(0x40)\n      tag_9\n      swap2\n      swap1\n      tag_10\n      jump\t// in\n    tag_9:\n      mload(0x40)\n      dup1\n      swap2\n      sub\n      swap1\n      return\n        /* \"test16.sol\":840:947  function attack() public {... */\n    tag_4:\n      tag_11\n      tag_12\n      jump\t// in\n    tag_11:\n      stop\n        /* \"test16.sol\":587:649  address public t2 = 0x445B80dcC2973dA1fCdb52C71937070e8336ce32 */\n    tag_5:\n      tag_13\n      tag_14\n      jump\t// in\n    tag_13:\n      mload(0x40)\n      tag_15\n      swap2\n      swap1\n      tag_16\n      jump\t// in\n    tag_15:\n      mload(0x40)\n      dup1\n      swap2\n      sub\n      swap1\n      return\n        /* \"test16.sol\":518:580  address public t1 = 0x7454DC8E278527c7072D11f99811350BEfD482B0 */\n    tag_6:\n      tag_17\n      tag_18\n      jump\t// in\n    tag_17:\n      mload(0x40)\n      tag_19\n      swap2\n      swap1\n      tag_16\n      jump\t// in\n    tag_19:\n      mload(0x40)\n      dup1\n      swap2\n      sub\n      swap1\n      return\n        /* \"test16.sol\":718:746  bool public firstCall = true */\n    tag_8:\n      0x02\n      0x14\n      swap1\n      sload\n      swap1\n      0x0100\n      exp\n      swap1\n      div\n      0xff\n      and\n      dup2\n      jump\t// out\n        /* \"test16.sol\":840:947  function attack() public {... */\n    tag_12:\n        /* \"test16.sol\":876:882  target */\n      0x00\n      dup1\n      sload\n      swap1\n      0x0100\n      exp\n      swap1\n      div\n      0xffffffffffffffffffffffffffffffffffffffff\n      and\n        /* \"test16.sol\":876:890  target.approve */\n      0xffffffffffffffffffffffffffffffffffffffff\n      and\n      0x095ea7b3\n        /* \"test16.sol\":891:901  msg.sender */\n      caller\n        /* \"test16.sol\":902:906  1000 */\n      0x03e8\n        /* \"test16.sol\":876:907  target.approve(msg.sender,1000) */\n      mload(0x40)\n      dup4\n      0xffffffff\n      and\n      0xe0\n      shl\n      dup2\n      mstore\n      0x04\n      add\n      tag_21\n      swap3\n      swap2\n      swap1\n      tag_22\n      jump\t// in\n    tag_21:\n      0x00\n      mload(0x40)\n      dup1\n      dup4\n      sub\n      dup2\n      0x00\n      dup8\n      dup1\n      extcodesize\n      iszero\n      dup1\n      iszero\n      tag_23\n      jumpi\n      0x00\n      dup1\n      revert\n    tag_23:\n      pop\n      gas\n      call\n      iszero\n      dup1\n      iszero\n      tag_25\n      jumpi\n      returndatasize\n      0x00\n      dup1\n      returndatacopy\n      revert(0x00, returndatasize)\n    tag_25:\n      pop\n      pop\n      pop\n      pop\n        /* \"test16.sol\":918:924  target */\n      0x00\n      dup1\n      sload\n      swap1\n      0x0100\n      exp\n      swap1\n      div\n      0xffffffffffffffffffffffffffffffffffffffff\n      and\n        /* \"test16.sol\":918:929  target.swap */\n      0xffffffffffffffffffffffffffffffffffffffff\n      and\n      0xdf791e50\n        /* \"test16.sol\":930:932  t1 */\n      0x01\n      0x00\n      swap1\n      sload\n      swap1\n      0x0100\n      exp\n      swap1\n      div\n      0xffffffffffffffffffffffffffffffffffffffff\n      and\n        /* \"test16.sol\":933:935  t2 */\n      0x02\n      0x00\n      swap1\n      sload\n      swap1\n      0x0100\n      exp\n      swap1\n      div\n      0xffffffffffffffffffffffffffffffffffffffff\n      and\n        /* \"test16.sol\":936:938  10 */\n      0x0a\n        /* \"test16.sol\":918:939  target.swap(t1,t2,10) */\n      mload(0x40)\n      dup5\n      0xffffffff\n      and\n      0xe0\n      shl\n      dup2\n      mstore\n      0x04\n      add\n      tag_26\n      swap4\n      swap3\n      swap2\n      swap1\n      tag_27\n      jump\t// in\n    tag_26:\n      0x00\n      mload(0x40)\n      dup1\n      dup4\n      sub\n      dup2\n      0x00\n      dup8\n      dup1\n      extcodesize\n      iszero\n      dup1\n      iszero\n      tag_28\n      jumpi\n      0x00\n      dup1\n      revert\n    tag_28:\n      pop\n      gas\n      call\n      iszero\n      dup1\n      iszero\n      tag_30\n      jumpi\n      returndatasize\n      0x00\n      dup1\n      returndatacopy\n      revert(0x00, returndatasize)\n    tag_30:\n      pop\n      pop\n      pop\n      pop\n        /* \"test16.sol\":840:947  function attack() public {... */\n      jump\t// out\n        /* \"test16.sol\":587:649  address public t2 = 0x445B80dcC2973dA1fCdb52C71937070e8336ce32 */\n    tag_14:\n      0x02\n      0x00\n      swap1\n      sload\n      swap1\n      0x0100\n      exp\n      swap1\n      div\n      0xffffffffffffffffffffffffffffffffffffffff\n      and\n      dup2\n      jump\t// out\n        /* \"test16.sol\":518:580  address public t1 = 0x7454DC8E278527c7072D11f99811350BEfD482B0 */\n    tag_18:\n      0x01\n      0x00\n      swap1\n      sload\n      swap1\n      0x0100\n      exp\n      swap1\n      div\n      0xffffffffffffffffffffffffffffffffffffffff\n      and\n      dup2\n      jump\t// out\n        /* \"#utility.yul\":7:97   */\n    tag_31:\n        /* \"#utility.yul\":41:48   */\n      0x00\n        /* \"#utility.yul\":84:89   */\n      dup2\n        /* \"#utility.yul\":77:90   */\n      iszero\n        /* \"#utility.yul\":70:91   */\n      iszero\n        /* \"#utility.yul\":59:91   */\n      swap1\n      pop\n        /* \"#utility.yul\":7:97   */\n      swap2\n      swap1\n      pop\n      jump\t// out\n        /* \"#utility.yul\":103:212   */\n    tag_32:\n        /* \"#utility.yul\":184:205   */\n      tag_47\n        /* \"#utility.yul\":199:204   */\n      dup2\n        /* \"#utility.yul\":184:205   */\n      tag_31\n      jump\t// in\n    tag_47:\n        /* \"#utility.yul\":179:182   */\n      dup3\n        /* \"#utility.yul\":172:206   */\n      mstore\n        /* \"#utility.yul\":103:212   */\n      pop\n      pop\n      jump\t// out\n        /* \"#utility.yul\":218:428   */\n    tag_10:\n        /* \"#utility.yul\":305:309   */\n      0x00\n        /* \"#utility.yul\":343:345   */\n      0x20\n        /* \"#utility.yul\":332:341   */\n      dup3\n        /* \"#utility.yul\":328:346   */\n      add\n        /* \"#utility.yul\":320:346   */\n      swap1\n      pop\n        /* \"#utility.yul\":356:421   */\n      tag_49\n        /* \"#utility.yul\":418:419   */\n      0x00\n        /* \"#utility.yul\":407:416   */\n      dup4\n        /* \"#utility.yul\":403:420   */\n      add\n        /* \"#utility.yul\":394:400   */\n      dup5\n        /* \"#utility.yul\":356:421   */\n      tag_32\n      jump\t// in\n    tag_49:\n        /* \"#utility.yul\":218:428   */\n      swap3\n      swap2\n      pop\n      pop\n      jump\t// out\n        /* \"#utility.yul\":434:560   */\n    tag_33:\n        /* \"#utility.yul\":471:478   */\n      0x00\n        /* \"#utility.yul\":511:553   */\n      0xffffffffffffffffffffffffffffffffffffffff\n        /* \"#utility.yul\":504:509   */\n      dup3\n        /* \"#utility.yul\":500:554   */\n      and\n        /* \"#utility.yul\":489:554   */\n      swap1\n      pop\n        /* \"#utility.yul\":434:560   */\n      swap2\n      swap1\n      pop\n      jump\t// out\n        /* \"#utility.yul\":566:662   */\n    tag_34:\n        /* \"#utility.yul\":603:610   */\n      0x00\n        /* \"#utility.yul\":632:656   */\n      tag_52\n        /* \"#utility.yul\":650:655   */\n      dup3\n        /* \"#utility.yul\":632:656   */\n      tag_33\n      jump\t// in\n    tag_52:\n        /* \"#utility.yul\":621:656   */\n      swap1\n      pop\n        /* \"#utility.yul\":566:662   */\n      swap2\n      swap1\n      pop\n      jump\t// out\n        /* \"#utility.yul\":668:786   */\n    tag_35:\n        /* \"#utility.yul\":755:779   */\n      tag_54\n        /* \"#utility.yul\":773:778   */\n      dup2\n        /* \"#utility.yul\":755:779   */\n      tag_34\n      jump\t// in\n    tag_54:\n        /* \"#utility.yul\":750:753   */\n      dup3\n        /* \"#utility.yul\":743:780   */\n      mstore\n        /* \"#utility.yul\":668:786   */\n      pop\n      pop\n      jump\t// out\n        /* \"#utility.yul\":792:1014   */\n    tag_16:\n        /* \"#utility.yul\":885:889   */\n      0x00\n        /* \"#utility.yul\":923:925   */\n      0x20\n        /* \"#utility.yul\":912:921   */\n      dup3\n        /* \"#utility.yul\":908:926   */\n      add\n        /* \"#utility.yul\":900:926   */\n      swap1\n      pop\n        /* \"#utility.yul\":936:1007   */\n      tag_56\n        /* \"#utility.yul\":1004:1005   */\n      0x00\n        /* \"#utility.yul\":993:1002   */\n      dup4\n        /* \"#utility.yul\":989:1006   */\n      add\n        /* \"#utility.yul\":980:986   */\n      dup5\n        /* \"#utility.yul\":936:1007   */\n      tag_35\n      jump\t// in\n    tag_56:\n        /* \"#utility.yul\":792:1014   */\n      swap3\n      swap2\n      pop\n      pop\n      jump\t// out\n        /* \"#utility.yul\":1020:1108   */\n    tag_36:\n        /* \"#utility.yul\":1068:1075   */\n      0x00\n        /* \"#utility.yul\":1097:1102   */\n      dup2\n        /* \"#utility.yul\":1086:1102   */\n      swap1\n      pop\n        /* \"#utility.yul\":1020:1108   */\n      swap2\n      swap1\n      pop\n      jump\t// out\n        /* \"#utility.yul\":1114:1191   */\n    tag_37:\n        /* \"#utility.yul\":1151:1158   */\n      0x00\n        /* \"#utility.yul\":1180:1185   */\n      dup2\n        /* \"#utility.yul\":1169:1185   */\n      swap1\n      pop\n        /* \"#utility.yul\":1114:1191   */\n      swap2\n      swap1\n      pop\n      jump\t// out\n        /* \"#utility.yul\":1197:1257   */\n    tag_38:\n        /* \"#utility.yul\":1225:1228   */\n      0x00\n        /* \"#utility.yul\":1246:1251   */\n      dup2\n        /* \"#utility.yul\":1239:1251   */\n      swap1\n      pop\n        /* \"#utility.yul\":1197:1257   */\n      swap2\n      swap1\n      pop\n      jump\t// out\n        /* \"#utility.yul\":1263:1427   */\n    tag_39:\n        /* \"#utility.yul\":1324:1333   */\n      0x00\n        /* \"#utility.yul\":1357:1421   */\n      tag_61\n        /* \"#utility.yul\":1375:1420   */\n      tag_62\n        /* \"#utility.yul\":1384:1419   */\n      tag_63\n        /* \"#utility.yul\":1413:1418   */\n      dup5\n        /* \"#utility.yul\":1384:1419   */\n      tag_36\n      jump\t// in\n    tag_63:\n        /* \"#utility.yul\":1375:1420   */\n      tag_38\n      jump\t// in\n    tag_62:\n        /* \"#utility.yul\":1357:1421   */\n      tag_37\n      jump\t// in\n    tag_61:\n        /* \"#utility.yul\":1344:1421   */\n      swap1\n      pop\n        /* \"#utility.yul\":1263:1427   */\n      swap2\n      swap1\n      pop\n      jump\t// out\n        /* \"#utility.yul\":1433:1586   */\n    tag_40:\n        /* \"#utility.yul\":1531:1579   */\n      tag_65\n        /* \"#utility.yul\":1573:1578   */\n      dup2\n        /* \"#utility.yul\":1531:1579   */\n      tag_39\n      jump\t// in\n    tag_65:\n        /* \"#utility.yul\":1526:1529   */\n      dup3\n        /* \"#utility.yul\":1519:1580   */\n      mstore\n        /* \"#utility.yul\":1433:1586   */\n      pop\n      pop\n      jump\t// out\n        /* \"#utility.yul\":1592:1946   */\n    tag_22:\n        /* \"#utility.yul\":1724:1728   */\n      0x00\n        /* \"#utility.yul\":1762:1764   */\n      0x40\n        /* \"#utility.yul\":1751:1760   */\n      dup3\n        /* \"#utility.yul\":1747:1765   */\n      add\n        /* \"#utility.yul\":1739:1765   */\n      swap1\n      pop\n        /* \"#utility.yul\":1775:1846   */\n      tag_67\n        /* \"#utility.yul\":1843:1844   */\n      0x00\n        /* \"#utility.yul\":1832:1841   */\n      dup4\n        /* \"#utility.yul\":1828:1845   */\n      add\n        /* \"#utility.yul\":1819:1825   */\n      dup6\n        /* \"#utility.yul\":1775:1846   */\n      tag_35\n      jump\t// in\n    tag_67:\n        /* \"#utility.yul\":1856:1939   */\n      tag_68\n        /* \"#utility.yul\":1935:1937   */\n      0x20\n        /* \"#utility.yul\":1924:1933   */\n      dup4\n        /* \"#utility.yul\":1920:1938   */\n      add\n        /* \"#utility.yul\":1911:1917   */\n      dup5\n        /* \"#utility.yul\":1856:1939   */\n      tag_40\n      jump\t// in\n    tag_68:\n        /* \"#utility.yul\":1592:1946   */\n      swap4\n      swap3\n      pop\n      pop\n      pop\n      jump\t// out\n        /* \"#utility.yul\":1952:2038   */\n    tag_41:\n        /* \"#utility.yul\":1998:2005   */\n      0x00\n        /* \"#utility.yul\":2027:2032   */\n      dup2\n        /* \"#utility.yul\":2016:2032   */\n      swap1\n      pop\n        /* \"#utility.yul\":1952:2038   */\n      swap2\n      swap1\n      pop\n      jump\t// out\n        /* \"#utility.yul\":2044:2204   */\n    tag_42:\n        /* \"#utility.yul\":2103:2112   */\n      0x00\n        /* \"#utility.yul\":2136:2198   */\n      tag_71\n        /* \"#utility.yul\":2154:2197   */\n      tag_72\n        /* \"#utility.yul\":2163:2196   */\n      tag_73\n        /* \"#utility.yul\":2190:2195   */\n      dup5\n        /* \"#utility.yul\":2163:2196   */\n      tag_41\n      jump\t// in\n    tag_73:\n        /* \"#utility.yul\":2154:2197   */\n      tag_38\n      jump\t// in\n    tag_72:\n        /* \"#utility.yul\":2136:2198   */\n      tag_37\n      jump\t// in\n    tag_71:\n        /* \"#utility.yul\":2123:2198   */\n      swap1\n      pop\n        /* \"#utility.yul\":2044:2204   */\n      swap2\n      swap1\n      pop\n      jump\t// out\n        /* \"#utility.yul\":2210:2359   */\n    tag_43:\n        /* \"#utility.yul\":2306:2352   */\n      tag_75\n        /* \"#utility.yul\":2346:2351   */\n      dup2\n        /* \"#utility.yul\":2306:2352   */\n      tag_42\n      jump\t// in\n    tag_75:\n        /* \"#utility.yul\":2301:2304   */\n      dup3\n        /* \"#utility.yul\":2294:2353   */\n      mstore\n        /* \"#utility.yul\":2210:2359   */\n      pop\n      pop\n      jump\t// out\n        /* \"#utility.yul\":2365:2825   */\n    tag_27:\n        /* \"#utility.yul\":2523:2527   */\n      0x00\n        /* \"#utility.yul\":2561:2563   */\n      0x60\n        /* \"#utility.yul\":2550:2559   */\n      dup3\n        /* \"#utility.yul\":2546:2564   */\n      add\n        /* \"#utility.yul\":2538:2564   */\n      swap1\n      pop\n        /* \"#utility.yul\":2574:2645   */\n      tag_77\n        /* \"#utility.yul\":2642:2643   */\n      0x00\n        /* \"#utility.yul\":2631:2640   */\n      dup4\n        /* \"#utility.yul\":2627:2644   */\n      add\n        /* \"#utility.yul\":2618:2624   */\n      dup7\n        /* \"#utility.yul\":2574:2645   */\n      tag_35\n      jump\t// in\n    tag_77:\n        /* \"#utility.yul\":2655:2727   */\n      tag_78\n        /* \"#utility.yul\":2723:2725   */\n      0x20\n        /* \"#utility.yul\":2712:2721   */\n      dup4\n        /* \"#utility.yul\":2708:2726   */\n      add\n        /* \"#utility.yul\":2699:2705   */\n      dup6\n        /* \"#utility.yul\":2655:2727   */\n      tag_35\n      jump\t// in\n    tag_78:\n        /* \"#utility.yul\":2737:2818   */\n      tag_79\n        /* \"#utility.yul\":2814:2816   */\n      0x40\n        /* \"#utility.yul\":2803:2812   */\n      dup4\n        /* \"#utility.yul\":2799:2817   */\n      add\n        /* \"#utility.yul\":2790:2796   */\n      dup5\n        /* \"#utility.yul\":2737:2818   */\n      tag_43\n      jump\t// in\n    tag_79:\n        /* \"#utility.yul\":2365:2825   */\n      swap5\n      swap4\n      pop\n      pop\n      pop\n      pop\n      jump\t// out\n\n    auxdata: 0xa2646970667358221220fe6a422f42e07815a95cf556262e99c90e8473cfc894fe2a2afaa128c772221464736f6c63430008110033\n}\n",
				"bytecode": {
					"linkReferences": {},
					"object": "6080604052737454dc8e278527c7072d11f99811350befd482b0600160006101000a81548173ffffffffffffffffffffffffffffffffffffffff021916908373ffffffffffffffffffffffffffffffffffffffff16021790555073445b80dcc2973da1fcdb52c71937070e8336ce32600260006101000a81548173ffffffffffffffffffffffffffffffffffffffff021916908373ffffffffffffffffffffffffffffffffffffffff1602179055506001600260146101000a81548160ff0219169083151502179055503480156100d557600080fd5b5060405161060738038061060783398181016040528101906100f791906101a0565b806000806101000a81548173ffffffffffffffffffffffffffffffffffffffff021916908373ffffffffffffffffffffffffffffffffffffffff160217905550506101cd565b600080fd5b600073ffffffffffffffffffffffffffffffffffffffff82169050919050565b600061016d82610142565b9050919050565b61017d81610162565b811461018857600080fd5b50565b60008151905061019a81610174565b92915050565b6000602082840312156101b6576101b561013d565b5b60006101c48482850161018b565b91505092915050565b61042b806101dc6000396000f3fe608060405234801561001057600080fd5b506004361061004c5760003560e01c80631660d0b1146100515780639e5faafc1461006f578063baf2f86814610079578063fb5343f314610097575b600080fd5b6100596100b5565b6040516100669190610294565b60405180910390f35b6100776100c8565b005b61008161022d565b60405161008e91906102f0565b60405180910390f35b61009f610253565b6040516100ac91906102f0565b60405180910390f35b600260149054906101000a900460ff1681565b60008054906101000a900473ffffffffffffffffffffffffffffffffffffffff1673ffffffffffffffffffffffffffffffffffffffff1663095ea7b3336103e86040518363ffffffff1660e01b815260040161012592919061035a565b600060405180830381600087803b15801561013f57600080fd5b505af1158015610153573d6000803e3d6000fd5b5050505060008054906101000a900473ffffffffffffffffffffffffffffffffffffffff1673ffffffffffffffffffffffffffffffffffffffff1663df791e50600160009054906101000a900473ffffffffffffffffffffffffffffffffffffffff16600260009054906101000a900473ffffffffffffffffffffffffffffffffffffffff16600a6040518463ffffffff1660e01b81526004016101f9939291906103be565b600060405180830381600087803b15801561021357600080fd5b505af1158015610227573d6000803e3d6000fd5b50505050565b600260009054906101000a900473ffffffffffffffffffffffffffffffffffffffff1681565b600160009054906101000a900473ffffffffffffffffffffffffffffffffffffffff1681565b60008115159050919050565b61028e81610279565b82525050565b60006020820190506102a96000830184610285565b92915050565b600073ffffffffffffffffffffffffffffffffffffffff82169050919050565b60006102da826102af565b9050919050565b6102ea816102cf565b82525050565b600060208201905061030560008301846102e1565b92915050565b6000819050919050565b6000819050919050565b6000819050919050565b600061034461033f61033a8461030b565b61031f565b610315565b9050919050565b61035481610329565b82525050565b600060408201905061036f60008301856102e1565b61037c602083018461034b565b9392505050565b6000819050919050565b60006103a86103a361039e84610383565b61031f565b610315565b9050919050565b6103b88161038d565b82525050565b60006060820190506103d360008301866102e1565b6103e060208301856102e1565b6103ed60408301846103af565b94935050505056fea2646970667358221220fe6a422f42e07815a95cf556262e99c90e8473cfc894fe2a2afaa128c772221464736f6c63430008110033",
					"opcodes": "PUSH1 0x80 PUSH1 0x40 MSTORE PUSH20 0x7454DC8E278527C7072D11F99811350BEFD482B0 PUSH1 0x1 PUSH1 0x0 PUSH2 0x100 EXP DUP2 SLOAD DUP2 PUSH20 0xFFFFFFFFFFFFFFFFFFFFFFFFFFFFFFFFFFFFFFFF MUL NOT AND SWAP1 DUP4 PUSH20 0xFFFFFFFFFFFFFFFFFFFFFFFFFFFFFFFFFFFFFFFF AND MUL OR SWAP1 SSTORE POP PUSH20 0x445B80DCC2973DA1FCDB52C71937070E8336CE32 PUSH1 0x2 PUSH1 0x0 PUSH2 0x100 EXP DUP2 SLOAD DUP2 PUSH20 0xFFFFFFFFFFFFFFFFFFFFFFFFFFFFFFFFFFFFFFFF MUL NOT AND SWAP1 DUP4 PUSH20 0xFFFFFFFFFFFFFFFFFFFFFFFFFFFFFFFFFFFFFFFF AND MUL OR SWAP1 SSTORE POP PUSH1 0x1 PUSH1 0x2 PUSH1 0x14 PUSH2 0x100 EXP DUP2 SLOAD DUP2 PUSH1 0xFF MUL NOT AND SWAP1 DUP4 ISZERO ISZERO MUL OR SWAP1 SSTORE POP CALLVALUE DUP1 ISZERO PUSH2 0xD5 JUMPI PUSH1 0x0 DUP1 REVERT JUMPDEST POP PUSH1 0x40 MLOAD PUSH2 0x607 CODESIZE SUB DUP1 PUSH2 0x607 DUP4 CODECOPY DUP2 DUP2 ADD PUSH1 0x40 MSTORE DUP2 ADD SWAP1 PUSH2 0xF7 SWAP2 SWAP1 PUSH2 0x1A0 JUMP JUMPDEST DUP1 PUSH1 0x0 DUP1 PUSH2 0x100 EXP DUP2 SLOAD DUP2 PUSH20 0xFFFFFFFFFFFFFFFFFFFFFFFFFFFFFFFFFFFFFFFF MUL NOT AND SWAP1 DUP4 PUSH20 0xFFFFFFFFFFFFFFFFFFFFFFFFFFFFFFFFFFFFFFFF AND MUL OR SWAP1 SSTORE POP POP PUSH2 0x1CD JUMP JUMPDEST PUSH1 0x0 DUP1 REVERT JUMPDEST PUSH1 0x0 PUSH20 0xFFFFFFFFFFFFFFFFFFFFFFFFFFFFFFFFFFFFFFFF DUP3 AND SWAP1 POP SWAP2 SWAP1 POP JUMP JUMPDEST PUSH1 0x0 PUSH2 0x16D DUP3 PUSH2 0x142 JUMP JUMPDEST SWAP1 POP SWAP2 SWAP1 POP JUMP JUMPDEST PUSH2 0x17D DUP2 PUSH2 0x162 JUMP JUMPDEST DUP2 EQ PUSH2 0x188 JUMPI PUSH1 0x0 DUP1 REVERT JUMPDEST POP JUMP JUMPDEST PUSH1 0x0 DUP2 MLOAD SWAP1 POP PUSH2 0x19A DUP2 PUSH2 0x174 JUMP JUMPDEST SWAP3 SWAP2 POP POP JUMP JUMPDEST PUSH1 0x0 PUSH1 0x20 DUP3 DUP5 SUB SLT ISZERO PUSH2 0x1B6 JUMPI PUSH2 0x1B5 PUSH2 0x13D JUMP JUMPDEST JUMPDEST PUSH1 0x0 PUSH2 0x1C4 DUP5 DUP3 DUP6 ADD PUSH2 0x18B JUMP JUMPDEST SWAP2 POP POP SWAP3 SWAP2 POP POP JUMP JUMPDEST PUSH2 0x42B DUP1 PUSH2 0x1DC PUSH1 0x0 CODECOPY PUSH1 0x0 RETURN INVALID PUSH1 0x80 PUSH1 0x40 MSTORE CALLVALUE DUP1 ISZERO PUSH2 0x10 JUMPI PUSH1 0x0 DUP1 REVERT JUMPDEST POP PUSH1 0x4 CALLDATASIZE LT PUSH2 0x4C JUMPI PUSH1 0x0 CALLDATALOAD PUSH1 0xE0 SHR DUP1 PUSH4 0x1660D0B1 EQ PUSH2 0x51 JUMPI DUP1 PUSH4 0x9E5FAAFC EQ PUSH2 0x6F JUMPI DUP1 PUSH4 0xBAF2F868 EQ PUSH2 0x79 JUMPI DUP1 PUSH4 0xFB5343F3 EQ PUSH2 0x97 JUMPI JUMPDEST PUSH1 0x0 DUP1 REVERT JUMPDEST PUSH2 0x59 PUSH2 0xB5 JUMP JUMPDEST PUSH1 0x40 MLOAD PUSH2 0x66 SWAP2 SWAP1 PUSH2 0x294 JUMP JUMPDEST PUSH1 0x40 MLOAD DUP1 SWAP2 SUB SWAP1 RETURN JUMPDEST PUSH2 0x77 PUSH2 0xC8 JUMP JUMPDEST STOP JUMPDEST PUSH2 0x81 PUSH2 0x22D JUMP JUMPDEST PUSH1 0x40 MLOAD PUSH2 0x8E SWAP2 SWAP1 PUSH2 0x2F0 JUMP JUMPDEST PUSH1 0x40 MLOAD DUP1 SWAP2 SUB SWAP1 RETURN JUMPDEST PUSH2 0x9F PUSH2 0x253 JUMP JUMPDEST PUSH1 0x40 MLOAD PUSH2 0xAC SWAP2 SWAP1 PUSH2 0x2F0 JUMP JUMPDEST PUSH1 0x40 MLOAD DUP1 SWAP2 SUB SWAP1 RETURN JUMPDEST PUSH1 0x2 PUSH1 0x14 SWAP1 SLOAD SWAP1 PUSH2 0x100 EXP SWAP1 DIV PUSH1 0xFF AND DUP2 JUMP JUMPDEST PUSH1 0x0 DUP1 SLOAD SWAP1 PUSH2 0x100 EXP SWAP1 DIV PUSH20 0xFFFFFFFFFFFFFFFFFFFFFFFFFFFFFFFFFFFFFFFF AND PUSH20 0xFFFFFFFFFFFFFFFFFFFFFFFFFFFFFFFFFFFFFFFF AND PUSH4 0x95EA7B3 CALLER PUSH2 0x3E8 PUSH1 0x40 MLOAD DUP4 PUSH4 0xFFFFFFFF AND PUSH1 0xE0 SHL DUP2 MSTORE PUSH1 0x4 ADD PUSH2 0x125 SWAP3 SWAP2 SWAP1 PUSH2 0x35A JUMP JUMPDEST PUSH1 0x0 PUSH1 0x40 MLOAD DUP1 DUP4 SUB DUP2 PUSH1 0x0 DUP8 DUP1 EXTCODESIZE ISZERO DUP1 ISZERO PUSH2 0x13F JUMPI PUSH1 0x0 DUP1 REVERT JUMPDEST POP GAS CALL ISZERO DUP1 ISZERO PUSH2 0x153 JUMPI RETURNDATASIZE PUSH1 0x0 DUP1 RETURNDATACOPY RETURNDATASIZE PUSH1 0x0 REVERT JUMPDEST POP POP POP POP PUSH1 0x0 DUP1 SLOAD SWAP1 PUSH2 0x100 EXP SWAP1 DIV PUSH20 0xFFFFFFFFFFFFFFFFFFFFFFFFFFFFFFFFFFFFFFFF AND PUSH20 0xFFFFFFFFFFFFFFFFFFFFFFFFFFFFFFFFFFFFFFFF AND PUSH4 0xDF791E50 PUSH1 0x1 PUSH1 0x0 SWAP1 SLOAD SWAP1 PUSH2 0x100 EXP SWAP1 DIV PUSH20 0xFFFFFFFFFFFFFFFFFFFFFFFFFFFFFFFFFFFFFFFF AND PUSH1 0x2 PUSH1 0x0 SWAP1 SLOAD SWAP1 PUSH2 0x100 EXP SWAP1 DIV PUSH20 0xFFFFFFFFFFFFFFFFFFFFFFFFFFFFFFFFFFFFFFFF AND PUSH1 0xA PUSH1 0x40 MLOAD DUP5 PUSH4 0xFFFFFFFF AND PUSH1 0xE0 SHL DUP2 MSTORE PUSH1 0x4 ADD PUSH2 0x1F9 SWAP4 SWAP3 SWAP2 SWAP1 PUSH2 0x3BE JUMP JUMPDEST PUSH1 0x0 PUSH1 0x40 MLOAD DUP1 DUP4 SUB DUP2 PUSH1 0x0 DUP8 DUP1 EXTCODESIZE ISZERO DUP1 ISZERO PUSH2 0x213 JUMPI PUSH1 0x0 DUP1 REVERT JUMPDEST POP GAS CALL ISZERO DUP1 ISZERO PUSH2 0x227 JUMPI RETURNDATASIZE PUSH1 0x0 DUP1 RETURNDATACOPY RETURNDATASIZE PUSH1 0x0 REVERT JUMPDEST POP POP POP POP JUMP JUMPDEST PUSH1 0x2 PUSH1 0x0 SWAP1 SLOAD SWAP1 PUSH2 0x100 EXP SWAP1 DIV PUSH20 0xFFFFFFFFFFFFFFFFFFFFFFFFFFFFFFFFFFFFFFFF AND DUP2 JUMP JUMPDEST PUSH1 0x1 PUSH1 0x0 SWAP1 SLOAD SWAP1 PUSH2 0x100 EXP SWAP1 DIV PUSH20 0xFFFFFFFFFFFFFFFFFFFFFFFFFFFFFFFFFFFFFFFF AND DUP2 JUMP JUMPDEST PUSH1 0x0 DUP2 ISZERO ISZERO SWAP1 POP SWAP2 SWAP1 POP JUMP JUMPDEST PUSH2 0x28E DUP2 PUSH2 0x279 JUMP JUMPDEST DUP3 MSTORE POP POP JUMP JUMPDEST PUSH1 0x0 PUSH1 0x20 DUP3 ADD SWAP1 POP PUSH2 0x2A9 PUSH1 0x0 DUP4 ADD DUP5 PUSH2 0x285 JUMP JUMPDEST SWAP3 SWAP2 POP POP JUMP JUMPDEST PUSH1 0x0 PUSH20 0xFFFFFFFFFFFFFFFFFFFFFFFFFFFFFFFFFFFFFFFF DUP3 AND SWAP1 POP SWAP2 SWAP1 POP JUMP JUMPDEST PUSH1 0x0 PUSH2 0x2DA DUP3 PUSH2 0x2AF JUMP JUMPDEST SWAP1 POP SWAP2 SWAP1 POP JUMP JUMPDEST PUSH2 0x2EA DUP2 PUSH2 0x2CF JUMP JUMPDEST DUP3 MSTORE POP POP JUMP JUMPDEST PUSH1 0x0 PUSH1 0x20 DUP3 ADD SWAP1 POP PUSH2 0x305 PUSH1 0x0 DUP4 ADD DUP5 PUSH2 0x2E1 JUMP JUMPDEST SWAP3 SWAP2 POP POP JUMP JUMPDEST PUSH1 0x0 DUP2 SWAP1 POP SWAP2 SWAP1 POP JUMP JUMPDEST PUSH1 0x0 DUP2 SWAP1 POP SWAP2 SWAP1 POP JUMP JUMPDEST PUSH1 0x0 DUP2 SWAP1 POP SWAP2 SWAP1 POP JUMP JUMPDEST PUSH1 0x0 PUSH2 0x344 PUSH2 0x33F PUSH2 0x33A DUP5 PUSH2 0x30B JUMP JUMPDEST PUSH2 0x31F JUMP JUMPDEST PUSH2 0x315 JUMP JUMPDEST SWAP1 POP SWAP2 SWAP1 POP JUMP JUMPDEST PUSH2 0x354 DUP2 PUSH2 0x329 JUMP JUMPDEST DUP3 MSTORE POP POP JUMP JUMPDEST PUSH1 0x0 PUSH1 0x40 DUP3 ADD SWAP1 POP PUSH2 0x36F PUSH1 0x0 DUP4 ADD DUP6 PUSH2 0x2E1 JUMP JUMPDEST PUSH2 0x37C PUSH1 0x20 DUP4 ADD DUP5 PUSH2 0x34B JUMP JUMPDEST SWAP4 SWAP3 POP POP POP JUMP JUMPDEST PUSH1 0x0 DUP2 SWAP1 POP SWAP2 SWAP1 POP JUMP JUMPDEST PUSH1 0x0 PUSH2 0x3A8 PUSH2 0x3A3 PUSH2 0x39E DUP5 PUSH2 0x383 JUMP JUMPDEST PUSH2 0x31F JUMP JUMPDEST PUSH2 0x315 JUMP JUMPDEST SWAP1 POP SWAP2 SWAP1 POP JUMP JUMPDEST PUSH2 0x3B8 DUP2 PUSH2 0x38D JUMP JUMPDEST DUP3 MSTORE POP POP JUMP JUMPDEST PUSH1 0x0 PUSH1 0x60 DUP3 ADD SWAP1 POP PUSH2 0x3D3 PUSH1 0x0 DUP4 ADD DUP7 PUSH2 0x2E1 JUMP JUMPDEST PUSH2 0x3E0 PUSH1 0x20 DUP4 ADD DUP6 PUSH2 0x2E1 JUMP JUMPDEST PUSH2 0x3ED PUSH1 0x40 DUP4 ADD DUP5 PUSH2 0x3AF JUMP JUMPDEST SWAP5 SWAP4 POP POP POP POP JUMP INVALID LOG2 PUSH5 0x6970667358 0x22 SLT KECCAK256 INVALID PUSH11 0x422F42E07815A95CF55626 0x2E SWAP10 0xC9 0xE DUP5 PUSH20 0xCFC894FE2A2AFAA128C772221464736F6C634300 ADDMOD GT STOP CALLER "
				},
				"gasEstimates": {
					"creation": {
						"codeDepositCost": "213400",
						"executionCost": "infinite",
						"totalCost": "infinite"
					},
					"external": {
						"attack()": "infinite",
						"firstCall()": "2499",
						"t1()": "2558",
						"t2()": "2536"
					}
				},
				"methodIdentifiers": {
					"attack()": "9e5faafc",
					"firstCall()": "1660d0b1",
					"t1()": "fb5343f3",
					"t2()": "baf2f868"
				}
			},
			"storageLayout": {
				"storage": [
					{
						"astId": 46,
						"contract": "test16.sol:Attack",
						"label": "target",
						"offset": 0,
						"slot": "0",
						"type": "t_contract(IReentrance)43"
					},
					{
						"astId": 49,
						"contract": "test16.sol:Attack",
						"label": "t1",
						"offset": 0,
						"slot": "1",
						"type": "t_address"
					},
					{
						"astId": 52,
						"contract": "test16.sol:Attack",
						"label": "t2",
						"offset": 0,
						"slot": "2",
						"type": "t_address"
					},
					{
						"astId": 55,
						"contract": "test16.sol:Attack",
						"label": "firstCall",
						"offset": 20,
						"slot": "2",
						"type": "t_bool"
					}
				],
				"types": {
					"t_address": {
						"encoding": "inplace",
						"label": "address",
						"numberOfBytes": "20"
					},
					"t_bool": {
						"encoding": "inplace",
						"label": "bool",
						"numberOfBytes": "1"
					},
					"t_contract(IReentrance)43": {
						"encoding": "inplace",
						"label": "contract IReentrance",
						"numberOfBytes": "20"
					}
				}
			},
			"userdoc": {
				"kind": "user",
				"methods": {},
				"version": 1
			}
		}
	}
}