{
	"Dex.sol": {
		"Dex": {
			"abi": [
				{
					"inputs": [
						{
							"internalType": "address",
							"name": "owner",
							"type": "address"
						}
					],
					"stateMutability": "nonpayable",
					"type": "constructor"
				},
				{
					"inputs": [
						{
							"internalType": "address",
							"name": "owner",
							"type": "address"
						}
					],
					"name": "OwnableInvalidOwner",
					"type": "error"
				},
				{
					"inputs": [
						{
							"internalType": "address",
							"name": "account",
							"type": "address"
						}
					],
					"name": "OwnableUnauthorizedAccount",
					"type": "error"
				},
				{
					"anonymous": false,
					"inputs": [
						{
							"indexed": true,
							"internalType": "address",
							"name": "previousOwner",
							"type": "address"
						},
						{
							"indexed": true,
							"internalType": "address",
							"name": "newOwner",
							"type": "address"
						}
					],
					"name": "OwnershipTransferred",
					"type": "event"
				},
				{
					"inputs": [
						{
							"internalType": "address",
							"name": "token_address",
							"type": "address"
						},
						{
							"internalType": "uint256",
							"name": "amount",
							"type": "uint256"
						}
					],
					"name": "addLiquidity",
					"outputs": [],
					"stateMutability": "nonpayable",
					"type": "function"
				},
				{
					"inputs": [
						{
							"internalType": "address",
							"name": "spender",
							"type": "address"
						},
						{
							"internalType": "uint256",
							"name": "amount",
							"type": "uint256"
						}
					],
					"name": "approve",
					"outputs": [],
					"stateMutability": "nonpayable",
					"type": "function"
				},
				{
					"inputs": [
						{
							"internalType": "address",
							"name": "token",
							"type": "address"
						},
						{
							"internalType": "address",
							"name": "account",
							"type": "address"
						}
					],
					"name": "balanceOf",
					"outputs": [
						{
							"internalType": "uint256",
							"name": "",
							"type": "uint256"
						}
					],
					"stateMutability": "view",
					"type": "function"
				},
				{
					"inputs": [
						{
							"internalType": "address",
							"name": "from",
							"type": "address"
						},
						{
							"internalType": "address",
							"name": "to",
							"type": "address"
						},
						{
							"internalType": "uint256",
							"name": "amount",
							"type": "uint256"
						}
					],
					"name": "getSwapPrice",
					"outputs": [
						{
							"internalType": "uint256",
							"name": "",
							"type": "uint256"
						}
					],
					"stateMutability": "view",
					"type": "function"
				},
				{
					"inputs": [],
					"name": "owner",
					"outputs": [
						{
							"internalType": "address",
							"name": "",
							"type": "address"
						}
					],
					"stateMutability": "view",
					"type": "function"
				},
				{
					"inputs": [],
					"name": "renounceOwnership",
					"outputs": [],
					"stateMutability": "nonpayable",
					"type": "function"
				},
				{
					"inputs": [
						{
							"internalType": "address",
							"name": "_token1",
							"type": "address"
						},
						{
							"internalType": "address",
							"name": "_token2",
							"type": "address"
						}
					],
					"name": "setTokens",
					"outputs": [],
					"stateMutability": "nonpayable",
					"type": "function"
				},
				{
					"inputs": [
						{
							"internalType": "address",
							"name": "from",
							"type": "address"
						},
						{
							"internalType": "address",
							"name": "to",
							"type": "address"
						},
						{
							"internalType": "uint256",
							"name": "amount",
							"type": "uint256"
						}
					],
					"name": "swap",
					"outputs": [],
					"stateMutability": "nonpayable",
					"type": "function"
				},
				{
					"inputs": [],
					"name": "token1",
					"outputs": [
						{
							"internalType": "address",
							"name": "",
							"type": "address"
						}
					],
					"stateMutability": "view",
					"type": "function"
				},
				{
					"inputs": [],
					"name": "token2",
					"outputs": [
						{
							"internalType": "address",
							"name": "",
							"type": "address"
						}
					],
					"stateMutability": "view",
					"type": "function"
				},
				{
					"inputs": [
						{
							"internalType": "address",
							"name": "newOwner",
							"type": "address"
						}
					],
					"name": "transferOwnership",
					"outputs": [],
					"stateMutability": "nonpayable",
					"type": "function"
				}
			],
			"devdoc": {
				"errors": {
					"OwnableInvalidOwner(address)": [
						{
							"details": "The owner is not a valid owner account. (eg. `address(0)`)"
						}
					],
					"OwnableUnauthorizedAccount(address)": [
						{
							"details": "The caller account is not authorized to perform an operation."
						}
					]
				},
				"kind": "dev",
				"methods": {
					"owner()": {
						"details": "Returns the address of the current owner."
					},
					"renounceOwnership()": {
						"details": "Leaves the contract without owner. It will not be possible to call `onlyOwner` functions. Can only be called by the current owner. NOTE: Renouncing ownership will leave the contract without an owner, thereby disabling any functionality that is only available to the owner."
					},
					"transferOwnership(address)": {
						"details": "Transfers ownership of the contract to a new account (`newOwner`). Can only be called by the current owner."
					}
				},
				"version": 1
			},
			"evm": {
				"assembly": "    /* \"Dex.sol\":231:1790  contract Dex is Ownable {... */\n  mstore(0x40, 0x80)\n    /* \"Dex.sol\":320:364  constructor(address owner) Ownable(owner) {} */\n  callvalue\n  dup1\n  iszero\n  tag_1\n  jumpi\n  0x00\n  dup1\n  revert\ntag_1:\n  pop\n  mload(0x40)\n  sub(codesize, bytecodeSize)\n  dup1\n  bytecodeSize\n  dup4\n  codecopy\n  dup2\n  dup2\n  add\n  0x40\n  mstore\n  dup2\n  add\n  swap1\n  tag_2\n  swap2\n  swap1\n  tag_3\n  jump\t// in\ntag_2:\n    /* \"Dex.sol\":355:360  owner */\n  dup1\n    /* \"@openzeppelin/contracts/access/Ownable.sol\":1297:1298  0 */\n  0x00\n    /* \"@openzeppelin/contracts/access/Ownable.sol\":1273:1299  initialOwner == address(0) */\n  0xffffffffffffffffffffffffffffffffffffffff\n  and\n    /* \"@openzeppelin/contracts/access/Ownable.sol\":1273:1285  initialOwner */\n  dup2\n    /* \"@openzeppelin/contracts/access/Ownable.sol\":1273:1299  initialOwner == address(0) */\n  0xffffffffffffffffffffffffffffffffffffffff\n  and\n  sub\n    /* \"@openzeppelin/contracts/access/Ownable.sol\":1269:1364  if (initialOwner == address(0)) {... */\n  tag_7\n  jumpi\n    /* \"@openzeppelin/contracts/access/Ownable.sol\":1350:1351  0 */\n  0x00\n    /* \"@openzeppelin/contracts/access/Ownable.sol\":1322:1353  OwnableInvalidOwner(address(0)) */\n  mload(0x40)\n  0x1e4fbdf700000000000000000000000000000000000000000000000000000000\n  dup2\n  mstore\n  0x04\n  add\n  tag_8\n  swap2\n  swap1\n  tag_9\n  jump\t// in\ntag_8:\n  mload(0x40)\n  dup1\n  swap2\n  sub\n  swap1\n  revert\n    /* \"@openzeppelin/contracts/access/Ownable.sol\":1269:1364  if (initialOwner == address(0)) {... */\ntag_7:\n    /* \"@openzeppelin/contracts/access/Ownable.sol\":1373:1405  _transferOwnership(initialOwner) */\n  tag_10\n    /* \"@openzeppelin/contracts/access/Ownable.sol\":1392:1404  initialOwner */\n  dup2\n    /* \"@openzeppelin/contracts/access/Ownable.sol\":1373:1391  _transferOwnership */\n  shl(0x20, tag_11)\n    /* \"@openzeppelin/contracts/access/Ownable.sol\":1373:1405  _transferOwnership(initialOwner) */\n  0x20\n  shr\n  jump\t// in\ntag_10:\n    /* \"@openzeppelin/contracts/access/Ownable.sol\":1225:1412  constructor(address initialOwner) {... */\n  pop\n    /* \"Dex.sol\":320:364  constructor(address owner) Ownable(owner) {} */\n  pop\n    /* \"Dex.sol\":231:1790  contract Dex is Ownable {... */\n  jump(tag_13)\n    /* \"@openzeppelin/contracts/access/Ownable.sol\":2912:3099  function _transferOwnership(address newOwner) internal virtual {... */\ntag_11:\n    /* \"@openzeppelin/contracts/access/Ownable.sol\":2985:3001  address oldOwner */\n  0x00\n    /* \"@openzeppelin/contracts/access/Ownable.sol\":3004:3010  _owner */\n  dup1\n  0x00\n  swap1\n  sload\n  swap1\n  0x0100\n  exp\n  swap1\n  div\n  0xffffffffffffffffffffffffffffffffffffffff\n  and\n    /* \"@openzeppelin/contracts/access/Ownable.sol\":2985:3010  address oldOwner = _owner */\n  swap1\n  pop\n    /* \"@openzeppelin/contracts/access/Ownable.sol\":3029:3037  newOwner */\n  dup2\n    /* \"@openzeppelin/contracts/access/Ownable.sol\":3020:3026  _owner */\n  0x00\n  dup1\n    /* \"@openzeppelin/contracts/access/Ownable.sol\":3020:3037  _owner = newOwner */\n  0x0100\n  exp\n  dup2\n  sload\n  dup2\n  0xffffffffffffffffffffffffffffffffffffffff\n  mul\n  not\n  and\n  swap1\n  dup4\n  0xffffffffffffffffffffffffffffffffffffffff\n  and\n  mul\n  or\n  swap1\n  sstore\n  pop\n    /* \"@openzeppelin/contracts/access/Ownable.sol\":3083:3091  newOwner */\n  dup2\n    /* \"@openzeppelin/contracts/access/Ownable.sol\":3052:3092  OwnershipTransferred(oldOwner, newOwner) */\n  0xffffffffffffffffffffffffffffffffffffffff\n  and\n    /* \"@openzeppelin/contracts/access/Ownable.sol\":3073:3081  oldOwner */\n  dup2\n    /* \"@openzeppelin/contracts/access/Ownable.sol\":3052:3092  OwnershipTransferred(oldOwner, newOwner) */\n  0xffffffffffffffffffffffffffffffffffffffff\n  and\n  0x8be0079c531659141344cd1fd0a4f28419497f9722a3daafe3b4186f6b6457e0\n  mload(0x40)\n  mload(0x40)\n  dup1\n  swap2\n  sub\n  swap1\n  log3\n    /* \"@openzeppelin/contracts/access/Ownable.sol\":2975:3099  {... */\n  pop\n    /* \"@openzeppelin/contracts/access/Ownable.sol\":2912:3099  function _transferOwnership(address newOwner) internal virtual {... */\n  pop\n  jump\t// out\n    /* \"#utility.yul\":88:205   */\ntag_16:\n    /* \"#utility.yul\":197:198   */\n  0x00\n    /* \"#utility.yul\":194:195   */\n  dup1\n    /* \"#utility.yul\":187:199   */\n  revert\n    /* \"#utility.yul\":334:460   */\ntag_18:\n    /* \"#utility.yul\":371:378   */\n  0x00\n    /* \"#utility.yul\":411:453   */\n  0xffffffffffffffffffffffffffffffffffffffff\n    /* \"#utility.yul\":404:409   */\n  dup3\n    /* \"#utility.yul\":400:454   */\n  and\n    /* \"#utility.yul\":389:454   */\n  swap1\n  pop\n    /* \"#utility.yul\":334:460   */\n  swap2\n  swap1\n  pop\n  jump\t// out\n    /* \"#utility.yul\":466:562   */\ntag_19:\n    /* \"#utility.yul\":503:510   */\n  0x00\n    /* \"#utility.yul\":532:556   */\n  tag_29\n    /* \"#utility.yul\":550:555   */\n  dup3\n    /* \"#utility.yul\":532:556   */\n  tag_18\n  jump\t// in\ntag_29:\n    /* \"#utility.yul\":521:556   */\n  swap1\n  pop\n    /* \"#utility.yul\":466:562   */\n  swap2\n  swap1\n  pop\n  jump\t// out\n    /* \"#utility.yul\":568:690   */\ntag_20:\n    /* \"#utility.yul\":641:665   */\n  tag_31\n    /* \"#utility.yul\":659:664   */\n  dup2\n    /* \"#utility.yul\":641:665   */\n  tag_19\n  jump\t// in\ntag_31:\n    /* \"#utility.yul\":634:639   */\n  dup2\n    /* \"#utility.yul\":631:666   */\n  eq\n    /* \"#utility.yul\":621:684   */\n  tag_32\n  jumpi\n    /* \"#utility.yul\":680:681   */\n  0x00\n    /* \"#utility.yul\":677:678   */\n  dup1\n    /* \"#utility.yul\":670:682   */\n  revert\n    /* \"#utility.yul\":621:684   */\ntag_32:\n    /* \"#utility.yul\":568:690   */\n  pop\n  jump\t// out\n    /* \"#utility.yul\":696:839   */\ntag_21:\n    /* \"#utility.yul\":753:758   */\n  0x00\n    /* \"#utility.yul\":784:790   */\n  dup2\n    /* \"#utility.yul\":778:791   */\n  mload\n    /* \"#utility.yul\":769:791   */\n  swap1\n  pop\n    /* \"#utility.yul\":800:833   */\n  tag_34\n    /* \"#utility.yul\":827:832   */\n  dup2\n    /* \"#utility.yul\":800:833   */\n  tag_20\n  jump\t// in\ntag_34:\n    /* \"#utility.yul\":696:839   */\n  swap3\n  swap2\n  pop\n  pop\n  jump\t// out\n    /* \"#utility.yul\":845:1196   */\ntag_3:\n    /* \"#utility.yul\":915:921   */\n  0x00\n    /* \"#utility.yul\":964:966   */\n  0x20\n    /* \"#utility.yul\":952:961   */\n  dup3\n    /* \"#utility.yul\":943:950   */\n  dup5\n    /* \"#utility.yul\":939:962   */\n  sub\n    /* \"#utility.yul\":935:967   */\n  slt\n    /* \"#utility.yul\":932:1051   */\n  iszero\n  tag_36\n  jumpi\n    /* \"#utility.yul\":970:1049   */\n  tag_37\n  tag_16\n  jump\t// in\ntag_37:\n    /* \"#utility.yul\":932:1051   */\ntag_36:\n    /* \"#utility.yul\":1090:1091   */\n  0x00\n    /* \"#utility.yul\":1115:1179   */\n  tag_38\n    /* \"#utility.yul\":1171:1178   */\n  dup5\n    /* \"#utility.yul\":1162:1168   */\n  dup3\n    /* \"#utility.yul\":1151:1160   */\n  dup6\n    /* \"#utility.yul\":1147:1169   */\n  add\n    /* \"#utility.yul\":1115:1179   */\n  tag_21\n  jump\t// in\ntag_38:\n    /* \"#utility.yul\":1105:1179   */\n  swap2\n  pop\n    /* \"#utility.yul\":1061:1189   */\n  pop\n    /* \"#utility.yul\":845:1196   */\n  swap3\n  swap2\n  pop\n  pop\n  jump\t// out\n    /* \"#utility.yul\":1202:1320   */\ntag_22:\n    /* \"#utility.yul\":1289:1313   */\n  tag_40\n    /* \"#utility.yul\":1307:1312   */\n  dup2\n    /* \"#utility.yul\":1289:1313   */\n  tag_19\n  jump\t// in\ntag_40:\n    /* \"#utility.yul\":1284:1287   */\n  dup3\n    /* \"#utility.yul\":1277:1314   */\n  mstore\n    /* \"#utility.yul\":1202:1320   */\n  pop\n  pop\n  jump\t// out\n    /* \"#utility.yul\":1326:1548   */\ntag_9:\n    /* \"#utility.yul\":1419:1423   */\n  0x00\n    /* \"#utility.yul\":1457:1459   */\n  0x20\n    /* \"#utility.yul\":1446:1455   */\n  dup3\n    /* \"#utility.yul\":1442:1460   */\n  add\n    /* \"#utility.yul\":1434:1460   */\n  swap1\n  pop\n    /* \"#utility.yul\":1470:1541   */\n  tag_42\n    /* \"#utility.yul\":1538:1539   */\n  0x00\n    /* \"#utility.yul\":1527:1536   */\n  dup4\n    /* \"#utility.yul\":1523:1540   */\n  add\n    /* \"#utility.yul\":1514:1520   */\n  dup5\n    /* \"#utility.yul\":1470:1541   */\n  tag_22\n  jump\t// in\ntag_42:\n    /* \"#utility.yul\":1326:1548   */\n  swap3\n  swap2\n  pop\n  pop\n  jump\t// out\n    /* \"Dex.sol\":231:1790  contract Dex is Ownable {... */\ntag_13:\n  dataSize(sub_0)\n  dup1\n  dataOffset(sub_0)\n  0x00\n  codecopy\n  0x00\n  return\nstop\n\nsub_0: assembly {\n        /* \"Dex.sol\":231:1790  contract Dex is Ownable {... */\n      mstore(0x40, 0x80)\n      callvalue\n      dup1\n      iszero\n      tag_1\n      jumpi\n      0x00\n      dup1\n      revert\n    tag_1:\n      pop\n      jumpi(tag_2, lt(calldatasize, 0x04))\n      shr(0xe0, calldataload(0x00))\n      dup1\n      0xbfd7e00d\n      gt\n      tag_14\n      jumpi\n      dup1\n      0xbfd7e00d\n      eq\n      tag_8\n      jumpi\n      dup1\n      0xcbc7854e\n      eq\n      tag_9\n      jumpi\n      dup1\n      0xd21220a7\n      eq\n      tag_10\n      jumpi\n      dup1\n      0xdf791e50\n      eq\n      tag_11\n      jumpi\n      dup1\n      0xf2fde38b\n      eq\n      tag_12\n      jumpi\n      dup1\n      0xf7888aec\n      eq\n      tag_13\n      jumpi\n      jump(tag_2)\n    tag_14:\n      dup1\n      0x095ea7b3\n      eq\n      tag_3\n      jumpi\n      dup1\n      0x25be124e\n      eq\n      tag_4\n      jumpi\n      dup1\n      0x56688700\n      eq\n      tag_5\n      jumpi\n      dup1\n      0x715018a6\n      eq\n      tag_6\n      jumpi\n      dup1\n      0x8da5cb5b\n      eq\n      tag_7\n      jumpi\n    tag_2:\n      0x00\n      dup1\n      revert\n        /* \"Dex.sol\":1435:1640  function approve(address spender, uint256 amount) public {... */\n    tag_3:\n      tag_15\n      0x04\n      dup1\n      calldatasize\n      sub\n      dup2\n      add\n      swap1\n      tag_16\n      swap2\n      swap1\n      tag_17\n      jump\t// in\n    tag_16:\n      tag_18\n      jump\t// in\n    tag_15:\n      stop\n        /* \"Dex.sol\":290:311  address public token2 */\n    tag_4:\n      tag_19\n      tag_20\n      jump\t// in\n    tag_19:\n      mload(0x40)\n      tag_21\n      swap2\n      swap1\n      tag_22\n      jump\t// in\n    tag_21:\n      mload(0x40)\n      dup1\n      swap2\n      sub\n      swap1\n      return\n        /* \"Dex.sol\":512:678  function addLiquidity(address token_address, uint256 amount) public onlyOwner {... */\n    tag_5:\n      tag_23\n      0x04\n      dup1\n      calldatasize\n      sub\n      dup2\n      add\n      swap1\n      tag_24\n      swap2\n      swap1\n      tag_17\n      jump\t// in\n    tag_24:\n      tag_25\n      jump\t// in\n    tag_23:\n      stop\n        /* \"@openzeppelin/contracts/access/Ownable.sol\":2293:2394  function renounceOwnership() public virtual onlyOwner {... */\n    tag_6:\n      tag_26\n      tag_27\n      jump\t// in\n    tag_26:\n      stop\n        /* \"@openzeppelin/contracts/access/Ownable.sol\":1638:1723  function owner() public view virtual returns (address) {... */\n    tag_7:\n      tag_28\n      tag_29\n      jump\t// in\n    tag_28:\n      mload(0x40)\n      tag_30\n      swap2\n      swap1\n      tag_22\n      jump\t// in\n    tag_30:\n      mload(0x40)\n      dup1\n      swap2\n      sub\n      swap1\n      return\n        /* \"Dex.sol\":1219:1427  function getSwapPrice(address from, address to, uint256 amount) public view returns (uint256) {... */\n    tag_8:\n      tag_31\n      0x04\n      dup1\n      calldatasize\n      sub\n      dup2\n      add\n      swap1\n      tag_32\n      swap2\n      swap1\n      tag_33\n      jump\t// in\n    tag_32:\n      tag_34\n      jump\t// in\n    tag_31:\n      mload(0x40)\n      tag_35\n      swap2\n      swap1\n      tag_36\n      jump\t// in\n    tag_35:\n      mload(0x40)\n      dup1\n      swap2\n      sub\n      swap1\n      return\n        /* \"Dex.sol\":372:504  function setTokens(address _token1, address _token2) public onlyOwner {... */\n    tag_9:\n      tag_37\n      0x04\n      dup1\n      calldatasize\n      sub\n      dup2\n      add\n      swap1\n      tag_38\n      swap2\n      swap1\n      tag_39\n      jump\t// in\n    tag_38:\n      tag_40\n      jump\t// in\n    tag_37:\n      stop\n        /* \"Dex.sol\":262:283  address public token1 */\n    tag_10:\n      tag_41\n      tag_42\n      jump\t// in\n    tag_41:\n      mload(0x40)\n      tag_43\n      swap2\n      swap1\n      tag_22\n      jump\t// in\n    tag_43:\n      mload(0x40)\n      dup1\n      swap2\n      sub\n      swap1\n      return\n        /* \"Dex.sol\":686:1211  function swap(address from, address to, uint256 amount) public {... */\n    tag_11:\n      tag_44\n      0x04\n      dup1\n      calldatasize\n      sub\n      dup2\n      add\n      swap1\n      tag_45\n      swap2\n      swap1\n      tag_33\n      jump\t// in\n    tag_45:\n      tag_46\n      jump\t// in\n    tag_44:\n      stop\n        /* \"@openzeppelin/contracts/access/Ownable.sol\":2543:2758  function transferOwnership(address newOwner) public virtual onlyOwner {... */\n    tag_12:\n      tag_47\n      0x04\n      dup1\n      calldatasize\n      sub\n      dup2\n      add\n      swap1\n      tag_48\n      swap2\n      swap1\n      tag_49\n      jump\t// in\n    tag_48:\n      tag_50\n      jump\t// in\n    tag_47:\n      stop\n        /* \"Dex.sol\":1648:1787  function balanceOf(address token, address account) public view returns (uint256) {... */\n    tag_13:\n      tag_51\n      0x04\n      dup1\n      calldatasize\n      sub\n      dup2\n      add\n      swap1\n      tag_52\n      swap2\n      swap1\n      tag_39\n      jump\t// in\n    tag_52:\n      tag_53\n      jump\t// in\n    tag_51:\n      mload(0x40)\n      tag_54\n      swap2\n      swap1\n      tag_36\n      jump\t// in\n    tag_54:\n      mload(0x40)\n      dup1\n      swap2\n      sub\n      swap1\n      return\n        /* \"Dex.sol\":1435:1640  function approve(address spender, uint256 amount) public {... */\n    tag_18:\n        /* \"Dex.sol\":1518:1524  token1 */\n      0x01\n      0x00\n      swap1\n      sload\n      swap1\n      0x0100\n      exp\n      swap1\n      div\n      0xffffffffffffffffffffffffffffffffffffffff\n      and\n        /* \"Dex.sol\":1503:1533  SwappableToken(token1).approve */\n      0xffffffffffffffffffffffffffffffffffffffff\n      and\n      0xe1f21c67\n        /* \"Dex.sol\":1534:1544  msg.sender */\n      caller\n        /* \"Dex.sol\":1546:1553  spender */\n      dup5\n        /* \"Dex.sol\":1555:1561  amount */\n      dup5\n        /* \"Dex.sol\":1503:1562  SwappableToken(token1).approve(msg.sender, spender, amount) */\n      mload(0x40)\n      dup5\n      0xffffffff\n      and\n      0xe0\n      shl\n      dup2\n      mstore\n      0x04\n      add\n      tag_56\n      swap4\n      swap3\n      swap2\n      swap1\n      tag_57\n      jump\t// in\n    tag_56:\n      0x00\n      mload(0x40)\n      dup1\n      dup4\n      sub\n      dup2\n      0x00\n      dup8\n      dup1\n      extcodesize\n      iszero\n      dup1\n      iszero\n      tag_58\n      jumpi\n      0x00\n      dup1\n      revert\n    tag_58:\n      pop\n      gas\n      call\n      iszero\n      dup1\n      iszero\n      tag_60\n      jumpi\n      returndatasize\n      0x00\n      dup1\n      returndatacopy\n      revert(0x00, returndatasize)\n    tag_60:\n      pop\n      pop\n      pop\n      pop\n        /* \"Dex.sol\":1588:1594  token2 */\n      0x02\n      0x00\n      swap1\n      sload\n      swap1\n      0x0100\n      exp\n      swap1\n      div\n      0xffffffffffffffffffffffffffffffffffffffff\n      and\n        /* \"Dex.sol\":1573:1603  SwappableToken(token2).approve */\n      0xffffffffffffffffffffffffffffffffffffffff\n      and\n      0xe1f21c67\n        /* \"Dex.sol\":1604:1614  msg.sender */\n      caller\n        /* \"Dex.sol\":1616:1623  spender */\n      dup5\n        /* \"Dex.sol\":1625:1631  amount */\n      dup5\n        /* \"Dex.sol\":1573:1632  SwappableToken(token2).approve(msg.sender, spender, amount) */\n      mload(0x40)\n      dup5\n      0xffffffff\n      and\n      0xe0\n      shl\n      dup2\n      mstore\n      0x04\n      add\n      tag_61\n      swap4\n      swap3\n      swap2\n      swap1\n      tag_57\n      jump\t// in\n    tag_61:\n      0x00\n      mload(0x40)\n      dup1\n      dup4\n      sub\n      dup2\n      0x00\n      dup8\n      dup1\n      extcodesize\n      iszero\n      dup1\n      iszero\n      tag_62\n      jumpi\n      0x00\n      dup1\n      revert\n    tag_62:\n      pop\n      gas\n      call\n      iszero\n      dup1\n      iszero\n      tag_64\n      jumpi\n      returndatasize\n      0x00\n      dup1\n      returndatacopy\n      revert(0x00, returndatasize)\n    tag_64:\n      pop\n      pop\n      pop\n      pop\n        /* \"Dex.sol\":1435:1640  function approve(address spender, uint256 amount) public {... */\n      pop\n      pop\n      jump\t// out\n        /* \"Dex.sol\":290:311  address public token2 */\n    tag_20:\n      0x02\n      0x00\n      swap1\n      sload\n      swap1\n      0x0100\n      exp\n      swap1\n      div\n      0xffffffffffffffffffffffffffffffffffffffff\n      and\n      dup2\n      jump\t// out\n        /* \"Dex.sol\":512:678  function addLiquidity(address token_address, uint256 amount) public onlyOwner {... */\n    tag_25:\n        /* \"@openzeppelin/contracts/access/Ownable.sol\":1531:1544  _checkOwner() */\n      tag_66\n        /* \"@openzeppelin/contracts/access/Ownable.sol\":1531:1542  _checkOwner */\n      tag_67\n        /* \"@openzeppelin/contracts/access/Ownable.sol\":1531:1544  _checkOwner() */\n      jump\t// in\n    tag_66:\n        /* \"Dex.sol\":608:621  token_address */\n      dup2\n        /* \"Dex.sol\":601:635  IERC20(token_address).transferFrom */\n      0xffffffffffffffffffffffffffffffffffffffff\n      and\n      0x23b872dd\n        /* \"Dex.sol\":636:646  msg.sender */\n      caller\n        /* \"Dex.sol\":656:660  this */\n      address\n        /* \"Dex.sol\":663:669  amount */\n      dup5\n        /* \"Dex.sol\":601:670  IERC20(token_address).transferFrom(msg.sender, address(this), amount) */\n      mload(0x40)\n      dup5\n      0xffffffff\n      and\n      0xe0\n      shl\n      dup2\n      mstore\n      0x04\n      add\n      tag_69\n      swap4\n      swap3\n      swap2\n      swap1\n      tag_57\n      jump\t// in\n    tag_69:\n      0x20\n      mload(0x40)\n      dup1\n      dup4\n      sub\n      dup2\n      0x00\n      dup8\n      gas\n      call\n      iszero\n      dup1\n      iszero\n      tag_71\n      jumpi\n      returndatasize\n      0x00\n      dup1\n      returndatacopy\n      revert(0x00, returndatasize)\n    tag_71:\n      pop\n      pop\n      pop\n      pop\n      mload(0x40)\n      returndatasize\n      not(0x1f)\n      0x1f\n      dup3\n      add\n      and\n      dup3\n      add\n      dup1\n      0x40\n      mstore\n      pop\n      dup2\n      add\n      swap1\n      tag_72\n      swap2\n      swap1\n      tag_73\n      jump\t// in\n    tag_72:\n      pop\n        /* \"Dex.sol\":512:678  function addLiquidity(address token_address, uint256 amount) public onlyOwner {... */\n      pop\n      pop\n      jump\t// out\n        /* \"@openzeppelin/contracts/access/Ownable.sol\":2293:2394  function renounceOwnership() public virtual onlyOwner {... */\n    tag_27:\n        /* \"@openzeppelin/contracts/access/Ownable.sol\":1531:1544  _checkOwner() */\n      tag_75\n        /* \"@openzeppelin/contracts/access/Ownable.sol\":1531:1542  _checkOwner */\n      tag_67\n        /* \"@openzeppelin/contracts/access/Ownable.sol\":1531:1544  _checkOwner() */\n      jump\t// in\n    tag_75:\n        /* \"@openzeppelin/contracts/access/Ownable.sol\":2357:2387  _transferOwnership(address(0)) */\n      tag_77\n        /* \"@openzeppelin/contracts/access/Ownable.sol\":2384:2385  0 */\n      0x00\n        /* \"@openzeppelin/contracts/access/Ownable.sol\":2357:2375  _transferOwnership */\n      tag_78\n        /* \"@openzeppelin/contracts/access/Ownable.sol\":2357:2387  _transferOwnership(address(0)) */\n      jump\t// in\n    tag_77:\n        /* \"@openzeppelin/contracts/access/Ownable.sol\":2293:2394  function renounceOwnership() public virtual onlyOwner {... */\n      jump\t// out\n        /* \"@openzeppelin/contracts/access/Ownable.sol\":1638:1723  function owner() public view virtual returns (address) {... */\n    tag_29:\n        /* \"@openzeppelin/contracts/access/Ownable.sol\":1684:1691  address */\n      0x00\n        /* \"@openzeppelin/contracts/access/Ownable.sol\":1710:1716  _owner */\n      dup1\n      0x00\n      swap1\n      sload\n      swap1\n      0x0100\n      exp\n      swap1\n      div\n      0xffffffffffffffffffffffffffffffffffffffff\n      and\n        /* \"@openzeppelin/contracts/access/Ownable.sol\":1703:1716  return _owner */\n      swap1\n      pop\n        /* \"@openzeppelin/contracts/access/Ownable.sol\":1638:1723  function owner() public view virtual returns (address) {... */\n      swap1\n      jump\t// out\n        /* \"Dex.sol\":1219:1427  function getSwapPrice(address from, address to, uint256 amount) public view returns (uint256) {... */\n    tag_34:\n        /* \"Dex.sol\":1304:1311  uint256 */\n      0x00\n        /* \"Dex.sol\":1388:1392  from */\n      dup4\n        /* \"Dex.sol\":1381:1403  IERC20(from).balanceOf */\n      0xffffffffffffffffffffffffffffffffffffffff\n      and\n      0x70a08231\n        /* \"Dex.sol\":1412:1416  this */\n      address\n        /* \"Dex.sol\":1381:1418  IERC20(from).balanceOf(address(this)) */\n      mload(0x40)\n      dup3\n      0xffffffff\n      and\n      0xe0\n      shl\n      dup2\n      mstore\n      0x04\n      add\n      tag_81\n      swap2\n      swap1\n      tag_22\n      jump\t// in\n    tag_81:\n      0x20\n      mload(0x40)\n      dup1\n      dup4\n      sub\n      dup2\n      dup7\n      gas\n      staticcall\n      iszero\n      dup1\n      iszero\n      tag_83\n      jumpi\n      returndatasize\n      0x00\n      dup1\n      returndatacopy\n      revert(0x00, returndatasize)\n    tag_83:\n      pop\n      pop\n      pop\n      pop\n      mload(0x40)\n      returndatasize\n      not(0x1f)\n      0x1f\n      dup3\n      add\n      and\n      dup3\n      add\n      dup1\n      0x40\n      mstore\n      pop\n      dup2\n      add\n      swap1\n      tag_84\n      swap2\n      swap1\n      tag_85\n      jump\t// in\n    tag_84:\n        /* \"Dex.sol\":1349:1351  to */\n      dup4\n        /* \"Dex.sol\":1342:1362  IERC20(to).balanceOf */\n      0xffffffffffffffffffffffffffffffffffffffff\n      and\n      0x70a08231\n        /* \"Dex.sol\":1371:1375  this */\n      address\n        /* \"Dex.sol\":1342:1377  IERC20(to).balanceOf(address(this)) */\n      mload(0x40)\n      dup3\n      0xffffffff\n      and\n      0xe0\n      shl\n      dup2\n      mstore\n      0x04\n      add\n      tag_86\n      swap2\n      swap1\n      tag_22\n      jump\t// in\n    tag_86:\n      0x20\n      mload(0x40)\n      dup1\n      dup4\n      sub\n      dup2\n      dup7\n      gas\n      staticcall\n      iszero\n      dup1\n      iszero\n      tag_88\n      jumpi\n      returndatasize\n      0x00\n      dup1\n      returndatacopy\n      revert(0x00, returndatasize)\n    tag_88:\n      pop\n      pop\n      pop\n      pop\n      mload(0x40)\n      returndatasize\n      not(0x1f)\n      0x1f\n      dup3\n      add\n      and\n      dup3\n      add\n      dup1\n      0x40\n      mstore\n      pop\n      dup2\n      add\n      swap1\n      tag_89\n      swap2\n      swap1\n      tag_85\n      jump\t// in\n    tag_89:\n        /* \"Dex.sol\":1333:1339  amount */\n      dup4\n        /* \"Dex.sol\":1333:1377  amount * IERC20(to).balanceOf(address(this)) */\n      tag_90\n      swap2\n      swap1\n      tag_91\n      jump\t// in\n    tag_90:\n        /* \"Dex.sol\":1332:1418  (amount * IERC20(to).balanceOf(address(this))) / IERC20(from).balanceOf(address(this)) */\n      tag_92\n      swap2\n      swap1\n      tag_93\n      jump\t// in\n    tag_92:\n        /* \"Dex.sol\":1324:1419  return ((amount * IERC20(to).balanceOf(address(this))) / IERC20(from).balanceOf(address(this))) */\n      swap1\n      pop\n        /* \"Dex.sol\":1219:1427  function getSwapPrice(address from, address to, uint256 amount) public view returns (uint256) {... */\n      swap4\n      swap3\n      pop\n      pop\n      pop\n      jump\t// out\n        /* \"Dex.sol\":372:504  function setTokens(address _token1, address _token2) public onlyOwner {... */\n    tag_40:\n        /* \"@openzeppelin/contracts/access/Ownable.sol\":1531:1544  _checkOwner() */\n      tag_95\n        /* \"@openzeppelin/contracts/access/Ownable.sol\":1531:1542  _checkOwner */\n      tag_67\n        /* \"@openzeppelin/contracts/access/Ownable.sol\":1531:1544  _checkOwner() */\n      jump\t// in\n    tag_95:\n        /* \"Dex.sol\":462:469  _token1 */\n      dup2\n        /* \"Dex.sol\":453:459  token1 */\n      0x01\n      0x00\n        /* \"Dex.sol\":453:469  token1 = _token1 */\n      0x0100\n      exp\n      dup2\n      sload\n      dup2\n      0xffffffffffffffffffffffffffffffffffffffff\n      mul\n      not\n      and\n      swap1\n      dup4\n      0xffffffffffffffffffffffffffffffffffffffff\n      and\n      mul\n      or\n      swap1\n      sstore\n      pop\n        /* \"Dex.sol\":489:496  _token2 */\n      dup1\n        /* \"Dex.sol\":480:486  token2 */\n      0x02\n      0x00\n        /* \"Dex.sol\":480:496  token2 = _token2 */\n      0x0100\n      exp\n      dup2\n      sload\n      dup2\n      0xffffffffffffffffffffffffffffffffffffffff\n      mul\n      not\n      and\n      swap1\n      dup4\n      0xffffffffffffffffffffffffffffffffffffffff\n      and\n      mul\n      or\n      swap1\n      sstore\n      pop\n        /* \"Dex.sol\":372:504  function setTokens(address _token1, address _token2) public onlyOwner {... */\n      pop\n      pop\n      jump\t// out\n        /* \"Dex.sol\":262:283  address public token1 */\n    tag_42:\n      0x01\n      0x00\n      swap1\n      sload\n      swap1\n      0x0100\n      exp\n      swap1\n      div\n      0xffffffffffffffffffffffffffffffffffffffff\n      and\n      dup2\n      jump\t// out\n        /* \"Dex.sol\":686:1211  function swap(address from, address to, uint256 amount) public {... */\n    tag_46:\n        /* \"Dex.sol\":777:783  token1 */\n      0x01\n      0x00\n      swap1\n      sload\n      swap1\n      0x0100\n      exp\n      swap1\n      div\n      0xffffffffffffffffffffffffffffffffffffffff\n      and\n        /* \"Dex.sol\":769:783  from == token1 */\n      0xffffffffffffffffffffffffffffffffffffffff\n      and\n        /* \"Dex.sol\":769:773  from */\n      dup4\n        /* \"Dex.sol\":769:783  from == token1 */\n      0xffffffffffffffffffffffffffffffffffffffff\n      and\n      eq\n        /* \"Dex.sol\":769:799  from == token1 && to == token2 */\n      dup1\n      iszero\n      tag_98\n      jumpi\n      pop\n        /* \"Dex.sol\":793:799  token2 */\n      0x02\n      0x00\n      swap1\n      sload\n      swap1\n      0x0100\n      exp\n      swap1\n      div\n      0xffffffffffffffffffffffffffffffffffffffff\n      and\n        /* \"Dex.sol\":787:799  to == token2 */\n      0xffffffffffffffffffffffffffffffffffffffff\n      and\n        /* \"Dex.sol\":787:789  to */\n      dup3\n        /* \"Dex.sol\":787:799  to == token2 */\n      0xffffffffffffffffffffffffffffffffffffffff\n      and\n      eq\n        /* \"Dex.sol\":769:799  from == token1 && to == token2 */\n    tag_98:\n        /* \"Dex.sol\":768:836  (from == token1 && to == token2) || (from == token2 && to == token1) */\n      dup1\n      tag_99\n      jumpi\n      pop\n        /* \"Dex.sol\":813:819  token2 */\n      0x02\n      0x00\n      swap1\n      sload\n      swap1\n      0x0100\n      exp\n      swap1\n      div\n      0xffffffffffffffffffffffffffffffffffffffff\n      and\n        /* \"Dex.sol\":805:819  from == token2 */\n      0xffffffffffffffffffffffffffffffffffffffff\n      and\n        /* \"Dex.sol\":805:809  from */\n      dup4\n        /* \"Dex.sol\":805:819  from == token2 */\n      0xffffffffffffffffffffffffffffffffffffffff\n      and\n      eq\n        /* \"Dex.sol\":805:835  from == token2 && to == token1 */\n      dup1\n      iszero\n      tag_100\n      jumpi\n      pop\n        /* \"Dex.sol\":829:835  token1 */\n      0x01\n      0x00\n      swap1\n      sload\n      swap1\n      0x0100\n      exp\n      swap1\n      div\n      0xffffffffffffffffffffffffffffffffffffffff\n      and\n        /* \"Dex.sol\":823:835  to == token1 */\n      0xffffffffffffffffffffffffffffffffffffffff\n      and\n        /* \"Dex.sol\":823:825  to */\n      dup3\n        /* \"Dex.sol\":823:835  to == token1 */\n      0xffffffffffffffffffffffffffffffffffffffff\n      and\n      eq\n        /* \"Dex.sol\":805:835  from == token2 && to == token1 */\n    tag_100:\n        /* \"Dex.sol\":768:836  (from == token1 && to == token2) || (from == token2 && to == token1) */\n    tag_99:\n        /* \"Dex.sol\":760:855  require((from == token1 && to == token2) || (from == token2 && to == token1), \"Invalid tokens\") */\n      tag_101\n      jumpi\n      mload(0x40)\n      0x08c379a000000000000000000000000000000000000000000000000000000000\n      dup2\n      mstore\n      0x04\n      add\n      tag_102\n      swap1\n      tag_103\n      jump\t// in\n    tag_102:\n      mload(0x40)\n      dup1\n      swap2\n      sub\n      swap1\n      revert\n    tag_101:\n        /* \"Dex.sol\":912:918  amount */\n      dup1\n        /* \"Dex.sol\":881:885  from */\n      dup4\n        /* \"Dex.sol\":874:896  IERC20(from).balanceOf */\n      0xffffffffffffffffffffffffffffffffffffffff\n      and\n      0x70a08231\n        /* \"Dex.sol\":897:907  msg.sender */\n      caller\n        /* \"Dex.sol\":874:908  IERC20(from).balanceOf(msg.sender) */\n      mload(0x40)\n      dup3\n      0xffffffff\n      and\n      0xe0\n      shl\n      dup2\n      mstore\n      0x04\n      add\n      tag_104\n      swap2\n      swap1\n      tag_22\n      jump\t// in\n    tag_104:\n      0x20\n      mload(0x40)\n      dup1\n      dup4\n      sub\n      dup2\n      dup7\n      gas\n      staticcall\n      iszero\n      dup1\n      iszero\n      tag_106\n      jumpi\n      returndatasize\n      0x00\n      dup1\n      returndatacopy\n      revert(0x00, returndatasize)\n    tag_106:\n      pop\n      pop\n      pop\n      pop\n      mload(0x40)\n      returndatasize\n      not(0x1f)\n      0x1f\n      dup3\n      add\n      and\n      dup3\n      add\n      dup1\n      0x40\n      mstore\n      pop\n      dup2\n      add\n      swap1\n      tag_107\n      swap2\n      swap1\n      tag_85\n      jump\t// in\n    tag_107:\n        /* \"Dex.sol\":874:918  IERC20(from).balanceOf(msg.sender) >= amount */\n      lt\n      iszero\n        /* \"Dex.sol\":866:941  require(IERC20(from).balanceOf(msg.sender) >= amount, \"Not enough to swap\") */\n      tag_108\n      jumpi\n      mload(0x40)\n      0x08c379a000000000000000000000000000000000000000000000000000000000\n      dup2\n      mstore\n      0x04\n      add\n      tag_109\n      swap1\n      tag_110\n      jump\t// in\n    tag_109:\n      mload(0x40)\n      dup1\n      swap2\n      sub\n      swap1\n      revert\n    tag_108:\n        /* \"Dex.sol\":952:970  uint256 swapAmount */\n      0x00\n        /* \"Dex.sol\":973:1003  getSwapPrice(from, to, amount) */\n      tag_111\n        /* \"Dex.sol\":986:990  from */\n      dup5\n        /* \"Dex.sol\":992:994  to */\n      dup5\n        /* \"Dex.sol\":996:1002  amount */\n      dup5\n        /* \"Dex.sol\":973:985  getSwapPrice */\n      tag_34\n        /* \"Dex.sol\":973:1003  getSwapPrice(from, to, amount) */\n      jump\t// in\n    tag_111:\n        /* \"Dex.sol\":952:1003  uint256 swapAmount = getSwapPrice(from, to, amount) */\n      swap1\n      pop\n        /* \"Dex.sol\":1021:1025  from */\n      dup4\n        /* \"Dex.sol\":1014:1039  IERC20(from).transferFrom */\n      0xffffffffffffffffffffffffffffffffffffffff\n      and\n      0x23b872dd\n        /* \"Dex.sol\":1040:1050  msg.sender */\n      caller\n        /* \"Dex.sol\":1060:1064  this */\n      address\n        /* \"Dex.sol\":1067:1073  amount */\n      dup6\n        /* \"Dex.sol\":1014:1074  IERC20(from).transferFrom(msg.sender, address(this), amount) */\n      mload(0x40)\n      dup5\n      0xffffffff\n      and\n      0xe0\n      shl\n      dup2\n      mstore\n      0x04\n      add\n      tag_112\n      swap4\n      swap3\n      swap2\n      swap1\n      tag_57\n      jump\t// in\n    tag_112:\n      0x20\n      mload(0x40)\n      dup1\n      dup4\n      sub\n      dup2\n      0x00\n      dup8\n      gas\n      call\n      iszero\n      dup1\n      iszero\n      tag_114\n      jumpi\n      returndatasize\n      0x00\n      dup1\n      returndatacopy\n      revert(0x00, returndatasize)\n    tag_114:\n      pop\n      pop\n      pop\n      pop\n      mload(0x40)\n      returndatasize\n      not(0x1f)\n      0x1f\n      dup3\n      add\n      and\n      dup3\n      add\n      dup1\n      0x40\n      mstore\n      pop\n      dup2\n      add\n      swap1\n      tag_115\n      swap2\n      swap1\n      tag_73\n      jump\t// in\n    tag_115:\n      pop\n        /* \"Dex.sol\":1092:1094  to */\n      dup3\n        /* \"Dex.sol\":1085:1103  IERC20(to).approve */\n      0xffffffffffffffffffffffffffffffffffffffff\n      and\n      0x095ea7b3\n        /* \"Dex.sol\":1112:1116  this */\n      address\n        /* \"Dex.sol\":1119:1129  swapAmount */\n      dup4\n        /* \"Dex.sol\":1085:1130  IERC20(to).approve(address(this), swapAmount) */\n      mload(0x40)\n      dup4\n      0xffffffff\n      and\n      0xe0\n      shl\n      dup2\n      mstore\n      0x04\n      add\n      tag_116\n      swap3\n      swap2\n      swap1\n      tag_117\n      jump\t// in\n    tag_116:\n      0x20\n      mload(0x40)\n      dup1\n      dup4\n      sub\n      dup2\n      0x00\n      dup8\n      gas\n      call\n      iszero\n      dup1\n      iszero\n      tag_119\n      jumpi\n      returndatasize\n      0x00\n      dup1\n      returndatacopy\n      revert(0x00, returndatasize)\n    tag_119:\n      pop\n      pop\n      pop\n      pop\n      mload(0x40)\n      returndatasize\n      not(0x1f)\n      0x1f\n      dup3\n      add\n      and\n      dup3\n      add\n      dup1\n      0x40\n      mstore\n      pop\n      dup2\n      add\n      swap1\n      tag_120\n      swap2\n      swap1\n      tag_73\n      jump\t// in\n    tag_120:\n      pop\n        /* \"Dex.sol\":1148:1150  to */\n      dup3\n        /* \"Dex.sol\":1141:1164  IERC20(to).transferFrom */\n      0xffffffffffffffffffffffffffffffffffffffff\n      and\n      0x23b872dd\n        /* \"Dex.sol\":1173:1177  this */\n      address\n        /* \"Dex.sol\":1180:1190  msg.sender */\n      caller\n        /* \"Dex.sol\":1192:1202  swapAmount */\n      dup5\n        /* \"Dex.sol\":1141:1203  IERC20(to).transferFrom(address(this), msg.sender, swapAmount) */\n      mload(0x40)\n      dup5\n      0xffffffff\n      and\n      0xe0\n      shl\n      dup2\n      mstore\n      0x04\n      add\n      tag_121\n      swap4\n      swap3\n      swap2\n      swap1\n      tag_57\n      jump\t// in\n    tag_121:\n      0x20\n      mload(0x40)\n      dup1\n      dup4\n      sub\n      dup2\n      0x00\n      dup8\n      gas\n      call\n      iszero\n      dup1\n      iszero\n      tag_123\n      jumpi\n      returndatasize\n      0x00\n      dup1\n      returndatacopy\n      revert(0x00, returndatasize)\n    tag_123:\n      pop\n      pop\n      pop\n      pop\n      mload(0x40)\n      returndatasize\n      not(0x1f)\n      0x1f\n      dup3\n      add\n      and\n      dup3\n      add\n      dup1\n      0x40\n      mstore\n      pop\n      dup2\n      add\n      swap1\n      tag_124\n      swap2\n      swap1\n      tag_73\n      jump\t// in\n    tag_124:\n      pop\n        /* \"Dex.sol\":749:1211  {... */\n      pop\n        /* \"Dex.sol\":686:1211  function swap(address from, address to, uint256 amount) public {... */\n      pop\n      pop\n      pop\n      jump\t// out\n        /* \"@openzeppelin/contracts/access/Ownable.sol\":2543:2758  function transferOwnership(address newOwner) public virtual onlyOwner {... */\n    tag_50:\n        /* \"@openzeppelin/contracts/access/Ownable.sol\":1531:1544  _checkOwner() */\n      tag_126\n        /* \"@openzeppelin/contracts/access/Ownable.sol\":1531:1542  _checkOwner */\n      tag_67\n        /* \"@openzeppelin/contracts/access/Ownable.sol\":1531:1544  _checkOwner() */\n      jump\t// in\n    tag_126:\n        /* \"@openzeppelin/contracts/access/Ownable.sol\":2647:2648  0 */\n      0x00\n        /* \"@openzeppelin/contracts/access/Ownable.sol\":2627:2649  newOwner == address(0) */\n      0xffffffffffffffffffffffffffffffffffffffff\n      and\n        /* \"@openzeppelin/contracts/access/Ownable.sol\":2627:2635  newOwner */\n      dup2\n        /* \"@openzeppelin/contracts/access/Ownable.sol\":2627:2649  newOwner == address(0) */\n      0xffffffffffffffffffffffffffffffffffffffff\n      and\n      sub\n        /* \"@openzeppelin/contracts/access/Ownable.sol\":2623:2714  if (newOwner == address(0)) {... */\n      tag_128\n      jumpi\n        /* \"@openzeppelin/contracts/access/Ownable.sol\":2700:2701  0 */\n      0x00\n        /* \"@openzeppelin/contracts/access/Ownable.sol\":2672:2703  OwnableInvalidOwner(address(0)) */\n      mload(0x40)\n      0x1e4fbdf700000000000000000000000000000000000000000000000000000000\n      dup2\n      mstore\n      0x04\n      add\n      tag_129\n      swap2\n      swap1\n      tag_22\n      jump\t// in\n    tag_129:\n      mload(0x40)\n      dup1\n      swap2\n      sub\n      swap1\n      revert\n        /* \"@openzeppelin/contracts/access/Ownable.sol\":2623:2714  if (newOwner == address(0)) {... */\n    tag_128:\n        /* \"@openzeppelin/contracts/access/Ownable.sol\":2723:2751  _transferOwnership(newOwner) */\n      tag_130\n        /* \"@openzeppelin/contracts/access/Ownable.sol\":2742:2750  newOwner */\n      dup2\n        /* \"@openzeppelin/contracts/access/Ownable.sol\":2723:2741  _transferOwnership */\n      tag_78\n        /* \"@openzeppelin/contracts/access/Ownable.sol\":2723:2751  _transferOwnership(newOwner) */\n      jump\t// in\n    tag_130:\n        /* \"@openzeppelin/contracts/access/Ownable.sol\":2543:2758  function transferOwnership(address newOwner) public virtual onlyOwner {... */\n      pop\n      jump\t// out\n        /* \"Dex.sol\":1648:1787  function balanceOf(address token, address account) public view returns (uint256) {... */\n    tag_53:\n        /* \"Dex.sol\":1720:1727  uint256 */\n      0x00\n        /* \"Dex.sol\":1754:1759  token */\n      dup3\n        /* \"Dex.sol\":1747:1770  IERC20(token).balanceOf */\n      0xffffffffffffffffffffffffffffffffffffffff\n      and\n      0x70a08231\n        /* \"Dex.sol\":1771:1778  account */\n      dup4\n        /* \"Dex.sol\":1747:1779  IERC20(token).balanceOf(account) */\n      mload(0x40)\n      dup3\n      0xffffffff\n      and\n      0xe0\n      shl\n      dup2\n      mstore\n      0x04\n      add\n      tag_132\n      swap2\n      swap1\n      tag_22\n      jump\t// in\n    tag_132:\n      0x20\n      mload(0x40)\n      dup1\n      dup4\n      sub\n      dup2\n      dup7\n      gas\n      staticcall\n      iszero\n      dup1\n      iszero\n      tag_134\n      jumpi\n      returndatasize\n      0x00\n      dup1\n      returndatacopy\n      revert(0x00, returndatasize)\n    tag_134:\n      pop\n      pop\n      pop\n      pop\n      mload(0x40)\n      returndatasize\n      not(0x1f)\n      0x1f\n      dup3\n      add\n      and\n      dup3\n      add\n      dup1\n      0x40\n      mstore\n      pop\n      dup2\n      add\n      swap1\n      tag_135\n      swap2\n      swap1\n      tag_85\n      jump\t// in\n    tag_135:\n        /* \"Dex.sol\":1740:1779  return IERC20(token).balanceOf(account) */\n      swap1\n      pop\n        /* \"Dex.sol\":1648:1787  function balanceOf(address token, address account) public view returns (uint256) {... */\n      swap3\n      swap2\n      pop\n      pop\n      jump\t// out\n        /* \"@openzeppelin/contracts/access/Ownable.sol\":1796:1958  function _checkOwner() internal view virtual {... */\n    tag_67:\n        /* \"@openzeppelin/contracts/access/Ownable.sol\":1866:1878  _msgSender() */\n      tag_137\n        /* \"@openzeppelin/contracts/access/Ownable.sol\":1866:1876  _msgSender */\n      tag_138\n        /* \"@openzeppelin/contracts/access/Ownable.sol\":1866:1878  _msgSender() */\n      jump\t// in\n    tag_137:\n        /* \"@openzeppelin/contracts/access/Ownable.sol\":1855:1878  owner() != _msgSender() */\n      0xffffffffffffffffffffffffffffffffffffffff\n      and\n        /* \"@openzeppelin/contracts/access/Ownable.sol\":1855:1862  owner() */\n      tag_139\n        /* \"@openzeppelin/contracts/access/Ownable.sol\":1855:1860  owner */\n      tag_29\n        /* \"@openzeppelin/contracts/access/Ownable.sol\":1855:1862  owner() */\n      jump\t// in\n    tag_139:\n        /* \"@openzeppelin/contracts/access/Ownable.sol\":1855:1878  owner() != _msgSender() */\n      0xffffffffffffffffffffffffffffffffffffffff\n      and\n      eq\n        /* \"@openzeppelin/contracts/access/Ownable.sol\":1851:1952  if (owner() != _msgSender()) {... */\n      tag_140\n      jumpi\n        /* \"@openzeppelin/contracts/access/Ownable.sol\":1928:1940  _msgSender() */\n      tag_141\n        /* \"@openzeppelin/contracts/access/Ownable.sol\":1928:1938  _msgSender */\n      tag_138\n        /* \"@openzeppelin/contracts/access/Ownable.sol\":1928:1940  _msgSender() */\n      jump\t// in\n    tag_141:\n        /* \"@openzeppelin/contracts/access/Ownable.sol\":1901:1941  OwnableUnauthorizedAccount(_msgSender()) */\n      mload(0x40)\n      0x118cdaa700000000000000000000000000000000000000000000000000000000\n      dup2\n      mstore\n      0x04\n      add\n      tag_142\n      swap2\n      swap1\n      tag_22\n      jump\t// in\n    tag_142:\n      mload(0x40)\n      dup1\n      swap2\n      sub\n      swap1\n      revert\n        /* \"@openzeppelin/contracts/access/Ownable.sol\":1851:1952  if (owner() != _msgSender()) {... */\n    tag_140:\n        /* \"@openzeppelin/contracts/access/Ownable.sol\":1796:1958  function _checkOwner() internal view virtual {... */\n      jump\t// out\n        /* \"@openzeppelin/contracts/access/Ownable.sol\":2912:3099  function _transferOwnership(address newOwner) internal virtual {... */\n    tag_78:\n        /* \"@openzeppelin/contracts/access/Ownable.sol\":2985:3001  address oldOwner */\n      0x00\n        /* \"@openzeppelin/contracts/access/Ownable.sol\":3004:3010  _owner */\n      dup1\n      0x00\n      swap1\n      sload\n      swap1\n      0x0100\n      exp\n      swap1\n      div\n      0xffffffffffffffffffffffffffffffffffffffff\n      and\n        /* \"@openzeppelin/contracts/access/Ownable.sol\":2985:3010  address oldOwner = _owner */\n      swap1\n      pop\n        /* \"@openzeppelin/contracts/access/Ownable.sol\":3029:3037  newOwner */\n      dup2\n        /* \"@openzeppelin/contracts/access/Ownable.sol\":3020:3026  _owner */\n      0x00\n      dup1\n        /* \"@openzeppelin/contracts/access/Ownable.sol\":3020:3037  _owner = newOwner */\n      0x0100\n      exp\n      dup2\n      sload\n      dup2\n      0xffffffffffffffffffffffffffffffffffffffff\n      mul\n      not\n      and\n      swap1\n      dup4\n      0xffffffffffffffffffffffffffffffffffffffff\n      and\n      mul\n      or\n      swap1\n      sstore\n      pop\n        /* \"@openzeppelin/contracts/access/Ownable.sol\":3083:3091  newOwner */\n      dup2\n        /* \"@openzeppelin/contracts/access/Ownable.sol\":3052:3092  OwnershipTransferred(oldOwner, newOwner) */\n      0xffffffffffffffffffffffffffffffffffffffff\n      and\n        /* \"@openzeppelin/contracts/access/Ownable.sol\":3073:3081  oldOwner */\n      dup2\n        /* \"@openzeppelin/contracts/access/Ownable.sol\":3052:3092  OwnershipTransferred(oldOwner, newOwner) */\n      0xffffffffffffffffffffffffffffffffffffffff\n      and\n      0x8be0079c531659141344cd1fd0a4f28419497f9722a3daafe3b4186f6b6457e0\n      mload(0x40)\n      mload(0x40)\n      dup1\n      swap2\n      sub\n      swap1\n      log3\n        /* \"@openzeppelin/contracts/access/Ownable.sol\":2975:3099  {... */\n      pop\n        /* \"@openzeppelin/contracts/access/Ownable.sol\":2912:3099  function _transferOwnership(address newOwner) internal virtual {... */\n      pop\n      jump\t// out\n        /* \"@openzeppelin/contracts/utils/Context.sol\":656:752  function _msgSender() internal view virtual returns (address) {... */\n    tag_138:\n        /* \"@openzeppelin/contracts/utils/Context.sol\":709:716  address */\n      0x00\n        /* \"@openzeppelin/contracts/utils/Context.sol\":735:745  msg.sender */\n      caller\n        /* \"@openzeppelin/contracts/utils/Context.sol\":728:745  return msg.sender */\n      swap1\n      pop\n        /* \"@openzeppelin/contracts/utils/Context.sol\":656:752  function _msgSender() internal view virtual returns (address) {... */\n      swap1\n      jump\t// out\n        /* \"#utility.yul\":88:205   */\n    tag_146:\n        /* \"#utility.yul\":197:198   */\n      0x00\n        /* \"#utility.yul\":194:195   */\n      dup1\n        /* \"#utility.yul\":187:199   */\n      revert\n        /* \"#utility.yul\":334:460   */\n    tag_148:\n        /* \"#utility.yul\":371:378   */\n      0x00\n        /* \"#utility.yul\":411:453   */\n      0xffffffffffffffffffffffffffffffffffffffff\n        /* \"#utility.yul\":404:409   */\n      dup3\n        /* \"#utility.yul\":400:454   */\n      and\n        /* \"#utility.yul\":389:454   */\n      swap1\n      pop\n        /* \"#utility.yul\":334:460   */\n      swap2\n      swap1\n      pop\n      jump\t// out\n        /* \"#utility.yul\":466:562   */\n    tag_149:\n        /* \"#utility.yul\":503:510   */\n      0x00\n        /* \"#utility.yul\":532:556   */\n      tag_174\n        /* \"#utility.yul\":550:555   */\n      dup3\n        /* \"#utility.yul\":532:556   */\n      tag_148\n      jump\t// in\n    tag_174:\n        /* \"#utility.yul\":521:556   */\n      swap1\n      pop\n        /* \"#utility.yul\":466:562   */\n      swap2\n      swap1\n      pop\n      jump\t// out\n        /* \"#utility.yul\":568:690   */\n    tag_150:\n        /* \"#utility.yul\":641:665   */\n      tag_176\n        /* \"#utility.yul\":659:664   */\n      dup2\n        /* \"#utility.yul\":641:665   */\n      tag_149\n      jump\t// in\n    tag_176:\n        /* \"#utility.yul\":634:639   */\n      dup2\n        /* \"#utility.yul\":631:666   */\n      eq\n        /* \"#utility.yul\":621:684   */\n      tag_177\n      jumpi\n        /* \"#utility.yul\":680:681   */\n      0x00\n        /* \"#utility.yul\":677:678   */\n      dup1\n        /* \"#utility.yul\":670:682   */\n      revert\n        /* \"#utility.yul\":621:684   */\n    tag_177:\n        /* \"#utility.yul\":568:690   */\n      pop\n      jump\t// out\n        /* \"#utility.yul\":696:835   */\n    tag_151:\n        /* \"#utility.yul\":742:747   */\n      0x00\n        /* \"#utility.yul\":780:786   */\n      dup2\n        /* \"#utility.yul\":767:787   */\n      calldataload\n        /* \"#utility.yul\":758:787   */\n      swap1\n      pop\n        /* \"#utility.yul\":796:829   */\n      tag_179\n        /* \"#utility.yul\":823:828   */\n      dup2\n        /* \"#utility.yul\":796:829   */\n      tag_150\n      jump\t// in\n    tag_179:\n        /* \"#utility.yul\":696:835   */\n      swap3\n      swap2\n      pop\n      pop\n      jump\t// out\n        /* \"#utility.yul\":841:918   */\n    tag_152:\n        /* \"#utility.yul\":878:885   */\n      0x00\n        /* \"#utility.yul\":907:912   */\n      dup2\n        /* \"#utility.yul\":896:912   */\n      swap1\n      pop\n        /* \"#utility.yul\":841:918   */\n      swap2\n      swap1\n      pop\n      jump\t// out\n        /* \"#utility.yul\":924:1046   */\n    tag_153:\n        /* \"#utility.yul\":997:1021   */\n      tag_182\n        /* \"#utility.yul\":1015:1020   */\n      dup2\n        /* \"#utility.yul\":997:1021   */\n      tag_152\n      jump\t// in\n    tag_182:\n        /* \"#utility.yul\":990:995   */\n      dup2\n        /* \"#utility.yul\":987:1022   */\n      eq\n        /* \"#utility.yul\":977:1040   */\n      tag_183\n      jumpi\n        /* \"#utility.yul\":1036:1037   */\n      0x00\n        /* \"#utility.yul\":1033:1034   */\n      dup1\n        /* \"#utility.yul\":1026:1038   */\n      revert\n        /* \"#utility.yul\":977:1040   */\n    tag_183:\n        /* \"#utility.yul\":924:1046   */\n      pop\n      jump\t// out\n        /* \"#utility.yul\":1052:1191   */\n    tag_154:\n        /* \"#utility.yul\":1098:1103   */\n      0x00\n        /* \"#utility.yul\":1136:1142   */\n      dup2\n        /* \"#utility.yul\":1123:1143   */\n      calldataload\n        /* \"#utility.yul\":1114:1143   */\n      swap1\n      pop\n        /* \"#utility.yul\":1152:1185   */\n      tag_185\n        /* \"#utility.yul\":1179:1184   */\n      dup2\n        /* \"#utility.yul\":1152:1185   */\n      tag_153\n      jump\t// in\n    tag_185:\n        /* \"#utility.yul\":1052:1191   */\n      swap3\n      swap2\n      pop\n      pop\n      jump\t// out\n        /* \"#utility.yul\":1197:1671   */\n    tag_17:\n        /* \"#utility.yul\":1265:1271   */\n      0x00\n        /* \"#utility.yul\":1273:1279   */\n      dup1\n        /* \"#utility.yul\":1322:1324   */\n      0x40\n        /* \"#utility.yul\":1310:1319   */\n      dup4\n        /* \"#utility.yul\":1301:1308   */\n      dup6\n        /* \"#utility.yul\":1297:1320   */\n      sub\n        /* \"#utility.yul\":1293:1325   */\n      slt\n        /* \"#utility.yul\":1290:1409   */\n      iszero\n      tag_187\n      jumpi\n        /* \"#utility.yul\":1328:1407   */\n      tag_188\n      tag_146\n      jump\t// in\n    tag_188:\n        /* \"#utility.yul\":1290:1409   */\n    tag_187:\n        /* \"#utility.yul\":1448:1449   */\n      0x00\n        /* \"#utility.yul\":1473:1526   */\n      tag_189\n        /* \"#utility.yul\":1518:1525   */\n      dup6\n        /* \"#utility.yul\":1509:1515   */\n      dup3\n        /* \"#utility.yul\":1498:1507   */\n      dup7\n        /* \"#utility.yul\":1494:1516   */\n      add\n        /* \"#utility.yul\":1473:1526   */\n      tag_151\n      jump\t// in\n    tag_189:\n        /* \"#utility.yul\":1463:1526   */\n      swap3\n      pop\n        /* \"#utility.yul\":1419:1536   */\n      pop\n        /* \"#utility.yul\":1575:1577   */\n      0x20\n        /* \"#utility.yul\":1601:1654   */\n      tag_190\n        /* \"#utility.yul\":1646:1653   */\n      dup6\n        /* \"#utility.yul\":1637:1643   */\n      dup3\n        /* \"#utility.yul\":1626:1635   */\n      dup7\n        /* \"#utility.yul\":1622:1644   */\n      add\n        /* \"#utility.yul\":1601:1654   */\n      tag_154\n      jump\t// in\n    tag_190:\n        /* \"#utility.yul\":1591:1654   */\n      swap2\n      pop\n        /* \"#utility.yul\":1546:1664   */\n      pop\n        /* \"#utility.yul\":1197:1671   */\n      swap3\n      pop\n      swap3\n      swap1\n      pop\n      jump\t// out\n        /* \"#utility.yul\":1677:1795   */\n    tag_155:\n        /* \"#utility.yul\":1764:1788   */\n      tag_192\n        /* \"#utility.yul\":1782:1787   */\n      dup2\n        /* \"#utility.yul\":1764:1788   */\n      tag_149\n      jump\t// in\n    tag_192:\n        /* \"#utility.yul\":1759:1762   */\n      dup3\n        /* \"#utility.yul\":1752:1789   */\n      mstore\n        /* \"#utility.yul\":1677:1795   */\n      pop\n      pop\n      jump\t// out\n        /* \"#utility.yul\":1801:2023   */\n    tag_22:\n        /* \"#utility.yul\":1894:1898   */\n      0x00\n        /* \"#utility.yul\":1932:1934   */\n      0x20\n        /* \"#utility.yul\":1921:1930   */\n      dup3\n        /* \"#utility.yul\":1917:1935   */\n      add\n        /* \"#utility.yul\":1909:1935   */\n      swap1\n      pop\n        /* \"#utility.yul\":1945:2016   */\n      tag_194\n        /* \"#utility.yul\":2013:2014   */\n      0x00\n        /* \"#utility.yul\":2002:2011   */\n      dup4\n        /* \"#utility.yul\":1998:2015   */\n      add\n        /* \"#utility.yul\":1989:1995   */\n      dup5\n        /* \"#utility.yul\":1945:2016   */\n      tag_155\n      jump\t// in\n    tag_194:\n        /* \"#utility.yul\":1801:2023   */\n      swap3\n      swap2\n      pop\n      pop\n      jump\t// out\n        /* \"#utility.yul\":2029:2648   */\n    tag_33:\n        /* \"#utility.yul\":2106:2112   */\n      0x00\n        /* \"#utility.yul\":2114:2120   */\n      dup1\n        /* \"#utility.yul\":2122:2128   */\n      0x00\n        /* \"#utility.yul\":2171:2173   */\n      0x60\n        /* \"#utility.yul\":2159:2168   */\n      dup5\n        /* \"#utility.yul\":2150:2157   */\n      dup7\n        /* \"#utility.yul\":2146:2169   */\n      sub\n        /* \"#utility.yul\":2142:2174   */\n      slt\n        /* \"#utility.yul\":2139:2258   */\n      iszero\n      tag_196\n      jumpi\n        /* \"#utility.yul\":2177:2256   */\n      tag_197\n      tag_146\n      jump\t// in\n    tag_197:\n        /* \"#utility.yul\":2139:2258   */\n    tag_196:\n        /* \"#utility.yul\":2297:2298   */\n      0x00\n        /* \"#utility.yul\":2322:2375   */\n      tag_198\n        /* \"#utility.yul\":2367:2374   */\n      dup7\n        /* \"#utility.yul\":2358:2364   */\n      dup3\n        /* \"#utility.yul\":2347:2356   */\n      dup8\n        /* \"#utility.yul\":2343:2365   */\n      add\n        /* \"#utility.yul\":2322:2375   */\n      tag_151\n      jump\t// in\n    tag_198:\n        /* \"#utility.yul\":2312:2375   */\n      swap4\n      pop\n        /* \"#utility.yul\":2268:2385   */\n      pop\n        /* \"#utility.yul\":2424:2426   */\n      0x20\n        /* \"#utility.yul\":2450:2503   */\n      tag_199\n        /* \"#utility.yul\":2495:2502   */\n      dup7\n        /* \"#utility.yul\":2486:2492   */\n      dup3\n        /* \"#utility.yul\":2475:2484   */\n      dup8\n        /* \"#utility.yul\":2471:2493   */\n      add\n        /* \"#utility.yul\":2450:2503   */\n      tag_151\n      jump\t// in\n    tag_199:\n        /* \"#utility.yul\":2440:2503   */\n      swap3\n      pop\n        /* \"#utility.yul\":2395:2513   */\n      pop\n        /* \"#utility.yul\":2552:2554   */\n      0x40\n        /* \"#utility.yul\":2578:2631   */\n      tag_200\n        /* \"#utility.yul\":2623:2630   */\n      dup7\n        /* \"#utility.yul\":2614:2620   */\n      dup3\n        /* \"#utility.yul\":2603:2612   */\n      dup8\n        /* \"#utility.yul\":2599:2621   */\n      add\n        /* \"#utility.yul\":2578:2631   */\n      tag_154\n      jump\t// in\n    tag_200:\n        /* \"#utility.yul\":2568:2631   */\n      swap2\n      pop\n        /* \"#utility.yul\":2523:2641   */\n      pop\n        /* \"#utility.yul\":2029:2648   */\n      swap3\n      pop\n      swap3\n      pop\n      swap3\n      jump\t// out\n        /* \"#utility.yul\":2654:2772   */\n    tag_156:\n        /* \"#utility.yul\":2741:2765   */\n      tag_202\n        /* \"#utility.yul\":2759:2764   */\n      dup2\n        /* \"#utility.yul\":2741:2765   */\n      tag_152\n      jump\t// in\n    tag_202:\n        /* \"#utility.yul\":2736:2739   */\n      dup3\n        /* \"#utility.yul\":2729:2766   */\n      mstore\n        /* \"#utility.yul\":2654:2772   */\n      pop\n      pop\n      jump\t// out\n        /* \"#utility.yul\":2778:3000   */\n    tag_36:\n        /* \"#utility.yul\":2871:2875   */\n      0x00\n        /* \"#utility.yul\":2909:2911   */\n      0x20\n        /* \"#utility.yul\":2898:2907   */\n      dup3\n        /* \"#utility.yul\":2894:2912   */\n      add\n        /* \"#utility.yul\":2886:2912   */\n      swap1\n      pop\n        /* \"#utility.yul\":2922:2993   */\n      tag_204\n        /* \"#utility.yul\":2990:2991   */\n      0x00\n        /* \"#utility.yul\":2979:2988   */\n      dup4\n        /* \"#utility.yul\":2975:2992   */\n      add\n        /* \"#utility.yul\":2966:2972   */\n      dup5\n        /* \"#utility.yul\":2922:2993   */\n      tag_156\n      jump\t// in\n    tag_204:\n        /* \"#utility.yul\":2778:3000   */\n      swap3\n      swap2\n      pop\n      pop\n      jump\t// out\n        /* \"#utility.yul\":3006:3480   */\n    tag_39:\n        /* \"#utility.yul\":3074:3080   */\n      0x00\n        /* \"#utility.yul\":3082:3088   */\n      dup1\n        /* \"#utility.yul\":3131:3133   */\n      0x40\n        /* \"#utility.yul\":3119:3128   */\n      dup4\n        /* \"#utility.yul\":3110:3117   */\n      dup6\n        /* \"#utility.yul\":3106:3129   */\n      sub\n        /* \"#utility.yul\":3102:3134   */\n      slt\n        /* \"#utility.yul\":3099:3218   */\n      iszero\n      tag_206\n      jumpi\n        /* \"#utility.yul\":3137:3216   */\n      tag_207\n      tag_146\n      jump\t// in\n    tag_207:\n        /* \"#utility.yul\":3099:3218   */\n    tag_206:\n        /* \"#utility.yul\":3257:3258   */\n      0x00\n        /* \"#utility.yul\":3282:3335   */\n      tag_208\n        /* \"#utility.yul\":3327:3334   */\n      dup6\n        /* \"#utility.yul\":3318:3324   */\n      dup3\n        /* \"#utility.yul\":3307:3316   */\n      dup7\n        /* \"#utility.yul\":3303:3325   */\n      add\n        /* \"#utility.yul\":3282:3335   */\n      tag_151\n      jump\t// in\n    tag_208:\n        /* \"#utility.yul\":3272:3335   */\n      swap3\n      pop\n        /* \"#utility.yul\":3228:3345   */\n      pop\n        /* \"#utility.yul\":3384:3386   */\n      0x20\n        /* \"#utility.yul\":3410:3463   */\n      tag_209\n        /* \"#utility.yul\":3455:3462   */\n      dup6\n        /* \"#utility.yul\":3446:3452   */\n      dup3\n        /* \"#utility.yul\":3435:3444   */\n      dup7\n        /* \"#utility.yul\":3431:3453   */\n      add\n        /* \"#utility.yul\":3410:3463   */\n      tag_151\n      jump\t// in\n    tag_209:\n        /* \"#utility.yul\":3400:3463   */\n      swap2\n      pop\n        /* \"#utility.yul\":3355:3473   */\n      pop\n        /* \"#utility.yul\":3006:3480   */\n      swap3\n      pop\n      swap3\n      swap1\n      pop\n      jump\t// out\n        /* \"#utility.yul\":3486:3815   */\n    tag_49:\n        /* \"#utility.yul\":3545:3551   */\n      0x00\n        /* \"#utility.yul\":3594:3596   */\n      0x20\n        /* \"#utility.yul\":3582:3591   */\n      dup3\n        /* \"#utility.yul\":3573:3580   */\n      dup5\n        /* \"#utility.yul\":3569:3592   */\n      sub\n        /* \"#utility.yul\":3565:3597   */\n      slt\n        /* \"#utility.yul\":3562:3681   */\n      iszero\n      tag_211\n      jumpi\n        /* \"#utility.yul\":3600:3679   */\n      tag_212\n      tag_146\n      jump\t// in\n    tag_212:\n        /* \"#utility.yul\":3562:3681   */\n    tag_211:\n        /* \"#utility.yul\":3720:3721   */\n      0x00\n        /* \"#utility.yul\":3745:3798   */\n      tag_213\n        /* \"#utility.yul\":3790:3797   */\n      dup5\n        /* \"#utility.yul\":3781:3787   */\n      dup3\n        /* \"#utility.yul\":3770:3779   */\n      dup6\n        /* \"#utility.yul\":3766:3788   */\n      add\n        /* \"#utility.yul\":3745:3798   */\n      tag_151\n      jump\t// in\n    tag_213:\n        /* \"#utility.yul\":3735:3798   */\n      swap2\n      pop\n        /* \"#utility.yul\":3691:3808   */\n      pop\n        /* \"#utility.yul\":3486:3815   */\n      swap3\n      swap2\n      pop\n      pop\n      jump\t// out\n        /* \"#utility.yul\":3821:4263   */\n    tag_57:\n        /* \"#utility.yul\":3970:3974   */\n      0x00\n        /* \"#utility.yul\":4008:4010   */\n      0x60\n        /* \"#utility.yul\":3997:4006   */\n      dup3\n        /* \"#utility.yul\":3993:4011   */\n      add\n        /* \"#utility.yul\":3985:4011   */\n      swap1\n      pop\n        /* \"#utility.yul\":4021:4092   */\n      tag_215\n        /* \"#utility.yul\":4089:4090   */\n      0x00\n        /* \"#utility.yul\":4078:4087   */\n      dup4\n        /* \"#utility.yul\":4074:4091   */\n      add\n        /* \"#utility.yul\":4065:4071   */\n      dup7\n        /* \"#utility.yul\":4021:4092   */\n      tag_155\n      jump\t// in\n    tag_215:\n        /* \"#utility.yul\":4102:4174   */\n      tag_216\n        /* \"#utility.yul\":4170:4172   */\n      0x20\n        /* \"#utility.yul\":4159:4168   */\n      dup4\n        /* \"#utility.yul\":4155:4173   */\n      add\n        /* \"#utility.yul\":4146:4152   */\n      dup6\n        /* \"#utility.yul\":4102:4174   */\n      tag_155\n      jump\t// in\n    tag_216:\n        /* \"#utility.yul\":4184:4256   */\n      tag_217\n        /* \"#utility.yul\":4252:4254   */\n      0x40\n        /* \"#utility.yul\":4241:4250   */\n      dup4\n        /* \"#utility.yul\":4237:4255   */\n      add\n        /* \"#utility.yul\":4228:4234   */\n      dup5\n        /* \"#utility.yul\":4184:4256   */\n      tag_156\n      jump\t// in\n    tag_217:\n        /* \"#utility.yul\":3821:4263   */\n      swap5\n      swap4\n      pop\n      pop\n      pop\n      pop\n      jump\t// out\n        /* \"#utility.yul\":4269:4359   */\n    tag_157:\n        /* \"#utility.yul\":4303:4310   */\n      0x00\n        /* \"#utility.yul\":4346:4351   */\n      dup2\n        /* \"#utility.yul\":4339:4352   */\n      iszero\n        /* \"#utility.yul\":4332:4353   */\n      iszero\n        /* \"#utility.yul\":4321:4353   */\n      swap1\n      pop\n        /* \"#utility.yul\":4269:4359   */\n      swap2\n      swap1\n      pop\n      jump\t// out\n        /* \"#utility.yul\":4365:4481   */\n    tag_158:\n        /* \"#utility.yul\":4435:4456   */\n      tag_220\n        /* \"#utility.yul\":4450:4455   */\n      dup2\n        /* \"#utility.yul\":4435:4456   */\n      tag_157\n      jump\t// in\n    tag_220:\n        /* \"#utility.yul\":4428:4433   */\n      dup2\n        /* \"#utility.yul\":4425:4457   */\n      eq\n        /* \"#utility.yul\":4415:4475   */\n      tag_221\n      jumpi\n        /* \"#utility.yul\":4471:4472   */\n      0x00\n        /* \"#utility.yul\":4468:4469   */\n      dup1\n        /* \"#utility.yul\":4461:4473   */\n      revert\n        /* \"#utility.yul\":4415:4475   */\n    tag_221:\n        /* \"#utility.yul\":4365:4481   */\n      pop\n      jump\t// out\n        /* \"#utility.yul\":4487:4624   */\n    tag_159:\n        /* \"#utility.yul\":4541:4546   */\n      0x00\n        /* \"#utility.yul\":4572:4578   */\n      dup2\n        /* \"#utility.yul\":4566:4579   */\n      mload\n        /* \"#utility.yul\":4557:4579   */\n      swap1\n      pop\n        /* \"#utility.yul\":4588:4618   */\n      tag_223\n        /* \"#utility.yul\":4612:4617   */\n      dup2\n        /* \"#utility.yul\":4588:4618   */\n      tag_158\n      jump\t// in\n    tag_223:\n        /* \"#utility.yul\":4487:4624   */\n      swap3\n      swap2\n      pop\n      pop\n      jump\t// out\n        /* \"#utility.yul\":4630:4975   */\n    tag_73:\n        /* \"#utility.yul\":4697:4703   */\n      0x00\n        /* \"#utility.yul\":4746:4748   */\n      0x20\n        /* \"#utility.yul\":4734:4743   */\n      dup3\n        /* \"#utility.yul\":4725:4732   */\n      dup5\n        /* \"#utility.yul\":4721:4744   */\n      sub\n        /* \"#utility.yul\":4717:4749   */\n      slt\n        /* \"#utility.yul\":4714:4833   */\n      iszero\n      tag_225\n      jumpi\n        /* \"#utility.yul\":4752:4831   */\n      tag_226\n      tag_146\n      jump\t// in\n    tag_226:\n        /* \"#utility.yul\":4714:4833   */\n    tag_225:\n        /* \"#utility.yul\":4872:4873   */\n      0x00\n        /* \"#utility.yul\":4897:4958   */\n      tag_227\n        /* \"#utility.yul\":4950:4957   */\n      dup5\n        /* \"#utility.yul\":4941:4947   */\n      dup3\n        /* \"#utility.yul\":4930:4939   */\n      dup6\n        /* \"#utility.yul\":4926:4948   */\n      add\n        /* \"#utility.yul\":4897:4958   */\n      tag_159\n      jump\t// in\n    tag_227:\n        /* \"#utility.yul\":4887:4958   */\n      swap2\n      pop\n        /* \"#utility.yul\":4843:4968   */\n      pop\n        /* \"#utility.yul\":4630:4975   */\n      swap3\n      swap2\n      pop\n      pop\n      jump\t// out\n        /* \"#utility.yul\":4981:5124   */\n    tag_160:\n        /* \"#utility.yul\":5038:5043   */\n      0x00\n        /* \"#utility.yul\":5069:5075   */\n      dup2\n        /* \"#utility.yul\":5063:5076   */\n      mload\n        /* \"#utility.yul\":5054:5076   */\n      swap1\n      pop\n        /* \"#utility.yul\":5085:5118   */\n      tag_229\n        /* \"#utility.yul\":5112:5117   */\n      dup2\n        /* \"#utility.yul\":5085:5118   */\n      tag_153\n      jump\t// in\n    tag_229:\n        /* \"#utility.yul\":4981:5124   */\n      swap3\n      swap2\n      pop\n      pop\n      jump\t// out\n        /* \"#utility.yul\":5130:5481   */\n    tag_85:\n        /* \"#utility.yul\":5200:5206   */\n      0x00\n        /* \"#utility.yul\":5249:5251   */\n      0x20\n        /* \"#utility.yul\":5237:5246   */\n      dup3\n        /* \"#utility.yul\":5228:5235   */\n      dup5\n        /* \"#utility.yul\":5224:5247   */\n      sub\n        /* \"#utility.yul\":5220:5252   */\n      slt\n        /* \"#utility.yul\":5217:5336   */\n      iszero\n      tag_231\n      jumpi\n        /* \"#utility.yul\":5255:5334   */\n      tag_232\n      tag_146\n      jump\t// in\n    tag_232:\n        /* \"#utility.yul\":5217:5336   */\n    tag_231:\n        /* \"#utility.yul\":5375:5376   */\n      0x00\n        /* \"#utility.yul\":5400:5464   */\n      tag_233\n        /* \"#utility.yul\":5456:5463   */\n      dup5\n        /* \"#utility.yul\":5447:5453   */\n      dup3\n        /* \"#utility.yul\":5436:5445   */\n      dup6\n        /* \"#utility.yul\":5432:5454   */\n      add\n        /* \"#utility.yul\":5400:5464   */\n      tag_160\n      jump\t// in\n    tag_233:\n        /* \"#utility.yul\":5390:5464   */\n      swap2\n      pop\n        /* \"#utility.yul\":5346:5474   */\n      pop\n        /* \"#utility.yul\":5130:5481   */\n      swap3\n      swap2\n      pop\n      pop\n      jump\t// out\n        /* \"#utility.yul\":5487:5667   */\n    tag_161:\n        /* \"#utility.yul\":5535:5612   */\n      0x4e487b7100000000000000000000000000000000000000000000000000000000\n        /* \"#utility.yul\":5532:5533   */\n      0x00\n        /* \"#utility.yul\":5525:5613   */\n      mstore\n        /* \"#utility.yul\":5632:5636   */\n      0x11\n        /* \"#utility.yul\":5629:5630   */\n      0x04\n        /* \"#utility.yul\":5622:5637   */\n      mstore\n        /* \"#utility.yul\":5656:5660   */\n      0x24\n        /* \"#utility.yul\":5653:5654   */\n      0x00\n        /* \"#utility.yul\":5646:5661   */\n      revert\n        /* \"#utility.yul\":5673:6083   */\n    tag_91:\n        /* \"#utility.yul\":5713:5720   */\n      0x00\n        /* \"#utility.yul\":5736:5756   */\n      tag_236\n        /* \"#utility.yul\":5754:5755   */\n      dup3\n        /* \"#utility.yul\":5736:5756   */\n      tag_152\n      jump\t// in\n    tag_236:\n        /* \"#utility.yul\":5731:5756   */\n      swap2\n      pop\n        /* \"#utility.yul\":5770:5790   */\n      tag_237\n        /* \"#utility.yul\":5788:5789   */\n      dup4\n        /* \"#utility.yul\":5770:5790   */\n      tag_152\n      jump\t// in\n    tag_237:\n        /* \"#utility.yul\":5765:5790   */\n      swap3\n      pop\n        /* \"#utility.yul\":5825:5826   */\n      dup3\n        /* \"#utility.yul\":5822:5823   */\n      dup3\n        /* \"#utility.yul\":5818:5827   */\n      mul\n        /* \"#utility.yul\":5847:5877   */\n      tag_238\n        /* \"#utility.yul\":5865:5876   */\n      dup2\n        /* \"#utility.yul\":5847:5877   */\n      tag_152\n      jump\t// in\n    tag_238:\n        /* \"#utility.yul\":5836:5877   */\n      swap2\n      pop\n        /* \"#utility.yul\":6026:6027   */\n      dup3\n        /* \"#utility.yul\":6017:6024   */\n      dup3\n        /* \"#utility.yul\":6013:6028   */\n      div\n        /* \"#utility.yul\":6010:6011   */\n      dup5\n        /* \"#utility.yul\":6007:6029   */\n      eq\n        /* \"#utility.yul\":5987:5988   */\n      dup4\n        /* \"#utility.yul\":5980:5989   */\n      iszero\n        /* \"#utility.yul\":5960:6043   */\n      or\n        /* \"#utility.yul\":5937:6076   */\n      tag_239\n      jumpi\n        /* \"#utility.yul\":6056:6074   */\n      tag_240\n      tag_161\n      jump\t// in\n    tag_240:\n        /* \"#utility.yul\":5937:6076   */\n    tag_239:\n        /* \"#utility.yul\":5721:6083   */\n      pop\n        /* \"#utility.yul\":5673:6083   */\n      swap3\n      swap2\n      pop\n      pop\n      jump\t// out\n        /* \"#utility.yul\":6089:6269   */\n    tag_162:\n        /* \"#utility.yul\":6137:6214   */\n      0x4e487b7100000000000000000000000000000000000000000000000000000000\n        /* \"#utility.yul\":6134:6135   */\n      0x00\n        /* \"#utility.yul\":6127:6215   */\n      mstore\n        /* \"#utility.yul\":6234:6238   */\n      0x12\n        /* \"#utility.yul\":6231:6232   */\n      0x04\n        /* \"#utility.yul\":6224:6239   */\n      mstore\n        /* \"#utility.yul\":6258:6262   */\n      0x24\n        /* \"#utility.yul\":6255:6256   */\n      0x00\n        /* \"#utility.yul\":6248:6263   */\n      revert\n        /* \"#utility.yul\":6275:6460   */\n    tag_93:\n        /* \"#utility.yul\":6315:6316   */\n      0x00\n        /* \"#utility.yul\":6332:6352   */\n      tag_243\n        /* \"#utility.yul\":6350:6351   */\n      dup3\n        /* \"#utility.yul\":6332:6352   */\n      tag_152\n      jump\t// in\n    tag_243:\n        /* \"#utility.yul\":6327:6352   */\n      swap2\n      pop\n        /* \"#utility.yul\":6366:6386   */\n      tag_244\n        /* \"#utility.yul\":6384:6385   */\n      dup4\n        /* \"#utility.yul\":6366:6386   */\n      tag_152\n      jump\t// in\n    tag_244:\n        /* \"#utility.yul\":6361:6386   */\n      swap3\n      pop\n        /* \"#utility.yul\":6405:6406   */\n      dup3\n        /* \"#utility.yul\":6395:6430   */\n      tag_245\n      jumpi\n        /* \"#utility.yul\":6410:6428   */\n      tag_246\n      tag_162\n      jump\t// in\n    tag_246:\n        /* \"#utility.yul\":6395:6430   */\n    tag_245:\n        /* \"#utility.yul\":6452:6453   */\n      dup3\n        /* \"#utility.yul\":6449:6450   */\n      dup3\n        /* \"#utility.yul\":6445:6454   */\n      div\n        /* \"#utility.yul\":6440:6454   */\n      swap1\n      pop\n        /* \"#utility.yul\":6275:6460   */\n      swap3\n      swap2\n      pop\n      pop\n      jump\t// out\n        /* \"#utility.yul\":6466:6635   */\n    tag_163:\n        /* \"#utility.yul\":6550:6561   */\n      0x00\n        /* \"#utility.yul\":6584:6590   */\n      dup3\n        /* \"#utility.yul\":6579:6582   */\n      dup3\n        /* \"#utility.yul\":6572:6591   */\n      mstore\n        /* \"#utility.yul\":6624:6628   */\n      0x20\n        /* \"#utility.yul\":6619:6622   */\n      dup3\n        /* \"#utility.yul\":6615:6629   */\n      add\n        /* \"#utility.yul\":6600:6629   */\n      swap1\n      pop\n        /* \"#utility.yul\":6466:6635   */\n      swap3\n      swap2\n      pop\n      pop\n      jump\t// out\n        /* \"#utility.yul\":6641:6805   */\n    tag_164:\n        /* \"#utility.yul\":6781:6797   */\n      0x496e76616c696420746f6b656e73000000000000000000000000000000000000\n        /* \"#utility.yul\":6777:6778   */\n      0x00\n        /* \"#utility.yul\":6769:6775   */\n      dup3\n        /* \"#utility.yul\":6765:6779   */\n      add\n        /* \"#utility.yul\":6758:6798   */\n      mstore\n        /* \"#utility.yul\":6641:6805   */\n      pop\n      jump\t// out\n        /* \"#utility.yul\":6811:7177   */\n    tag_165:\n        /* \"#utility.yul\":6953:6956   */\n      0x00\n        /* \"#utility.yul\":6974:7041   */\n      tag_250\n        /* \"#utility.yul\":7038:7040   */\n      0x0e\n        /* \"#utility.yul\":7033:7036   */\n      dup4\n        /* \"#utility.yul\":6974:7041   */\n      tag_163\n      jump\t// in\n    tag_250:\n        /* \"#utility.yul\":6967:7041   */\n      swap2\n      pop\n        /* \"#utility.yul\":7050:7143   */\n      tag_251\n        /* \"#utility.yul\":7139:7142   */\n      dup3\n        /* \"#utility.yul\":7050:7143   */\n      tag_164\n      jump\t// in\n    tag_251:\n        /* \"#utility.yul\":7168:7170   */\n      0x20\n        /* \"#utility.yul\":7163:7166   */\n      dup3\n        /* \"#utility.yul\":7159:7171   */\n      add\n        /* \"#utility.yul\":7152:7171   */\n      swap1\n      pop\n        /* \"#utility.yul\":6811:7177   */\n      swap2\n      swap1\n      pop\n      jump\t// out\n        /* \"#utility.yul\":7183:7602   */\n    tag_103:\n        /* \"#utility.yul\":7349:7353   */\n      0x00\n        /* \"#utility.yul\":7387:7389   */\n      0x20\n        /* \"#utility.yul\":7376:7385   */\n      dup3\n        /* \"#utility.yul\":7372:7390   */\n      add\n        /* \"#utility.yul\":7364:7390   */\n      swap1\n      pop\n        /* \"#utility.yul\":7436:7445   */\n      dup2\n        /* \"#utility.yul\":7430:7434   */\n      dup2\n        /* \"#utility.yul\":7426:7446   */\n      sub\n        /* \"#utility.yul\":7422:7423   */\n      0x00\n        /* \"#utility.yul\":7411:7420   */\n      dup4\n        /* \"#utility.yul\":7407:7424   */\n      add\n        /* \"#utility.yul\":7400:7447   */\n      mstore\n        /* \"#utility.yul\":7464:7595   */\n      tag_253\n        /* \"#utility.yul\":7590:7594   */\n      dup2\n        /* \"#utility.yul\":7464:7595   */\n      tag_165\n      jump\t// in\n    tag_253:\n        /* \"#utility.yul\":7456:7595   */\n      swap1\n      pop\n        /* \"#utility.yul\":7183:7602   */\n      swap2\n      swap1\n      pop\n      jump\t// out\n        /* \"#utility.yul\":7608:7776   */\n    tag_166:\n        /* \"#utility.yul\":7748:7768   */\n      0x4e6f7420656e6f75676820746f20737761700000000000000000000000000000\n        /* \"#utility.yul\":7744:7745   */\n      0x00\n        /* \"#utility.yul\":7736:7742   */\n      dup3\n        /* \"#utility.yul\":7732:7746   */\n      add\n        /* \"#utility.yul\":7725:7769   */\n      mstore\n        /* \"#utility.yul\":7608:7776   */\n      pop\n      jump\t// out\n        /* \"#utility.yul\":7782:8148   */\n    tag_167:\n        /* \"#utility.yul\":7924:7927   */\n      0x00\n        /* \"#utility.yul\":7945:8012   */\n      tag_256\n        /* \"#utility.yul\":8009:8011   */\n      0x12\n        /* \"#utility.yul\":8004:8007   */\n      dup4\n        /* \"#utility.yul\":7945:8012   */\n      tag_163\n      jump\t// in\n    tag_256:\n        /* \"#utility.yul\":7938:8012   */\n      swap2\n      pop\n        /* \"#utility.yul\":8021:8114   */\n      tag_257\n        /* \"#utility.yul\":8110:8113   */\n      dup3\n        /* \"#utility.yul\":8021:8114   */\n      tag_166\n      jump\t// in\n    tag_257:\n        /* \"#utility.yul\":8139:8141   */\n      0x20\n        /* \"#utility.yul\":8134:8137   */\n      dup3\n        /* \"#utility.yul\":8130:8142   */\n      add\n        /* \"#utility.yul\":8123:8142   */\n      swap1\n      pop\n        /* \"#utility.yul\":7782:8148   */\n      swap2\n      swap1\n      pop\n      jump\t// out\n        /* \"#utility.yul\":8154:8573   */\n    tag_110:\n        /* \"#utility.yul\":8320:8324   */\n      0x00\n        /* \"#utility.yul\":8358:8360   */\n      0x20\n        /* \"#utility.yul\":8347:8356   */\n      dup3\n        /* \"#utility.yul\":8343:8361   */\n      add\n        /* \"#utility.yul\":8335:8361   */\n      swap1\n      pop\n        /* \"#utility.yul\":8407:8416   */\n      dup2\n        /* \"#utility.yul\":8401:8405   */\n      dup2\n        /* \"#utility.yul\":8397:8417   */\n      sub\n        /* \"#utility.yul\":8393:8394   */\n      0x00\n        /* \"#utility.yul\":8382:8391   */\n      dup4\n        /* \"#utility.yul\":8378:8395   */\n      add\n        /* \"#utility.yul\":8371:8418   */\n      mstore\n        /* \"#utility.yul\":8435:8566   */\n      tag_259\n        /* \"#utility.yul\":8561:8565   */\n      dup2\n        /* \"#utility.yul\":8435:8566   */\n      tag_167\n      jump\t// in\n    tag_259:\n        /* \"#utility.yul\":8427:8566   */\n      swap1\n      pop\n        /* \"#utility.yul\":8154:8573   */\n      swap2\n      swap1\n      pop\n      jump\t// out\n        /* \"#utility.yul\":8579:8911   */\n    tag_117:\n        /* \"#utility.yul\":8700:8704   */\n      0x00\n        /* \"#utility.yul\":8738:8740   */\n      0x40\n        /* \"#utility.yul\":8727:8736   */\n      dup3\n        /* \"#utility.yul\":8723:8741   */\n      add\n        /* \"#utility.yul\":8715:8741   */\n      swap1\n      pop\n        /* \"#utility.yul\":8751:8822   */\n      tag_261\n        /* \"#utility.yul\":8819:8820   */\n      0x00\n        /* \"#utility.yul\":8808:8817   */\n      dup4\n        /* \"#utility.yul\":8804:8821   */\n      add\n        /* \"#utility.yul\":8795:8801   */\n      dup6\n        /* \"#utility.yul\":8751:8822   */\n      tag_155\n      jump\t// in\n    tag_261:\n        /* \"#utility.yul\":8832:8904   */\n      tag_262\n        /* \"#utility.yul\":8900:8902   */\n      0x20\n        /* \"#utility.yul\":8889:8898   */\n      dup4\n        /* \"#utility.yul\":8885:8903   */\n      add\n        /* \"#utility.yul\":8876:8882   */\n      dup5\n        /* \"#utility.yul\":8832:8904   */\n      tag_156\n      jump\t// in\n    tag_262:\n        /* \"#utility.yul\":8579:8911   */\n      swap4\n      swap3\n      pop\n      pop\n      pop\n      jump\t// out\n\n    auxdata: 0xa2646970667358221220ab0106c8c0469debcec9b2f9781d526dc3d46bf9a213dfa5d3b0c28477eed87c64736f6c63430008140033\n}\n",
				"bytecode": {
					"linkReferences": {},
					"object": "608060405234801562000010575f80fd5b50604051620012f5380380620012f58339818101604052810190620000369190620001e9565b805f73ffffffffffffffffffffffffffffffffffffffff168173ffffffffffffffffffffffffffffffffffffffff1603620000aa575f6040517f1e4fbdf7000000000000000000000000000000000000000000000000000000008152600401620000a191906200022a565b60405180910390fd5b620000bb81620000c360201b60201c565b505062000245565b5f805f9054906101000a900473ffffffffffffffffffffffffffffffffffffffff169050815f806101000a81548173ffffffffffffffffffffffffffffffffffffffff021916908373ffffffffffffffffffffffffffffffffffffffff1602179055508173ffffffffffffffffffffffffffffffffffffffff168173ffffffffffffffffffffffffffffffffffffffff167f8be0079c531659141344cd1fd0a4f28419497f9722a3daafe3b4186f6b6457e060405160405180910390a35050565b5f80fd5b5f73ffffffffffffffffffffffffffffffffffffffff82169050919050565b5f620001b38262000188565b9050919050565b620001c581620001a7565b8114620001d0575f80fd5b50565b5f81519050620001e381620001ba565b92915050565b5f6020828403121562000201576200020062000184565b5b5f6200021084828501620001d3565b91505092915050565b6200022481620001a7565b82525050565b5f6020820190506200023f5f83018462000219565b92915050565b6110a280620002535f395ff3fe608060405234801561000f575f80fd5b50600436106100a7575f3560e01c8063bfd7e00d1161006f578063bfd7e00d14610129578063cbc7854e14610159578063d21220a714610175578063df791e5014610193578063f2fde38b146101af578063f7888aec146101cb576100a7565b8063095ea7b3146100ab57806325be124e146100c757806356688700146100e5578063715018a6146101015780638da5cb5b1461010b575b5f80fd5b6100c560048036038101906100c09190610c7f565b6101fb565b005b6100cf610315565b6040516100dc9190610ccc565b60405180910390f35b6100ff60048036038101906100fa9190610c7f565b61033a565b005b6101096103c4565b005b6101136103d7565b6040516101209190610ccc565b60405180910390f35b610143600480360381019061013e9190610ce5565b6103fe565b6040516101509190610d44565b60405180910390f35b610173600480360381019061016e9190610d5d565b61050d565b005b61017d610599565b60405161018a9190610ccc565b60405180910390f35b6101ad60048036038101906101a89190610ce5565b6105be565b005b6101c960048036038101906101c49190610d9b565b61099a565b005b6101e560048036038101906101e09190610d5d565b610a1e565b6040516101f29190610d44565b60405180910390f35b60015f9054906101000a900473ffffffffffffffffffffffffffffffffffffffff1673ffffffffffffffffffffffffffffffffffffffff1663e1f21c673384846040518463ffffffff1660e01b815260040161025993929190610dc6565b5f604051808303815f87803b158015610270575f80fd5b505af1158015610282573d5f803e3d5ffd5b5050505060025f9054906101000a900473ffffffffffffffffffffffffffffffffffffffff1673ffffffffffffffffffffffffffffffffffffffff1663e1f21c673384846040518463ffffffff1660e01b81526004016102e493929190610dc6565b5f604051808303815f87803b1580156102fb575f80fd5b505af115801561030d573d5f803e3d5ffd5b505050505050565b60025f9054906101000a900473ffffffffffffffffffffffffffffffffffffffff1681565b610342610a9f565b8173ffffffffffffffffffffffffffffffffffffffff166323b872dd3330846040518463ffffffff1660e01b815260040161037f93929190610dc6565b6020604051808303815f875af115801561039b573d5f803e3d5ffd5b505050506040513d601f19601f820116820180604052508101906103bf9190610e30565b505050565b6103cc610a9f565b6103d55f610b26565b565b5f805f9054906101000a900473ffffffffffffffffffffffffffffffffffffffff16905090565b5f8373ffffffffffffffffffffffffffffffffffffffff166370a08231306040518263ffffffff1660e01b81526004016104389190610ccc565b602060405180830381865afa158015610453573d5f803e3d5ffd5b505050506040513d601f19601f820116820180604052508101906104779190610e6f565b8373ffffffffffffffffffffffffffffffffffffffff166370a08231306040518263ffffffff1660e01b81526004016104b09190610ccc565b602060405180830381865afa1580156104cb573d5f803e3d5ffd5b505050506040513d601f19601f820116820180604052508101906104ef9190610e6f565b836104fa9190610ec7565b6105049190610f35565b90509392505050565b610515610a9f565b8160015f6101000a81548173ffffffffffffffffffffffffffffffffffffffff021916908373ffffffffffffffffffffffffffffffffffffffff1602179055508060025f6101000a81548173ffffffffffffffffffffffffffffffffffffffff021916908373ffffffffffffffffffffffffffffffffffffffff1602179055505050565b60015f9054906101000a900473ffffffffffffffffffffffffffffffffffffffff1681565b60015f9054906101000a900473ffffffffffffffffffffffffffffffffffffffff1673ffffffffffffffffffffffffffffffffffffffff168373ffffffffffffffffffffffffffffffffffffffff16148015610666575060025f9054906101000a900473ffffffffffffffffffffffffffffffffffffffff1673ffffffffffffffffffffffffffffffffffffffff168273ffffffffffffffffffffffffffffffffffffffff16145b80610715575060025f9054906101000a900473ffffffffffffffffffffffffffffffffffffffff1673ffffffffffffffffffffffffffffffffffffffff168373ffffffffffffffffffffffffffffffffffffffff16148015610714575060015f9054906101000a900473ffffffffffffffffffffffffffffffffffffffff1673ffffffffffffffffffffffffffffffffffffffff168273ffffffffffffffffffffffffffffffffffffffff16145b5b610754576040517f08c379a000000000000000000000000000000000000000000000000000000000815260040161074b90610fbf565b60405180910390fd5b808373ffffffffffffffffffffffffffffffffffffffff166370a08231336040518263ffffffff1660e01b815260040161078e9190610ccc565b602060405180830381865afa1580156107a9573d5f803e3d5ffd5b505050506040513d601f19601f820116820180604052508101906107cd9190610e6f565b101561080e576040517f08c379a000000000000000000000000000000000000000000000000000000000815260040161080590611027565b60405180910390fd5b5f61081a8484846103fe565b90508373ffffffffffffffffffffffffffffffffffffffff166323b872dd3330856040518463ffffffff1660e01b815260040161085993929190610dc6565b6020604051808303815f875af1158015610875573d5f803e3d5ffd5b505050506040513d601f19601f820116820180604052508101906108999190610e30565b508273ffffffffffffffffffffffffffffffffffffffff1663095ea7b330836040518363ffffffff1660e01b81526004016108d5929190611045565b6020604051808303815f875af11580156108f1573d5f803e3d5ffd5b505050506040513d601f19601f820116820180604052508101906109159190610e30565b508273ffffffffffffffffffffffffffffffffffffffff166323b872dd3033846040518463ffffffff1660e01b815260040161095393929190610dc6565b6020604051808303815f875af115801561096f573d5f803e3d5ffd5b505050506040513d601f19601f820116820180604052508101906109939190610e30565b5050505050565b6109a2610a9f565b5f73ffffffffffffffffffffffffffffffffffffffff168173ffffffffffffffffffffffffffffffffffffffff1603610a12575f6040517f1e4fbdf7000000000000000000000000000000000000000000000000000000008152600401610a099190610ccc565b60405180910390fd5b610a1b81610b26565b50565b5f8273ffffffffffffffffffffffffffffffffffffffff166370a08231836040518263ffffffff1660e01b8152600401610a589190610ccc565b602060405180830381865afa158015610a73573d5f803e3d5ffd5b505050506040513d601f19601f82011682018060405250810190610a979190610e6f565b905092915050565b610aa7610be7565b73ffffffffffffffffffffffffffffffffffffffff16610ac56103d7565b73ffffffffffffffffffffffffffffffffffffffff1614610b2457610ae8610be7565b6040517f118cdaa7000000000000000000000000000000000000000000000000000000008152600401610b1b9190610ccc565b60405180910390fd5b565b5f805f9054906101000a900473ffffffffffffffffffffffffffffffffffffffff169050815f806101000a81548173ffffffffffffffffffffffffffffffffffffffff021916908373ffffffffffffffffffffffffffffffffffffffff1602179055508173ffffffffffffffffffffffffffffffffffffffff168173ffffffffffffffffffffffffffffffffffffffff167f8be0079c531659141344cd1fd0a4f28419497f9722a3daafe3b4186f6b6457e060405160405180910390a35050565b5f33905090565b5f80fd5b5f73ffffffffffffffffffffffffffffffffffffffff82169050919050565b5f610c1b82610bf2565b9050919050565b610c2b81610c11565b8114610c35575f80fd5b50565b5f81359050610c4681610c22565b92915050565b5f819050919050565b610c5e81610c4c565b8114610c68575f80fd5b50565b5f81359050610c7981610c55565b92915050565b5f8060408385031215610c9557610c94610bee565b5b5f610ca285828601610c38565b9250506020610cb385828601610c6b565b9150509250929050565b610cc681610c11565b82525050565b5f602082019050610cdf5f830184610cbd565b92915050565b5f805f60608486031215610cfc57610cfb610bee565b5b5f610d0986828701610c38565b9350506020610d1a86828701610c38565b9250506040610d2b86828701610c6b565b9150509250925092565b610d3e81610c4c565b82525050565b5f602082019050610d575f830184610d35565b92915050565b5f8060408385031215610d7357610d72610bee565b5b5f610d8085828601610c38565b9250506020610d9185828601610c38565b9150509250929050565b5f60208284031215610db057610daf610bee565b5b5f610dbd84828501610c38565b91505092915050565b5f606082019050610dd95f830186610cbd565b610de66020830185610cbd565b610df36040830184610d35565b949350505050565b5f8115159050919050565b610e0f81610dfb565b8114610e19575f80fd5b50565b5f81519050610e2a81610e06565b92915050565b5f60208284031215610e4557610e44610bee565b5b5f610e5284828501610e1c565b91505092915050565b5f81519050610e6981610c55565b92915050565b5f60208284031215610e8457610e83610bee565b5b5f610e9184828501610e5b565b91505092915050565b7f4e487b71000000000000000000000000000000000000000000000000000000005f52601160045260245ffd5b5f610ed182610c4c565b9150610edc83610c4c565b9250828202610eea81610c4c565b91508282048414831517610f0157610f00610e9a565b5b5092915050565b7f4e487b71000000000000000000000000000000000000000000000000000000005f52601260045260245ffd5b5f610f3f82610c4c565b9150610f4a83610c4c565b925082610f5a57610f59610f08565b5b828204905092915050565b5f82825260208201905092915050565b7f496e76616c696420746f6b656e730000000000000000000000000000000000005f82015250565b5f610fa9600e83610f65565b9150610fb482610f75565b602082019050919050565b5f6020820190508181035f830152610fd681610f9d565b9050919050565b7f4e6f7420656e6f75676820746f207377617000000000000000000000000000005f82015250565b5f611011601283610f65565b915061101c82610fdd565b602082019050919050565b5f6020820190508181035f83015261103e81611005565b9050919050565b5f6040820190506110585f830185610cbd565b6110656020830184610d35565b939250505056fea2646970667358221220ab0106c8c0469debcec9b2f9781d526dc3d46bf9a213dfa5d3b0c28477eed87c64736f6c63430008140033",
					"opcodes": "PUSH1 0x80 PUSH1 0x40 MSTORE CALLVALUE DUP1 ISZERO PUSH3 0x10 JUMPI PUSH0 DUP1 REVERT JUMPDEST POP PUSH1 0x40 MLOAD PUSH3 0x12F5 CODESIZE SUB DUP1 PUSH3 0x12F5 DUP4 CODECOPY DUP2 DUP2 ADD PUSH1 0x40 MSTORE DUP2 ADD SWAP1 PUSH3 0x36 SWAP2 SWAP1 PUSH3 0x1E9 JUMP JUMPDEST DUP1 PUSH0 PUSH20 0xFFFFFFFFFFFFFFFFFFFFFFFFFFFFFFFFFFFFFFFF AND DUP2 PUSH20 0xFFFFFFFFFFFFFFFFFFFFFFFFFFFFFFFFFFFFFFFF AND SUB PUSH3 0xAA JUMPI PUSH0 PUSH1 0x40 MLOAD PUSH32 0x1E4FBDF700000000000000000000000000000000000000000000000000000000 DUP2 MSTORE PUSH1 0x4 ADD PUSH3 0xA1 SWAP2 SWAP1 PUSH3 0x22A JUMP JUMPDEST PUSH1 0x40 MLOAD DUP1 SWAP2 SUB SWAP1 REVERT JUMPDEST PUSH3 0xBB DUP2 PUSH3 0xC3 PUSH1 0x20 SHL PUSH1 0x20 SHR JUMP JUMPDEST POP POP PUSH3 0x245 JUMP JUMPDEST PUSH0 DUP1 PUSH0 SWAP1 SLOAD SWAP1 PUSH2 0x100 EXP SWAP1 DIV PUSH20 0xFFFFFFFFFFFFFFFFFFFFFFFFFFFFFFFFFFFFFFFF AND SWAP1 POP DUP2 PUSH0 DUP1 PUSH2 0x100 EXP DUP2 SLOAD DUP2 PUSH20 0xFFFFFFFFFFFFFFFFFFFFFFFFFFFFFFFFFFFFFFFF MUL NOT AND SWAP1 DUP4 PUSH20 0xFFFFFFFFFFFFFFFFFFFFFFFFFFFFFFFFFFFFFFFF AND MUL OR SWAP1 SSTORE POP DUP2 PUSH20 0xFFFFFFFFFFFFFFFFFFFFFFFFFFFFFFFFFFFFFFFF AND DUP2 PUSH20 0xFFFFFFFFFFFFFFFFFFFFFFFFFFFFFFFFFFFFFFFF AND PUSH32 0x8BE0079C531659141344CD1FD0A4F28419497F9722A3DAAFE3B4186F6B6457E0 PUSH1 0x40 MLOAD PUSH1 0x40 MLOAD DUP1 SWAP2 SUB SWAP1 LOG3 POP POP JUMP JUMPDEST PUSH0 DUP1 REVERT JUMPDEST PUSH0 PUSH20 0xFFFFFFFFFFFFFFFFFFFFFFFFFFFFFFFFFFFFFFFF DUP3 AND SWAP1 POP SWAP2 SWAP1 POP JUMP JUMPDEST PUSH0 PUSH3 0x1B3 DUP3 PUSH3 0x188 JUMP JUMPDEST SWAP1 POP SWAP2 SWAP1 POP JUMP JUMPDEST PUSH3 0x1C5 DUP2 PUSH3 0x1A7 JUMP JUMPDEST DUP2 EQ PUSH3 0x1D0 JUMPI PUSH0 DUP1 REVERT JUMPDEST POP JUMP JUMPDEST PUSH0 DUP2 MLOAD SWAP1 POP PUSH3 0x1E3 DUP2 PUSH3 0x1BA JUMP JUMPDEST SWAP3 SWAP2 POP POP JUMP JUMPDEST PUSH0 PUSH1 0x20 DUP3 DUP5 SUB SLT ISZERO PUSH3 0x201 JUMPI PUSH3 0x200 PUSH3 0x184 JUMP JUMPDEST JUMPDEST PUSH0 PUSH3 0x210 DUP5 DUP3 DUP6 ADD PUSH3 0x1D3 JUMP JUMPDEST SWAP2 POP POP SWAP3 SWAP2 POP POP JUMP JUMPDEST PUSH3 0x224 DUP2 PUSH3 0x1A7 JUMP JUMPDEST DUP3 MSTORE POP POP JUMP JUMPDEST PUSH0 PUSH1 0x20 DUP3 ADD SWAP1 POP PUSH3 0x23F PUSH0 DUP4 ADD DUP5 PUSH3 0x219 JUMP JUMPDEST SWAP3 SWAP2 POP POP JUMP JUMPDEST PUSH2 0x10A2 DUP1 PUSH3 0x253 PUSH0 CODECOPY PUSH0 RETURN INVALID PUSH1 0x80 PUSH1 0x40 MSTORE CALLVALUE DUP1 ISZERO PUSH2 0xF JUMPI PUSH0 DUP1 REVERT JUMPDEST POP PUSH1 0x4 CALLDATASIZE LT PUSH2 0xA7 JUMPI PUSH0 CALLDATALOAD PUSH1 0xE0 SHR DUP1 PUSH4 0xBFD7E00D GT PUSH2 0x6F JUMPI DUP1 PUSH4 0xBFD7E00D EQ PUSH2 0x129 JUMPI DUP1 PUSH4 0xCBC7854E EQ PUSH2 0x159 JUMPI DUP1 PUSH4 0xD21220A7 EQ PUSH2 0x175 JUMPI DUP1 PUSH4 0xDF791E50 EQ PUSH2 0x193 JUMPI DUP1 PUSH4 0xF2FDE38B EQ PUSH2 0x1AF JUMPI DUP1 PUSH4 0xF7888AEC EQ PUSH2 0x1CB JUMPI PUSH2 0xA7 JUMP JUMPDEST DUP1 PUSH4 0x95EA7B3 EQ PUSH2 0xAB JUMPI DUP1 PUSH4 0x25BE124E EQ PUSH2 0xC7 JUMPI DUP1 PUSH4 0x56688700 EQ PUSH2 0xE5 JUMPI DUP1 PUSH4 0x715018A6 EQ PUSH2 0x101 JUMPI DUP1 PUSH4 0x8DA5CB5B EQ PUSH2 0x10B JUMPI JUMPDEST PUSH0 DUP1 REVERT JUMPDEST PUSH2 0xC5 PUSH1 0x4 DUP1 CALLDATASIZE SUB DUP2 ADD SWAP1 PUSH2 0xC0 SWAP2 SWAP1 PUSH2 0xC7F JUMP JUMPDEST PUSH2 0x1FB JUMP JUMPDEST STOP JUMPDEST PUSH2 0xCF PUSH2 0x315 JUMP JUMPDEST PUSH1 0x40 MLOAD PUSH2 0xDC SWAP2 SWAP1 PUSH2 0xCCC JUMP JUMPDEST PUSH1 0x40 MLOAD DUP1 SWAP2 SUB SWAP1 RETURN JUMPDEST PUSH2 0xFF PUSH1 0x4 DUP1 CALLDATASIZE SUB DUP2 ADD SWAP1 PUSH2 0xFA SWAP2 SWAP1 PUSH2 0xC7F JUMP JUMPDEST PUSH2 0x33A JUMP JUMPDEST STOP JUMPDEST PUSH2 0x109 PUSH2 0x3C4 JUMP JUMPDEST STOP JUMPDEST PUSH2 0x113 PUSH2 0x3D7 JUMP JUMPDEST PUSH1 0x40 MLOAD PUSH2 0x120 SWAP2 SWAP1 PUSH2 0xCCC JUMP JUMPDEST PUSH1 0x40 MLOAD DUP1 SWAP2 SUB SWAP1 RETURN JUMPDEST PUSH2 0x143 PUSH1 0x4 DUP1 CALLDATASIZE SUB DUP2 ADD SWAP1 PUSH2 0x13E SWAP2 SWAP1 PUSH2 0xCE5 JUMP JUMPDEST PUSH2 0x3FE JUMP JUMPDEST PUSH1 0x40 MLOAD PUSH2 0x150 SWAP2 SWAP1 PUSH2 0xD44 JUMP JUMPDEST PUSH1 0x40 MLOAD DUP1 SWAP2 SUB SWAP1 RETURN JUMPDEST PUSH2 0x173 PUSH1 0x4 DUP1 CALLDATASIZE SUB DUP2 ADD SWAP1 PUSH2 0x16E SWAP2 SWAP1 PUSH2 0xD5D JUMP JUMPDEST PUSH2 0x50D JUMP JUMPDEST STOP JUMPDEST PUSH2 0x17D PUSH2 0x599 JUMP JUMPDEST PUSH1 0x40 MLOAD PUSH2 0x18A SWAP2 SWAP1 PUSH2 0xCCC JUMP JUMPDEST PUSH1 0x40 MLOAD DUP1 SWAP2 SUB SWAP1 RETURN JUMPDEST PUSH2 0x1AD PUSH1 0x4 DUP1 CALLDATASIZE SUB DUP2 ADD SWAP1 PUSH2 0x1A8 SWAP2 SWAP1 PUSH2 0xCE5 JUMP JUMPDEST PUSH2 0x5BE JUMP JUMPDEST STOP JUMPDEST PUSH2 0x1C9 PUSH1 0x4 DUP1 CALLDATASIZE SUB DUP2 ADD SWAP1 PUSH2 0x1C4 SWAP2 SWAP1 PUSH2 0xD9B JUMP JUMPDEST PUSH2 0x99A JUMP JUMPDEST STOP JUMPDEST PUSH2 0x1E5 PUSH1 0x4 DUP1 CALLDATASIZE SUB DUP2 ADD SWAP1 PUSH2 0x1E0 SWAP2 SWAP1 PUSH2 0xD5D JUMP JUMPDEST PUSH2 0xA1E JUMP JUMPDEST PUSH1 0x40 MLOAD PUSH2 0x1F2 SWAP2 SWAP1 PUSH2 0xD44 JUMP JUMPDEST PUSH1 0x40 MLOAD DUP1 SWAP2 SUB SWAP1 RETURN JUMPDEST PUSH1 0x1 PUSH0 SWAP1 SLOAD SWAP1 PUSH2 0x100 EXP SWAP1 DIV PUSH20 0xFFFFFFFFFFFFFFFFFFFFFFFFFFFFFFFFFFFFFFFF AND PUSH20 0xFFFFFFFFFFFFFFFFFFFFFFFFFFFFFFFFFFFFFFFF AND PUSH4 0xE1F21C67 CALLER DUP5 DUP5 PUSH1 0x40 MLOAD DUP5 PUSH4 0xFFFFFFFF AND PUSH1 0xE0 SHL DUP2 MSTORE PUSH1 0x4 ADD PUSH2 0x259 SWAP4 SWAP3 SWAP2 SWAP1 PUSH2 0xDC6 JUMP JUMPDEST PUSH0 PUSH1 0x40 MLOAD DUP1 DUP4 SUB DUP2 PUSH0 DUP8 DUP1 EXTCODESIZE ISZERO DUP1 ISZERO PUSH2 0x270 JUMPI PUSH0 DUP1 REVERT JUMPDEST POP GAS CALL ISZERO DUP1 ISZERO PUSH2 0x282 JUMPI RETURNDATASIZE PUSH0 DUP1 RETURNDATACOPY RETURNDATASIZE PUSH0 REVERT JUMPDEST POP POP POP POP PUSH1 0x2 PUSH0 SWAP1 SLOAD SWAP1 PUSH2 0x100 EXP SWAP1 DIV PUSH20 0xFFFFFFFFFFFFFFFFFFFFFFFFFFFFFFFFFFFFFFFF AND PUSH20 0xFFFFFFFFFFFFFFFFFFFFFFFFFFFFFFFFFFFFFFFF AND PUSH4 0xE1F21C67 CALLER DUP5 DUP5 PUSH1 0x40 MLOAD DUP5 PUSH4 0xFFFFFFFF AND PUSH1 0xE0 SHL DUP2 MSTORE PUSH1 0x4 ADD PUSH2 0x2E4 SWAP4 SWAP3 SWAP2 SWAP1 PUSH2 0xDC6 JUMP JUMPDEST PUSH0 PUSH1 0x40 MLOAD DUP1 DUP4 SUB DUP2 PUSH0 DUP8 DUP1 EXTCODESIZE ISZERO DUP1 ISZERO PUSH2 0x2FB JUMPI PUSH0 DUP1 REVERT JUMPDEST POP GAS CALL ISZERO DUP1 ISZERO PUSH2 0x30D JUMPI RETURNDATASIZE PUSH0 DUP1 RETURNDATACOPY RETURNDATASIZE PUSH0 REVERT JUMPDEST POP POP POP POP POP POP JUMP JUMPDEST PUSH1 0x2 PUSH0 SWAP1 SLOAD SWAP1 PUSH2 0x100 EXP SWAP1 DIV PUSH20 0xFFFFFFFFFFFFFFFFFFFFFFFFFFFFFFFFFFFFFFFF AND DUP2 JUMP JUMPDEST PUSH2 0x342 PUSH2 0xA9F JUMP JUMPDEST DUP2 PUSH20 0xFFFFFFFFFFFFFFFFFFFFFFFFFFFFFFFFFFFFFFFF AND PUSH4 0x23B872DD CALLER ADDRESS DUP5 PUSH1 0x40 MLOAD DUP5 PUSH4 0xFFFFFFFF AND PUSH1 0xE0 SHL DUP2 MSTORE PUSH1 0x4 ADD PUSH2 0x37F SWAP4 SWAP3 SWAP2 SWAP1 PUSH2 0xDC6 JUMP JUMPDEST PUSH1 0x20 PUSH1 0x40 MLOAD DUP1 DUP4 SUB DUP2 PUSH0 DUP8 GAS CALL ISZERO DUP1 ISZERO PUSH2 0x39B JUMPI RETURNDATASIZE PUSH0 DUP1 RETURNDATACOPY RETURNDATASIZE PUSH0 REVERT JUMPDEST POP POP POP POP PUSH1 0x40 MLOAD RETURNDATASIZE PUSH1 0x1F NOT PUSH1 0x1F DUP3 ADD AND DUP3 ADD DUP1 PUSH1 0x40 MSTORE POP DUP2 ADD SWAP1 PUSH2 0x3BF SWAP2 SWAP1 PUSH2 0xE30 JUMP JUMPDEST POP POP POP JUMP JUMPDEST PUSH2 0x3CC PUSH2 0xA9F JUMP JUMPDEST PUSH2 0x3D5 PUSH0 PUSH2 0xB26 JUMP JUMPDEST JUMP JUMPDEST PUSH0 DUP1 PUSH0 SWAP1 SLOAD SWAP1 PUSH2 0x100 EXP SWAP1 DIV PUSH20 0xFFFFFFFFFFFFFFFFFFFFFFFFFFFFFFFFFFFFFFFF AND SWAP1 POP SWAP1 JUMP JUMPDEST PUSH0 DUP4 PUSH20 0xFFFFFFFFFFFFFFFFFFFFFFFFFFFFFFFFFFFFFFFF AND PUSH4 0x70A08231 ADDRESS PUSH1 0x40 MLOAD DUP3 PUSH4 0xFFFFFFFF AND PUSH1 0xE0 SHL DUP2 MSTORE PUSH1 0x4 ADD PUSH2 0x438 SWAP2 SWAP1 PUSH2 0xCCC JUMP JUMPDEST PUSH1 0x20 PUSH1 0x40 MLOAD DUP1 DUP4 SUB DUP2 DUP7 GAS STATICCALL ISZERO DUP1 ISZERO PUSH2 0x453 JUMPI RETURNDATASIZE PUSH0 DUP1 RETURNDATACOPY RETURNDATASIZE PUSH0 REVERT JUMPDEST POP POP POP POP PUSH1 0x40 MLOAD RETURNDATASIZE PUSH1 0x1F NOT PUSH1 0x1F DUP3 ADD AND DUP3 ADD DUP1 PUSH1 0x40 MSTORE POP DUP2 ADD SWAP1 PUSH2 0x477 SWAP2 SWAP1 PUSH2 0xE6F JUMP JUMPDEST DUP4 PUSH20 0xFFFFFFFFFFFFFFFFFFFFFFFFFFFFFFFFFFFFFFFF AND PUSH4 0x70A08231 ADDRESS PUSH1 0x40 MLOAD DUP3 PUSH4 0xFFFFFFFF AND PUSH1 0xE0 SHL DUP2 MSTORE PUSH1 0x4 ADD PUSH2 0x4B0 SWAP2 SWAP1 PUSH2 0xCCC JUMP JUMPDEST PUSH1 0x20 PUSH1 0x40 MLOAD DUP1 DUP4 SUB DUP2 DUP7 GAS STATICCALL ISZERO DUP1 ISZERO PUSH2 0x4CB JUMPI RETURNDATASIZE PUSH0 DUP1 RETURNDATACOPY RETURNDATASIZE PUSH0 REVERT JUMPDEST POP POP POP POP PUSH1 0x40 MLOAD RETURNDATASIZE PUSH1 0x1F NOT PUSH1 0x1F DUP3 ADD AND DUP3 ADD DUP1 PUSH1 0x40 MSTORE POP DUP2 ADD SWAP1 PUSH2 0x4EF SWAP2 SWAP1 PUSH2 0xE6F JUMP JUMPDEST DUP4 PUSH2 0x4FA SWAP2 SWAP1 PUSH2 0xEC7 JUMP JUMPDEST PUSH2 0x504 SWAP2 SWAP1 PUSH2 0xF35 JUMP JUMPDEST SWAP1 POP SWAP4 SWAP3 POP POP POP JUMP JUMPDEST PUSH2 0x515 PUSH2 0xA9F JUMP JUMPDEST DUP2 PUSH1 0x1 PUSH0 PUSH2 0x100 EXP DUP2 SLOAD DUP2 PUSH20 0xFFFFFFFFFFFFFFFFFFFFFFFFFFFFFFFFFFFFFFFF MUL NOT AND SWAP1 DUP4 PUSH20 0xFFFFFFFFFFFFFFFFFFFFFFFFFFFFFFFFFFFFFFFF AND MUL OR SWAP1 SSTORE POP DUP1 PUSH1 0x2 PUSH0 PUSH2 0x100 EXP DUP2 SLOAD DUP2 PUSH20 0xFFFFFFFFFFFFFFFFFFFFFFFFFFFFFFFFFFFFFFFF MUL NOT AND SWAP1 DUP4 PUSH20 0xFFFFFFFFFFFFFFFFFFFFFFFFFFFFFFFFFFFFFFFF AND MUL OR SWAP1 SSTORE POP POP POP JUMP JUMPDEST PUSH1 0x1 PUSH0 SWAP1 SLOAD SWAP1 PUSH2 0x100 EXP SWAP1 DIV PUSH20 0xFFFFFFFFFFFFFFFFFFFFFFFFFFFFFFFFFFFFFFFF AND DUP2 JUMP JUMPDEST PUSH1 0x1 PUSH0 SWAP1 SLOAD SWAP1 PUSH2 0x100 EXP SWAP1 DIV PUSH20 0xFFFFFFFFFFFFFFFFFFFFFFFFFFFFFFFFFFFFFFFF AND PUSH20 0xFFFFFFFFFFFFFFFFFFFFFFFFFFFFFFFFFFFFFFFF AND DUP4 PUSH20 0xFFFFFFFFFFFFFFFFFFFFFFFFFFFFFFFFFFFFFFFF AND EQ DUP1 ISZERO PUSH2 0x666 JUMPI POP PUSH1 0x2 PUSH0 SWAP1 SLOAD SWAP1 PUSH2 0x100 EXP SWAP1 DIV PUSH20 0xFFFFFFFFFFFFFFFFFFFFFFFFFFFFFFFFFFFFFFFF AND PUSH20 0xFFFFFFFFFFFFFFFFFFFFFFFFFFFFFFFFFFFFFFFF AND DUP3 PUSH20 0xFFFFFFFFFFFFFFFFFFFFFFFFFFFFFFFFFFFFFFFF AND EQ JUMPDEST DUP1 PUSH2 0x715 JUMPI POP PUSH1 0x2 PUSH0 SWAP1 SLOAD SWAP1 PUSH2 0x100 EXP SWAP1 DIV PUSH20 0xFFFFFFFFFFFFFFFFFFFFFFFFFFFFFFFFFFFFFFFF AND PUSH20 0xFFFFFFFFFFFFFFFFFFFFFFFFFFFFFFFFFFFFFFFF AND DUP4 PUSH20 0xFFFFFFFFFFFFFFFFFFFFFFFFFFFFFFFFFFFFFFFF AND EQ DUP1 ISZERO PUSH2 0x714 JUMPI POP PUSH1 0x1 PUSH0 SWAP1 SLOAD SWAP1 PUSH2 0x100 EXP SWAP1 DIV PUSH20 0xFFFFFFFFFFFFFFFFFFFFFFFFFFFFFFFFFFFFFFFF AND PUSH20 0xFFFFFFFFFFFFFFFFFFFFFFFFFFFFFFFFFFFFFFFF AND DUP3 PUSH20 0xFFFFFFFFFFFFFFFFFFFFFFFFFFFFFFFFFFFFFFFF AND EQ JUMPDEST JUMPDEST PUSH2 0x754 JUMPI PUSH1 0x40 MLOAD PUSH32 0x8C379A000000000000000000000000000000000000000000000000000000000 DUP2 MSTORE PUSH1 0x4 ADD PUSH2 0x74B SWAP1 PUSH2 0xFBF JUMP JUMPDEST PUSH1 0x40 MLOAD DUP1 SWAP2 SUB SWAP1 REVERT JUMPDEST DUP1 DUP4 PUSH20 0xFFFFFFFFFFFFFFFFFFFFFFFFFFFFFFFFFFFFFFFF AND PUSH4 0x70A08231 CALLER PUSH1 0x40 MLOAD DUP3 PUSH4 0xFFFFFFFF AND PUSH1 0xE0 SHL DUP2 MSTORE PUSH1 0x4 ADD PUSH2 0x78E SWAP2 SWAP1 PUSH2 0xCCC JUMP JUMPDEST PUSH1 0x20 PUSH1 0x40 MLOAD DUP1 DUP4 SUB DUP2 DUP7 GAS STATICCALL ISZERO DUP1 ISZERO PUSH2 0x7A9 JUMPI RETURNDATASIZE PUSH0 DUP1 RETURNDATACOPY RETURNDATASIZE PUSH0 REVERT JUMPDEST POP POP POP POP PUSH1 0x40 MLOAD RETURNDATASIZE PUSH1 0x1F NOT PUSH1 0x1F DUP3 ADD AND DUP3 ADD DUP1 PUSH1 0x40 MSTORE POP DUP2 ADD SWAP1 PUSH2 0x7CD SWAP2 SWAP1 PUSH2 0xE6F JUMP JUMPDEST LT ISZERO PUSH2 0x80E JUMPI PUSH1 0x40 MLOAD PUSH32 0x8C379A000000000000000000000000000000000000000000000000000000000 DUP2 MSTORE PUSH1 0x4 ADD PUSH2 0x805 SWAP1 PUSH2 0x1027 JUMP JUMPDEST PUSH1 0x40 MLOAD DUP1 SWAP2 SUB SWAP1 REVERT JUMPDEST PUSH0 PUSH2 0x81A DUP5 DUP5 DUP5 PUSH2 0x3FE JUMP JUMPDEST SWAP1 POP DUP4 PUSH20 0xFFFFFFFFFFFFFFFFFFFFFFFFFFFFFFFFFFFFFFFF AND PUSH4 0x23B872DD CALLER ADDRESS DUP6 PUSH1 0x40 MLOAD DUP5 PUSH4 0xFFFFFFFF AND PUSH1 0xE0 SHL DUP2 MSTORE PUSH1 0x4 ADD PUSH2 0x859 SWAP4 SWAP3 SWAP2 SWAP1 PUSH2 0xDC6 JUMP JUMPDEST PUSH1 0x20 PUSH1 0x40 MLOAD DUP1 DUP4 SUB DUP2 PUSH0 DUP8 GAS CALL ISZERO DUP1 ISZERO PUSH2 0x875 JUMPI RETURNDATASIZE PUSH0 DUP1 RETURNDATACOPY RETURNDATASIZE PUSH0 REVERT JUMPDEST POP POP POP POP PUSH1 0x40 MLOAD RETURNDATASIZE PUSH1 0x1F NOT PUSH1 0x1F DUP3 ADD AND DUP3 ADD DUP1 PUSH1 0x40 MSTORE POP DUP2 ADD SWAP1 PUSH2 0x899 SWAP2 SWAP1 PUSH2 0xE30 JUMP JUMPDEST POP DUP3 PUSH20 0xFFFFFFFFFFFFFFFFFFFFFFFFFFFFFFFFFFFFFFFF AND PUSH4 0x95EA7B3 ADDRESS DUP4 PUSH1 0x40 MLOAD DUP4 PUSH4 0xFFFFFFFF AND PUSH1 0xE0 SHL DUP2 MSTORE PUSH1 0x4 ADD PUSH2 0x8D5 SWAP3 SWAP2 SWAP1 PUSH2 0x1045 JUMP JUMPDEST PUSH1 0x20 PUSH1 0x40 MLOAD DUP1 DUP4 SUB DUP2 PUSH0 DUP8 GAS CALL ISZERO DUP1 ISZERO PUSH2 0x8F1 JUMPI RETURNDATASIZE PUSH0 DUP1 RETURNDATACOPY RETURNDATASIZE PUSH0 REVERT JUMPDEST POP POP POP POP PUSH1 0x40 MLOAD RETURNDATASIZE PUSH1 0x1F NOT PUSH1 0x1F DUP3 ADD AND DUP3 ADD DUP1 PUSH1 0x40 MSTORE POP DUP2 ADD SWAP1 PUSH2 0x915 SWAP2 SWAP1 PUSH2 0xE30 JUMP JUMPDEST POP DUP3 PUSH20 0xFFFFFFFFFFFFFFFFFFFFFFFFFFFFFFFFFFFFFFFF AND PUSH4 0x23B872DD ADDRESS CALLER DUP5 PUSH1 0x40 MLOAD DUP5 PUSH4 0xFFFFFFFF AND PUSH1 0xE0 SHL DUP2 MSTORE PUSH1 0x4 ADD PUSH2 0x953 SWAP4 SWAP3 SWAP2 SWAP1 PUSH2 0xDC6 JUMP JUMPDEST PUSH1 0x20 PUSH1 0x40 MLOAD DUP1 DUP4 SUB DUP2 PUSH0 DUP8 GAS CALL ISZERO DUP1 ISZERO PUSH2 0x96F JUMPI RETURNDATASIZE PUSH0 DUP1 RETURNDATACOPY RETURNDATASIZE PUSH0 REVERT JUMPDEST POP POP POP POP PUSH1 0x40 MLOAD RETURNDATASIZE PUSH1 0x1F NOT PUSH1 0x1F DUP3 ADD AND DUP3 ADD DUP1 PUSH1 0x40 MSTORE POP DUP2 ADD SWAP1 PUSH2 0x993 SWAP2 SWAP1 PUSH2 0xE30 JUMP JUMPDEST POP POP POP POP POP JUMP JUMPDEST PUSH2 0x9A2 PUSH2 0xA9F JUMP JUMPDEST PUSH0 PUSH20 0xFFFFFFFFFFFFFFFFFFFFFFFFFFFFFFFFFFFFFFFF AND DUP2 PUSH20 0xFFFFFFFFFFFFFFFFFFFFFFFFFFFFFFFFFFFFFFFF AND SUB PUSH2 0xA12 JUMPI PUSH0 PUSH1 0x40 MLOAD PUSH32 0x1E4FBDF700000000000000000000000000000000000000000000000000000000 DUP2 MSTORE PUSH1 0x4 ADD PUSH2 0xA09 SWAP2 SWAP1 PUSH2 0xCCC JUMP JUMPDEST PUSH1 0x40 MLOAD DUP1 SWAP2 SUB SWAP1 REVERT JUMPDEST PUSH2 0xA1B DUP2 PUSH2 0xB26 JUMP JUMPDEST POP JUMP JUMPDEST PUSH0 DUP3 PUSH20 0xFFFFFFFFFFFFFFFFFFFFFFFFFFFFFFFFFFFFFFFF AND PUSH4 0x70A08231 DUP4 PUSH1 0x40 MLOAD DUP3 PUSH4 0xFFFFFFFF AND PUSH1 0xE0 SHL DUP2 MSTORE PUSH1 0x4 ADD PUSH2 0xA58 SWAP2 SWAP1 PUSH2 0xCCC JUMP JUMPDEST PUSH1 0x20 PUSH1 0x40 MLOAD DUP1 DUP4 SUB DUP2 DUP7 GAS STATICCALL ISZERO DUP1 ISZERO PUSH2 0xA73 JUMPI RETURNDATASIZE PUSH0 DUP1 RETURNDATACOPY RETURNDATASIZE PUSH0 REVERT JUMPDEST POP POP POP POP PUSH1 0x40 MLOAD RETURNDATASIZE PUSH1 0x1F NOT PUSH1 0x1F DUP3 ADD AND DUP3 ADD DUP1 PUSH1 0x40 MSTORE POP DUP2 ADD SWAP1 PUSH2 0xA97 SWAP2 SWAP1 PUSH2 0xE6F JUMP JUMPDEST SWAP1 POP SWAP3 SWAP2 POP POP JUMP JUMPDEST PUSH2 0xAA7 PUSH2 0xBE7 JUMP JUMPDEST PUSH20 0xFFFFFFFFFFFFFFFFFFFFFFFFFFFFFFFFFFFFFFFF AND PUSH2 0xAC5 PUSH2 0x3D7 JUMP JUMPDEST PUSH20 0xFFFFFFFFFFFFFFFFFFFFFFFFFFFFFFFFFFFFFFFF AND EQ PUSH2 0xB24 JUMPI PUSH2 0xAE8 PUSH2 0xBE7 JUMP JUMPDEST PUSH1 0x40 MLOAD PUSH32 0x118CDAA700000000000000000000000000000000000000000000000000000000 DUP2 MSTORE PUSH1 0x4 ADD PUSH2 0xB1B SWAP2 SWAP1 PUSH2 0xCCC JUMP JUMPDEST PUSH1 0x40 MLOAD DUP1 SWAP2 SUB SWAP1 REVERT JUMPDEST JUMP JUMPDEST PUSH0 DUP1 PUSH0 SWAP1 SLOAD SWAP1 PUSH2 0x100 EXP SWAP1 DIV PUSH20 0xFFFFFFFFFFFFFFFFFFFFFFFFFFFFFFFFFFFFFFFF AND SWAP1 POP DUP2 PUSH0 DUP1 PUSH2 0x100 EXP DUP2 SLOAD DUP2 PUSH20 0xFFFFFFFFFFFFFFFFFFFFFFFFFFFFFFFFFFFFFFFF MUL NOT AND SWAP1 DUP4 PUSH20 0xFFFFFFFFFFFFFFFFFFFFFFFFFFFFFFFFFFFFFFFF AND MUL OR SWAP1 SSTORE POP DUP2 PUSH20 0xFFFFFFFFFFFFFFFFFFFFFFFFFFFFFFFFFFFFFFFF AND DUP2 PUSH20 0xFFFFFFFFFFFFFFFFFFFFFFFFFFFFFFFFFFFFFFFF AND PUSH32 0x8BE0079C531659141344CD1FD0A4F28419497F9722A3DAAFE3B4186F6B6457E0 PUSH1 0x40 MLOAD PUSH1 0x40 MLOAD DUP1 SWAP2 SUB SWAP1 LOG3 POP POP JUMP JUMPDEST PUSH0 CALLER SWAP1 POP SWAP1 JUMP JUMPDEST PUSH0 DUP1 REVERT JUMPDEST PUSH0 PUSH20 0xFFFFFFFFFFFFFFFFFFFFFFFFFFFFFFFFFFFFFFFF DUP3 AND SWAP1 POP SWAP2 SWAP1 POP JUMP JUMPDEST PUSH0 PUSH2 0xC1B DUP3 PUSH2 0xBF2 JUMP JUMPDEST SWAP1 POP SWAP2 SWAP1 POP JUMP JUMPDEST PUSH2 0xC2B DUP2 PUSH2 0xC11 JUMP JUMPDEST DUP2 EQ PUSH2 0xC35 JUMPI PUSH0 DUP1 REVERT JUMPDEST POP JUMP JUMPDEST PUSH0 DUP2 CALLDATALOAD SWAP1 POP PUSH2 0xC46 DUP2 PUSH2 0xC22 JUMP JUMPDEST SWAP3 SWAP2 POP POP JUMP JUMPDEST PUSH0 DUP2 SWAP1 POP SWAP2 SWAP1 POP JUMP JUMPDEST PUSH2 0xC5E DUP2 PUSH2 0xC4C JUMP JUMPDEST DUP2 EQ PUSH2 0xC68 JUMPI PUSH0 DUP1 REVERT JUMPDEST POP JUMP JUMPDEST PUSH0 DUP2 CALLDATALOAD SWAP1 POP PUSH2 0xC79 DUP2 PUSH2 0xC55 JUMP JUMPDEST SWAP3 SWAP2 POP POP JUMP JUMPDEST PUSH0 DUP1 PUSH1 0x40 DUP4 DUP6 SUB SLT ISZERO PUSH2 0xC95 JUMPI PUSH2 0xC94 PUSH2 0xBEE JUMP JUMPDEST JUMPDEST PUSH0 PUSH2 0xCA2 DUP6 DUP3 DUP7 ADD PUSH2 0xC38 JUMP JUMPDEST SWAP3 POP POP PUSH1 0x20 PUSH2 0xCB3 DUP6 DUP3 DUP7 ADD PUSH2 0xC6B JUMP JUMPDEST SWAP2 POP POP SWAP3 POP SWAP3 SWAP1 POP JUMP JUMPDEST PUSH2 0xCC6 DUP2 PUSH2 0xC11 JUMP JUMPDEST DUP3 MSTORE POP POP JUMP JUMPDEST PUSH0 PUSH1 0x20 DUP3 ADD SWAP1 POP PUSH2 0xCDF PUSH0 DUP4 ADD DUP5 PUSH2 0xCBD JUMP JUMPDEST SWAP3 SWAP2 POP POP JUMP JUMPDEST PUSH0 DUP1 PUSH0 PUSH1 0x60 DUP5 DUP7 SUB SLT ISZERO PUSH2 0xCFC JUMPI PUSH2 0xCFB PUSH2 0xBEE JUMP JUMPDEST JUMPDEST PUSH0 PUSH2 0xD09 DUP7 DUP3 DUP8 ADD PUSH2 0xC38 JUMP JUMPDEST SWAP4 POP POP PUSH1 0x20 PUSH2 0xD1A DUP7 DUP3 DUP8 ADD PUSH2 0xC38 JUMP JUMPDEST SWAP3 POP POP PUSH1 0x40 PUSH2 0xD2B DUP7 DUP3 DUP8 ADD PUSH2 0xC6B JUMP JUMPDEST SWAP2 POP POP SWAP3 POP SWAP3 POP SWAP3 JUMP JUMPDEST PUSH2 0xD3E DUP2 PUSH2 0xC4C JUMP JUMPDEST DUP3 MSTORE POP POP JUMP JUMPDEST PUSH0 PUSH1 0x20 DUP3 ADD SWAP1 POP PUSH2 0xD57 PUSH0 DUP4 ADD DUP5 PUSH2 0xD35 JUMP JUMPDEST SWAP3 SWAP2 POP POP JUMP JUMPDEST PUSH0 DUP1 PUSH1 0x40 DUP4 DUP6 SUB SLT ISZERO PUSH2 0xD73 JUMPI PUSH2 0xD72 PUSH2 0xBEE JUMP JUMPDEST JUMPDEST PUSH0 PUSH2 0xD80 DUP6 DUP3 DUP7 ADD PUSH2 0xC38 JUMP JUMPDEST SWAP3 POP POP PUSH1 0x20 PUSH2 0xD91 DUP6 DUP3 DUP7 ADD PUSH2 0xC38 JUMP JUMPDEST SWAP2 POP POP SWAP3 POP SWAP3 SWAP1 POP JUMP JUMPDEST PUSH0 PUSH1 0x20 DUP3 DUP5 SUB SLT ISZERO PUSH2 0xDB0 JUMPI PUSH2 0xDAF PUSH2 0xBEE JUMP JUMPDEST JUMPDEST PUSH0 PUSH2 0xDBD DUP5 DUP3 DUP6 ADD PUSH2 0xC38 JUMP JUMPDEST SWAP2 POP POP SWAP3 SWAP2 POP POP JUMP JUMPDEST PUSH0 PUSH1 0x60 DUP3 ADD SWAP1 POP PUSH2 0xDD9 PUSH0 DUP4 ADD DUP7 PUSH2 0xCBD JUMP JUMPDEST PUSH2 0xDE6 PUSH1 0x20 DUP4 ADD DUP6 PUSH2 0xCBD JUMP JUMPDEST PUSH2 0xDF3 PUSH1 0x40 DUP4 ADD DUP5 PUSH2 0xD35 JUMP JUMPDEST SWAP5 SWAP4 POP POP POP POP JUMP JUMPDEST PUSH0 DUP2 ISZERO ISZERO SWAP1 POP SWAP2 SWAP1 POP JUMP JUMPDEST PUSH2 0xE0F DUP2 PUSH2 0xDFB JUMP JUMPDEST DUP2 EQ PUSH2 0xE19 JUMPI PUSH0 DUP1 REVERT JUMPDEST POP JUMP JUMPDEST PUSH0 DUP2 MLOAD SWAP1 POP PUSH2 0xE2A DUP2 PUSH2 0xE06 JUMP JUMPDEST SWAP3 SWAP2 POP POP JUMP JUMPDEST PUSH0 PUSH1 0x20 DUP3 DUP5 SUB SLT ISZERO PUSH2 0xE45 JUMPI PUSH2 0xE44 PUSH2 0xBEE JUMP JUMPDEST JUMPDEST PUSH0 PUSH2 0xE52 DUP5 DUP3 DUP6 ADD PUSH2 0xE1C JUMP JUMPDEST SWAP2 POP POP SWAP3 SWAP2 POP POP JUMP JUMPDEST PUSH0 DUP2 MLOAD SWAP1 POP PUSH2 0xE69 DUP2 PUSH2 0xC55 JUMP JUMPDEST SWAP3 SWAP2 POP POP JUMP JUMPDEST PUSH0 PUSH1 0x20 DUP3 DUP5 SUB SLT ISZERO PUSH2 0xE84 JUMPI PUSH2 0xE83 PUSH2 0xBEE JUMP JUMPDEST JUMPDEST PUSH0 PUSH2 0xE91 DUP5 DUP3 DUP6 ADD PUSH2 0xE5B JUMP JUMPDEST SWAP2 POP POP SWAP3 SWAP2 POP POP JUMP JUMPDEST PUSH32 0x4E487B7100000000000000000000000000000000000000000000000000000000 PUSH0 MSTORE PUSH1 0x11 PUSH1 0x4 MSTORE PUSH1 0x24 PUSH0 REVERT JUMPDEST PUSH0 PUSH2 0xED1 DUP3 PUSH2 0xC4C JUMP JUMPDEST SWAP2 POP PUSH2 0xEDC DUP4 PUSH2 0xC4C JUMP JUMPDEST SWAP3 POP DUP3 DUP3 MUL PUSH2 0xEEA DUP2 PUSH2 0xC4C JUMP JUMPDEST SWAP2 POP DUP3 DUP3 DIV DUP5 EQ DUP4 ISZERO OR PUSH2 0xF01 JUMPI PUSH2 0xF00 PUSH2 0xE9A JUMP JUMPDEST JUMPDEST POP SWAP3 SWAP2 POP POP JUMP JUMPDEST PUSH32 0x4E487B7100000000000000000000000000000000000000000000000000000000 PUSH0 MSTORE PUSH1 0x12 PUSH1 0x4 MSTORE PUSH1 0x24 PUSH0 REVERT JUMPDEST PUSH0 PUSH2 0xF3F DUP3 PUSH2 0xC4C JUMP JUMPDEST SWAP2 POP PUSH2 0xF4A DUP4 PUSH2 0xC4C JUMP JUMPDEST SWAP3 POP DUP3 PUSH2 0xF5A JUMPI PUSH2 0xF59 PUSH2 0xF08 JUMP JUMPDEST JUMPDEST DUP3 DUP3 DIV SWAP1 POP SWAP3 SWAP2 POP POP JUMP JUMPDEST PUSH0 DUP3 DUP3 MSTORE PUSH1 0x20 DUP3 ADD SWAP1 POP SWAP3 SWAP2 POP POP JUMP JUMPDEST PUSH32 0x496E76616C696420746F6B656E73000000000000000000000000000000000000 PUSH0 DUP3 ADD MSTORE POP JUMP JUMPDEST PUSH0 PUSH2 0xFA9 PUSH1 0xE DUP4 PUSH2 0xF65 JUMP JUMPDEST SWAP2 POP PUSH2 0xFB4 DUP3 PUSH2 0xF75 JUMP JUMPDEST PUSH1 0x20 DUP3 ADD SWAP1 POP SWAP2 SWAP1 POP JUMP JUMPDEST PUSH0 PUSH1 0x20 DUP3 ADD SWAP1 POP DUP2 DUP2 SUB PUSH0 DUP4 ADD MSTORE PUSH2 0xFD6 DUP2 PUSH2 0xF9D JUMP JUMPDEST SWAP1 POP SWAP2 SWAP1 POP JUMP JUMPDEST PUSH32 0x4E6F7420656E6F75676820746F20737761700000000000000000000000000000 PUSH0 DUP3 ADD MSTORE POP JUMP JUMPDEST PUSH0 PUSH2 0x1011 PUSH1 0x12 DUP4 PUSH2 0xF65 JUMP JUMPDEST SWAP2 POP PUSH2 0x101C DUP3 PUSH2 0xFDD JUMP JUMPDEST PUSH1 0x20 DUP3 ADD SWAP1 POP SWAP2 SWAP1 POP JUMP JUMPDEST PUSH0 PUSH1 0x20 DUP3 ADD SWAP1 POP DUP2 DUP2 SUB PUSH0 DUP4 ADD MSTORE PUSH2 0x103E DUP2 PUSH2 0x1005 JUMP JUMPDEST SWAP1 POP SWAP2 SWAP1 POP JUMP JUMPDEST PUSH0 PUSH1 0x40 DUP3 ADD SWAP1 POP PUSH2 0x1058 PUSH0 DUP4 ADD DUP6 PUSH2 0xCBD JUMP JUMPDEST PUSH2 0x1065 PUSH1 0x20 DUP4 ADD DUP5 PUSH2 0xD35 JUMP JUMPDEST SWAP4 SWAP3 POP POP POP JUMP INVALID LOG2 PUSH5 0x6970667358 0x22 SLT KECCAK256 0xAB ADD MOD 0xC8 0xC0 CHAINID SWAP14 0xEB 0xCE 0xC9 0xB2 0xF9 PUSH25 0x1D526DC3D46BF9A213DFA5D3B0C28477EED87C64736F6C6343 STOP ADDMOD EQ STOP CALLER "
				},
				"gasEstimates": {
					"creation": {
						"codeDepositCost": "851600",
						"executionCost": "infinite",
						"totalCost": "infinite"
					},
					"external": {
						"addLiquidity(address,uint256)": "infinite",
						"approve(address,uint256)": "infinite",
						"balanceOf(address,address)": "infinite",
						"getSwapPrice(address,address,uint256)": "infinite",
						"owner()": "2604",
						"renounceOwnership()": "infinite",
						"setTokens(address,address)": "infinite",
						"swap(address,address,uint256)": "infinite",
						"token1()": "2552",
						"token2()": "2531",
						"transferOwnership(address)": "infinite"
					}
				},
				"methodIdentifiers": {
					"addLiquidity(address,uint256)": "56688700",
					"approve(address,uint256)": "095ea7b3",
					"balanceOf(address,address)": "f7888aec",
					"getSwapPrice(address,address,uint256)": "bfd7e00d",
					"owner()": "8da5cb5b",
					"renounceOwnership()": "715018a6",
					"setTokens(address,address)": "cbc7854e",
					"swap(address,address,uint256)": "df791e50",
					"token1()": "d21220a7",
					"token2()": "25be124e",
					"transferOwnership(address)": "f2fde38b"
				}
			},
			"storageLayout": {
				"storage": [
					{
						"astId": 8,
						"contract": "Dex.sol:Dex",
						"label": "_owner",
						"offset": 0,
						"slot": "0",
						"type": "t_address"
					},
					{
						"astId": 942,
						"contract": "Dex.sol:Dex",
						"label": "token1",
						"offset": 0,
						"slot": "1",
						"type": "t_address"
					},
					{
						"astId": 944,
						"contract": "Dex.sol:Dex",
						"label": "token2",
						"offset": 0,
						"slot": "2",
						"type": "t_address"
					}
				],
				"types": {
					"t_address": {
						"encoding": "inplace",
						"label": "address",
						"numberOfBytes": "20"
					}
				}
			},
			"userdoc": {
				"kind": "user",
				"methods": {},
				"version": 1
			}
		}
	}
}