{
	"Dex.sol": {
		"SwappableToken": {
			"abi": [
				{
					"inputs": [
						{
							"internalType": "address",
							"name": "dexInstance",
							"type": "address"
						},
						{
							"internalType": "string",
							"name": "name",
							"type": "string"
						},
						{
							"internalType": "string",
							"name": "symbol",
							"type": "string"
						},
						{
							"internalType": "uint256",
							"name": "initialSupply",
							"type": "uint256"
						}
					],
					"stateMutability": "nonpayable",
					"type": "constructor"
				},
				{
					"inputs": [
						{
							"internalType": "address",
							"name": "spender",
							"type": "address"
						},
						{
							"internalType": "uint256",
							"name": "allowance",
							"type": "uint256"
						},
						{
							"internalType": "uint256",
							"name": "needed",
							"type": "uint256"
						}
					],
					"name": "ERC20InsufficientAllowance",
					"type": "error"
				},
				{
					"inputs": [
						{
							"internalType": "address",
							"name": "sender",
							"type": "address"
						},
						{
							"internalType": "uint256",
							"name": "balance",
							"type": "uint256"
						},
						{
							"internalType": "uint256",
							"name": "needed",
							"type": "uint256"
						}
					],
					"name": "ERC20InsufficientBalance",
					"type": "error"
				},
				{
					"inputs": [
						{
							"internalType": "address",
							"name": "approver",
							"type": "address"
						}
					],
					"name": "ERC20InvalidApprover",
					"type": "error"
				},
				{
					"inputs": [
						{
							"internalType": "address",
							"name": "receiver",
							"type": "address"
						}
					],
					"name": "ERC20InvalidReceiver",
					"type": "error"
				},
				{
					"inputs": [
						{
							"internalType": "address",
							"name": "sender",
							"type": "address"
						}
					],
					"name": "ERC20InvalidSender",
					"type": "error"
				},
				{
					"inputs": [
						{
							"internalType": "address",
							"name": "spender",
							"type": "address"
						}
					],
					"name": "ERC20InvalidSpender",
					"type": "error"
				},
				{
					"anonymous": false,
					"inputs": [
						{
							"indexed": true,
							"internalType": "address",
							"name": "owner",
							"type": "address"
						},
						{
							"indexed": true,
							"internalType": "address",
							"name": "spender",
							"type": "address"
						},
						{
							"indexed": false,
							"internalType": "uint256",
							"name": "value",
							"type": "uint256"
						}
					],
					"name": "Approval",
					"type": "event"
				},
				{
					"anonymous": false,
					"inputs": [
						{
							"indexed": true,
							"internalType": "address",
							"name": "from",
							"type": "address"
						},
						{
							"indexed": true,
							"internalType": "address",
							"name": "to",
							"type": "address"
						},
						{
							"indexed": false,
							"internalType": "uint256",
							"name": "value",
							"type": "uint256"
						}
					],
					"name": "Transfer",
					"type": "event"
				},
				{
					"inputs": [
						{
							"internalType": "address",
							"name": "owner",
							"type": "address"
						},
						{
							"internalType": "address",
							"name": "spender",
							"type": "address"
						}
					],
					"name": "allowance",
					"outputs": [
						{
							"internalType": "uint256",
							"name": "",
							"type": "uint256"
						}
					],
					"stateMutability": "view",
					"type": "function"
				},
				{
					"inputs": [
						{
							"internalType": "address",
							"name": "spender",
							"type": "address"
						},
						{
							"internalType": "uint256",
							"name": "value",
							"type": "uint256"
						}
					],
					"name": "approve",
					"outputs": [
						{
							"internalType": "bool",
							"name": "",
							"type": "bool"
						}
					],
					"stateMutability": "nonpayable",
					"type": "function"
				},
				{
					"inputs": [
						{
							"internalType": "address",
							"name": "owner",
							"type": "address"
						},
						{
							"internalType": "address",
							"name": "spender",
							"type": "address"
						},
						{
							"internalType": "uint256",
							"name": "amount",
							"type": "uint256"
						}
					],
					"name": "approve",
					"outputs": [],
					"stateMutability": "nonpayable",
					"type": "function"
				},
				{
					"inputs": [
						{
							"internalType": "address",
							"name": "account",
							"type": "address"
						}
					],
					"name": "balanceOf",
					"outputs": [
						{
							"internalType": "uint256",
							"name": "",
							"type": "uint256"
						}
					],
					"stateMutability": "view",
					"type": "function"
				},
				{
					"inputs": [],
					"name": "decimals",
					"outputs": [
						{
							"internalType": "uint8",
							"name": "",
							"type": "uint8"
						}
					],
					"stateMutability": "view",
					"type": "function"
				},
				{
					"inputs": [],
					"name": "name",
					"outputs": [
						{
							"internalType": "string",
							"name": "",
							"type": "string"
						}
					],
					"stateMutability": "view",
					"type": "function"
				},
				{
					"inputs": [],
					"name": "symbol",
					"outputs": [
						{
							"internalType": "string",
							"name": "",
							"type": "string"
						}
					],
					"stateMutability": "view",
					"type": "function"
				},
				{
					"inputs": [],
					"name": "totalSupply",
					"outputs": [
						{
							"internalType": "uint256",
							"name": "",
							"type": "uint256"
						}
					],
					"stateMutability": "view",
					"type": "function"
				},
				{
					"inputs": [
						{
							"internalType": "address",
							"name": "to",
							"type": "address"
						},
						{
							"internalType": "uint256",
							"name": "value",
							"type": "uint256"
						}
					],
					"name": "transfer",
					"outputs": [
						{
							"internalType": "bool",
							"name": "",
							"type": "bool"
						}
					],
					"stateMutability": "nonpayable",
					"type": "function"
				},
				{
					"inputs": [
						{
							"internalType": "address",
							"name": "from",
							"type": "address"
						},
						{
							"internalType": "address",
							"name": "to",
							"type": "address"
						},
						{
							"internalType": "uint256",
							"name": "value",
							"type": "uint256"
						}
					],
					"name": "transferFrom",
					"outputs": [
						{
							"internalType": "bool",
							"name": "",
							"type": "bool"
						}
					],
					"stateMutability": "nonpayable",
					"type": "function"
				}
			],
			"devdoc": {
				"errors": {
					"ERC20InsufficientAllowance(address,uint256,uint256)": [
						{
							"details": "Indicates a failure with the `spender`’s `allowance`. Used in transfers.",
							"params": {
								"allowance": "Amount of tokens a `spender` is allowed to operate with.",
								"needed": "Minimum amount required to perform a transfer.",
								"spender": "Address that may be allowed to operate on tokens without being their owner."
							}
						}
					],
					"ERC20InsufficientBalance(address,uint256,uint256)": [
						{
							"details": "Indicates an error related to the current `balance` of a `sender`. Used in transfers.",
							"params": {
								"balance": "Current balance for the interacting account.",
								"needed": "Minimum amount required to perform a transfer.",
								"sender": "Address whose tokens are being transferred."
							}
						}
					],
					"ERC20InvalidApprover(address)": [
						{
							"details": "Indicates a failure with the `approver` of a token to be approved. Used in approvals.",
							"params": {
								"approver": "Address initiating an approval operation."
							}
						}
					],
					"ERC20InvalidReceiver(address)": [
						{
							"details": "Indicates a failure with the token `receiver`. Used in transfers.",
							"params": {
								"receiver": "Address to which tokens are being transferred."
							}
						}
					],
					"ERC20InvalidSender(address)": [
						{
							"details": "Indicates a failure with the token `sender`. Used in transfers.",
							"params": {
								"sender": "Address whose tokens are being transferred."
							}
						}
					],
					"ERC20InvalidSpender(address)": [
						{
							"details": "Indicates a failure with the `spender` to be approved. Used in approvals.",
							"params": {
								"spender": "Address that may be allowed to operate on tokens without being their owner."
							}
						}
					]
				},
				"events": {
					"Approval(address,address,uint256)": {
						"details": "Emitted when the allowance of a `spender` for an `owner` is set by a call to {approve}. `value` is the new allowance."
					},
					"Transfer(address,address,uint256)": {
						"details": "Emitted when `value` tokens are moved from one account (`from`) to another (`to`). Note that `value` may be zero."
					}
				},
				"kind": "dev",
				"methods": {
					"allowance(address,address)": {
						"details": "See {IERC20-allowance}."
					},
					"approve(address,uint256)": {
						"details": "See {IERC20-approve}. NOTE: If `value` is the maximum `uint256`, the allowance is not updated on `transferFrom`. This is semantically equivalent to an infinite approval. Requirements: - `spender` cannot be the zero address."
					},
					"balanceOf(address)": {
						"details": "See {IERC20-balanceOf}."
					},
					"decimals()": {
						"details": "Returns the number of decimals used to get its user representation. For example, if `decimals` equals `2`, a balance of `505` tokens should be displayed to a user as `5.05` (`505 / 10 ** 2`). Tokens usually opt for a value of 18, imitating the relationship between Ether and Wei. This is the default value returned by this function, unless it's overridden. NOTE: This information is only used for _display_ purposes: it in no way affects any of the arithmetic of the contract, including {IERC20-balanceOf} and {IERC20-transfer}."
					},
					"name()": {
						"details": "Returns the name of the token."
					},
					"symbol()": {
						"details": "Returns the symbol of the token, usually a shorter version of the name."
					},
					"totalSupply()": {
						"details": "See {IERC20-totalSupply}."
					},
					"transfer(address,uint256)": {
						"details": "See {IERC20-transfer}. Requirements: - `to` cannot be the zero address. - the caller must have a balance of at least `value`."
					},
					"transferFrom(address,address,uint256)": {
						"details": "See {IERC20-transferFrom}. Skips emitting an {Approval} event indicating an allowance update. This is not required by the ERC. See {xref-ERC20-_approve-address-address-uint256-bool-}[_approve]. NOTE: Does not update the allowance if the current allowance is the maximum `uint256`. Requirements: - `from` and `to` cannot be the zero address. - `from` must have a balance of at least `value`. - the caller must have allowance for ``from``'s tokens of at least `value`."
					}
				},
				"version": 1
			},
			"evm": {
				"assembly": "    /* \"Dex.sol\":1794:2267  contract SwappableToken is ERC20 {... */\n  mstore(0x40, 0x80)\n    /* \"Dex.sol\":1863:2075  constructor(address dexInstance, string memory name, string memory symbol, uint256 initialSupply)... */\n  callvalue\n  dup1\n  iszero\n  tag_1\n  jumpi\n  0x00\n  dup1\n  revert\ntag_1:\n  pop\n  mload(0x40)\n  sub(codesize, bytecodeSize)\n  dup1\n  bytecodeSize\n  dup4\n  codecopy\n  dup2\n  dup2\n  add\n  0x40\n  mstore\n  dup2\n  add\n  swap1\n  tag_2\n  swap2\n  swap1\n  tag_3\n  jump\t// in\ntag_2:\n    /* \"Dex.sol\":1976:1980  name */\n  dup3\n    /* \"Dex.sol\":1982:1988  symbol */\n  dup3\n    /* \"@openzeppelin/contracts/token/ERC20/ERC20.sol\":1675:1680  name_ */\n  dup2\n    /* \"@openzeppelin/contracts/token/ERC20/ERC20.sol\":1667:1672  _name */\n  0x03\n    /* \"@openzeppelin/contracts/token/ERC20/ERC20.sol\":1667:1680  _name = name_ */\n  swap1\n  dup2\n  tag_7\n  swap2\n  swap1\n  tag_8\n  jump\t// in\ntag_7:\n  pop\n    /* \"@openzeppelin/contracts/token/ERC20/ERC20.sol\":1700:1707  symbol_ */\n  dup1\n    /* \"@openzeppelin/contracts/token/ERC20/ERC20.sol\":1690:1697  _symbol */\n  0x04\n    /* \"@openzeppelin/contracts/token/ERC20/ERC20.sol\":1690:1707  _symbol = symbol_ */\n  swap1\n  dup2\n  tag_9\n  swap2\n  swap1\n  tag_8\n  jump\t// in\ntag_9:\n  pop\n    /* \"@openzeppelin/contracts/token/ERC20/ERC20.sol\":1601:1714  constructor(string memory name_, string memory symbol_) {... */\n  pop\n  pop\n    /* \"Dex.sol\":2006:2038  _mint(msg.sender, initialSupply) */\n  tag_11\n    /* \"Dex.sol\":2012:2022  msg.sender */\n  caller\n    /* \"Dex.sol\":2024:2037  initialSupply */\n  dup3\n    /* \"Dex.sol\":2006:2011  _mint */\n  shl(0x20, tag_12)\n    /* \"Dex.sol\":2006:2038  _mint(msg.sender, initialSupply) */\n  0x20\n  shr\n  jump\t// in\ntag_11:\n    /* \"Dex.sol\":2056:2067  dexInstance */\n  dup4\n    /* \"Dex.sol\":2049:2053  _dex */\n  0x05\n  0x00\n    /* \"Dex.sol\":2049:2067  _dex = dexInstance */\n  0x0100\n  exp\n  dup2\n  sload\n  dup2\n  0xffffffffffffffffffffffffffffffffffffffff\n  mul\n  not\n  and\n  swap1\n  dup4\n  0xffffffffffffffffffffffffffffffffffffffff\n  and\n  mul\n  or\n  swap1\n  sstore\n  pop\n    /* \"Dex.sol\":1863:2075  constructor(address dexInstance, string memory name, string memory symbol, uint256 initialSupply)... */\n  pop\n  pop\n  pop\n  pop\n    /* \"Dex.sol\":1794:2267  contract SwappableToken is ERC20 {... */\n  jump(tag_13)\n    /* \"@openzeppelin/contracts/token/ERC20/ERC20.sol\":7458:7666  function _mint(address account, uint256 value) internal {... */\ntag_12:\n    /* \"@openzeppelin/contracts/token/ERC20/ERC20.sol\":7547:7548  0 */\n  0x00\n    /* \"@openzeppelin/contracts/token/ERC20/ERC20.sol\":7528:7549  account == address(0) */\n  0xffffffffffffffffffffffffffffffffffffffff\n  and\n    /* \"@openzeppelin/contracts/token/ERC20/ERC20.sol\":7528:7535  account */\n  dup3\n    /* \"@openzeppelin/contracts/token/ERC20/ERC20.sol\":7528:7549  account == address(0) */\n  0xffffffffffffffffffffffffffffffffffffffff\n  and\n  sub\n    /* \"@openzeppelin/contracts/token/ERC20/ERC20.sol\":7524:7615  if (account == address(0)) {... */\n  tag_15\n  jumpi\n    /* \"@openzeppelin/contracts/token/ERC20/ERC20.sol\":7601:7602  0 */\n  0x00\n    /* \"@openzeppelin/contracts/token/ERC20/ERC20.sol\":7572:7604  ERC20InvalidReceiver(address(0)) */\n  mload(0x40)\n  0xec442f0500000000000000000000000000000000000000000000000000000000\n  dup2\n  mstore\n  0x04\n  add\n  tag_16\n  swap2\n  swap1\n  tag_17\n  jump\t// in\ntag_16:\n  mload(0x40)\n  dup1\n  swap2\n  sub\n  swap1\n  revert\n    /* \"@openzeppelin/contracts/token/ERC20/ERC20.sol\":7524:7615  if (account == address(0)) {... */\ntag_15:\n    /* \"@openzeppelin/contracts/token/ERC20/ERC20.sol\":7624:7659  _update(address(0), account, value) */\n  tag_18\n    /* \"@openzeppelin/contracts/token/ERC20/ERC20.sol\":7640:7641  0 */\n  0x00\n    /* \"@openzeppelin/contracts/token/ERC20/ERC20.sol\":7644:7651  account */\n  dup4\n    /* \"@openzeppelin/contracts/token/ERC20/ERC20.sol\":7653:7658  value */\n  dup4\n    /* \"@openzeppelin/contracts/token/ERC20/ERC20.sol\":7624:7631  _update */\n  shl(0x20, tag_19)\n    /* \"@openzeppelin/contracts/token/ERC20/ERC20.sol\":7624:7659  _update(address(0), account, value) */\n  0x20\n  shr\n  jump\t// in\ntag_18:\n    /* \"@openzeppelin/contracts/token/ERC20/ERC20.sol\":7458:7666  function _mint(address account, uint256 value) internal {... */\n  pop\n  pop\n  jump\t// out\n    /* \"@openzeppelin/contracts/token/ERC20/ERC20.sol\":6008:7115  function _update(address from, address to, uint256 value) internal virtual {... */\ntag_19:\n    /* \"@openzeppelin/contracts/token/ERC20/ERC20.sol\":6113:6114  0 */\n  0x00\n    /* \"@openzeppelin/contracts/token/ERC20/ERC20.sol\":6097:6115  from == address(0) */\n  0xffffffffffffffffffffffffffffffffffffffff\n  and\n    /* \"@openzeppelin/contracts/token/ERC20/ERC20.sol\":6097:6101  from */\n  dup4\n    /* \"@openzeppelin/contracts/token/ERC20/ERC20.sol\":6097:6115  from == address(0) */\n  0xffffffffffffffffffffffffffffffffffffffff\n  and\n  sub\n    /* \"@openzeppelin/contracts/token/ERC20/ERC20.sol\":6093:6633  if (from == address(0)) {... */\n  tag_21\n  jumpi\n    /* \"@openzeppelin/contracts/token/ERC20/ERC20.sol\":6249:6254  value */\n  dup1\n    /* \"@openzeppelin/contracts/token/ERC20/ERC20.sol\":6233:6245  _totalSupply */\n  0x02\n  0x00\n    /* \"@openzeppelin/contracts/token/ERC20/ERC20.sol\":6233:6254  _totalSupply += value */\n  dup3\n  dup3\n  sload\n  tag_22\n  swap2\n  swap1\n  tag_23\n  jump\t// in\ntag_22:\n  swap3\n  pop\n  pop\n  dup2\n  swap1\n  sstore\n  pop\n    /* \"@openzeppelin/contracts/token/ERC20/ERC20.sol\":6093:6633  if (from == address(0)) {... */\n  jump(tag_24)\ntag_21:\n    /* \"@openzeppelin/contracts/token/ERC20/ERC20.sol\":6285:6304  uint256 fromBalance */\n  0x00\n    /* \"@openzeppelin/contracts/token/ERC20/ERC20.sol\":6307:6316  _balances */\n  dup1\n    /* \"@openzeppelin/contracts/token/ERC20/ERC20.sol\":6307:6322  _balances[from] */\n  0x00\n    /* \"@openzeppelin/contracts/token/ERC20/ERC20.sol\":6317:6321  from */\n  dup6\n    /* \"@openzeppelin/contracts/token/ERC20/ERC20.sol\":6307:6322  _balances[from] */\n  0xffffffffffffffffffffffffffffffffffffffff\n  and\n  0xffffffffffffffffffffffffffffffffffffffff\n  and\n  dup2\n  mstore\n  0x20\n  add\n  swap1\n  dup2\n  mstore\n  0x20\n  add\n  0x00\n  keccak256\n  sload\n    /* \"@openzeppelin/contracts/token/ERC20/ERC20.sol\":6285:6322  uint256 fromBalance = _balances[from] */\n  swap1\n  pop\n    /* \"@openzeppelin/contracts/token/ERC20/ERC20.sol\":6354:6359  value */\n  dup2\n    /* \"@openzeppelin/contracts/token/ERC20/ERC20.sol\":6340:6351  fromBalance */\n  dup2\n    /* \"@openzeppelin/contracts/token/ERC20/ERC20.sol\":6340:6359  fromBalance < value */\n  lt\n    /* \"@openzeppelin/contracts/token/ERC20/ERC20.sol\":6336:6451  if (fromBalance < value) {... */\n  iszero\n  tag_25\n  jumpi\n    /* \"@openzeppelin/contracts/token/ERC20/ERC20.sol\":6411:6415  from */\n  dup4\n    /* \"@openzeppelin/contracts/token/ERC20/ERC20.sol\":6417:6428  fromBalance */\n  dup2\n    /* \"@openzeppelin/contracts/token/ERC20/ERC20.sol\":6430:6435  value */\n  dup4\n    /* \"@openzeppelin/contracts/token/ERC20/ERC20.sol\":6386:6436  ERC20InsufficientBalance(from, fromBalance, value) */\n  mload(0x40)\n  0xe450d38c00000000000000000000000000000000000000000000000000000000\n  dup2\n  mstore\n  0x04\n  add\n  tag_26\n  swap4\n  swap3\n  swap2\n  swap1\n  tag_27\n  jump\t// in\ntag_26:\n  mload(0x40)\n  dup1\n  swap2\n  sub\n  swap1\n  revert\n    /* \"@openzeppelin/contracts/token/ERC20/ERC20.sol\":6336:6451  if (fromBalance < value) {... */\ntag_25:\n    /* \"@openzeppelin/contracts/token/ERC20/ERC20.sol\":6603:6608  value */\n  dup2\n    /* \"@openzeppelin/contracts/token/ERC20/ERC20.sol\":6589:6600  fromBalance */\n  dup2\n    /* \"@openzeppelin/contracts/token/ERC20/ERC20.sol\":6589:6608  fromBalance - value */\n  sub\n    /* \"@openzeppelin/contracts/token/ERC20/ERC20.sol\":6571:6580  _balances */\n  0x00\n    /* \"@openzeppelin/contracts/token/ERC20/ERC20.sol\":6571:6586  _balances[from] */\n  dup1\n    /* \"@openzeppelin/contracts/token/ERC20/ERC20.sol\":6581:6585  from */\n  dup7\n    /* \"@openzeppelin/contracts/token/ERC20/ERC20.sol\":6571:6586  _balances[from] */\n  0xffffffffffffffffffffffffffffffffffffffff\n  and\n  0xffffffffffffffffffffffffffffffffffffffff\n  and\n  dup2\n  mstore\n  0x20\n  add\n  swap1\n  dup2\n  mstore\n  0x20\n  add\n  0x00\n  keccak256\n    /* \"@openzeppelin/contracts/token/ERC20/ERC20.sol\":6571:6608  _balances[from] = fromBalance - value */\n  dup2\n  swap1\n  sstore\n  pop\n    /* \"@openzeppelin/contracts/token/ERC20/ERC20.sol\":6271:6633  {... */\n  pop\n    /* \"@openzeppelin/contracts/token/ERC20/ERC20.sol\":6093:6633  if (from == address(0)) {... */\ntag_24:\n    /* \"@openzeppelin/contracts/token/ERC20/ERC20.sol\":6661:6662  0 */\n  0x00\n    /* \"@openzeppelin/contracts/token/ERC20/ERC20.sol\":6647:6663  to == address(0) */\n  0xffffffffffffffffffffffffffffffffffffffff\n  and\n    /* \"@openzeppelin/contracts/token/ERC20/ERC20.sol\":6647:6649  to */\n  dup3\n    /* \"@openzeppelin/contracts/token/ERC20/ERC20.sol\":6647:6663  to == address(0) */\n  0xffffffffffffffffffffffffffffffffffffffff\n  and\n  sub\n    /* \"@openzeppelin/contracts/token/ERC20/ERC20.sol\":6643:7068  if (to == address(0)) {... */\n  tag_28\n  jumpi\n    /* \"@openzeppelin/contracts/token/ERC20/ERC20.sol\":6826:6831  value */\n  dup1\n    /* \"@openzeppelin/contracts/token/ERC20/ERC20.sol\":6810:6822  _totalSupply */\n  0x02\n  0x00\n    /* \"@openzeppelin/contracts/token/ERC20/ERC20.sol\":6810:6831  _totalSupply -= value */\n  dup3\n  dup3\n  sload\n  sub\n  swap3\n  pop\n  pop\n  dup2\n  swap1\n  sstore\n  pop\n    /* \"@openzeppelin/contracts/token/ERC20/ERC20.sol\":6643:7068  if (to == address(0)) {... */\n  jump(tag_29)\ntag_28:\n    /* \"@openzeppelin/contracts/token/ERC20/ERC20.sol\":7038:7043  value */\n  dup1\n    /* \"@openzeppelin/contracts/token/ERC20/ERC20.sol\":7021:7030  _balances */\n  0x00\n    /* \"@openzeppelin/contracts/token/ERC20/ERC20.sol\":7021:7034  _balances[to] */\n  dup1\n    /* \"@openzeppelin/contracts/token/ERC20/ERC20.sol\":7031:7033  to */\n  dup5\n    /* \"@openzeppelin/contracts/token/ERC20/ERC20.sol\":7021:7034  _balances[to] */\n  0xffffffffffffffffffffffffffffffffffffffff\n  and\n  0xffffffffffffffffffffffffffffffffffffffff\n  and\n  dup2\n  mstore\n  0x20\n  add\n  swap1\n  dup2\n  mstore\n  0x20\n  add\n  0x00\n  keccak256\n  0x00\n    /* \"@openzeppelin/contracts/token/ERC20/ERC20.sol\":7021:7043  _balances[to] += value */\n  dup3\n  dup3\n  sload\n  add\n  swap3\n  pop\n  pop\n  dup2\n  swap1\n  sstore\n  pop\n    /* \"@openzeppelin/contracts/token/ERC20/ERC20.sol\":6643:7068  if (to == address(0)) {... */\ntag_29:\n    /* \"@openzeppelin/contracts/token/ERC20/ERC20.sol\":7098:7100  to */\n  dup2\n    /* \"@openzeppelin/contracts/token/ERC20/ERC20.sol\":7083:7108  Transfer(from, to, value) */\n  0xffffffffffffffffffffffffffffffffffffffff\n  and\n    /* \"@openzeppelin/contracts/token/ERC20/ERC20.sol\":7092:7096  from */\n  dup4\n    /* \"@openzeppelin/contracts/token/ERC20/ERC20.sol\":7083:7108  Transfer(from, to, value) */\n  0xffffffffffffffffffffffffffffffffffffffff\n  and\n  0xddf252ad1be2c89b69c2b068fc378daa952ba7f163c4a11628f55a4df523b3ef\n    /* \"@openzeppelin/contracts/token/ERC20/ERC20.sol\":7102:7107  value */\n  dup4\n    /* \"@openzeppelin/contracts/token/ERC20/ERC20.sol\":7083:7108  Transfer(from, to, value) */\n  mload(0x40)\n  tag_30\n  swap2\n  swap1\n  tag_31\n  jump\t// in\ntag_30:\n  mload(0x40)\n  dup1\n  swap2\n  sub\n  swap1\n  log3\n    /* \"@openzeppelin/contracts/token/ERC20/ERC20.sol\":6008:7115  function _update(address from, address to, uint256 value) internal virtual {... */\n  pop\n  pop\n  pop\n  jump\t// out\n    /* \"#utility.yul\":7:82   */\ntag_32:\n    /* \"#utility.yul\":40:46   */\n  0x00\n    /* \"#utility.yul\":73:75   */\n  0x40\n    /* \"#utility.yul\":67:76   */\n  mload\n    /* \"#utility.yul\":57:76   */\n  swap1\n  pop\n    /* \"#utility.yul\":7:82   */\n  swap1\n  jump\t// out\n    /* \"#utility.yul\":88:205   */\ntag_33:\n    /* \"#utility.yul\":197:198   */\n  0x00\n    /* \"#utility.yul\":194:195   */\n  dup1\n    /* \"#utility.yul\":187:199   */\n  revert\n    /* \"#utility.yul\":211:328   */\ntag_34:\n    /* \"#utility.yul\":320:321   */\n  0x00\n    /* \"#utility.yul\":317:318   */\n  dup1\n    /* \"#utility.yul\":310:322   */\n  revert\n    /* \"#utility.yul\":334:460   */\ntag_35:\n    /* \"#utility.yul\":371:378   */\n  0x00\n    /* \"#utility.yul\":411:453   */\n  0xffffffffffffffffffffffffffffffffffffffff\n    /* \"#utility.yul\":404:409   */\n  dup3\n    /* \"#utility.yul\":400:454   */\n  and\n    /* \"#utility.yul\":389:454   */\n  swap1\n  pop\n    /* \"#utility.yul\":334:460   */\n  swap2\n  swap1\n  pop\n  jump\t// out\n    /* \"#utility.yul\":466:562   */\ntag_36:\n    /* \"#utility.yul\":503:510   */\n  0x00\n    /* \"#utility.yul\":532:556   */\n  tag_79\n    /* \"#utility.yul\":550:555   */\n  dup3\n    /* \"#utility.yul\":532:556   */\n  tag_35\n  jump\t// in\ntag_79:\n    /* \"#utility.yul\":521:556   */\n  swap1\n  pop\n    /* \"#utility.yul\":466:562   */\n  swap2\n  swap1\n  pop\n  jump\t// out\n    /* \"#utility.yul\":568:690   */\ntag_37:\n    /* \"#utility.yul\":641:665   */\n  tag_81\n    /* \"#utility.yul\":659:664   */\n  dup2\n    /* \"#utility.yul\":641:665   */\n  tag_36\n  jump\t// in\ntag_81:\n    /* \"#utility.yul\":634:639   */\n  dup2\n    /* \"#utility.yul\":631:666   */\n  eq\n    /* \"#utility.yul\":621:684   */\n  tag_82\n  jumpi\n    /* \"#utility.yul\":680:681   */\n  0x00\n    /* \"#utility.yul\":677:678   */\n  dup1\n    /* \"#utility.yul\":670:682   */\n  revert\n    /* \"#utility.yul\":621:684   */\ntag_82:\n    /* \"#utility.yul\":568:690   */\n  pop\n  jump\t// out\n    /* \"#utility.yul\":696:839   */\ntag_38:\n    /* \"#utility.yul\":753:758   */\n  0x00\n    /* \"#utility.yul\":784:790   */\n  dup2\n    /* \"#utility.yul\":778:791   */\n  mload\n    /* \"#utility.yul\":769:791   */\n  swap1\n  pop\n    /* \"#utility.yul\":800:833   */\n  tag_84\n    /* \"#utility.yul\":827:832   */\n  dup2\n    /* \"#utility.yul\":800:833   */\n  tag_37\n  jump\t// in\ntag_84:\n    /* \"#utility.yul\":696:839   */\n  swap3\n  swap2\n  pop\n  pop\n  jump\t// out\n    /* \"#utility.yul\":845:962   */\ntag_39:\n    /* \"#utility.yul\":954:955   */\n  0x00\n    /* \"#utility.yul\":951:952   */\n  dup1\n    /* \"#utility.yul\":944:956   */\n  revert\n    /* \"#utility.yul\":968:1085   */\ntag_40:\n    /* \"#utility.yul\":1077:1078   */\n  0x00\n    /* \"#utility.yul\":1074:1075   */\n  dup1\n    /* \"#utility.yul\":1067:1079   */\n  revert\n    /* \"#utility.yul\":1091:1193   */\ntag_41:\n    /* \"#utility.yul\":1132:1138   */\n  0x00\n    /* \"#utility.yul\":1183:1185   */\n  0x1f\n    /* \"#utility.yul\":1179:1186   */\n  not\n    /* \"#utility.yul\":1174:1176   */\n  0x1f\n    /* \"#utility.yul\":1167:1172   */\n  dup4\n    /* \"#utility.yul\":1163:1177   */\n  add\n    /* \"#utility.yul\":1159:1187   */\n  and\n    /* \"#utility.yul\":1149:1187   */\n  swap1\n  pop\n    /* \"#utility.yul\":1091:1193   */\n  swap2\n  swap1\n  pop\n  jump\t// out\n    /* \"#utility.yul\":1199:1379   */\ntag_42:\n    /* \"#utility.yul\":1247:1324   */\n  0x4e487b7100000000000000000000000000000000000000000000000000000000\n    /* \"#utility.yul\":1244:1245   */\n  0x00\n    /* \"#utility.yul\":1237:1325   */\n  mstore\n    /* \"#utility.yul\":1344:1348   */\n  0x41\n    /* \"#utility.yul\":1341:1342   */\n  0x04\n    /* \"#utility.yul\":1334:1349   */\n  mstore\n    /* \"#utility.yul\":1368:1372   */\n  0x24\n    /* \"#utility.yul\":1365:1366   */\n  0x00\n    /* \"#utility.yul\":1358:1373   */\n  revert\n    /* \"#utility.yul\":1385:1666   */\ntag_43:\n    /* \"#utility.yul\":1468:1495   */\n  tag_90\n    /* \"#utility.yul\":1490:1494   */\n  dup3\n    /* \"#utility.yul\":1468:1495   */\n  tag_41\n  jump\t// in\ntag_90:\n    /* \"#utility.yul\":1460:1466   */\n  dup2\n    /* \"#utility.yul\":1456:1496   */\n  add\n    /* \"#utility.yul\":1598:1604   */\n  dup2\n    /* \"#utility.yul\":1586:1596   */\n  dup2\n    /* \"#utility.yul\":1583:1605   */\n  lt\n    /* \"#utility.yul\":1562:1580   */\n  0xffffffffffffffff\n    /* \"#utility.yul\":1550:1560   */\n  dup3\n    /* \"#utility.yul\":1547:1581   */\n  gt\n    /* \"#utility.yul\":1544:1606   */\n  or\n    /* \"#utility.yul\":1541:1629   */\n  iszero\n  tag_91\n  jumpi\n    /* \"#utility.yul\":1609:1627   */\n  tag_92\n  tag_42\n  jump\t// in\ntag_92:\n    /* \"#utility.yul\":1541:1629   */\ntag_91:\n    /* \"#utility.yul\":1649:1659   */\n  dup1\n    /* \"#utility.yul\":1645:1647   */\n  0x40\n    /* \"#utility.yul\":1638:1660   */\n  mstore\n    /* \"#utility.yul\":1428:1666   */\n  pop\n    /* \"#utility.yul\":1385:1666   */\n  pop\n  pop\n  jump\t// out\n    /* \"#utility.yul\":1672:1801   */\ntag_44:\n    /* \"#utility.yul\":1706:1712   */\n  0x00\n    /* \"#utility.yul\":1733:1753   */\n  tag_94\n  tag_32\n  jump\t// in\ntag_94:\n    /* \"#utility.yul\":1723:1753   */\n  swap1\n  pop\n    /* \"#utility.yul\":1762:1795   */\n  tag_95\n    /* \"#utility.yul\":1790:1794   */\n  dup3\n    /* \"#utility.yul\":1782:1788   */\n  dup3\n    /* \"#utility.yul\":1762:1795   */\n  tag_43\n  jump\t// in\ntag_95:\n    /* \"#utility.yul\":1672:1801   */\n  swap2\n  swap1\n  pop\n  jump\t// out\n    /* \"#utility.yul\":1807:2115   */\ntag_45:\n    /* \"#utility.yul\":1869:1873   */\n  0x00\n    /* \"#utility.yul\":1959:1977   */\n  0xffffffffffffffff\n    /* \"#utility.yul\":1951:1957   */\n  dup3\n    /* \"#utility.yul\":1948:1978   */\n  gt\n    /* \"#utility.yul\":1945:2001   */\n  iszero\n  tag_97\n  jumpi\n    /* \"#utility.yul\":1981:1999   */\n  tag_98\n  tag_42\n  jump\t// in\ntag_98:\n    /* \"#utility.yul\":1945:2001   */\ntag_97:\n    /* \"#utility.yul\":2019:2048   */\n  tag_99\n    /* \"#utility.yul\":2041:2047   */\n  dup3\n    /* \"#utility.yul\":2019:2048   */\n  tag_41\n  jump\t// in\ntag_99:\n    /* \"#utility.yul\":2011:2048   */\n  swap1\n  pop\n    /* \"#utility.yul\":2103:2107   */\n  0x20\n    /* \"#utility.yul\":2097:2101   */\n  dup2\n    /* \"#utility.yul\":2093:2108   */\n  add\n    /* \"#utility.yul\":2085:2108   */\n  swap1\n  pop\n    /* \"#utility.yul\":1807:2115   */\n  swap2\n  swap1\n  pop\n  jump\t// out\n    /* \"#utility.yul\":2121:2367   */\ntag_46:\n    /* \"#utility.yul\":2202:2203   */\n  0x00\n    /* \"#utility.yul\":2212:2325   */\ntag_101:\n    /* \"#utility.yul\":2226:2232   */\n  dup4\n    /* \"#utility.yul\":2223:2224   */\n  dup2\n    /* \"#utility.yul\":2220:2233   */\n  lt\n    /* \"#utility.yul\":2212:2325   */\n  iszero\n  tag_103\n  jumpi\n    /* \"#utility.yul\":2311:2312   */\n  dup1\n    /* \"#utility.yul\":2306:2309   */\n  dup3\n    /* \"#utility.yul\":2302:2313   */\n  add\n    /* \"#utility.yul\":2296:2314   */\n  mload\n    /* \"#utility.yul\":2292:2293   */\n  dup2\n    /* \"#utility.yul\":2287:2290   */\n  dup5\n    /* \"#utility.yul\":2283:2294   */\n  add\n    /* \"#utility.yul\":2276:2315   */\n  mstore\n    /* \"#utility.yul\":2248:2250   */\n  0x20\n    /* \"#utility.yul\":2245:2246   */\n  dup2\n    /* \"#utility.yul\":2241:2251   */\n  add\n    /* \"#utility.yul\":2236:2251   */\n  swap1\n  pop\n    /* \"#utility.yul\":2212:2325   */\n  jump(tag_101)\ntag_103:\n    /* \"#utility.yul\":2359:2360   */\n  0x00\n    /* \"#utility.yul\":2350:2356   */\n  dup5\n    /* \"#utility.yul\":2345:2348   */\n  dup5\n    /* \"#utility.yul\":2341:2357   */\n  add\n    /* \"#utility.yul\":2334:2361   */\n  mstore\n    /* \"#utility.yul\":2183:2367   */\n  pop\n    /* \"#utility.yul\":2121:2367   */\n  pop\n  pop\n  pop\n  jump\t// out\n    /* \"#utility.yul\":2373:2807   */\ntag_47:\n    /* \"#utility.yul\":2462:2467   */\n  0x00\n    /* \"#utility.yul\":2487:2553   */\n  tag_105\n    /* \"#utility.yul\":2503:2552   */\n  tag_106\n    /* \"#utility.yul\":2545:2551   */\n  dup5\n    /* \"#utility.yul\":2503:2552   */\n  tag_45\n  jump\t// in\ntag_106:\n    /* \"#utility.yul\":2487:2553   */\n  tag_44\n  jump\t// in\ntag_105:\n    /* \"#utility.yul\":2478:2553   */\n  swap1\n  pop\n    /* \"#utility.yul\":2576:2582   */\n  dup3\n    /* \"#utility.yul\":2569:2574   */\n  dup2\n    /* \"#utility.yul\":2562:2583   */\n  mstore\n    /* \"#utility.yul\":2614:2618   */\n  0x20\n    /* \"#utility.yul\":2607:2612   */\n  dup2\n    /* \"#utility.yul\":2603:2619   */\n  add\n    /* \"#utility.yul\":2652:2655   */\n  dup5\n    /* \"#utility.yul\":2643:2649   */\n  dup5\n    /* \"#utility.yul\":2638:2641   */\n  dup5\n    /* \"#utility.yul\":2634:2650   */\n  add\n    /* \"#utility.yul\":2631:2656   */\n  gt\n    /* \"#utility.yul\":2628:2740   */\n  iszero\n  tag_107\n  jumpi\n    /* \"#utility.yul\":2659:2738   */\n  tag_108\n  tag_40\n  jump\t// in\ntag_108:\n    /* \"#utility.yul\":2628:2740   */\ntag_107:\n    /* \"#utility.yul\":2749:2801   */\n  tag_109\n    /* \"#utility.yul\":2794:2800   */\n  dup5\n    /* \"#utility.yul\":2789:2792   */\n  dup3\n    /* \"#utility.yul\":2784:2787   */\n  dup6\n    /* \"#utility.yul\":2749:2801   */\n  tag_46\n  jump\t// in\ntag_109:\n    /* \"#utility.yul\":2468:2807   */\n  pop\n    /* \"#utility.yul\":2373:2807   */\n  swap4\n  swap3\n  pop\n  pop\n  pop\n  jump\t// out\n    /* \"#utility.yul\":2827:3182   */\ntag_48:\n    /* \"#utility.yul\":2894:2899   */\n  0x00\n    /* \"#utility.yul\":2943:2946   */\n  dup3\n    /* \"#utility.yul\":2936:2940   */\n  0x1f\n    /* \"#utility.yul\":2928:2934   */\n  dup4\n    /* \"#utility.yul\":2924:2941   */\n  add\n    /* \"#utility.yul\":2920:2947   */\n  slt\n    /* \"#utility.yul\":2910:3032   */\n  tag_111\n  jumpi\n    /* \"#utility.yul\":2951:3030   */\n  tag_112\n  tag_39\n  jump\t// in\ntag_112:\n    /* \"#utility.yul\":2910:3032   */\ntag_111:\n    /* \"#utility.yul\":3061:3067   */\n  dup2\n    /* \"#utility.yul\":3055:3068   */\n  mload\n    /* \"#utility.yul\":3086:3176   */\n  tag_113\n    /* \"#utility.yul\":3172:3175   */\n  dup5\n    /* \"#utility.yul\":3164:3170   */\n  dup3\n    /* \"#utility.yul\":3157:3161   */\n  0x20\n    /* \"#utility.yul\":3149:3155   */\n  dup7\n    /* \"#utility.yul\":3145:3162   */\n  add\n    /* \"#utility.yul\":3086:3176   */\n  tag_47\n  jump\t// in\ntag_113:\n    /* \"#utility.yul\":3077:3176   */\n  swap2\n  pop\n    /* \"#utility.yul\":2900:3182   */\n  pop\n    /* \"#utility.yul\":2827:3182   */\n  swap3\n  swap2\n  pop\n  pop\n  jump\t// out\n    /* \"#utility.yul\":3188:3265   */\ntag_49:\n    /* \"#utility.yul\":3225:3232   */\n  0x00\n    /* \"#utility.yul\":3254:3259   */\n  dup2\n    /* \"#utility.yul\":3243:3259   */\n  swap1\n  pop\n    /* \"#utility.yul\":3188:3265   */\n  swap2\n  swap1\n  pop\n  jump\t// out\n    /* \"#utility.yul\":3271:3393   */\ntag_50:\n    /* \"#utility.yul\":3344:3368   */\n  tag_116\n    /* \"#utility.yul\":3362:3367   */\n  dup2\n    /* \"#utility.yul\":3344:3368   */\n  tag_49\n  jump\t// in\ntag_116:\n    /* \"#utility.yul\":3337:3342   */\n  dup2\n    /* \"#utility.yul\":3334:3369   */\n  eq\n    /* \"#utility.yul\":3324:3387   */\n  tag_117\n  jumpi\n    /* \"#utility.yul\":3383:3384   */\n  0x00\n    /* \"#utility.yul\":3380:3381   */\n  dup1\n    /* \"#utility.yul\":3373:3385   */\n  revert\n    /* \"#utility.yul\":3324:3387   */\ntag_117:\n    /* \"#utility.yul\":3271:3393   */\n  pop\n  jump\t// out\n    /* \"#utility.yul\":3399:3542   */\ntag_51:\n    /* \"#utility.yul\":3456:3461   */\n  0x00\n    /* \"#utility.yul\":3487:3493   */\n  dup2\n    /* \"#utility.yul\":3481:3494   */\n  mload\n    /* \"#utility.yul\":3472:3494   */\n  swap1\n  pop\n    /* \"#utility.yul\":3503:3536   */\n  tag_119\n    /* \"#utility.yul\":3530:3535   */\n  dup2\n    /* \"#utility.yul\":3503:3536   */\n  tag_50\n  jump\t// in\ntag_119:\n    /* \"#utility.yul\":3399:3542   */\n  swap3\n  swap2\n  pop\n  pop\n  jump\t// out\n    /* \"#utility.yul\":3548:4714   */\ntag_3:\n    /* \"#utility.yul\":3665:3671   */\n  0x00\n    /* \"#utility.yul\":3673:3679   */\n  dup1\n    /* \"#utility.yul\":3681:3687   */\n  0x00\n    /* \"#utility.yul\":3689:3695   */\n  dup1\n    /* \"#utility.yul\":3738:3741   */\n  0x80\n    /* \"#utility.yul\":3726:3735   */\n  dup6\n    /* \"#utility.yul\":3717:3724   */\n  dup8\n    /* \"#utility.yul\":3713:3736   */\n  sub\n    /* \"#utility.yul\":3709:3742   */\n  slt\n    /* \"#utility.yul\":3706:3826   */\n  iszero\n  tag_121\n  jumpi\n    /* \"#utility.yul\":3745:3824   */\n  tag_122\n  tag_33\n  jump\t// in\ntag_122:\n    /* \"#utility.yul\":3706:3826   */\ntag_121:\n    /* \"#utility.yul\":3865:3866   */\n  0x00\n    /* \"#utility.yul\":3890:3954   */\n  tag_123\n    /* \"#utility.yul\":3946:3953   */\n  dup8\n    /* \"#utility.yul\":3937:3943   */\n  dup3\n    /* \"#utility.yul\":3926:3935   */\n  dup9\n    /* \"#utility.yul\":3922:3944   */\n  add\n    /* \"#utility.yul\":3890:3954   */\n  tag_38\n  jump\t// in\ntag_123:\n    /* \"#utility.yul\":3880:3954   */\n  swap5\n  pop\n    /* \"#utility.yul\":3836:3964   */\n  pop\n    /* \"#utility.yul\":4024:4026   */\n  0x20\n    /* \"#utility.yul\":4013:4022   */\n  dup6\n    /* \"#utility.yul\":4009:4027   */\n  add\n    /* \"#utility.yul\":4003:4028   */\n  mload\n    /* \"#utility.yul\":4055:4073   */\n  0xffffffffffffffff\n    /* \"#utility.yul\":4047:4053   */\n  dup2\n    /* \"#utility.yul\":4044:4074   */\n  gt\n    /* \"#utility.yul\":4041:4158   */\n  iszero\n  tag_124\n  jumpi\n    /* \"#utility.yul\":4077:4156   */\n  tag_125\n  tag_34\n  jump\t// in\ntag_125:\n    /* \"#utility.yul\":4041:4158   */\ntag_124:\n    /* \"#utility.yul\":4182:4256   */\n  tag_126\n    /* \"#utility.yul\":4248:4255   */\n  dup8\n    /* \"#utility.yul\":4239:4245   */\n  dup3\n    /* \"#utility.yul\":4228:4237   */\n  dup9\n    /* \"#utility.yul\":4224:4246   */\n  add\n    /* \"#utility.yul\":4182:4256   */\n  tag_48\n  jump\t// in\ntag_126:\n    /* \"#utility.yul\":4172:4256   */\n  swap4\n  pop\n    /* \"#utility.yul\":3974:4266   */\n  pop\n    /* \"#utility.yul\":4326:4328   */\n  0x40\n    /* \"#utility.yul\":4315:4324   */\n  dup6\n    /* \"#utility.yul\":4311:4329   */\n  add\n    /* \"#utility.yul\":4305:4330   */\n  mload\n    /* \"#utility.yul\":4357:4375   */\n  0xffffffffffffffff\n    /* \"#utility.yul\":4349:4355   */\n  dup2\n    /* \"#utility.yul\":4346:4376   */\n  gt\n    /* \"#utility.yul\":4343:4460   */\n  iszero\n  tag_127\n  jumpi\n    /* \"#utility.yul\":4379:4458   */\n  tag_128\n  tag_34\n  jump\t// in\ntag_128:\n    /* \"#utility.yul\":4343:4460   */\ntag_127:\n    /* \"#utility.yul\":4484:4558   */\n  tag_129\n    /* \"#utility.yul\":4550:4557   */\n  dup8\n    /* \"#utility.yul\":4541:4547   */\n  dup3\n    /* \"#utility.yul\":4530:4539   */\n  dup9\n    /* \"#utility.yul\":4526:4548   */\n  add\n    /* \"#utility.yul\":4484:4558   */\n  tag_48\n  jump\t// in\ntag_129:\n    /* \"#utility.yul\":4474:4558   */\n  swap3\n  pop\n    /* \"#utility.yul\":4276:4568   */\n  pop\n    /* \"#utility.yul\":4607:4609   */\n  0x60\n    /* \"#utility.yul\":4633:4697   */\n  tag_130\n    /* \"#utility.yul\":4689:4696   */\n  dup8\n    /* \"#utility.yul\":4680:4686   */\n  dup3\n    /* \"#utility.yul\":4669:4678   */\n  dup9\n    /* \"#utility.yul\":4665:4687   */\n  add\n    /* \"#utility.yul\":4633:4697   */\n  tag_51\n  jump\t// in\ntag_130:\n    /* \"#utility.yul\":4623:4697   */\n  swap2\n  pop\n    /* \"#utility.yul\":4578:4707   */\n  pop\n    /* \"#utility.yul\":3548:4714   */\n  swap3\n  swap6\n  swap2\n  swap5\n  pop\n  swap3\n  pop\n  jump\t// out\n    /* \"#utility.yul\":4720:4819   */\ntag_52:\n    /* \"#utility.yul\":4772:4778   */\n  0x00\n    /* \"#utility.yul\":4806:4811   */\n  dup2\n    /* \"#utility.yul\":4800:4812   */\n  mload\n    /* \"#utility.yul\":4790:4812   */\n  swap1\n  pop\n    /* \"#utility.yul\":4720:4819   */\n  swap2\n  swap1\n  pop\n  jump\t// out\n    /* \"#utility.yul\":4825:5005   */\ntag_53:\n    /* \"#utility.yul\":4873:4950   */\n  0x4e487b7100000000000000000000000000000000000000000000000000000000\n    /* \"#utility.yul\":4870:4871   */\n  0x00\n    /* \"#utility.yul\":4863:4951   */\n  mstore\n    /* \"#utility.yul\":4970:4974   */\n  0x22\n    /* \"#utility.yul\":4967:4968   */\n  0x04\n    /* \"#utility.yul\":4960:4975   */\n  mstore\n    /* \"#utility.yul\":4994:4998   */\n  0x24\n    /* \"#utility.yul\":4991:4992   */\n  0x00\n    /* \"#utility.yul\":4984:4999   */\n  revert\n    /* \"#utility.yul\":5011:5331   */\ntag_54:\n    /* \"#utility.yul\":5055:5061   */\n  0x00\n    /* \"#utility.yul\":5092:5093   */\n  0x02\n    /* \"#utility.yul\":5086:5090   */\n  dup3\n    /* \"#utility.yul\":5082:5094   */\n  div\n    /* \"#utility.yul\":5072:5094   */\n  swap1\n  pop\n    /* \"#utility.yul\":5139:5140   */\n  0x01\n    /* \"#utility.yul\":5133:5137   */\n  dup3\n    /* \"#utility.yul\":5129:5141   */\n  and\n    /* \"#utility.yul\":5160:5178   */\n  dup1\n    /* \"#utility.yul\":5150:5231   */\n  tag_134\n  jumpi\n    /* \"#utility.yul\":5216:5220   */\n  0x7f\n    /* \"#utility.yul\":5208:5214   */\n  dup3\n    /* \"#utility.yul\":5204:5221   */\n  and\n    /* \"#utility.yul\":5194:5221   */\n  swap2\n  pop\n    /* \"#utility.yul\":5150:5231   */\ntag_134:\n    /* \"#utility.yul\":5278:5280   */\n  0x20\n    /* \"#utility.yul\":5270:5276   */\n  dup3\n    /* \"#utility.yul\":5267:5281   */\n  lt\n    /* \"#utility.yul\":5247:5265   */\n  dup2\n    /* \"#utility.yul\":5244:5282   */\n  sub\n    /* \"#utility.yul\":5241:5325   */\n  tag_135\n  jumpi\n    /* \"#utility.yul\":5297:5315   */\n  tag_136\n  tag_53\n  jump\t// in\ntag_136:\n    /* \"#utility.yul\":5241:5325   */\ntag_135:\n    /* \"#utility.yul\":5062:5331   */\n  pop\n    /* \"#utility.yul\":5011:5331   */\n  swap2\n  swap1\n  pop\n  jump\t// out\n    /* \"#utility.yul\":5337:5478   */\ntag_55:\n    /* \"#utility.yul\":5386:5390   */\n  0x00\n    /* \"#utility.yul\":5409:5412   */\n  dup2\n    /* \"#utility.yul\":5401:5412   */\n  swap1\n  pop\n    /* \"#utility.yul\":5432:5435   */\n  dup2\n    /* \"#utility.yul\":5429:5430   */\n  0x00\n    /* \"#utility.yul\":5422:5436   */\n  mstore\n    /* \"#utility.yul\":5466:5470   */\n  0x20\n    /* \"#utility.yul\":5463:5464   */\n  0x00\n    /* \"#utility.yul\":5453:5471   */\n  keccak256\n    /* \"#utility.yul\":5445:5471   */\n  swap1\n  pop\n    /* \"#utility.yul\":5337:5478   */\n  swap2\n  swap1\n  pop\n  jump\t// out\n    /* \"#utility.yul\":5484:5577   */\ntag_56:\n    /* \"#utility.yul\":5521:5527   */\n  0x00\n    /* \"#utility.yul\":5568:5570   */\n  0x20\n    /* \"#utility.yul\":5563:5565   */\n  0x1f\n    /* \"#utility.yul\":5556:5561   */\n  dup4\n    /* \"#utility.yul\":5552:5566   */\n  add\n    /* \"#utility.yul\":5548:5571   */\n  div\n    /* \"#utility.yul\":5538:5571   */\n  swap1\n  pop\n    /* \"#utility.yul\":5484:5577   */\n  swap2\n  swap1\n  pop\n  jump\t// out\n    /* \"#utility.yul\":5583:5690   */\ntag_57:\n    /* \"#utility.yul\":5627:5635   */\n  0x00\n    /* \"#utility.yul\":5677:5682   */\n  dup3\n    /* \"#utility.yul\":5671:5675   */\n  dup3\n    /* \"#utility.yul\":5667:5683   */\n  shl\n    /* \"#utility.yul\":5646:5683   */\n  swap1\n  pop\n    /* \"#utility.yul\":5583:5690   */\n  swap3\n  swap2\n  pop\n  pop\n  jump\t// out\n    /* \"#utility.yul\":5696:6089   */\ntag_58:\n    /* \"#utility.yul\":5765:5771   */\n  0x00\n    /* \"#utility.yul\":5815:5816   */\n  0x08\n    /* \"#utility.yul\":5803:5813   */\n  dup4\n    /* \"#utility.yul\":5799:5817   */\n  mul\n    /* \"#utility.yul\":5838:5935   */\n  tag_141\n    /* \"#utility.yul\":5868:5934   */\n  0xffffffffffffffffffffffffffffffffffffffffffffffffffffffffffffffff\n    /* \"#utility.yul\":5857:5866   */\n  dup3\n    /* \"#utility.yul\":5838:5935   */\n  tag_57\n  jump\t// in\ntag_141:\n    /* \"#utility.yul\":5956:5995   */\n  tag_142\n    /* \"#utility.yul\":5986:5994   */\n  dup7\n    /* \"#utility.yul\":5975:5984   */\n  dup4\n    /* \"#utility.yul\":5956:5995   */\n  tag_57\n  jump\t// in\ntag_142:\n    /* \"#utility.yul\":5944:5995   */\n  swap6\n  pop\n    /* \"#utility.yul\":6028:6032   */\n  dup1\n    /* \"#utility.yul\":6024:6033   */\n  not\n    /* \"#utility.yul\":6017:6022   */\n  dup5\n    /* \"#utility.yul\":6013:6034   */\n  and\n    /* \"#utility.yul\":6004:6034   */\n  swap4\n  pop\n    /* \"#utility.yul\":6077:6081   */\n  dup1\n    /* \"#utility.yul\":6067:6075   */\n  dup7\n    /* \"#utility.yul\":6063:6082   */\n  and\n    /* \"#utility.yul\":6056:6061   */\n  dup5\n    /* \"#utility.yul\":6053:6083   */\n  or\n    /* \"#utility.yul\":6043:6083   */\n  swap3\n  pop\n    /* \"#utility.yul\":5772:6089   */\n  pop\n  pop\n    /* \"#utility.yul\":5696:6089   */\n  swap4\n  swap3\n  pop\n  pop\n  pop\n  jump\t// out\n    /* \"#utility.yul\":6095:6155   */\ntag_59:\n    /* \"#utility.yul\":6123:6126   */\n  0x00\n    /* \"#utility.yul\":6144:6149   */\n  dup2\n    /* \"#utility.yul\":6137:6149   */\n  swap1\n  pop\n    /* \"#utility.yul\":6095:6155   */\n  swap2\n  swap1\n  pop\n  jump\t// out\n    /* \"#utility.yul\":6161:6303   */\ntag_60:\n    /* \"#utility.yul\":6211:6220   */\n  0x00\n    /* \"#utility.yul\":6244:6297   */\n  tag_145\n    /* \"#utility.yul\":6262:6296   */\n  tag_146\n    /* \"#utility.yul\":6271:6295   */\n  tag_147\n    /* \"#utility.yul\":6289:6294   */\n  dup5\n    /* \"#utility.yul\":6271:6295   */\n  tag_49\n  jump\t// in\ntag_147:\n    /* \"#utility.yul\":6262:6296   */\n  tag_59\n  jump\t// in\ntag_146:\n    /* \"#utility.yul\":6244:6297   */\n  tag_49\n  jump\t// in\ntag_145:\n    /* \"#utility.yul\":6231:6297   */\n  swap1\n  pop\n    /* \"#utility.yul\":6161:6303   */\n  swap2\n  swap1\n  pop\n  jump\t// out\n    /* \"#utility.yul\":6309:6384   */\ntag_61:\n    /* \"#utility.yul\":6352:6355   */\n  0x00\n    /* \"#utility.yul\":6373:6378   */\n  dup2\n    /* \"#utility.yul\":6366:6378   */\n  swap1\n  pop\n    /* \"#utility.yul\":6309:6384   */\n  swap2\n  swap1\n  pop\n  jump\t// out\n    /* \"#utility.yul\":6390:6659   */\ntag_62:\n    /* \"#utility.yul\":6500:6539   */\n  tag_150\n    /* \"#utility.yul\":6531:6538   */\n  dup4\n    /* \"#utility.yul\":6500:6539   */\n  tag_60\n  jump\t// in\ntag_150:\n    /* \"#utility.yul\":6561:6652   */\n  tag_151\n    /* \"#utility.yul\":6610:6651   */\n  tag_152\n    /* \"#utility.yul\":6634:6650   */\n  dup3\n    /* \"#utility.yul\":6610:6651   */\n  tag_61\n  jump\t// in\ntag_152:\n    /* \"#utility.yul\":6602:6608   */\n  dup5\n    /* \"#utility.yul\":6595:6599   */\n  dup5\n    /* \"#utility.yul\":6589:6600   */\n  sload\n    /* \"#utility.yul\":6561:6652   */\n  tag_58\n  jump\t// in\ntag_151:\n    /* \"#utility.yul\":6555:6559   */\n  dup3\n    /* \"#utility.yul\":6548:6653   */\n  sstore\n    /* \"#utility.yul\":6466:6659   */\n  pop\n    /* \"#utility.yul\":6390:6659   */\n  pop\n  pop\n  pop\n  jump\t// out\n    /* \"#utility.yul\":6665:6738   */\ntag_63:\n    /* \"#utility.yul\":6710:6713   */\n  0x00\n    /* \"#utility.yul\":6665:6738   */\n  swap1\n  jump\t// out\n    /* \"#utility.yul\":6744:6933   */\ntag_64:\n    /* \"#utility.yul\":6821:6853   */\n  tag_155\n  tag_63\n  jump\t// in\ntag_155:\n    /* \"#utility.yul\":6862:6927   */\n  tag_156\n    /* \"#utility.yul\":6920:6926   */\n  dup2\n    /* \"#utility.yul\":6912:6918   */\n  dup5\n    /* \"#utility.yul\":6906:6910   */\n  dup5\n    /* \"#utility.yul\":6862:6927   */\n  tag_62\n  jump\t// in\ntag_156:\n    /* \"#utility.yul\":6797:6933   */\n  pop\n    /* \"#utility.yul\":6744:6933   */\n  pop\n  pop\n  jump\t// out\n    /* \"#utility.yul\":6939:7125   */\ntag_65:\n    /* \"#utility.yul\":6999:7119   */\ntag_158:\n    /* \"#utility.yul\":7016:7019   */\n  dup2\n    /* \"#utility.yul\":7009:7014   */\n  dup2\n    /* \"#utility.yul\":7006:7020   */\n  lt\n    /* \"#utility.yul\":6999:7119   */\n  iszero\n  tag_160\n  jumpi\n    /* \"#utility.yul\":7070:7109   */\n  tag_161\n    /* \"#utility.yul\":7107:7108   */\n  0x00\n    /* \"#utility.yul\":7100:7105   */\n  dup3\n    /* \"#utility.yul\":7070:7109   */\n  tag_64\n  jump\t// in\ntag_161:\n    /* \"#utility.yul\":7043:7044   */\n  0x01\n    /* \"#utility.yul\":7036:7041   */\n  dup2\n    /* \"#utility.yul\":7032:7045   */\n  add\n    /* \"#utility.yul\":7023:7045   */\n  swap1\n  pop\n    /* \"#utility.yul\":6999:7119   */\n  jump(tag_158)\ntag_160:\n    /* \"#utility.yul\":6939:7125   */\n  pop\n  pop\n  jump\t// out\n    /* \"#utility.yul\":7131:7674   */\ntag_66:\n    /* \"#utility.yul\":7232:7234   */\n  0x1f\n    /* \"#utility.yul\":7227:7230   */\n  dup3\n    /* \"#utility.yul\":7224:7235   */\n  gt\n    /* \"#utility.yul\":7221:7667   */\n  iszero\n  tag_163\n  jumpi\n    /* \"#utility.yul\":7266:7304   */\n  tag_164\n    /* \"#utility.yul\":7298:7303   */\n  dup2\n    /* \"#utility.yul\":7266:7304   */\n  tag_55\n  jump\t// in\ntag_164:\n    /* \"#utility.yul\":7350:7379   */\n  tag_165\n    /* \"#utility.yul\":7368:7378   */\n  dup5\n    /* \"#utility.yul\":7350:7379   */\n  tag_56\n  jump\t// in\ntag_165:\n    /* \"#utility.yul\":7340:7348   */\n  dup2\n    /* \"#utility.yul\":7336:7380   */\n  add\n    /* \"#utility.yul\":7533:7535   */\n  0x20\n    /* \"#utility.yul\":7521:7531   */\n  dup6\n    /* \"#utility.yul\":7518:7536   */\n  lt\n    /* \"#utility.yul\":7515:7564   */\n  iszero\n  tag_166\n  jumpi\n    /* \"#utility.yul\":7554:7562   */\n  dup2\n    /* \"#utility.yul\":7539:7562   */\n  swap1\n  pop\n    /* \"#utility.yul\":7515:7564   */\ntag_166:\n    /* \"#utility.yul\":7577:7657   */\n  tag_167\n    /* \"#utility.yul\":7633:7655   */\n  tag_168\n    /* \"#utility.yul\":7651:7654   */\n  dup6\n    /* \"#utility.yul\":7633:7655   */\n  tag_56\n  jump\t// in\ntag_168:\n    /* \"#utility.yul\":7623:7631   */\n  dup4\n    /* \"#utility.yul\":7619:7656   */\n  add\n    /* \"#utility.yul\":7606:7617   */\n  dup3\n    /* \"#utility.yul\":7577:7657   */\n  tag_65\n  jump\t// in\ntag_167:\n    /* \"#utility.yul\":7236:7667   */\n  pop\n  pop\n    /* \"#utility.yul\":7221:7667   */\ntag_163:\n    /* \"#utility.yul\":7131:7674   */\n  pop\n  pop\n  pop\n  jump\t// out\n    /* \"#utility.yul\":7680:7797   */\ntag_67:\n    /* \"#utility.yul\":7734:7742   */\n  0x00\n    /* \"#utility.yul\":7784:7789   */\n  dup3\n    /* \"#utility.yul\":7778:7782   */\n  dup3\n    /* \"#utility.yul\":7774:7790   */\n  shr\n    /* \"#utility.yul\":7753:7790   */\n  swap1\n  pop\n    /* \"#utility.yul\":7680:7797   */\n  swap3\n  swap2\n  pop\n  pop\n  jump\t// out\n    /* \"#utility.yul\":7803:7972   */\ntag_68:\n    /* \"#utility.yul\":7847:7853   */\n  0x00\n    /* \"#utility.yul\":7880:7931   */\n  tag_171\n    /* \"#utility.yul\":7928:7929   */\n  0x00\n    /* \"#utility.yul\":7924:7930   */\n  not\n    /* \"#utility.yul\":7916:7921   */\n  dup5\n    /* \"#utility.yul\":7913:7914   */\n  0x08\n    /* \"#utility.yul\":7909:7922   */\n  mul\n    /* \"#utility.yul\":7880:7931   */\n  tag_67\n  jump\t// in\ntag_171:\n    /* \"#utility.yul\":7876:7932   */\n  not\n    /* \"#utility.yul\":7961:7965   */\n  dup1\n    /* \"#utility.yul\":7955:7959   */\n  dup4\n    /* \"#utility.yul\":7951:7966   */\n  and\n    /* \"#utility.yul\":7941:7966   */\n  swap2\n  pop\n    /* \"#utility.yul\":7854:7972   */\n  pop\n    /* \"#utility.yul\":7803:7972   */\n  swap3\n  swap2\n  pop\n  pop\n  jump\t// out\n    /* \"#utility.yul\":7977:8272   */\ntag_69:\n    /* \"#utility.yul\":8053:8057   */\n  0x00\n    /* \"#utility.yul\":8199:8228   */\n  tag_173\n    /* \"#utility.yul\":8224:8227   */\n  dup4\n    /* \"#utility.yul\":8218:8222   */\n  dup4\n    /* \"#utility.yul\":8199:8228   */\n  tag_68\n  jump\t// in\ntag_173:\n    /* \"#utility.yul\":8191:8228   */\n  swap2\n  pop\n    /* \"#utility.yul\":8261:8264   */\n  dup3\n    /* \"#utility.yul\":8258:8259   */\n  0x02\n    /* \"#utility.yul\":8254:8265   */\n  mul\n    /* \"#utility.yul\":8248:8252   */\n  dup3\n    /* \"#utility.yul\":8245:8266   */\n  or\n    /* \"#utility.yul\":8237:8266   */\n  swap1\n  pop\n    /* \"#utility.yul\":7977:8272   */\n  swap3\n  swap2\n  pop\n  pop\n  jump\t// out\n    /* \"#utility.yul\":8277:9672   */\ntag_8:\n    /* \"#utility.yul\":8394:8431   */\n  tag_175\n    /* \"#utility.yul\":8427:8430   */\n  dup3\n    /* \"#utility.yul\":8394:8431   */\n  tag_52\n  jump\t// in\ntag_175:\n    /* \"#utility.yul\":8496:8514   */\n  0xffffffffffffffff\n    /* \"#utility.yul\":8488:8494   */\n  dup2\n    /* \"#utility.yul\":8485:8515   */\n  gt\n    /* \"#utility.yul\":8482:8538   */\n  iszero\n  tag_176\n  jumpi\n    /* \"#utility.yul\":8518:8536   */\n  tag_177\n  tag_42\n  jump\t// in\ntag_177:\n    /* \"#utility.yul\":8482:8538   */\ntag_176:\n    /* \"#utility.yul\":8562:8600   */\n  tag_178\n    /* \"#utility.yul\":8594:8598   */\n  dup3\n    /* \"#utility.yul\":8588:8599   */\n  sload\n    /* \"#utility.yul\":8562:8600   */\n  tag_54\n  jump\t// in\ntag_178:\n    /* \"#utility.yul\":8647:8714   */\n  tag_179\n    /* \"#utility.yul\":8707:8713   */\n  dup3\n    /* \"#utility.yul\":8699:8705   */\n  dup3\n    /* \"#utility.yul\":8693:8697   */\n  dup6\n    /* \"#utility.yul\":8647:8714   */\n  tag_66\n  jump\t// in\ntag_179:\n    /* \"#utility.yul\":8741:8742   */\n  0x00\n    /* \"#utility.yul\":8765:8769   */\n  0x20\n    /* \"#utility.yul\":8752:8769   */\n  swap1\n  pop\n    /* \"#utility.yul\":8797:8799   */\n  0x1f\n    /* \"#utility.yul\":8789:8795   */\n  dup4\n    /* \"#utility.yul\":8786:8800   */\n  gt\n    /* \"#utility.yul\":8814:8815   */\n  0x01\n    /* \"#utility.yul\":8809:9427   */\n  dup2\n  eq\n  tag_181\n  jumpi\n    /* \"#utility.yul\":9471:9472   */\n  0x00\n    /* \"#utility.yul\":9488:9494   */\n  dup5\n    /* \"#utility.yul\":9485:9562   */\n  iszero\n  tag_182\n  jumpi\n    /* \"#utility.yul\":9537:9546   */\n  dup3\n    /* \"#utility.yul\":9532:9535   */\n  dup8\n    /* \"#utility.yul\":9528:9547   */\n  add\n    /* \"#utility.yul\":9522:9548   */\n  mload\n    /* \"#utility.yul\":9513:9548   */\n  swap1\n  pop\n    /* \"#utility.yul\":9485:9562   */\ntag_182:\n    /* \"#utility.yul\":9588:9655   */\n  tag_183\n    /* \"#utility.yul\":9648:9654   */\n  dup6\n    /* \"#utility.yul\":9641:9646   */\n  dup3\n    /* \"#utility.yul\":9588:9655   */\n  tag_69\n  jump\t// in\ntag_183:\n    /* \"#utility.yul\":9582:9586   */\n  dup7\n    /* \"#utility.yul\":9575:9656   */\n  sstore\n    /* \"#utility.yul\":9444:9666   */\n  pop\n    /* \"#utility.yul\":8779:9666   */\n  jump(tag_180)\n    /* \"#utility.yul\":8809:9427   */\ntag_181:\n    /* \"#utility.yul\":8861:8865   */\n  0x1f\n    /* \"#utility.yul\":8857:8866   */\n  not\n    /* \"#utility.yul\":8849:8855   */\n  dup5\n    /* \"#utility.yul\":8845:8867   */\n  and\n    /* \"#utility.yul\":8895:8932   */\n  tag_184\n    /* \"#utility.yul\":8927:8931   */\n  dup7\n    /* \"#utility.yul\":8895:8932   */\n  tag_55\n  jump\t// in\ntag_184:\n    /* \"#utility.yul\":8954:8955   */\n  0x00\n    /* \"#utility.yul\":8968:9176   */\ntag_185:\n    /* \"#utility.yul\":8982:8989   */\n  dup3\n    /* \"#utility.yul\":8979:8980   */\n  dup2\n    /* \"#utility.yul\":8976:8990   */\n  lt\n    /* \"#utility.yul\":8968:9176   */\n  iszero\n  tag_187\n  jumpi\n    /* \"#utility.yul\":9061:9070   */\n  dup5\n    /* \"#utility.yul\":9056:9059   */\n  dup10\n    /* \"#utility.yul\":9052:9071   */\n  add\n    /* \"#utility.yul\":9046:9072   */\n  mload\n    /* \"#utility.yul\":9038:9044   */\n  dup3\n    /* \"#utility.yul\":9031:9073   */\n  sstore\n    /* \"#utility.yul\":9112:9113   */\n  0x01\n    /* \"#utility.yul\":9104:9110   */\n  dup3\n    /* \"#utility.yul\":9100:9114   */\n  add\n    /* \"#utility.yul\":9090:9114   */\n  swap2\n  pop\n    /* \"#utility.yul\":9159:9161   */\n  0x20\n    /* \"#utility.yul\":9148:9157   */\n  dup6\n    /* \"#utility.yul\":9144:9162   */\n  add\n    /* \"#utility.yul\":9131:9162   */\n  swap5\n  pop\n    /* \"#utility.yul\":9005:9009   */\n  0x20\n    /* \"#utility.yul\":9002:9003   */\n  dup2\n    /* \"#utility.yul\":8998:9010   */\n  add\n    /* \"#utility.yul\":8993:9010   */\n  swap1\n  pop\n    /* \"#utility.yul\":8968:9176   */\n  jump(tag_185)\ntag_187:\n    /* \"#utility.yul\":9204:9210   */\n  dup7\n    /* \"#utility.yul\":9195:9202   */\n  dup4\n    /* \"#utility.yul\":9192:9211   */\n  lt\n    /* \"#utility.yul\":9189:9368   */\n  iszero\n  tag_188\n  jumpi\n    /* \"#utility.yul\":9262:9271   */\n  dup5\n    /* \"#utility.yul\":9257:9260   */\n  dup10\n    /* \"#utility.yul\":9253:9272   */\n  add\n    /* \"#utility.yul\":9247:9273   */\n  mload\n    /* \"#utility.yul\":9305:9353   */\n  tag_189\n    /* \"#utility.yul\":9347:9351   */\n  0x1f\n    /* \"#utility.yul\":9339:9345   */\n  dup10\n    /* \"#utility.yul\":9335:9352   */\n  and\n    /* \"#utility.yul\":9324:9333   */\n  dup3\n    /* \"#utility.yul\":9305:9353   */\n  tag_68\n  jump\t// in\ntag_189:\n    /* \"#utility.yul\":9297:9303   */\n  dup4\n    /* \"#utility.yul\":9290:9354   */\n  sstore\n    /* \"#utility.yul\":9212:9368   */\n  pop\n    /* \"#utility.yul\":9189:9368   */\ntag_188:\n    /* \"#utility.yul\":9414:9415   */\n  0x01\n    /* \"#utility.yul\":9410:9411   */\n  0x02\n    /* \"#utility.yul\":9402:9408   */\n  dup9\n    /* \"#utility.yul\":9398:9412   */\n  mul\n    /* \"#utility.yul\":9394:9416   */\n  add\n    /* \"#utility.yul\":9388:9392   */\n  dup9\n    /* \"#utility.yul\":9381:9417   */\n  sstore\n    /* \"#utility.yul\":8816:9427   */\n  pop\n  pop\n  pop\n    /* \"#utility.yul\":8779:9666   */\ntag_180:\n  pop\n    /* \"#utility.yul\":8369:9672   */\n  pop\n  pop\n  pop\n    /* \"#utility.yul\":8277:9672   */\n  pop\n  pop\n  jump\t// out\n    /* \"#utility.yul\":9678:9796   */\ntag_70:\n    /* \"#utility.yul\":9765:9789   */\n  tag_191\n    /* \"#utility.yul\":9783:9788   */\n  dup2\n    /* \"#utility.yul\":9765:9789   */\n  tag_36\n  jump\t// in\ntag_191:\n    /* \"#utility.yul\":9760:9763   */\n  dup3\n    /* \"#utility.yul\":9753:9790   */\n  mstore\n    /* \"#utility.yul\":9678:9796   */\n  pop\n  pop\n  jump\t// out\n    /* \"#utility.yul\":9802:10024   */\ntag_17:\n    /* \"#utility.yul\":9895:9899   */\n  0x00\n    /* \"#utility.yul\":9933:9935   */\n  0x20\n    /* \"#utility.yul\":9922:9931   */\n  dup3\n    /* \"#utility.yul\":9918:9936   */\n  add\n    /* \"#utility.yul\":9910:9936   */\n  swap1\n  pop\n    /* \"#utility.yul\":9946:10017   */\n  tag_193\n    /* \"#utility.yul\":10014:10015   */\n  0x00\n    /* \"#utility.yul\":10003:10012   */\n  dup4\n    /* \"#utility.yul\":9999:10016   */\n  add\n    /* \"#utility.yul\":9990:9996   */\n  dup5\n    /* \"#utility.yul\":9946:10017   */\n  tag_70\n  jump\t// in\ntag_193:\n    /* \"#utility.yul\":9802:10024   */\n  swap3\n  swap2\n  pop\n  pop\n  jump\t// out\n    /* \"#utility.yul\":10030:10210   */\ntag_71:\n    /* \"#utility.yul\":10078:10155   */\n  0x4e487b7100000000000000000000000000000000000000000000000000000000\n    /* \"#utility.yul\":10075:10076   */\n  0x00\n    /* \"#utility.yul\":10068:10156   */\n  mstore\n    /* \"#utility.yul\":10175:10179   */\n  0x11\n    /* \"#utility.yul\":10172:10173   */\n  0x04\n    /* \"#utility.yul\":10165:10180   */\n  mstore\n    /* \"#utility.yul\":10199:10203   */\n  0x24\n    /* \"#utility.yul\":10196:10197   */\n  0x00\n    /* \"#utility.yul\":10189:10204   */\n  revert\n    /* \"#utility.yul\":10216:10407   */\ntag_23:\n    /* \"#utility.yul\":10256:10259   */\n  0x00\n    /* \"#utility.yul\":10275:10295   */\n  tag_196\n    /* \"#utility.yul\":10293:10294   */\n  dup3\n    /* \"#utility.yul\":10275:10295   */\n  tag_49\n  jump\t// in\ntag_196:\n    /* \"#utility.yul\":10270:10295   */\n  swap2\n  pop\n    /* \"#utility.yul\":10309:10329   */\n  tag_197\n    /* \"#utility.yul\":10327:10328   */\n  dup4\n    /* \"#utility.yul\":10309:10329   */\n  tag_49\n  jump\t// in\ntag_197:\n    /* \"#utility.yul\":10304:10329   */\n  swap3\n  pop\n    /* \"#utility.yul\":10352:10353   */\n  dup3\n    /* \"#utility.yul\":10349:10350   */\n  dup3\n    /* \"#utility.yul\":10345:10354   */\n  add\n    /* \"#utility.yul\":10338:10354   */\n  swap1\n  pop\n    /* \"#utility.yul\":10373:10376   */\n  dup1\n    /* \"#utility.yul\":10370:10371   */\n  dup3\n    /* \"#utility.yul\":10367:10377   */\n  gt\n    /* \"#utility.yul\":10364:10400   */\n  iszero\n  tag_198\n  jumpi\n    /* \"#utility.yul\":10380:10398   */\n  tag_199\n  tag_71\n  jump\t// in\ntag_199:\n    /* \"#utility.yul\":10364:10400   */\ntag_198:\n    /* \"#utility.yul\":10216:10407   */\n  swap3\n  swap2\n  pop\n  pop\n  jump\t// out\n    /* \"#utility.yul\":10413:10531   */\ntag_72:\n    /* \"#utility.yul\":10500:10524   */\n  tag_201\n    /* \"#utility.yul\":10518:10523   */\n  dup2\n    /* \"#utility.yul\":10500:10524   */\n  tag_49\n  jump\t// in\ntag_201:\n    /* \"#utility.yul\":10495:10498   */\n  dup3\n    /* \"#utility.yul\":10488:10525   */\n  mstore\n    /* \"#utility.yul\":10413:10531   */\n  pop\n  pop\n  jump\t// out\n    /* \"#utility.yul\":10537:10979   */\ntag_27:\n    /* \"#utility.yul\":10686:10690   */\n  0x00\n    /* \"#utility.yul\":10724:10726   */\n  0x60\n    /* \"#utility.yul\":10713:10722   */\n  dup3\n    /* \"#utility.yul\":10709:10727   */\n  add\n    /* \"#utility.yul\":10701:10727   */\n  swap1\n  pop\n    /* \"#utility.yul\":10737:10808   */\n  tag_203\n    /* \"#utility.yul\":10805:10806   */\n  0x00\n    /* \"#utility.yul\":10794:10803   */\n  dup4\n    /* \"#utility.yul\":10790:10807   */\n  add\n    /* \"#utility.yul\":10781:10787   */\n  dup7\n    /* \"#utility.yul\":10737:10808   */\n  tag_70\n  jump\t// in\ntag_203:\n    /* \"#utility.yul\":10818:10890   */\n  tag_204\n    /* \"#utility.yul\":10886:10888   */\n  0x20\n    /* \"#utility.yul\":10875:10884   */\n  dup4\n    /* \"#utility.yul\":10871:10889   */\n  add\n    /* \"#utility.yul\":10862:10868   */\n  dup6\n    /* \"#utility.yul\":10818:10890   */\n  tag_72\n  jump\t// in\ntag_204:\n    /* \"#utility.yul\":10900:10972   */\n  tag_205\n    /* \"#utility.yul\":10968:10970   */\n  0x40\n    /* \"#utility.yul\":10957:10966   */\n  dup4\n    /* \"#utility.yul\":10953:10971   */\n  add\n    /* \"#utility.yul\":10944:10950   */\n  dup5\n    /* \"#utility.yul\":10900:10972   */\n  tag_72\n  jump\t// in\ntag_205:\n    /* \"#utility.yul\":10537:10979   */\n  swap5\n  swap4\n  pop\n  pop\n  pop\n  pop\n  jump\t// out\n    /* \"#utility.yul\":10985:11207   */\ntag_31:\n    /* \"#utility.yul\":11078:11082   */\n  0x00\n    /* \"#utility.yul\":11116:11118   */\n  0x20\n    /* \"#utility.yul\":11105:11114   */\n  dup3\n    /* \"#utility.yul\":11101:11119   */\n  add\n    /* \"#utility.yul\":11093:11119   */\n  swap1\n  pop\n    /* \"#utility.yul\":11129:11200   */\n  tag_207\n    /* \"#utility.yul\":11197:11198   */\n  0x00\n    /* \"#utility.yul\":11186:11195   */\n  dup4\n    /* \"#utility.yul\":11182:11199   */\n  add\n    /* \"#utility.yul\":11173:11179   */\n  dup5\n    /* \"#utility.yul\":11129:11200   */\n  tag_72\n  jump\t// in\ntag_207:\n    /* \"#utility.yul\":10985:11207   */\n  swap3\n  swap2\n  pop\n  pop\n  jump\t// out\n    /* \"Dex.sol\":1794:2267  contract SwappableToken is ERC20 {... */\ntag_13:\n  dataSize(sub_0)\n  dup1\n  dataOffset(sub_0)\n  0x00\n  codecopy\n  0x00\n  return\nstop\n\nsub_0: assembly {\n        /* \"Dex.sol\":1794:2267  contract SwappableToken is ERC20 {... */\n      mstore(0x40, 0x80)\n      callvalue\n      dup1\n      iszero\n      tag_1\n      jumpi\n      0x00\n      dup1\n      revert\n    tag_1:\n      pop\n      jumpi(tag_2, lt(calldatasize, 0x04))\n      shr(0xe0, calldataload(0x00))\n      dup1\n      0x70a08231\n      gt\n      tag_13\n      jumpi\n      dup1\n      0x70a08231\n      eq\n      tag_8\n      jumpi\n      dup1\n      0x95d89b41\n      eq\n      tag_9\n      jumpi\n      dup1\n      0xa9059cbb\n      eq\n      tag_10\n      jumpi\n      dup1\n      0xdd62ed3e\n      eq\n      tag_11\n      jumpi\n      dup1\n      0xe1f21c67\n      eq\n      tag_12\n      jumpi\n      jump(tag_2)\n    tag_13:\n      dup1\n      0x06fdde03\n      eq\n      tag_3\n      jumpi\n      dup1\n      0x095ea7b3\n      eq\n      tag_4\n      jumpi\n      dup1\n      0x18160ddd\n      eq\n      tag_5\n      jumpi\n      dup1\n      0x23b872dd\n      eq\n      tag_6\n      jumpi\n      dup1\n      0x313ce567\n      eq\n      tag_7\n      jumpi\n    tag_2:\n      0x00\n      dup1\n      revert\n        /* \"@openzeppelin/contracts/token/ERC20/ERC20.sol\":1779:1868  function name() public view virtual returns (string memory) {... */\n    tag_3:\n      tag_14\n      tag_15\n      jump\t// in\n    tag_14:\n      mload(0x40)\n      tag_16\n      swap2\n      swap1\n      tag_17\n      jump\t// in\n    tag_16:\n      mload(0x40)\n      dup1\n      swap2\n      sub\n      swap1\n      return\n        /* \"@openzeppelin/contracts/token/ERC20/ERC20.sol\":3998:4184  function approve(address spender, uint256 value) public virtual returns (bool) {... */\n    tag_4:\n      tag_18\n      0x04\n      dup1\n      calldatasize\n      sub\n      dup2\n      add\n      swap1\n      tag_19\n      swap2\n      swap1\n      tag_20\n      jump\t// in\n    tag_19:\n      tag_21\n      jump\t// in\n    tag_18:\n      mload(0x40)\n      tag_22\n      swap2\n      swap1\n      tag_23\n      jump\t// in\n    tag_22:\n      mload(0x40)\n      dup1\n      swap2\n      sub\n      swap1\n      return\n        /* \"@openzeppelin/contracts/token/ERC20/ERC20.sol\":2849:2946  function totalSupply() public view virtual returns (uint256) {... */\n    tag_5:\n      tag_24\n      tag_25\n      jump\t// in\n    tag_24:\n      mload(0x40)\n      tag_26\n      swap2\n      swap1\n      tag_27\n      jump\t// in\n    tag_26:\n      mload(0x40)\n      dup1\n      swap2\n      sub\n      swap1\n      return\n        /* \"@openzeppelin/contracts/token/ERC20/ERC20.sol\":4776:5020  function transferFrom(address from, address to, uint256 value) public virtual returns (bool) {... */\n    tag_6:\n      tag_28\n      0x04\n      dup1\n      calldatasize\n      sub\n      dup2\n      add\n      swap1\n      tag_29\n      swap2\n      swap1\n      tag_30\n      jump\t// in\n    tag_29:\n      tag_31\n      jump\t// in\n    tag_28:\n      mload(0x40)\n      tag_32\n      swap2\n      swap1\n      tag_23\n      jump\t// in\n    tag_32:\n      mload(0x40)\n      dup1\n      swap2\n      sub\n      swap1\n      return\n        /* \"@openzeppelin/contracts/token/ERC20/ERC20.sol\":2707:2789  function decimals() public view virtual returns (uint8) {... */\n    tag_7:\n      tag_33\n      tag_34\n      jump\t// in\n    tag_33:\n      mload(0x40)\n      tag_35\n      swap2\n      swap1\n      tag_36\n      jump\t// in\n    tag_35:\n      mload(0x40)\n      dup1\n      swap2\n      sub\n      swap1\n      return\n        /* \"@openzeppelin/contracts/token/ERC20/ERC20.sol\":3004:3120  function balanceOf(address account) public view virtual returns (uint256) {... */\n    tag_8:\n      tag_37\n      0x04\n      dup1\n      calldatasize\n      sub\n      dup2\n      add\n      swap1\n      tag_38\n      swap2\n      swap1\n      tag_39\n      jump\t// in\n    tag_38:\n      tag_40\n      jump\t// in\n    tag_37:\n      mload(0x40)\n      tag_41\n      swap2\n      swap1\n      tag_27\n      jump\t// in\n    tag_41:\n      mload(0x40)\n      dup1\n      swap2\n      sub\n      swap1\n      return\n        /* \"@openzeppelin/contracts/token/ERC20/ERC20.sol\":1981:2074  function symbol() public view virtual returns (string memory) {... */\n    tag_9:\n      tag_42\n      tag_43\n      jump\t// in\n    tag_42:\n      mload(0x40)\n      tag_44\n      swap2\n      swap1\n      tag_17\n      jump\t// in\n    tag_44:\n      mload(0x40)\n      dup1\n      swap2\n      sub\n      swap1\n      return\n        /* \"@openzeppelin/contracts/token/ERC20/ERC20.sol\":3315:3493  function transfer(address to, uint256 value) public virtual returns (bool) {... */\n    tag_10:\n      tag_45\n      0x04\n      dup1\n      calldatasize\n      sub\n      dup2\n      add\n      swap1\n      tag_46\n      swap2\n      swap1\n      tag_20\n      jump\t// in\n    tag_46:\n      tag_47\n      jump\t// in\n    tag_45:\n      mload(0x40)\n      tag_48\n      swap2\n      swap1\n      tag_23\n      jump\t// in\n    tag_48:\n      mload(0x40)\n      dup1\n      swap2\n      sub\n      swap1\n      return\n        /* \"@openzeppelin/contracts/token/ERC20/ERC20.sol\":3551:3691  function allowance(address owner, address spender) public view virtual returns (uint256) {... */\n    tag_11:\n      tag_49\n      0x04\n      dup1\n      calldatasize\n      sub\n      dup2\n      add\n      swap1\n      tag_50\n      swap2\n      swap1\n      tag_51\n      jump\t// in\n    tag_50:\n      tag_52\n      jump\t// in\n    tag_49:\n      mload(0x40)\n      tag_53\n      swap2\n      swap1\n      tag_27\n      jump\t// in\n    tag_53:\n      mload(0x40)\n      dup1\n      swap2\n      sub\n      swap1\n      return\n        /* \"Dex.sol\":2083:2264  function approve(address owner, address spender, uint256 amount) public {... */\n    tag_12:\n      tag_54\n      0x04\n      dup1\n      calldatasize\n      sub\n      dup2\n      add\n      swap1\n      tag_55\n      swap2\n      swap1\n      tag_30\n      jump\t// in\n    tag_55:\n      tag_56\n      jump\t// in\n    tag_54:\n      stop\n        /* \"@openzeppelin/contracts/token/ERC20/ERC20.sol\":1779:1868  function name() public view virtual returns (string memory) {... */\n    tag_15:\n        /* \"@openzeppelin/contracts/token/ERC20/ERC20.sol\":1824:1837  string memory */\n      0x60\n        /* \"@openzeppelin/contracts/token/ERC20/ERC20.sol\":1856:1861  _name */\n      0x03\n        /* \"@openzeppelin/contracts/token/ERC20/ERC20.sol\":1849:1861  return _name */\n      dup1\n      sload\n      tag_58\n      swap1\n      tag_59\n      jump\t// in\n    tag_58:\n      dup1\n      0x1f\n      add\n      0x20\n      dup1\n      swap2\n      div\n      mul\n      0x20\n      add\n      mload(0x40)\n      swap1\n      dup2\n      add\n      0x40\n      mstore\n      dup1\n      swap3\n      swap2\n      swap1\n      dup2\n      dup2\n      mstore\n      0x20\n      add\n      dup3\n      dup1\n      sload\n      tag_60\n      swap1\n      tag_59\n      jump\t// in\n    tag_60:\n      dup1\n      iszero\n      tag_61\n      jumpi\n      dup1\n      0x1f\n      lt\n      tag_62\n      jumpi\n      0x0100\n      dup1\n      dup4\n      sload\n      div\n      mul\n      dup4\n      mstore\n      swap2\n      0x20\n      add\n      swap2\n      jump(tag_61)\n    tag_62:\n      dup3\n      add\n      swap2\n      swap1\n      0x00\n      mstore\n      keccak256(0x00, 0x20)\n      swap1\n    tag_63:\n      dup2\n      sload\n      dup2\n      mstore\n      swap1\n      0x01\n      add\n      swap1\n      0x20\n      add\n      dup1\n      dup4\n      gt\n      tag_63\n      jumpi\n      dup3\n      swap1\n      sub\n      0x1f\n      and\n      dup3\n      add\n      swap2\n    tag_61:\n      pop\n      pop\n      pop\n      pop\n      pop\n      swap1\n      pop\n        /* \"@openzeppelin/contracts/token/ERC20/ERC20.sol\":1779:1868  function name() public view virtual returns (string memory) {... */\n      swap1\n      jump\t// out\n        /* \"@openzeppelin/contracts/token/ERC20/ERC20.sol\":3998:4184  function approve(address spender, uint256 value) public virtual returns (bool) {... */\n    tag_21:\n        /* \"@openzeppelin/contracts/token/ERC20/ERC20.sol\":4071:4075  bool */\n      0x00\n        /* \"@openzeppelin/contracts/token/ERC20/ERC20.sol\":4087:4100  address owner */\n      dup1\n        /* \"@openzeppelin/contracts/token/ERC20/ERC20.sol\":4103:4115  _msgSender() */\n      tag_65\n        /* \"@openzeppelin/contracts/token/ERC20/ERC20.sol\":4103:4113  _msgSender */\n      tag_66\n        /* \"@openzeppelin/contracts/token/ERC20/ERC20.sol\":4103:4115  _msgSender() */\n      jump\t// in\n    tag_65:\n        /* \"@openzeppelin/contracts/token/ERC20/ERC20.sol\":4087:4115  address owner = _msgSender() */\n      swap1\n      pop\n        /* \"@openzeppelin/contracts/token/ERC20/ERC20.sol\":4125:4156  _approve(owner, spender, value) */\n      tag_67\n        /* \"@openzeppelin/contracts/token/ERC20/ERC20.sol\":4134:4139  owner */\n      dup2\n        /* \"@openzeppelin/contracts/token/ERC20/ERC20.sol\":4141:4148  spender */\n      dup6\n        /* \"@openzeppelin/contracts/token/ERC20/ERC20.sol\":4150:4155  value */\n      dup6\n        /* \"@openzeppelin/contracts/token/ERC20/ERC20.sol\":4125:4133  _approve */\n      tag_68\n        /* \"@openzeppelin/contracts/token/ERC20/ERC20.sol\":4125:4156  _approve(owner, spender, value) */\n      jump\t// in\n    tag_67:\n        /* \"@openzeppelin/contracts/token/ERC20/ERC20.sol\":4173:4177  true */\n      0x01\n        /* \"@openzeppelin/contracts/token/ERC20/ERC20.sol\":4166:4177  return true */\n      swap2\n      pop\n      pop\n        /* \"@openzeppelin/contracts/token/ERC20/ERC20.sol\":3998:4184  function approve(address spender, uint256 value) public virtual returns (bool) {... */\n      swap3\n      swap2\n      pop\n      pop\n      jump\t// out\n        /* \"@openzeppelin/contracts/token/ERC20/ERC20.sol\":2849:2946  function totalSupply() public view virtual returns (uint256) {... */\n    tag_25:\n        /* \"@openzeppelin/contracts/token/ERC20/ERC20.sol\":2901:2908  uint256 */\n      0x00\n        /* \"@openzeppelin/contracts/token/ERC20/ERC20.sol\":2927:2939  _totalSupply */\n      sload(0x02)\n        /* \"@openzeppelin/contracts/token/ERC20/ERC20.sol\":2920:2939  return _totalSupply */\n      swap1\n      pop\n        /* \"@openzeppelin/contracts/token/ERC20/ERC20.sol\":2849:2946  function totalSupply() public view virtual returns (uint256) {... */\n      swap1\n      jump\t// out\n        /* \"@openzeppelin/contracts/token/ERC20/ERC20.sol\":4776:5020  function transferFrom(address from, address to, uint256 value) public virtual returns (bool) {... */\n    tag_31:\n        /* \"@openzeppelin/contracts/token/ERC20/ERC20.sol\":4863:4867  bool */\n      0x00\n        /* \"@openzeppelin/contracts/token/ERC20/ERC20.sol\":4879:4894  address spender */\n      dup1\n        /* \"@openzeppelin/contracts/token/ERC20/ERC20.sol\":4897:4909  _msgSender() */\n      tag_71\n        /* \"@openzeppelin/contracts/token/ERC20/ERC20.sol\":4897:4907  _msgSender */\n      tag_66\n        /* \"@openzeppelin/contracts/token/ERC20/ERC20.sol\":4897:4909  _msgSender() */\n      jump\t// in\n    tag_71:\n        /* \"@openzeppelin/contracts/token/ERC20/ERC20.sol\":4879:4909  address spender = _msgSender() */\n      swap1\n      pop\n        /* \"@openzeppelin/contracts/token/ERC20/ERC20.sol\":4919:4956  _spendAllowance(from, spender, value) */\n      tag_72\n        /* \"@openzeppelin/contracts/token/ERC20/ERC20.sol\":4935:4939  from */\n      dup6\n        /* \"@openzeppelin/contracts/token/ERC20/ERC20.sol\":4941:4948  spender */\n      dup3\n        /* \"@openzeppelin/contracts/token/ERC20/ERC20.sol\":4950:4955  value */\n      dup6\n        /* \"@openzeppelin/contracts/token/ERC20/ERC20.sol\":4919:4934  _spendAllowance */\n      tag_73\n        /* \"@openzeppelin/contracts/token/ERC20/ERC20.sol\":4919:4956  _spendAllowance(from, spender, value) */\n      jump\t// in\n    tag_72:\n        /* \"@openzeppelin/contracts/token/ERC20/ERC20.sol\":4966:4992  _transfer(from, to, value) */\n      tag_74\n        /* \"@openzeppelin/contracts/token/ERC20/ERC20.sol\":4976:4980  from */\n      dup6\n        /* \"@openzeppelin/contracts/token/ERC20/ERC20.sol\":4982:4984  to */\n      dup6\n        /* \"@openzeppelin/contracts/token/ERC20/ERC20.sol\":4986:4991  value */\n      dup6\n        /* \"@openzeppelin/contracts/token/ERC20/ERC20.sol\":4966:4975  _transfer */\n      tag_75\n        /* \"@openzeppelin/contracts/token/ERC20/ERC20.sol\":4966:4992  _transfer(from, to, value) */\n      jump\t// in\n    tag_74:\n        /* \"@openzeppelin/contracts/token/ERC20/ERC20.sol\":5009:5013  true */\n      0x01\n        /* \"@openzeppelin/contracts/token/ERC20/ERC20.sol\":5002:5013  return true */\n      swap2\n      pop\n      pop\n        /* \"@openzeppelin/contracts/token/ERC20/ERC20.sol\":4776:5020  function transferFrom(address from, address to, uint256 value) public virtual returns (bool) {... */\n      swap4\n      swap3\n      pop\n      pop\n      pop\n      jump\t// out\n        /* \"@openzeppelin/contracts/token/ERC20/ERC20.sol\":2707:2789  function decimals() public view virtual returns (uint8) {... */\n    tag_34:\n        /* \"@openzeppelin/contracts/token/ERC20/ERC20.sol\":2756:2761  uint8 */\n      0x00\n        /* \"@openzeppelin/contracts/token/ERC20/ERC20.sol\":2780:2782  18 */\n      0x12\n        /* \"@openzeppelin/contracts/token/ERC20/ERC20.sol\":2773:2782  return 18 */\n      swap1\n      pop\n        /* \"@openzeppelin/contracts/token/ERC20/ERC20.sol\":2707:2789  function decimals() public view virtual returns (uint8) {... */\n      swap1\n      jump\t// out\n        /* \"@openzeppelin/contracts/token/ERC20/ERC20.sol\":3004:3120  function balanceOf(address account) public view virtual returns (uint256) {... */\n    tag_40:\n        /* \"@openzeppelin/contracts/token/ERC20/ERC20.sol\":3069:3076  uint256 */\n      0x00\n        /* \"@openzeppelin/contracts/token/ERC20/ERC20.sol\":3095:3104  _balances */\n      dup1\n        /* \"@openzeppelin/contracts/token/ERC20/ERC20.sol\":3095:3113  _balances[account] */\n      0x00\n        /* \"@openzeppelin/contracts/token/ERC20/ERC20.sol\":3105:3112  account */\n      dup4\n        /* \"@openzeppelin/contracts/token/ERC20/ERC20.sol\":3095:3113  _balances[account] */\n      0xffffffffffffffffffffffffffffffffffffffff\n      and\n      0xffffffffffffffffffffffffffffffffffffffff\n      and\n      dup2\n      mstore\n      0x20\n      add\n      swap1\n      dup2\n      mstore\n      0x20\n      add\n      0x00\n      keccak256\n      sload\n        /* \"@openzeppelin/contracts/token/ERC20/ERC20.sol\":3088:3113  return _balances[account] */\n      swap1\n      pop\n        /* \"@openzeppelin/contracts/token/ERC20/ERC20.sol\":3004:3120  function balanceOf(address account) public view virtual returns (uint256) {... */\n      swap2\n      swap1\n      pop\n      jump\t// out\n        /* \"@openzeppelin/contracts/token/ERC20/ERC20.sol\":1981:2074  function symbol() public view virtual returns (string memory) {... */\n    tag_43:\n        /* \"@openzeppelin/contracts/token/ERC20/ERC20.sol\":2028:2041  string memory */\n      0x60\n        /* \"@openzeppelin/contracts/token/ERC20/ERC20.sol\":2060:2067  _symbol */\n      0x04\n        /* \"@openzeppelin/contracts/token/ERC20/ERC20.sol\":2053:2067  return _symbol */\n      dup1\n      sload\n      tag_79\n      swap1\n      tag_59\n      jump\t// in\n    tag_79:\n      dup1\n      0x1f\n      add\n      0x20\n      dup1\n      swap2\n      div\n      mul\n      0x20\n      add\n      mload(0x40)\n      swap1\n      dup2\n      add\n      0x40\n      mstore\n      dup1\n      swap3\n      swap2\n      swap1\n      dup2\n      dup2\n      mstore\n      0x20\n      add\n      dup3\n      dup1\n      sload\n      tag_80\n      swap1\n      tag_59\n      jump\t// in\n    tag_80:\n      dup1\n      iszero\n      tag_81\n      jumpi\n      dup1\n      0x1f\n      lt\n      tag_82\n      jumpi\n      0x0100\n      dup1\n      dup4\n      sload\n      div\n      mul\n      dup4\n      mstore\n      swap2\n      0x20\n      add\n      swap2\n      jump(tag_81)\n    tag_82:\n      dup3\n      add\n      swap2\n      swap1\n      0x00\n      mstore\n      keccak256(0x00, 0x20)\n      swap1\n    tag_83:\n      dup2\n      sload\n      dup2\n      mstore\n      swap1\n      0x01\n      add\n      swap1\n      0x20\n      add\n      dup1\n      dup4\n      gt\n      tag_83\n      jumpi\n      dup3\n      swap1\n      sub\n      0x1f\n      and\n      dup3\n      add\n      swap2\n    tag_81:\n      pop\n      pop\n      pop\n      pop\n      pop\n      swap1\n      pop\n        /* \"@openzeppelin/contracts/token/ERC20/ERC20.sol\":1981:2074  function symbol() public view virtual returns (string memory) {... */\n      swap1\n      jump\t// out\n        /* \"@openzeppelin/contracts/token/ERC20/ERC20.sol\":3315:3493  function transfer(address to, uint256 value) public virtual returns (bool) {... */\n    tag_47:\n        /* \"@openzeppelin/contracts/token/ERC20/ERC20.sol\":3384:3388  bool */\n      0x00\n        /* \"@openzeppelin/contracts/token/ERC20/ERC20.sol\":3400:3413  address owner */\n      dup1\n        /* \"@openzeppelin/contracts/token/ERC20/ERC20.sol\":3416:3428  _msgSender() */\n      tag_85\n        /* \"@openzeppelin/contracts/token/ERC20/ERC20.sol\":3416:3426  _msgSender */\n      tag_66\n        /* \"@openzeppelin/contracts/token/ERC20/ERC20.sol\":3416:3428  _msgSender() */\n      jump\t// in\n    tag_85:\n        /* \"@openzeppelin/contracts/token/ERC20/ERC20.sol\":3400:3428  address owner = _msgSender() */\n      swap1\n      pop\n        /* \"@openzeppelin/contracts/token/ERC20/ERC20.sol\":3438:3465  _transfer(owner, to, value) */\n      tag_86\n        /* \"@openzeppelin/contracts/token/ERC20/ERC20.sol\":3448:3453  owner */\n      dup2\n        /* \"@openzeppelin/contracts/token/ERC20/ERC20.sol\":3455:3457  to */\n      dup6\n        /* \"@openzeppelin/contracts/token/ERC20/ERC20.sol\":3459:3464  value */\n      dup6\n        /* \"@openzeppelin/contracts/token/ERC20/ERC20.sol\":3438:3447  _transfer */\n      tag_75\n        /* \"@openzeppelin/contracts/token/ERC20/ERC20.sol\":3438:3465  _transfer(owner, to, value) */\n      jump\t// in\n    tag_86:\n        /* \"@openzeppelin/contracts/token/ERC20/ERC20.sol\":3482:3486  true */\n      0x01\n        /* \"@openzeppelin/contracts/token/ERC20/ERC20.sol\":3475:3486  return true */\n      swap2\n      pop\n      pop\n        /* \"@openzeppelin/contracts/token/ERC20/ERC20.sol\":3315:3493  function transfer(address to, uint256 value) public virtual returns (bool) {... */\n      swap3\n      swap2\n      pop\n      pop\n      jump\t// out\n        /* \"@openzeppelin/contracts/token/ERC20/ERC20.sol\":3551:3691  function allowance(address owner, address spender) public view virtual returns (uint256) {... */\n    tag_52:\n        /* \"@openzeppelin/contracts/token/ERC20/ERC20.sol\":3631:3638  uint256 */\n      0x00\n        /* \"@openzeppelin/contracts/token/ERC20/ERC20.sol\":3657:3668  _allowances */\n      0x01\n        /* \"@openzeppelin/contracts/token/ERC20/ERC20.sol\":3657:3675  _allowances[owner] */\n      0x00\n        /* \"@openzeppelin/contracts/token/ERC20/ERC20.sol\":3669:3674  owner */\n      dup5\n        /* \"@openzeppelin/contracts/token/ERC20/ERC20.sol\":3657:3675  _allowances[owner] */\n      0xffffffffffffffffffffffffffffffffffffffff\n      and\n      0xffffffffffffffffffffffffffffffffffffffff\n      and\n      dup2\n      mstore\n      0x20\n      add\n      swap1\n      dup2\n      mstore\n      0x20\n      add\n      0x00\n      keccak256\n        /* \"@openzeppelin/contracts/token/ERC20/ERC20.sol\":3657:3684  _allowances[owner][spender] */\n      0x00\n        /* \"@openzeppelin/contracts/token/ERC20/ERC20.sol\":3676:3683  spender */\n      dup4\n        /* \"@openzeppelin/contracts/token/ERC20/ERC20.sol\":3657:3684  _allowances[owner][spender] */\n      0xffffffffffffffffffffffffffffffffffffffff\n      and\n      0xffffffffffffffffffffffffffffffffffffffff\n      and\n      dup2\n      mstore\n      0x20\n      add\n      swap1\n      dup2\n      mstore\n      0x20\n      add\n      0x00\n      keccak256\n      sload\n        /* \"@openzeppelin/contracts/token/ERC20/ERC20.sol\":3650:3684  return _allowances[owner][spender] */\n      swap1\n      pop\n        /* \"@openzeppelin/contracts/token/ERC20/ERC20.sol\":3551:3691  function allowance(address owner, address spender) public view virtual returns (uint256) {... */\n      swap3\n      swap2\n      pop\n      pop\n      jump\t// out\n        /* \"Dex.sol\":2083:2264  function approve(address owner, address spender, uint256 amount) public {... */\n    tag_56:\n        /* \"Dex.sol\":2183:2187  _dex */\n      0x05\n      0x00\n      swap1\n      sload\n      swap1\n      0x0100\n      exp\n      swap1\n      div\n      0xffffffffffffffffffffffffffffffffffffffff\n      and\n        /* \"Dex.sol\":2174:2187  owner != _dex */\n      0xffffffffffffffffffffffffffffffffffffffff\n      and\n        /* \"Dex.sol\":2174:2179  owner */\n      dup4\n        /* \"Dex.sol\":2174:2187  owner != _dex */\n      0xffffffffffffffffffffffffffffffffffffffff\n      and\n      sub\n        /* \"Dex.sol\":2166:2207  require(owner != _dex, \"InvalidApprover\") */\n      tag_89\n      jumpi\n      mload(0x40)\n      0x08c379a000000000000000000000000000000000000000000000000000000000\n      dup2\n      mstore\n      0x04\n      add\n      tag_90\n      swap1\n      tag_91\n      jump\t// in\n    tag_90:\n      mload(0x40)\n      dup1\n      swap2\n      sub\n      swap1\n      revert\n    tag_89:\n        /* \"Dex.sol\":2218:2256  super._approve(owner, spender, amount) */\n      tag_92\n        /* \"Dex.sol\":2233:2238  owner */\n      dup4\n        /* \"Dex.sol\":2240:2247  spender */\n      dup4\n        /* \"Dex.sol\":2249:2255  amount */\n      dup4\n        /* \"Dex.sol\":2218:2232  super._approve */\n      tag_68\n        /* \"Dex.sol\":2218:2256  super._approve(owner, spender, amount) */\n      jump\t// in\n    tag_92:\n        /* \"Dex.sol\":2083:2264  function approve(address owner, address spender, uint256 amount) public {... */\n      pop\n      pop\n      pop\n      jump\t// out\n        /* \"@openzeppelin/contracts/utils/Context.sol\":656:752  function _msgSender() internal view virtual returns (address) {... */\n    tag_66:\n        /* \"@openzeppelin/contracts/utils/Context.sol\":709:716  address */\n      0x00\n        /* \"@openzeppelin/contracts/utils/Context.sol\":735:745  msg.sender */\n      caller\n        /* \"@openzeppelin/contracts/utils/Context.sol\":728:745  return msg.sender */\n      swap1\n      pop\n        /* \"@openzeppelin/contracts/utils/Context.sol\":656:752  function _msgSender() internal view virtual returns (address) {... */\n      swap1\n      jump\t// out\n        /* \"@openzeppelin/contracts/token/ERC20/ERC20.sol\":8726:8854  function _approve(address owner, address spender, uint256 value) internal {... */\n    tag_68:\n        /* \"@openzeppelin/contracts/token/ERC20/ERC20.sol\":8810:8847  _approve(owner, spender, value, true) */\n      tag_95\n        /* \"@openzeppelin/contracts/token/ERC20/ERC20.sol\":8819:8824  owner */\n      dup4\n        /* \"@openzeppelin/contracts/token/ERC20/ERC20.sol\":8826:8833  spender */\n      dup4\n        /* \"@openzeppelin/contracts/token/ERC20/ERC20.sol\":8835:8840  value */\n      dup4\n        /* \"@openzeppelin/contracts/token/ERC20/ERC20.sol\":8842:8846  true */\n      0x01\n        /* \"@openzeppelin/contracts/token/ERC20/ERC20.sol\":8810:8818  _approve */\n      tag_96\n        /* \"@openzeppelin/contracts/token/ERC20/ERC20.sol\":8810:8847  _approve(owner, spender, value, true) */\n      jump\t// in\n    tag_95:\n        /* \"@openzeppelin/contracts/token/ERC20/ERC20.sol\":8726:8854  function _approve(address owner, address spender, uint256 value) internal {... */\n      pop\n      pop\n      pop\n      jump\t// out\n        /* \"@openzeppelin/contracts/token/ERC20/ERC20.sol\":10415:10891  function _spendAllowance(address owner, address spender, uint256 value) internal virtual {... */\n    tag_73:\n        /* \"@openzeppelin/contracts/token/ERC20/ERC20.sol\":10514:10538  uint256 currentAllowance */\n      0x00\n        /* \"@openzeppelin/contracts/token/ERC20/ERC20.sol\":10541:10566  allowance(owner, spender) */\n      tag_98\n        /* \"@openzeppelin/contracts/token/ERC20/ERC20.sol\":10551:10556  owner */\n      dup5\n        /* \"@openzeppelin/contracts/token/ERC20/ERC20.sol\":10558:10565  spender */\n      dup5\n        /* \"@openzeppelin/contracts/token/ERC20/ERC20.sol\":10541:10550  allowance */\n      tag_52\n        /* \"@openzeppelin/contracts/token/ERC20/ERC20.sol\":10541:10566  allowance(owner, spender) */\n      jump\t// in\n    tag_98:\n        /* \"@openzeppelin/contracts/token/ERC20/ERC20.sol\":10514:10566  uint256 currentAllowance = allowance(owner, spender) */\n      swap1\n      pop\n        /* \"@openzeppelin/contracts/token/ERC20/ERC20.sol\":10599:10616  type(uint256).max */\n      0xffffffffffffffffffffffffffffffffffffffffffffffffffffffffffffffff\n        /* \"@openzeppelin/contracts/token/ERC20/ERC20.sol\":10580:10596  currentAllowance */\n      dup2\n        /* \"@openzeppelin/contracts/token/ERC20/ERC20.sol\":10580:10616  currentAllowance < type(uint256).max */\n      lt\n        /* \"@openzeppelin/contracts/token/ERC20/ERC20.sol\":10576:10885  if (currentAllowance < type(uint256).max) {... */\n      iszero\n      tag_99\n      jumpi\n        /* \"@openzeppelin/contracts/token/ERC20/ERC20.sol\":10655:10660  value */\n      dup2\n        /* \"@openzeppelin/contracts/token/ERC20/ERC20.sol\":10636:10652  currentAllowance */\n      dup2\n        /* \"@openzeppelin/contracts/token/ERC20/ERC20.sol\":10636:10660  currentAllowance < value */\n      lt\n        /* \"@openzeppelin/contracts/token/ERC20/ERC20.sol\":10632:10762  if (currentAllowance < value) {... */\n      iszero\n      tag_100\n      jumpi\n        /* \"@openzeppelin/contracts/token/ERC20/ERC20.sol\":10714:10721  spender */\n      dup3\n        /* \"@openzeppelin/contracts/token/ERC20/ERC20.sol\":10723:10739  currentAllowance */\n      dup2\n        /* \"@openzeppelin/contracts/token/ERC20/ERC20.sol\":10741:10746  value */\n      dup4\n        /* \"@openzeppelin/contracts/token/ERC20/ERC20.sol\":10687:10747  ERC20InsufficientAllowance(spender, currentAllowance, value) */\n      mload(0x40)\n      0xfb8f41b200000000000000000000000000000000000000000000000000000000\n      dup2\n      mstore\n      0x04\n      add\n      tag_101\n      swap4\n      swap3\n      swap2\n      swap1\n      tag_102\n      jump\t// in\n    tag_101:\n      mload(0x40)\n      dup1\n      swap2\n      sub\n      swap1\n      revert\n        /* \"@openzeppelin/contracts/token/ERC20/ERC20.sol\":10632:10762  if (currentAllowance < value) {... */\n    tag_100:\n        /* \"@openzeppelin/contracts/token/ERC20/ERC20.sol\":10803:10860  _approve(owner, spender, currentAllowance - value, false) */\n      tag_103\n        /* \"@openzeppelin/contracts/token/ERC20/ERC20.sol\":10812:10817  owner */\n      dup5\n        /* \"@openzeppelin/contracts/token/ERC20/ERC20.sol\":10819:10826  spender */\n      dup5\n        /* \"@openzeppelin/contracts/token/ERC20/ERC20.sol\":10847:10852  value */\n      dup5\n        /* \"@openzeppelin/contracts/token/ERC20/ERC20.sol\":10828:10844  currentAllowance */\n      dup5\n        /* \"@openzeppelin/contracts/token/ERC20/ERC20.sol\":10828:10852  currentAllowance - value */\n      sub\n        /* \"@openzeppelin/contracts/token/ERC20/ERC20.sol\":10854:10859  false */\n      0x00\n        /* \"@openzeppelin/contracts/token/ERC20/ERC20.sol\":10803:10811  _approve */\n      tag_96\n        /* \"@openzeppelin/contracts/token/ERC20/ERC20.sol\":10803:10860  _approve(owner, spender, currentAllowance - value, false) */\n      jump\t// in\n    tag_103:\n        /* \"@openzeppelin/contracts/token/ERC20/ERC20.sol\":10576:10885  if (currentAllowance < type(uint256).max) {... */\n    tag_99:\n        /* \"@openzeppelin/contracts/token/ERC20/ERC20.sol\":10504:10891  {... */\n      pop\n        /* \"@openzeppelin/contracts/token/ERC20/ERC20.sol\":10415:10891  function _spendAllowance(address owner, address spender, uint256 value) internal virtual {... */\n      pop\n      pop\n      pop\n      jump\t// out\n        /* \"@openzeppelin/contracts/token/ERC20/ERC20.sol\":5393:5693  function _transfer(address from, address to, uint256 value) internal {... */\n    tag_75:\n        /* \"@openzeppelin/contracts/token/ERC20/ERC20.sol\":5492:5493  0 */\n      0x00\n        /* \"@openzeppelin/contracts/token/ERC20/ERC20.sol\":5476:5494  from == address(0) */\n      0xffffffffffffffffffffffffffffffffffffffff\n      and\n        /* \"@openzeppelin/contracts/token/ERC20/ERC20.sol\":5476:5480  from */\n      dup4\n        /* \"@openzeppelin/contracts/token/ERC20/ERC20.sol\":5476:5494  from == address(0) */\n      0xffffffffffffffffffffffffffffffffffffffff\n      and\n      sub\n        /* \"@openzeppelin/contracts/token/ERC20/ERC20.sol\":5472:5558  if (from == address(0)) {... */\n      tag_105\n      jumpi\n        /* \"@openzeppelin/contracts/token/ERC20/ERC20.sol\":5544:5545  0 */\n      0x00\n        /* \"@openzeppelin/contracts/token/ERC20/ERC20.sol\":5517:5547  ERC20InvalidSender(address(0)) */\n      mload(0x40)\n      0x96c6fd1e00000000000000000000000000000000000000000000000000000000\n      dup2\n      mstore\n      0x04\n      add\n      tag_106\n      swap2\n      swap1\n      tag_107\n      jump\t// in\n    tag_106:\n      mload(0x40)\n      dup1\n      swap2\n      sub\n      swap1\n      revert\n        /* \"@openzeppelin/contracts/token/ERC20/ERC20.sol\":5472:5558  if (from == address(0)) {... */\n    tag_105:\n        /* \"@openzeppelin/contracts/token/ERC20/ERC20.sol\":5585:5586  0 */\n      0x00\n        /* \"@openzeppelin/contracts/token/ERC20/ERC20.sol\":5571:5587  to == address(0) */\n      0xffffffffffffffffffffffffffffffffffffffff\n      and\n        /* \"@openzeppelin/contracts/token/ERC20/ERC20.sol\":5571:5573  to */\n      dup3\n        /* \"@openzeppelin/contracts/token/ERC20/ERC20.sol\":5571:5587  to == address(0) */\n      0xffffffffffffffffffffffffffffffffffffffff\n      and\n      sub\n        /* \"@openzeppelin/contracts/token/ERC20/ERC20.sol\":5567:5653  if (to == address(0)) {... */\n      tag_108\n      jumpi\n        /* \"@openzeppelin/contracts/token/ERC20/ERC20.sol\":5639:5640  0 */\n      0x00\n        /* \"@openzeppelin/contracts/token/ERC20/ERC20.sol\":5610:5642  ERC20InvalidReceiver(address(0)) */\n      mload(0x40)\n      0xec442f0500000000000000000000000000000000000000000000000000000000\n      dup2\n      mstore\n      0x04\n      add\n      tag_109\n      swap2\n      swap1\n      tag_107\n      jump\t// in\n    tag_109:\n      mload(0x40)\n      dup1\n      swap2\n      sub\n      swap1\n      revert\n        /* \"@openzeppelin/contracts/token/ERC20/ERC20.sol\":5567:5653  if (to == address(0)) {... */\n    tag_108:\n        /* \"@openzeppelin/contracts/token/ERC20/ERC20.sol\":5662:5686  _update(from, to, value) */\n      tag_110\n        /* \"@openzeppelin/contracts/token/ERC20/ERC20.sol\":5670:5674  from */\n      dup4\n        /* \"@openzeppelin/contracts/token/ERC20/ERC20.sol\":5676:5678  to */\n      dup4\n        /* \"@openzeppelin/contracts/token/ERC20/ERC20.sol\":5680:5685  value */\n      dup4\n        /* \"@openzeppelin/contracts/token/ERC20/ERC20.sol\":5662:5669  _update */\n      tag_111\n        /* \"@openzeppelin/contracts/token/ERC20/ERC20.sol\":5662:5686  _update(from, to, value) */\n      jump\t// in\n    tag_110:\n        /* \"@openzeppelin/contracts/token/ERC20/ERC20.sol\":5393:5693  function _transfer(address from, address to, uint256 value) internal {... */\n      pop\n      pop\n      pop\n      jump\t// out\n        /* \"@openzeppelin/contracts/token/ERC20/ERC20.sol\":9701:10133  function _approve(address owner, address spender, uint256 value, bool emitEvent) internal virtual {... */\n    tag_96:\n        /* \"@openzeppelin/contracts/token/ERC20/ERC20.sol\":9830:9831  0 */\n      0x00\n        /* \"@openzeppelin/contracts/token/ERC20/ERC20.sol\":9813:9832  owner == address(0) */\n      0xffffffffffffffffffffffffffffffffffffffff\n      and\n        /* \"@openzeppelin/contracts/token/ERC20/ERC20.sol\":9813:9818  owner */\n      dup5\n        /* \"@openzeppelin/contracts/token/ERC20/ERC20.sol\":9813:9832  owner == address(0) */\n      0xffffffffffffffffffffffffffffffffffffffff\n      and\n      sub\n        /* \"@openzeppelin/contracts/token/ERC20/ERC20.sol\":9809:9898  if (owner == address(0)) {... */\n      tag_113\n      jumpi\n        /* \"@openzeppelin/contracts/token/ERC20/ERC20.sol\":9884:9885  0 */\n      0x00\n        /* \"@openzeppelin/contracts/token/ERC20/ERC20.sol\":9855:9887  ERC20InvalidApprover(address(0)) */\n      mload(0x40)\n      0xe602df0500000000000000000000000000000000000000000000000000000000\n      dup2\n      mstore\n      0x04\n      add\n      tag_114\n      swap2\n      swap1\n      tag_107\n      jump\t// in\n    tag_114:\n      mload(0x40)\n      dup1\n      swap2\n      sub\n      swap1\n      revert\n        /* \"@openzeppelin/contracts/token/ERC20/ERC20.sol\":9809:9898  if (owner == address(0)) {... */\n    tag_113:\n        /* \"@openzeppelin/contracts/token/ERC20/ERC20.sol\":9930:9931  0 */\n      0x00\n        /* \"@openzeppelin/contracts/token/ERC20/ERC20.sol\":9911:9932  spender == address(0) */\n      0xffffffffffffffffffffffffffffffffffffffff\n      and\n        /* \"@openzeppelin/contracts/token/ERC20/ERC20.sol\":9911:9918  spender */\n      dup4\n        /* \"@openzeppelin/contracts/token/ERC20/ERC20.sol\":9911:9932  spender == address(0) */\n      0xffffffffffffffffffffffffffffffffffffffff\n      and\n      sub\n        /* \"@openzeppelin/contracts/token/ERC20/ERC20.sol\":9907:9997  if (spender == address(0)) {... */\n      tag_115\n      jumpi\n        /* \"@openzeppelin/contracts/token/ERC20/ERC20.sol\":9983:9984  0 */\n      0x00\n        /* \"@openzeppelin/contracts/token/ERC20/ERC20.sol\":9955:9986  ERC20InvalidSpender(address(0)) */\n      mload(0x40)\n      0x94280d6200000000000000000000000000000000000000000000000000000000\n      dup2\n      mstore\n      0x04\n      add\n      tag_116\n      swap2\n      swap1\n      tag_107\n      jump\t// in\n    tag_116:\n      mload(0x40)\n      dup1\n      swap2\n      sub\n      swap1\n      revert\n        /* \"@openzeppelin/contracts/token/ERC20/ERC20.sol\":9907:9997  if (spender == address(0)) {... */\n    tag_115:\n        /* \"@openzeppelin/contracts/token/ERC20/ERC20.sol\":10036:10041  value */\n      dup2\n        /* \"@openzeppelin/contracts/token/ERC20/ERC20.sol\":10006:10017  _allowances */\n      0x01\n        /* \"@openzeppelin/contracts/token/ERC20/ERC20.sol\":10006:10024  _allowances[owner] */\n      0x00\n        /* \"@openzeppelin/contracts/token/ERC20/ERC20.sol\":10018:10023  owner */\n      dup7\n        /* \"@openzeppelin/contracts/token/ERC20/ERC20.sol\":10006:10024  _allowances[owner] */\n      0xffffffffffffffffffffffffffffffffffffffff\n      and\n      0xffffffffffffffffffffffffffffffffffffffff\n      and\n      dup2\n      mstore\n      0x20\n      add\n      swap1\n      dup2\n      mstore\n      0x20\n      add\n      0x00\n      keccak256\n        /* \"@openzeppelin/contracts/token/ERC20/ERC20.sol\":10006:10033  _allowances[owner][spender] */\n      0x00\n        /* \"@openzeppelin/contracts/token/ERC20/ERC20.sol\":10025:10032  spender */\n      dup6\n        /* \"@openzeppelin/contracts/token/ERC20/ERC20.sol\":10006:10033  _allowances[owner][spender] */\n      0xffffffffffffffffffffffffffffffffffffffff\n      and\n      0xffffffffffffffffffffffffffffffffffffffff\n      and\n      dup2\n      mstore\n      0x20\n      add\n      swap1\n      dup2\n      mstore\n      0x20\n      add\n      0x00\n      keccak256\n        /* \"@openzeppelin/contracts/token/ERC20/ERC20.sol\":10006:10041  _allowances[owner][spender] = value */\n      dup2\n      swap1\n      sstore\n      pop\n        /* \"@openzeppelin/contracts/token/ERC20/ERC20.sol\":10055:10064  emitEvent */\n      dup1\n        /* \"@openzeppelin/contracts/token/ERC20/ERC20.sol\":10051:10127  if (emitEvent) {... */\n      iszero\n      tag_117\n      jumpi\n        /* \"@openzeppelin/contracts/token/ERC20/ERC20.sol\":10101:10108  spender */\n      dup3\n        /* \"@openzeppelin/contracts/token/ERC20/ERC20.sol\":10085:10116  Approval(owner, spender, value) */\n      0xffffffffffffffffffffffffffffffffffffffff\n      and\n        /* \"@openzeppelin/contracts/token/ERC20/ERC20.sol\":10094:10099  owner */\n      dup5\n        /* \"@openzeppelin/contracts/token/ERC20/ERC20.sol\":10085:10116  Approval(owner, spender, value) */\n      0xffffffffffffffffffffffffffffffffffffffff\n      and\n      0x8c5be1e5ebec7d5bd14f71427d1e84f3dd0314c0f7b2291e5b200ac8c7c3b925\n        /* \"@openzeppelin/contracts/token/ERC20/ERC20.sol\":10110:10115  value */\n      dup5\n        /* \"@openzeppelin/contracts/token/ERC20/ERC20.sol\":10085:10116  Approval(owner, spender, value) */\n      mload(0x40)\n      tag_118\n      swap2\n      swap1\n      tag_27\n      jump\t// in\n    tag_118:\n      mload(0x40)\n      dup1\n      swap2\n      sub\n      swap1\n      log3\n        /* \"@openzeppelin/contracts/token/ERC20/ERC20.sol\":10051:10127  if (emitEvent) {... */\n    tag_117:\n        /* \"@openzeppelin/contracts/token/ERC20/ERC20.sol\":9701:10133  function _approve(address owner, address spender, uint256 value, bool emitEvent) internal virtual {... */\n      pop\n      pop\n      pop\n      pop\n      jump\t// out\n        /* \"@openzeppelin/contracts/token/ERC20/ERC20.sol\":6008:7115  function _update(address from, address to, uint256 value) internal virtual {... */\n    tag_111:\n        /* \"@openzeppelin/contracts/token/ERC20/ERC20.sol\":6113:6114  0 */\n      0x00\n        /* \"@openzeppelin/contracts/token/ERC20/ERC20.sol\":6097:6115  from == address(0) */\n      0xffffffffffffffffffffffffffffffffffffffff\n      and\n        /* \"@openzeppelin/contracts/token/ERC20/ERC20.sol\":6097:6101  from */\n      dup4\n        /* \"@openzeppelin/contracts/token/ERC20/ERC20.sol\":6097:6115  from == address(0) */\n      0xffffffffffffffffffffffffffffffffffffffff\n      and\n      sub\n        /* \"@openzeppelin/contracts/token/ERC20/ERC20.sol\":6093:6633  if (from == address(0)) {... */\n      tag_120\n      jumpi\n        /* \"@openzeppelin/contracts/token/ERC20/ERC20.sol\":6249:6254  value */\n      dup1\n        /* \"@openzeppelin/contracts/token/ERC20/ERC20.sol\":6233:6245  _totalSupply */\n      0x02\n      0x00\n        /* \"@openzeppelin/contracts/token/ERC20/ERC20.sol\":6233:6254  _totalSupply += value */\n      dup3\n      dup3\n      sload\n      tag_121\n      swap2\n      swap1\n      tag_122\n      jump\t// in\n    tag_121:\n      swap3\n      pop\n      pop\n      dup2\n      swap1\n      sstore\n      pop\n        /* \"@openzeppelin/contracts/token/ERC20/ERC20.sol\":6093:6633  if (from == address(0)) {... */\n      jump(tag_123)\n    tag_120:\n        /* \"@openzeppelin/contracts/token/ERC20/ERC20.sol\":6285:6304  uint256 fromBalance */\n      0x00\n        /* \"@openzeppelin/contracts/token/ERC20/ERC20.sol\":6307:6316  _balances */\n      dup1\n        /* \"@openzeppelin/contracts/token/ERC20/ERC20.sol\":6307:6322  _balances[from] */\n      0x00\n        /* \"@openzeppelin/contracts/token/ERC20/ERC20.sol\":6317:6321  from */\n      dup6\n        /* \"@openzeppelin/contracts/token/ERC20/ERC20.sol\":6307:6322  _balances[from] */\n      0xffffffffffffffffffffffffffffffffffffffff\n      and\n      0xffffffffffffffffffffffffffffffffffffffff\n      and\n      dup2\n      mstore\n      0x20\n      add\n      swap1\n      dup2\n      mstore\n      0x20\n      add\n      0x00\n      keccak256\n      sload\n        /* \"@openzeppelin/contracts/token/ERC20/ERC20.sol\":6285:6322  uint256 fromBalance = _balances[from] */\n      swap1\n      pop\n        /* \"@openzeppelin/contracts/token/ERC20/ERC20.sol\":6354:6359  value */\n      dup2\n        /* \"@openzeppelin/contracts/token/ERC20/ERC20.sol\":6340:6351  fromBalance */\n      dup2\n        /* \"@openzeppelin/contracts/token/ERC20/ERC20.sol\":6340:6359  fromBalance < value */\n      lt\n        /* \"@openzeppelin/contracts/token/ERC20/ERC20.sol\":6336:6451  if (fromBalance < value) {... */\n      iszero\n      tag_124\n      jumpi\n        /* \"@openzeppelin/contracts/token/ERC20/ERC20.sol\":6411:6415  from */\n      dup4\n        /* \"@openzeppelin/contracts/token/ERC20/ERC20.sol\":6417:6428  fromBalance */\n      dup2\n        /* \"@openzeppelin/contracts/token/ERC20/ERC20.sol\":6430:6435  value */\n      dup4\n        /* \"@openzeppelin/contracts/token/ERC20/ERC20.sol\":6386:6436  ERC20InsufficientBalance(from, fromBalance, value) */\n      mload(0x40)\n      0xe450d38c00000000000000000000000000000000000000000000000000000000\n      dup2\n      mstore\n      0x04\n      add\n      tag_125\n      swap4\n      swap3\n      swap2\n      swap1\n      tag_102\n      jump\t// in\n    tag_125:\n      mload(0x40)\n      dup1\n      swap2\n      sub\n      swap1\n      revert\n        /* \"@openzeppelin/contracts/token/ERC20/ERC20.sol\":6336:6451  if (fromBalance < value) {... */\n    tag_124:\n        /* \"@openzeppelin/contracts/token/ERC20/ERC20.sol\":6603:6608  value */\n      dup2\n        /* \"@openzeppelin/contracts/token/ERC20/ERC20.sol\":6589:6600  fromBalance */\n      dup2\n        /* \"@openzeppelin/contracts/token/ERC20/ERC20.sol\":6589:6608  fromBalance - value */\n      sub\n        /* \"@openzeppelin/contracts/token/ERC20/ERC20.sol\":6571:6580  _balances */\n      0x00\n        /* \"@openzeppelin/contracts/token/ERC20/ERC20.sol\":6571:6586  _balances[from] */\n      dup1\n        /* \"@openzeppelin/contracts/token/ERC20/ERC20.sol\":6581:6585  from */\n      dup7\n        /* \"@openzeppelin/contracts/token/ERC20/ERC20.sol\":6571:6586  _balances[from] */\n      0xffffffffffffffffffffffffffffffffffffffff\n      and\n      0xffffffffffffffffffffffffffffffffffffffff\n      and\n      dup2\n      mstore\n      0x20\n      add\n      swap1\n      dup2\n      mstore\n      0x20\n      add\n      0x00\n      keccak256\n        /* \"@openzeppelin/contracts/token/ERC20/ERC20.sol\":6571:6608  _balances[from] = fromBalance - value */\n      dup2\n      swap1\n      sstore\n      pop\n        /* \"@openzeppelin/contracts/token/ERC20/ERC20.sol\":6271:6633  {... */\n      pop\n        /* \"@openzeppelin/contracts/token/ERC20/ERC20.sol\":6093:6633  if (from == address(0)) {... */\n    tag_123:\n        /* \"@openzeppelin/contracts/token/ERC20/ERC20.sol\":6661:6662  0 */\n      0x00\n        /* \"@openzeppelin/contracts/token/ERC20/ERC20.sol\":6647:6663  to == address(0) */\n      0xffffffffffffffffffffffffffffffffffffffff\n      and\n        /* \"@openzeppelin/contracts/token/ERC20/ERC20.sol\":6647:6649  to */\n      dup3\n        /* \"@openzeppelin/contracts/token/ERC20/ERC20.sol\":6647:6663  to == address(0) */\n      0xffffffffffffffffffffffffffffffffffffffff\n      and\n      sub\n        /* \"@openzeppelin/contracts/token/ERC20/ERC20.sol\":6643:7068  if (to == address(0)) {... */\n      tag_126\n      jumpi\n        /* \"@openzeppelin/contracts/token/ERC20/ERC20.sol\":6826:6831  value */\n      dup1\n        /* \"@openzeppelin/contracts/token/ERC20/ERC20.sol\":6810:6822  _totalSupply */\n      0x02\n      0x00\n        /* \"@openzeppelin/contracts/token/ERC20/ERC20.sol\":6810:6831  _totalSupply -= value */\n      dup3\n      dup3\n      sload\n      sub\n      swap3\n      pop\n      pop\n      dup2\n      swap1\n      sstore\n      pop\n        /* \"@openzeppelin/contracts/token/ERC20/ERC20.sol\":6643:7068  if (to == address(0)) {... */\n      jump(tag_127)\n    tag_126:\n        /* \"@openzeppelin/contracts/token/ERC20/ERC20.sol\":7038:7043  value */\n      dup1\n        /* \"@openzeppelin/contracts/token/ERC20/ERC20.sol\":7021:7030  _balances */\n      0x00\n        /* \"@openzeppelin/contracts/token/ERC20/ERC20.sol\":7021:7034  _balances[to] */\n      dup1\n        /* \"@openzeppelin/contracts/token/ERC20/ERC20.sol\":7031:7033  to */\n      dup5\n        /* \"@openzeppelin/contracts/token/ERC20/ERC20.sol\":7021:7034  _balances[to] */\n      0xffffffffffffffffffffffffffffffffffffffff\n      and\n      0xffffffffffffffffffffffffffffffffffffffff\n      and\n      dup2\n      mstore\n      0x20\n      add\n      swap1\n      dup2\n      mstore\n      0x20\n      add\n      0x00\n      keccak256\n      0x00\n        /* \"@openzeppelin/contracts/token/ERC20/ERC20.sol\":7021:7043  _balances[to] += value */\n      dup3\n      dup3\n      sload\n      add\n      swap3\n      pop\n      pop\n      dup2\n      swap1\n      sstore\n      pop\n        /* \"@openzeppelin/contracts/token/ERC20/ERC20.sol\":6643:7068  if (to == address(0)) {... */\n    tag_127:\n        /* \"@openzeppelin/contracts/token/ERC20/ERC20.sol\":7098:7100  to */\n      dup2\n        /* \"@openzeppelin/contracts/token/ERC20/ERC20.sol\":7083:7108  Transfer(from, to, value) */\n      0xffffffffffffffffffffffffffffffffffffffff\n      and\n        /* \"@openzeppelin/contracts/token/ERC20/ERC20.sol\":7092:7096  from */\n      dup4\n        /* \"@openzeppelin/contracts/token/ERC20/ERC20.sol\":7083:7108  Transfer(from, to, value) */\n      0xffffffffffffffffffffffffffffffffffffffff\n      and\n      0xddf252ad1be2c89b69c2b068fc378daa952ba7f163c4a11628f55a4df523b3ef\n        /* \"@openzeppelin/contracts/token/ERC20/ERC20.sol\":7102:7107  value */\n      dup4\n        /* \"@openzeppelin/contracts/token/ERC20/ERC20.sol\":7083:7108  Transfer(from, to, value) */\n      mload(0x40)\n      tag_128\n      swap2\n      swap1\n      tag_27\n      jump\t// in\n    tag_128:\n      mload(0x40)\n      dup1\n      swap2\n      sub\n      swap1\n      log3\n        /* \"@openzeppelin/contracts/token/ERC20/ERC20.sol\":6008:7115  function _update(address from, address to, uint256 value) internal virtual {... */\n      pop\n      pop\n      pop\n      jump\t// out\n        /* \"#utility.yul\":7:106   */\n    tag_129:\n        /* \"#utility.yul\":59:65   */\n      0x00\n        /* \"#utility.yul\":93:98   */\n      dup2\n        /* \"#utility.yul\":87:99   */\n      mload\n        /* \"#utility.yul\":77:99   */\n      swap1\n      pop\n        /* \"#utility.yul\":7:106   */\n      swap2\n      swap1\n      pop\n      jump\t// out\n        /* \"#utility.yul\":112:281   */\n    tag_130:\n        /* \"#utility.yul\":196:207   */\n      0x00\n        /* \"#utility.yul\":230:236   */\n      dup3\n        /* \"#utility.yul\":225:228   */\n      dup3\n        /* \"#utility.yul\":218:237   */\n      mstore\n        /* \"#utility.yul\":270:274   */\n      0x20\n        /* \"#utility.yul\":265:268   */\n      dup3\n        /* \"#utility.yul\":261:275   */\n      add\n        /* \"#utility.yul\":246:275   */\n      swap1\n      pop\n        /* \"#utility.yul\":112:281   */\n      swap3\n      swap2\n      pop\n      pop\n      jump\t// out\n        /* \"#utility.yul\":287:533   */\n    tag_131:\n        /* \"#utility.yul\":368:369   */\n      0x00\n        /* \"#utility.yul\":378:491   */\n    tag_158:\n        /* \"#utility.yul\":392:398   */\n      dup4\n        /* \"#utility.yul\":389:390   */\n      dup2\n        /* \"#utility.yul\":386:399   */\n      lt\n        /* \"#utility.yul\":378:491   */\n      iszero\n      tag_160\n      jumpi\n        /* \"#utility.yul\":477:478   */\n      dup1\n        /* \"#utility.yul\":472:475   */\n      dup3\n        /* \"#utility.yul\":468:479   */\n      add\n        /* \"#utility.yul\":462:480   */\n      mload\n        /* \"#utility.yul\":458:459   */\n      dup2\n        /* \"#utility.yul\":453:456   */\n      dup5\n        /* \"#utility.yul\":449:460   */\n      add\n        /* \"#utility.yul\":442:481   */\n      mstore\n        /* \"#utility.yul\":414:416   */\n      0x20\n        /* \"#utility.yul\":411:412   */\n      dup2\n        /* \"#utility.yul\":407:417   */\n      add\n        /* \"#utility.yul\":402:417   */\n      swap1\n      pop\n        /* \"#utility.yul\":378:491   */\n      jump(tag_158)\n    tag_160:\n        /* \"#utility.yul\":525:526   */\n      0x00\n        /* \"#utility.yul\":516:522   */\n      dup5\n        /* \"#utility.yul\":511:514   */\n      dup5\n        /* \"#utility.yul\":507:523   */\n      add\n        /* \"#utility.yul\":500:527   */\n      mstore\n        /* \"#utility.yul\":349:533   */\n      pop\n        /* \"#utility.yul\":287:533   */\n      pop\n      pop\n      pop\n      jump\t// out\n        /* \"#utility.yul\":539:641   */\n    tag_132:\n        /* \"#utility.yul\":580:586   */\n      0x00\n        /* \"#utility.yul\":631:633   */\n      0x1f\n        /* \"#utility.yul\":627:634   */\n      not\n        /* \"#utility.yul\":622:624   */\n      0x1f\n        /* \"#utility.yul\":615:620   */\n      dup4\n        /* \"#utility.yul\":611:625   */\n      add\n        /* \"#utility.yul\":607:635   */\n      and\n        /* \"#utility.yul\":597:635   */\n      swap1\n      pop\n        /* \"#utility.yul\":539:641   */\n      swap2\n      swap1\n      pop\n      jump\t// out\n        /* \"#utility.yul\":647:1024   */\n    tag_133:\n        /* \"#utility.yul\":735:738   */\n      0x00\n        /* \"#utility.yul\":763:802   */\n      tag_163\n        /* \"#utility.yul\":796:801   */\n      dup3\n        /* \"#utility.yul\":763:802   */\n      tag_129\n      jump\t// in\n    tag_163:\n        /* \"#utility.yul\":818:889   */\n      tag_164\n        /* \"#utility.yul\":882:888   */\n      dup2\n        /* \"#utility.yul\":877:880   */\n      dup6\n        /* \"#utility.yul\":818:889   */\n      tag_130\n      jump\t// in\n    tag_164:\n        /* \"#utility.yul\":811:889   */\n      swap4\n      pop\n        /* \"#utility.yul\":898:963   */\n      tag_165\n        /* \"#utility.yul\":956:962   */\n      dup2\n        /* \"#utility.yul\":951:954   */\n      dup6\n        /* \"#utility.yul\":944:948   */\n      0x20\n        /* \"#utility.yul\":937:942   */\n      dup7\n        /* \"#utility.yul\":933:949   */\n      add\n        /* \"#utility.yul\":898:963   */\n      tag_131\n      jump\t// in\n    tag_165:\n        /* \"#utility.yul\":988:1017   */\n      tag_166\n        /* \"#utility.yul\":1010:1016   */\n      dup2\n        /* \"#utility.yul\":988:1017   */\n      tag_132\n      jump\t// in\n    tag_166:\n        /* \"#utility.yul\":983:986   */\n      dup5\n        /* \"#utility.yul\":979:1018   */\n      add\n        /* \"#utility.yul\":972:1018   */\n      swap2\n      pop\n        /* \"#utility.yul\":739:1024   */\n      pop\n        /* \"#utility.yul\":647:1024   */\n      swap3\n      swap2\n      pop\n      pop\n      jump\t// out\n        /* \"#utility.yul\":1030:1343   */\n    tag_17:\n        /* \"#utility.yul\":1143:1147   */\n      0x00\n        /* \"#utility.yul\":1181:1183   */\n      0x20\n        /* \"#utility.yul\":1170:1179   */\n      dup3\n        /* \"#utility.yul\":1166:1184   */\n      add\n        /* \"#utility.yul\":1158:1184   */\n      swap1\n      pop\n        /* \"#utility.yul\":1230:1239   */\n      dup2\n        /* \"#utility.yul\":1224:1228   */\n      dup2\n        /* \"#utility.yul\":1220:1240   */\n      sub\n        /* \"#utility.yul\":1216:1217   */\n      0x00\n        /* \"#utility.yul\":1205:1214   */\n      dup4\n        /* \"#utility.yul\":1201:1218   */\n      add\n        /* \"#utility.yul\":1194:1241   */\n      mstore\n        /* \"#utility.yul\":1258:1336   */\n      tag_168\n        /* \"#utility.yul\":1331:1335   */\n      dup2\n        /* \"#utility.yul\":1322:1328   */\n      dup5\n        /* \"#utility.yul\":1258:1336   */\n      tag_133\n      jump\t// in\n    tag_168:\n        /* \"#utility.yul\":1250:1336   */\n      swap1\n      pop\n        /* \"#utility.yul\":1030:1343   */\n      swap3\n      swap2\n      pop\n      pop\n      jump\t// out\n        /* \"#utility.yul\":1430:1547   */\n    tag_135:\n        /* \"#utility.yul\":1539:1540   */\n      0x00\n        /* \"#utility.yul\":1536:1537   */\n      dup1\n        /* \"#utility.yul\":1529:1541   */\n      revert\n        /* \"#utility.yul\":1676:1802   */\n    tag_137:\n        /* \"#utility.yul\":1713:1720   */\n      0x00\n        /* \"#utility.yul\":1753:1795   */\n      0xffffffffffffffffffffffffffffffffffffffff\n        /* \"#utility.yul\":1746:1751   */\n      dup3\n        /* \"#utility.yul\":1742:1796   */\n      and\n        /* \"#utility.yul\":1731:1796   */\n      swap1\n      pop\n        /* \"#utility.yul\":1676:1802   */\n      swap2\n      swap1\n      pop\n      jump\t// out\n        /* \"#utility.yul\":1808:1904   */\n    tag_138:\n        /* \"#utility.yul\":1845:1852   */\n      0x00\n        /* \"#utility.yul\":1874:1898   */\n      tag_174\n        /* \"#utility.yul\":1892:1897   */\n      dup3\n        /* \"#utility.yul\":1874:1898   */\n      tag_137\n      jump\t// in\n    tag_174:\n        /* \"#utility.yul\":1863:1898   */\n      swap1\n      pop\n        /* \"#utility.yul\":1808:1904   */\n      swap2\n      swap1\n      pop\n      jump\t// out\n        /* \"#utility.yul\":1910:2032   */\n    tag_139:\n        /* \"#utility.yul\":1983:2007   */\n      tag_176\n        /* \"#utility.yul\":2001:2006   */\n      dup2\n        /* \"#utility.yul\":1983:2007   */\n      tag_138\n      jump\t// in\n    tag_176:\n        /* \"#utility.yul\":1976:1981   */\n      dup2\n        /* \"#utility.yul\":1973:2008   */\n      eq\n        /* \"#utility.yul\":1963:2026   */\n      tag_177\n      jumpi\n        /* \"#utility.yul\":2022:2023   */\n      0x00\n        /* \"#utility.yul\":2019:2020   */\n      dup1\n        /* \"#utility.yul\":2012:2024   */\n      revert\n        /* \"#utility.yul\":1963:2026   */\n    tag_177:\n        /* \"#utility.yul\":1910:2032   */\n      pop\n      jump\t// out\n        /* \"#utility.yul\":2038:2177   */\n    tag_140:\n        /* \"#utility.yul\":2084:2089   */\n      0x00\n        /* \"#utility.yul\":2122:2128   */\n      dup2\n        /* \"#utility.yul\":2109:2129   */\n      calldataload\n        /* \"#utility.yul\":2100:2129   */\n      swap1\n      pop\n        /* \"#utility.yul\":2138:2171   */\n      tag_179\n        /* \"#utility.yul\":2165:2170   */\n      dup2\n        /* \"#utility.yul\":2138:2171   */\n      tag_139\n      jump\t// in\n    tag_179:\n        /* \"#utility.yul\":2038:2177   */\n      swap3\n      swap2\n      pop\n      pop\n      jump\t// out\n        /* \"#utility.yul\":2183:2260   */\n    tag_141:\n        /* \"#utility.yul\":2220:2227   */\n      0x00\n        /* \"#utility.yul\":2249:2254   */\n      dup2\n        /* \"#utility.yul\":2238:2254   */\n      swap1\n      pop\n        /* \"#utility.yul\":2183:2260   */\n      swap2\n      swap1\n      pop\n      jump\t// out\n        /* \"#utility.yul\":2266:2388   */\n    tag_142:\n        /* \"#utility.yul\":2339:2363   */\n      tag_182\n        /* \"#utility.yul\":2357:2362   */\n      dup2\n        /* \"#utility.yul\":2339:2363   */\n      tag_141\n      jump\t// in\n    tag_182:\n        /* \"#utility.yul\":2332:2337   */\n      dup2\n        /* \"#utility.yul\":2329:2364   */\n      eq\n        /* \"#utility.yul\":2319:2382   */\n      tag_183\n      jumpi\n        /* \"#utility.yul\":2378:2379   */\n      0x00\n        /* \"#utility.yul\":2375:2376   */\n      dup1\n        /* \"#utility.yul\":2368:2380   */\n      revert\n        /* \"#utility.yul\":2319:2382   */\n    tag_183:\n        /* \"#utility.yul\":2266:2388   */\n      pop\n      jump\t// out\n        /* \"#utility.yul\":2394:2533   */\n    tag_143:\n        /* \"#utility.yul\":2440:2445   */\n      0x00\n        /* \"#utility.yul\":2478:2484   */\n      dup2\n        /* \"#utility.yul\":2465:2485   */\n      calldataload\n        /* \"#utility.yul\":2456:2485   */\n      swap1\n      pop\n        /* \"#utility.yul\":2494:2527   */\n      tag_185\n        /* \"#utility.yul\":2521:2526   */\n      dup2\n        /* \"#utility.yul\":2494:2527   */\n      tag_142\n      jump\t// in\n    tag_185:\n        /* \"#utility.yul\":2394:2533   */\n      swap3\n      swap2\n      pop\n      pop\n      jump\t// out\n        /* \"#utility.yul\":2539:3013   */\n    tag_20:\n        /* \"#utility.yul\":2607:2613   */\n      0x00\n        /* \"#utility.yul\":2615:2621   */\n      dup1\n        /* \"#utility.yul\":2664:2666   */\n      0x40\n        /* \"#utility.yul\":2652:2661   */\n      dup4\n        /* \"#utility.yul\":2643:2650   */\n      dup6\n        /* \"#utility.yul\":2639:2662   */\n      sub\n        /* \"#utility.yul\":2635:2667   */\n      slt\n        /* \"#utility.yul\":2632:2751   */\n      iszero\n      tag_187\n      jumpi\n        /* \"#utility.yul\":2670:2749   */\n      tag_188\n      tag_135\n      jump\t// in\n    tag_188:\n        /* \"#utility.yul\":2632:2751   */\n    tag_187:\n        /* \"#utility.yul\":2790:2791   */\n      0x00\n        /* \"#utility.yul\":2815:2868   */\n      tag_189\n        /* \"#utility.yul\":2860:2867   */\n      dup6\n        /* \"#utility.yul\":2851:2857   */\n      dup3\n        /* \"#utility.yul\":2840:2849   */\n      dup7\n        /* \"#utility.yul\":2836:2858   */\n      add\n        /* \"#utility.yul\":2815:2868   */\n      tag_140\n      jump\t// in\n    tag_189:\n        /* \"#utility.yul\":2805:2868   */\n      swap3\n      pop\n        /* \"#utility.yul\":2761:2878   */\n      pop\n        /* \"#utility.yul\":2917:2919   */\n      0x20\n        /* \"#utility.yul\":2943:2996   */\n      tag_190\n        /* \"#utility.yul\":2988:2995   */\n      dup6\n        /* \"#utility.yul\":2979:2985   */\n      dup3\n        /* \"#utility.yul\":2968:2977   */\n      dup7\n        /* \"#utility.yul\":2964:2986   */\n      add\n        /* \"#utility.yul\":2943:2996   */\n      tag_143\n      jump\t// in\n    tag_190:\n        /* \"#utility.yul\":2933:2996   */\n      swap2\n      pop\n        /* \"#utility.yul\":2888:3006   */\n      pop\n        /* \"#utility.yul\":2539:3013   */\n      swap3\n      pop\n      swap3\n      swap1\n      pop\n      jump\t// out\n        /* \"#utility.yul\":3019:3109   */\n    tag_144:\n        /* \"#utility.yul\":3053:3060   */\n      0x00\n        /* \"#utility.yul\":3096:3101   */\n      dup2\n        /* \"#utility.yul\":3089:3102   */\n      iszero\n        /* \"#utility.yul\":3082:3103   */\n      iszero\n        /* \"#utility.yul\":3071:3103   */\n      swap1\n      pop\n        /* \"#utility.yul\":3019:3109   */\n      swap2\n      swap1\n      pop\n      jump\t// out\n        /* \"#utility.yul\":3115:3224   */\n    tag_145:\n        /* \"#utility.yul\":3196:3217   */\n      tag_193\n        /* \"#utility.yul\":3211:3216   */\n      dup2\n        /* \"#utility.yul\":3196:3217   */\n      tag_144\n      jump\t// in\n    tag_193:\n        /* \"#utility.yul\":3191:3194   */\n      dup3\n        /* \"#utility.yul\":3184:3218   */\n      mstore\n        /* \"#utility.yul\":3115:3224   */\n      pop\n      pop\n      jump\t// out\n        /* \"#utility.yul\":3230:3440   */\n    tag_23:\n        /* \"#utility.yul\":3317:3321   */\n      0x00\n        /* \"#utility.yul\":3355:3357   */\n      0x20\n        /* \"#utility.yul\":3344:3353   */\n      dup3\n        /* \"#utility.yul\":3340:3358   */\n      add\n        /* \"#utility.yul\":3332:3358   */\n      swap1\n      pop\n        /* \"#utility.yul\":3368:3433   */\n      tag_195\n        /* \"#utility.yul\":3430:3431   */\n      0x00\n        /* \"#utility.yul\":3419:3428   */\n      dup4\n        /* \"#utility.yul\":3415:3432   */\n      add\n        /* \"#utility.yul\":3406:3412   */\n      dup5\n        /* \"#utility.yul\":3368:3433   */\n      tag_145\n      jump\t// in\n    tag_195:\n        /* \"#utility.yul\":3230:3440   */\n      swap3\n      swap2\n      pop\n      pop\n      jump\t// out\n        /* \"#utility.yul\":3446:3564   */\n    tag_146:\n        /* \"#utility.yul\":3533:3557   */\n      tag_197\n        /* \"#utility.yul\":3551:3556   */\n      dup2\n        /* \"#utility.yul\":3533:3557   */\n      tag_141\n      jump\t// in\n    tag_197:\n        /* \"#utility.yul\":3528:3531   */\n      dup3\n        /* \"#utility.yul\":3521:3558   */\n      mstore\n        /* \"#utility.yul\":3446:3564   */\n      pop\n      pop\n      jump\t// out\n        /* \"#utility.yul\":3570:3792   */\n    tag_27:\n        /* \"#utility.yul\":3663:3667   */\n      0x00\n        /* \"#utility.yul\":3701:3703   */\n      0x20\n        /* \"#utility.yul\":3690:3699   */\n      dup3\n        /* \"#utility.yul\":3686:3704   */\n      add\n        /* \"#utility.yul\":3678:3704   */\n      swap1\n      pop\n        /* \"#utility.yul\":3714:3785   */\n      tag_199\n        /* \"#utility.yul\":3782:3783   */\n      0x00\n        /* \"#utility.yul\":3771:3780   */\n      dup4\n        /* \"#utility.yul\":3767:3784   */\n      add\n        /* \"#utility.yul\":3758:3764   */\n      dup5\n        /* \"#utility.yul\":3714:3785   */\n      tag_146\n      jump\t// in\n    tag_199:\n        /* \"#utility.yul\":3570:3792   */\n      swap3\n      swap2\n      pop\n      pop\n      jump\t// out\n        /* \"#utility.yul\":3798:4417   */\n    tag_30:\n        /* \"#utility.yul\":3875:3881   */\n      0x00\n        /* \"#utility.yul\":3883:3889   */\n      dup1\n        /* \"#utility.yul\":3891:3897   */\n      0x00\n        /* \"#utility.yul\":3940:3942   */\n      0x60\n        /* \"#utility.yul\":3928:3937   */\n      dup5\n        /* \"#utility.yul\":3919:3926   */\n      dup7\n        /* \"#utility.yul\":3915:3938   */\n      sub\n        /* \"#utility.yul\":3911:3943   */\n      slt\n        /* \"#utility.yul\":3908:4027   */\n      iszero\n      tag_201\n      jumpi\n        /* \"#utility.yul\":3946:4025   */\n      tag_202\n      tag_135\n      jump\t// in\n    tag_202:\n        /* \"#utility.yul\":3908:4027   */\n    tag_201:\n        /* \"#utility.yul\":4066:4067   */\n      0x00\n        /* \"#utility.yul\":4091:4144   */\n      tag_203\n        /* \"#utility.yul\":4136:4143   */\n      dup7\n        /* \"#utility.yul\":4127:4133   */\n      dup3\n        /* \"#utility.yul\":4116:4125   */\n      dup8\n        /* \"#utility.yul\":4112:4134   */\n      add\n        /* \"#utility.yul\":4091:4144   */\n      tag_140\n      jump\t// in\n    tag_203:\n        /* \"#utility.yul\":4081:4144   */\n      swap4\n      pop\n        /* \"#utility.yul\":4037:4154   */\n      pop\n        /* \"#utility.yul\":4193:4195   */\n      0x20\n        /* \"#utility.yul\":4219:4272   */\n      tag_204\n        /* \"#utility.yul\":4264:4271   */\n      dup7\n        /* \"#utility.yul\":4255:4261   */\n      dup3\n        /* \"#utility.yul\":4244:4253   */\n      dup8\n        /* \"#utility.yul\":4240:4262   */\n      add\n        /* \"#utility.yul\":4219:4272   */\n      tag_140\n      jump\t// in\n    tag_204:\n        /* \"#utility.yul\":4209:4272   */\n      swap3\n      pop\n        /* \"#utility.yul\":4164:4282   */\n      pop\n        /* \"#utility.yul\":4321:4323   */\n      0x40\n        /* \"#utility.yul\":4347:4400   */\n      tag_205\n        /* \"#utility.yul\":4392:4399   */\n      dup7\n        /* \"#utility.yul\":4383:4389   */\n      dup3\n        /* \"#utility.yul\":4372:4381   */\n      dup8\n        /* \"#utility.yul\":4368:4390   */\n      add\n        /* \"#utility.yul\":4347:4400   */\n      tag_143\n      jump\t// in\n    tag_205:\n        /* \"#utility.yul\":4337:4400   */\n      swap2\n      pop\n        /* \"#utility.yul\":4292:4410   */\n      pop\n        /* \"#utility.yul\":3798:4417   */\n      swap3\n      pop\n      swap3\n      pop\n      swap3\n      jump\t// out\n        /* \"#utility.yul\":4423:4509   */\n    tag_147:\n        /* \"#utility.yul\":4458:4465   */\n      0x00\n        /* \"#utility.yul\":4498:4502   */\n      0xff\n        /* \"#utility.yul\":4491:4496   */\n      dup3\n        /* \"#utility.yul\":4487:4503   */\n      and\n        /* \"#utility.yul\":4476:4503   */\n      swap1\n      pop\n        /* \"#utility.yul\":4423:4509   */\n      swap2\n      swap1\n      pop\n      jump\t// out\n        /* \"#utility.yul\":4515:4627   */\n    tag_148:\n        /* \"#utility.yul\":4598:4620   */\n      tag_208\n        /* \"#utility.yul\":4614:4619   */\n      dup2\n        /* \"#utility.yul\":4598:4620   */\n      tag_147\n      jump\t// in\n    tag_208:\n        /* \"#utility.yul\":4593:4596   */\n      dup3\n        /* \"#utility.yul\":4586:4621   */\n      mstore\n        /* \"#utility.yul\":4515:4627   */\n      pop\n      pop\n      jump\t// out\n        /* \"#utility.yul\":4633:4847   */\n    tag_36:\n        /* \"#utility.yul\":4722:4726   */\n      0x00\n        /* \"#utility.yul\":4760:4762   */\n      0x20\n        /* \"#utility.yul\":4749:4758   */\n      dup3\n        /* \"#utility.yul\":4745:4763   */\n      add\n        /* \"#utility.yul\":4737:4763   */\n      swap1\n      pop\n        /* \"#utility.yul\":4773:4840   */\n      tag_210\n        /* \"#utility.yul\":4837:4838   */\n      0x00\n        /* \"#utility.yul\":4826:4835   */\n      dup4\n        /* \"#utility.yul\":4822:4839   */\n      add\n        /* \"#utility.yul\":4813:4819   */\n      dup5\n        /* \"#utility.yul\":4773:4840   */\n      tag_148\n      jump\t// in\n    tag_210:\n        /* \"#utility.yul\":4633:4847   */\n      swap3\n      swap2\n      pop\n      pop\n      jump\t// out\n        /* \"#utility.yul\":4853:5182   */\n    tag_39:\n        /* \"#utility.yul\":4912:4918   */\n      0x00\n        /* \"#utility.yul\":4961:4963   */\n      0x20\n        /* \"#utility.yul\":4949:4958   */\n      dup3\n        /* \"#utility.yul\":4940:4947   */\n      dup5\n        /* \"#utility.yul\":4936:4959   */\n      sub\n        /* \"#utility.yul\":4932:4964   */\n      slt\n        /* \"#utility.yul\":4929:5048   */\n      iszero\n      tag_212\n      jumpi\n        /* \"#utility.yul\":4967:5046   */\n      tag_213\n      tag_135\n      jump\t// in\n    tag_213:\n        /* \"#utility.yul\":4929:5048   */\n    tag_212:\n        /* \"#utility.yul\":5087:5088   */\n      0x00\n        /* \"#utility.yul\":5112:5165   */\n      tag_214\n        /* \"#utility.yul\":5157:5164   */\n      dup5\n        /* \"#utility.yul\":5148:5154   */\n      dup3\n        /* \"#utility.yul\":5137:5146   */\n      dup6\n        /* \"#utility.yul\":5133:5155   */\n      add\n        /* \"#utility.yul\":5112:5165   */\n      tag_140\n      jump\t// in\n    tag_214:\n        /* \"#utility.yul\":5102:5165   */\n      swap2\n      pop\n        /* \"#utility.yul\":5058:5175   */\n      pop\n        /* \"#utility.yul\":4853:5182   */\n      swap3\n      swap2\n      pop\n      pop\n      jump\t// out\n        /* \"#utility.yul\":5188:5662   */\n    tag_51:\n        /* \"#utility.yul\":5256:5262   */\n      0x00\n        /* \"#utility.yul\":5264:5270   */\n      dup1\n        /* \"#utility.yul\":5313:5315   */\n      0x40\n        /* \"#utility.yul\":5301:5310   */\n      dup4\n        /* \"#utility.yul\":5292:5299   */\n      dup6\n        /* \"#utility.yul\":5288:5311   */\n      sub\n        /* \"#utility.yul\":5284:5316   */\n      slt\n        /* \"#utility.yul\":5281:5400   */\n      iszero\n      tag_216\n      jumpi\n        /* \"#utility.yul\":5319:5398   */\n      tag_217\n      tag_135\n      jump\t// in\n    tag_217:\n        /* \"#utility.yul\":5281:5400   */\n    tag_216:\n        /* \"#utility.yul\":5439:5440   */\n      0x00\n        /* \"#utility.yul\":5464:5517   */\n      tag_218\n        /* \"#utility.yul\":5509:5516   */\n      dup6\n        /* \"#utility.yul\":5500:5506   */\n      dup3\n        /* \"#utility.yul\":5489:5498   */\n      dup7\n        /* \"#utility.yul\":5485:5507   */\n      add\n        /* \"#utility.yul\":5464:5517   */\n      tag_140\n      jump\t// in\n    tag_218:\n        /* \"#utility.yul\":5454:5517   */\n      swap3\n      pop\n        /* \"#utility.yul\":5410:5527   */\n      pop\n        /* \"#utility.yul\":5566:5568   */\n      0x20\n        /* \"#utility.yul\":5592:5645   */\n      tag_219\n        /* \"#utility.yul\":5637:5644   */\n      dup6\n        /* \"#utility.yul\":5628:5634   */\n      dup3\n        /* \"#utility.yul\":5617:5626   */\n      dup7\n        /* \"#utility.yul\":5613:5635   */\n      add\n        /* \"#utility.yul\":5592:5645   */\n      tag_140\n      jump\t// in\n    tag_219:\n        /* \"#utility.yul\":5582:5645   */\n      swap2\n      pop\n        /* \"#utility.yul\":5537:5655   */\n      pop\n        /* \"#utility.yul\":5188:5662   */\n      swap3\n      pop\n      swap3\n      swap1\n      pop\n      jump\t// out\n        /* \"#utility.yul\":5668:5848   */\n    tag_149:\n        /* \"#utility.yul\":5716:5793   */\n      0x4e487b7100000000000000000000000000000000000000000000000000000000\n        /* \"#utility.yul\":5713:5714   */\n      0x00\n        /* \"#utility.yul\":5706:5794   */\n      mstore\n        /* \"#utility.yul\":5813:5817   */\n      0x22\n        /* \"#utility.yul\":5810:5811   */\n      0x04\n        /* \"#utility.yul\":5803:5818   */\n      mstore\n        /* \"#utility.yul\":5837:5841   */\n      0x24\n        /* \"#utility.yul\":5834:5835   */\n      0x00\n        /* \"#utility.yul\":5827:5842   */\n      revert\n        /* \"#utility.yul\":5854:6174   */\n    tag_59:\n        /* \"#utility.yul\":5898:5904   */\n      0x00\n        /* \"#utility.yul\":5935:5936   */\n      0x02\n        /* \"#utility.yul\":5929:5933   */\n      dup3\n        /* \"#utility.yul\":5925:5937   */\n      div\n        /* \"#utility.yul\":5915:5937   */\n      swap1\n      pop\n        /* \"#utility.yul\":5982:5983   */\n      0x01\n        /* \"#utility.yul\":5976:5980   */\n      dup3\n        /* \"#utility.yul\":5972:5984   */\n      and\n        /* \"#utility.yul\":6003:6021   */\n      dup1\n        /* \"#utility.yul\":5993:6074   */\n      tag_222\n      jumpi\n        /* \"#utility.yul\":6059:6063   */\n      0x7f\n        /* \"#utility.yul\":6051:6057   */\n      dup3\n        /* \"#utility.yul\":6047:6064   */\n      and\n        /* \"#utility.yul\":6037:6064   */\n      swap2\n      pop\n        /* \"#utility.yul\":5993:6074   */\n    tag_222:\n        /* \"#utility.yul\":6121:6123   */\n      0x20\n        /* \"#utility.yul\":6113:6119   */\n      dup3\n        /* \"#utility.yul\":6110:6124   */\n      lt\n        /* \"#utility.yul\":6090:6108   */\n      dup2\n        /* \"#utility.yul\":6087:6125   */\n      sub\n        /* \"#utility.yul\":6084:6168   */\n      tag_223\n      jumpi\n        /* \"#utility.yul\":6140:6158   */\n      tag_224\n      tag_149\n      jump\t// in\n    tag_224:\n        /* \"#utility.yul\":6084:6168   */\n    tag_223:\n        /* \"#utility.yul\":5905:6174   */\n      pop\n        /* \"#utility.yul\":5854:6174   */\n      swap2\n      swap1\n      pop\n      jump\t// out\n        /* \"#utility.yul\":6180:6345   */\n    tag_150:\n        /* \"#utility.yul\":6320:6337   */\n      0x496e76616c6964417070726f7665720000000000000000000000000000000000\n        /* \"#utility.yul\":6316:6317   */\n      0x00\n        /* \"#utility.yul\":6308:6314   */\n      dup3\n        /* \"#utility.yul\":6304:6318   */\n      add\n        /* \"#utility.yul\":6297:6338   */\n      mstore\n        /* \"#utility.yul\":6180:6345   */\n      pop\n      jump\t// out\n        /* \"#utility.yul\":6351:6717   */\n    tag_151:\n        /* \"#utility.yul\":6493:6496   */\n      0x00\n        /* \"#utility.yul\":6514:6581   */\n      tag_227\n        /* \"#utility.yul\":6578:6580   */\n      0x0f\n        /* \"#utility.yul\":6573:6576   */\n      dup4\n        /* \"#utility.yul\":6514:6581   */\n      tag_130\n      jump\t// in\n    tag_227:\n        /* \"#utility.yul\":6507:6581   */\n      swap2\n      pop\n        /* \"#utility.yul\":6590:6683   */\n      tag_228\n        /* \"#utility.yul\":6679:6682   */\n      dup3\n        /* \"#utility.yul\":6590:6683   */\n      tag_150\n      jump\t// in\n    tag_228:\n        /* \"#utility.yul\":6708:6710   */\n      0x20\n        /* \"#utility.yul\":6703:6706   */\n      dup3\n        /* \"#utility.yul\":6699:6711   */\n      add\n        /* \"#utility.yul\":6692:6711   */\n      swap1\n      pop\n        /* \"#utility.yul\":6351:6717   */\n      swap2\n      swap1\n      pop\n      jump\t// out\n        /* \"#utility.yul\":6723:7142   */\n    tag_91:\n        /* \"#utility.yul\":6889:6893   */\n      0x00\n        /* \"#utility.yul\":6927:6929   */\n      0x20\n        /* \"#utility.yul\":6916:6925   */\n      dup3\n        /* \"#utility.yul\":6912:6930   */\n      add\n        /* \"#utility.yul\":6904:6930   */\n      swap1\n      pop\n        /* \"#utility.yul\":6976:6985   */\n      dup2\n        /* \"#utility.yul\":6970:6974   */\n      dup2\n        /* \"#utility.yul\":6966:6986   */\n      sub\n        /* \"#utility.yul\":6962:6963   */\n      0x00\n        /* \"#utility.yul\":6951:6960   */\n      dup4\n        /* \"#utility.yul\":6947:6964   */\n      add\n        /* \"#utility.yul\":6940:6987   */\n      mstore\n        /* \"#utility.yul\":7004:7135   */\n      tag_230\n        /* \"#utility.yul\":7130:7134   */\n      dup2\n        /* \"#utility.yul\":7004:7135   */\n      tag_151\n      jump\t// in\n    tag_230:\n        /* \"#utility.yul\":6996:7135   */\n      swap1\n      pop\n        /* \"#utility.yul\":6723:7142   */\n      swap2\n      swap1\n      pop\n      jump\t// out\n        /* \"#utility.yul\":7148:7266   */\n    tag_152:\n        /* \"#utility.yul\":7235:7259   */\n      tag_232\n        /* \"#utility.yul\":7253:7258   */\n      dup2\n        /* \"#utility.yul\":7235:7259   */\n      tag_138\n      jump\t// in\n    tag_232:\n        /* \"#utility.yul\":7230:7233   */\n      dup3\n        /* \"#utility.yul\":7223:7260   */\n      mstore\n        /* \"#utility.yul\":7148:7266   */\n      pop\n      pop\n      jump\t// out\n        /* \"#utility.yul\":7272:7714   */\n    tag_102:\n        /* \"#utility.yul\":7421:7425   */\n      0x00\n        /* \"#utility.yul\":7459:7461   */\n      0x60\n        /* \"#utility.yul\":7448:7457   */\n      dup3\n        /* \"#utility.yul\":7444:7462   */\n      add\n        /* \"#utility.yul\":7436:7462   */\n      swap1\n      pop\n        /* \"#utility.yul\":7472:7543   */\n      tag_234\n        /* \"#utility.yul\":7540:7541   */\n      0x00\n        /* \"#utility.yul\":7529:7538   */\n      dup4\n        /* \"#utility.yul\":7525:7542   */\n      add\n        /* \"#utility.yul\":7516:7522   */\n      dup7\n        /* \"#utility.yul\":7472:7543   */\n      tag_152\n      jump\t// in\n    tag_234:\n        /* \"#utility.yul\":7553:7625   */\n      tag_235\n        /* \"#utility.yul\":7621:7623   */\n      0x20\n        /* \"#utility.yul\":7610:7619   */\n      dup4\n        /* \"#utility.yul\":7606:7624   */\n      add\n        /* \"#utility.yul\":7597:7603   */\n      dup6\n        /* \"#utility.yul\":7553:7625   */\n      tag_146\n      jump\t// in\n    tag_235:\n        /* \"#utility.yul\":7635:7707   */\n      tag_236\n        /* \"#utility.yul\":7703:7705   */\n      0x40\n        /* \"#utility.yul\":7692:7701   */\n      dup4\n        /* \"#utility.yul\":7688:7706   */\n      add\n        /* \"#utility.yul\":7679:7685   */\n      dup5\n        /* \"#utility.yul\":7635:7707   */\n      tag_146\n      jump\t// in\n    tag_236:\n        /* \"#utility.yul\":7272:7714   */\n      swap5\n      swap4\n      pop\n      pop\n      pop\n      pop\n      jump\t// out\n        /* \"#utility.yul\":7720:7942   */\n    tag_107:\n        /* \"#utility.yul\":7813:7817   */\n      0x00\n        /* \"#utility.yul\":7851:7853   */\n      0x20\n        /* \"#utility.yul\":7840:7849   */\n      dup3\n        /* \"#utility.yul\":7836:7854   */\n      add\n        /* \"#utility.yul\":7828:7854   */\n      swap1\n      pop\n        /* \"#utility.yul\":7864:7935   */\n      tag_238\n        /* \"#utility.yul\":7932:7933   */\n      0x00\n        /* \"#utility.yul\":7921:7930   */\n      dup4\n        /* \"#utility.yul\":7917:7934   */\n      add\n        /* \"#utility.yul\":7908:7914   */\n      dup5\n        /* \"#utility.yul\":7864:7935   */\n      tag_152\n      jump\t// in\n    tag_238:\n        /* \"#utility.yul\":7720:7942   */\n      swap3\n      swap2\n      pop\n      pop\n      jump\t// out\n        /* \"#utility.yul\":7948:8128   */\n    tag_153:\n        /* \"#utility.yul\":7996:8073   */\n      0x4e487b7100000000000000000000000000000000000000000000000000000000\n        /* \"#utility.yul\":7993:7994   */\n      0x00\n        /* \"#utility.yul\":7986:8074   */\n      mstore\n        /* \"#utility.yul\":8093:8097   */\n      0x11\n        /* \"#utility.yul\":8090:8091   */\n      0x04\n        /* \"#utility.yul\":8083:8098   */\n      mstore\n        /* \"#utility.yul\":8117:8121   */\n      0x24\n        /* \"#utility.yul\":8114:8115   */\n      0x00\n        /* \"#utility.yul\":8107:8122   */\n      revert\n        /* \"#utility.yul\":8134:8325   */\n    tag_122:\n        /* \"#utility.yul\":8174:8177   */\n      0x00\n        /* \"#utility.yul\":8193:8213   */\n      tag_241\n        /* \"#utility.yul\":8211:8212   */\n      dup3\n        /* \"#utility.yul\":8193:8213   */\n      tag_141\n      jump\t// in\n    tag_241:\n        /* \"#utility.yul\":8188:8213   */\n      swap2\n      pop\n        /* \"#utility.yul\":8227:8247   */\n      tag_242\n        /* \"#utility.yul\":8245:8246   */\n      dup4\n        /* \"#utility.yul\":8227:8247   */\n      tag_141\n      jump\t// in\n    tag_242:\n        /* \"#utility.yul\":8222:8247   */\n      swap3\n      pop\n        /* \"#utility.yul\":8270:8271   */\n      dup3\n        /* \"#utility.yul\":8267:8268   */\n      dup3\n        /* \"#utility.yul\":8263:8272   */\n      add\n        /* \"#utility.yul\":8256:8272   */\n      swap1\n      pop\n        /* \"#utility.yul\":8291:8294   */\n      dup1\n        /* \"#utility.yul\":8288:8289   */\n      dup3\n        /* \"#utility.yul\":8285:8295   */\n      gt\n        /* \"#utility.yul\":8282:8318   */\n      iszero\n      tag_243\n      jumpi\n        /* \"#utility.yul\":8298:8316   */\n      tag_244\n      tag_153\n      jump\t// in\n    tag_244:\n        /* \"#utility.yul\":8282:8318   */\n    tag_243:\n        /* \"#utility.yul\":8134:8325   */\n      swap3\n      swap2\n      pop\n      pop\n      jump\t// out\n\n    auxdata: 0xa2646970667358221220617ac34712851c8d5ce2fee38d6daa7e1ddfb46383065b332266345e39a9e14264736f6c63430008140033\n}\n",
				"bytecode": {
					"linkReferences": {},
					"object": "608060405234801562000010575f80fd5b506040516200197738038062001977833981810160405281019062000036919062000586565b8282816003908162000049919062000861565b5080600490816200005b919062000861565b505050620000703382620000ba60201b60201c565b8360055f6101000a81548173ffffffffffffffffffffffffffffffffffffffff021916908373ffffffffffffffffffffffffffffffffffffffff1602179055505050505062000a3f565b5f73ffffffffffffffffffffffffffffffffffffffff168273ffffffffffffffffffffffffffffffffffffffff16036200012d575f6040517fec442f0500000000000000000000000000000000000000000000000000000000815260040162000124919062000956565b60405180910390fd5b620001405f83836200014460201b60201c565b5050565b5f73ffffffffffffffffffffffffffffffffffffffff168373ffffffffffffffffffffffffffffffffffffffff160362000198578060025f8282546200018b91906200099e565b9250508190555062000269565b5f805f8573ffffffffffffffffffffffffffffffffffffffff1673ffffffffffffffffffffffffffffffffffffffff1681526020019081526020015f205490508181101562000224578381836040517fe450d38c0000000000000000000000000000000000000000000000000000000081526004016200021b93929190620009e9565b60405180910390fd5b8181035f808673ffffffffffffffffffffffffffffffffffffffff1673ffffffffffffffffffffffffffffffffffffffff1681526020019081526020015f2081905550505b5f73ffffffffffffffffffffffffffffffffffffffff168273ffffffffffffffffffffffffffffffffffffffff1603620002b2578060025f8282540392505081905550620002fc565b805f808473ffffffffffffffffffffffffffffffffffffffff1673ffffffffffffffffffffffffffffffffffffffff1681526020019081526020015f205f82825401925050819055505b8173ffffffffffffffffffffffffffffffffffffffff168373ffffffffffffffffffffffffffffffffffffffff167fddf252ad1be2c89b69c2b068fc378daa952ba7f163c4a11628f55a4df523b3ef836040516200035b919062000a24565b60405180910390a3505050565b5f604051905090565b5f80fd5b5f80fd5b5f73ffffffffffffffffffffffffffffffffffffffff82169050919050565b5f620003a48262000379565b9050919050565b620003b68162000398565b8114620003c1575f80fd5b50565b5f81519050620003d481620003ab565b92915050565b5f80fd5b5f80fd5b5f601f19601f8301169050919050565b7f4e487b71000000000000000000000000000000000000000000000000000000005f52604160045260245ffd5b6200042a82620003e2565b810181811067ffffffffffffffff821117156200044c576200044b620003f2565b5b80604052505050565b5f6200046062000368565b90506200046e82826200041f565b919050565b5f67ffffffffffffffff82111562000490576200048f620003f2565b5b6200049b82620003e2565b9050602081019050919050565b5f5b83811015620004c7578082015181840152602081019050620004aa565b5f8484015250505050565b5f620004e8620004e28462000473565b62000455565b905082815260208101848484011115620005075762000506620003de565b5b62000514848285620004a8565b509392505050565b5f82601f830112620005335762000532620003da565b5b815162000545848260208601620004d2565b91505092915050565b5f819050919050565b62000562816200054e565b81146200056d575f80fd5b50565b5f81519050620005808162000557565b92915050565b5f805f8060808587031215620005a157620005a062000371565b5b5f620005b087828801620003c4565b945050602085015167ffffffffffffffff811115620005d457620005d362000375565b5b620005e2878288016200051c565b935050604085015167ffffffffffffffff81111562000606576200060562000375565b5b62000614878288016200051c565b9250506060620006278782880162000570565b91505092959194509250565b5f81519050919050565b7f4e487b71000000000000000000000000000000000000000000000000000000005f52602260045260245ffd5b5f60028204905060018216806200068257607f821691505b6020821081036200069857620006976200063d565b5b50919050565b5f819050815f5260205f209050919050565b5f6020601f8301049050919050565b5f82821b905092915050565b5f60088302620006fc7fffffffffffffffffffffffffffffffffffffffffffffffffffffffffffffffff82620006bf565b620007088683620006bf565b95508019841693508086168417925050509392505050565b5f819050919050565b5f62000749620007436200073d846200054e565b62000720565b6200054e565b9050919050565b5f819050919050565b620007648362000729565b6200077c620007738262000750565b848454620006cb565b825550505050565b5f90565b6200079262000784565b6200079f81848462000759565b505050565b5b81811015620007c657620007ba5f8262000788565b600181019050620007a5565b5050565b601f8211156200081557620007df816200069e565b620007ea84620006b0565b81016020851015620007fa578190505b620008126200080985620006b0565b830182620007a4565b50505b505050565b5f82821c905092915050565b5f620008375f19846008026200081a565b1980831691505092915050565b5f62000851838362000826565b9150826002028217905092915050565b6200086c8262000633565b67ffffffffffffffff811115620008885762000887620003f2565b5b6200089482546200066a565b620008a1828285620007ca565b5f60209050601f831160018114620008d7575f8415620008c2578287015190505b620008ce858262000844565b8655506200093d565b601f198416620008e7866200069e565b5f5b828110156200091057848901518255600182019150602085019450602081019050620008e9565b868310156200093057848901516200092c601f89168262000826565b8355505b6001600288020188555050505b505050505050565b620009508162000398565b82525050565b5f6020820190506200096b5f83018462000945565b92915050565b7f4e487b71000000000000000000000000000000000000000000000000000000005f52601160045260245ffd5b5f620009aa826200054e565b9150620009b7836200054e565b9250828201905080821115620009d257620009d162000971565b5b92915050565b620009e3816200054e565b82525050565b5f606082019050620009fe5f83018662000945565b62000a0d6020830185620009d8565b62000a1c6040830184620009d8565b949350505050565b5f60208201905062000a395f830184620009d8565b92915050565b610f2a8062000a4d5f395ff3fe608060405234801561000f575f80fd5b506004361061009c575f3560e01c806370a082311161006457806370a082311461015a57806395d89b411461018a578063a9059cbb146101a8578063dd62ed3e146101d8578063e1f21c67146102085761009c565b806306fdde03146100a0578063095ea7b3146100be57806318160ddd146100ee57806323b872dd1461010c578063313ce5671461013c575b5f80fd5b6100a8610224565b6040516100b59190610b3b565b60405180910390f35b6100d860048036038101906100d39190610bec565b6102b4565b6040516100e59190610c44565b60405180910390f35b6100f66102d6565b6040516101039190610c6c565b60405180910390f35b61012660048036038101906101219190610c85565b6102df565b6040516101339190610c44565b60405180910390f35b61014461030d565b6040516101519190610cf0565b60405180910390f35b610174600480360381019061016f9190610d09565b610315565b6040516101819190610c6c565b60405180910390f35b61019261035a565b60405161019f9190610b3b565b60405180910390f35b6101c260048036038101906101bd9190610bec565b6103ea565b6040516101cf9190610c44565b60405180910390f35b6101f260048036038101906101ed9190610d34565b61040c565b6040516101ff9190610c6c565b60405180910390f35b610222600480360381019061021d9190610c85565b61048e565b005b60606003805461023390610d9f565b80601f016020809104026020016040519081016040528092919081815260200182805461025f90610d9f565b80156102aa5780601f10610281576101008083540402835291602001916102aa565b820191905f5260205f20905b81548152906001019060200180831161028d57829003601f168201915b5050505050905090565b5f806102be61052d565b90506102cb818585610534565b600191505092915050565b5f600254905090565b5f806102e961052d565b90506102f6858285610546565b6103018585856105d9565b60019150509392505050565b5f6012905090565b5f805f8373ffffffffffffffffffffffffffffffffffffffff1673ffffffffffffffffffffffffffffffffffffffff1681526020019081526020015f20549050919050565b60606004805461036990610d9f565b80601f016020809104026020016040519081016040528092919081815260200182805461039590610d9f565b80156103e05780601f106103b7576101008083540402835291602001916103e0565b820191905f5260205f20905b8154815290600101906020018083116103c357829003601f168201915b5050505050905090565b5f806103f461052d565b90506104018185856105d9565b600191505092915050565b5f60015f8473ffffffffffffffffffffffffffffffffffffffff1673ffffffffffffffffffffffffffffffffffffffff1681526020019081526020015f205f8373ffffffffffffffffffffffffffffffffffffffff1673ffffffffffffffffffffffffffffffffffffffff1681526020019081526020015f2054905092915050565b60055f9054906101000a900473ffffffffffffffffffffffffffffffffffffffff1673ffffffffffffffffffffffffffffffffffffffff168373ffffffffffffffffffffffffffffffffffffffff160361051d576040517f08c379a000000000000000000000000000000000000000000000000000000000815260040161051490610e19565b60405180910390fd5b610528838383610534565b505050565b5f33905090565b61054183838360016106c9565b505050565b5f610551848461040c565b90507fffffffffffffffffffffffffffffffffffffffffffffffffffffffffffffffff8110156105d357818110156105c4578281836040517ffb8f41b20000000000000000000000000000000000000000000000000000000081526004016105bb93929190610e46565b60405180910390fd5b6105d284848484035f6106c9565b5b50505050565b5f73ffffffffffffffffffffffffffffffffffffffff168373ffffffffffffffffffffffffffffffffffffffff1603610649575f6040517f96c6fd1e0000000000000000000000000000000000000000000000000000000081526004016106409190610e7b565b60405180910390fd5b5f73ffffffffffffffffffffffffffffffffffffffff168273ffffffffffffffffffffffffffffffffffffffff16036106b9575f6040517fec442f050000000000000000000000000000000000000000000000000000000081526004016106b09190610e7b565b60405180910390fd5b6106c4838383610898565b505050565b5f73ffffffffffffffffffffffffffffffffffffffff168473ffffffffffffffffffffffffffffffffffffffff1603610739575f6040517fe602df050000000000000000000000000000000000000000000000000000000081526004016107309190610e7b565b60405180910390fd5b5f73ffffffffffffffffffffffffffffffffffffffff168373ffffffffffffffffffffffffffffffffffffffff16036107a9575f6040517f94280d620000000000000000000000000000000000000000000000000000000081526004016107a09190610e7b565b60405180910390fd5b8160015f8673ffffffffffffffffffffffffffffffffffffffff1673ffffffffffffffffffffffffffffffffffffffff1681526020019081526020015f205f8573ffffffffffffffffffffffffffffffffffffffff1673ffffffffffffffffffffffffffffffffffffffff1681526020019081526020015f20819055508015610892578273ffffffffffffffffffffffffffffffffffffffff168473ffffffffffffffffffffffffffffffffffffffff167f8c5be1e5ebec7d5bd14f71427d1e84f3dd0314c0f7b2291e5b200ac8c7c3b925846040516108899190610c6c565b60405180910390a35b50505050565b5f73ffffffffffffffffffffffffffffffffffffffff168373ffffffffffffffffffffffffffffffffffffffff16036108e8578060025f8282546108dc9190610ec1565b925050819055506109b6565b5f805f8573ffffffffffffffffffffffffffffffffffffffff1673ffffffffffffffffffffffffffffffffffffffff1681526020019081526020015f2054905081811015610971578381836040517fe450d38c00000000000000000000000000000000000000000000000000000000815260040161096893929190610e46565b60405180910390fd5b8181035f808673ffffffffffffffffffffffffffffffffffffffff1673ffffffffffffffffffffffffffffffffffffffff1681526020019081526020015f2081905550505b5f73ffffffffffffffffffffffffffffffffffffffff168273ffffffffffffffffffffffffffffffffffffffff16036109fd578060025f8282540392505081905550610a47565b805f808473ffffffffffffffffffffffffffffffffffffffff1673ffffffffffffffffffffffffffffffffffffffff1681526020019081526020015f205f82825401925050819055505b8173ffffffffffffffffffffffffffffffffffffffff168373ffffffffffffffffffffffffffffffffffffffff167fddf252ad1be2c89b69c2b068fc378daa952ba7f163c4a11628f55a4df523b3ef83604051610aa49190610c6c565b60405180910390a3505050565b5f81519050919050565b5f82825260208201905092915050565b5f5b83811015610ae8578082015181840152602081019050610acd565b5f8484015250505050565b5f601f19601f8301169050919050565b5f610b0d82610ab1565b610b178185610abb565b9350610b27818560208601610acb565b610b3081610af3565b840191505092915050565b5f6020820190508181035f830152610b538184610b03565b905092915050565b5f80fd5b5f73ffffffffffffffffffffffffffffffffffffffff82169050919050565b5f610b8882610b5f565b9050919050565b610b9881610b7e565b8114610ba2575f80fd5b50565b5f81359050610bb381610b8f565b92915050565b5f819050919050565b610bcb81610bb9565b8114610bd5575f80fd5b50565b5f81359050610be681610bc2565b92915050565b5f8060408385031215610c0257610c01610b5b565b5b5f610c0f85828601610ba5565b9250506020610c2085828601610bd8565b9150509250929050565b5f8115159050919050565b610c3e81610c2a565b82525050565b5f602082019050610c575f830184610c35565b92915050565b610c6681610bb9565b82525050565b5f602082019050610c7f5f830184610c5d565b92915050565b5f805f60608486031215610c9c57610c9b610b5b565b5b5f610ca986828701610ba5565b9350506020610cba86828701610ba5565b9250506040610ccb86828701610bd8565b9150509250925092565b5f60ff82169050919050565b610cea81610cd5565b82525050565b5f602082019050610d035f830184610ce1565b92915050565b5f60208284031215610d1e57610d1d610b5b565b5b5f610d2b84828501610ba5565b91505092915050565b5f8060408385031215610d4a57610d49610b5b565b5b5f610d5785828601610ba5565b9250506020610d6885828601610ba5565b9150509250929050565b7f4e487b71000000000000000000000000000000000000000000000000000000005f52602260045260245ffd5b5f6002820490506001821680610db657607f821691505b602082108103610dc957610dc8610d72565b5b50919050565b7f496e76616c6964417070726f76657200000000000000000000000000000000005f82015250565b5f610e03600f83610abb565b9150610e0e82610dcf565b602082019050919050565b5f6020820190508181035f830152610e3081610df7565b9050919050565b610e4081610b7e565b82525050565b5f606082019050610e595f830186610e37565b610e666020830185610c5d565b610e736040830184610c5d565b949350505050565b5f602082019050610e8e5f830184610e37565b92915050565b7f4e487b71000000000000000000000000000000000000000000000000000000005f52601160045260245ffd5b5f610ecb82610bb9565b9150610ed683610bb9565b9250828201905080821115610eee57610eed610e94565b5b9291505056fea2646970667358221220617ac34712851c8d5ce2fee38d6daa7e1ddfb46383065b332266345e39a9e14264736f6c63430008140033",
					"opcodes": "PUSH1 0x80 PUSH1 0x40 MSTORE CALLVALUE DUP1 ISZERO PUSH3 0x10 JUMPI PUSH0 DUP1 REVERT JUMPDEST POP PUSH1 0x40 MLOAD PUSH3 0x1977 CODESIZE SUB DUP1 PUSH3 0x1977 DUP4 CODECOPY DUP2 DUP2 ADD PUSH1 0x40 MSTORE DUP2 ADD SWAP1 PUSH3 0x36 SWAP2 SWAP1 PUSH3 0x586 JUMP JUMPDEST DUP3 DUP3 DUP2 PUSH1 0x3 SWAP1 DUP2 PUSH3 0x49 SWAP2 SWAP1 PUSH3 0x861 JUMP JUMPDEST POP DUP1 PUSH1 0x4 SWAP1 DUP2 PUSH3 0x5B SWAP2 SWAP1 PUSH3 0x861 JUMP JUMPDEST POP POP POP PUSH3 0x70 CALLER DUP3 PUSH3 0xBA PUSH1 0x20 SHL PUSH1 0x20 SHR JUMP JUMPDEST DUP4 PUSH1 0x5 PUSH0 PUSH2 0x100 EXP DUP2 SLOAD DUP2 PUSH20 0xFFFFFFFFFFFFFFFFFFFFFFFFFFFFFFFFFFFFFFFF MUL NOT AND SWAP1 DUP4 PUSH20 0xFFFFFFFFFFFFFFFFFFFFFFFFFFFFFFFFFFFFFFFF AND MUL OR SWAP1 SSTORE POP POP POP POP POP PUSH3 0xA3F JUMP JUMPDEST PUSH0 PUSH20 0xFFFFFFFFFFFFFFFFFFFFFFFFFFFFFFFFFFFFFFFF AND DUP3 PUSH20 0xFFFFFFFFFFFFFFFFFFFFFFFFFFFFFFFFFFFFFFFF AND SUB PUSH3 0x12D JUMPI PUSH0 PUSH1 0x40 MLOAD PUSH32 0xEC442F0500000000000000000000000000000000000000000000000000000000 DUP2 MSTORE PUSH1 0x4 ADD PUSH3 0x124 SWAP2 SWAP1 PUSH3 0x956 JUMP JUMPDEST PUSH1 0x40 MLOAD DUP1 SWAP2 SUB SWAP1 REVERT JUMPDEST PUSH3 0x140 PUSH0 DUP4 DUP4 PUSH3 0x144 PUSH1 0x20 SHL PUSH1 0x20 SHR JUMP JUMPDEST POP POP JUMP JUMPDEST PUSH0 PUSH20 0xFFFFFFFFFFFFFFFFFFFFFFFFFFFFFFFFFFFFFFFF AND DUP4 PUSH20 0xFFFFFFFFFFFFFFFFFFFFFFFFFFFFFFFFFFFFFFFF AND SUB PUSH3 0x198 JUMPI DUP1 PUSH1 0x2 PUSH0 DUP3 DUP3 SLOAD PUSH3 0x18B SWAP2 SWAP1 PUSH3 0x99E JUMP JUMPDEST SWAP3 POP POP DUP2 SWAP1 SSTORE POP PUSH3 0x269 JUMP JUMPDEST PUSH0 DUP1 PUSH0 DUP6 PUSH20 0xFFFFFFFFFFFFFFFFFFFFFFFFFFFFFFFFFFFFFFFF AND PUSH20 0xFFFFFFFFFFFFFFFFFFFFFFFFFFFFFFFFFFFFFFFF AND DUP2 MSTORE PUSH1 0x20 ADD SWAP1 DUP2 MSTORE PUSH1 0x20 ADD PUSH0 KECCAK256 SLOAD SWAP1 POP DUP2 DUP2 LT ISZERO PUSH3 0x224 JUMPI DUP4 DUP2 DUP4 PUSH1 0x40 MLOAD PUSH32 0xE450D38C00000000000000000000000000000000000000000000000000000000 DUP2 MSTORE PUSH1 0x4 ADD PUSH3 0x21B SWAP4 SWAP3 SWAP2 SWAP1 PUSH3 0x9E9 JUMP JUMPDEST PUSH1 0x40 MLOAD DUP1 SWAP2 SUB SWAP1 REVERT JUMPDEST DUP2 DUP2 SUB PUSH0 DUP1 DUP7 PUSH20 0xFFFFFFFFFFFFFFFFFFFFFFFFFFFFFFFFFFFFFFFF AND PUSH20 0xFFFFFFFFFFFFFFFFFFFFFFFFFFFFFFFFFFFFFFFF AND DUP2 MSTORE PUSH1 0x20 ADD SWAP1 DUP2 MSTORE PUSH1 0x20 ADD PUSH0 KECCAK256 DUP2 SWAP1 SSTORE POP POP JUMPDEST PUSH0 PUSH20 0xFFFFFFFFFFFFFFFFFFFFFFFFFFFFFFFFFFFFFFFF AND DUP3 PUSH20 0xFFFFFFFFFFFFFFFFFFFFFFFFFFFFFFFFFFFFFFFF AND SUB PUSH3 0x2B2 JUMPI DUP1 PUSH1 0x2 PUSH0 DUP3 DUP3 SLOAD SUB SWAP3 POP POP DUP2 SWAP1 SSTORE POP PUSH3 0x2FC JUMP JUMPDEST DUP1 PUSH0 DUP1 DUP5 PUSH20 0xFFFFFFFFFFFFFFFFFFFFFFFFFFFFFFFFFFFFFFFF AND PUSH20 0xFFFFFFFFFFFFFFFFFFFFFFFFFFFFFFFFFFFFFFFF AND DUP2 MSTORE PUSH1 0x20 ADD SWAP1 DUP2 MSTORE PUSH1 0x20 ADD PUSH0 KECCAK256 PUSH0 DUP3 DUP3 SLOAD ADD SWAP3 POP POP DUP2 SWAP1 SSTORE POP JUMPDEST DUP2 PUSH20 0xFFFFFFFFFFFFFFFFFFFFFFFFFFFFFFFFFFFFFFFF AND DUP4 PUSH20 0xFFFFFFFFFFFFFFFFFFFFFFFFFFFFFFFFFFFFFFFF AND PUSH32 0xDDF252AD1BE2C89B69C2B068FC378DAA952BA7F163C4A11628F55A4DF523B3EF DUP4 PUSH1 0x40 MLOAD PUSH3 0x35B SWAP2 SWAP1 PUSH3 0xA24 JUMP JUMPDEST PUSH1 0x40 MLOAD DUP1 SWAP2 SUB SWAP1 LOG3 POP POP POP JUMP JUMPDEST PUSH0 PUSH1 0x40 MLOAD SWAP1 POP SWAP1 JUMP JUMPDEST PUSH0 DUP1 REVERT JUMPDEST PUSH0 DUP1 REVERT JUMPDEST PUSH0 PUSH20 0xFFFFFFFFFFFFFFFFFFFFFFFFFFFFFFFFFFFFFFFF DUP3 AND SWAP1 POP SWAP2 SWAP1 POP JUMP JUMPDEST PUSH0 PUSH3 0x3A4 DUP3 PUSH3 0x379 JUMP JUMPDEST SWAP1 POP SWAP2 SWAP1 POP JUMP JUMPDEST PUSH3 0x3B6 DUP2 PUSH3 0x398 JUMP JUMPDEST DUP2 EQ PUSH3 0x3C1 JUMPI PUSH0 DUP1 REVERT JUMPDEST POP JUMP JUMPDEST PUSH0 DUP2 MLOAD SWAP1 POP PUSH3 0x3D4 DUP2 PUSH3 0x3AB JUMP JUMPDEST SWAP3 SWAP2 POP POP JUMP JUMPDEST PUSH0 DUP1 REVERT JUMPDEST PUSH0 DUP1 REVERT JUMPDEST PUSH0 PUSH1 0x1F NOT PUSH1 0x1F DUP4 ADD AND SWAP1 POP SWAP2 SWAP1 POP JUMP JUMPDEST PUSH32 0x4E487B7100000000000000000000000000000000000000000000000000000000 PUSH0 MSTORE PUSH1 0x41 PUSH1 0x4 MSTORE PUSH1 0x24 PUSH0 REVERT JUMPDEST PUSH3 0x42A DUP3 PUSH3 0x3E2 JUMP JUMPDEST DUP2 ADD DUP2 DUP2 LT PUSH8 0xFFFFFFFFFFFFFFFF DUP3 GT OR ISZERO PUSH3 0x44C JUMPI PUSH3 0x44B PUSH3 0x3F2 JUMP JUMPDEST JUMPDEST DUP1 PUSH1 0x40 MSTORE POP POP POP JUMP JUMPDEST PUSH0 PUSH3 0x460 PUSH3 0x368 JUMP JUMPDEST SWAP1 POP PUSH3 0x46E DUP3 DUP3 PUSH3 0x41F JUMP JUMPDEST SWAP2 SWAP1 POP JUMP JUMPDEST PUSH0 PUSH8 0xFFFFFFFFFFFFFFFF DUP3 GT ISZERO PUSH3 0x490 JUMPI PUSH3 0x48F PUSH3 0x3F2 JUMP JUMPDEST JUMPDEST PUSH3 0x49B DUP3 PUSH3 0x3E2 JUMP JUMPDEST SWAP1 POP PUSH1 0x20 DUP2 ADD SWAP1 POP SWAP2 SWAP1 POP JUMP JUMPDEST PUSH0 JUMPDEST DUP4 DUP2 LT ISZERO PUSH3 0x4C7 JUMPI DUP1 DUP3 ADD MLOAD DUP2 DUP5 ADD MSTORE PUSH1 0x20 DUP2 ADD SWAP1 POP PUSH3 0x4AA JUMP JUMPDEST PUSH0 DUP5 DUP5 ADD MSTORE POP POP POP POP JUMP JUMPDEST PUSH0 PUSH3 0x4E8 PUSH3 0x4E2 DUP5 PUSH3 0x473 JUMP JUMPDEST PUSH3 0x455 JUMP JUMPDEST SWAP1 POP DUP3 DUP2 MSTORE PUSH1 0x20 DUP2 ADD DUP5 DUP5 DUP5 ADD GT ISZERO PUSH3 0x507 JUMPI PUSH3 0x506 PUSH3 0x3DE JUMP JUMPDEST JUMPDEST PUSH3 0x514 DUP5 DUP3 DUP6 PUSH3 0x4A8 JUMP JUMPDEST POP SWAP4 SWAP3 POP POP POP JUMP JUMPDEST PUSH0 DUP3 PUSH1 0x1F DUP4 ADD SLT PUSH3 0x533 JUMPI PUSH3 0x532 PUSH3 0x3DA JUMP JUMPDEST JUMPDEST DUP2 MLOAD PUSH3 0x545 DUP5 DUP3 PUSH1 0x20 DUP7 ADD PUSH3 0x4D2 JUMP JUMPDEST SWAP2 POP POP SWAP3 SWAP2 POP POP JUMP JUMPDEST PUSH0 DUP2 SWAP1 POP SWAP2 SWAP1 POP JUMP JUMPDEST PUSH3 0x562 DUP2 PUSH3 0x54E JUMP JUMPDEST DUP2 EQ PUSH3 0x56D JUMPI PUSH0 DUP1 REVERT JUMPDEST POP JUMP JUMPDEST PUSH0 DUP2 MLOAD SWAP1 POP PUSH3 0x580 DUP2 PUSH3 0x557 JUMP JUMPDEST SWAP3 SWAP2 POP POP JUMP JUMPDEST PUSH0 DUP1 PUSH0 DUP1 PUSH1 0x80 DUP6 DUP8 SUB SLT ISZERO PUSH3 0x5A1 JUMPI PUSH3 0x5A0 PUSH3 0x371 JUMP JUMPDEST JUMPDEST PUSH0 PUSH3 0x5B0 DUP8 DUP3 DUP9 ADD PUSH3 0x3C4 JUMP JUMPDEST SWAP5 POP POP PUSH1 0x20 DUP6 ADD MLOAD PUSH8 0xFFFFFFFFFFFFFFFF DUP2 GT ISZERO PUSH3 0x5D4 JUMPI PUSH3 0x5D3 PUSH3 0x375 JUMP JUMPDEST JUMPDEST PUSH3 0x5E2 DUP8 DUP3 DUP9 ADD PUSH3 0x51C JUMP JUMPDEST SWAP4 POP POP PUSH1 0x40 DUP6 ADD MLOAD PUSH8 0xFFFFFFFFFFFFFFFF DUP2 GT ISZERO PUSH3 0x606 JUMPI PUSH3 0x605 PUSH3 0x375 JUMP JUMPDEST JUMPDEST PUSH3 0x614 DUP8 DUP3 DUP9 ADD PUSH3 0x51C JUMP JUMPDEST SWAP3 POP POP PUSH1 0x60 PUSH3 0x627 DUP8 DUP3 DUP9 ADD PUSH3 0x570 JUMP JUMPDEST SWAP2 POP POP SWAP3 SWAP6 SWAP2 SWAP5 POP SWAP3 POP JUMP JUMPDEST PUSH0 DUP2 MLOAD SWAP1 POP SWAP2 SWAP1 POP JUMP JUMPDEST PUSH32 0x4E487B7100000000000000000000000000000000000000000000000000000000 PUSH0 MSTORE PUSH1 0x22 PUSH1 0x4 MSTORE PUSH1 0x24 PUSH0 REVERT JUMPDEST PUSH0 PUSH1 0x2 DUP3 DIV SWAP1 POP PUSH1 0x1 DUP3 AND DUP1 PUSH3 0x682 JUMPI PUSH1 0x7F DUP3 AND SWAP2 POP JUMPDEST PUSH1 0x20 DUP3 LT DUP2 SUB PUSH3 0x698 JUMPI PUSH3 0x697 PUSH3 0x63D JUMP JUMPDEST JUMPDEST POP SWAP2 SWAP1 POP JUMP JUMPDEST PUSH0 DUP2 SWAP1 POP DUP2 PUSH0 MSTORE PUSH1 0x20 PUSH0 KECCAK256 SWAP1 POP SWAP2 SWAP1 POP JUMP JUMPDEST PUSH0 PUSH1 0x20 PUSH1 0x1F DUP4 ADD DIV SWAP1 POP SWAP2 SWAP1 POP JUMP JUMPDEST PUSH0 DUP3 DUP3 SHL SWAP1 POP SWAP3 SWAP2 POP POP JUMP JUMPDEST PUSH0 PUSH1 0x8 DUP4 MUL PUSH3 0x6FC PUSH32 0xFFFFFFFFFFFFFFFFFFFFFFFFFFFFFFFFFFFFFFFFFFFFFFFFFFFFFFFFFFFFFFFF DUP3 PUSH3 0x6BF JUMP JUMPDEST PUSH3 0x708 DUP7 DUP4 PUSH3 0x6BF JUMP JUMPDEST SWAP6 POP DUP1 NOT DUP5 AND SWAP4 POP DUP1 DUP7 AND DUP5 OR SWAP3 POP POP POP SWAP4 SWAP3 POP POP POP JUMP JUMPDEST PUSH0 DUP2 SWAP1 POP SWAP2 SWAP1 POP JUMP JUMPDEST PUSH0 PUSH3 0x749 PUSH3 0x743 PUSH3 0x73D DUP5 PUSH3 0x54E JUMP JUMPDEST PUSH3 0x720 JUMP JUMPDEST PUSH3 0x54E JUMP JUMPDEST SWAP1 POP SWAP2 SWAP1 POP JUMP JUMPDEST PUSH0 DUP2 SWAP1 POP SWAP2 SWAP1 POP JUMP JUMPDEST PUSH3 0x764 DUP4 PUSH3 0x729 JUMP JUMPDEST PUSH3 0x77C PUSH3 0x773 DUP3 PUSH3 0x750 JUMP JUMPDEST DUP5 DUP5 SLOAD PUSH3 0x6CB JUMP JUMPDEST DUP3 SSTORE POP POP POP POP JUMP JUMPDEST PUSH0 SWAP1 JUMP JUMPDEST PUSH3 0x792 PUSH3 0x784 JUMP JUMPDEST PUSH3 0x79F DUP2 DUP5 DUP5 PUSH3 0x759 JUMP JUMPDEST POP POP POP JUMP JUMPDEST JUMPDEST DUP2 DUP2 LT ISZERO PUSH3 0x7C6 JUMPI PUSH3 0x7BA PUSH0 DUP3 PUSH3 0x788 JUMP JUMPDEST PUSH1 0x1 DUP2 ADD SWAP1 POP PUSH3 0x7A5 JUMP JUMPDEST POP POP JUMP JUMPDEST PUSH1 0x1F DUP3 GT ISZERO PUSH3 0x815 JUMPI PUSH3 0x7DF DUP2 PUSH3 0x69E JUMP JUMPDEST PUSH3 0x7EA DUP5 PUSH3 0x6B0 JUMP JUMPDEST DUP2 ADD PUSH1 0x20 DUP6 LT ISZERO PUSH3 0x7FA JUMPI DUP2 SWAP1 POP JUMPDEST PUSH3 0x812 PUSH3 0x809 DUP6 PUSH3 0x6B0 JUMP JUMPDEST DUP4 ADD DUP3 PUSH3 0x7A4 JUMP JUMPDEST POP POP JUMPDEST POP POP POP JUMP JUMPDEST PUSH0 DUP3 DUP3 SHR SWAP1 POP SWAP3 SWAP2 POP POP JUMP JUMPDEST PUSH0 PUSH3 0x837 PUSH0 NOT DUP5 PUSH1 0x8 MUL PUSH3 0x81A JUMP JUMPDEST NOT DUP1 DUP4 AND SWAP2 POP POP SWAP3 SWAP2 POP POP JUMP JUMPDEST PUSH0 PUSH3 0x851 DUP4 DUP4 PUSH3 0x826 JUMP JUMPDEST SWAP2 POP DUP3 PUSH1 0x2 MUL DUP3 OR SWAP1 POP SWAP3 SWAP2 POP POP JUMP JUMPDEST PUSH3 0x86C DUP3 PUSH3 0x633 JUMP JUMPDEST PUSH8 0xFFFFFFFFFFFFFFFF DUP2 GT ISZERO PUSH3 0x888 JUMPI PUSH3 0x887 PUSH3 0x3F2 JUMP JUMPDEST JUMPDEST PUSH3 0x894 DUP3 SLOAD PUSH3 0x66A JUMP JUMPDEST PUSH3 0x8A1 DUP3 DUP3 DUP6 PUSH3 0x7CA JUMP JUMPDEST PUSH0 PUSH1 0x20 SWAP1 POP PUSH1 0x1F DUP4 GT PUSH1 0x1 DUP2 EQ PUSH3 0x8D7 JUMPI PUSH0 DUP5 ISZERO PUSH3 0x8C2 JUMPI DUP3 DUP8 ADD MLOAD SWAP1 POP JUMPDEST PUSH3 0x8CE DUP6 DUP3 PUSH3 0x844 JUMP JUMPDEST DUP7 SSTORE POP PUSH3 0x93D JUMP JUMPDEST PUSH1 0x1F NOT DUP5 AND PUSH3 0x8E7 DUP7 PUSH3 0x69E JUMP JUMPDEST PUSH0 JUMPDEST DUP3 DUP2 LT ISZERO PUSH3 0x910 JUMPI DUP5 DUP10 ADD MLOAD DUP3 SSTORE PUSH1 0x1 DUP3 ADD SWAP2 POP PUSH1 0x20 DUP6 ADD SWAP5 POP PUSH1 0x20 DUP2 ADD SWAP1 POP PUSH3 0x8E9 JUMP JUMPDEST DUP7 DUP4 LT ISZERO PUSH3 0x930 JUMPI DUP5 DUP10 ADD MLOAD PUSH3 0x92C PUSH1 0x1F DUP10 AND DUP3 PUSH3 0x826 JUMP JUMPDEST DUP4 SSTORE POP JUMPDEST PUSH1 0x1 PUSH1 0x2 DUP9 MUL ADD DUP9 SSTORE POP POP POP JUMPDEST POP POP POP POP POP POP JUMP JUMPDEST PUSH3 0x950 DUP2 PUSH3 0x398 JUMP JUMPDEST DUP3 MSTORE POP POP JUMP JUMPDEST PUSH0 PUSH1 0x20 DUP3 ADD SWAP1 POP PUSH3 0x96B PUSH0 DUP4 ADD DUP5 PUSH3 0x945 JUMP JUMPDEST SWAP3 SWAP2 POP POP JUMP JUMPDEST PUSH32 0x4E487B7100000000000000000000000000000000000000000000000000000000 PUSH0 MSTORE PUSH1 0x11 PUSH1 0x4 MSTORE PUSH1 0x24 PUSH0 REVERT JUMPDEST PUSH0 PUSH3 0x9AA DUP3 PUSH3 0x54E JUMP JUMPDEST SWAP2 POP PUSH3 0x9B7 DUP4 PUSH3 0x54E JUMP JUMPDEST SWAP3 POP DUP3 DUP3 ADD SWAP1 POP DUP1 DUP3 GT ISZERO PUSH3 0x9D2 JUMPI PUSH3 0x9D1 PUSH3 0x971 JUMP JUMPDEST JUMPDEST SWAP3 SWAP2 POP POP JUMP JUMPDEST PUSH3 0x9E3 DUP2 PUSH3 0x54E JUMP JUMPDEST DUP3 MSTORE POP POP JUMP JUMPDEST PUSH0 PUSH1 0x60 DUP3 ADD SWAP1 POP PUSH3 0x9FE PUSH0 DUP4 ADD DUP7 PUSH3 0x945 JUMP JUMPDEST PUSH3 0xA0D PUSH1 0x20 DUP4 ADD DUP6 PUSH3 0x9D8 JUMP JUMPDEST PUSH3 0xA1C PUSH1 0x40 DUP4 ADD DUP5 PUSH3 0x9D8 JUMP JUMPDEST SWAP5 SWAP4 POP POP POP POP JUMP JUMPDEST PUSH0 PUSH1 0x20 DUP3 ADD SWAP1 POP PUSH3 0xA39 PUSH0 DUP4 ADD DUP5 PUSH3 0x9D8 JUMP JUMPDEST SWAP3 SWAP2 POP POP JUMP JUMPDEST PUSH2 0xF2A DUP1 PUSH3 0xA4D PUSH0 CODECOPY PUSH0 RETURN INVALID PUSH1 0x80 PUSH1 0x40 MSTORE CALLVALUE DUP1 ISZERO PUSH2 0xF JUMPI PUSH0 DUP1 REVERT JUMPDEST POP PUSH1 0x4 CALLDATASIZE LT PUSH2 0x9C JUMPI PUSH0 CALLDATALOAD PUSH1 0xE0 SHR DUP1 PUSH4 0x70A08231 GT PUSH2 0x64 JUMPI DUP1 PUSH4 0x70A08231 EQ PUSH2 0x15A JUMPI DUP1 PUSH4 0x95D89B41 EQ PUSH2 0x18A JUMPI DUP1 PUSH4 0xA9059CBB EQ PUSH2 0x1A8 JUMPI DUP1 PUSH4 0xDD62ED3E EQ PUSH2 0x1D8 JUMPI DUP1 PUSH4 0xE1F21C67 EQ PUSH2 0x208 JUMPI PUSH2 0x9C JUMP JUMPDEST DUP1 PUSH4 0x6FDDE03 EQ PUSH2 0xA0 JUMPI DUP1 PUSH4 0x95EA7B3 EQ PUSH2 0xBE JUMPI DUP1 PUSH4 0x18160DDD EQ PUSH2 0xEE JUMPI DUP1 PUSH4 0x23B872DD EQ PUSH2 0x10C JUMPI DUP1 PUSH4 0x313CE567 EQ PUSH2 0x13C JUMPI JUMPDEST PUSH0 DUP1 REVERT JUMPDEST PUSH2 0xA8 PUSH2 0x224 JUMP JUMPDEST PUSH1 0x40 MLOAD PUSH2 0xB5 SWAP2 SWAP1 PUSH2 0xB3B JUMP JUMPDEST PUSH1 0x40 MLOAD DUP1 SWAP2 SUB SWAP1 RETURN JUMPDEST PUSH2 0xD8 PUSH1 0x4 DUP1 CALLDATASIZE SUB DUP2 ADD SWAP1 PUSH2 0xD3 SWAP2 SWAP1 PUSH2 0xBEC JUMP JUMPDEST PUSH2 0x2B4 JUMP JUMPDEST PUSH1 0x40 MLOAD PUSH2 0xE5 SWAP2 SWAP1 PUSH2 0xC44 JUMP JUMPDEST PUSH1 0x40 MLOAD DUP1 SWAP2 SUB SWAP1 RETURN JUMPDEST PUSH2 0xF6 PUSH2 0x2D6 JUMP JUMPDEST PUSH1 0x40 MLOAD PUSH2 0x103 SWAP2 SWAP1 PUSH2 0xC6C JUMP JUMPDEST PUSH1 0x40 MLOAD DUP1 SWAP2 SUB SWAP1 RETURN JUMPDEST PUSH2 0x126 PUSH1 0x4 DUP1 CALLDATASIZE SUB DUP2 ADD SWAP1 PUSH2 0x121 SWAP2 SWAP1 PUSH2 0xC85 JUMP JUMPDEST PUSH2 0x2DF JUMP JUMPDEST PUSH1 0x40 MLOAD PUSH2 0x133 SWAP2 SWAP1 PUSH2 0xC44 JUMP JUMPDEST PUSH1 0x40 MLOAD DUP1 SWAP2 SUB SWAP1 RETURN JUMPDEST PUSH2 0x144 PUSH2 0x30D JUMP JUMPDEST PUSH1 0x40 MLOAD PUSH2 0x151 SWAP2 SWAP1 PUSH2 0xCF0 JUMP JUMPDEST PUSH1 0x40 MLOAD DUP1 SWAP2 SUB SWAP1 RETURN JUMPDEST PUSH2 0x174 PUSH1 0x4 DUP1 CALLDATASIZE SUB DUP2 ADD SWAP1 PUSH2 0x16F SWAP2 SWAP1 PUSH2 0xD09 JUMP JUMPDEST PUSH2 0x315 JUMP JUMPDEST PUSH1 0x40 MLOAD PUSH2 0x181 SWAP2 SWAP1 PUSH2 0xC6C JUMP JUMPDEST PUSH1 0x40 MLOAD DUP1 SWAP2 SUB SWAP1 RETURN JUMPDEST PUSH2 0x192 PUSH2 0x35A JUMP JUMPDEST PUSH1 0x40 MLOAD PUSH2 0x19F SWAP2 SWAP1 PUSH2 0xB3B JUMP JUMPDEST PUSH1 0x40 MLOAD DUP1 SWAP2 SUB SWAP1 RETURN JUMPDEST PUSH2 0x1C2 PUSH1 0x4 DUP1 CALLDATASIZE SUB DUP2 ADD SWAP1 PUSH2 0x1BD SWAP2 SWAP1 PUSH2 0xBEC JUMP JUMPDEST PUSH2 0x3EA JUMP JUMPDEST PUSH1 0x40 MLOAD PUSH2 0x1CF SWAP2 SWAP1 PUSH2 0xC44 JUMP JUMPDEST PUSH1 0x40 MLOAD DUP1 SWAP2 SUB SWAP1 RETURN JUMPDEST PUSH2 0x1F2 PUSH1 0x4 DUP1 CALLDATASIZE SUB DUP2 ADD SWAP1 PUSH2 0x1ED SWAP2 SWAP1 PUSH2 0xD34 JUMP JUMPDEST PUSH2 0x40C JUMP JUMPDEST PUSH1 0x40 MLOAD PUSH2 0x1FF SWAP2 SWAP1 PUSH2 0xC6C JUMP JUMPDEST PUSH1 0x40 MLOAD DUP1 SWAP2 SUB SWAP1 RETURN JUMPDEST PUSH2 0x222 PUSH1 0x4 DUP1 CALLDATASIZE SUB DUP2 ADD SWAP1 PUSH2 0x21D SWAP2 SWAP1 PUSH2 0xC85 JUMP JUMPDEST PUSH2 0x48E JUMP JUMPDEST STOP JUMPDEST PUSH1 0x60 PUSH1 0x3 DUP1 SLOAD PUSH2 0x233 SWAP1 PUSH2 0xD9F JUMP JUMPDEST DUP1 PUSH1 0x1F ADD PUSH1 0x20 DUP1 SWAP2 DIV MUL PUSH1 0x20 ADD PUSH1 0x40 MLOAD SWAP1 DUP2 ADD PUSH1 0x40 MSTORE DUP1 SWAP3 SWAP2 SWAP1 DUP2 DUP2 MSTORE PUSH1 0x20 ADD DUP3 DUP1 SLOAD PUSH2 0x25F SWAP1 PUSH2 0xD9F JUMP JUMPDEST DUP1 ISZERO PUSH2 0x2AA JUMPI DUP1 PUSH1 0x1F LT PUSH2 0x281 JUMPI PUSH2 0x100 DUP1 DUP4 SLOAD DIV MUL DUP4 MSTORE SWAP2 PUSH1 0x20 ADD SWAP2 PUSH2 0x2AA JUMP JUMPDEST DUP3 ADD SWAP2 SWAP1 PUSH0 MSTORE PUSH1 0x20 PUSH0 KECCAK256 SWAP1 JUMPDEST DUP2 SLOAD DUP2 MSTORE SWAP1 PUSH1 0x1 ADD SWAP1 PUSH1 0x20 ADD DUP1 DUP4 GT PUSH2 0x28D JUMPI DUP3 SWAP1 SUB PUSH1 0x1F AND DUP3 ADD SWAP2 JUMPDEST POP POP POP POP POP SWAP1 POP SWAP1 JUMP JUMPDEST PUSH0 DUP1 PUSH2 0x2BE PUSH2 0x52D JUMP JUMPDEST SWAP1 POP PUSH2 0x2CB DUP2 DUP6 DUP6 PUSH2 0x534 JUMP JUMPDEST PUSH1 0x1 SWAP2 POP POP SWAP3 SWAP2 POP POP JUMP JUMPDEST PUSH0 PUSH1 0x2 SLOAD SWAP1 POP SWAP1 JUMP JUMPDEST PUSH0 DUP1 PUSH2 0x2E9 PUSH2 0x52D JUMP JUMPDEST SWAP1 POP PUSH2 0x2F6 DUP6 DUP3 DUP6 PUSH2 0x546 JUMP JUMPDEST PUSH2 0x301 DUP6 DUP6 DUP6 PUSH2 0x5D9 JUMP JUMPDEST PUSH1 0x1 SWAP2 POP POP SWAP4 SWAP3 POP POP POP JUMP JUMPDEST PUSH0 PUSH1 0x12 SWAP1 POP SWAP1 JUMP JUMPDEST PUSH0 DUP1 PUSH0 DUP4 PUSH20 0xFFFFFFFFFFFFFFFFFFFFFFFFFFFFFFFFFFFFFFFF AND PUSH20 0xFFFFFFFFFFFFFFFFFFFFFFFFFFFFFFFFFFFFFFFF AND DUP2 MSTORE PUSH1 0x20 ADD SWAP1 DUP2 MSTORE PUSH1 0x20 ADD PUSH0 KECCAK256 SLOAD SWAP1 POP SWAP2 SWAP1 POP JUMP JUMPDEST PUSH1 0x60 PUSH1 0x4 DUP1 SLOAD PUSH2 0x369 SWAP1 PUSH2 0xD9F JUMP JUMPDEST DUP1 PUSH1 0x1F ADD PUSH1 0x20 DUP1 SWAP2 DIV MUL PUSH1 0x20 ADD PUSH1 0x40 MLOAD SWAP1 DUP2 ADD PUSH1 0x40 MSTORE DUP1 SWAP3 SWAP2 SWAP1 DUP2 DUP2 MSTORE PUSH1 0x20 ADD DUP3 DUP1 SLOAD PUSH2 0x395 SWAP1 PUSH2 0xD9F JUMP JUMPDEST DUP1 ISZERO PUSH2 0x3E0 JUMPI DUP1 PUSH1 0x1F LT PUSH2 0x3B7 JUMPI PUSH2 0x100 DUP1 DUP4 SLOAD DIV MUL DUP4 MSTORE SWAP2 PUSH1 0x20 ADD SWAP2 PUSH2 0x3E0 JUMP JUMPDEST DUP3 ADD SWAP2 SWAP1 PUSH0 MSTORE PUSH1 0x20 PUSH0 KECCAK256 SWAP1 JUMPDEST DUP2 SLOAD DUP2 MSTORE SWAP1 PUSH1 0x1 ADD SWAP1 PUSH1 0x20 ADD DUP1 DUP4 GT PUSH2 0x3C3 JUMPI DUP3 SWAP1 SUB PUSH1 0x1F AND DUP3 ADD SWAP2 JUMPDEST POP POP POP POP POP SWAP1 POP SWAP1 JUMP JUMPDEST PUSH0 DUP1 PUSH2 0x3F4 PUSH2 0x52D JUMP JUMPDEST SWAP1 POP PUSH2 0x401 DUP2 DUP6 DUP6 PUSH2 0x5D9 JUMP JUMPDEST PUSH1 0x1 SWAP2 POP POP SWAP3 SWAP2 POP POP JUMP JUMPDEST PUSH0 PUSH1 0x1 PUSH0 DUP5 PUSH20 0xFFFFFFFFFFFFFFFFFFFFFFFFFFFFFFFFFFFFFFFF AND PUSH20 0xFFFFFFFFFFFFFFFFFFFFFFFFFFFFFFFFFFFFFFFF AND DUP2 MSTORE PUSH1 0x20 ADD SWAP1 DUP2 MSTORE PUSH1 0x20 ADD PUSH0 KECCAK256 PUSH0 DUP4 PUSH20 0xFFFFFFFFFFFFFFFFFFFFFFFFFFFFFFFFFFFFFFFF AND PUSH20 0xFFFFFFFFFFFFFFFFFFFFFFFFFFFFFFFFFFFFFFFF AND DUP2 MSTORE PUSH1 0x20 ADD SWAP1 DUP2 MSTORE PUSH1 0x20 ADD PUSH0 KECCAK256 SLOAD SWAP1 POP SWAP3 SWAP2 POP POP JUMP JUMPDEST PUSH1 0x5 PUSH0 SWAP1 SLOAD SWAP1 PUSH2 0x100 EXP SWAP1 DIV PUSH20 0xFFFFFFFFFFFFFFFFFFFFFFFFFFFFFFFFFFFFFFFF AND PUSH20 0xFFFFFFFFFFFFFFFFFFFFFFFFFFFFFFFFFFFFFFFF AND DUP4 PUSH20 0xFFFFFFFFFFFFFFFFFFFFFFFFFFFFFFFFFFFFFFFF AND SUB PUSH2 0x51D JUMPI PUSH1 0x40 MLOAD PUSH32 0x8C379A000000000000000000000000000000000000000000000000000000000 DUP2 MSTORE PUSH1 0x4 ADD PUSH2 0x514 SWAP1 PUSH2 0xE19 JUMP JUMPDEST PUSH1 0x40 MLOAD DUP1 SWAP2 SUB SWAP1 REVERT JUMPDEST PUSH2 0x528 DUP4 DUP4 DUP4 PUSH2 0x534 JUMP JUMPDEST POP POP POP JUMP JUMPDEST PUSH0 CALLER SWAP1 POP SWAP1 JUMP JUMPDEST PUSH2 0x541 DUP4 DUP4 DUP4 PUSH1 0x1 PUSH2 0x6C9 JUMP JUMPDEST POP POP POP JUMP JUMPDEST PUSH0 PUSH2 0x551 DUP5 DUP5 PUSH2 0x40C JUMP JUMPDEST SWAP1 POP PUSH32 0xFFFFFFFFFFFFFFFFFFFFFFFFFFFFFFFFFFFFFFFFFFFFFFFFFFFFFFFFFFFFFFFF DUP2 LT ISZERO PUSH2 0x5D3 JUMPI DUP2 DUP2 LT ISZERO PUSH2 0x5C4 JUMPI DUP3 DUP2 DUP4 PUSH1 0x40 MLOAD PUSH32 0xFB8F41B200000000000000000000000000000000000000000000000000000000 DUP2 MSTORE PUSH1 0x4 ADD PUSH2 0x5BB SWAP4 SWAP3 SWAP2 SWAP1 PUSH2 0xE46 JUMP JUMPDEST PUSH1 0x40 MLOAD DUP1 SWAP2 SUB SWAP1 REVERT JUMPDEST PUSH2 0x5D2 DUP5 DUP5 DUP5 DUP5 SUB PUSH0 PUSH2 0x6C9 JUMP JUMPDEST JUMPDEST POP POP POP POP JUMP JUMPDEST PUSH0 PUSH20 0xFFFFFFFFFFFFFFFFFFFFFFFFFFFFFFFFFFFFFFFF AND DUP4 PUSH20 0xFFFFFFFFFFFFFFFFFFFFFFFFFFFFFFFFFFFFFFFF AND SUB PUSH2 0x649 JUMPI PUSH0 PUSH1 0x40 MLOAD PUSH32 0x96C6FD1E00000000000000000000000000000000000000000000000000000000 DUP2 MSTORE PUSH1 0x4 ADD PUSH2 0x640 SWAP2 SWAP1 PUSH2 0xE7B JUMP JUMPDEST PUSH1 0x40 MLOAD DUP1 SWAP2 SUB SWAP1 REVERT JUMPDEST PUSH0 PUSH20 0xFFFFFFFFFFFFFFFFFFFFFFFFFFFFFFFFFFFFFFFF AND DUP3 PUSH20 0xFFFFFFFFFFFFFFFFFFFFFFFFFFFFFFFFFFFFFFFF AND SUB PUSH2 0x6B9 JUMPI PUSH0 PUSH1 0x40 MLOAD PUSH32 0xEC442F0500000000000000000000000000000000000000000000000000000000 DUP2 MSTORE PUSH1 0x4 ADD PUSH2 0x6B0 SWAP2 SWAP1 PUSH2 0xE7B JUMP JUMPDEST PUSH1 0x40 MLOAD DUP1 SWAP2 SUB SWAP1 REVERT JUMPDEST PUSH2 0x6C4 DUP4 DUP4 DUP4 PUSH2 0x898 JUMP JUMPDEST POP POP POP JUMP JUMPDEST PUSH0 PUSH20 0xFFFFFFFFFFFFFFFFFFFFFFFFFFFFFFFFFFFFFFFF AND DUP5 PUSH20 0xFFFFFFFFFFFFFFFFFFFFFFFFFFFFFFFFFFFFFFFF AND SUB PUSH2 0x739 JUMPI PUSH0 PUSH1 0x40 MLOAD PUSH32 0xE602DF0500000000000000000000000000000000000000000000000000000000 DUP2 MSTORE PUSH1 0x4 ADD PUSH2 0x730 SWAP2 SWAP1 PUSH2 0xE7B JUMP JUMPDEST PUSH1 0x40 MLOAD DUP1 SWAP2 SUB SWAP1 REVERT JUMPDEST PUSH0 PUSH20 0xFFFFFFFFFFFFFFFFFFFFFFFFFFFFFFFFFFFFFFFF AND DUP4 PUSH20 0xFFFFFFFFFFFFFFFFFFFFFFFFFFFFFFFFFFFFFFFF AND SUB PUSH2 0x7A9 JUMPI PUSH0 PUSH1 0x40 MLOAD PUSH32 0x94280D6200000000000000000000000000000000000000000000000000000000 DUP2 MSTORE PUSH1 0x4 ADD PUSH2 0x7A0 SWAP2 SWAP1 PUSH2 0xE7B JUMP JUMPDEST PUSH1 0x40 MLOAD DUP1 SWAP2 SUB SWAP1 REVERT JUMPDEST DUP2 PUSH1 0x1 PUSH0 DUP7 PUSH20 0xFFFFFFFFFFFFFFFFFFFFFFFFFFFFFFFFFFFFFFFF AND PUSH20 0xFFFFFFFFFFFFFFFFFFFFFFFFFFFFFFFFFFFFFFFF AND DUP2 MSTORE PUSH1 0x20 ADD SWAP1 DUP2 MSTORE PUSH1 0x20 ADD PUSH0 KECCAK256 PUSH0 DUP6 PUSH20 0xFFFFFFFFFFFFFFFFFFFFFFFFFFFFFFFFFFFFFFFF AND PUSH20 0xFFFFFFFFFFFFFFFFFFFFFFFFFFFFFFFFFFFFFFFF AND DUP2 MSTORE PUSH1 0x20 ADD SWAP1 DUP2 MSTORE PUSH1 0x20 ADD PUSH0 KECCAK256 DUP2 SWAP1 SSTORE POP DUP1 ISZERO PUSH2 0x892 JUMPI DUP3 PUSH20 0xFFFFFFFFFFFFFFFFFFFFFFFFFFFFFFFFFFFFFFFF AND DUP5 PUSH20 0xFFFFFFFFFFFFFFFFFFFFFFFFFFFFFFFFFFFFFFFF AND PUSH32 0x8C5BE1E5EBEC7D5BD14F71427D1E84F3DD0314C0F7B2291E5B200AC8C7C3B925 DUP5 PUSH1 0x40 MLOAD PUSH2 0x889 SWAP2 SWAP1 PUSH2 0xC6C JUMP JUMPDEST PUSH1 0x40 MLOAD DUP1 SWAP2 SUB SWAP1 LOG3 JUMPDEST POP POP POP POP JUMP JUMPDEST PUSH0 PUSH20 0xFFFFFFFFFFFFFFFFFFFFFFFFFFFFFFFFFFFFFFFF AND DUP4 PUSH20 0xFFFFFFFFFFFFFFFFFFFFFFFFFFFFFFFFFFFFFFFF AND SUB PUSH2 0x8E8 JUMPI DUP1 PUSH1 0x2 PUSH0 DUP3 DUP3 SLOAD PUSH2 0x8DC SWAP2 SWAP1 PUSH2 0xEC1 JUMP JUMPDEST SWAP3 POP POP DUP2 SWAP1 SSTORE POP PUSH2 0x9B6 JUMP JUMPDEST PUSH0 DUP1 PUSH0 DUP6 PUSH20 0xFFFFFFFFFFFFFFFFFFFFFFFFFFFFFFFFFFFFFFFF AND PUSH20 0xFFFFFFFFFFFFFFFFFFFFFFFFFFFFFFFFFFFFFFFF AND DUP2 MSTORE PUSH1 0x20 ADD SWAP1 DUP2 MSTORE PUSH1 0x20 ADD PUSH0 KECCAK256 SLOAD SWAP1 POP DUP2 DUP2 LT ISZERO PUSH2 0x971 JUMPI DUP4 DUP2 DUP4 PUSH1 0x40 MLOAD PUSH32 0xE450D38C00000000000000000000000000000000000000000000000000000000 DUP2 MSTORE PUSH1 0x4 ADD PUSH2 0x968 SWAP4 SWAP3 SWAP2 SWAP1 PUSH2 0xE46 JUMP JUMPDEST PUSH1 0x40 MLOAD DUP1 SWAP2 SUB SWAP1 REVERT JUMPDEST DUP2 DUP2 SUB PUSH0 DUP1 DUP7 PUSH20 0xFFFFFFFFFFFFFFFFFFFFFFFFFFFFFFFFFFFFFFFF AND PUSH20 0xFFFFFFFFFFFFFFFFFFFFFFFFFFFFFFFFFFFFFFFF AND DUP2 MSTORE PUSH1 0x20 ADD SWAP1 DUP2 MSTORE PUSH1 0x20 ADD PUSH0 KECCAK256 DUP2 SWAP1 SSTORE POP POP JUMPDEST PUSH0 PUSH20 0xFFFFFFFFFFFFFFFFFFFFFFFFFFFFFFFFFFFFFFFF AND DUP3 PUSH20 0xFFFFFFFFFFFFFFFFFFFFFFFFFFFFFFFFFFFFFFFF AND SUB PUSH2 0x9FD JUMPI DUP1 PUSH1 0x2 PUSH0 DUP3 DUP3 SLOAD SUB SWAP3 POP POP DUP2 SWAP1 SSTORE POP PUSH2 0xA47 JUMP JUMPDEST DUP1 PUSH0 DUP1 DUP5 PUSH20 0xFFFFFFFFFFFFFFFFFFFFFFFFFFFFFFFFFFFFFFFF AND PUSH20 0xFFFFFFFFFFFFFFFFFFFFFFFFFFFFFFFFFFFFFFFF AND DUP2 MSTORE PUSH1 0x20 ADD SWAP1 DUP2 MSTORE PUSH1 0x20 ADD PUSH0 KECCAK256 PUSH0 DUP3 DUP3 SLOAD ADD SWAP3 POP POP DUP2 SWAP1 SSTORE POP JUMPDEST DUP2 PUSH20 0xFFFFFFFFFFFFFFFFFFFFFFFFFFFFFFFFFFFFFFFF AND DUP4 PUSH20 0xFFFFFFFFFFFFFFFFFFFFFFFFFFFFFFFFFFFFFFFF AND PUSH32 0xDDF252AD1BE2C89B69C2B068FC378DAA952BA7F163C4A11628F55A4DF523B3EF DUP4 PUSH1 0x40 MLOAD PUSH2 0xAA4 SWAP2 SWAP1 PUSH2 0xC6C JUMP JUMPDEST PUSH1 0x40 MLOAD DUP1 SWAP2 SUB SWAP1 LOG3 POP POP POP JUMP JUMPDEST PUSH0 DUP2 MLOAD SWAP1 POP SWAP2 SWAP1 POP JUMP JUMPDEST PUSH0 DUP3 DUP3 MSTORE PUSH1 0x20 DUP3 ADD SWAP1 POP SWAP3 SWAP2 POP POP JUMP JUMPDEST PUSH0 JUMPDEST DUP4 DUP2 LT ISZERO PUSH2 0xAE8 JUMPI DUP1 DUP3 ADD MLOAD DUP2 DUP5 ADD MSTORE PUSH1 0x20 DUP2 ADD SWAP1 POP PUSH2 0xACD JUMP JUMPDEST PUSH0 DUP5 DUP5 ADD MSTORE POP POP POP POP JUMP JUMPDEST PUSH0 PUSH1 0x1F NOT PUSH1 0x1F DUP4 ADD AND SWAP1 POP SWAP2 SWAP1 POP JUMP JUMPDEST PUSH0 PUSH2 0xB0D DUP3 PUSH2 0xAB1 JUMP JUMPDEST PUSH2 0xB17 DUP2 DUP6 PUSH2 0xABB JUMP JUMPDEST SWAP4 POP PUSH2 0xB27 DUP2 DUP6 PUSH1 0x20 DUP7 ADD PUSH2 0xACB JUMP JUMPDEST PUSH2 0xB30 DUP2 PUSH2 0xAF3 JUMP JUMPDEST DUP5 ADD SWAP2 POP POP SWAP3 SWAP2 POP POP JUMP JUMPDEST PUSH0 PUSH1 0x20 DUP3 ADD SWAP1 POP DUP2 DUP2 SUB PUSH0 DUP4 ADD MSTORE PUSH2 0xB53 DUP2 DUP5 PUSH2 0xB03 JUMP JUMPDEST SWAP1 POP SWAP3 SWAP2 POP POP JUMP JUMPDEST PUSH0 DUP1 REVERT JUMPDEST PUSH0 PUSH20 0xFFFFFFFFFFFFFFFFFFFFFFFFFFFFFFFFFFFFFFFF DUP3 AND SWAP1 POP SWAP2 SWAP1 POP JUMP JUMPDEST PUSH0 PUSH2 0xB88 DUP3 PUSH2 0xB5F JUMP JUMPDEST SWAP1 POP SWAP2 SWAP1 POP JUMP JUMPDEST PUSH2 0xB98 DUP2 PUSH2 0xB7E JUMP JUMPDEST DUP2 EQ PUSH2 0xBA2 JUMPI PUSH0 DUP1 REVERT JUMPDEST POP JUMP JUMPDEST PUSH0 DUP2 CALLDATALOAD SWAP1 POP PUSH2 0xBB3 DUP2 PUSH2 0xB8F JUMP JUMPDEST SWAP3 SWAP2 POP POP JUMP JUMPDEST PUSH0 DUP2 SWAP1 POP SWAP2 SWAP1 POP JUMP JUMPDEST PUSH2 0xBCB DUP2 PUSH2 0xBB9 JUMP JUMPDEST DUP2 EQ PUSH2 0xBD5 JUMPI PUSH0 DUP1 REVERT JUMPDEST POP JUMP JUMPDEST PUSH0 DUP2 CALLDATALOAD SWAP1 POP PUSH2 0xBE6 DUP2 PUSH2 0xBC2 JUMP JUMPDEST SWAP3 SWAP2 POP POP JUMP JUMPDEST PUSH0 DUP1 PUSH1 0x40 DUP4 DUP6 SUB SLT ISZERO PUSH2 0xC02 JUMPI PUSH2 0xC01 PUSH2 0xB5B JUMP JUMPDEST JUMPDEST PUSH0 PUSH2 0xC0F DUP6 DUP3 DUP7 ADD PUSH2 0xBA5 JUMP JUMPDEST SWAP3 POP POP PUSH1 0x20 PUSH2 0xC20 DUP6 DUP3 DUP7 ADD PUSH2 0xBD8 JUMP JUMPDEST SWAP2 POP POP SWAP3 POP SWAP3 SWAP1 POP JUMP JUMPDEST PUSH0 DUP2 ISZERO ISZERO SWAP1 POP SWAP2 SWAP1 POP JUMP JUMPDEST PUSH2 0xC3E DUP2 PUSH2 0xC2A JUMP JUMPDEST DUP3 MSTORE POP POP JUMP JUMPDEST PUSH0 PUSH1 0x20 DUP3 ADD SWAP1 POP PUSH2 0xC57 PUSH0 DUP4 ADD DUP5 PUSH2 0xC35 JUMP JUMPDEST SWAP3 SWAP2 POP POP JUMP JUMPDEST PUSH2 0xC66 DUP2 PUSH2 0xBB9 JUMP JUMPDEST DUP3 MSTORE POP POP JUMP JUMPDEST PUSH0 PUSH1 0x20 DUP3 ADD SWAP1 POP PUSH2 0xC7F PUSH0 DUP4 ADD DUP5 PUSH2 0xC5D JUMP JUMPDEST SWAP3 SWAP2 POP POP JUMP JUMPDEST PUSH0 DUP1 PUSH0 PUSH1 0x60 DUP5 DUP7 SUB SLT ISZERO PUSH2 0xC9C JUMPI PUSH2 0xC9B PUSH2 0xB5B JUMP JUMPDEST JUMPDEST PUSH0 PUSH2 0xCA9 DUP7 DUP3 DUP8 ADD PUSH2 0xBA5 JUMP JUMPDEST SWAP4 POP POP PUSH1 0x20 PUSH2 0xCBA DUP7 DUP3 DUP8 ADD PUSH2 0xBA5 JUMP JUMPDEST SWAP3 POP POP PUSH1 0x40 PUSH2 0xCCB DUP7 DUP3 DUP8 ADD PUSH2 0xBD8 JUMP JUMPDEST SWAP2 POP POP SWAP3 POP SWAP3 POP SWAP3 JUMP JUMPDEST PUSH0 PUSH1 0xFF DUP3 AND SWAP1 POP SWAP2 SWAP1 POP JUMP JUMPDEST PUSH2 0xCEA DUP2 PUSH2 0xCD5 JUMP JUMPDEST DUP3 MSTORE POP POP JUMP JUMPDEST PUSH0 PUSH1 0x20 DUP3 ADD SWAP1 POP PUSH2 0xD03 PUSH0 DUP4 ADD DUP5 PUSH2 0xCE1 JUMP JUMPDEST SWAP3 SWAP2 POP POP JUMP JUMPDEST PUSH0 PUSH1 0x20 DUP3 DUP5 SUB SLT ISZERO PUSH2 0xD1E JUMPI PUSH2 0xD1D PUSH2 0xB5B JUMP JUMPDEST JUMPDEST PUSH0 PUSH2 0xD2B DUP5 DUP3 DUP6 ADD PUSH2 0xBA5 JUMP JUMPDEST SWAP2 POP POP SWAP3 SWAP2 POP POP JUMP JUMPDEST PUSH0 DUP1 PUSH1 0x40 DUP4 DUP6 SUB SLT ISZERO PUSH2 0xD4A JUMPI PUSH2 0xD49 PUSH2 0xB5B JUMP JUMPDEST JUMPDEST PUSH0 PUSH2 0xD57 DUP6 DUP3 DUP7 ADD PUSH2 0xBA5 JUMP JUMPDEST SWAP3 POP POP PUSH1 0x20 PUSH2 0xD68 DUP6 DUP3 DUP7 ADD PUSH2 0xBA5 JUMP JUMPDEST SWAP2 POP POP SWAP3 POP SWAP3 SWAP1 POP JUMP JUMPDEST PUSH32 0x4E487B7100000000000000000000000000000000000000000000000000000000 PUSH0 MSTORE PUSH1 0x22 PUSH1 0x4 MSTORE PUSH1 0x24 PUSH0 REVERT JUMPDEST PUSH0 PUSH1 0x2 DUP3 DIV SWAP1 POP PUSH1 0x1 DUP3 AND DUP1 PUSH2 0xDB6 JUMPI PUSH1 0x7F DUP3 AND SWAP2 POP JUMPDEST PUSH1 0x20 DUP3 LT DUP2 SUB PUSH2 0xDC9 JUMPI PUSH2 0xDC8 PUSH2 0xD72 JUMP JUMPDEST JUMPDEST POP SWAP2 SWAP1 POP JUMP JUMPDEST PUSH32 0x496E76616C6964417070726F7665720000000000000000000000000000000000 PUSH0 DUP3 ADD MSTORE POP JUMP JUMPDEST PUSH0 PUSH2 0xE03 PUSH1 0xF DUP4 PUSH2 0xABB JUMP JUMPDEST SWAP2 POP PUSH2 0xE0E DUP3 PUSH2 0xDCF JUMP JUMPDEST PUSH1 0x20 DUP3 ADD SWAP1 POP SWAP2 SWAP1 POP JUMP JUMPDEST PUSH0 PUSH1 0x20 DUP3 ADD SWAP1 POP DUP2 DUP2 SUB PUSH0 DUP4 ADD MSTORE PUSH2 0xE30 DUP2 PUSH2 0xDF7 JUMP JUMPDEST SWAP1 POP SWAP2 SWAP1 POP JUMP JUMPDEST PUSH2 0xE40 DUP2 PUSH2 0xB7E JUMP JUMPDEST DUP3 MSTORE POP POP JUMP JUMPDEST PUSH0 PUSH1 0x60 DUP3 ADD SWAP1 POP PUSH2 0xE59 PUSH0 DUP4 ADD DUP7 PUSH2 0xE37 JUMP JUMPDEST PUSH2 0xE66 PUSH1 0x20 DUP4 ADD DUP6 PUSH2 0xC5D JUMP JUMPDEST PUSH2 0xE73 PUSH1 0x40 DUP4 ADD DUP5 PUSH2 0xC5D JUMP JUMPDEST SWAP5 SWAP4 POP POP POP POP JUMP JUMPDEST PUSH0 PUSH1 0x20 DUP3 ADD SWAP1 POP PUSH2 0xE8E PUSH0 DUP4 ADD DUP5 PUSH2 0xE37 JUMP JUMPDEST SWAP3 SWAP2 POP POP JUMP JUMPDEST PUSH32 0x4E487B7100000000000000000000000000000000000000000000000000000000 PUSH0 MSTORE PUSH1 0x11 PUSH1 0x4 MSTORE PUSH1 0x24 PUSH0 REVERT JUMPDEST PUSH0 PUSH2 0xECB DUP3 PUSH2 0xBB9 JUMP JUMPDEST SWAP2 POP PUSH2 0xED6 DUP4 PUSH2 0xBB9 JUMP JUMPDEST SWAP3 POP DUP3 DUP3 ADD SWAP1 POP DUP1 DUP3 GT ISZERO PUSH2 0xEEE JUMPI PUSH2 0xEED PUSH2 0xE94 JUMP JUMPDEST JUMPDEST SWAP3 SWAP2 POP POP JUMP INVALID LOG2 PUSH5 0x6970667358 0x22 SLT KECCAK256 PUSH2 0x7AC3 SELFBALANCE SLT DUP6 SHR DUP14 0x5C 0xE2 INVALID 0xE3 DUP14 PUSH14 0xAA7E1DDFB46383065B332266345E CODECOPY 0xA9 0xE1 TIMESTAMP PUSH5 0x736F6C6343 STOP ADDMOD EQ STOP CALLER "
				},
				"gasEstimates": {
					"creation": {
						"codeDepositCost": "776400",
						"executionCost": "infinite",
						"totalCost": "infinite"
					},
					"external": {
						"allowance(address,address)": "infinite",
						"approve(address,address,uint256)": "infinite",
						"approve(address,uint256)": "infinite",
						"balanceOf(address)": "2829",
						"decimals()": "427",
						"name()": "infinite",
						"symbol()": "infinite",
						"totalSupply()": "2477",
						"transfer(address,uint256)": "infinite",
						"transferFrom(address,address,uint256)": "infinite"
					}
				},
				"methodIdentifiers": {
					"allowance(address,address)": "dd62ed3e",
					"approve(address,address,uint256)": "e1f21c67",
					"approve(address,uint256)": "095ea7b3",
					"balanceOf(address)": "70a08231",
					"decimals()": "313ce567",
					"name()": "06fdde03",
					"symbol()": "95d89b41",
					"totalSupply()": "18160ddd",
					"transfer(address,uint256)": "a9059cbb",
					"transferFrom(address,address,uint256)": "23b872dd"
				}
			},
			"storageLayout": {
				"storage": [
					{
						"astId": 307,
						"contract": "Dex.sol:SwappableToken",
						"label": "_balances",
						"offset": 0,
						"slot": "0",
						"type": "t_mapping(t_address,t_uint256)"
					},
					{
						"astId": 313,
						"contract": "Dex.sol:SwappableToken",
						"label": "_allowances",
						"offset": 0,
						"slot": "1",
						"type": "t_mapping(t_address,t_mapping(t_address,t_uint256))"
					},
					{
						"astId": 315,
						"contract": "Dex.sol:SwappableToken",
						"label": "_totalSupply",
						"offset": 0,
						"slot": "2",
						"type": "t_uint256"
					},
					{
						"astId": 317,
						"contract": "Dex.sol:SwappableToken",
						"label": "_name",
						"offset": 0,
						"slot": "3",
						"type": "t_string_storage"
					},
					{
						"astId": 319,
						"contract": "Dex.sol:SwappableToken",
						"label": "_symbol",
						"offset": 0,
						"slot": "4",
						"type": "t_string_storage"
					},
					{
						"astId": 1169,
						"contract": "Dex.sol:SwappableToken",
						"label": "_dex",
						"offset": 0,
						"slot": "5",
						"type": "t_address"
					}
				],
				"types": {
					"t_address": {
						"encoding": "inplace",
						"label": "address",
						"numberOfBytes": "20"
					},
					"t_mapping(t_address,t_mapping(t_address,t_uint256))": {
						"encoding": "mapping",
						"key": "t_address",
						"label": "mapping(address => mapping(address => uint256))",
						"numberOfBytes": "32",
						"value": "t_mapping(t_address,t_uint256)"
					},
					"t_mapping(t_address,t_uint256)": {
						"encoding": "mapping",
						"key": "t_address",
						"label": "mapping(address => uint256)",
						"numberOfBytes": "32",
						"value": "t_uint256"
					},
					"t_string_storage": {
						"encoding": "bytes",
						"label": "string",
						"numberOfBytes": "32"
					},
					"t_uint256": {
						"encoding": "inplace",
						"label": "uint256",
						"numberOfBytes": "32"
					}
				}
			},
			"userdoc": {
				"kind": "user",
				"methods": {},
				"version": 1
			}
		}
	}
}