{
	"test5.sol": {
		"ContractB": {
			"abi": [
				{
					"inputs": [
						{
							"internalType": "address",
							"name": "_contractAAddress",
							"type": "address"
						}
					],
					"stateMutability": "nonpayable",
					"type": "constructor"
				},
				{
					"inputs": [],
					"name": "firstCall",
					"outputs": [
						{
							"internalType": "bool",
							"name": "",
							"type": "bool"
						}
					],
					"stateMutability": "view",
					"type": "function"
				},
				{
					"inputs": [
						{
							"internalType": "bytes8",
							"name": "key",
							"type": "bytes8"
						}
					],
					"name": "run",
					"outputs": [],
					"stateMutability": "nonpayable",
					"type": "function"
				},
				{
					"inputs": [],
					"name": "target",
					"outputs": [
						{
							"internalType": "contract IReentrance",
							"name": "",
							"type": "address"
						}
					],
					"stateMutability": "view",
					"type": "function"
				}
			],
			"devdoc": {
				"kind": "dev",
				"methods": {},
				"version": 1
			},
			"evm": {
				"assembly": "    /* \"test5.sol\":137:522  contract ContractB {... */\n  mstore(0x40, 0x80)\n    /* \"test5.sol\":219:223  true */\n  0x01\n    /* \"test5.sol\":195:223  bool public firstCall = true */\n  0x00\n  exp(0x0100, 0x14)\n  dup2\n  sload\n  dup2\n  0xff\n  mul\n  not\n  and\n  swap1\n  dup4\n  iszero\n  iszero\n  mul\n  or\n  swap1\n  sstore\n  pop\n    /* \"test5.sol\":256:257  0 */\n  0x00\n    /* \"test5.sol\":230:257  uint256 private counter = 0 */\n  0x01\n  sstore\n    /* \"test5.sol\":266:364  constructor (address _contractAAddress) {... */\n  callvalue\n  dup1\n  iszero\n  tag_1\n  jumpi\n  revert(0x00, 0x00)\ntag_1:\n  pop\n  mload(0x40)\n  sub(codesize, bytecodeSize)\n  dup1\n  bytecodeSize\n  dup4\n  codecopy\n  dup2\n  dup2\n  add\n  0x40\n  mstore\n  dup2\n  add\n  swap1\n  tag_2\n  swap2\n  swap1\n  tag_3\n  jump\t// in\ntag_2:\n    /* \"test5.sol\":338:355  _contractAAddress */\n  dup1\n    /* \"test5.sol\":317:323  target */\n  0x00\n  0x00\n    /* \"test5.sol\":317:356  target = IReentrance(_contractAAddress) */\n  0x0100\n  exp\n  dup2\n  sload\n  dup2\n  0xffffffffffffffffffffffffffffffffffffffff\n  mul\n  not\n  and\n  swap1\n  dup4\n  0xffffffffffffffffffffffffffffffffffffffff\n  and\n  mul\n  or\n  swap1\n  sstore\n  pop\n    /* \"test5.sol\":266:364  constructor (address _contractAAddress) {... */\n  pop\n    /* \"test5.sol\":137:522  contract ContractB {... */\n  jump(tag_6)\n    /* \"#utility.yul\":88:205   */\ntag_8:\n    /* \"#utility.yul\":197:198   */\n  0x00\n    /* \"#utility.yul\":194:195   */\n  0x00\n    /* \"#utility.yul\":187:199   */\n  revert\n    /* \"#utility.yul\":334:460   */\ntag_10:\n    /* \"#utility.yul\":371:378   */\n  0x00\n    /* \"#utility.yul\":411:453   */\n  0xffffffffffffffffffffffffffffffffffffffff\n    /* \"#utility.yul\":404:409   */\n  dup3\n    /* \"#utility.yul\":400:454   */\n  and\n    /* \"#utility.yul\":389:454   */\n  swap1\n  pop\n    /* \"#utility.yul\":334:460   */\n  swap2\n  swap1\n  pop\n  jump\t// out\n    /* \"#utility.yul\":466:562   */\ntag_11:\n    /* \"#utility.yul\":503:510   */\n  0x00\n    /* \"#utility.yul\":532:556   */\n  tag_20\n    /* \"#utility.yul\":550:555   */\n  dup3\n    /* \"#utility.yul\":532:556   */\n  tag_10\n  jump\t// in\ntag_20:\n    /* \"#utility.yul\":521:556   */\n  swap1\n  pop\n    /* \"#utility.yul\":466:562   */\n  swap2\n  swap1\n  pop\n  jump\t// out\n    /* \"#utility.yul\":568:690   */\ntag_12:\n    /* \"#utility.yul\":641:665   */\n  tag_22\n    /* \"#utility.yul\":659:664   */\n  dup2\n    /* \"#utility.yul\":641:665   */\n  tag_11\n  jump\t// in\ntag_22:\n    /* \"#utility.yul\":634:639   */\n  dup2\n    /* \"#utility.yul\":631:666   */\n  eq\n    /* \"#utility.yul\":621:684   */\n  tag_23\n  jumpi\n    /* \"#utility.yul\":680:681   */\n  0x00\n    /* \"#utility.yul\":677:678   */\n  0x00\n    /* \"#utility.yul\":670:682   */\n  revert\n    /* \"#utility.yul\":621:684   */\ntag_23:\n    /* \"#utility.yul\":568:690   */\n  pop\n  jump\t// out\n    /* \"#utility.yul\":696:839   */\ntag_13:\n    /* \"#utility.yul\":753:758   */\n  0x00\n    /* \"#utility.yul\":784:790   */\n  dup2\n    /* \"#utility.yul\":778:791   */\n  mload\n    /* \"#utility.yul\":769:791   */\n  swap1\n  pop\n    /* \"#utility.yul\":800:833   */\n  tag_25\n    /* \"#utility.yul\":827:832   */\n  dup2\n    /* \"#utility.yul\":800:833   */\n  tag_12\n  jump\t// in\ntag_25:\n    /* \"#utility.yul\":696:839   */\n  swap3\n  swap2\n  pop\n  pop\n  jump\t// out\n    /* \"#utility.yul\":845:1196   */\ntag_3:\n    /* \"#utility.yul\":915:921   */\n  0x00\n    /* \"#utility.yul\":964:966   */\n  0x20\n    /* \"#utility.yul\":952:961   */\n  dup3\n    /* \"#utility.yul\":943:950   */\n  dup5\n    /* \"#utility.yul\":939:962   */\n  sub\n    /* \"#utility.yul\":935:967   */\n  slt\n    /* \"#utility.yul\":932:1051   */\n  iszero\n  tag_27\n  jumpi\n    /* \"#utility.yul\":970:1049   */\n  tag_28\n  tag_8\n  jump\t// in\ntag_28:\n    /* \"#utility.yul\":932:1051   */\ntag_27:\n    /* \"#utility.yul\":1090:1091   */\n  0x00\n    /* \"#utility.yul\":1115:1179   */\n  tag_29\n    /* \"#utility.yul\":1171:1178   */\n  dup5\n    /* \"#utility.yul\":1162:1168   */\n  dup3\n    /* \"#utility.yul\":1151:1160   */\n  dup6\n    /* \"#utility.yul\":1147:1169   */\n  add\n    /* \"#utility.yul\":1115:1179   */\n  tag_13\n  jump\t// in\ntag_29:\n    /* \"#utility.yul\":1105:1179   */\n  swap2\n  pop\n    /* \"#utility.yul\":1061:1189   */\n  pop\n    /* \"#utility.yul\":845:1196   */\n  swap3\n  swap2\n  pop\n  pop\n  jump\t// out\n    /* \"test5.sol\":137:522  contract ContractB {... */\ntag_6:\n  dataSize(sub_0)\n  dup1\n  dataOffset(sub_0)\n  0x00\n  codecopy\n  0x00\n  return\nstop\n\nsub_0: assembly {\n        /* \"test5.sol\":137:522  contract ContractB {... */\n      mstore(0x40, 0x80)\n      callvalue\n      dup1\n      iszero\n      tag_1\n      jumpi\n      revert(0x00, 0x00)\n    tag_1:\n      pop\n      jumpi(tag_2, lt(calldatasize, 0x04))\n      shr(0xe0, calldataload(0x00))\n      dup1\n      0x1660d0b1\n      eq\n      tag_3\n      jumpi\n      dup1\n      0x7a7e5d42\n      eq\n      tag_4\n      jumpi\n      dup1\n      0xd4b83992\n      eq\n      tag_5\n      jumpi\n    tag_2:\n      revert(0x00, 0x00)\n        /* \"test5.sol\":195:223  bool public firstCall = true */\n    tag_3:\n      tag_6\n      tag_7\n      jump\t// in\n    tag_6:\n      mload(0x40)\n      tag_8\n      swap2\n      swap1\n      tag_9\n      jump\t// in\n    tag_8:\n      mload(0x40)\n      dup1\n      swap2\n      sub\n      swap1\n      return\n        /* \"test5.sol\":372:517  function run(bytes8 key) public {... */\n    tag_4:\n      tag_10\n      0x04\n      dup1\n      calldatasize\n      sub\n      dup2\n      add\n      swap1\n      tag_11\n      swap2\n      swap1\n      tag_12\n      jump\t// in\n    tag_11:\n      tag_13\n      jump\t// in\n    tag_10:\n      stop\n        /* \"test5.sol\":163:188  IReentrance public target */\n    tag_5:\n      tag_14\n      tag_15\n      jump\t// in\n    tag_14:\n      mload(0x40)\n      tag_16\n      swap2\n      swap1\n      tag_17\n      jump\t// in\n    tag_16:\n      mload(0x40)\n      dup1\n      swap2\n      sub\n      swap1\n      return\n        /* \"test5.sol\":195:223  bool public firstCall = true */\n    tag_7:\n      0x00\n      0x14\n      swap1\n      sload\n      swap1\n      0x0100\n      exp\n      swap1\n      div\n      0xff\n      and\n      dup2\n      jump\t// out\n        /* \"test5.sol\":372:517  function run(bytes8 key) public {... */\n    tag_13:\n        /* \"test5.sol\":415:421  target */\n      0x00\n      0x00\n      swap1\n      sload\n      swap1\n      0x0100\n      exp\n      swap1\n      div\n      0xffffffffffffffffffffffffffffffffffffffff\n      and\n        /* \"test5.sol\":415:427  target.enter */\n      0xffffffffffffffffffffffffffffffffffffffff\n      and\n      0x3370204e\n        /* \"test5.sol\":428:431  key */\n      dup3\n        /* \"test5.sol\":415:432  target.enter(key) */\n      mload(0x40)\n      dup3\n      0xffffffff\n      and\n      0xe0\n      shl\n      dup2\n      mstore\n      0x04\n      add\n      tag_19\n      swap2\n      swap1\n      tag_20\n      jump\t// in\n    tag_19:\n      0x00\n      mload(0x40)\n      dup1\n      dup4\n      sub\n      dup2\n      0x00\n      dup8\n      dup1\n      extcodesize\n      iszero\n      dup1\n      iszero\n      tag_21\n      jumpi\n      revert(0x00, 0x00)\n    tag_21:\n      pop\n      gas\n      call\n      iszero\n      dup1\n      iszero\n      tag_23\n      jumpi\n      returndatacopy(0x00, 0x00, returndatasize)\n      revert(0x00, returndatasize)\n    tag_23:\n      pop\n      pop\n      pop\n      pop\n        /* \"test5.sol\":443:513  while (gasleft() % 8191 != 0) {... */\n    tag_24:\n        /* \"test5.sol\":470:471  0 */\n      0x00\n        /* \"test5.sol\":462:466  8191 */\n      0x1fff\n        /* \"test5.sol\":450:459  gasleft() */\n      gas\n        /* \"test5.sol\":450:466  gasleft() % 8191 */\n      tag_26\n      swap2\n      swap1\n      tag_27\n      jump\t// in\n    tag_26:\n        /* \"test5.sol\":450:471  gasleft() % 8191 != 0 */\n      eq\n        /* \"test5.sol\":443:513  while (gasleft() % 8191 != 0) {... */\n      tag_25\n      jumpi\n        /* \"test5.sol\":499:500  1 */\n      0x01\n        /* \"test5.sol\":488:495  counter */\n      dup1\n      0x00\n        /* \"test5.sol\":488:500  counter += 1 */\n      dup3\n      dup3\n      sload\n      tag_28\n      swap2\n      swap1\n      tag_29\n      jump\t// in\n    tag_28:\n      swap3\n      pop\n      pop\n      dup2\n      swap1\n      sstore\n      pop\n        /* \"test5.sol\":443:513  while (gasleft() % 8191 != 0) {... */\n      jump(tag_24)\n    tag_25:\n        /* \"test5.sol\":372:517  function run(bytes8 key) public {... */\n      pop\n      jump\t// out\n        /* \"test5.sol\":163:188  IReentrance public target */\n    tag_15:\n      0x00\n      0x00\n      swap1\n      sload\n      swap1\n      0x0100\n      exp\n      swap1\n      div\n      0xffffffffffffffffffffffffffffffffffffffff\n      and\n      dup2\n      jump\t// out\n        /* \"#utility.yul\":7:97   */\n    tag_30:\n        /* \"#utility.yul\":41:48   */\n      0x00\n        /* \"#utility.yul\":84:89   */\n      dup2\n        /* \"#utility.yul\":77:90   */\n      iszero\n        /* \"#utility.yul\":70:91   */\n      iszero\n        /* \"#utility.yul\":59:91   */\n      swap1\n      pop\n        /* \"#utility.yul\":7:97   */\n      swap2\n      swap1\n      pop\n      jump\t// out\n        /* \"#utility.yul\":103:212   */\n    tag_31:\n        /* \"#utility.yul\":184:205   */\n      tag_51\n        /* \"#utility.yul\":199:204   */\n      dup2\n        /* \"#utility.yul\":184:205   */\n      tag_30\n      jump\t// in\n    tag_51:\n        /* \"#utility.yul\":179:182   */\n      dup3\n        /* \"#utility.yul\":172:206   */\n      mstore\n        /* \"#utility.yul\":103:212   */\n      pop\n      pop\n      jump\t// out\n        /* \"#utility.yul\":218:428   */\n    tag_9:\n        /* \"#utility.yul\":305:309   */\n      0x00\n        /* \"#utility.yul\":343:345   */\n      0x20\n        /* \"#utility.yul\":332:341   */\n      dup3\n        /* \"#utility.yul\":328:346   */\n      add\n        /* \"#utility.yul\":320:346   */\n      swap1\n      pop\n        /* \"#utility.yul\":356:421   */\n      tag_53\n        /* \"#utility.yul\":418:419   */\n      0x00\n        /* \"#utility.yul\":407:416   */\n      dup4\n        /* \"#utility.yul\":403:420   */\n      add\n        /* \"#utility.yul\":394:400   */\n      dup5\n        /* \"#utility.yul\":356:421   */\n      tag_31\n      jump\t// in\n    tag_53:\n        /* \"#utility.yul\":218:428   */\n      swap3\n      swap2\n      pop\n      pop\n      jump\t// out\n        /* \"#utility.yul\":515:632   */\n    tag_33:\n        /* \"#utility.yul\":624:625   */\n      0x00\n        /* \"#utility.yul\":621:622   */\n      0x00\n        /* \"#utility.yul\":614:626   */\n      revert\n        /* \"#utility.yul\":761:910   */\n    tag_35:\n        /* \"#utility.yul\":797:804   */\n      0x00\n        /* \"#utility.yul\":837:903   */\n      0xffffffffffffffff000000000000000000000000000000000000000000000000\n        /* \"#utility.yul\":830:835   */\n      dup3\n        /* \"#utility.yul\":826:904   */\n      and\n        /* \"#utility.yul\":815:904   */\n      swap1\n      pop\n        /* \"#utility.yul\":761:910   */\n      swap2\n      swap1\n      pop\n      jump\t// out\n        /* \"#utility.yul\":916:1036   */\n    tag_36:\n        /* \"#utility.yul\":988:1011   */\n      tag_59\n        /* \"#utility.yul\":1005:1010   */\n      dup2\n        /* \"#utility.yul\":988:1011   */\n      tag_35\n      jump\t// in\n    tag_59:\n        /* \"#utility.yul\":981:986   */\n      dup2\n        /* \"#utility.yul\":978:1012   */\n      eq\n        /* \"#utility.yul\":968:1030   */\n      tag_60\n      jumpi\n        /* \"#utility.yul\":1026:1027   */\n      0x00\n        /* \"#utility.yul\":1023:1024   */\n      0x00\n        /* \"#utility.yul\":1016:1028   */\n      revert\n        /* \"#utility.yul\":968:1030   */\n    tag_60:\n        /* \"#utility.yul\":916:1036   */\n      pop\n      jump\t// out\n        /* \"#utility.yul\":1042:1179   */\n    tag_37:\n        /* \"#utility.yul\":1087:1092   */\n      0x00\n        /* \"#utility.yul\":1125:1131   */\n      dup2\n        /* \"#utility.yul\":1112:1132   */\n      calldataload\n        /* \"#utility.yul\":1103:1132   */\n      swap1\n      pop\n        /* \"#utility.yul\":1141:1173   */\n      tag_62\n        /* \"#utility.yul\":1167:1172   */\n      dup2\n        /* \"#utility.yul\":1141:1173   */\n      tag_36\n      jump\t// in\n    tag_62:\n        /* \"#utility.yul\":1042:1179   */\n      swap3\n      swap2\n      pop\n      pop\n      jump\t// out\n        /* \"#utility.yul\":1185:1512   */\n    tag_12:\n        /* \"#utility.yul\":1243:1249   */\n      0x00\n        /* \"#utility.yul\":1292:1294   */\n      0x20\n        /* \"#utility.yul\":1280:1289   */\n      dup3\n        /* \"#utility.yul\":1271:1278   */\n      dup5\n        /* \"#utility.yul\":1267:1290   */\n      sub\n        /* \"#utility.yul\":1263:1295   */\n      slt\n        /* \"#utility.yul\":1260:1379   */\n      iszero\n      tag_64\n      jumpi\n        /* \"#utility.yul\":1298:1377   */\n      tag_65\n      tag_33\n      jump\t// in\n    tag_65:\n        /* \"#utility.yul\":1260:1379   */\n    tag_64:\n        /* \"#utility.yul\":1418:1419   */\n      0x00\n        /* \"#utility.yul\":1443:1495   */\n      tag_66\n        /* \"#utility.yul\":1487:1494   */\n      dup5\n        /* \"#utility.yul\":1478:1484   */\n      dup3\n        /* \"#utility.yul\":1467:1476   */\n      dup6\n        /* \"#utility.yul\":1463:1485   */\n      add\n        /* \"#utility.yul\":1443:1495   */\n      tag_37\n      jump\t// in\n    tag_66:\n        /* \"#utility.yul\":1433:1495   */\n      swap2\n      pop\n        /* \"#utility.yul\":1389:1505   */\n      pop\n        /* \"#utility.yul\":1185:1512   */\n      swap3\n      swap2\n      pop\n      pop\n      jump\t// out\n        /* \"#utility.yul\":1518:1644   */\n    tag_38:\n        /* \"#utility.yul\":1555:1562   */\n      0x00\n        /* \"#utility.yul\":1595:1637   */\n      0xffffffffffffffffffffffffffffffffffffffff\n        /* \"#utility.yul\":1588:1593   */\n      dup3\n        /* \"#utility.yul\":1584:1638   */\n      and\n        /* \"#utility.yul\":1573:1638   */\n      swap1\n      pop\n        /* \"#utility.yul\":1518:1644   */\n      swap2\n      swap1\n      pop\n      jump\t// out\n        /* \"#utility.yul\":1650:1710   */\n    tag_39:\n        /* \"#utility.yul\":1678:1681   */\n      0x00\n        /* \"#utility.yul\":1699:1704   */\n      dup2\n        /* \"#utility.yul\":1692:1704   */\n      swap1\n      pop\n        /* \"#utility.yul\":1650:1710   */\n      swap2\n      swap1\n      pop\n      jump\t// out\n        /* \"#utility.yul\":1716:1858   */\n    tag_40:\n        /* \"#utility.yul\":1766:1775   */\n      0x00\n        /* \"#utility.yul\":1799:1852   */\n      tag_70\n        /* \"#utility.yul\":1817:1851   */\n      tag_71\n        /* \"#utility.yul\":1826:1850   */\n      tag_72\n        /* \"#utility.yul\":1844:1849   */\n      dup5\n        /* \"#utility.yul\":1826:1850   */\n      tag_38\n      jump\t// in\n    tag_72:\n        /* \"#utility.yul\":1817:1851   */\n      tag_39\n      jump\t// in\n    tag_71:\n        /* \"#utility.yul\":1799:1852   */\n      tag_38\n      jump\t// in\n    tag_70:\n        /* \"#utility.yul\":1786:1852   */\n      swap1\n      pop\n        /* \"#utility.yul\":1716:1858   */\n      swap2\n      swap1\n      pop\n      jump\t// out\n        /* \"#utility.yul\":1864:1990   */\n    tag_41:\n        /* \"#utility.yul\":1914:1923   */\n      0x00\n        /* \"#utility.yul\":1947:1984   */\n      tag_74\n        /* \"#utility.yul\":1978:1983   */\n      dup3\n        /* \"#utility.yul\":1947:1984   */\n      tag_40\n      jump\t// in\n    tag_74:\n        /* \"#utility.yul\":1934:1984   */\n      swap1\n      pop\n        /* \"#utility.yul\":1864:1990   */\n      swap2\n      swap1\n      pop\n      jump\t// out\n        /* \"#utility.yul\":1996:2139   */\n    tag_42:\n        /* \"#utility.yul\":2063:2072   */\n      0x00\n        /* \"#utility.yul\":2096:2133   */\n      tag_76\n        /* \"#utility.yul\":2127:2132   */\n      dup3\n        /* \"#utility.yul\":2096:2133   */\n      tag_41\n      jump\t// in\n    tag_76:\n        /* \"#utility.yul\":2083:2133   */\n      swap1\n      pop\n        /* \"#utility.yul\":1996:2139   */\n      swap2\n      swap1\n      pop\n      jump\t// out\n        /* \"#utility.yul\":2145:2310   */\n    tag_43:\n        /* \"#utility.yul\":2249:2303   */\n      tag_78\n        /* \"#utility.yul\":2297:2302   */\n      dup2\n        /* \"#utility.yul\":2249:2303   */\n      tag_42\n      jump\t// in\n    tag_78:\n        /* \"#utility.yul\":2244:2247   */\n      dup3\n        /* \"#utility.yul\":2237:2304   */\n      mstore\n        /* \"#utility.yul\":2145:2310   */\n      pop\n      pop\n      jump\t// out\n        /* \"#utility.yul\":2316:2572   */\n    tag_17:\n        /* \"#utility.yul\":2426:2430   */\n      0x00\n        /* \"#utility.yul\":2464:2466   */\n      0x20\n        /* \"#utility.yul\":2453:2462   */\n      dup3\n        /* \"#utility.yul\":2449:2467   */\n      add\n        /* \"#utility.yul\":2441:2467   */\n      swap1\n      pop\n        /* \"#utility.yul\":2477:2565   */\n      tag_80\n        /* \"#utility.yul\":2562:2563   */\n      0x00\n        /* \"#utility.yul\":2551:2560   */\n      dup4\n        /* \"#utility.yul\":2547:2564   */\n      add\n        /* \"#utility.yul\":2538:2544   */\n      dup5\n        /* \"#utility.yul\":2477:2565   */\n      tag_43\n      jump\t// in\n    tag_80:\n        /* \"#utility.yul\":2316:2572   */\n      swap3\n      swap2\n      pop\n      pop\n      jump\t// out\n        /* \"#utility.yul\":2578:2693   */\n    tag_44:\n        /* \"#utility.yul\":2663:2686   */\n      tag_82\n        /* \"#utility.yul\":2680:2685   */\n      dup2\n        /* \"#utility.yul\":2663:2686   */\n      tag_35\n      jump\t// in\n    tag_82:\n        /* \"#utility.yul\":2658:2661   */\n      dup3\n        /* \"#utility.yul\":2651:2687   */\n      mstore\n        /* \"#utility.yul\":2578:2693   */\n      pop\n      pop\n      jump\t// out\n        /* \"#utility.yul\":2699:2917   */\n    tag_20:\n        /* \"#utility.yul\":2790:2794   */\n      0x00\n        /* \"#utility.yul\":2828:2830   */\n      0x20\n        /* \"#utility.yul\":2817:2826   */\n      dup3\n        /* \"#utility.yul\":2813:2831   */\n      add\n        /* \"#utility.yul\":2805:2831   */\n      swap1\n      pop\n        /* \"#utility.yul\":2841:2910   */\n      tag_84\n        /* \"#utility.yul\":2907:2908   */\n      0x00\n        /* \"#utility.yul\":2896:2905   */\n      dup4\n        /* \"#utility.yul\":2892:2909   */\n      add\n        /* \"#utility.yul\":2883:2889   */\n      dup5\n        /* \"#utility.yul\":2841:2910   */\n      tag_44\n      jump\t// in\n    tag_84:\n        /* \"#utility.yul\":2699:2917   */\n      swap3\n      swap2\n      pop\n      pop\n      jump\t// out\n        /* \"#utility.yul\":2923:3000   */\n    tag_45:\n        /* \"#utility.yul\":2960:2967   */\n      0x00\n        /* \"#utility.yul\":2989:2994   */\n      dup2\n        /* \"#utility.yul\":2978:2994   */\n      swap1\n      pop\n        /* \"#utility.yul\":2923:3000   */\n      swap2\n      swap1\n      pop\n      jump\t// out\n        /* \"#utility.yul\":3006:3186   */\n    tag_46:\n        /* \"#utility.yul\":3054:3131   */\n      0x4e487b7100000000000000000000000000000000000000000000000000000000\n        /* \"#utility.yul\":3051:3052   */\n      0x00\n        /* \"#utility.yul\":3044:3132   */\n      mstore\n        /* \"#utility.yul\":3151:3155   */\n      0x12\n        /* \"#utility.yul\":3148:3149   */\n      0x04\n        /* \"#utility.yul\":3141:3156   */\n      mstore\n        /* \"#utility.yul\":3175:3179   */\n      0x24\n        /* \"#utility.yul\":3172:3173   */\n      0x00\n        /* \"#utility.yul\":3165:3180   */\n      revert\n        /* \"#utility.yul\":3192:3368   */\n    tag_27:\n        /* \"#utility.yul\":3224:3225   */\n      0x00\n        /* \"#utility.yul\":3241:3261   */\n      tag_88\n        /* \"#utility.yul\":3259:3260   */\n      dup3\n        /* \"#utility.yul\":3241:3261   */\n      tag_45\n      jump\t// in\n    tag_88:\n        /* \"#utility.yul\":3236:3261   */\n      swap2\n      pop\n        /* \"#utility.yul\":3275:3295   */\n      tag_89\n        /* \"#utility.yul\":3293:3294   */\n      dup4\n        /* \"#utility.yul\":3275:3295   */\n      tag_45\n      jump\t// in\n    tag_89:\n        /* \"#utility.yul\":3270:3295   */\n      swap3\n      pop\n        /* \"#utility.yul\":3314:3315   */\n      dup3\n        /* \"#utility.yul\":3304:3339   */\n      tag_90\n      jumpi\n        /* \"#utility.yul\":3319:3337   */\n      tag_91\n      tag_46\n      jump\t// in\n    tag_91:\n        /* \"#utility.yul\":3304:3339   */\n    tag_90:\n        /* \"#utility.yul\":3360:3361   */\n      dup3\n        /* \"#utility.yul\":3357:3358   */\n      dup3\n        /* \"#utility.yul\":3353:3362   */\n      mod\n        /* \"#utility.yul\":3348:3362   */\n      swap1\n      pop\n        /* \"#utility.yul\":3192:3368   */\n      swap3\n      swap2\n      pop\n      pop\n      jump\t// out\n        /* \"#utility.yul\":3374:3554   */\n    tag_47:\n        /* \"#utility.yul\":3422:3499   */\n      0x4e487b7100000000000000000000000000000000000000000000000000000000\n        /* \"#utility.yul\":3419:3420   */\n      0x00\n        /* \"#utility.yul\":3412:3500   */\n      mstore\n        /* \"#utility.yul\":3519:3523   */\n      0x11\n        /* \"#utility.yul\":3516:3517   */\n      0x04\n        /* \"#utility.yul\":3509:3524   */\n      mstore\n        /* \"#utility.yul\":3543:3547   */\n      0x24\n        /* \"#utility.yul\":3540:3541   */\n      0x00\n        /* \"#utility.yul\":3533:3548   */\n      revert\n        /* \"#utility.yul\":3560:3751   */\n    tag_29:\n        /* \"#utility.yul\":3600:3603   */\n      0x00\n        /* \"#utility.yul\":3619:3639   */\n      tag_94\n        /* \"#utility.yul\":3637:3638   */\n      dup3\n        /* \"#utility.yul\":3619:3639   */\n      tag_45\n      jump\t// in\n    tag_94:\n        /* \"#utility.yul\":3614:3639   */\n      swap2\n      pop\n        /* \"#utility.yul\":3653:3673   */\n      tag_95\n        /* \"#utility.yul\":3671:3672   */\n      dup4\n        /* \"#utility.yul\":3653:3673   */\n      tag_45\n      jump\t// in\n    tag_95:\n        /* \"#utility.yul\":3648:3673   */\n      swap3\n      pop\n        /* \"#utility.yul\":3696:3697   */\n      dup3\n        /* \"#utility.yul\":3693:3694   */\n      dup3\n        /* \"#utility.yul\":3689:3698   */\n      add\n        /* \"#utility.yul\":3682:3698   */\n      swap1\n      pop\n        /* \"#utility.yul\":3717:3720   */\n      dup1\n        /* \"#utility.yul\":3714:3715   */\n      dup3\n        /* \"#utility.yul\":3711:3721   */\n      gt\n        /* \"#utility.yul\":3708:3744   */\n      iszero\n      tag_96\n      jumpi\n        /* \"#utility.yul\":3724:3742   */\n      tag_97\n      tag_47\n      jump\t// in\n    tag_97:\n        /* \"#utility.yul\":3708:3744   */\n    tag_96:\n        /* \"#utility.yul\":3560:3751   */\n      swap3\n      swap2\n      pop\n      pop\n      jump\t// out\n\n    auxdata: 0xa264697066735822122020938d10c5151dd74a8309d08a9cffc5826bcb67090ac5ad5c96fbf5444d93a864736f6c634300081d0033\n}\n",
				"bytecode": {
					"linkReferences": {},
					"object": "608060405260015f60146101000a81548160ff0219169083151502179055505f60015534801561002d575f5ffd5b50604051610524380380610524833981810160405281019061004f91906100f2565b805f5f6101000a81548173ffffffffffffffffffffffffffffffffffffffff021916908373ffffffffffffffffffffffffffffffffffffffff1602179055505061011d565b5f5ffd5b5f73ffffffffffffffffffffffffffffffffffffffff82169050919050565b5f6100c182610098565b9050919050565b6100d1816100b7565b81146100db575f5ffd5b50565b5f815190506100ec816100c8565b92915050565b5f6020828403121561010757610106610094565b5b5f610114848285016100de565b91505092915050565b6103fa8061012a5f395ff3fe608060405234801561000f575f5ffd5b506004361061003f575f3560e01c80631660d0b1146100435780637a7e5d4214610061578063d4b839921461007d575b5f5ffd5b61004b61009b565b60405161005891906101a6565b60405180910390f35b61007b60048036038101906100769190610218565b6100ad565b005b610085610168565b60405161009291906102bd565b60405180910390f35b5f60149054906101000a900460ff1681565b5f5f9054906101000a900473ffffffffffffffffffffffffffffffffffffffff1673ffffffffffffffffffffffffffffffffffffffff16633370204e826040518263ffffffff1660e01b815260040161010691906102e5565b5f604051808303815f87803b15801561011d575f5ffd5b505af115801561012f573d5f5f3e3d5ffd5b505050505b5f611fff5a6101439190610334565b14610165576001805f8282546101599190610391565b92505081905550610134565b50565b5f5f9054906101000a900473ffffffffffffffffffffffffffffffffffffffff1681565b5f8115159050919050565b6101a08161018c565b82525050565b5f6020820190506101b95f830184610197565b92915050565b5f5ffd5b5f7fffffffffffffffff00000000000000000000000000000000000000000000000082169050919050565b6101f7816101c3565b8114610201575f5ffd5b50565b5f81359050610212816101ee565b92915050565b5f6020828403121561022d5761022c6101bf565b5b5f61023a84828501610204565b91505092915050565b5f73ffffffffffffffffffffffffffffffffffffffff82169050919050565b5f819050919050565b5f61028561028061027b84610243565b610262565b610243565b9050919050565b5f6102968261026b565b9050919050565b5f6102a78261028c565b9050919050565b6102b78161029d565b82525050565b5f6020820190506102d05f8301846102ae565b92915050565b6102df816101c3565b82525050565b5f6020820190506102f85f8301846102d6565b92915050565b5f819050919050565b7f4e487b71000000000000000000000000000000000000000000000000000000005f52601260045260245ffd5b5f61033e826102fe565b9150610349836102fe565b92508261035957610358610307565b5b828206905092915050565b7f4e487b71000000000000000000000000000000000000000000000000000000005f52601160045260245ffd5b5f61039b826102fe565b91506103a6836102fe565b92508282019050808211156103be576103bd610364565b5b9291505056fea264697066735822122020938d10c5151dd74a8309d08a9cffc5826bcb67090ac5ad5c96fbf5444d93a864736f6c634300081d0033",
					"opcodes": "PUSH1 0x80 PUSH1 0x40 MSTORE PUSH1 0x1 PUSH0 PUSH1 0x14 PUSH2 0x100 EXP DUP2 SLOAD DUP2 PUSH1 0xFF MUL NOT AND SWAP1 DUP4 ISZERO ISZERO MUL OR SWAP1 SSTORE POP PUSH0 PUSH1 0x1 SSTORE CALLVALUE DUP1 ISZERO PUSH2 0x2D JUMPI PUSH0 PUSH0 REVERT JUMPDEST POP PUSH1 0x40 MLOAD PUSH2 0x524 CODESIZE SUB DUP1 PUSH2 0x524 DUP4 CODECOPY DUP2 DUP2 ADD PUSH1 0x40 MSTORE DUP2 ADD SWAP1 PUSH2 0x4F SWAP2 SWAP1 PUSH2 0xF2 JUMP JUMPDEST DUP1 PUSH0 PUSH0 PUSH2 0x100 EXP DUP2 SLOAD DUP2 PUSH20 0xFFFFFFFFFFFFFFFFFFFFFFFFFFFFFFFFFFFFFFFF MUL NOT AND SWAP1 DUP4 PUSH20 0xFFFFFFFFFFFFFFFFFFFFFFFFFFFFFFFFFFFFFFFF AND MUL OR SWAP1 SSTORE POP POP PUSH2 0x11D JUMP JUMPDEST PUSH0 PUSH0 REVERT JUMPDEST PUSH0 PUSH20 0xFFFFFFFFFFFFFFFFFFFFFFFFFFFFFFFFFFFFFFFF DUP3 AND SWAP1 POP SWAP2 SWAP1 POP JUMP JUMPDEST PUSH0 PUSH2 0xC1 DUP3 PUSH2 0x98 JUMP JUMPDEST SWAP1 POP SWAP2 SWAP1 POP JUMP JUMPDEST PUSH2 0xD1 DUP2 PUSH2 0xB7 JUMP JUMPDEST DUP2 EQ PUSH2 0xDB JUMPI PUSH0 PUSH0 REVERT JUMPDEST POP JUMP JUMPDEST PUSH0 DUP2 MLOAD SWAP1 POP PUSH2 0xEC DUP2 PUSH2 0xC8 JUMP JUMPDEST SWAP3 SWAP2 POP POP JUMP JUMPDEST PUSH0 PUSH1 0x20 DUP3 DUP5 SUB SLT ISZERO PUSH2 0x107 JUMPI PUSH2 0x106 PUSH2 0x94 JUMP JUMPDEST JUMPDEST PUSH0 PUSH2 0x114 DUP5 DUP3 DUP6 ADD PUSH2 0xDE JUMP JUMPDEST SWAP2 POP POP SWAP3 SWAP2 POP POP JUMP JUMPDEST PUSH2 0x3FA DUP1 PUSH2 0x12A PUSH0 CODECOPY PUSH0 RETURN INVALID PUSH1 0x80 PUSH1 0x40 MSTORE CALLVALUE DUP1 ISZERO PUSH2 0xF JUMPI PUSH0 PUSH0 REVERT JUMPDEST POP PUSH1 0x4 CALLDATASIZE LT PUSH2 0x3F JUMPI PUSH0 CALLDATALOAD PUSH1 0xE0 SHR DUP1 PUSH4 0x1660D0B1 EQ PUSH2 0x43 JUMPI DUP1 PUSH4 0x7A7E5D42 EQ PUSH2 0x61 JUMPI DUP1 PUSH4 0xD4B83992 EQ PUSH2 0x7D JUMPI JUMPDEST PUSH0 PUSH0 REVERT JUMPDEST PUSH2 0x4B PUSH2 0x9B JUMP JUMPDEST PUSH1 0x40 MLOAD PUSH2 0x58 SWAP2 SWAP1 PUSH2 0x1A6 JUMP JUMPDEST PUSH1 0x40 MLOAD DUP1 SWAP2 SUB SWAP1 RETURN JUMPDEST PUSH2 0x7B PUSH1 0x4 DUP1 CALLDATASIZE SUB DUP2 ADD SWAP1 PUSH2 0x76 SWAP2 SWAP1 PUSH2 0x218 JUMP JUMPDEST PUSH2 0xAD JUMP JUMPDEST STOP JUMPDEST PUSH2 0x85 PUSH2 0x168 JUMP JUMPDEST PUSH1 0x40 MLOAD PUSH2 0x92 SWAP2 SWAP1 PUSH2 0x2BD JUMP JUMPDEST PUSH1 0x40 MLOAD DUP1 SWAP2 SUB SWAP1 RETURN JUMPDEST PUSH0 PUSH1 0x14 SWAP1 SLOAD SWAP1 PUSH2 0x100 EXP SWAP1 DIV PUSH1 0xFF AND DUP2 JUMP JUMPDEST PUSH0 PUSH0 SWAP1 SLOAD SWAP1 PUSH2 0x100 EXP SWAP1 DIV PUSH20 0xFFFFFFFFFFFFFFFFFFFFFFFFFFFFFFFFFFFFFFFF AND PUSH20 0xFFFFFFFFFFFFFFFFFFFFFFFFFFFFFFFFFFFFFFFF AND PUSH4 0x3370204E DUP3 PUSH1 0x40 MLOAD DUP3 PUSH4 0xFFFFFFFF AND PUSH1 0xE0 SHL DUP2 MSTORE PUSH1 0x4 ADD PUSH2 0x106 SWAP2 SWAP1 PUSH2 0x2E5 JUMP JUMPDEST PUSH0 PUSH1 0x40 MLOAD DUP1 DUP4 SUB DUP2 PUSH0 DUP8 DUP1 EXTCODESIZE ISZERO DUP1 ISZERO PUSH2 0x11D JUMPI PUSH0 PUSH0 REVERT JUMPDEST POP GAS CALL ISZERO DUP1 ISZERO PUSH2 0x12F JUMPI RETURNDATASIZE PUSH0 PUSH0 RETURNDATACOPY RETURNDATASIZE PUSH0 REVERT JUMPDEST POP POP POP POP JUMPDEST PUSH0 PUSH2 0x1FFF GAS PUSH2 0x143 SWAP2 SWAP1 PUSH2 0x334 JUMP JUMPDEST EQ PUSH2 0x165 JUMPI PUSH1 0x1 DUP1 PUSH0 DUP3 DUP3 SLOAD PUSH2 0x159 SWAP2 SWAP1 PUSH2 0x391 JUMP JUMPDEST SWAP3 POP POP DUP2 SWAP1 SSTORE POP PUSH2 0x134 JUMP JUMPDEST POP JUMP JUMPDEST PUSH0 PUSH0 SWAP1 SLOAD SWAP1 PUSH2 0x100 EXP SWAP1 DIV PUSH20 0xFFFFFFFFFFFFFFFFFFFFFFFFFFFFFFFFFFFFFFFF AND DUP2 JUMP JUMPDEST PUSH0 DUP2 ISZERO ISZERO SWAP1 POP SWAP2 SWAP1 POP JUMP JUMPDEST PUSH2 0x1A0 DUP2 PUSH2 0x18C JUMP JUMPDEST DUP3 MSTORE POP POP JUMP JUMPDEST PUSH0 PUSH1 0x20 DUP3 ADD SWAP1 POP PUSH2 0x1B9 PUSH0 DUP4 ADD DUP5 PUSH2 0x197 JUMP JUMPDEST SWAP3 SWAP2 POP POP JUMP JUMPDEST PUSH0 PUSH0 REVERT JUMPDEST PUSH0 PUSH32 0xFFFFFFFFFFFFFFFF000000000000000000000000000000000000000000000000 DUP3 AND SWAP1 POP SWAP2 SWAP1 POP JUMP JUMPDEST PUSH2 0x1F7 DUP2 PUSH2 0x1C3 JUMP JUMPDEST DUP2 EQ PUSH2 0x201 JUMPI PUSH0 PUSH0 REVERT JUMPDEST POP JUMP JUMPDEST PUSH0 DUP2 CALLDATALOAD SWAP1 POP PUSH2 0x212 DUP2 PUSH2 0x1EE JUMP JUMPDEST SWAP3 SWAP2 POP POP JUMP JUMPDEST PUSH0 PUSH1 0x20 DUP3 DUP5 SUB SLT ISZERO PUSH2 0x22D JUMPI PUSH2 0x22C PUSH2 0x1BF JUMP JUMPDEST JUMPDEST PUSH0 PUSH2 0x23A DUP5 DUP3 DUP6 ADD PUSH2 0x204 JUMP JUMPDEST SWAP2 POP POP SWAP3 SWAP2 POP POP JUMP JUMPDEST PUSH0 PUSH20 0xFFFFFFFFFFFFFFFFFFFFFFFFFFFFFFFFFFFFFFFF DUP3 AND SWAP1 POP SWAP2 SWAP1 POP JUMP JUMPDEST PUSH0 DUP2 SWAP1 POP SWAP2 SWAP1 POP JUMP JUMPDEST PUSH0 PUSH2 0x285 PUSH2 0x280 PUSH2 0x27B DUP5 PUSH2 0x243 JUMP JUMPDEST PUSH2 0x262 JUMP JUMPDEST PUSH2 0x243 JUMP JUMPDEST SWAP1 POP SWAP2 SWAP1 POP JUMP JUMPDEST PUSH0 PUSH2 0x296 DUP3 PUSH2 0x26B JUMP JUMPDEST SWAP1 POP SWAP2 SWAP1 POP JUMP JUMPDEST PUSH0 PUSH2 0x2A7 DUP3 PUSH2 0x28C JUMP JUMPDEST SWAP1 POP SWAP2 SWAP1 POP JUMP JUMPDEST PUSH2 0x2B7 DUP2 PUSH2 0x29D JUMP JUMPDEST DUP3 MSTORE POP POP JUMP JUMPDEST PUSH0 PUSH1 0x20 DUP3 ADD SWAP1 POP PUSH2 0x2D0 PUSH0 DUP4 ADD DUP5 PUSH2 0x2AE JUMP JUMPDEST SWAP3 SWAP2 POP POP JUMP JUMPDEST PUSH2 0x2DF DUP2 PUSH2 0x1C3 JUMP JUMPDEST DUP3 MSTORE POP POP JUMP JUMPDEST PUSH0 PUSH1 0x20 DUP3 ADD SWAP1 POP PUSH2 0x2F8 PUSH0 DUP4 ADD DUP5 PUSH2 0x2D6 JUMP JUMPDEST SWAP3 SWAP2 POP POP JUMP JUMPDEST PUSH0 DUP2 SWAP1 POP SWAP2 SWAP1 POP JUMP JUMPDEST PUSH32 0x4E487B7100000000000000000000000000000000000000000000000000000000 PUSH0 MSTORE PUSH1 0x12 PUSH1 0x4 MSTORE PUSH1 0x24 PUSH0 REVERT JUMPDEST PUSH0 PUSH2 0x33E DUP3 PUSH2 0x2FE JUMP JUMPDEST SWAP2 POP PUSH2 0x349 DUP4 PUSH2 0x2FE JUMP JUMPDEST SWAP3 POP DUP3 PUSH2 0x359 JUMPI PUSH2 0x358 PUSH2 0x307 JUMP JUMPDEST JUMPDEST DUP3 DUP3 MOD SWAP1 POP SWAP3 SWAP2 POP POP JUMP JUMPDEST PUSH32 0x4E487B7100000000000000000000000000000000000000000000000000000000 PUSH0 MSTORE PUSH1 0x11 PUSH1 0x4 MSTORE PUSH1 0x24 PUSH0 REVERT JUMPDEST PUSH0 PUSH2 0x39B DUP3 PUSH2 0x2FE JUMP JUMPDEST SWAP2 POP PUSH2 0x3A6 DUP4 PUSH2 0x2FE JUMP JUMPDEST SWAP3 POP DUP3 DUP3 ADD SWAP1 POP DUP1 DUP3 GT ISZERO PUSH2 0x3BE JUMPI PUSH2 0x3BD PUSH2 0x364 JUMP JUMPDEST JUMPDEST SWAP3 SWAP2 POP POP JUMP INVALID LOG2 PUSH5 0x6970667358 0x22 SLT KECCAK256 KECCAK256 SWAP4 DUP14 LT 0xC5 ISZERO SAR 0xD7 BLOBBASEFEE DUP4 MULMOD 0xD0 DUP11 SWAP13 SELFDESTRUCT 0xC5 DUP3 PUSH12 0xCB67090AC5AD5C96FBF5444D SWAP4 0xA8 PUSH5 0x736F6C6343 STOP ADDMOD SAR STOP CALLER "
				},
				"gasEstimates": {
					"creation": {
						"codeDepositCost": "203600",
						"executionCost": "infinite",
						"totalCost": "infinite"
					},
					"external": {
						"firstCall()": "2494",
						"run(bytes8)": "infinite",
						"target()": "infinite"
					}
				},
				"methodIdentifiers": {
					"firstCall()": "1660d0b1",
					"run(bytes8)": "7a7e5d42",
					"target()": "d4b83992"
				}
			},
			"storageLayout": {
				"storage": [
					{
						"astId": 10,
						"contract": "test5.sol:ContractB",
						"label": "target",
						"offset": 0,
						"slot": "0",
						"type": "t_contract(IReentrance)7"
					},
					{
						"astId": 13,
						"contract": "test5.sol:ContractB",
						"label": "firstCall",
						"offset": 20,
						"slot": "0",
						"type": "t_bool"
					},
					{
						"astId": 16,
						"contract": "test5.sol:ContractB",
						"label": "counter",
						"offset": 0,
						"slot": "1",
						"type": "t_uint256"
					}
				],
				"types": {
					"t_bool": {
						"encoding": "inplace",
						"label": "bool",
						"numberOfBytes": "1"
					},
					"t_contract(IReentrance)7": {
						"encoding": "inplace",
						"label": "contract IReentrance",
						"numberOfBytes": "20"
					},
					"t_uint256": {
						"encoding": "inplace",
						"label": "uint256",
						"numberOfBytes": "32"
					}
				}
			},
			"userdoc": {
				"kind": "user",
				"methods": {},
				"version": 1
			}
		}
	}
}