{
	"testcall.sol": {
		"Switch": {
			"abi": [
				{
					"inputs": [
						{
							"internalType": "bytes",
							"name": "_data",
							"type": "bytes"
						}
					],
					"name": "flipSwitch",
					"outputs": [],
					"stateMutability": "nonpayable",
					"type": "function"
				},
				{
					"inputs": [],
					"name": "offSelector",
					"outputs": [
						{
							"internalType": "bytes4",
							"name": "",
							"type": "bytes4"
						}
					],
					"stateMutability": "view",
					"type": "function"
				},
				{
					"inputs": [],
					"name": "returnssss",
					"outputs": [
						{
							"internalType": "bytes32",
							"name": "selector3",
							"type": "bytes32"
						}
					],
					"stateMutability": "view",
					"type": "function"
				},
				{
					"inputs": [],
					"name": "returnssss1",
					"outputs": [
						{
							"internalType": "bytes32",
							"name": "selector3",
							"type": "bytes32"
						}
					],
					"stateMutability": "view",
					"type": "function"
				},
				{
					"inputs": [],
					"name": "switchOn",
					"outputs": [
						{
							"internalType": "bool",
							"name": "",
							"type": "bool"
						}
					],
					"stateMutability": "view",
					"type": "function"
				},
				{
					"inputs": [],
					"name": "turnSwitchOff",
					"outputs": [],
					"stateMutability": "nonpayable",
					"type": "function"
				},
				{
					"inputs": [],
					"name": "turnSwitchOn",
					"outputs": [],
					"stateMutability": "nonpayable",
					"type": "function"
				}
			],
			"devdoc": {
				"kind": "dev",
				"methods": {},
				"version": 1
			},
			"evm": {
				"assembly": "    /* \"testcall.sol\":57:1333  contract Switch {... */\n  mstore(0x40, 0x80)\n    /* \"testcall.sol\":157:185  keccak256(\"turnSwitchOff()\") */\n  0x20606e15b70f0894e0e83ae9593ae406a94abb5adcfcf0d169c6784f02198dc3\n    /* \"testcall.sol\":122:186  bytes4 public offSelector = bytes4(keccak256(\"turnSwitchOff()\")) */\n  0x00\n  exp(0x0100, 0x01)\n  dup2\n  sload\n  dup2\n  0xffffffff\n  mul\n  not\n  and\n  swap1\n  dup4\n  0xe0\n  shr\n  mul\n  or\n  swap1\n  sstore\n  pop\n    /* \"testcall.sol\":57:1333  contract Switch {... */\n  callvalue\n  dup1\n  iszero\n  tag_1\n  jumpi\n  0x00\n  dup1\n  revert\ntag_1:\n  pop\n  dataSize(sub_0)\n  dup1\n  dataOffset(sub_0)\n  0x00\n  codecopy\n  0x00\n  return\nstop\n\nsub_0: assembly {\n        /* \"testcall.sol\":57:1333  contract Switch {... */\n      mstore(0x40, 0x80)\n      callvalue\n      dup1\n      iszero\n      tag_1\n      jumpi\n      0x00\n      dup1\n      revert\n    tag_1:\n      pop\n      jumpi(tag_2, lt(calldatasize, 0x04))\n      shr(0xe0, calldataload(0x00))\n      dup1\n      0x5a2cfa66\n      gt\n      tag_10\n      jumpi\n      dup1\n      0x5a2cfa66\n      eq\n      tag_6\n      jumpi\n      dup1\n      0x76227e12\n      eq\n      tag_7\n      jumpi\n      dup1\n      0xc866715b\n      eq\n      tag_8\n      jumpi\n      dup1\n      0xf9f8f895\n      eq\n      tag_9\n      jumpi\n      jump(tag_2)\n    tag_10:\n      dup1\n      0x20606e15\n      eq\n      tag_3\n      jumpi\n      dup1\n      0x30c13ade\n      eq\n      tag_4\n      jumpi\n      dup1\n      0x33a2ffa7\n      eq\n      tag_5\n      jumpi\n    tag_2:\n      0x00\n      dup1\n      revert\n        /* \"testcall.sol\":1048:1122  function turnSwitchOff() public onlyThis {... */\n    tag_3:\n      tag_11\n      tag_12\n      jump\t// in\n    tag_11:\n      stop\n        /* \"testcall.sol\":805:964  function flipSwitch(bytes memory _data) public onlyOff {... */\n    tag_4:\n      tag_13\n      0x04\n      dup1\n      calldatasize\n      sub\n      dup2\n      add\n      swap1\n      tag_14\n      swap2\n      swap1\n      tag_15\n      jump\t// in\n    tag_14:\n      tag_16\n      jump\t// in\n    tag_13:\n      stop\n        /* \"testcall.sol\":1127:1224  function returnssss() public view  returns(bytes32 selector3){... */\n    tag_5:\n      tag_17\n      tag_18\n      jump\t// in\n    tag_17:\n      mload(0x40)\n      tag_19\n      swap2\n      swap1\n      tag_20\n      jump\t// in\n    tag_19:\n      mload(0x40)\n      dup1\n      swap2\n      sub\n      swap1\n      return\n        /* \"testcall.sol\":122:186  bytes4 public offSelector = bytes4(keccak256(\"turnSwitchOff()\")) */\n    tag_6:\n      tag_21\n      tag_22\n      jump\t// in\n    tag_21:\n      mload(0x40)\n      tag_23\n      swap2\n      swap1\n      tag_24\n      jump\t// in\n    tag_23:\n      mload(0x40)\n      dup1\n      swap2\n      sub\n      swap1\n      return\n        /* \"testcall.sol\":970:1042  function turnSwitchOn() public onlyThis {... */\n    tag_7:\n      tag_25\n      tag_26\n      jump\t// in\n    tag_25:\n      stop\n        /* \"testcall.sol\":1233:1331  function returnssss1() public view  returns(bytes32 selector3){... */\n    tag_8:\n      tag_27\n      tag_28\n      jump\t// in\n    tag_27:\n      mload(0x40)\n      tag_29\n      swap2\n      swap1\n      tag_20\n      jump\t// in\n    tag_29:\n      mload(0x40)\n      dup1\n      swap2\n      sub\n      swap1\n      return\n        /* \"testcall.sol\":79:99  bool public switchOn */\n    tag_9:\n      tag_30\n      tag_31\n      jump\t// in\n    tag_30:\n      mload(0x40)\n      tag_32\n      swap2\n      swap1\n      tag_33\n      jump\t// in\n    tag_32:\n      mload(0x40)\n      dup1\n      swap2\n      sub\n      swap1\n      return\n        /* \"testcall.sol\":1048:1122  function turnSwitchOff() public onlyThis {... */\n    tag_12:\n        /* \"testcall.sol\":306:310  this */\n      address\n        /* \"testcall.sol\":284:311  msg.sender == address(this) */\n      0xffffffffffffffffffffffffffffffffffffffff\n      and\n        /* \"testcall.sol\":284:294  msg.sender */\n      caller\n        /* \"testcall.sol\":284:311  msg.sender == address(this) */\n      0xffffffffffffffffffffffffffffffffffffffff\n      and\n      eq\n        /* \"testcall.sol\":276:347  require(msg.sender == address(this), \"Only the contract can call this\") */\n      tag_35\n      jumpi\n      mload(0x40)\n      0x08c379a000000000000000000000000000000000000000000000000000000000\n      dup2\n      mstore\n      0x04\n      add\n      tag_36\n      swap1\n      tag_37\n      jump\t// in\n    tag_36:\n      mload(0x40)\n      dup1\n      swap2\n      sub\n      swap1\n      revert\n    tag_35:\n        /* \"testcall.sol\":1110:1115  false */\n      0x00\n        /* \"testcall.sol\":1099:1107  switchOn */\n      dup1\n      0x00\n        /* \"testcall.sol\":1099:1115  switchOn = false */\n      0x0100\n      exp\n      dup2\n      sload\n      dup2\n      0xff\n      mul\n      not\n      and\n      swap1\n      dup4\n      iszero\n      iszero\n      mul\n      or\n      swap1\n      sstore\n      pop\n        /* \"testcall.sol\":1048:1122  function turnSwitchOff() public onlyThis {... */\n      jump\t// out\n        /* \"testcall.sol\":805:964  function flipSwitch(bytes memory _data) public onlyOff {... */\n    tag_16:\n        /* \"testcall.sol\":455:481  bytes32[1] memory selector */\n      tag_40\n      tag_41\n      jump\t// in\n    tag_40:\n        /* \"testcall.sol\":611:612  4 */\n      0x04\n        /* \"testcall.sol\":607:609  68 */\n      0x44\n        /* \"testcall.sol\":597:605  selector */\n      dup3\n        /* \"testcall.sol\":584:613  calldatacopy(selector, 68, 4) */\n      calldatacopy\n        /* \"testcall.sol\":684:692  selector */\n      dup1\n        /* \"testcall.sol\":672:681  selector3 */\n      0x02\n        /* \"testcall.sol\":672:692  selector3 = selector */\n      swap1\n      0x01\n      tag_42\n      swap3\n      swap2\n      swap1\n      tag_43\n      jump\t// in\n    tag_42:\n      pop\n        /* \"testcall.sol\":725:736  offSelector */\n      0x00\n      0x01\n      swap1\n      sload\n      swap1\n      0x0100\n      exp\n      swap1\n      div\n      0xe0\n      shl\n        /* \"testcall.sol\":710:736  selector[0] == offSelector */\n      not(0xffffffffffffffffffffffffffffffffffffffffffffffffffffffff)\n      and\n        /* \"testcall.sol\":710:718  selector */\n      dup2\n        /* \"testcall.sol\":719:720  0 */\n      0x00\n        /* \"testcall.sol\":710:721  selector[0] */\n      0x01\n      dup2\n      lt\n      tag_44\n      jumpi\n      mstore(0x00, 0x4e487b7100000000000000000000000000000000000000000000000000000000)\n      mstore(0x04, 0x32)\n      revert(0x00, 0x24)\n    tag_44:\n      0x20\n      mul\n      add\n      mload\n        /* \"testcall.sol\":710:736  selector[0] == offSelector */\n      eq\n        /* \"testcall.sol\":702:781  require(selector[0] == offSelector, \"Can only call the turnOffSwitch function\") */\n      tag_45\n      jumpi\n      mload(0x40)\n      0x08c379a000000000000000000000000000000000000000000000000000000000\n      dup2\n      mstore\n      0x04\n      add\n      tag_46\n      swap1\n      tag_47\n      jump\t// in\n    tag_46:\n      mload(0x40)\n      dup1\n      swap2\n      sub\n      swap1\n      revert\n    tag_45:\n        /* \"testcall.sol\":871:883  bool success */\n      0x00\n        /* \"testcall.sol\":896:900  this */\n      address\n        /* \"testcall.sol\":888:906  address(this).call */\n      0xffffffffffffffffffffffffffffffffffffffff\n      and\n        /* \"testcall.sol\":907:912  _data */\n      dup4\n        /* \"testcall.sol\":888:913  address(this).call(_data) */\n      mload(0x40)\n      tag_49\n      swap2\n      swap1\n      tag_50\n      jump\t// in\n    tag_49:\n      0x00\n      mload(0x40)\n      dup1\n      dup4\n      sub\n      dup2\n      0x00\n      dup7\n      gas\n      call\n      swap2\n      pop\n      pop\n      returndatasize\n      dup1\n      0x00\n      dup2\n      eq\n      tag_53\n      jumpi\n      mload(0x40)\n      swap2\n      pop\n      and(add(returndatasize, 0x3f), not(0x1f))\n      dup3\n      add\n      0x40\n      mstore\n      returndatasize\n      dup3\n      mstore\n      returndatasize\n      0x00\n      0x20\n      dup5\n      add\n      returndatacopy\n      jump(tag_52)\n    tag_53:\n      0x60\n      swap2\n      pop\n    tag_52:\n      pop\n        /* \"testcall.sol\":870:913  (bool success,) = address(this).call(_data) */\n      pop\n      swap1\n      pop\n        /* \"testcall.sol\":931:938  success */\n      dup1\n        /* \"testcall.sol\":923:957  require(success, \"call failed :(\") */\n      tag_54\n      jumpi\n      mload(0x40)\n      0x08c379a000000000000000000000000000000000000000000000000000000000\n      dup2\n      mstore\n      0x04\n      add\n      tag_55\n      swap1\n      tag_56\n      jump\t// in\n    tag_55:\n      mload(0x40)\n      dup1\n      swap2\n      sub\n      swap1\n      revert\n    tag_54:\n        /* \"testcall.sol\":791:792  _ */\n      pop\n        /* \"testcall.sol\":805:964  function flipSwitch(bytes memory _data) public onlyOff {... */\n      pop\n      pop\n      jump\t// out\n        /* \"testcall.sol\":1127:1224  function returnssss() public view  returns(bytes32 selector3){... */\n    tag_18:\n        /* \"testcall.sol\":1170:1187  bytes32 selector3 */\n      0x00\n        /* \"testcall.sol\":1205:1214  selector3 */\n      dup1\n        /* \"testcall.sol\":1215:1216  0 */\n      0x00\n        /* \"testcall.sol\":1205:1217  selector3[0] */\n      0x20\n      dup2\n      lt\n      tag_58\n      jumpi\n      mstore(0x00, 0x4e487b7100000000000000000000000000000000000000000000000000000000)\n      mstore(0x04, 0x32)\n      revert(0x00, 0x24)\n    tag_58:\n      byte\n      0xf8\n      shl\n        /* \"testcall.sol\":1198:1217  return selector3[0] */\n      not(0xffffffffffffffffffffffffffffffffffffffffffffffffffffffffffffff)\n      and\n      swap1\n      pop\n        /* \"testcall.sol\":1127:1224  function returnssss() public view  returns(bytes32 selector3){... */\n      swap1\n      jump\t// out\n        /* \"testcall.sol\":122:186  bytes4 public offSelector = bytes4(keccak256(\"turnSwitchOff()\")) */\n    tag_22:\n      0x00\n      0x01\n      swap1\n      sload\n      swap1\n      0x0100\n      exp\n      swap1\n      div\n      0xe0\n      shl\n      dup2\n      jump\t// out\n        /* \"testcall.sol\":970:1042  function turnSwitchOn() public onlyThis {... */\n    tag_26:\n        /* \"testcall.sol\":306:310  this */\n      address\n        /* \"testcall.sol\":284:311  msg.sender == address(this) */\n      0xffffffffffffffffffffffffffffffffffffffff\n      and\n        /* \"testcall.sol\":284:294  msg.sender */\n      caller\n        /* \"testcall.sol\":284:311  msg.sender == address(this) */\n      0xffffffffffffffffffffffffffffffffffffffff\n      and\n      eq\n        /* \"testcall.sol\":276:347  require(msg.sender == address(this), \"Only the contract can call this\") */\n      tag_60\n      jumpi\n      mload(0x40)\n      0x08c379a000000000000000000000000000000000000000000000000000000000\n      dup2\n      mstore\n      0x04\n      add\n      tag_61\n      swap1\n      tag_37\n      jump\t// in\n    tag_61:\n      mload(0x40)\n      dup1\n      swap2\n      sub\n      swap1\n      revert\n    tag_60:\n        /* \"testcall.sol\":1031:1035  true */\n      0x01\n        /* \"testcall.sol\":1020:1028  switchOn */\n      0x00\n      dup1\n        /* \"testcall.sol\":1020:1035  switchOn = true */\n      0x0100\n      exp\n      dup2\n      sload\n      dup2\n      0xff\n      mul\n      not\n      and\n      swap1\n      dup4\n      iszero\n      iszero\n      mul\n      or\n      swap1\n      sstore\n      pop\n        /* \"testcall.sol\":970:1042  function turnSwitchOn() public onlyThis {... */\n      jump\t// out\n        /* \"testcall.sol\":1233:1331  function returnssss1() public view  returns(bytes32 selector3){... */\n    tag_28:\n        /* \"testcall.sol\":1277:1294  bytes32 selector3 */\n      0x00\n        /* \"testcall.sol\":1312:1321  selector3 */\n      dup1\n        /* \"testcall.sol\":1322:1323  1 */\n      0x01\n        /* \"testcall.sol\":1312:1324  selector3[1] */\n      0x20\n      dup2\n      lt\n      tag_64\n      jumpi\n      mstore(0x00, 0x4e487b7100000000000000000000000000000000000000000000000000000000)\n      mstore(0x04, 0x32)\n      revert(0x00, 0x24)\n    tag_64:\n      byte\n      0xf8\n      shl\n        /* \"testcall.sol\":1305:1324  return selector3[1] */\n      not(0xffffffffffffffffffffffffffffffffffffffffffffffffffffffffffffff)\n      and\n      swap1\n      pop\n        /* \"testcall.sol\":1233:1331  function returnssss1() public view  returns(bytes32 selector3){... */\n      swap1\n      jump\t// out\n        /* \"testcall.sol\":79:99  bool public switchOn */\n    tag_31:\n      0x00\n      dup1\n      sload\n      swap1\n      0x0100\n      exp\n      swap1\n      div\n      0xff\n      and\n      dup2\n      jump\t// out\n    tag_41:\n      mload(0x40)\n      dup1\n      0x20\n      add\n      0x40\n      mstore\n      dup1\n      0x01\n      swap1\n      0x20\n      dup3\n      mul\n      dup1\n      calldatasize\n      dup4\n      calldatacopy\n      dup1\n      dup3\n      add\n      swap2\n      pop\n      pop\n      swap1\n      pop\n      pop\n      swap1\n      jump\t// out\n    tag_43:\n      dup3\n      0x01\n      dup2\n      add\n      swap3\n      dup3\n      iszero\n      tag_65\n      jumpi\n      swap2\n      0x20\n      mul\n      dup3\n      add\n    tag_66:\n      dup3\n      dup2\n      gt\n      iszero\n      tag_67\n      jumpi\n      dup3\n      mload\n      dup3\n      sstore\n      swap2\n      0x20\n      add\n      swap2\n      swap1\n      0x01\n      add\n      swap1\n      jump(tag_66)\n    tag_67:\n    tag_65:\n      pop\n      swap1\n      pop\n      tag_68\n      swap2\n      swap1\n      tag_69\n      jump\t// in\n    tag_68:\n      pop\n      swap1\n      jump\t// out\n    tag_69:\n    tag_70:\n      dup1\n      dup3\n      gt\n      iszero\n      tag_71\n      jumpi\n      0x00\n      dup2\n      0x00\n      swap1\n      sstore\n      pop\n      0x01\n      add\n      jump(tag_70)\n    tag_71:\n      pop\n      swap1\n      jump\t// out\n        /* \"#utility.yul\":7:349   */\n    tag_73:\n      0x00\n        /* \"#utility.yul\":109:173   */\n      tag_75\n        /* \"#utility.yul\":124:172   */\n      tag_76\n        /* \"#utility.yul\":165:171   */\n      dup5\n        /* \"#utility.yul\":124:172   */\n      tag_77\n      jump\t// in\n    tag_76:\n        /* \"#utility.yul\":109:173   */\n      tag_78\n      jump\t// in\n    tag_75:\n        /* \"#utility.yul\":100:173   */\n      swap1\n      pop\n        /* \"#utility.yul\":196:202   */\n      dup3\n        /* \"#utility.yul\":189:194   */\n      dup2\n        /* \"#utility.yul\":182:203   */\n      mstore\n        /* \"#utility.yul\":234:238   */\n      0x20\n        /* \"#utility.yul\":227:232   */\n      dup2\n        /* \"#utility.yul\":223:239   */\n      add\n        /* \"#utility.yul\":272:275   */\n      dup5\n        /* \"#utility.yul\":263:269   */\n      dup5\n        /* \"#utility.yul\":258:261   */\n      dup5\n        /* \"#utility.yul\":254:270   */\n      add\n        /* \"#utility.yul\":251:276   */\n      gt\n        /* \"#utility.yul\":248:250   */\n      iszero\n      tag_79\n      jumpi\n        /* \"#utility.yul\":289:290   */\n      0x00\n        /* \"#utility.yul\":286:287   */\n      dup1\n        /* \"#utility.yul\":279:291   */\n      revert\n        /* \"#utility.yul\":248:250   */\n    tag_79:\n        /* \"#utility.yul\":302:343   */\n      tag_80\n        /* \"#utility.yul\":336:342   */\n      dup5\n        /* \"#utility.yul\":331:334   */\n      dup3\n        /* \"#utility.yul\":326:329   */\n      dup6\n        /* \"#utility.yul\":302:343   */\n      tag_81\n      jump\t// in\n    tag_80:\n        /* \"#utility.yul\":90:349   */\n      pop\n      swap4\n      swap3\n      pop\n      pop\n      pop\n      jump\t// out\n        /* \"#utility.yul\":368:639   */\n    tag_82:\n      0x00\n        /* \"#utility.yul\":472:475   */\n      dup3\n        /* \"#utility.yul\":465:469   */\n      0x1f\n        /* \"#utility.yul\":457:463   */\n      dup4\n        /* \"#utility.yul\":453:470   */\n      add\n        /* \"#utility.yul\":449:476   */\n      slt\n        /* \"#utility.yul\":439:441   */\n      tag_84\n      jumpi\n        /* \"#utility.yul\":490:491   */\n      0x00\n        /* \"#utility.yul\":487:488   */\n      dup1\n        /* \"#utility.yul\":480:492   */\n      revert\n        /* \"#utility.yul\":439:441   */\n    tag_84:\n        /* \"#utility.yul\":530:536   */\n      dup2\n        /* \"#utility.yul\":517:537   */\n      calldataload\n        /* \"#utility.yul\":555:633   */\n      tag_85\n        /* \"#utility.yul\":629:632   */\n      dup5\n        /* \"#utility.yul\":621:627   */\n      dup3\n        /* \"#utility.yul\":614:618   */\n      0x20\n        /* \"#utility.yul\":606:612   */\n      dup7\n        /* \"#utility.yul\":602:619   */\n      add\n        /* \"#utility.yul\":555:633   */\n      tag_73\n      jump\t// in\n    tag_85:\n        /* \"#utility.yul\":546:633   */\n      swap2\n      pop\n        /* \"#utility.yul\":429:639   */\n      pop\n      swap3\n      swap2\n      pop\n      pop\n      jump\t// out\n        /* \"#utility.yul\":645:1018   */\n    tag_15:\n      0x00\n        /* \"#utility.yul\":762:764   */\n      0x20\n        /* \"#utility.yul\":750:759   */\n      dup3\n        /* \"#utility.yul\":741:748   */\n      dup5\n        /* \"#utility.yul\":737:760   */\n      sub\n        /* \"#utility.yul\":733:765   */\n      slt\n        /* \"#utility.yul\":730:732   */\n      iszero\n      tag_87\n      jumpi\n        /* \"#utility.yul\":778:779   */\n      0x00\n        /* \"#utility.yul\":775:776   */\n      dup1\n        /* \"#utility.yul\":768:780   */\n      revert\n        /* \"#utility.yul\":730:732   */\n    tag_87:\n        /* \"#utility.yul\":849:850   */\n      0x00\n        /* \"#utility.yul\":838:847   */\n      dup3\n        /* \"#utility.yul\":834:851   */\n      add\n        /* \"#utility.yul\":821:852   */\n      calldataload\n        /* \"#utility.yul\":879:897   */\n      0xffffffffffffffff\n        /* \"#utility.yul\":871:877   */\n      dup2\n        /* \"#utility.yul\":868:898   */\n      gt\n        /* \"#utility.yul\":865:867   */\n      iszero\n      tag_88\n      jumpi\n        /* \"#utility.yul\":911:912   */\n      0x00\n        /* \"#utility.yul\":908:909   */\n      dup1\n        /* \"#utility.yul\":901:913   */\n      revert\n        /* \"#utility.yul\":865:867   */\n    tag_88:\n        /* \"#utility.yul\":939:1001   */\n      tag_89\n        /* \"#utility.yul\":993:1000   */\n      dup5\n        /* \"#utility.yul\":984:990   */\n      dup3\n        /* \"#utility.yul\":973:982   */\n      dup6\n        /* \"#utility.yul\":969:991   */\n      add\n        /* \"#utility.yul\":939:1001   */\n      tag_82\n      jump\t// in\n    tag_89:\n        /* \"#utility.yul\":929:1001   */\n      swap2\n      pop\n        /* \"#utility.yul\":792:1011   */\n      pop\n        /* \"#utility.yul\":720:1018   */\n      swap3\n      swap2\n      pop\n      pop\n      jump\t// out\n        /* \"#utility.yul\":1024:1133   */\n    tag_90:\n        /* \"#utility.yul\":1105:1126   */\n      tag_92\n        /* \"#utility.yul\":1120:1125   */\n      dup2\n        /* \"#utility.yul\":1105:1126   */\n      tag_93\n      jump\t// in\n    tag_92:\n        /* \"#utility.yul\":1100:1103   */\n      dup3\n        /* \"#utility.yul\":1093:1127   */\n      mstore\n        /* \"#utility.yul\":1083:1133   */\n      pop\n      pop\n      jump\t// out\n        /* \"#utility.yul\":1139:1257   */\n    tag_94:\n        /* \"#utility.yul\":1226:1250   */\n      tag_96\n        /* \"#utility.yul\":1244:1249   */\n      dup2\n        /* \"#utility.yul\":1226:1250   */\n      tag_97\n      jump\t// in\n    tag_96:\n        /* \"#utility.yul\":1221:1224   */\n      dup3\n        /* \"#utility.yul\":1214:1251   */\n      mstore\n        /* \"#utility.yul\":1204:1257   */\n      pop\n      pop\n      jump\t// out\n        /* \"#utility.yul\":1263:1378   */\n    tag_98:\n        /* \"#utility.yul\":1348:1371   */\n      tag_100\n        /* \"#utility.yul\":1365:1370   */\n      dup2\n        /* \"#utility.yul\":1348:1371   */\n      tag_101\n      jump\t// in\n    tag_100:\n        /* \"#utility.yul\":1343:1346   */\n      dup3\n        /* \"#utility.yul\":1336:1372   */\n      mstore\n        /* \"#utility.yul\":1326:1378   */\n      pop\n      pop\n      jump\t// out\n        /* \"#utility.yul\":1384:1757   */\n    tag_102:\n      0x00\n        /* \"#utility.yul\":1516:1554   */\n      tag_104\n        /* \"#utility.yul\":1548:1553   */\n      dup3\n        /* \"#utility.yul\":1516:1554   */\n      tag_105\n      jump\t// in\n    tag_104:\n        /* \"#utility.yul\":1570:1658   */\n      tag_106\n        /* \"#utility.yul\":1651:1657   */\n      dup2\n        /* \"#utility.yul\":1646:1649   */\n      dup6\n        /* \"#utility.yul\":1570:1658   */\n      tag_107\n      jump\t// in\n    tag_106:\n        /* \"#utility.yul\":1563:1658   */\n      swap4\n      pop\n        /* \"#utility.yul\":1667:1719   */\n      tag_108\n        /* \"#utility.yul\":1712:1718   */\n      dup2\n        /* \"#utility.yul\":1707:1710   */\n      dup6\n        /* \"#utility.yul\":1700:1704   */\n      0x20\n        /* \"#utility.yul\":1693:1698   */\n      dup7\n        /* \"#utility.yul\":1689:1705   */\n      add\n        /* \"#utility.yul\":1667:1719   */\n      tag_109\n      jump\t// in\n    tag_108:\n        /* \"#utility.yul\":1744:1750   */\n      dup1\n        /* \"#utility.yul\":1739:1742   */\n      dup5\n        /* \"#utility.yul\":1735:1751   */\n      add\n        /* \"#utility.yul\":1728:1751   */\n      swap2\n      pop\n        /* \"#utility.yul\":1492:1757   */\n      pop\n      swap3\n      swap2\n      pop\n      pop\n      jump\t// out\n        /* \"#utility.yul\":1763:2135   */\n    tag_110:\n      0x00\n        /* \"#utility.yul\":1926:1993   */\n      tag_112\n        /* \"#utility.yul\":1990:1992   */\n      0x28\n        /* \"#utility.yul\":1985:1988   */\n      dup4\n        /* \"#utility.yul\":1926:1993   */\n      tag_113\n      jump\t// in\n    tag_112:\n        /* \"#utility.yul\":1919:1993   */\n      swap2\n      pop\n        /* \"#utility.yul\":2023:2057   */\n      0x43616e206f6e6c792063616c6c20746865207475726e4f666653776974636820\n        /* \"#utility.yul\":2019:2020   */\n      0x00\n        /* \"#utility.yul\":2014:2017   */\n      dup4\n        /* \"#utility.yul\":2010:2021   */\n      add\n        /* \"#utility.yul\":2003:2058   */\n      mstore\n        /* \"#utility.yul\":2089:2099   */\n      0x66756e6374696f6e000000000000000000000000000000000000000000000000\n        /* \"#utility.yul\":2084:2086   */\n      0x20\n        /* \"#utility.yul\":2079:2082   */\n      dup4\n        /* \"#utility.yul\":2075:2087   */\n      add\n        /* \"#utility.yul\":2068:2100   */\n      mstore\n        /* \"#utility.yul\":2126:2128   */\n      0x40\n        /* \"#utility.yul\":2121:2124   */\n      dup3\n        /* \"#utility.yul\":2117:2129   */\n      add\n        /* \"#utility.yul\":2110:2129   */\n      swap1\n      pop\n        /* \"#utility.yul\":1909:2135   */\n      swap2\n      swap1\n      pop\n      jump\t// out\n        /* \"#utility.yul\":2141:2470   */\n    tag_114:\n      0x00\n        /* \"#utility.yul\":2304:2371   */\n      tag_116\n        /* \"#utility.yul\":2368:2370   */\n      0x1f\n        /* \"#utility.yul\":2363:2366   */\n      dup4\n        /* \"#utility.yul\":2304:2371   */\n      tag_113\n      jump\t// in\n    tag_116:\n        /* \"#utility.yul\":2297:2371   */\n      swap2\n      pop\n        /* \"#utility.yul\":2401:2434   */\n      0x4f6e6c792074686520636f6e74726163742063616e2063616c6c207468697300\n        /* \"#utility.yul\":2397:2398   */\n      0x00\n        /* \"#utility.yul\":2392:2395   */\n      dup4\n        /* \"#utility.yul\":2388:2399   */\n      add\n        /* \"#utility.yul\":2381:2435   */\n      mstore\n        /* \"#utility.yul\":2461:2463   */\n      0x20\n        /* \"#utility.yul\":2456:2459   */\n      dup3\n        /* \"#utility.yul\":2452:2464   */\n      add\n        /* \"#utility.yul\":2445:2464   */\n      swap1\n      pop\n        /* \"#utility.yul\":2287:2470   */\n      swap2\n      swap1\n      pop\n      jump\t// out\n        /* \"#utility.yul\":2476:2796   */\n    tag_117:\n      0x00\n        /* \"#utility.yul\":2639:2706   */\n      tag_119\n        /* \"#utility.yul\":2703:2705   */\n      0x0e\n        /* \"#utility.yul\":2698:2701   */\n      dup4\n        /* \"#utility.yul\":2639:2706   */\n      tag_113\n      jump\t// in\n    tag_119:\n        /* \"#utility.yul\":2632:2706   */\n      swap2\n      pop\n        /* \"#utility.yul\":2736:2752   */\n      0x63616c6c206661696c6564203a28000000000000000000000000000000000000\n        /* \"#utility.yul\":2732:2733   */\n      0x00\n        /* \"#utility.yul\":2727:2730   */\n      dup4\n        /* \"#utility.yul\":2723:2734   */\n      add\n        /* \"#utility.yul\":2716:2753   */\n      mstore\n        /* \"#utility.yul\":2783:2785   */\n      0x20\n        /* \"#utility.yul\":2778:2781   */\n      dup3\n        /* \"#utility.yul\":2774:2786   */\n      add\n        /* \"#utility.yul\":2767:2786   */\n      swap1\n      pop\n        /* \"#utility.yul\":2622:2796   */\n      swap2\n      swap1\n      pop\n      jump\t// out\n        /* \"#utility.yul\":2806:3089   */\n    tag_50:\n      0x00\n        /* \"#utility.yul\":2962:3055   */\n      tag_121\n        /* \"#utility.yul\":3051:3054   */\n      dup3\n        /* \"#utility.yul\":3042:3048   */\n      dup5\n        /* \"#utility.yul\":2962:3055   */\n      tag_102\n      jump\t// in\n    tag_121:\n        /* \"#utility.yul\":2955:3055   */\n      swap2\n      pop\n        /* \"#utility.yul\":3076:3079   */\n      dup2\n        /* \"#utility.yul\":3069:3079   */\n      swap1\n      pop\n        /* \"#utility.yul\":2940:3089   */\n      swap3\n      swap2\n      pop\n      pop\n      jump\t// out\n        /* \"#utility.yul\":3099:3321   */\n    tag_33:\n      0x00\n        /* \"#utility.yul\":3228:3230   */\n      0x20\n        /* \"#utility.yul\":3217:3226   */\n      dup3\n        /* \"#utility.yul\":3213:3231   */\n      add\n        /* \"#utility.yul\":3205:3231   */\n      swap1\n      pop\n        /* \"#utility.yul\":3245:3310   */\n      tag_123\n        /* \"#utility.yul\":3307:3308   */\n      0x00\n        /* \"#utility.yul\":3296:3305   */\n      dup4\n        /* \"#utility.yul\":3292:3309   */\n      add\n        /* \"#utility.yul\":3283:3289   */\n      dup5\n        /* \"#utility.yul\":3245:3310   */\n      tag_90\n      jump\t// in\n    tag_123:\n        /* \"#utility.yul\":3191:3321   */\n      swap3\n      swap2\n      pop\n      pop\n      jump\t// out\n        /* \"#utility.yul\":3331:3565   */\n    tag_20:\n      0x00\n        /* \"#utility.yul\":3466:3468   */\n      0x20\n        /* \"#utility.yul\":3455:3464   */\n      dup3\n        /* \"#utility.yul\":3451:3469   */\n      add\n        /* \"#utility.yul\":3443:3469   */\n      swap1\n      pop\n        /* \"#utility.yul\":3483:3554   */\n      tag_125\n        /* \"#utility.yul\":3551:3552   */\n      0x00\n        /* \"#utility.yul\":3540:3549   */\n      dup4\n        /* \"#utility.yul\":3536:3553   */\n      add\n        /* \"#utility.yul\":3527:3533   */\n      dup5\n        /* \"#utility.yul\":3483:3554   */\n      tag_94\n      jump\t// in\n    tag_125:\n        /* \"#utility.yul\":3429:3565   */\n      swap3\n      swap2\n      pop\n      pop\n      jump\t// out\n        /* \"#utility.yul\":3575:3805   */\n    tag_24:\n      0x00\n        /* \"#utility.yul\":3708:3710   */\n      0x20\n        /* \"#utility.yul\":3697:3706   */\n      dup3\n        /* \"#utility.yul\":3693:3711   */\n      add\n        /* \"#utility.yul\":3685:3711   */\n      swap1\n      pop\n        /* \"#utility.yul\":3725:3794   */\n      tag_127\n        /* \"#utility.yul\":3791:3792   */\n      0x00\n        /* \"#utility.yul\":3780:3789   */\n      dup4\n        /* \"#utility.yul\":3776:3793   */\n      add\n        /* \"#utility.yul\":3767:3773   */\n      dup5\n        /* \"#utility.yul\":3725:3794   */\n      tag_98\n      jump\t// in\n    tag_127:\n        /* \"#utility.yul\":3671:3805   */\n      swap3\n      swap2\n      pop\n      pop\n      jump\t// out\n        /* \"#utility.yul\":3815:4250   */\n    tag_47:\n      0x00\n        /* \"#utility.yul\":4023:4025   */\n      0x20\n        /* \"#utility.yul\":4012:4021   */\n      dup3\n        /* \"#utility.yul\":4008:4026   */\n      add\n        /* \"#utility.yul\":4000:4026   */\n      swap1\n      pop\n        /* \"#utility.yul\":4076:4085   */\n      dup2\n        /* \"#utility.yul\":4070:4074   */\n      dup2\n        /* \"#utility.yul\":4066:4086   */\n      sub\n        /* \"#utility.yul\":4062:4063   */\n      0x00\n        /* \"#utility.yul\":4051:4060   */\n      dup4\n        /* \"#utility.yul\":4047:4064   */\n      add\n        /* \"#utility.yul\":4040:4087   */\n      mstore\n        /* \"#utility.yul\":4108:4239   */\n      tag_129\n        /* \"#utility.yul\":4234:4238   */\n      dup2\n        /* \"#utility.yul\":4108:4239   */\n      tag_110\n      jump\t// in\n    tag_129:\n        /* \"#utility.yul\":4100:4239   */\n      swap1\n      pop\n        /* \"#utility.yul\":3986:4250   */\n      swap2\n      swap1\n      pop\n      jump\t// out\n        /* \"#utility.yul\":4260:4695   */\n    tag_37:\n      0x00\n        /* \"#utility.yul\":4468:4470   */\n      0x20\n        /* \"#utility.yul\":4457:4466   */\n      dup3\n        /* \"#utility.yul\":4453:4471   */\n      add\n        /* \"#utility.yul\":4445:4471   */\n      swap1\n      pop\n        /* \"#utility.yul\":4521:4530   */\n      dup2\n        /* \"#utility.yul\":4515:4519   */\n      dup2\n        /* \"#utility.yul\":4511:4531   */\n      sub\n        /* \"#utility.yul\":4507:4508   */\n      0x00\n        /* \"#utility.yul\":4496:4505   */\n      dup4\n        /* \"#utility.yul\":4492:4509   */\n      add\n        /* \"#utility.yul\":4485:4532   */\n      mstore\n        /* \"#utility.yul\":4553:4684   */\n      tag_131\n        /* \"#utility.yul\":4679:4683   */\n      dup2\n        /* \"#utility.yul\":4553:4684   */\n      tag_114\n      jump\t// in\n    tag_131:\n        /* \"#utility.yul\":4545:4684   */\n      swap1\n      pop\n        /* \"#utility.yul\":4431:4695   */\n      swap2\n      swap1\n      pop\n      jump\t// out\n        /* \"#utility.yul\":4705:5140   */\n    tag_56:\n      0x00\n        /* \"#utility.yul\":4913:4915   */\n      0x20\n        /* \"#utility.yul\":4902:4911   */\n      dup3\n        /* \"#utility.yul\":4898:4916   */\n      add\n        /* \"#utility.yul\":4890:4916   */\n      swap1\n      pop\n        /* \"#utility.yul\":4966:4975   */\n      dup2\n        /* \"#utility.yul\":4960:4964   */\n      dup2\n        /* \"#utility.yul\":4956:4976   */\n      sub\n        /* \"#utility.yul\":4952:4953   */\n      0x00\n        /* \"#utility.yul\":4941:4950   */\n      dup4\n        /* \"#utility.yul\":4937:4954   */\n      add\n        /* \"#utility.yul\":4930:4977   */\n      mstore\n        /* \"#utility.yul\":4998:5129   */\n      tag_133\n        /* \"#utility.yul\":5124:5128   */\n      dup2\n        /* \"#utility.yul\":4998:5129   */\n      tag_117\n      jump\t// in\n    tag_133:\n        /* \"#utility.yul\":4990:5129   */\n      swap1\n      pop\n        /* \"#utility.yul\":4876:5140   */\n      swap2\n      swap1\n      pop\n      jump\t// out\n        /* \"#utility.yul\":5150:5457   */\n    tag_78:\n      0x00\n        /* \"#utility.yul\":5220:5222   */\n      0x40\n        /* \"#utility.yul\":5214:5223   */\n      mload\n        /* \"#utility.yul\":5204:5223   */\n      swap1\n      pop\n        /* \"#utility.yul\":5266:5270   */\n      dup2\n        /* \"#utility.yul\":5258:5264   */\n      dup2\n        /* \"#utility.yul\":5254:5271   */\n      add\n        /* \"#utility.yul\":5381:5387   */\n      dup2\n        /* \"#utility.yul\":5369:5379   */\n      dup2\n        /* \"#utility.yul\":5366:5388   */\n      lt\n        /* \"#utility.yul\":5345:5363   */\n      0xffffffffffffffff\n        /* \"#utility.yul\":5333:5343   */\n      dup3\n        /* \"#utility.yul\":5330:5364   */\n      gt\n        /* \"#utility.yul\":5327:5389   */\n      or\n        /* \"#utility.yul\":5324:5326   */\n      iszero\n      tag_135\n      jumpi\n        /* \"#utility.yul\":5392:5410   */\n      tag_136\n      tag_137\n      jump\t// in\n    tag_136:\n        /* \"#utility.yul\":5324:5326   */\n    tag_135:\n        /* \"#utility.yul\":5436:5446   */\n      dup1\n        /* \"#utility.yul\":5432:5434   */\n      0x40\n        /* \"#utility.yul\":5425:5447   */\n      mstore\n        /* \"#utility.yul\":5190:5457   */\n      pop\n      swap2\n      swap1\n      pop\n      jump\t// out\n        /* \"#utility.yul\":5467:5826   */\n    tag_77:\n      0x00\n        /* \"#utility.yul\":5626:5644   */\n      0xffffffffffffffff\n        /* \"#utility.yul\":5618:5624   */\n      dup3\n        /* \"#utility.yul\":5615:5645   */\n      gt\n        /* \"#utility.yul\":5612:5614   */\n      iszero\n      tag_139\n      jumpi\n        /* \"#utility.yul\":5648:5666   */\n      tag_140\n      tag_137\n      jump\t// in\n    tag_140:\n        /* \"#utility.yul\":5612:5614   */\n    tag_139:\n        /* \"#utility.yul\":5741:5745   */\n      0x1f\n        /* \"#utility.yul\":5737:5746   */\n      not\n        /* \"#utility.yul\":5730:5734   */\n      0x1f\n        /* \"#utility.yul\":5722:5728   */\n      dup4\n        /* \"#utility.yul\":5718:5735   */\n      add\n        /* \"#utility.yul\":5714:5747   */\n      and\n        /* \"#utility.yul\":5706:5747   */\n      swap1\n      pop\n        /* \"#utility.yul\":5810:5814   */\n      0x20\n        /* \"#utility.yul\":5804:5808   */\n      dup2\n        /* \"#utility.yul\":5800:5815   */\n      add\n        /* \"#utility.yul\":5792:5815   */\n      swap1\n      pop\n        /* \"#utility.yul\":5533:5826   */\n      swap2\n      swap1\n      pop\n      jump\t// out\n        /* \"#utility.yul\":5836:5942   */\n    tag_105:\n      0x00\n        /* \"#utility.yul\":5925:5930   */\n      dup2\n        /* \"#utility.yul\":5919:5931   */\n      mload\n        /* \"#utility.yul\":5909:5931   */\n      swap1\n      pop\n        /* \"#utility.yul\":5894:5942   */\n      swap2\n      swap1\n      pop\n      jump\t// out\n        /* \"#utility.yul\":5952:6107   */\n    tag_107:\n      0x00\n        /* \"#utility.yul\":6094:6097   */\n      dup2\n        /* \"#utility.yul\":6079:6097   */\n      swap1\n      pop\n        /* \"#utility.yul\":6065:6107   */\n      swap3\n      swap2\n      pop\n      pop\n      jump\t// out\n        /* \"#utility.yul\":6117:6298   */\n    tag_113:\n      0x00\n        /* \"#utility.yul\":6239:6245   */\n      dup3\n        /* \"#utility.yul\":6234:6237   */\n      dup3\n        /* \"#utility.yul\":6227:6246   */\n      mstore\n        /* \"#utility.yul\":6283:6287   */\n      0x20\n        /* \"#utility.yul\":6278:6281   */\n      dup3\n        /* \"#utility.yul\":6274:6288   */\n      add\n        /* \"#utility.yul\":6259:6288   */\n      swap1\n      pop\n        /* \"#utility.yul\":6213:6298   */\n      swap3\n      swap2\n      pop\n      pop\n      jump\t// out\n        /* \"#utility.yul\":6308:6406   */\n    tag_93:\n      0x00\n        /* \"#utility.yul\":6389:6394   */\n      dup2\n        /* \"#utility.yul\":6382:6395   */\n      iszero\n        /* \"#utility.yul\":6375:6396   */\n      iszero\n        /* \"#utility.yul\":6364:6396   */\n      swap1\n      pop\n        /* \"#utility.yul\":6350:6406   */\n      swap2\n      swap1\n      pop\n      jump\t// out\n        /* \"#utility.yul\":6416:6501   */\n    tag_97:\n      0x00\n        /* \"#utility.yul\":6486:6491   */\n      dup2\n        /* \"#utility.yul\":6475:6491   */\n      swap1\n      pop\n        /* \"#utility.yul\":6461:6501   */\n      swap2\n      swap1\n      pop\n      jump\t// out\n        /* \"#utility.yul\":6511:6668   */\n    tag_101:\n      0x00\n        /* \"#utility.yul\":6591:6657   */\n      0xffffffff00000000000000000000000000000000000000000000000000000000\n        /* \"#utility.yul\":6584:6589   */\n      dup3\n        /* \"#utility.yul\":6580:6658   */\n      and\n        /* \"#utility.yul\":6569:6658   */\n      swap1\n      pop\n        /* \"#utility.yul\":6555:6668   */\n      swap2\n      swap1\n      pop\n      jump\t// out\n        /* \"#utility.yul\":6678:6848   */\n    tag_81:\n        /* \"#utility.yul\":6766:6772   */\n      dup3\n        /* \"#utility.yul\":6761:6764   */\n      dup2\n        /* \"#utility.yul\":6756:6759   */\n      dup4\n        /* \"#utility.yul\":6743:6773   */\n      calldatacopy\n        /* \"#utility.yul\":6836:6837   */\n      0x00\n        /* \"#utility.yul\":6827:6833   */\n      dup4\n        /* \"#utility.yul\":6822:6825   */\n      dup4\n        /* \"#utility.yul\":6818:6834   */\n      add\n        /* \"#utility.yul\":6811:6838   */\n      mstore\n        /* \"#utility.yul\":6729:6848   */\n      pop\n      pop\n      pop\n      jump\t// out\n        /* \"#utility.yul\":6858:7209   */\n    tag_109:\n        /* \"#utility.yul\":6930:6931   */\n      0x00\n        /* \"#utility.yul\":6944:7069   */\n    tag_149:\n        /* \"#utility.yul\":6958:6964   */\n      dup4\n        /* \"#utility.yul\":6955:6956   */\n      dup2\n        /* \"#utility.yul\":6952:6965   */\n      lt\n        /* \"#utility.yul\":6944:7069   */\n      iszero\n      tag_151\n      jumpi\n        /* \"#utility.yul\":7051:7052   */\n      dup1\n        /* \"#utility.yul\":7046:7049   */\n      dup3\n        /* \"#utility.yul\":7042:7053   */\n      add\n        /* \"#utility.yul\":7036:7054   */\n      mload\n        /* \"#utility.yul\":7032:7033   */\n      dup2\n        /* \"#utility.yul\":7027:7030   */\n      dup5\n        /* \"#utility.yul\":7023:7034   */\n      add\n        /* \"#utility.yul\":7016:7055   */\n      mstore\n        /* \"#utility.yul\":6980:6982   */\n      0x20\n        /* \"#utility.yul\":6977:6978   */\n      dup2\n        /* \"#utility.yul\":6973:6983   */\n      add\n        /* \"#utility.yul\":6968:6983   */\n      swap1\n      pop\n        /* \"#utility.yul\":6944:7069   */\n      jump(tag_149)\n    tag_151:\n        /* \"#utility.yul\":7091:7097   */\n      dup4\n        /* \"#utility.yul\":7088:7089   */\n      dup2\n        /* \"#utility.yul\":7085:7098   */\n      gt\n        /* \"#utility.yul\":7082:7084   */\n      iszero\n      tag_152\n      jumpi\n        /* \"#utility.yul\":7183:7184   */\n      0x00\n        /* \"#utility.yul\":7174:7180   */\n      dup5\n        /* \"#utility.yul\":7169:7172   */\n      dup5\n        /* \"#utility.yul\":7165:7181   */\n      add\n        /* \"#utility.yul\":7158:7185   */\n      mstore\n        /* \"#utility.yul\":7082:7084   */\n    tag_152:\n        /* \"#utility.yul\":6907:7209   */\n      pop\n      pop\n      pop\n      pop\n      jump\t// out\n        /* \"#utility.yul\":7219:7415   */\n    tag_137:\n        /* \"#utility.yul\":7271:7348   */\n      0x4e487b7100000000000000000000000000000000000000000000000000000000\n        /* \"#utility.yul\":7268:7269   */\n      0x00\n        /* \"#utility.yul\":7261:7349   */\n      mstore\n        /* \"#utility.yul\":7372:7376   */\n      0x41\n        /* \"#utility.yul\":7369:7370   */\n      0x04\n        /* \"#utility.yul\":7362:7377   */\n      mstore\n        /* \"#utility.yul\":7400:7404   */\n      0x24\n        /* \"#utility.yul\":7397:7398   */\n      0x00\n        /* \"#utility.yul\":7390:7405   */\n      revert\n\n    auxdata: 0xa2646970667358221220bd561c13d2d6be00ca1cca912ceab8b18475268b6593542905c40ff074b9676564736f6c63430008000033\n}\n",
				"bytecode": {
					"linkReferences": {},
					"object": "60806040527f20606e15b70f0894e0e83ae9593ae406a94abb5adcfcf0d169c6784f02198dc3600060016101000a81548163ffffffff021916908360e01c021790555034801561004e57600080fd5b506109558061005e6000396000f3fe608060405234801561001057600080fd5b506004361061007d5760003560e01c80635a2cfa661161005b5780635a2cfa66146100c657806376227e12146100e4578063c866715b146100ee578063f9f8f8951461010c5761007d565b806320606e151461008257806330c13ade1461008c57806333a2ffa7146100a8575b600080fd5b61008a61012a565b005b6100a660048036038101906100a19190610597565b6101b4565b005b6100b0610334565b6040516100bd919061074e565b60405180910390f35b6100ce61039b565b6040516100db9190610769565b60405180910390f35b6100ec6103ae565b005b6100f6610438565b604051610103919061074e565b60405180910390f35b61011461049f565b6040516101219190610733565b60405180910390f35b3073ffffffffffffffffffffffffffffffffffffffff163373ffffffffffffffffffffffffffffffffffffffff1614610198576040517f08c379a000000000000000000000000000000000000000000000000000000000815260040161018f906107a4565b60405180910390fd5b60008060006101000a81548160ff021916908315150217905550565b6101bc6104b0565b6004604482378060029060016101d39291906104d2565b50600060019054906101000a900460e01b7bffffffffffffffffffffffffffffffffffffffffffffffffffffffff19168160006001811061023d577f4e487b7100000000000000000000000000000000000000000000000000000000600052603260045260246000fd5b602002015114610282576040517f08c379a000000000000000000000000000000000000000000000000000000000815260040161027990610784565b60405180910390fd5b60003073ffffffffffffffffffffffffffffffffffffffff16836040516102a9919061071c565b6000604051808303816000865af19150503d80600081146102e6576040519150601f19603f3d011682016040523d82523d6000602084013e6102eb565b606091505b505090508061032f576040517f08c379a0000000000000000000000000000000000000000000000000000000008152600401610326906107c4565b60405180910390fd5b505050565b600080600060208110610370577f4e487b7100000000000000000000000000000000000000000000000000000000600052603260045260246000fd5b1a60f81b7effffffffffffffffffffffffffffffffffffffffffffffffffffffffffffff1916905090565b600060019054906101000a900460e01b81565b3073ffffffffffffffffffffffffffffffffffffffff163373ffffffffffffffffffffffffffffffffffffffff161461041c576040517f08c379a0000000000000000000000000000000000000000000000000000000008152600401610413906107a4565b60405180910390fd5b60016000806101000a81548160ff021916908315150217905550565b600080600160208110610474577f4e487b7100000000000000000000000000000000000000000000000000000000600052603260045260246000fd5b1a60f81b7effffffffffffffffffffffffffffffffffffffffffffffffffffffffffffff1916905090565b60008054906101000a900460ff1681565b6040518060200160405280600190602082028036833780820191505090505090565b8260018101928215610501579160200282015b828111156105005782518255916020019190600101906104e5565b5b50905061050e9190610512565b5090565b5b8082111561052b576000816000905550600101610513565b5090565b600061054261053d84610815565b6107e4565b90508281526020810184848401111561055a57600080fd5b6105658482856108ae565b509392505050565b600082601f83011261057e57600080fd5b813561058e84826020860161052f565b91505092915050565b6000602082840312156105a957600080fd5b600082013567ffffffffffffffff8111156105c357600080fd5b6105cf8482850161056d565b91505092915050565b6105e18161086c565b82525050565b6105f081610878565b82525050565b6105ff81610882565b82525050565b600061061082610845565b61061a8185610850565b935061062a8185602086016108bd565b80840191505092915050565b600061064360288361085b565b91507f43616e206f6e6c792063616c6c20746865207475726e4f66665377697463682060008301527f66756e6374696f6e0000000000000000000000000000000000000000000000006020830152604082019050919050565b60006106a9601f8361085b565b91507f4f6e6c792074686520636f6e74726163742063616e2063616c6c2074686973006000830152602082019050919050565b60006106e9600e8361085b565b91507f63616c6c206661696c6564203a280000000000000000000000000000000000006000830152602082019050919050565b60006107288284610605565b915081905092915050565b600060208201905061074860008301846105d8565b92915050565b600060208201905061076360008301846105e7565b92915050565b600060208201905061077e60008301846105f6565b92915050565b6000602082019050818103600083015261079d81610636565b9050919050565b600060208201905081810360008301526107bd8161069c565b9050919050565b600060208201905081810360008301526107dd816106dc565b9050919050565b6000604051905081810181811067ffffffffffffffff8211171561080b5761080a6108f0565b5b8060405250919050565b600067ffffffffffffffff8211156108305761082f6108f0565b5b601f19601f8301169050602081019050919050565b600081519050919050565b600081905092915050565b600082825260208201905092915050565b60008115159050919050565b6000819050919050565b60007fffffffff0000000000000000000000000000000000000000000000000000000082169050919050565b82818337600083830152505050565b60005b838110156108db5780820151818401526020810190506108c0565b838111156108ea576000848401525b50505050565b7f4e487b7100000000000000000000000000000000000000000000000000000000600052604160045260246000fdfea2646970667358221220bd561c13d2d6be00ca1cca912ceab8b18475268b6593542905c40ff074b9676564736f6c63430008000033",
					"opcodes": "PUSH1 0x80 PUSH1 0x40 MSTORE PUSH32 0x20606E15B70F0894E0E83AE9593AE406A94ABB5ADCFCF0D169C6784F02198DC3 PUSH1 0x0 PUSH1 0x1 PUSH2 0x100 EXP DUP2 SLOAD DUP2 PUSH4 0xFFFFFFFF MUL NOT AND SWAP1 DUP4 PUSH1 0xE0 SHR MUL OR SWAP1 SSTORE POP CALLVALUE DUP1 ISZERO PUSH2 0x4E JUMPI PUSH1 0x0 DUP1 REVERT JUMPDEST POP PUSH2 0x955 DUP1 PUSH2 0x5E PUSH1 0x0 CODECOPY PUSH1 0x0 RETURN INVALID PUSH1 0x80 PUSH1 0x40 MSTORE CALLVALUE DUP1 ISZERO PUSH2 0x10 JUMPI PUSH1 0x0 DUP1 REVERT JUMPDEST POP PUSH1 0x4 CALLDATASIZE LT PUSH2 0x7D JUMPI PUSH1 0x0 CALLDATALOAD PUSH1 0xE0 SHR DUP1 PUSH4 0x5A2CFA66 GT PUSH2 0x5B JUMPI DUP1 PUSH4 0x5A2CFA66 EQ PUSH2 0xC6 JUMPI DUP1 PUSH4 0x76227E12 EQ PUSH2 0xE4 JUMPI DUP1 PUSH4 0xC866715B EQ PUSH2 0xEE JUMPI DUP1 PUSH4 0xF9F8F895 EQ PUSH2 0x10C JUMPI PUSH2 0x7D JUMP JUMPDEST DUP1 PUSH4 0x20606E15 EQ PUSH2 0x82 JUMPI DUP1 PUSH4 0x30C13ADE EQ PUSH2 0x8C JUMPI DUP1 PUSH4 0x33A2FFA7 EQ PUSH2 0xA8 JUMPI JUMPDEST PUSH1 0x0 DUP1 REVERT JUMPDEST PUSH2 0x8A PUSH2 0x12A JUMP JUMPDEST STOP JUMPDEST PUSH2 0xA6 PUSH1 0x4 DUP1 CALLDATASIZE SUB DUP2 ADD SWAP1 PUSH2 0xA1 SWAP2 SWAP1 PUSH2 0x597 JUMP JUMPDEST PUSH2 0x1B4 JUMP JUMPDEST STOP JUMPDEST PUSH2 0xB0 PUSH2 0x334 JUMP JUMPDEST PUSH1 0x40 MLOAD PUSH2 0xBD SWAP2 SWAP1 PUSH2 0x74E JUMP JUMPDEST PUSH1 0x40 MLOAD DUP1 SWAP2 SUB SWAP1 RETURN JUMPDEST PUSH2 0xCE PUSH2 0x39B JUMP JUMPDEST PUSH1 0x40 MLOAD PUSH2 0xDB SWAP2 SWAP1 PUSH2 0x769 JUMP JUMPDEST PUSH1 0x40 MLOAD DUP1 SWAP2 SUB SWAP1 RETURN JUMPDEST PUSH2 0xEC PUSH2 0x3AE JUMP JUMPDEST STOP JUMPDEST PUSH2 0xF6 PUSH2 0x438 JUMP JUMPDEST PUSH1 0x40 MLOAD PUSH2 0x103 SWAP2 SWAP1 PUSH2 0x74E JUMP JUMPDEST PUSH1 0x40 MLOAD DUP1 SWAP2 SUB SWAP1 RETURN JUMPDEST PUSH2 0x114 PUSH2 0x49F JUMP JUMPDEST PUSH1 0x40 MLOAD PUSH2 0x121 SWAP2 SWAP1 PUSH2 0x733 JUMP JUMPDEST PUSH1 0x40 MLOAD DUP1 SWAP2 SUB SWAP1 RETURN JUMPDEST ADDRESS PUSH20 0xFFFFFFFFFFFFFFFFFFFFFFFFFFFFFFFFFFFFFFFF AND CALLER PUSH20 0xFFFFFFFFFFFFFFFFFFFFFFFFFFFFFFFFFFFFFFFF AND EQ PUSH2 0x198 JUMPI PUSH1 0x40 MLOAD PUSH32 0x8C379A000000000000000000000000000000000000000000000000000000000 DUP2 MSTORE PUSH1 0x4 ADD PUSH2 0x18F SWAP1 PUSH2 0x7A4 JUMP JUMPDEST PUSH1 0x40 MLOAD DUP1 SWAP2 SUB SWAP1 REVERT JUMPDEST PUSH1 0x0 DUP1 PUSH1 0x0 PUSH2 0x100 EXP DUP2 SLOAD DUP2 PUSH1 0xFF MUL NOT AND SWAP1 DUP4 ISZERO ISZERO MUL OR SWAP1 SSTORE POP JUMP JUMPDEST PUSH2 0x1BC PUSH2 0x4B0 JUMP JUMPDEST PUSH1 0x4 PUSH1 0x44 DUP3 CALLDATACOPY DUP1 PUSH1 0x2 SWAP1 PUSH1 0x1 PUSH2 0x1D3 SWAP3 SWAP2 SWAP1 PUSH2 0x4D2 JUMP JUMPDEST POP PUSH1 0x0 PUSH1 0x1 SWAP1 SLOAD SWAP1 PUSH2 0x100 EXP SWAP1 DIV PUSH1 0xE0 SHL PUSH28 0xFFFFFFFFFFFFFFFFFFFFFFFFFFFFFFFFFFFFFFFFFFFFFFFFFFFFFFFF NOT AND DUP2 PUSH1 0x0 PUSH1 0x1 DUP2 LT PUSH2 0x23D JUMPI PUSH32 0x4E487B7100000000000000000000000000000000000000000000000000000000 PUSH1 0x0 MSTORE PUSH1 0x32 PUSH1 0x4 MSTORE PUSH1 0x24 PUSH1 0x0 REVERT JUMPDEST PUSH1 0x20 MUL ADD MLOAD EQ PUSH2 0x282 JUMPI PUSH1 0x40 MLOAD PUSH32 0x8C379A000000000000000000000000000000000000000000000000000000000 DUP2 MSTORE PUSH1 0x4 ADD PUSH2 0x279 SWAP1 PUSH2 0x784 JUMP JUMPDEST PUSH1 0x40 MLOAD DUP1 SWAP2 SUB SWAP1 REVERT JUMPDEST PUSH1 0x0 ADDRESS PUSH20 0xFFFFFFFFFFFFFFFFFFFFFFFFFFFFFFFFFFFFFFFF AND DUP4 PUSH1 0x40 MLOAD PUSH2 0x2A9 SWAP2 SWAP1 PUSH2 0x71C JUMP JUMPDEST PUSH1 0x0 PUSH1 0x40 MLOAD DUP1 DUP4 SUB DUP2 PUSH1 0x0 DUP7 GAS CALL SWAP2 POP POP RETURNDATASIZE DUP1 PUSH1 0x0 DUP2 EQ PUSH2 0x2E6 JUMPI PUSH1 0x40 MLOAD SWAP2 POP PUSH1 0x1F NOT PUSH1 0x3F RETURNDATASIZE ADD AND DUP3 ADD PUSH1 0x40 MSTORE RETURNDATASIZE DUP3 MSTORE RETURNDATASIZE PUSH1 0x0 PUSH1 0x20 DUP5 ADD RETURNDATACOPY PUSH2 0x2EB JUMP JUMPDEST PUSH1 0x60 SWAP2 POP JUMPDEST POP POP SWAP1 POP DUP1 PUSH2 0x32F JUMPI PUSH1 0x40 MLOAD PUSH32 0x8C379A000000000000000000000000000000000000000000000000000000000 DUP2 MSTORE PUSH1 0x4 ADD PUSH2 0x326 SWAP1 PUSH2 0x7C4 JUMP JUMPDEST PUSH1 0x40 MLOAD DUP1 SWAP2 SUB SWAP1 REVERT JUMPDEST POP POP POP JUMP JUMPDEST PUSH1 0x0 DUP1 PUSH1 0x0 PUSH1 0x20 DUP2 LT PUSH2 0x370 JUMPI PUSH32 0x4E487B7100000000000000000000000000000000000000000000000000000000 PUSH1 0x0 MSTORE PUSH1 0x32 PUSH1 0x4 MSTORE PUSH1 0x24 PUSH1 0x0 REVERT JUMPDEST BYTE PUSH1 0xF8 SHL PUSH31 0xFFFFFFFFFFFFFFFFFFFFFFFFFFFFFFFFFFFFFFFFFFFFFFFFFFFFFFFFFFFFFF NOT AND SWAP1 POP SWAP1 JUMP JUMPDEST PUSH1 0x0 PUSH1 0x1 SWAP1 SLOAD SWAP1 PUSH2 0x100 EXP SWAP1 DIV PUSH1 0xE0 SHL DUP2 JUMP JUMPDEST ADDRESS PUSH20 0xFFFFFFFFFFFFFFFFFFFFFFFFFFFFFFFFFFFFFFFF AND CALLER PUSH20 0xFFFFFFFFFFFFFFFFFFFFFFFFFFFFFFFFFFFFFFFF AND EQ PUSH2 0x41C JUMPI PUSH1 0x40 MLOAD PUSH32 0x8C379A000000000000000000000000000000000000000000000000000000000 DUP2 MSTORE PUSH1 0x4 ADD PUSH2 0x413 SWAP1 PUSH2 0x7A4 JUMP JUMPDEST PUSH1 0x40 MLOAD DUP1 SWAP2 SUB SWAP1 REVERT JUMPDEST PUSH1 0x1 PUSH1 0x0 DUP1 PUSH2 0x100 EXP DUP2 SLOAD DUP2 PUSH1 0xFF MUL NOT AND SWAP1 DUP4 ISZERO ISZERO MUL OR SWAP1 SSTORE POP JUMP JUMPDEST PUSH1 0x0 DUP1 PUSH1 0x1 PUSH1 0x20 DUP2 LT PUSH2 0x474 JUMPI PUSH32 0x4E487B7100000000000000000000000000000000000000000000000000000000 PUSH1 0x0 MSTORE PUSH1 0x32 PUSH1 0x4 MSTORE PUSH1 0x24 PUSH1 0x0 REVERT JUMPDEST BYTE PUSH1 0xF8 SHL PUSH31 0xFFFFFFFFFFFFFFFFFFFFFFFFFFFFFFFFFFFFFFFFFFFFFFFFFFFFFFFFFFFFFF NOT AND SWAP1 POP SWAP1 JUMP JUMPDEST PUSH1 0x0 DUP1 SLOAD SWAP1 PUSH2 0x100 EXP SWAP1 DIV PUSH1 0xFF AND DUP2 JUMP JUMPDEST PUSH1 0x40 MLOAD DUP1 PUSH1 0x20 ADD PUSH1 0x40 MSTORE DUP1 PUSH1 0x1 SWAP1 PUSH1 0x20 DUP3 MUL DUP1 CALLDATASIZE DUP4 CALLDATACOPY DUP1 DUP3 ADD SWAP2 POP POP SWAP1 POP POP SWAP1 JUMP JUMPDEST DUP3 PUSH1 0x1 DUP2 ADD SWAP3 DUP3 ISZERO PUSH2 0x501 JUMPI SWAP2 PUSH1 0x20 MUL DUP3 ADD JUMPDEST DUP3 DUP2 GT ISZERO PUSH2 0x500 JUMPI DUP3 MLOAD DUP3 SSTORE SWAP2 PUSH1 0x20 ADD SWAP2 SWAP1 PUSH1 0x1 ADD SWAP1 PUSH2 0x4E5 JUMP JUMPDEST JUMPDEST POP SWAP1 POP PUSH2 0x50E SWAP2 SWAP1 PUSH2 0x512 JUMP JUMPDEST POP SWAP1 JUMP JUMPDEST JUMPDEST DUP1 DUP3 GT ISZERO PUSH2 0x52B JUMPI PUSH1 0x0 DUP2 PUSH1 0x0 SWAP1 SSTORE POP PUSH1 0x1 ADD PUSH2 0x513 JUMP JUMPDEST POP SWAP1 JUMP JUMPDEST PUSH1 0x0 PUSH2 0x542 PUSH2 0x53D DUP5 PUSH2 0x815 JUMP JUMPDEST PUSH2 0x7E4 JUMP JUMPDEST SWAP1 POP DUP3 DUP2 MSTORE PUSH1 0x20 DUP2 ADD DUP5 DUP5 DUP5 ADD GT ISZERO PUSH2 0x55A JUMPI PUSH1 0x0 DUP1 REVERT JUMPDEST PUSH2 0x565 DUP5 DUP3 DUP6 PUSH2 0x8AE JUMP JUMPDEST POP SWAP4 SWAP3 POP POP POP JUMP JUMPDEST PUSH1 0x0 DUP3 PUSH1 0x1F DUP4 ADD SLT PUSH2 0x57E JUMPI PUSH1 0x0 DUP1 REVERT JUMPDEST DUP2 CALLDATALOAD PUSH2 0x58E DUP5 DUP3 PUSH1 0x20 DUP7 ADD PUSH2 0x52F JUMP JUMPDEST SWAP2 POP POP SWAP3 SWAP2 POP POP JUMP JUMPDEST PUSH1 0x0 PUSH1 0x20 DUP3 DUP5 SUB SLT ISZERO PUSH2 0x5A9 JUMPI PUSH1 0x0 DUP1 REVERT JUMPDEST PUSH1 0x0 DUP3 ADD CALLDATALOAD PUSH8 0xFFFFFFFFFFFFFFFF DUP2 GT ISZERO PUSH2 0x5C3 JUMPI PUSH1 0x0 DUP1 REVERT JUMPDEST PUSH2 0x5CF DUP5 DUP3 DUP6 ADD PUSH2 0x56D JUMP JUMPDEST SWAP2 POP POP SWAP3 SWAP2 POP POP JUMP JUMPDEST PUSH2 0x5E1 DUP2 PUSH2 0x86C JUMP JUMPDEST DUP3 MSTORE POP POP JUMP JUMPDEST PUSH2 0x5F0 DUP2 PUSH2 0x878 JUMP JUMPDEST DUP3 MSTORE POP POP JUMP JUMPDEST PUSH2 0x5FF DUP2 PUSH2 0x882 JUMP JUMPDEST DUP3 MSTORE POP POP JUMP JUMPDEST PUSH1 0x0 PUSH2 0x610 DUP3 PUSH2 0x845 JUMP JUMPDEST PUSH2 0x61A DUP2 DUP6 PUSH2 0x850 JUMP JUMPDEST SWAP4 POP PUSH2 0x62A DUP2 DUP6 PUSH1 0x20 DUP7 ADD PUSH2 0x8BD JUMP JUMPDEST DUP1 DUP5 ADD SWAP2 POP POP SWAP3 SWAP2 POP POP JUMP JUMPDEST PUSH1 0x0 PUSH2 0x643 PUSH1 0x28 DUP4 PUSH2 0x85B JUMP JUMPDEST SWAP2 POP PUSH32 0x43616E206F6E6C792063616C6C20746865207475726E4F666653776974636820 PUSH1 0x0 DUP4 ADD MSTORE PUSH32 0x66756E6374696F6E000000000000000000000000000000000000000000000000 PUSH1 0x20 DUP4 ADD MSTORE PUSH1 0x40 DUP3 ADD SWAP1 POP SWAP2 SWAP1 POP JUMP JUMPDEST PUSH1 0x0 PUSH2 0x6A9 PUSH1 0x1F DUP4 PUSH2 0x85B JUMP JUMPDEST SWAP2 POP PUSH32 0x4F6E6C792074686520636F6E74726163742063616E2063616C6C207468697300 PUSH1 0x0 DUP4 ADD MSTORE PUSH1 0x20 DUP3 ADD SWAP1 POP SWAP2 SWAP1 POP JUMP JUMPDEST PUSH1 0x0 PUSH2 0x6E9 PUSH1 0xE DUP4 PUSH2 0x85B JUMP JUMPDEST SWAP2 POP PUSH32 0x63616C6C206661696C6564203A28000000000000000000000000000000000000 PUSH1 0x0 DUP4 ADD MSTORE PUSH1 0x20 DUP3 ADD SWAP1 POP SWAP2 SWAP1 POP JUMP JUMPDEST PUSH1 0x0 PUSH2 0x728 DUP3 DUP5 PUSH2 0x605 JUMP JUMPDEST SWAP2 POP DUP2 SWAP1 POP SWAP3 SWAP2 POP POP JUMP JUMPDEST PUSH1 0x0 PUSH1 0x20 DUP3 ADD SWAP1 POP PUSH2 0x748 PUSH1 0x0 DUP4 ADD DUP5 PUSH2 0x5D8 JUMP JUMPDEST SWAP3 SWAP2 POP POP JUMP JUMPDEST PUSH1 0x0 PUSH1 0x20 DUP3 ADD SWAP1 POP PUSH2 0x763 PUSH1 0x0 DUP4 ADD DUP5 PUSH2 0x5E7 JUMP JUMPDEST SWAP3 SWAP2 POP POP JUMP JUMPDEST PUSH1 0x0 PUSH1 0x20 DUP3 ADD SWAP1 POP PUSH2 0x77E PUSH1 0x0 DUP4 ADD DUP5 PUSH2 0x5F6 JUMP JUMPDEST SWAP3 SWAP2 POP POP JUMP JUMPDEST PUSH1 0x0 PUSH1 0x20 DUP3 ADD SWAP1 POP DUP2 DUP2 SUB PUSH1 0x0 DUP4 ADD MSTORE PUSH2 0x79D DUP2 PUSH2 0x636 JUMP JUMPDEST SWAP1 POP SWAP2 SWAP1 POP JUMP JUMPDEST PUSH1 0x0 PUSH1 0x20 DUP3 ADD SWAP1 POP DUP2 DUP2 SUB PUSH1 0x0 DUP4 ADD MSTORE PUSH2 0x7BD DUP2 PUSH2 0x69C JUMP JUMPDEST SWAP1 POP SWAP2 SWAP1 POP JUMP JUMPDEST PUSH1 0x0 PUSH1 0x20 DUP3 ADD SWAP1 POP DUP2 DUP2 SUB PUSH1 0x0 DUP4 ADD MSTORE PUSH2 0x7DD DUP2 PUSH2 0x6DC JUMP JUMPDEST SWAP1 POP SWAP2 SWAP1 POP JUMP JUMPDEST PUSH1 0x0 PUSH1 0x40 MLOAD SWAP1 POP DUP2 DUP2 ADD DUP2 DUP2 LT PUSH8 0xFFFFFFFFFFFFFFFF DUP3 GT OR ISZERO PUSH2 0x80B JUMPI PUSH2 0x80A PUSH2 0x8F0 JUMP JUMPDEST JUMPDEST DUP1 PUSH1 0x40 MSTORE POP SWAP2 SWAP1 POP JUMP JUMPDEST PUSH1 0x0 PUSH8 0xFFFFFFFFFFFFFFFF DUP3 GT ISZERO PUSH2 0x830 JUMPI PUSH2 0x82F PUSH2 0x8F0 JUMP JUMPDEST JUMPDEST PUSH1 0x1F NOT PUSH1 0x1F DUP4 ADD AND SWAP1 POP PUSH1 0x20 DUP2 ADD SWAP1 POP SWAP2 SWAP1 POP JUMP JUMPDEST PUSH1 0x0 DUP2 MLOAD SWAP1 POP SWAP2 SWAP1 POP JUMP JUMPDEST PUSH1 0x0 DUP2 SWAP1 POP SWAP3 SWAP2 POP POP JUMP JUMPDEST PUSH1 0x0 DUP3 DUP3 MSTORE PUSH1 0x20 DUP3 ADD SWAP1 POP SWAP3 SWAP2 POP POP JUMP JUMPDEST PUSH1 0x0 DUP2 ISZERO ISZERO SWAP1 POP SWAP2 SWAP1 POP JUMP JUMPDEST PUSH1 0x0 DUP2 SWAP1 POP SWAP2 SWAP1 POP JUMP JUMPDEST PUSH1 0x0 PUSH32 0xFFFFFFFF00000000000000000000000000000000000000000000000000000000 DUP3 AND SWAP1 POP SWAP2 SWAP1 POP JUMP JUMPDEST DUP3 DUP2 DUP4 CALLDATACOPY PUSH1 0x0 DUP4 DUP4 ADD MSTORE POP POP POP JUMP JUMPDEST PUSH1 0x0 JUMPDEST DUP4 DUP2 LT ISZERO PUSH2 0x8DB JUMPI DUP1 DUP3 ADD MLOAD DUP2 DUP5 ADD MSTORE PUSH1 0x20 DUP2 ADD SWAP1 POP PUSH2 0x8C0 JUMP JUMPDEST DUP4 DUP2 GT ISZERO PUSH2 0x8EA JUMPI PUSH1 0x0 DUP5 DUP5 ADD MSTORE JUMPDEST POP POP POP POP JUMP JUMPDEST PUSH32 0x4E487B7100000000000000000000000000000000000000000000000000000000 PUSH1 0x0 MSTORE PUSH1 0x41 PUSH1 0x4 MSTORE PUSH1 0x24 PUSH1 0x0 REVERT INVALID LOG2 PUSH5 0x6970667358 0x22 SLT KECCAK256 0xBD JUMP SHR SGT 0xD2 0xD6 0xBE STOP 0xCA SHR 0xCA SWAP2 0x2C 0xEA 0xB8 0xB1 DUP5 PUSH22 0x268B6593542905C40FF074B9676564736F6C63430008 STOP STOP CALLER "
				},
				"gasEstimates": {
					"creation": {
						"codeDepositCost": "477800",
						"executionCost": "21428",
						"totalCost": "499228"
					},
					"external": {
						"flipSwitch(bytes)": "infinite",
						"offSelector()": "1221",
						"returnssss()": "426",
						"returnssss1()": "425",
						"switchOn()": "1234",
						"turnSwitchOff()": "21045",
						"turnSwitchOn()": "21066"
					}
				},
				"methodIdentifiers": {
					"flipSwitch(bytes)": "30c13ade",
					"offSelector()": "5a2cfa66",
					"returnssss()": "33a2ffa7",
					"returnssss1()": "c866715b",
					"switchOn()": "f9f8f895",
					"turnSwitchOff()": "20606e15",
					"turnSwitchOn()": "76227e12"
				}
			},
			"storageLayout": {
				"storage": [
					{
						"astId": 3,
						"contract": "testcall.sol:Switch",
						"label": "switchOn",
						"offset": 0,
						"slot": "0",
						"type": "t_bool"
					},
					{
						"astId": 11,
						"contract": "testcall.sol:Switch",
						"label": "offSelector",
						"offset": 1,
						"slot": "0",
						"type": "t_bytes4"
					},
					{
						"astId": 15,
						"contract": "testcall.sol:Switch",
						"label": "selector2",
						"offset": 0,
						"slot": "1",
						"type": "t_array(t_bytes32)1_storage"
					},
					{
						"astId": 19,
						"contract": "testcall.sol:Switch",
						"label": "selector3",
						"offset": 0,
						"slot": "2",
						"type": "t_array(t_bytes32)1_storage"
					}
				],
				"types": {
					"t_array(t_bytes32)1_storage": {
						"base": "t_bytes32",
						"encoding": "inplace",
						"label": "bytes32[1]",
						"numberOfBytes": "32"
					},
					"t_bool": {
						"encoding": "inplace",
						"label": "bool",
						"numberOfBytes": "1"
					},
					"t_bytes32": {
						"encoding": "inplace",
						"label": "bytes32",
						"numberOfBytes": "32"
					},
					"t_bytes4": {
						"encoding": "inplace",
						"label": "bytes4",
						"numberOfBytes": "4"
					}
				}
			},
			"userdoc": {
				"kind": "user",
				"methods": {},
				"version": 1
			}
		}
	}
}