{
	"test12.sol": {
		"SimpleToken": {
			"abi": [
				{
					"inputs": [
						{
							"internalType": "string",
							"name": "_name",
							"type": "string"
						},
						{
							"internalType": "address",
							"name": "_creator",
							"type": "address"
						},
						{
							"internalType": "uint256",
							"name": "_initialSupply",
							"type": "uint256"
						}
					],
					"stateMutability": "nonpayable",
					"type": "constructor"
				},
				{
					"inputs": [
						{
							"internalType": "address",
							"name": "",
							"type": "address"
						}
					],
					"name": "balances",
					"outputs": [
						{
							"internalType": "uint256",
							"name": "",
							"type": "uint256"
						}
					],
					"stateMutability": "view",
					"type": "function"
				},
				{
					"inputs": [
						{
							"internalType": "address payable",
							"name": "_to",
							"type": "address"
						}
					],
					"name": "destroy",
					"outputs": [],
					"stateMutability": "nonpayable",
					"type": "function"
				},
				{
					"inputs": [],
					"name": "name",
					"outputs": [
						{
							"internalType": "string",
							"name": "",
							"type": "string"
						}
					],
					"stateMutability": "view",
					"type": "function"
				},
				{
					"inputs": [
						{
							"internalType": "address",
							"name": "_to",
							"type": "address"
						},
						{
							"internalType": "uint256",
							"name": "_amount",
							"type": "uint256"
						}
					],
					"name": "transfer",
					"outputs": [],
					"stateMutability": "nonpayable",
					"type": "function"
				},
				{
					"stateMutability": "payable",
					"type": "receive"
				}
			],
			"devdoc": {
				"kind": "dev",
				"methods": {},
				"version": 1
			},
			"evm": {
				"assembly": "    /* \"test12.sol\":0:790  contract SimpleToken {... */\n  mstore(0x40, 0x80)\n    /* \"test12.sol\":125:277  constructor(string memory _name, address _creator, uint256 _initialSupply) {... */\n  callvalue\n  dup1\n  iszero\n  tag_1\n  jumpi\n  0x00\n  dup1\n  revert\ntag_1:\n  pop\n  mload(0x40)\n  sub(codesize, bytecodeSize)\n  dup1\n  bytecodeSize\n  dup4\n  codecopy\n  dup2\n  dup2\n  add\n  0x40\n  mstore\n  dup2\n  add\n  swap1\n  tag_2\n  swap2\n  swap1\n  tag_3\n  jump\t// in\ntag_2:\n    /* \"test12.sol\":218:223  _name */\n  dup3\n    /* \"test12.sol\":211:215  name */\n  0x00\n    /* \"test12.sol\":211:223  name = _name */\n  swap1\n  dup2\n  tag_6\n  swap2\n  swap1\n  tag_7\n  jump\t// in\ntag_6:\n  pop\n    /* \"test12.sol\":255:269  _initialSupply */\n  dup1\n    /* \"test12.sol\":234:242  balances */\n  0x01\n    /* \"test12.sol\":234:252  balances[_creator] */\n  0x00\n    /* \"test12.sol\":243:251  _creator */\n  dup5\n    /* \"test12.sol\":234:252  balances[_creator] */\n  0xffffffffffffffffffffffffffffffffffffffff\n  and\n  0xffffffffffffffffffffffffffffffffffffffff\n  and\n  dup2\n  mstore\n  0x20\n  add\n  swap1\n  dup2\n  mstore\n  0x20\n  add\n  0x00\n  keccak256\n    /* \"test12.sol\":234:269  balances[_creator] = _initialSupply */\n  dup2\n  swap1\n  sstore\n  pop\n    /* \"test12.sol\":125:277  constructor(string memory _name, address _creator, uint256 _initialSupply) {... */\n  pop\n  pop\n  pop\n    /* \"test12.sol\":0:790  contract SimpleToken {... */\n  jump(tag_8)\n    /* \"#utility.yul\":7:82   */\ntag_9:\n    /* \"#utility.yul\":40:46   */\n  0x00\n    /* \"#utility.yul\":73:75   */\n  0x40\n    /* \"#utility.yul\":67:76   */\n  mload\n    /* \"#utility.yul\":57:76   */\n  swap1\n  pop\n    /* \"#utility.yul\":7:82   */\n  swap1\n  jump\t// out\n    /* \"#utility.yul\":88:205   */\ntag_10:\n    /* \"#utility.yul\":197:198   */\n  0x00\n    /* \"#utility.yul\":194:195   */\n  dup1\n    /* \"#utility.yul\":187:199   */\n  revert\n    /* \"#utility.yul\":211:328   */\ntag_11:\n    /* \"#utility.yul\":320:321   */\n  0x00\n    /* \"#utility.yul\":317:318   */\n  dup1\n    /* \"#utility.yul\":310:322   */\n  revert\n    /* \"#utility.yul\":334:451   */\ntag_12:\n    /* \"#utility.yul\":443:444   */\n  0x00\n    /* \"#utility.yul\":440:441   */\n  dup1\n    /* \"#utility.yul\":433:445   */\n  revert\n    /* \"#utility.yul\":457:574   */\ntag_13:\n    /* \"#utility.yul\":566:567   */\n  0x00\n    /* \"#utility.yul\":563:564   */\n  dup1\n    /* \"#utility.yul\":556:568   */\n  revert\n    /* \"#utility.yul\":580:682   */\ntag_14:\n    /* \"#utility.yul\":621:627   */\n  0x00\n    /* \"#utility.yul\":672:674   */\n  0x1f\n    /* \"#utility.yul\":668:675   */\n  not\n    /* \"#utility.yul\":663:665   */\n  0x1f\n    /* \"#utility.yul\":656:661   */\n  dup4\n    /* \"#utility.yul\":652:666   */\n  add\n    /* \"#utility.yul\":648:676   */\n  and\n    /* \"#utility.yul\":638:676   */\n  swap1\n  pop\n    /* \"#utility.yul\":580:682   */\n  swap2\n  swap1\n  pop\n  jump\t// out\n    /* \"#utility.yul\":688:868   */\ntag_15:\n    /* \"#utility.yul\":736:813   */\n  0x4e487b7100000000000000000000000000000000000000000000000000000000\n    /* \"#utility.yul\":733:734   */\n  0x00\n    /* \"#utility.yul\":726:814   */\n  mstore\n    /* \"#utility.yul\":833:837   */\n  0x41\n    /* \"#utility.yul\":830:831   */\n  0x04\n    /* \"#utility.yul\":823:838   */\n  mstore\n    /* \"#utility.yul\":857:861   */\n  0x24\n    /* \"#utility.yul\":854:855   */\n  0x00\n    /* \"#utility.yul\":847:862   */\n  revert\n    /* \"#utility.yul\":874:1155   */\ntag_16:\n    /* \"#utility.yul\":957:984   */\n  tag_56\n    /* \"#utility.yul\":979:983   */\n  dup3\n    /* \"#utility.yul\":957:984   */\n  tag_14\n  jump\t// in\ntag_56:\n    /* \"#utility.yul\":949:955   */\n  dup2\n    /* \"#utility.yul\":945:985   */\n  add\n    /* \"#utility.yul\":1087:1093   */\n  dup2\n    /* \"#utility.yul\":1075:1085   */\n  dup2\n    /* \"#utility.yul\":1072:1094   */\n  lt\n    /* \"#utility.yul\":1051:1069   */\n  0xffffffffffffffff\n    /* \"#utility.yul\":1039:1049   */\n  dup3\n    /* \"#utility.yul\":1036:1070   */\n  gt\n    /* \"#utility.yul\":1033:1095   */\n  or\n    /* \"#utility.yul\":1030:1118   */\n  iszero\n  tag_57\n  jumpi\n    /* \"#utility.yul\":1098:1116   */\n  tag_58\n  tag_15\n  jump\t// in\ntag_58:\n    /* \"#utility.yul\":1030:1118   */\ntag_57:\n    /* \"#utility.yul\":1138:1148   */\n  dup1\n    /* \"#utility.yul\":1134:1136   */\n  0x40\n    /* \"#utility.yul\":1127:1149   */\n  mstore\n    /* \"#utility.yul\":917:1155   */\n  pop\n    /* \"#utility.yul\":874:1155   */\n  pop\n  pop\n  jump\t// out\n    /* \"#utility.yul\":1161:1290   */\ntag_17:\n    /* \"#utility.yul\":1195:1201   */\n  0x00\n    /* \"#utility.yul\":1222:1242   */\n  tag_60\n  tag_9\n  jump\t// in\ntag_60:\n    /* \"#utility.yul\":1212:1242   */\n  swap1\n  pop\n    /* \"#utility.yul\":1251:1284   */\n  tag_61\n    /* \"#utility.yul\":1279:1283   */\n  dup3\n    /* \"#utility.yul\":1271:1277   */\n  dup3\n    /* \"#utility.yul\":1251:1284   */\n  tag_16\n  jump\t// in\ntag_61:\n    /* \"#utility.yul\":1161:1290   */\n  swap2\n  swap1\n  pop\n  jump\t// out\n    /* \"#utility.yul\":1296:1604   */\ntag_18:\n    /* \"#utility.yul\":1358:1362   */\n  0x00\n    /* \"#utility.yul\":1448:1466   */\n  0xffffffffffffffff\n    /* \"#utility.yul\":1440:1446   */\n  dup3\n    /* \"#utility.yul\":1437:1467   */\n  gt\n    /* \"#utility.yul\":1434:1490   */\n  iszero\n  tag_63\n  jumpi\n    /* \"#utility.yul\":1470:1488   */\n  tag_64\n  tag_15\n  jump\t// in\ntag_64:\n    /* \"#utility.yul\":1434:1490   */\ntag_63:\n    /* \"#utility.yul\":1508:1537   */\n  tag_65\n    /* \"#utility.yul\":1530:1536   */\n  dup3\n    /* \"#utility.yul\":1508:1537   */\n  tag_14\n  jump\t// in\ntag_65:\n    /* \"#utility.yul\":1500:1537   */\n  swap1\n  pop\n    /* \"#utility.yul\":1592:1596   */\n  0x20\n    /* \"#utility.yul\":1586:1590   */\n  dup2\n    /* \"#utility.yul\":1582:1597   */\n  add\n    /* \"#utility.yul\":1574:1597   */\n  swap1\n  pop\n    /* \"#utility.yul\":1296:1604   */\n  swap2\n  swap1\n  pop\n  jump\t// out\n    /* \"#utility.yul\":1610:1856   */\ntag_19:\n    /* \"#utility.yul\":1691:1692   */\n  0x00\n    /* \"#utility.yul\":1701:1814   */\ntag_67:\n    /* \"#utility.yul\":1715:1721   */\n  dup4\n    /* \"#utility.yul\":1712:1713   */\n  dup2\n    /* \"#utility.yul\":1709:1722   */\n  lt\n    /* \"#utility.yul\":1701:1814   */\n  iszero\n  tag_69\n  jumpi\n    /* \"#utility.yul\":1800:1801   */\n  dup1\n    /* \"#utility.yul\":1795:1798   */\n  dup3\n    /* \"#utility.yul\":1791:1802   */\n  add\n    /* \"#utility.yul\":1785:1803   */\n  mload\n    /* \"#utility.yul\":1781:1782   */\n  dup2\n    /* \"#utility.yul\":1776:1779   */\n  dup5\n    /* \"#utility.yul\":1772:1783   */\n  add\n    /* \"#utility.yul\":1765:1804   */\n  mstore\n    /* \"#utility.yul\":1737:1739   */\n  0x20\n    /* \"#utility.yul\":1734:1735   */\n  dup2\n    /* \"#utility.yul\":1730:1740   */\n  add\n    /* \"#utility.yul\":1725:1740   */\n  swap1\n  pop\n    /* \"#utility.yul\":1701:1814   */\n  jump(tag_67)\ntag_69:\n    /* \"#utility.yul\":1848:1849   */\n  0x00\n    /* \"#utility.yul\":1839:1845   */\n  dup5\n    /* \"#utility.yul\":1834:1837   */\n  dup5\n    /* \"#utility.yul\":1830:1846   */\n  add\n    /* \"#utility.yul\":1823:1850   */\n  mstore\n    /* \"#utility.yul\":1672:1856   */\n  pop\n    /* \"#utility.yul\":1610:1856   */\n  pop\n  pop\n  pop\n  jump\t// out\n    /* \"#utility.yul\":1862:2296   */\ntag_20:\n    /* \"#utility.yul\":1951:1956   */\n  0x00\n    /* \"#utility.yul\":1976:2042   */\n  tag_71\n    /* \"#utility.yul\":1992:2041   */\n  tag_72\n    /* \"#utility.yul\":2034:2040   */\n  dup5\n    /* \"#utility.yul\":1992:2041   */\n  tag_18\n  jump\t// in\ntag_72:\n    /* \"#utility.yul\":1976:2042   */\n  tag_17\n  jump\t// in\ntag_71:\n    /* \"#utility.yul\":1967:2042   */\n  swap1\n  pop\n    /* \"#utility.yul\":2065:2071   */\n  dup3\n    /* \"#utility.yul\":2058:2063   */\n  dup2\n    /* \"#utility.yul\":2051:2072   */\n  mstore\n    /* \"#utility.yul\":2103:2107   */\n  0x20\n    /* \"#utility.yul\":2096:2101   */\n  dup2\n    /* \"#utility.yul\":2092:2108   */\n  add\n    /* \"#utility.yul\":2141:2144   */\n  dup5\n    /* \"#utility.yul\":2132:2138   */\n  dup5\n    /* \"#utility.yul\":2127:2130   */\n  dup5\n    /* \"#utility.yul\":2123:2139   */\n  add\n    /* \"#utility.yul\":2120:2145   */\n  gt\n    /* \"#utility.yul\":2117:2229   */\n  iszero\n  tag_73\n  jumpi\n    /* \"#utility.yul\":2148:2227   */\n  tag_74\n  tag_13\n  jump\t// in\ntag_74:\n    /* \"#utility.yul\":2117:2229   */\ntag_73:\n    /* \"#utility.yul\":2238:2290   */\n  tag_75\n    /* \"#utility.yul\":2283:2289   */\n  dup5\n    /* \"#utility.yul\":2278:2281   */\n  dup3\n    /* \"#utility.yul\":2273:2276   */\n  dup6\n    /* \"#utility.yul\":2238:2290   */\n  tag_19\n  jump\t// in\ntag_75:\n    /* \"#utility.yul\":1957:2296   */\n  pop\n    /* \"#utility.yul\":1862:2296   */\n  swap4\n  swap3\n  pop\n  pop\n  pop\n  jump\t// out\n    /* \"#utility.yul\":2316:2671   */\ntag_21:\n    /* \"#utility.yul\":2383:2388   */\n  0x00\n    /* \"#utility.yul\":2432:2435   */\n  dup3\n    /* \"#utility.yul\":2425:2429   */\n  0x1f\n    /* \"#utility.yul\":2417:2423   */\n  dup4\n    /* \"#utility.yul\":2413:2430   */\n  add\n    /* \"#utility.yul\":2409:2436   */\n  slt\n    /* \"#utility.yul\":2399:2521   */\n  tag_77\n  jumpi\n    /* \"#utility.yul\":2440:2519   */\n  tag_78\n  tag_12\n  jump\t// in\ntag_78:\n    /* \"#utility.yul\":2399:2521   */\ntag_77:\n    /* \"#utility.yul\":2550:2556   */\n  dup2\n    /* \"#utility.yul\":2544:2557   */\n  mload\n    /* \"#utility.yul\":2575:2665   */\n  tag_79\n    /* \"#utility.yul\":2661:2664   */\n  dup5\n    /* \"#utility.yul\":2653:2659   */\n  dup3\n    /* \"#utility.yul\":2646:2650   */\n  0x20\n    /* \"#utility.yul\":2638:2644   */\n  dup7\n    /* \"#utility.yul\":2634:2651   */\n  add\n    /* \"#utility.yul\":2575:2665   */\n  tag_20\n  jump\t// in\ntag_79:\n    /* \"#utility.yul\":2566:2665   */\n  swap2\n  pop\n    /* \"#utility.yul\":2389:2671   */\n  pop\n    /* \"#utility.yul\":2316:2671   */\n  swap3\n  swap2\n  pop\n  pop\n  jump\t// out\n    /* \"#utility.yul\":2677:2803   */\ntag_22:\n    /* \"#utility.yul\":2714:2721   */\n  0x00\n    /* \"#utility.yul\":2754:2796   */\n  0xffffffffffffffffffffffffffffffffffffffff\n    /* \"#utility.yul\":2747:2752   */\n  dup3\n    /* \"#utility.yul\":2743:2797   */\n  and\n    /* \"#utility.yul\":2732:2797   */\n  swap1\n  pop\n    /* \"#utility.yul\":2677:2803   */\n  swap2\n  swap1\n  pop\n  jump\t// out\n    /* \"#utility.yul\":2809:2905   */\ntag_23:\n    /* \"#utility.yul\":2846:2853   */\n  0x00\n    /* \"#utility.yul\":2875:2899   */\n  tag_82\n    /* \"#utility.yul\":2893:2898   */\n  dup3\n    /* \"#utility.yul\":2875:2899   */\n  tag_22\n  jump\t// in\ntag_82:\n    /* \"#utility.yul\":2864:2899   */\n  swap1\n  pop\n    /* \"#utility.yul\":2809:2905   */\n  swap2\n  swap1\n  pop\n  jump\t// out\n    /* \"#utility.yul\":2911:3033   */\ntag_24:\n    /* \"#utility.yul\":2984:3008   */\n  tag_84\n    /* \"#utility.yul\":3002:3007   */\n  dup2\n    /* \"#utility.yul\":2984:3008   */\n  tag_23\n  jump\t// in\ntag_84:\n    /* \"#utility.yul\":2977:2982   */\n  dup2\n    /* \"#utility.yul\":2974:3009   */\n  eq\n    /* \"#utility.yul\":2964:3027   */\n  tag_85\n  jumpi\n    /* \"#utility.yul\":3023:3024   */\n  0x00\n    /* \"#utility.yul\":3020:3021   */\n  dup1\n    /* \"#utility.yul\":3013:3025   */\n  revert\n    /* \"#utility.yul\":2964:3027   */\ntag_85:\n    /* \"#utility.yul\":2911:3033   */\n  pop\n  jump\t// out\n    /* \"#utility.yul\":3039:3182   */\ntag_25:\n    /* \"#utility.yul\":3096:3101   */\n  0x00\n    /* \"#utility.yul\":3127:3133   */\n  dup2\n    /* \"#utility.yul\":3121:3134   */\n  mload\n    /* \"#utility.yul\":3112:3134   */\n  swap1\n  pop\n    /* \"#utility.yul\":3143:3176   */\n  tag_87\n    /* \"#utility.yul\":3170:3175   */\n  dup2\n    /* \"#utility.yul\":3143:3176   */\n  tag_24\n  jump\t// in\ntag_87:\n    /* \"#utility.yul\":3039:3182   */\n  swap3\n  swap2\n  pop\n  pop\n  jump\t// out\n    /* \"#utility.yul\":3188:3265   */\ntag_26:\n    /* \"#utility.yul\":3225:3232   */\n  0x00\n    /* \"#utility.yul\":3254:3259   */\n  dup2\n    /* \"#utility.yul\":3243:3259   */\n  swap1\n  pop\n    /* \"#utility.yul\":3188:3265   */\n  swap2\n  swap1\n  pop\n  jump\t// out\n    /* \"#utility.yul\":3271:3393   */\ntag_27:\n    /* \"#utility.yul\":3344:3368   */\n  tag_90\n    /* \"#utility.yul\":3362:3367   */\n  dup2\n    /* \"#utility.yul\":3344:3368   */\n  tag_26\n  jump\t// in\ntag_90:\n    /* \"#utility.yul\":3337:3342   */\n  dup2\n    /* \"#utility.yul\":3334:3369   */\n  eq\n    /* \"#utility.yul\":3324:3387   */\n  tag_91\n  jumpi\n    /* \"#utility.yul\":3383:3384   */\n  0x00\n    /* \"#utility.yul\":3380:3381   */\n  dup1\n    /* \"#utility.yul\":3373:3385   */\n  revert\n    /* \"#utility.yul\":3324:3387   */\ntag_91:\n    /* \"#utility.yul\":3271:3393   */\n  pop\n  jump\t// out\n    /* \"#utility.yul\":3399:3542   */\ntag_28:\n    /* \"#utility.yul\":3456:3461   */\n  0x00\n    /* \"#utility.yul\":3487:3493   */\n  dup2\n    /* \"#utility.yul\":3481:3494   */\n  mload\n    /* \"#utility.yul\":3472:3494   */\n  swap1\n  pop\n    /* \"#utility.yul\":3503:3536   */\n  tag_93\n    /* \"#utility.yul\":3530:3535   */\n  dup2\n    /* \"#utility.yul\":3503:3536   */\n  tag_27\n  jump\t// in\ntag_93:\n    /* \"#utility.yul\":3399:3542   */\n  swap3\n  swap2\n  pop\n  pop\n  jump\t// out\n    /* \"#utility.yul\":3548:4384   */\ntag_3:\n    /* \"#utility.yul\":3646:3652   */\n  0x00\n    /* \"#utility.yul\":3654:3660   */\n  dup1\n    /* \"#utility.yul\":3662:3668   */\n  0x00\n    /* \"#utility.yul\":3711:3713   */\n  0x60\n    /* \"#utility.yul\":3699:3708   */\n  dup5\n    /* \"#utility.yul\":3690:3697   */\n  dup7\n    /* \"#utility.yul\":3686:3709   */\n  sub\n    /* \"#utility.yul\":3682:3714   */\n  slt\n    /* \"#utility.yul\":3679:3798   */\n  iszero\n  tag_95\n  jumpi\n    /* \"#utility.yul\":3717:3796   */\n  tag_96\n  tag_10\n  jump\t// in\ntag_96:\n    /* \"#utility.yul\":3679:3798   */\ntag_95:\n    /* \"#utility.yul\":3858:3859   */\n  0x00\n    /* \"#utility.yul\":3847:3856   */\n  dup5\n    /* \"#utility.yul\":3843:3860   */\n  add\n    /* \"#utility.yul\":3837:3861   */\n  mload\n    /* \"#utility.yul\":3888:3906   */\n  0xffffffffffffffff\n    /* \"#utility.yul\":3880:3886   */\n  dup2\n    /* \"#utility.yul\":3877:3907   */\n  gt\n    /* \"#utility.yul\":3874:3991   */\n  iszero\n  tag_97\n  jumpi\n    /* \"#utility.yul\":3910:3989   */\n  tag_98\n  tag_11\n  jump\t// in\ntag_98:\n    /* \"#utility.yul\":3874:3991   */\ntag_97:\n    /* \"#utility.yul\":4015:4089   */\n  tag_99\n    /* \"#utility.yul\":4081:4088   */\n  dup7\n    /* \"#utility.yul\":4072:4078   */\n  dup3\n    /* \"#utility.yul\":4061:4070   */\n  dup8\n    /* \"#utility.yul\":4057:4079   */\n  add\n    /* \"#utility.yul\":4015:4089   */\n  tag_21\n  jump\t// in\ntag_99:\n    /* \"#utility.yul\":4005:4089   */\n  swap4\n  pop\n    /* \"#utility.yul\":3808:4099   */\n  pop\n    /* \"#utility.yul\":4138:4140   */\n  0x20\n    /* \"#utility.yul\":4164:4228   */\n  tag_100\n    /* \"#utility.yul\":4220:4227   */\n  dup7\n    /* \"#utility.yul\":4211:4217   */\n  dup3\n    /* \"#utility.yul\":4200:4209   */\n  dup8\n    /* \"#utility.yul\":4196:4218   */\n  add\n    /* \"#utility.yul\":4164:4228   */\n  tag_25\n  jump\t// in\ntag_100:\n    /* \"#utility.yul\":4154:4228   */\n  swap3\n  pop\n    /* \"#utility.yul\":4109:4238   */\n  pop\n    /* \"#utility.yul\":4277:4279   */\n  0x40\n    /* \"#utility.yul\":4303:4367   */\n  tag_101\n    /* \"#utility.yul\":4359:4366   */\n  dup7\n    /* \"#utility.yul\":4350:4356   */\n  dup3\n    /* \"#utility.yul\":4339:4348   */\n  dup8\n    /* \"#utility.yul\":4335:4357   */\n  add\n    /* \"#utility.yul\":4303:4367   */\n  tag_28\n  jump\t// in\ntag_101:\n    /* \"#utility.yul\":4293:4367   */\n  swap2\n  pop\n    /* \"#utility.yul\":4248:4377   */\n  pop\n    /* \"#utility.yul\":3548:4384   */\n  swap3\n  pop\n  swap3\n  pop\n  swap3\n  jump\t// out\n    /* \"#utility.yul\":4390:4489   */\ntag_29:\n    /* \"#utility.yul\":4442:4448   */\n  0x00\n    /* \"#utility.yul\":4476:4481   */\n  dup2\n    /* \"#utility.yul\":4470:4482   */\n  mload\n    /* \"#utility.yul\":4460:4482   */\n  swap1\n  pop\n    /* \"#utility.yul\":4390:4489   */\n  swap2\n  swap1\n  pop\n  jump\t// out\n    /* \"#utility.yul\":4495:4675   */\ntag_30:\n    /* \"#utility.yul\":4543:4620   */\n  0x4e487b7100000000000000000000000000000000000000000000000000000000\n    /* \"#utility.yul\":4540:4541   */\n  0x00\n    /* \"#utility.yul\":4533:4621   */\n  mstore\n    /* \"#utility.yul\":4640:4644   */\n  0x22\n    /* \"#utility.yul\":4637:4638   */\n  0x04\n    /* \"#utility.yul\":4630:4645   */\n  mstore\n    /* \"#utility.yul\":4664:4668   */\n  0x24\n    /* \"#utility.yul\":4661:4662   */\n  0x00\n    /* \"#utility.yul\":4654:4669   */\n  revert\n    /* \"#utility.yul\":4681:5001   */\ntag_31:\n    /* \"#utility.yul\":4725:4731   */\n  0x00\n    /* \"#utility.yul\":4762:4763   */\n  0x02\n    /* \"#utility.yul\":4756:4760   */\n  dup3\n    /* \"#utility.yul\":4752:4764   */\n  div\n    /* \"#utility.yul\":4742:4764   */\n  swap1\n  pop\n    /* \"#utility.yul\":4809:4810   */\n  0x01\n    /* \"#utility.yul\":4803:4807   */\n  dup3\n    /* \"#utility.yul\":4799:4811   */\n  and\n    /* \"#utility.yul\":4830:4848   */\n  dup1\n    /* \"#utility.yul\":4820:4901   */\n  tag_105\n  jumpi\n    /* \"#utility.yul\":4886:4890   */\n  0x7f\n    /* \"#utility.yul\":4878:4884   */\n  dup3\n    /* \"#utility.yul\":4874:4891   */\n  and\n    /* \"#utility.yul\":4864:4891   */\n  swap2\n  pop\n    /* \"#utility.yul\":4820:4901   */\ntag_105:\n    /* \"#utility.yul\":4948:4950   */\n  0x20\n    /* \"#utility.yul\":4940:4946   */\n  dup3\n    /* \"#utility.yul\":4937:4951   */\n  lt\n    /* \"#utility.yul\":4917:4935   */\n  dup2\n    /* \"#utility.yul\":4914:4952   */\n  sub\n    /* \"#utility.yul\":4911:4995   */\n  tag_106\n  jumpi\n    /* \"#utility.yul\":4967:4985   */\n  tag_107\n  tag_30\n  jump\t// in\ntag_107:\n    /* \"#utility.yul\":4911:4995   */\ntag_106:\n    /* \"#utility.yul\":4732:5001   */\n  pop\n    /* \"#utility.yul\":4681:5001   */\n  swap2\n  swap1\n  pop\n  jump\t// out\n    /* \"#utility.yul\":5007:5148   */\ntag_32:\n    /* \"#utility.yul\":5056:5060   */\n  0x00\n    /* \"#utility.yul\":5079:5082   */\n  dup2\n    /* \"#utility.yul\":5071:5082   */\n  swap1\n  pop\n    /* \"#utility.yul\":5102:5105   */\n  dup2\n    /* \"#utility.yul\":5099:5100   */\n  0x00\n    /* \"#utility.yul\":5092:5106   */\n  mstore\n    /* \"#utility.yul\":5136:5140   */\n  0x20\n    /* \"#utility.yul\":5133:5134   */\n  0x00\n    /* \"#utility.yul\":5123:5141   */\n  keccak256\n    /* \"#utility.yul\":5115:5141   */\n  swap1\n  pop\n    /* \"#utility.yul\":5007:5148   */\n  swap2\n  swap1\n  pop\n  jump\t// out\n    /* \"#utility.yul\":5154:5247   */\ntag_33:\n    /* \"#utility.yul\":5191:5197   */\n  0x00\n    /* \"#utility.yul\":5238:5240   */\n  0x20\n    /* \"#utility.yul\":5233:5235   */\n  0x1f\n    /* \"#utility.yul\":5226:5231   */\n  dup4\n    /* \"#utility.yul\":5222:5236   */\n  add\n    /* \"#utility.yul\":5218:5241   */\n  div\n    /* \"#utility.yul\":5208:5241   */\n  swap1\n  pop\n    /* \"#utility.yul\":5154:5247   */\n  swap2\n  swap1\n  pop\n  jump\t// out\n    /* \"#utility.yul\":5253:5360   */\ntag_34:\n    /* \"#utility.yul\":5297:5305   */\n  0x00\n    /* \"#utility.yul\":5347:5352   */\n  dup3\n    /* \"#utility.yul\":5341:5345   */\n  dup3\n    /* \"#utility.yul\":5337:5353   */\n  shl\n    /* \"#utility.yul\":5316:5353   */\n  swap1\n  pop\n    /* \"#utility.yul\":5253:5360   */\n  swap3\n  swap2\n  pop\n  pop\n  jump\t// out\n    /* \"#utility.yul\":5366:5759   */\ntag_35:\n    /* \"#utility.yul\":5435:5441   */\n  0x00\n    /* \"#utility.yul\":5485:5486   */\n  0x08\n    /* \"#utility.yul\":5473:5483   */\n  dup4\n    /* \"#utility.yul\":5469:5487   */\n  mul\n    /* \"#utility.yul\":5508:5605   */\n  tag_112\n    /* \"#utility.yul\":5538:5604   */\n  0xffffffffffffffffffffffffffffffffffffffffffffffffffffffffffffffff\n    /* \"#utility.yul\":5527:5536   */\n  dup3\n    /* \"#utility.yul\":5508:5605   */\n  tag_34\n  jump\t// in\ntag_112:\n    /* \"#utility.yul\":5626:5665   */\n  tag_113\n    /* \"#utility.yul\":5656:5664   */\n  dup7\n    /* \"#utility.yul\":5645:5654   */\n  dup4\n    /* \"#utility.yul\":5626:5665   */\n  tag_34\n  jump\t// in\ntag_113:\n    /* \"#utility.yul\":5614:5665   */\n  swap6\n  pop\n    /* \"#utility.yul\":5698:5702   */\n  dup1\n    /* \"#utility.yul\":5694:5703   */\n  not\n    /* \"#utility.yul\":5687:5692   */\n  dup5\n    /* \"#utility.yul\":5683:5704   */\n  and\n    /* \"#utility.yul\":5674:5704   */\n  swap4\n  pop\n    /* \"#utility.yul\":5747:5751   */\n  dup1\n    /* \"#utility.yul\":5737:5745   */\n  dup7\n    /* \"#utility.yul\":5733:5752   */\n  and\n    /* \"#utility.yul\":5726:5731   */\n  dup5\n    /* \"#utility.yul\":5723:5753   */\n  or\n    /* \"#utility.yul\":5713:5753   */\n  swap3\n  pop\n    /* \"#utility.yul\":5442:5759   */\n  pop\n  pop\n    /* \"#utility.yul\":5366:5759   */\n  swap4\n  swap3\n  pop\n  pop\n  pop\n  jump\t// out\n    /* \"#utility.yul\":5765:5825   */\ntag_36:\n    /* \"#utility.yul\":5793:5796   */\n  0x00\n    /* \"#utility.yul\":5814:5819   */\n  dup2\n    /* \"#utility.yul\":5807:5819   */\n  swap1\n  pop\n    /* \"#utility.yul\":5765:5825   */\n  swap2\n  swap1\n  pop\n  jump\t// out\n    /* \"#utility.yul\":5831:5973   */\ntag_37:\n    /* \"#utility.yul\":5881:5890   */\n  0x00\n    /* \"#utility.yul\":5914:5967   */\n  tag_116\n    /* \"#utility.yul\":5932:5966   */\n  tag_117\n    /* \"#utility.yul\":5941:5965   */\n  tag_118\n    /* \"#utility.yul\":5959:5964   */\n  dup5\n    /* \"#utility.yul\":5941:5965   */\n  tag_26\n  jump\t// in\ntag_118:\n    /* \"#utility.yul\":5932:5966   */\n  tag_36\n  jump\t// in\ntag_117:\n    /* \"#utility.yul\":5914:5967   */\n  tag_26\n  jump\t// in\ntag_116:\n    /* \"#utility.yul\":5901:5967   */\n  swap1\n  pop\n    /* \"#utility.yul\":5831:5973   */\n  swap2\n  swap1\n  pop\n  jump\t// out\n    /* \"#utility.yul\":5979:6054   */\ntag_38:\n    /* \"#utility.yul\":6022:6025   */\n  0x00\n    /* \"#utility.yul\":6043:6048   */\n  dup2\n    /* \"#utility.yul\":6036:6048   */\n  swap1\n  pop\n    /* \"#utility.yul\":5979:6054   */\n  swap2\n  swap1\n  pop\n  jump\t// out\n    /* \"#utility.yul\":6060:6329   */\ntag_39:\n    /* \"#utility.yul\":6170:6209   */\n  tag_121\n    /* \"#utility.yul\":6201:6208   */\n  dup4\n    /* \"#utility.yul\":6170:6209   */\n  tag_37\n  jump\t// in\ntag_121:\n    /* \"#utility.yul\":6231:6322   */\n  tag_122\n    /* \"#utility.yul\":6280:6321   */\n  tag_123\n    /* \"#utility.yul\":6304:6320   */\n  dup3\n    /* \"#utility.yul\":6280:6321   */\n  tag_38\n  jump\t// in\ntag_123:\n    /* \"#utility.yul\":6272:6278   */\n  dup5\n    /* \"#utility.yul\":6265:6269   */\n  dup5\n    /* \"#utility.yul\":6259:6270   */\n  sload\n    /* \"#utility.yul\":6231:6322   */\n  tag_35\n  jump\t// in\ntag_122:\n    /* \"#utility.yul\":6225:6229   */\n  dup3\n    /* \"#utility.yul\":6218:6323   */\n  sstore\n    /* \"#utility.yul\":6136:6329   */\n  pop\n    /* \"#utility.yul\":6060:6329   */\n  pop\n  pop\n  pop\n  jump\t// out\n    /* \"#utility.yul\":6335:6408   */\ntag_40:\n    /* \"#utility.yul\":6380:6383   */\n  0x00\n    /* \"#utility.yul\":6335:6408   */\n  swap1\n  jump\t// out\n    /* \"#utility.yul\":6414:6603   */\ntag_41:\n    /* \"#utility.yul\":6491:6523   */\n  tag_126\n  tag_40\n  jump\t// in\ntag_126:\n    /* \"#utility.yul\":6532:6597   */\n  tag_127\n    /* \"#utility.yul\":6590:6596   */\n  dup2\n    /* \"#utility.yul\":6582:6588   */\n  dup5\n    /* \"#utility.yul\":6576:6580   */\n  dup5\n    /* \"#utility.yul\":6532:6597   */\n  tag_39\n  jump\t// in\ntag_127:\n    /* \"#utility.yul\":6467:6603   */\n  pop\n    /* \"#utility.yul\":6414:6603   */\n  pop\n  pop\n  jump\t// out\n    /* \"#utility.yul\":6609:6795   */\ntag_42:\n    /* \"#utility.yul\":6669:6789   */\ntag_129:\n    /* \"#utility.yul\":6686:6689   */\n  dup2\n    /* \"#utility.yul\":6679:6684   */\n  dup2\n    /* \"#utility.yul\":6676:6690   */\n  lt\n    /* \"#utility.yul\":6669:6789   */\n  iszero\n  tag_131\n  jumpi\n    /* \"#utility.yul\":6740:6779   */\n  tag_132\n    /* \"#utility.yul\":6777:6778   */\n  0x00\n    /* \"#utility.yul\":6770:6775   */\n  dup3\n    /* \"#utility.yul\":6740:6779   */\n  tag_41\n  jump\t// in\ntag_132:\n    /* \"#utility.yul\":6713:6714   */\n  0x01\n    /* \"#utility.yul\":6706:6711   */\n  dup2\n    /* \"#utility.yul\":6702:6715   */\n  add\n    /* \"#utility.yul\":6693:6715   */\n  swap1\n  pop\n    /* \"#utility.yul\":6669:6789   */\n  jump(tag_129)\ntag_131:\n    /* \"#utility.yul\":6609:6795   */\n  pop\n  pop\n  jump\t// out\n    /* \"#utility.yul\":6801:7344   */\ntag_43:\n    /* \"#utility.yul\":6902:6904   */\n  0x1f\n    /* \"#utility.yul\":6897:6900   */\n  dup3\n    /* \"#utility.yul\":6894:6905   */\n  gt\n    /* \"#utility.yul\":6891:7337   */\n  iszero\n  tag_134\n  jumpi\n    /* \"#utility.yul\":6936:6974   */\n  tag_135\n    /* \"#utility.yul\":6968:6973   */\n  dup2\n    /* \"#utility.yul\":6936:6974   */\n  tag_32\n  jump\t// in\ntag_135:\n    /* \"#utility.yul\":7020:7049   */\n  tag_136\n    /* \"#utility.yul\":7038:7048   */\n  dup5\n    /* \"#utility.yul\":7020:7049   */\n  tag_33\n  jump\t// in\ntag_136:\n    /* \"#utility.yul\":7010:7018   */\n  dup2\n    /* \"#utility.yul\":7006:7050   */\n  add\n    /* \"#utility.yul\":7203:7205   */\n  0x20\n    /* \"#utility.yul\":7191:7201   */\n  dup6\n    /* \"#utility.yul\":7188:7206   */\n  lt\n    /* \"#utility.yul\":7185:7234   */\n  iszero\n  tag_137\n  jumpi\n    /* \"#utility.yul\":7224:7232   */\n  dup2\n    /* \"#utility.yul\":7209:7232   */\n  swap1\n  pop\n    /* \"#utility.yul\":7185:7234   */\ntag_137:\n    /* \"#utility.yul\":7247:7327   */\n  tag_138\n    /* \"#utility.yul\":7303:7325   */\n  tag_139\n    /* \"#utility.yul\":7321:7324   */\n  dup6\n    /* \"#utility.yul\":7303:7325   */\n  tag_33\n  jump\t// in\ntag_139:\n    /* \"#utility.yul\":7293:7301   */\n  dup4\n    /* \"#utility.yul\":7289:7326   */\n  add\n    /* \"#utility.yul\":7276:7287   */\n  dup3\n    /* \"#utility.yul\":7247:7327   */\n  tag_42\n  jump\t// in\ntag_138:\n    /* \"#utility.yul\":6906:7337   */\n  pop\n  pop\n    /* \"#utility.yul\":6891:7337   */\ntag_134:\n    /* \"#utility.yul\":6801:7344   */\n  pop\n  pop\n  pop\n  jump\t// out\n    /* \"#utility.yul\":7350:7467   */\ntag_44:\n    /* \"#utility.yul\":7404:7412   */\n  0x00\n    /* \"#utility.yul\":7454:7459   */\n  dup3\n    /* \"#utility.yul\":7448:7452   */\n  dup3\n    /* \"#utility.yul\":7444:7460   */\n  shr\n    /* \"#utility.yul\":7423:7460   */\n  swap1\n  pop\n    /* \"#utility.yul\":7350:7467   */\n  swap3\n  swap2\n  pop\n  pop\n  jump\t// out\n    /* \"#utility.yul\":7473:7642   */\ntag_45:\n    /* \"#utility.yul\":7517:7523   */\n  0x00\n    /* \"#utility.yul\":7550:7601   */\n  tag_142\n    /* \"#utility.yul\":7598:7599   */\n  0x00\n    /* \"#utility.yul\":7594:7600   */\n  not\n    /* \"#utility.yul\":7586:7591   */\n  dup5\n    /* \"#utility.yul\":7583:7584   */\n  0x08\n    /* \"#utility.yul\":7579:7592   */\n  mul\n    /* \"#utility.yul\":7550:7601   */\n  tag_44\n  jump\t// in\ntag_142:\n    /* \"#utility.yul\":7546:7602   */\n  not\n    /* \"#utility.yul\":7631:7635   */\n  dup1\n    /* \"#utility.yul\":7625:7629   */\n  dup4\n    /* \"#utility.yul\":7621:7636   */\n  and\n    /* \"#utility.yul\":7611:7636   */\n  swap2\n  pop\n    /* \"#utility.yul\":7524:7642   */\n  pop\n    /* \"#utility.yul\":7473:7642   */\n  swap3\n  swap2\n  pop\n  pop\n  jump\t// out\n    /* \"#utility.yul\":7647:7942   */\ntag_46:\n    /* \"#utility.yul\":7723:7727   */\n  0x00\n    /* \"#utility.yul\":7869:7898   */\n  tag_144\n    /* \"#utility.yul\":7894:7897   */\n  dup4\n    /* \"#utility.yul\":7888:7892   */\n  dup4\n    /* \"#utility.yul\":7869:7898   */\n  tag_45\n  jump\t// in\ntag_144:\n    /* \"#utility.yul\":7861:7898   */\n  swap2\n  pop\n    /* \"#utility.yul\":7931:7934   */\n  dup3\n    /* \"#utility.yul\":7928:7929   */\n  0x02\n    /* \"#utility.yul\":7924:7935   */\n  mul\n    /* \"#utility.yul\":7918:7922   */\n  dup3\n    /* \"#utility.yul\":7915:7936   */\n  or\n    /* \"#utility.yul\":7907:7936   */\n  swap1\n  pop\n    /* \"#utility.yul\":7647:7942   */\n  swap3\n  swap2\n  pop\n  pop\n  jump\t// out\n    /* \"#utility.yul\":7947:9342   */\ntag_7:\n    /* \"#utility.yul\":8064:8101   */\n  tag_146\n    /* \"#utility.yul\":8097:8100   */\n  dup3\n    /* \"#utility.yul\":8064:8101   */\n  tag_29\n  jump\t// in\ntag_146:\n    /* \"#utility.yul\":8166:8184   */\n  0xffffffffffffffff\n    /* \"#utility.yul\":8158:8164   */\n  dup2\n    /* \"#utility.yul\":8155:8185   */\n  gt\n    /* \"#utility.yul\":8152:8208   */\n  iszero\n  tag_147\n  jumpi\n    /* \"#utility.yul\":8188:8206   */\n  tag_148\n  tag_15\n  jump\t// in\ntag_148:\n    /* \"#utility.yul\":8152:8208   */\ntag_147:\n    /* \"#utility.yul\":8232:8270   */\n  tag_149\n    /* \"#utility.yul\":8264:8268   */\n  dup3\n    /* \"#utility.yul\":8258:8269   */\n  sload\n    /* \"#utility.yul\":8232:8270   */\n  tag_31\n  jump\t// in\ntag_149:\n    /* \"#utility.yul\":8317:8384   */\n  tag_150\n    /* \"#utility.yul\":8377:8383   */\n  dup3\n    /* \"#utility.yul\":8369:8375   */\n  dup3\n    /* \"#utility.yul\":8363:8367   */\n  dup6\n    /* \"#utility.yul\":8317:8384   */\n  tag_43\n  jump\t// in\ntag_150:\n    /* \"#utility.yul\":8411:8412   */\n  0x00\n    /* \"#utility.yul\":8435:8439   */\n  0x20\n    /* \"#utility.yul\":8422:8439   */\n  swap1\n  pop\n    /* \"#utility.yul\":8467:8469   */\n  0x1f\n    /* \"#utility.yul\":8459:8465   */\n  dup4\n    /* \"#utility.yul\":8456:8470   */\n  gt\n    /* \"#utility.yul\":8484:8485   */\n  0x01\n    /* \"#utility.yul\":8479:9097   */\n  dup2\n  eq\n  tag_152\n  jumpi\n    /* \"#utility.yul\":9141:9142   */\n  0x00\n    /* \"#utility.yul\":9158:9164   */\n  dup5\n    /* \"#utility.yul\":9155:9232   */\n  iszero\n  tag_153\n  jumpi\n    /* \"#utility.yul\":9207:9216   */\n  dup3\n    /* \"#utility.yul\":9202:9205   */\n  dup8\n    /* \"#utility.yul\":9198:9217   */\n  add\n    /* \"#utility.yul\":9192:9218   */\n  mload\n    /* \"#utility.yul\":9183:9218   */\n  swap1\n  pop\n    /* \"#utility.yul\":9155:9232   */\ntag_153:\n    /* \"#utility.yul\":9258:9325   */\n  tag_154\n    /* \"#utility.yul\":9318:9324   */\n  dup6\n    /* \"#utility.yul\":9311:9316   */\n  dup3\n    /* \"#utility.yul\":9258:9325   */\n  tag_46\n  jump\t// in\ntag_154:\n    /* \"#utility.yul\":9252:9256   */\n  dup7\n    /* \"#utility.yul\":9245:9326   */\n  sstore\n    /* \"#utility.yul\":9114:9336   */\n  pop\n    /* \"#utility.yul\":8449:9336   */\n  jump(tag_151)\n    /* \"#utility.yul\":8479:9097   */\ntag_152:\n    /* \"#utility.yul\":8531:8535   */\n  0x1f\n    /* \"#utility.yul\":8527:8536   */\n  not\n    /* \"#utility.yul\":8519:8525   */\n  dup5\n    /* \"#utility.yul\":8515:8537   */\n  and\n    /* \"#utility.yul\":8565:8602   */\n  tag_155\n    /* \"#utility.yul\":8597:8601   */\n  dup7\n    /* \"#utility.yul\":8565:8602   */\n  tag_32\n  jump\t// in\ntag_155:\n    /* \"#utility.yul\":8624:8625   */\n  0x00\n    /* \"#utility.yul\":8638:8846   */\ntag_156:\n    /* \"#utility.yul\":8652:8659   */\n  dup3\n    /* \"#utility.yul\":8649:8650   */\n  dup2\n    /* \"#utility.yul\":8646:8660   */\n  lt\n    /* \"#utility.yul\":8638:8846   */\n  iszero\n  tag_158\n  jumpi\n    /* \"#utility.yul\":8731:8740   */\n  dup5\n    /* \"#utility.yul\":8726:8729   */\n  dup10\n    /* \"#utility.yul\":8722:8741   */\n  add\n    /* \"#utility.yul\":8716:8742   */\n  mload\n    /* \"#utility.yul\":8708:8714   */\n  dup3\n    /* \"#utility.yul\":8701:8743   */\n  sstore\n    /* \"#utility.yul\":8782:8783   */\n  0x01\n    /* \"#utility.yul\":8774:8780   */\n  dup3\n    /* \"#utility.yul\":8770:8784   */\n  add\n    /* \"#utility.yul\":8760:8784   */\n  swap2\n  pop\n    /* \"#utility.yul\":8829:8831   */\n  0x20\n    /* \"#utility.yul\":8818:8827   */\n  dup6\n    /* \"#utility.yul\":8814:8832   */\n  add\n    /* \"#utility.yul\":8801:8832   */\n  swap5\n  pop\n    /* \"#utility.yul\":8675:8679   */\n  0x20\n    /* \"#utility.yul\":8672:8673   */\n  dup2\n    /* \"#utility.yul\":8668:8680   */\n  add\n    /* \"#utility.yul\":8663:8680   */\n  swap1\n  pop\n    /* \"#utility.yul\":8638:8846   */\n  jump(tag_156)\ntag_158:\n    /* \"#utility.yul\":8874:8880   */\n  dup7\n    /* \"#utility.yul\":8865:8872   */\n  dup4\n    /* \"#utility.yul\":8862:8881   */\n  lt\n    /* \"#utility.yul\":8859:9038   */\n  iszero\n  tag_159\n  jumpi\n    /* \"#utility.yul\":8932:8941   */\n  dup5\n    /* \"#utility.yul\":8927:8930   */\n  dup10\n    /* \"#utility.yul\":8923:8942   */\n  add\n    /* \"#utility.yul\":8917:8943   */\n  mload\n    /* \"#utility.yul\":8975:9023   */\n  tag_160\n    /* \"#utility.yul\":9017:9021   */\n  0x1f\n    /* \"#utility.yul\":9009:9015   */\n  dup10\n    /* \"#utility.yul\":9005:9022   */\n  and\n    /* \"#utility.yul\":8994:9003   */\n  dup3\n    /* \"#utility.yul\":8975:9023   */\n  tag_45\n  jump\t// in\ntag_160:\n    /* \"#utility.yul\":8967:8973   */\n  dup4\n    /* \"#utility.yul\":8960:9024   */\n  sstore\n    /* \"#utility.yul\":8882:9038   */\n  pop\n    /* \"#utility.yul\":8859:9038   */\ntag_159:\n    /* \"#utility.yul\":9084:9085   */\n  0x01\n    /* \"#utility.yul\":9080:9081   */\n  0x02\n    /* \"#utility.yul\":9072:9078   */\n  dup9\n    /* \"#utility.yul\":9068:9082   */\n  mul\n    /* \"#utility.yul\":9064:9086   */\n  add\n    /* \"#utility.yul\":9058:9062   */\n  dup9\n    /* \"#utility.yul\":9051:9087   */\n  sstore\n    /* \"#utility.yul\":8486:9097   */\n  pop\n  pop\n  pop\n    /* \"#utility.yul\":8449:9336   */\ntag_151:\n  pop\n    /* \"#utility.yul\":8039:9342   */\n  pop\n  pop\n  pop\n    /* \"#utility.yul\":7947:9342   */\n  pop\n  pop\n  jump\t// out\n    /* \"test12.sol\":0:790  contract SimpleToken {... */\ntag_8:\n  dataSize(sub_0)\n  dup1\n  dataOffset(sub_0)\n  0x00\n  codecopy\n  0x00\n  return\nstop\n\nsub_0: assembly {\n        /* \"test12.sol\":0:790  contract SimpleToken {... */\n      mstore(0x40, 0x80)\n      jumpi(tag_1, lt(calldatasize, 0x04))\n      shr(0xe0, calldataload(0x00))\n      dup1\n      0xf55d9d\n      eq\n      tag_3\n      jumpi\n      dup1\n      0x06fdde03\n      eq\n      tag_4\n      jumpi\n      dup1\n      0x27e235e3\n      eq\n      tag_5\n      jumpi\n      dup1\n      0xa9059cbb\n      eq\n      tag_6\n      jumpi\n      jump(tag_2)\n    tag_1:\n      jumpi(tag_2, calldatasize)\n        /* \"test12.sol\":401:403  10 */\n      0x0a\n        /* \"test12.sol\":389:398  msg.value */\n      callvalue\n        /* \"test12.sol\":389:403  msg.value * 10 */\n      tag_9\n      swap2\n      swap1\n      tag_10\n      jump\t// in\n    tag_9:\n        /* \"test12.sol\":366:374  balances */\n      0x01\n        /* \"test12.sol\":366:386  balances[msg.sender] */\n      0x00\n        /* \"test12.sol\":375:385  msg.sender */\n      caller\n        /* \"test12.sol\":366:386  balances[msg.sender] */\n      0xffffffffffffffffffffffffffffffffffffffff\n      and\n      0xffffffffffffffffffffffffffffffffffffffff\n      and\n      dup2\n      mstore\n      0x20\n      add\n      swap1\n      dup2\n      mstore\n      0x20\n      add\n      0x00\n      keccak256\n        /* \"test12.sol\":366:403  balances[msg.sender] = msg.value * 10 */\n      dup2\n      swap1\n      sstore\n      stop\n        /* \"test12.sol\":0:790  contract SimpleToken {... */\n    tag_2:\n      0x00\n      dup1\n      revert\n        /* \"test12.sol\":706:787  function destroy(address payable _to) public {... */\n    tag_3:\n      callvalue\n      dup1\n      iszero\n      tag_11\n      jumpi\n      0x00\n      dup1\n      revert\n    tag_11:\n      pop\n      tag_12\n      0x04\n      dup1\n      calldatasize\n      sub\n      dup2\n      add\n      swap1\n      tag_13\n      swap2\n      swap1\n      tag_14\n      jump\t// in\n    tag_13:\n      tag_15\n      jump\t// in\n    tag_12:\n      stop\n        /* \"test12.sol\":28:46  string public name */\n    tag_4:\n      callvalue\n      dup1\n      iszero\n      tag_16\n      jumpi\n      0x00\n      dup1\n      revert\n    tag_16:\n      pop\n      tag_17\n      tag_18\n      jump\t// in\n    tag_17:\n      mload(0x40)\n      tag_19\n      swap2\n      swap1\n      tag_20\n      jump\t// in\n    tag_19:\n      mload(0x40)\n      dup1\n      swap2\n      sub\n      swap1\n      return\n        /* \"test12.sol\":53:96  mapping(address => uint256) public balances */\n    tag_5:\n      callvalue\n      dup1\n      iszero\n      tag_21\n      jumpi\n      0x00\n      dup1\n      revert\n    tag_21:\n      pop\n      tag_22\n      0x04\n      dup1\n      calldatasize\n      sub\n      dup2\n      add\n      swap1\n      tag_23\n      swap2\n      swap1\n      tag_24\n      jump\t// in\n    tag_23:\n      tag_25\n      jump\t// in\n    tag_22:\n      mload(0x40)\n      tag_26\n      swap2\n      swap1\n      tag_27\n      jump\t// in\n    tag_26:\n      mload(0x40)\n      dup1\n      swap2\n      sub\n      swap1\n      return\n        /* \"test12.sol\":453:665  function transfer(address _to, uint256 _amount) public {... */\n    tag_6:\n      callvalue\n      dup1\n      iszero\n      tag_28\n      jumpi\n      0x00\n      dup1\n      revert\n    tag_28:\n      pop\n      tag_29\n      0x04\n      dup1\n      calldatasize\n      sub\n      dup2\n      add\n      swap1\n      tag_30\n      swap2\n      swap1\n      tag_31\n      jump\t// in\n    tag_30:\n      tag_32\n      jump\t// in\n    tag_29:\n      stop\n        /* \"test12.sol\":706:787  function destroy(address payable _to) public {... */\n    tag_15:\n        /* \"test12.sol\":775:778  _to */\n      dup1\n        /* \"test12.sol\":762:779  selfdestruct(_to) */\n      0xffffffffffffffffffffffffffffffffffffffff\n      and\n      selfdestruct\n        /* \"test12.sol\":28:46  string public name */\n    tag_18:\n      0x00\n      dup1\n      sload\n      tag_34\n      swap1\n      tag_35\n      jump\t// in\n    tag_34:\n      dup1\n      0x1f\n      add\n      0x20\n      dup1\n      swap2\n      div\n      mul\n      0x20\n      add\n      mload(0x40)\n      swap1\n      dup2\n      add\n      0x40\n      mstore\n      dup1\n      swap3\n      swap2\n      swap1\n      dup2\n      dup2\n      mstore\n      0x20\n      add\n      dup3\n      dup1\n      sload\n      tag_36\n      swap1\n      tag_35\n      jump\t// in\n    tag_36:\n      dup1\n      iszero\n      tag_37\n      jumpi\n      dup1\n      0x1f\n      lt\n      tag_38\n      jumpi\n      0x0100\n      dup1\n      dup4\n      sload\n      div\n      mul\n      dup4\n      mstore\n      swap2\n      0x20\n      add\n      swap2\n      jump(tag_37)\n    tag_38:\n      dup3\n      add\n      swap2\n      swap1\n      0x00\n      mstore\n      keccak256(0x00, 0x20)\n      swap1\n    tag_39:\n      dup2\n      sload\n      dup2\n      mstore\n      swap1\n      0x01\n      add\n      swap1\n      0x20\n      add\n      dup1\n      dup4\n      gt\n      tag_39\n      jumpi\n      dup3\n      swap1\n      sub\n      0x1f\n      and\n      dup3\n      add\n      swap2\n    tag_37:\n      pop\n      pop\n      pop\n      pop\n      pop\n      dup2\n      jump\t// out\n        /* \"test12.sol\":53:96  mapping(address => uint256) public balances */\n    tag_25:\n      mstore(0x20, 0x01)\n      dup1\n      0x00\n      mstore\n      keccak256(0x00, 0x40)\n      0x00\n      swap2\n      pop\n      swap1\n      pop\n      sload\n      dup2\n      jump\t// out\n        /* \"test12.sol\":453:665  function transfer(address _to, uint256 _amount) public {... */\n    tag_32:\n        /* \"test12.sol\":551:558  _amount */\n      dup1\n        /* \"test12.sol\":527:535  balances */\n      0x01\n        /* \"test12.sol\":527:547  balances[msg.sender] */\n      0x00\n        /* \"test12.sol\":536:546  msg.sender */\n      caller\n        /* \"test12.sol\":527:547  balances[msg.sender] */\n      0xffffffffffffffffffffffffffffffffffffffff\n      and\n      0xffffffffffffffffffffffffffffffffffffffff\n      and\n      dup2\n      mstore\n      0x20\n      add\n      swap1\n      dup2\n      mstore\n      0x20\n      add\n      0x00\n      keccak256\n      sload\n        /* \"test12.sol\":527:558  balances[msg.sender] >= _amount */\n      lt\n      iszero\n        /* \"test12.sol\":519:559  require(balances[msg.sender] >= _amount) */\n      tag_41\n      jumpi\n      0x00\n      dup1\n      revert\n    tag_41:\n        /* \"test12.sol\":616:623  _amount */\n      dup1\n        /* \"test12.sol\":593:601  balances */\n      0x01\n        /* \"test12.sol\":593:613  balances[msg.sender] */\n      0x00\n        /* \"test12.sol\":602:612  msg.sender */\n      caller\n        /* \"test12.sol\":593:613  balances[msg.sender] */\n      0xffffffffffffffffffffffffffffffffffffffff\n      and\n      0xffffffffffffffffffffffffffffffffffffffff\n      and\n      dup2\n      mstore\n      0x20\n      add\n      swap1\n      dup2\n      mstore\n      0x20\n      add\n      0x00\n      keccak256\n      sload\n        /* \"test12.sol\":593:623  balances[msg.sender] - _amount */\n      tag_42\n      swap2\n      swap1\n      tag_43\n      jump\t// in\n    tag_42:\n        /* \"test12.sol\":570:578  balances */\n      0x01\n        /* \"test12.sol\":570:590  balances[msg.sender] */\n      0x00\n        /* \"test12.sol\":579:589  msg.sender */\n      caller\n        /* \"test12.sol\":570:590  balances[msg.sender] */\n      0xffffffffffffffffffffffffffffffffffffffff\n      and\n      0xffffffffffffffffffffffffffffffffffffffff\n      and\n      dup2\n      mstore\n      0x20\n      add\n      swap1\n      dup2\n      mstore\n      0x20\n      add\n      0x00\n      keccak256\n        /* \"test12.sol\":570:623  balances[msg.sender] = balances[msg.sender] - _amount */\n      dup2\n      swap1\n      sstore\n      pop\n        /* \"test12.sol\":650:657  _amount */\n      dup1\n        /* \"test12.sol\":634:642  balances */\n      0x01\n        /* \"test12.sol\":634:647  balances[_to] */\n      0x00\n        /* \"test12.sol\":643:646  _to */\n      dup5\n        /* \"test12.sol\":634:647  balances[_to] */\n      0xffffffffffffffffffffffffffffffffffffffff\n      and\n      0xffffffffffffffffffffffffffffffffffffffff\n      and\n      dup2\n      mstore\n      0x20\n      add\n      swap1\n      dup2\n      mstore\n      0x20\n      add\n      0x00\n      keccak256\n        /* \"test12.sol\":634:657  balances[_to] = _amount */\n      dup2\n      swap1\n      sstore\n      pop\n        /* \"test12.sol\":453:665  function transfer(address _to, uint256 _amount) public {... */\n      pop\n      pop\n      jump\t// out\n        /* \"#utility.yul\":7:84   */\n    tag_44:\n        /* \"#utility.yul\":44:51   */\n      0x00\n        /* \"#utility.yul\":73:78   */\n      dup2\n        /* \"#utility.yul\":62:78   */\n      swap1\n      pop\n        /* \"#utility.yul\":7:84   */\n      swap2\n      swap1\n      pop\n      jump\t// out\n        /* \"#utility.yul\":90:270   */\n    tag_45:\n        /* \"#utility.yul\":138:215   */\n      0x4e487b7100000000000000000000000000000000000000000000000000000000\n        /* \"#utility.yul\":135:136   */\n      0x00\n        /* \"#utility.yul\":128:216   */\n      mstore\n        /* \"#utility.yul\":235:239   */\n      0x11\n        /* \"#utility.yul\":232:233   */\n      0x04\n        /* \"#utility.yul\":225:240   */\n      mstore\n        /* \"#utility.yul\":259:263   */\n      0x24\n        /* \"#utility.yul\":256:257   */\n      0x00\n        /* \"#utility.yul\":249:264   */\n      revert\n        /* \"#utility.yul\":276:686   */\n    tag_10:\n        /* \"#utility.yul\":316:323   */\n      0x00\n        /* \"#utility.yul\":339:359   */\n      tag_69\n        /* \"#utility.yul\":357:358   */\n      dup3\n        /* \"#utility.yul\":339:359   */\n      tag_44\n      jump\t// in\n    tag_69:\n        /* \"#utility.yul\":334:359   */\n      swap2\n      pop\n        /* \"#utility.yul\":373:393   */\n      tag_70\n        /* \"#utility.yul\":391:392   */\n      dup4\n        /* \"#utility.yul\":373:393   */\n      tag_44\n      jump\t// in\n    tag_70:\n        /* \"#utility.yul\":368:393   */\n      swap3\n      pop\n        /* \"#utility.yul\":428:429   */\n      dup3\n        /* \"#utility.yul\":425:426   */\n      dup3\n        /* \"#utility.yul\":421:430   */\n      mul\n        /* \"#utility.yul\":450:480   */\n      tag_71\n        /* \"#utility.yul\":468:479   */\n      dup2\n        /* \"#utility.yul\":450:480   */\n      tag_44\n      jump\t// in\n    tag_71:\n        /* \"#utility.yul\":439:480   */\n      swap2\n      pop\n        /* \"#utility.yul\":629:630   */\n      dup3\n        /* \"#utility.yul\":620:627   */\n      dup3\n        /* \"#utility.yul\":616:631   */\n      div\n        /* \"#utility.yul\":613:614   */\n      dup5\n        /* \"#utility.yul\":610:632   */\n      eq\n        /* \"#utility.yul\":590:591   */\n      dup4\n        /* \"#utility.yul\":583:592   */\n      iszero\n        /* \"#utility.yul\":563:646   */\n      or\n        /* \"#utility.yul\":540:679   */\n      tag_72\n      jumpi\n        /* \"#utility.yul\":659:677   */\n      tag_73\n      tag_45\n      jump\t// in\n    tag_73:\n        /* \"#utility.yul\":540:679   */\n    tag_72:\n        /* \"#utility.yul\":324:686   */\n      pop\n        /* \"#utility.yul\":276:686   */\n      swap3\n      swap2\n      pop\n      pop\n      jump\t// out\n        /* \"#utility.yul\":773:890   */\n    tag_47:\n        /* \"#utility.yul\":882:883   */\n      0x00\n        /* \"#utility.yul\":879:880   */\n      dup1\n        /* \"#utility.yul\":872:884   */\n      revert\n        /* \"#utility.yul\":1019:1145   */\n    tag_49:\n        /* \"#utility.yul\":1056:1063   */\n      0x00\n        /* \"#utility.yul\":1096:1138   */\n      0xffffffffffffffffffffffffffffffffffffffff\n        /* \"#utility.yul\":1089:1094   */\n      dup3\n        /* \"#utility.yul\":1085:1139   */\n      and\n        /* \"#utility.yul\":1074:1139   */\n      swap1\n      pop\n        /* \"#utility.yul\":1019:1145   */\n      swap2\n      swap1\n      pop\n      jump\t// out\n        /* \"#utility.yul\":1151:1255   */\n    tag_50:\n        /* \"#utility.yul\":1196:1203   */\n      0x00\n        /* \"#utility.yul\":1225:1249   */\n      tag_79\n        /* \"#utility.yul\":1243:1248   */\n      dup3\n        /* \"#utility.yul\":1225:1249   */\n      tag_49\n      jump\t// in\n    tag_79:\n        /* \"#utility.yul\":1214:1249   */\n      swap1\n      pop\n        /* \"#utility.yul\":1151:1255   */\n      swap2\n      swap1\n      pop\n      jump\t// out\n        /* \"#utility.yul\":1261:1399   */\n    tag_51:\n        /* \"#utility.yul\":1342:1374   */\n      tag_81\n        /* \"#utility.yul\":1368:1373   */\n      dup2\n        /* \"#utility.yul\":1342:1374   */\n      tag_50\n      jump\t// in\n    tag_81:\n        /* \"#utility.yul\":1335:1340   */\n      dup2\n        /* \"#utility.yul\":1332:1375   */\n      eq\n        /* \"#utility.yul\":1322:1393   */\n      tag_82\n      jumpi\n        /* \"#utility.yul\":1389:1390   */\n      0x00\n        /* \"#utility.yul\":1386:1387   */\n      dup1\n        /* \"#utility.yul\":1379:1391   */\n      revert\n        /* \"#utility.yul\":1322:1393   */\n    tag_82:\n        /* \"#utility.yul\":1261:1399   */\n      pop\n      jump\t// out\n        /* \"#utility.yul\":1405:1560   */\n    tag_52:\n        /* \"#utility.yul\":1459:1464   */\n      0x00\n        /* \"#utility.yul\":1497:1503   */\n      dup2\n        /* \"#utility.yul\":1484:1504   */\n      calldataload\n        /* \"#utility.yul\":1475:1504   */\n      swap1\n      pop\n        /* \"#utility.yul\":1513:1554   */\n      tag_84\n        /* \"#utility.yul\":1548:1553   */\n      dup2\n        /* \"#utility.yul\":1513:1554   */\n      tag_51\n      jump\t// in\n    tag_84:\n        /* \"#utility.yul\":1405:1560   */\n      swap3\n      swap2\n      pop\n      pop\n      jump\t// out\n        /* \"#utility.yul\":1566:1911   */\n    tag_14:\n        /* \"#utility.yul\":1633:1639   */\n      0x00\n        /* \"#utility.yul\":1682:1684   */\n      0x20\n        /* \"#utility.yul\":1670:1679   */\n      dup3\n        /* \"#utility.yul\":1661:1668   */\n      dup5\n        /* \"#utility.yul\":1657:1680   */\n      sub\n        /* \"#utility.yul\":1653:1685   */\n      slt\n        /* \"#utility.yul\":1650:1769   */\n      iszero\n      tag_86\n      jumpi\n        /* \"#utility.yul\":1688:1767   */\n      tag_87\n      tag_47\n      jump\t// in\n    tag_87:\n        /* \"#utility.yul\":1650:1769   */\n    tag_86:\n        /* \"#utility.yul\":1808:1809   */\n      0x00\n        /* \"#utility.yul\":1833:1894   */\n      tag_88\n        /* \"#utility.yul\":1886:1893   */\n      dup5\n        /* \"#utility.yul\":1877:1883   */\n      dup3\n        /* \"#utility.yul\":1866:1875   */\n      dup6\n        /* \"#utility.yul\":1862:1884   */\n      add\n        /* \"#utility.yul\":1833:1894   */\n      tag_52\n      jump\t// in\n    tag_88:\n        /* \"#utility.yul\":1823:1894   */\n      swap2\n      pop\n        /* \"#utility.yul\":1779:1904   */\n      pop\n        /* \"#utility.yul\":1566:1911   */\n      swap3\n      swap2\n      pop\n      pop\n      jump\t// out\n        /* \"#utility.yul\":1917:2016   */\n    tag_53:\n        /* \"#utility.yul\":1969:1975   */\n      0x00\n        /* \"#utility.yul\":2003:2008   */\n      dup2\n        /* \"#utility.yul\":1997:2009   */\n      mload\n        /* \"#utility.yul\":1987:2009   */\n      swap1\n      pop\n        /* \"#utility.yul\":1917:2016   */\n      swap2\n      swap1\n      pop\n      jump\t// out\n        /* \"#utility.yul\":2022:2191   */\n    tag_54:\n        /* \"#utility.yul\":2106:2117   */\n      0x00\n        /* \"#utility.yul\":2140:2146   */\n      dup3\n        /* \"#utility.yul\":2135:2138   */\n      dup3\n        /* \"#utility.yul\":2128:2147   */\n      mstore\n        /* \"#utility.yul\":2180:2184   */\n      0x20\n        /* \"#utility.yul\":2175:2178   */\n      dup3\n        /* \"#utility.yul\":2171:2185   */\n      add\n        /* \"#utility.yul\":2156:2185   */\n      swap1\n      pop\n        /* \"#utility.yul\":2022:2191   */\n      swap3\n      swap2\n      pop\n      pop\n      jump\t// out\n        /* \"#utility.yul\":2197:2443   */\n    tag_55:\n        /* \"#utility.yul\":2278:2279   */\n      0x00\n        /* \"#utility.yul\":2288:2401   */\n    tag_92:\n        /* \"#utility.yul\":2302:2308   */\n      dup4\n        /* \"#utility.yul\":2299:2300   */\n      dup2\n        /* \"#utility.yul\":2296:2309   */\n      lt\n        /* \"#utility.yul\":2288:2401   */\n      iszero\n      tag_94\n      jumpi\n        /* \"#utility.yul\":2387:2388   */\n      dup1\n        /* \"#utility.yul\":2382:2385   */\n      dup3\n        /* \"#utility.yul\":2378:2389   */\n      add\n        /* \"#utility.yul\":2372:2390   */\n      mload\n        /* \"#utility.yul\":2368:2369   */\n      dup2\n        /* \"#utility.yul\":2363:2366   */\n      dup5\n        /* \"#utility.yul\":2359:2370   */\n      add\n        /* \"#utility.yul\":2352:2391   */\n      mstore\n        /* \"#utility.yul\":2324:2326   */\n      0x20\n        /* \"#utility.yul\":2321:2322   */\n      dup2\n        /* \"#utility.yul\":2317:2327   */\n      add\n        /* \"#utility.yul\":2312:2327   */\n      swap1\n      pop\n        /* \"#utility.yul\":2288:2401   */\n      jump(tag_92)\n    tag_94:\n        /* \"#utility.yul\":2435:2436   */\n      0x00\n        /* \"#utility.yul\":2426:2432   */\n      dup5\n        /* \"#utility.yul\":2421:2424   */\n      dup5\n        /* \"#utility.yul\":2417:2433   */\n      add\n        /* \"#utility.yul\":2410:2437   */\n      mstore\n        /* \"#utility.yul\":2259:2443   */\n      pop\n        /* \"#utility.yul\":2197:2443   */\n      pop\n      pop\n      pop\n      jump\t// out\n        /* \"#utility.yul\":2449:2551   */\n    tag_56:\n        /* \"#utility.yul\":2490:2496   */\n      0x00\n        /* \"#utility.yul\":2541:2543   */\n      0x1f\n        /* \"#utility.yul\":2537:2544   */\n      not\n        /* \"#utility.yul\":2532:2534   */\n      0x1f\n        /* \"#utility.yul\":2525:2530   */\n      dup4\n        /* \"#utility.yul\":2521:2535   */\n      add\n        /* \"#utility.yul\":2517:2545   */\n      and\n        /* \"#utility.yul\":2507:2545   */\n      swap1\n      pop\n        /* \"#utility.yul\":2449:2551   */\n      swap2\n      swap1\n      pop\n      jump\t// out\n        /* \"#utility.yul\":2557:2934   */\n    tag_57:\n        /* \"#utility.yul\":2645:2648   */\n      0x00\n        /* \"#utility.yul\":2673:2712   */\n      tag_97\n        /* \"#utility.yul\":2706:2711   */\n      dup3\n        /* \"#utility.yul\":2673:2712   */\n      tag_53\n      jump\t// in\n    tag_97:\n        /* \"#utility.yul\":2728:2799   */\n      tag_98\n        /* \"#utility.yul\":2792:2798   */\n      dup2\n        /* \"#utility.yul\":2787:2790   */\n      dup6\n        /* \"#utility.yul\":2728:2799   */\n      tag_54\n      jump\t// in\n    tag_98:\n        /* \"#utility.yul\":2721:2799   */\n      swap4\n      pop\n        /* \"#utility.yul\":2808:2873   */\n      tag_99\n        /* \"#utility.yul\":2866:2872   */\n      dup2\n        /* \"#utility.yul\":2861:2864   */\n      dup6\n        /* \"#utility.yul\":2854:2858   */\n      0x20\n        /* \"#utility.yul\":2847:2852   */\n      dup7\n        /* \"#utility.yul\":2843:2859   */\n      add\n        /* \"#utility.yul\":2808:2873   */\n      tag_55\n      jump\t// in\n    tag_99:\n        /* \"#utility.yul\":2898:2927   */\n      tag_100\n        /* \"#utility.yul\":2920:2926   */\n      dup2\n        /* \"#utility.yul\":2898:2927   */\n      tag_56\n      jump\t// in\n    tag_100:\n        /* \"#utility.yul\":2893:2896   */\n      dup5\n        /* \"#utility.yul\":2889:2928   */\n      add\n        /* \"#utility.yul\":2882:2928   */\n      swap2\n      pop\n        /* \"#utility.yul\":2649:2934   */\n      pop\n        /* \"#utility.yul\":2557:2934   */\n      swap3\n      swap2\n      pop\n      pop\n      jump\t// out\n        /* \"#utility.yul\":2940:3253   */\n    tag_20:\n        /* \"#utility.yul\":3053:3057   */\n      0x00\n        /* \"#utility.yul\":3091:3093   */\n      0x20\n        /* \"#utility.yul\":3080:3089   */\n      dup3\n        /* \"#utility.yul\":3076:3094   */\n      add\n        /* \"#utility.yul\":3068:3094   */\n      swap1\n      pop\n        /* \"#utility.yul\":3140:3149   */\n      dup2\n        /* \"#utility.yul\":3134:3138   */\n      dup2\n        /* \"#utility.yul\":3130:3150   */\n      sub\n        /* \"#utility.yul\":3126:3127   */\n      0x00\n        /* \"#utility.yul\":3115:3124   */\n      dup4\n        /* \"#utility.yul\":3111:3128   */\n      add\n        /* \"#utility.yul\":3104:3151   */\n      mstore\n        /* \"#utility.yul\":3168:3246   */\n      tag_102\n        /* \"#utility.yul\":3241:3245   */\n      dup2\n        /* \"#utility.yul\":3232:3238   */\n      dup5\n        /* \"#utility.yul\":3168:3246   */\n      tag_57\n      jump\t// in\n    tag_102:\n        /* \"#utility.yul\":3160:3246   */\n      swap1\n      pop\n        /* \"#utility.yul\":2940:3253   */\n      swap3\n      swap2\n      pop\n      pop\n      jump\t// out\n        /* \"#utility.yul\":3259:3355   */\n    tag_58:\n        /* \"#utility.yul\":3296:3303   */\n      0x00\n        /* \"#utility.yul\":3325:3349   */\n      tag_104\n        /* \"#utility.yul\":3343:3348   */\n      dup3\n        /* \"#utility.yul\":3325:3349   */\n      tag_49\n      jump\t// in\n    tag_104:\n        /* \"#utility.yul\":3314:3349   */\n      swap1\n      pop\n        /* \"#utility.yul\":3259:3355   */\n      swap2\n      swap1\n      pop\n      jump\t// out\n        /* \"#utility.yul\":3361:3483   */\n    tag_59:\n        /* \"#utility.yul\":3434:3458   */\n      tag_106\n        /* \"#utility.yul\":3452:3457   */\n      dup2\n        /* \"#utility.yul\":3434:3458   */\n      tag_58\n      jump\t// in\n    tag_106:\n        /* \"#utility.yul\":3427:3432   */\n      dup2\n        /* \"#utility.yul\":3424:3459   */\n      eq\n        /* \"#utility.yul\":3414:3477   */\n      tag_107\n      jumpi\n        /* \"#utility.yul\":3473:3474   */\n      0x00\n        /* \"#utility.yul\":3470:3471   */\n      dup1\n        /* \"#utility.yul\":3463:3475   */\n      revert\n        /* \"#utility.yul\":3414:3477   */\n    tag_107:\n        /* \"#utility.yul\":3361:3483   */\n      pop\n      jump\t// out\n        /* \"#utility.yul\":3489:3628   */\n    tag_60:\n        /* \"#utility.yul\":3535:3540   */\n      0x00\n        /* \"#utility.yul\":3573:3579   */\n      dup2\n        /* \"#utility.yul\":3560:3580   */\n      calldataload\n        /* \"#utility.yul\":3551:3580   */\n      swap1\n      pop\n        /* \"#utility.yul\":3589:3622   */\n      tag_109\n        /* \"#utility.yul\":3616:3621   */\n      dup2\n        /* \"#utility.yul\":3589:3622   */\n      tag_59\n      jump\t// in\n    tag_109:\n        /* \"#utility.yul\":3489:3628   */\n      swap3\n      swap2\n      pop\n      pop\n      jump\t// out\n        /* \"#utility.yul\":3634:3963   */\n    tag_24:\n        /* \"#utility.yul\":3693:3699   */\n      0x00\n        /* \"#utility.yul\":3742:3744   */\n      0x20\n        /* \"#utility.yul\":3730:3739   */\n      dup3\n        /* \"#utility.yul\":3721:3728   */\n      dup5\n        /* \"#utility.yul\":3717:3740   */\n      sub\n        /* \"#utility.yul\":3713:3745   */\n      slt\n        /* \"#utility.yul\":3710:3829   */\n      iszero\n      tag_111\n      jumpi\n        /* \"#utility.yul\":3748:3827   */\n      tag_112\n      tag_47\n      jump\t// in\n    tag_112:\n        /* \"#utility.yul\":3710:3829   */\n    tag_111:\n        /* \"#utility.yul\":3868:3869   */\n      0x00\n        /* \"#utility.yul\":3893:3946   */\n      tag_113\n        /* \"#utility.yul\":3938:3945   */\n      dup5\n        /* \"#utility.yul\":3929:3935   */\n      dup3\n        /* \"#utility.yul\":3918:3927   */\n      dup6\n        /* \"#utility.yul\":3914:3936   */\n      add\n        /* \"#utility.yul\":3893:3946   */\n      tag_60\n      jump\t// in\n    tag_113:\n        /* \"#utility.yul\":3883:3946   */\n      swap2\n      pop\n        /* \"#utility.yul\":3839:3956   */\n      pop\n        /* \"#utility.yul\":3634:3963   */\n      swap3\n      swap2\n      pop\n      pop\n      jump\t// out\n        /* \"#utility.yul\":3969:4087   */\n    tag_61:\n        /* \"#utility.yul\":4056:4080   */\n      tag_115\n        /* \"#utility.yul\":4074:4079   */\n      dup2\n        /* \"#utility.yul\":4056:4080   */\n      tag_44\n      jump\t// in\n    tag_115:\n        /* \"#utility.yul\":4051:4054   */\n      dup3\n        /* \"#utility.yul\":4044:4081   */\n      mstore\n        /* \"#utility.yul\":3969:4087   */\n      pop\n      pop\n      jump\t// out\n        /* \"#utility.yul\":4093:4315   */\n    tag_27:\n        /* \"#utility.yul\":4186:4190   */\n      0x00\n        /* \"#utility.yul\":4224:4226   */\n      0x20\n        /* \"#utility.yul\":4213:4222   */\n      dup3\n        /* \"#utility.yul\":4209:4227   */\n      add\n        /* \"#utility.yul\":4201:4227   */\n      swap1\n      pop\n        /* \"#utility.yul\":4237:4308   */\n      tag_117\n        /* \"#utility.yul\":4305:4306   */\n      0x00\n        /* \"#utility.yul\":4294:4303   */\n      dup4\n        /* \"#utility.yul\":4290:4307   */\n      add\n        /* \"#utility.yul\":4281:4287   */\n      dup5\n        /* \"#utility.yul\":4237:4308   */\n      tag_61\n      jump\t// in\n    tag_117:\n        /* \"#utility.yul\":4093:4315   */\n      swap3\n      swap2\n      pop\n      pop\n      jump\t// out\n        /* \"#utility.yul\":4321:4443   */\n    tag_62:\n        /* \"#utility.yul\":4394:4418   */\n      tag_119\n        /* \"#utility.yul\":4412:4417   */\n      dup2\n        /* \"#utility.yul\":4394:4418   */\n      tag_44\n      jump\t// in\n    tag_119:\n        /* \"#utility.yul\":4387:4392   */\n      dup2\n        /* \"#utility.yul\":4384:4419   */\n      eq\n        /* \"#utility.yul\":4374:4437   */\n      tag_120\n      jumpi\n        /* \"#utility.yul\":4433:4434   */\n      0x00\n        /* \"#utility.yul\":4430:4431   */\n      dup1\n        /* \"#utility.yul\":4423:4435   */\n      revert\n        /* \"#utility.yul\":4374:4437   */\n    tag_120:\n        /* \"#utility.yul\":4321:4443   */\n      pop\n      jump\t// out\n        /* \"#utility.yul\":4449:4588   */\n    tag_63:\n        /* \"#utility.yul\":4495:4500   */\n      0x00\n        /* \"#utility.yul\":4533:4539   */\n      dup2\n        /* \"#utility.yul\":4520:4540   */\n      calldataload\n        /* \"#utility.yul\":4511:4540   */\n      swap1\n      pop\n        /* \"#utility.yul\":4549:4582   */\n      tag_122\n        /* \"#utility.yul\":4576:4581   */\n      dup2\n        /* \"#utility.yul\":4549:4582   */\n      tag_62\n      jump\t// in\n    tag_122:\n        /* \"#utility.yul\":4449:4588   */\n      swap3\n      swap2\n      pop\n      pop\n      jump\t// out\n        /* \"#utility.yul\":4594:5068   */\n    tag_31:\n        /* \"#utility.yul\":4662:4668   */\n      0x00\n        /* \"#utility.yul\":4670:4676   */\n      dup1\n        /* \"#utility.yul\":4719:4721   */\n      0x40\n        /* \"#utility.yul\":4707:4716   */\n      dup4\n        /* \"#utility.yul\":4698:4705   */\n      dup6\n        /* \"#utility.yul\":4694:4717   */\n      sub\n        /* \"#utility.yul\":4690:4722   */\n      slt\n        /* \"#utility.yul\":4687:4806   */\n      iszero\n      tag_124\n      jumpi\n        /* \"#utility.yul\":4725:4804   */\n      tag_125\n      tag_47\n      jump\t// in\n    tag_125:\n        /* \"#utility.yul\":4687:4806   */\n    tag_124:\n        /* \"#utility.yul\":4845:4846   */\n      0x00\n        /* \"#utility.yul\":4870:4923   */\n      tag_126\n        /* \"#utility.yul\":4915:4922   */\n      dup6\n        /* \"#utility.yul\":4906:4912   */\n      dup3\n        /* \"#utility.yul\":4895:4904   */\n      dup7\n        /* \"#utility.yul\":4891:4913   */\n      add\n        /* \"#utility.yul\":4870:4923   */\n      tag_60\n      jump\t// in\n    tag_126:\n        /* \"#utility.yul\":4860:4923   */\n      swap3\n      pop\n        /* \"#utility.yul\":4816:4933   */\n      pop\n        /* \"#utility.yul\":4972:4974   */\n      0x20\n        /* \"#utility.yul\":4998:5051   */\n      tag_127\n        /* \"#utility.yul\":5043:5050   */\n      dup6\n        /* \"#utility.yul\":5034:5040   */\n      dup3\n        /* \"#utility.yul\":5023:5032   */\n      dup7\n        /* \"#utility.yul\":5019:5041   */\n      add\n        /* \"#utility.yul\":4998:5051   */\n      tag_63\n      jump\t// in\n    tag_127:\n        /* \"#utility.yul\":4988:5051   */\n      swap2\n      pop\n        /* \"#utility.yul\":4943:5061   */\n      pop\n        /* \"#utility.yul\":4594:5068   */\n      swap3\n      pop\n      swap3\n      swap1\n      pop\n      jump\t// out\n        /* \"#utility.yul\":5074:5254   */\n    tag_64:\n        /* \"#utility.yul\":5122:5199   */\n      0x4e487b7100000000000000000000000000000000000000000000000000000000\n        /* \"#utility.yul\":5119:5120   */\n      0x00\n        /* \"#utility.yul\":5112:5200   */\n      mstore\n        /* \"#utility.yul\":5219:5223   */\n      0x22\n        /* \"#utility.yul\":5216:5217   */\n      0x04\n        /* \"#utility.yul\":5209:5224   */\n      mstore\n        /* \"#utility.yul\":5243:5247   */\n      0x24\n        /* \"#utility.yul\":5240:5241   */\n      0x00\n        /* \"#utility.yul\":5233:5248   */\n      revert\n        /* \"#utility.yul\":5260:5580   */\n    tag_35:\n        /* \"#utility.yul\":5304:5310   */\n      0x00\n        /* \"#utility.yul\":5341:5342   */\n      0x02\n        /* \"#utility.yul\":5335:5339   */\n      dup3\n        /* \"#utility.yul\":5331:5343   */\n      div\n        /* \"#utility.yul\":5321:5343   */\n      swap1\n      pop\n        /* \"#utility.yul\":5388:5389   */\n      0x01\n        /* \"#utility.yul\":5382:5386   */\n      dup3\n        /* \"#utility.yul\":5378:5390   */\n      and\n        /* \"#utility.yul\":5409:5427   */\n      dup1\n        /* \"#utility.yul\":5399:5480   */\n      tag_130\n      jumpi\n        /* \"#utility.yul\":5465:5469   */\n      0x7f\n        /* \"#utility.yul\":5457:5463   */\n      dup3\n        /* \"#utility.yul\":5453:5470   */\n      and\n        /* \"#utility.yul\":5443:5470   */\n      swap2\n      pop\n        /* \"#utility.yul\":5399:5480   */\n    tag_130:\n        /* \"#utility.yul\":5527:5529   */\n      0x20\n        /* \"#utility.yul\":5519:5525   */\n      dup3\n        /* \"#utility.yul\":5516:5530   */\n      lt\n        /* \"#utility.yul\":5496:5514   */\n      dup2\n        /* \"#utility.yul\":5493:5531   */\n      sub\n        /* \"#utility.yul\":5490:5574   */\n      tag_131\n      jumpi\n        /* \"#utility.yul\":5546:5564   */\n      tag_132\n      tag_64\n      jump\t// in\n    tag_132:\n        /* \"#utility.yul\":5490:5574   */\n    tag_131:\n        /* \"#utility.yul\":5311:5580   */\n      pop\n        /* \"#utility.yul\":5260:5580   */\n      swap2\n      swap1\n      pop\n      jump\t// out\n        /* \"#utility.yul\":5586:5780   */\n    tag_43:\n        /* \"#utility.yul\":5626:5630   */\n      0x00\n        /* \"#utility.yul\":5646:5666   */\n      tag_134\n        /* \"#utility.yul\":5664:5665   */\n      dup3\n        /* \"#utility.yul\":5646:5666   */\n      tag_44\n      jump\t// in\n    tag_134:\n        /* \"#utility.yul\":5641:5666   */\n      swap2\n      pop\n        /* \"#utility.yul\":5680:5700   */\n      tag_135\n        /* \"#utility.yul\":5698:5699   */\n      dup4\n        /* \"#utility.yul\":5680:5700   */\n      tag_44\n      jump\t// in\n    tag_135:\n        /* \"#utility.yul\":5675:5700   */\n      swap3\n      pop\n        /* \"#utility.yul\":5724:5725   */\n      dup3\n        /* \"#utility.yul\":5721:5722   */\n      dup3\n        /* \"#utility.yul\":5717:5726   */\n      sub\n        /* \"#utility.yul\":5709:5726   */\n      swap1\n      pop\n        /* \"#utility.yul\":5748:5749   */\n      dup2\n        /* \"#utility.yul\":5742:5746   */\n      dup2\n        /* \"#utility.yul\":5739:5750   */\n      gt\n        /* \"#utility.yul\":5736:5773   */\n      iszero\n      tag_136\n      jumpi\n        /* \"#utility.yul\":5753:5771   */\n      tag_137\n      tag_45\n      jump\t// in\n    tag_137:\n        /* \"#utility.yul\":5736:5773   */\n    tag_136:\n        /* \"#utility.yul\":5586:5780   */\n      swap3\n      swap2\n      pop\n      pop\n      jump\t// out\n\n    auxdata: 0xa264697066735822122001d86aa85cda21e80018dec39962a53c0161d58dab02aa943117f4979045169c64736f6c63430008110033\n}\n",
				"bytecode": {
					"linkReferences": {},
					"object": "60806040523480156200001157600080fd5b5060405162000d3c38038062000d3c8339818101604052810190620000379190620002c9565b826000908162000048919062000585565b5080600160008473ffffffffffffffffffffffffffffffffffffffff1673ffffffffffffffffffffffffffffffffffffffff168152602001908152602001600020819055505050506200066c565b6000604051905090565b600080fd5b600080fd5b600080fd5b600080fd5b6000601f19601f8301169050919050565b7f4e487b7100000000000000000000000000000000000000000000000000000000600052604160045260246000fd5b620000ff82620000b4565b810181811067ffffffffffffffff82111715620001215762000120620000c5565b5b80604052505050565b60006200013662000096565b9050620001448282620000f4565b919050565b600067ffffffffffffffff821115620001675762000166620000c5565b5b6200017282620000b4565b9050602081019050919050565b60005b838110156200019f57808201518184015260208101905062000182565b60008484015250505050565b6000620001c2620001bc8462000149565b6200012a565b905082815260208101848484011115620001e157620001e0620000af565b5b620001ee8482856200017f565b509392505050565b600082601f8301126200020e576200020d620000aa565b5b815162000220848260208601620001ab565b91505092915050565b600073ffffffffffffffffffffffffffffffffffffffff82169050919050565b6000620002568262000229565b9050919050565b620002688162000249565b81146200027457600080fd5b50565b60008151905062000288816200025d565b92915050565b6000819050919050565b620002a3816200028e565b8114620002af57600080fd5b50565b600081519050620002c38162000298565b92915050565b600080600060608486031215620002e557620002e4620000a0565b5b600084015167ffffffffffffffff811115620003065762000305620000a5565b5b6200031486828701620001f6565b9350506020620003278682870162000277565b92505060406200033a86828701620002b2565b9150509250925092565b600081519050919050565b7f4e487b7100000000000000000000000000000000000000000000000000000000600052602260045260246000fd5b600060028204905060018216806200039757607f821691505b602082108103620003ad57620003ac6200034f565b5b50919050565b60008190508160005260206000209050919050565b60006020601f8301049050919050565b600082821b905092915050565b600060088302620004177fffffffffffffffffffffffffffffffffffffffffffffffffffffffffffffffff82620003d8565b620004238683620003d8565b95508019841693508086168417925050509392505050565b6000819050919050565b600062000466620004606200045a846200028e565b6200043b565b6200028e565b9050919050565b6000819050919050565b620004828362000445565b6200049a62000491826200046d565b848454620003e5565b825550505050565b600090565b620004b1620004a2565b620004be81848462000477565b505050565b5b81811015620004e657620004da600082620004a7565b600181019050620004c4565b5050565b601f8211156200053557620004ff81620003b3565b6200050a84620003c8565b810160208510156200051a578190505b620005326200052985620003c8565b830182620004c3565b50505b505050565b600082821c905092915050565b60006200055a600019846008026200053a565b1980831691505092915050565b600062000575838362000547565b9150826002028217905092915050565b620005908262000344565b67ffffffffffffffff811115620005ac57620005ab620000c5565b5b620005b882546200037e565b620005c5828285620004ea565b600060209050601f831160018114620005fd5760008415620005e8578287015190505b620005f4858262000567565b86555062000664565b601f1984166200060d86620003b3565b60005b82811015620006375784890151825560018201915060208501945060208101905062000610565b8683101562000657578489015162000653601f89168262000547565b8355505b6001600288020188555050505b505050505050565b6106c0806200067c6000396000f3fe6080604052600436106100425760003560e01c8062f55d9d1461009d57806306fdde03146100c657806327e235e3146100f1578063a9059cbb1461012e57610098565b3661009857600a346100549190610371565b600160003373ffffffffffffffffffffffffffffffffffffffff1673ffffffffffffffffffffffffffffffffffffffff168152602001908152602001600020819055005b600080fd5b3480156100a957600080fd5b506100c460048036038101906100bf9190610416565b610157565b005b3480156100d257600080fd5b506100db610170565b6040516100e891906104d3565b60405180910390f35b3480156100fd57600080fd5b5061011860048036038101906101139190610533565b6101fe565b604051610125919061056f565b60405180910390f35b34801561013a57600080fd5b50610155600480360381019061015091906105b6565b610216565b005b8073ffffffffffffffffffffffffffffffffffffffff16ff5b6000805461017d90610625565b80601f01602080910402602001604051908101604052809291908181526020018280546101a990610625565b80156101f65780601f106101cb576101008083540402835291602001916101f6565b820191906000526020600020905b8154815290600101906020018083116101d957829003601f168201915b505050505081565b60016020528060005260406000206000915090505481565b80600160003373ffffffffffffffffffffffffffffffffffffffff1673ffffffffffffffffffffffffffffffffffffffff16815260200190815260200160002054101561026257600080fd5b80600160003373ffffffffffffffffffffffffffffffffffffffff1673ffffffffffffffffffffffffffffffffffffffff168152602001908152602001600020546102ad9190610656565b600160003373ffffffffffffffffffffffffffffffffffffffff1673ffffffffffffffffffffffffffffffffffffffff1681526020019081526020016000208190555080600160008473ffffffffffffffffffffffffffffffffffffffff1673ffffffffffffffffffffffffffffffffffffffff168152602001908152602001600020819055505050565b6000819050919050565b7f4e487b7100000000000000000000000000000000000000000000000000000000600052601160045260246000fd5b600061037c82610338565b915061038783610338565b925082820261039581610338565b915082820484148315176103ac576103ab610342565b5b5092915050565b600080fd5b600073ffffffffffffffffffffffffffffffffffffffff82169050919050565b60006103e3826103b8565b9050919050565b6103f3816103d8565b81146103fe57600080fd5b50565b600081359050610410816103ea565b92915050565b60006020828403121561042c5761042b6103b3565b5b600061043a84828501610401565b91505092915050565b600081519050919050565b600082825260208201905092915050565b60005b8381101561047d578082015181840152602081019050610462565b60008484015250505050565b6000601f19601f8301169050919050565b60006104a582610443565b6104af818561044e565b93506104bf81856020860161045f565b6104c881610489565b840191505092915050565b600060208201905081810360008301526104ed818461049a565b905092915050565b6000610500826103b8565b9050919050565b610510816104f5565b811461051b57600080fd5b50565b60008135905061052d81610507565b92915050565b600060208284031215610549576105486103b3565b5b60006105578482850161051e565b91505092915050565b61056981610338565b82525050565b60006020820190506105846000830184610560565b92915050565b61059381610338565b811461059e57600080fd5b50565b6000813590506105b08161058a565b92915050565b600080604083850312156105cd576105cc6103b3565b5b60006105db8582860161051e565b92505060206105ec858286016105a1565b9150509250929050565b7f4e487b7100000000000000000000000000000000000000000000000000000000600052602260045260246000fd5b6000600282049050600182168061063d57607f821691505b6020821081036106505761064f6105f6565b5b50919050565b600061066182610338565b915061066c83610338565b925082820390508181111561068457610683610342565b5b9291505056fea264697066735822122001d86aa85cda21e80018dec39962a53c0161d58dab02aa943117f4979045169c64736f6c63430008110033",
					"opcodes": "PUSH1 0x80 PUSH1 0x40 MSTORE CALLVALUE DUP1 ISZERO PUSH3 0x11 JUMPI PUSH1 0x0 DUP1 REVERT JUMPDEST POP PUSH1 0x40 MLOAD PUSH3 0xD3C CODESIZE SUB DUP1 PUSH3 0xD3C DUP4 CODECOPY DUP2 DUP2 ADD PUSH1 0x40 MSTORE DUP2 ADD SWAP1 PUSH3 0x37 SWAP2 SWAP1 PUSH3 0x2C9 JUMP JUMPDEST DUP3 PUSH1 0x0 SWAP1 DUP2 PUSH3 0x48 SWAP2 SWAP1 PUSH3 0x585 JUMP JUMPDEST POP DUP1 PUSH1 0x1 PUSH1 0x0 DUP5 PUSH20 0xFFFFFFFFFFFFFFFFFFFFFFFFFFFFFFFFFFFFFFFF AND PUSH20 0xFFFFFFFFFFFFFFFFFFFFFFFFFFFFFFFFFFFFFFFF AND DUP2 MSTORE PUSH1 0x20 ADD SWAP1 DUP2 MSTORE PUSH1 0x20 ADD PUSH1 0x0 KECCAK256 DUP2 SWAP1 SSTORE POP POP POP POP PUSH3 0x66C JUMP JUMPDEST PUSH1 0x0 PUSH1 0x40 MLOAD SWAP1 POP SWAP1 JUMP JUMPDEST PUSH1 0x0 DUP1 REVERT JUMPDEST PUSH1 0x0 DUP1 REVERT JUMPDEST PUSH1 0x0 DUP1 REVERT JUMPDEST PUSH1 0x0 DUP1 REVERT JUMPDEST PUSH1 0x0 PUSH1 0x1F NOT PUSH1 0x1F DUP4 ADD AND SWAP1 POP SWAP2 SWAP1 POP JUMP JUMPDEST PUSH32 0x4E487B7100000000000000000000000000000000000000000000000000000000 PUSH1 0x0 MSTORE PUSH1 0x41 PUSH1 0x4 MSTORE PUSH1 0x24 PUSH1 0x0 REVERT JUMPDEST PUSH3 0xFF DUP3 PUSH3 0xB4 JUMP JUMPDEST DUP2 ADD DUP2 DUP2 LT PUSH8 0xFFFFFFFFFFFFFFFF DUP3 GT OR ISZERO PUSH3 0x121 JUMPI PUSH3 0x120 PUSH3 0xC5 JUMP JUMPDEST JUMPDEST DUP1 PUSH1 0x40 MSTORE POP POP POP JUMP JUMPDEST PUSH1 0x0 PUSH3 0x136 PUSH3 0x96 JUMP JUMPDEST SWAP1 POP PUSH3 0x144 DUP3 DUP3 PUSH3 0xF4 JUMP JUMPDEST SWAP2 SWAP1 POP JUMP JUMPDEST PUSH1 0x0 PUSH8 0xFFFFFFFFFFFFFFFF DUP3 GT ISZERO PUSH3 0x167 JUMPI PUSH3 0x166 PUSH3 0xC5 JUMP JUMPDEST JUMPDEST PUSH3 0x172 DUP3 PUSH3 0xB4 JUMP JUMPDEST SWAP1 POP PUSH1 0x20 DUP2 ADD SWAP1 POP SWAP2 SWAP1 POP JUMP JUMPDEST PUSH1 0x0 JUMPDEST DUP4 DUP2 LT ISZERO PUSH3 0x19F JUMPI DUP1 DUP3 ADD MLOAD DUP2 DUP5 ADD MSTORE PUSH1 0x20 DUP2 ADD SWAP1 POP PUSH3 0x182 JUMP JUMPDEST PUSH1 0x0 DUP5 DUP5 ADD MSTORE POP POP POP POP JUMP JUMPDEST PUSH1 0x0 PUSH3 0x1C2 PUSH3 0x1BC DUP5 PUSH3 0x149 JUMP JUMPDEST PUSH3 0x12A JUMP JUMPDEST SWAP1 POP DUP3 DUP2 MSTORE PUSH1 0x20 DUP2 ADD DUP5 DUP5 DUP5 ADD GT ISZERO PUSH3 0x1E1 JUMPI PUSH3 0x1E0 PUSH3 0xAF JUMP JUMPDEST JUMPDEST PUSH3 0x1EE DUP5 DUP3 DUP6 PUSH3 0x17F JUMP JUMPDEST POP SWAP4 SWAP3 POP POP POP JUMP JUMPDEST PUSH1 0x0 DUP3 PUSH1 0x1F DUP4 ADD SLT PUSH3 0x20E JUMPI PUSH3 0x20D PUSH3 0xAA JUMP JUMPDEST JUMPDEST DUP2 MLOAD PUSH3 0x220 DUP5 DUP3 PUSH1 0x20 DUP7 ADD PUSH3 0x1AB JUMP JUMPDEST SWAP2 POP POP SWAP3 SWAP2 POP POP JUMP JUMPDEST PUSH1 0x0 PUSH20 0xFFFFFFFFFFFFFFFFFFFFFFFFFFFFFFFFFFFFFFFF DUP3 AND SWAP1 POP SWAP2 SWAP1 POP JUMP JUMPDEST PUSH1 0x0 PUSH3 0x256 DUP3 PUSH3 0x229 JUMP JUMPDEST SWAP1 POP SWAP2 SWAP1 POP JUMP JUMPDEST PUSH3 0x268 DUP2 PUSH3 0x249 JUMP JUMPDEST DUP2 EQ PUSH3 0x274 JUMPI PUSH1 0x0 DUP1 REVERT JUMPDEST POP JUMP JUMPDEST PUSH1 0x0 DUP2 MLOAD SWAP1 POP PUSH3 0x288 DUP2 PUSH3 0x25D JUMP JUMPDEST SWAP3 SWAP2 POP POP JUMP JUMPDEST PUSH1 0x0 DUP2 SWAP1 POP SWAP2 SWAP1 POP JUMP JUMPDEST PUSH3 0x2A3 DUP2 PUSH3 0x28E JUMP JUMPDEST DUP2 EQ PUSH3 0x2AF JUMPI PUSH1 0x0 DUP1 REVERT JUMPDEST POP JUMP JUMPDEST PUSH1 0x0 DUP2 MLOAD SWAP1 POP PUSH3 0x2C3 DUP2 PUSH3 0x298 JUMP JUMPDEST SWAP3 SWAP2 POP POP JUMP JUMPDEST PUSH1 0x0 DUP1 PUSH1 0x0 PUSH1 0x60 DUP5 DUP7 SUB SLT ISZERO PUSH3 0x2E5 JUMPI PUSH3 0x2E4 PUSH3 0xA0 JUMP JUMPDEST JUMPDEST PUSH1 0x0 DUP5 ADD MLOAD PUSH8 0xFFFFFFFFFFFFFFFF DUP2 GT ISZERO PUSH3 0x306 JUMPI PUSH3 0x305 PUSH3 0xA5 JUMP JUMPDEST JUMPDEST PUSH3 0x314 DUP7 DUP3 DUP8 ADD PUSH3 0x1F6 JUMP JUMPDEST SWAP4 POP POP PUSH1 0x20 PUSH3 0x327 DUP7 DUP3 DUP8 ADD PUSH3 0x277 JUMP JUMPDEST SWAP3 POP POP PUSH1 0x40 PUSH3 0x33A DUP7 DUP3 DUP8 ADD PUSH3 0x2B2 JUMP JUMPDEST SWAP2 POP POP SWAP3 POP SWAP3 POP SWAP3 JUMP JUMPDEST PUSH1 0x0 DUP2 MLOAD SWAP1 POP SWAP2 SWAP1 POP JUMP JUMPDEST PUSH32 0x4E487B7100000000000000000000000000000000000000000000000000000000 PUSH1 0x0 MSTORE PUSH1 0x22 PUSH1 0x4 MSTORE PUSH1 0x24 PUSH1 0x0 REVERT JUMPDEST PUSH1 0x0 PUSH1 0x2 DUP3 DIV SWAP1 POP PUSH1 0x1 DUP3 AND DUP1 PUSH3 0x397 JUMPI PUSH1 0x7F DUP3 AND SWAP2 POP JUMPDEST PUSH1 0x20 DUP3 LT DUP2 SUB PUSH3 0x3AD JUMPI PUSH3 0x3AC PUSH3 0x34F JUMP JUMPDEST JUMPDEST POP SWAP2 SWAP1 POP JUMP JUMPDEST PUSH1 0x0 DUP2 SWAP1 POP DUP2 PUSH1 0x0 MSTORE PUSH1 0x20 PUSH1 0x0 KECCAK256 SWAP1 POP SWAP2 SWAP1 POP JUMP JUMPDEST PUSH1 0x0 PUSH1 0x20 PUSH1 0x1F DUP4 ADD DIV SWAP1 POP SWAP2 SWAP1 POP JUMP JUMPDEST PUSH1 0x0 DUP3 DUP3 SHL SWAP1 POP SWAP3 SWAP2 POP POP JUMP JUMPDEST PUSH1 0x0 PUSH1 0x8 DUP4 MUL PUSH3 0x417 PUSH32 0xFFFFFFFFFFFFFFFFFFFFFFFFFFFFFFFFFFFFFFFFFFFFFFFFFFFFFFFFFFFFFFFF DUP3 PUSH3 0x3D8 JUMP JUMPDEST PUSH3 0x423 DUP7 DUP4 PUSH3 0x3D8 JUMP JUMPDEST SWAP6 POP DUP1 NOT DUP5 AND SWAP4 POP DUP1 DUP7 AND DUP5 OR SWAP3 POP POP POP SWAP4 SWAP3 POP POP POP JUMP JUMPDEST PUSH1 0x0 DUP2 SWAP1 POP SWAP2 SWAP1 POP JUMP JUMPDEST PUSH1 0x0 PUSH3 0x466 PUSH3 0x460 PUSH3 0x45A DUP5 PUSH3 0x28E JUMP JUMPDEST PUSH3 0x43B JUMP JUMPDEST PUSH3 0x28E JUMP JUMPDEST SWAP1 POP SWAP2 SWAP1 POP JUMP JUMPDEST PUSH1 0x0 DUP2 SWAP1 POP SWAP2 SWAP1 POP JUMP JUMPDEST PUSH3 0x482 DUP4 PUSH3 0x445 JUMP JUMPDEST PUSH3 0x49A PUSH3 0x491 DUP3 PUSH3 0x46D JUMP JUMPDEST DUP5 DUP5 SLOAD PUSH3 0x3E5 JUMP JUMPDEST DUP3 SSTORE POP POP POP POP JUMP JUMPDEST PUSH1 0x0 SWAP1 JUMP JUMPDEST PUSH3 0x4B1 PUSH3 0x4A2 JUMP JUMPDEST PUSH3 0x4BE DUP2 DUP5 DUP5 PUSH3 0x477 JUMP JUMPDEST POP POP POP JUMP JUMPDEST JUMPDEST DUP2 DUP2 LT ISZERO PUSH3 0x4E6 JUMPI PUSH3 0x4DA PUSH1 0x0 DUP3 PUSH3 0x4A7 JUMP JUMPDEST PUSH1 0x1 DUP2 ADD SWAP1 POP PUSH3 0x4C4 JUMP JUMPDEST POP POP JUMP JUMPDEST PUSH1 0x1F DUP3 GT ISZERO PUSH3 0x535 JUMPI PUSH3 0x4FF DUP2 PUSH3 0x3B3 JUMP JUMPDEST PUSH3 0x50A DUP5 PUSH3 0x3C8 JUMP JUMPDEST DUP2 ADD PUSH1 0x20 DUP6 LT ISZERO PUSH3 0x51A JUMPI DUP2 SWAP1 POP JUMPDEST PUSH3 0x532 PUSH3 0x529 DUP6 PUSH3 0x3C8 JUMP JUMPDEST DUP4 ADD DUP3 PUSH3 0x4C3 JUMP JUMPDEST POP POP JUMPDEST POP POP POP JUMP JUMPDEST PUSH1 0x0 DUP3 DUP3 SHR SWAP1 POP SWAP3 SWAP2 POP POP JUMP JUMPDEST PUSH1 0x0 PUSH3 0x55A PUSH1 0x0 NOT DUP5 PUSH1 0x8 MUL PUSH3 0x53A JUMP JUMPDEST NOT DUP1 DUP4 AND SWAP2 POP POP SWAP3 SWAP2 POP POP JUMP JUMPDEST PUSH1 0x0 PUSH3 0x575 DUP4 DUP4 PUSH3 0x547 JUMP JUMPDEST SWAP2 POP DUP3 PUSH1 0x2 MUL DUP3 OR SWAP1 POP SWAP3 SWAP2 POP POP JUMP JUMPDEST PUSH3 0x590 DUP3 PUSH3 0x344 JUMP JUMPDEST PUSH8 0xFFFFFFFFFFFFFFFF DUP2 GT ISZERO PUSH3 0x5AC JUMPI PUSH3 0x5AB PUSH3 0xC5 JUMP JUMPDEST JUMPDEST PUSH3 0x5B8 DUP3 SLOAD PUSH3 0x37E JUMP JUMPDEST PUSH3 0x5C5 DUP3 DUP3 DUP6 PUSH3 0x4EA JUMP JUMPDEST PUSH1 0x0 PUSH1 0x20 SWAP1 POP PUSH1 0x1F DUP4 GT PUSH1 0x1 DUP2 EQ PUSH3 0x5FD JUMPI PUSH1 0x0 DUP5 ISZERO PUSH3 0x5E8 JUMPI DUP3 DUP8 ADD MLOAD SWAP1 POP JUMPDEST PUSH3 0x5F4 DUP6 DUP3 PUSH3 0x567 JUMP JUMPDEST DUP7 SSTORE POP PUSH3 0x664 JUMP JUMPDEST PUSH1 0x1F NOT DUP5 AND PUSH3 0x60D DUP7 PUSH3 0x3B3 JUMP JUMPDEST PUSH1 0x0 JUMPDEST DUP3 DUP2 LT ISZERO PUSH3 0x637 JUMPI DUP5 DUP10 ADD MLOAD DUP3 SSTORE PUSH1 0x1 DUP3 ADD SWAP2 POP PUSH1 0x20 DUP6 ADD SWAP5 POP PUSH1 0x20 DUP2 ADD SWAP1 POP PUSH3 0x610 JUMP JUMPDEST DUP7 DUP4 LT ISZERO PUSH3 0x657 JUMPI DUP5 DUP10 ADD MLOAD PUSH3 0x653 PUSH1 0x1F DUP10 AND DUP3 PUSH3 0x547 JUMP JUMPDEST DUP4 SSTORE POP JUMPDEST PUSH1 0x1 PUSH1 0x2 DUP9 MUL ADD DUP9 SSTORE POP POP POP JUMPDEST POP POP POP POP POP POP JUMP JUMPDEST PUSH2 0x6C0 DUP1 PUSH3 0x67C PUSH1 0x0 CODECOPY PUSH1 0x0 RETURN INVALID PUSH1 0x80 PUSH1 0x40 MSTORE PUSH1 0x4 CALLDATASIZE LT PUSH2 0x42 JUMPI PUSH1 0x0 CALLDATALOAD PUSH1 0xE0 SHR DUP1 PUSH3 0xF55D9D EQ PUSH2 0x9D JUMPI DUP1 PUSH4 0x6FDDE03 EQ PUSH2 0xC6 JUMPI DUP1 PUSH4 0x27E235E3 EQ PUSH2 0xF1 JUMPI DUP1 PUSH4 0xA9059CBB EQ PUSH2 0x12E JUMPI PUSH2 0x98 JUMP JUMPDEST CALLDATASIZE PUSH2 0x98 JUMPI PUSH1 0xA CALLVALUE PUSH2 0x54 SWAP2 SWAP1 PUSH2 0x371 JUMP JUMPDEST PUSH1 0x1 PUSH1 0x0 CALLER PUSH20 0xFFFFFFFFFFFFFFFFFFFFFFFFFFFFFFFFFFFFFFFF AND PUSH20 0xFFFFFFFFFFFFFFFFFFFFFFFFFFFFFFFFFFFFFFFF AND DUP2 MSTORE PUSH1 0x20 ADD SWAP1 DUP2 MSTORE PUSH1 0x20 ADD PUSH1 0x0 KECCAK256 DUP2 SWAP1 SSTORE STOP JUMPDEST PUSH1 0x0 DUP1 REVERT JUMPDEST CALLVALUE DUP1 ISZERO PUSH2 0xA9 JUMPI PUSH1 0x0 DUP1 REVERT JUMPDEST POP PUSH2 0xC4 PUSH1 0x4 DUP1 CALLDATASIZE SUB DUP2 ADD SWAP1 PUSH2 0xBF SWAP2 SWAP1 PUSH2 0x416 JUMP JUMPDEST PUSH2 0x157 JUMP JUMPDEST STOP JUMPDEST CALLVALUE DUP1 ISZERO PUSH2 0xD2 JUMPI PUSH1 0x0 DUP1 REVERT JUMPDEST POP PUSH2 0xDB PUSH2 0x170 JUMP JUMPDEST PUSH1 0x40 MLOAD PUSH2 0xE8 SWAP2 SWAP1 PUSH2 0x4D3 JUMP JUMPDEST PUSH1 0x40 MLOAD DUP1 SWAP2 SUB SWAP1 RETURN JUMPDEST CALLVALUE DUP1 ISZERO PUSH2 0xFD JUMPI PUSH1 0x0 DUP1 REVERT JUMPDEST POP PUSH2 0x118 PUSH1 0x4 DUP1 CALLDATASIZE SUB DUP2 ADD SWAP1 PUSH2 0x113 SWAP2 SWAP1 PUSH2 0x533 JUMP JUMPDEST PUSH2 0x1FE JUMP JUMPDEST PUSH1 0x40 MLOAD PUSH2 0x125 SWAP2 SWAP1 PUSH2 0x56F JUMP JUMPDEST PUSH1 0x40 MLOAD DUP1 SWAP2 SUB SWAP1 RETURN JUMPDEST CALLVALUE DUP1 ISZERO PUSH2 0x13A JUMPI PUSH1 0x0 DUP1 REVERT JUMPDEST POP PUSH2 0x155 PUSH1 0x4 DUP1 CALLDATASIZE SUB DUP2 ADD SWAP1 PUSH2 0x150 SWAP2 SWAP1 PUSH2 0x5B6 JUMP JUMPDEST PUSH2 0x216 JUMP JUMPDEST STOP JUMPDEST DUP1 PUSH20 0xFFFFFFFFFFFFFFFFFFFFFFFFFFFFFFFFFFFFFFFF AND SELFDESTRUCT JUMPDEST PUSH1 0x0 DUP1 SLOAD PUSH2 0x17D SWAP1 PUSH2 0x625 JUMP JUMPDEST DUP1 PUSH1 0x1F ADD PUSH1 0x20 DUP1 SWAP2 DIV MUL PUSH1 0x20 ADD PUSH1 0x40 MLOAD SWAP1 DUP2 ADD PUSH1 0x40 MSTORE DUP1 SWAP3 SWAP2 SWAP1 DUP2 DUP2 MSTORE PUSH1 0x20 ADD DUP3 DUP1 SLOAD PUSH2 0x1A9 SWAP1 PUSH2 0x625 JUMP JUMPDEST DUP1 ISZERO PUSH2 0x1F6 JUMPI DUP1 PUSH1 0x1F LT PUSH2 0x1CB JUMPI PUSH2 0x100 DUP1 DUP4 SLOAD DIV MUL DUP4 MSTORE SWAP2 PUSH1 0x20 ADD SWAP2 PUSH2 0x1F6 JUMP JUMPDEST DUP3 ADD SWAP2 SWAP1 PUSH1 0x0 MSTORE PUSH1 0x20 PUSH1 0x0 KECCAK256 SWAP1 JUMPDEST DUP2 SLOAD DUP2 MSTORE SWAP1 PUSH1 0x1 ADD SWAP1 PUSH1 0x20 ADD DUP1 DUP4 GT PUSH2 0x1D9 JUMPI DUP3 SWAP1 SUB PUSH1 0x1F AND DUP3 ADD SWAP2 JUMPDEST POP POP POP POP POP DUP2 JUMP JUMPDEST PUSH1 0x1 PUSH1 0x20 MSTORE DUP1 PUSH1 0x0 MSTORE PUSH1 0x40 PUSH1 0x0 KECCAK256 PUSH1 0x0 SWAP2 POP SWAP1 POP SLOAD DUP2 JUMP JUMPDEST DUP1 PUSH1 0x1 PUSH1 0x0 CALLER PUSH20 0xFFFFFFFFFFFFFFFFFFFFFFFFFFFFFFFFFFFFFFFF AND PUSH20 0xFFFFFFFFFFFFFFFFFFFFFFFFFFFFFFFFFFFFFFFF AND DUP2 MSTORE PUSH1 0x20 ADD SWAP1 DUP2 MSTORE PUSH1 0x20 ADD PUSH1 0x0 KECCAK256 SLOAD LT ISZERO PUSH2 0x262 JUMPI PUSH1 0x0 DUP1 REVERT JUMPDEST DUP1 PUSH1 0x1 PUSH1 0x0 CALLER PUSH20 0xFFFFFFFFFFFFFFFFFFFFFFFFFFFFFFFFFFFFFFFF AND PUSH20 0xFFFFFFFFFFFFFFFFFFFFFFFFFFFFFFFFFFFFFFFF AND DUP2 MSTORE PUSH1 0x20 ADD SWAP1 DUP2 MSTORE PUSH1 0x20 ADD PUSH1 0x0 KECCAK256 SLOAD PUSH2 0x2AD SWAP2 SWAP1 PUSH2 0x656 JUMP JUMPDEST PUSH1 0x1 PUSH1 0x0 CALLER PUSH20 0xFFFFFFFFFFFFFFFFFFFFFFFFFFFFFFFFFFFFFFFF AND PUSH20 0xFFFFFFFFFFFFFFFFFFFFFFFFFFFFFFFFFFFFFFFF AND DUP2 MSTORE PUSH1 0x20 ADD SWAP1 DUP2 MSTORE PUSH1 0x20 ADD PUSH1 0x0 KECCAK256 DUP2 SWAP1 SSTORE POP DUP1 PUSH1 0x1 PUSH1 0x0 DUP5 PUSH20 0xFFFFFFFFFFFFFFFFFFFFFFFFFFFFFFFFFFFFFFFF AND PUSH20 0xFFFFFFFFFFFFFFFFFFFFFFFFFFFFFFFFFFFFFFFF AND DUP2 MSTORE PUSH1 0x20 ADD SWAP1 DUP2 MSTORE PUSH1 0x20 ADD PUSH1 0x0 KECCAK256 DUP2 SWAP1 SSTORE POP POP POP JUMP JUMPDEST PUSH1 0x0 DUP2 SWAP1 POP SWAP2 SWAP1 POP JUMP JUMPDEST PUSH32 0x4E487B7100000000000000000000000000000000000000000000000000000000 PUSH1 0x0 MSTORE PUSH1 0x11 PUSH1 0x4 MSTORE PUSH1 0x24 PUSH1 0x0 REVERT JUMPDEST PUSH1 0x0 PUSH2 0x37C DUP3 PUSH2 0x338 JUMP JUMPDEST SWAP2 POP PUSH2 0x387 DUP4 PUSH2 0x338 JUMP JUMPDEST SWAP3 POP DUP3 DUP3 MUL PUSH2 0x395 DUP2 PUSH2 0x338 JUMP JUMPDEST SWAP2 POP DUP3 DUP3 DIV DUP5 EQ DUP4 ISZERO OR PUSH2 0x3AC JUMPI PUSH2 0x3AB PUSH2 0x342 JUMP JUMPDEST JUMPDEST POP SWAP3 SWAP2 POP POP JUMP JUMPDEST PUSH1 0x0 DUP1 REVERT JUMPDEST PUSH1 0x0 PUSH20 0xFFFFFFFFFFFFFFFFFFFFFFFFFFFFFFFFFFFFFFFF DUP3 AND SWAP1 POP SWAP2 SWAP1 POP JUMP JUMPDEST PUSH1 0x0 PUSH2 0x3E3 DUP3 PUSH2 0x3B8 JUMP JUMPDEST SWAP1 POP SWAP2 SWAP1 POP JUMP JUMPDEST PUSH2 0x3F3 DUP2 PUSH2 0x3D8 JUMP JUMPDEST DUP2 EQ PUSH2 0x3FE JUMPI PUSH1 0x0 DUP1 REVERT JUMPDEST POP JUMP JUMPDEST PUSH1 0x0 DUP2 CALLDATALOAD SWAP1 POP PUSH2 0x410 DUP2 PUSH2 0x3EA JUMP JUMPDEST SWAP3 SWAP2 POP POP JUMP JUMPDEST PUSH1 0x0 PUSH1 0x20 DUP3 DUP5 SUB SLT ISZERO PUSH2 0x42C JUMPI PUSH2 0x42B PUSH2 0x3B3 JUMP JUMPDEST JUMPDEST PUSH1 0x0 PUSH2 0x43A DUP5 DUP3 DUP6 ADD PUSH2 0x401 JUMP JUMPDEST SWAP2 POP POP SWAP3 SWAP2 POP POP JUMP JUMPDEST PUSH1 0x0 DUP2 MLOAD SWAP1 POP SWAP2 SWAP1 POP JUMP JUMPDEST PUSH1 0x0 DUP3 DUP3 MSTORE PUSH1 0x20 DUP3 ADD SWAP1 POP SWAP3 SWAP2 POP POP JUMP JUMPDEST PUSH1 0x0 JUMPDEST DUP4 DUP2 LT ISZERO PUSH2 0x47D JUMPI DUP1 DUP3 ADD MLOAD DUP2 DUP5 ADD MSTORE PUSH1 0x20 DUP2 ADD SWAP1 POP PUSH2 0x462 JUMP JUMPDEST PUSH1 0x0 DUP5 DUP5 ADD MSTORE POP POP POP POP JUMP JUMPDEST PUSH1 0x0 PUSH1 0x1F NOT PUSH1 0x1F DUP4 ADD AND SWAP1 POP SWAP2 SWAP1 POP JUMP JUMPDEST PUSH1 0x0 PUSH2 0x4A5 DUP3 PUSH2 0x443 JUMP JUMPDEST PUSH2 0x4AF DUP2 DUP6 PUSH2 0x44E JUMP JUMPDEST SWAP4 POP PUSH2 0x4BF DUP2 DUP6 PUSH1 0x20 DUP7 ADD PUSH2 0x45F JUMP JUMPDEST PUSH2 0x4C8 DUP2 PUSH2 0x489 JUMP JUMPDEST DUP5 ADD SWAP2 POP POP SWAP3 SWAP2 POP POP JUMP JUMPDEST PUSH1 0x0 PUSH1 0x20 DUP3 ADD SWAP1 POP DUP2 DUP2 SUB PUSH1 0x0 DUP4 ADD MSTORE PUSH2 0x4ED DUP2 DUP5 PUSH2 0x49A JUMP JUMPDEST SWAP1 POP SWAP3 SWAP2 POP POP JUMP JUMPDEST PUSH1 0x0 PUSH2 0x500 DUP3 PUSH2 0x3B8 JUMP JUMPDEST SWAP1 POP SWAP2 SWAP1 POP JUMP JUMPDEST PUSH2 0x510 DUP2 PUSH2 0x4F5 JUMP JUMPDEST DUP2 EQ PUSH2 0x51B JUMPI PUSH1 0x0 DUP1 REVERT JUMPDEST POP JUMP JUMPDEST PUSH1 0x0 DUP2 CALLDATALOAD SWAP1 POP PUSH2 0x52D DUP2 PUSH2 0x507 JUMP JUMPDEST SWAP3 SWAP2 POP POP JUMP JUMPDEST PUSH1 0x0 PUSH1 0x20 DUP3 DUP5 SUB SLT ISZERO PUSH2 0x549 JUMPI PUSH2 0x548 PUSH2 0x3B3 JUMP JUMPDEST JUMPDEST PUSH1 0x0 PUSH2 0x557 DUP5 DUP3 DUP6 ADD PUSH2 0x51E JUMP JUMPDEST SWAP2 POP POP SWAP3 SWAP2 POP POP JUMP JUMPDEST PUSH2 0x569 DUP2 PUSH2 0x338 JUMP JUMPDEST DUP3 MSTORE POP POP JUMP JUMPDEST PUSH1 0x0 PUSH1 0x20 DUP3 ADD SWAP1 POP PUSH2 0x584 PUSH1 0x0 DUP4 ADD DUP5 PUSH2 0x560 JUMP JUMPDEST SWAP3 SWAP2 POP POP JUMP JUMPDEST PUSH2 0x593 DUP2 PUSH2 0x338 JUMP JUMPDEST DUP2 EQ PUSH2 0x59E JUMPI PUSH1 0x0 DUP1 REVERT JUMPDEST POP JUMP JUMPDEST PUSH1 0x0 DUP2 CALLDATALOAD SWAP1 POP PUSH2 0x5B0 DUP2 PUSH2 0x58A JUMP JUMPDEST SWAP3 SWAP2 POP POP JUMP JUMPDEST PUSH1 0x0 DUP1 PUSH1 0x40 DUP4 DUP6 SUB SLT ISZERO PUSH2 0x5CD JUMPI PUSH2 0x5CC PUSH2 0x3B3 JUMP JUMPDEST JUMPDEST PUSH1 0x0 PUSH2 0x5DB DUP6 DUP3 DUP7 ADD PUSH2 0x51E JUMP JUMPDEST SWAP3 POP POP PUSH1 0x20 PUSH2 0x5EC DUP6 DUP3 DUP7 ADD PUSH2 0x5A1 JUMP JUMPDEST SWAP2 POP POP SWAP3 POP SWAP3 SWAP1 POP JUMP JUMPDEST PUSH32 0x4E487B7100000000000000000000000000000000000000000000000000000000 PUSH1 0x0 MSTORE PUSH1 0x22 PUSH1 0x4 MSTORE PUSH1 0x24 PUSH1 0x0 REVERT JUMPDEST PUSH1 0x0 PUSH1 0x2 DUP3 DIV SWAP1 POP PUSH1 0x1 DUP3 AND DUP1 PUSH2 0x63D JUMPI PUSH1 0x7F DUP3 AND SWAP2 POP JUMPDEST PUSH1 0x20 DUP3 LT DUP2 SUB PUSH2 0x650 JUMPI PUSH2 0x64F PUSH2 0x5F6 JUMP JUMPDEST JUMPDEST POP SWAP2 SWAP1 POP JUMP JUMPDEST PUSH1 0x0 PUSH2 0x661 DUP3 PUSH2 0x338 JUMP JUMPDEST SWAP2 POP PUSH2 0x66C DUP4 PUSH2 0x338 JUMP JUMPDEST SWAP3 POP DUP3 DUP3 SUB SWAP1 POP DUP2 DUP2 GT ISZERO PUSH2 0x684 JUMPI PUSH2 0x683 PUSH2 0x342 JUMP JUMPDEST JUMPDEST SWAP3 SWAP2 POP POP JUMP INVALID LOG2 PUSH5 0x6970667358 0x22 SLT KECCAK256 ADD 0xD8 PUSH11 0xA85CDA21E80018DEC39962 0xA5 EXTCODECOPY ADD PUSH2 0xD58D 0xAB MUL 0xAA SWAP5 BALANCE OR DELEGATECALL SWAP8 SWAP1 GASLIMIT AND SWAP13 PUSH5 0x736F6C6343 STOP ADDMOD GT STOP CALLER "
				},
				"gasEstimates": {
					"creation": {
						"codeDepositCost": "345600",
						"executionCost": "infinite",
						"totalCost": "infinite"
					},
					"external": {
						"balances(address)": "2836",
						"destroy(address)": "28031",
						"name()": "infinite",
						"transfer(address,uint256)": "infinite"
					}
				},
				"methodIdentifiers": {
					"balances(address)": "27e235e3",
					"destroy(address)": "00f55d9d",
					"name()": "06fdde03",
					"transfer(address,uint256)": "a9059cbb"
				}
			},
			"storageLayout": {
				"storage": [
					{
						"astId": 2,
						"contract": "test12.sol:SimpleToken",
						"label": "name",
						"offset": 0,
						"slot": "0",
						"type": "t_string_storage"
					},
					{
						"astId": 6,
						"contract": "test12.sol:SimpleToken",
						"label": "balances",
						"offset": 0,
						"slot": "1",
						"type": "t_mapping(t_address,t_uint256)"
					}
				],
				"types": {
					"t_address": {
						"encoding": "inplace",
						"label": "address",
						"numberOfBytes": "20"
					},
					"t_mapping(t_address,t_uint256)": {
						"encoding": "mapping",
						"key": "t_address",
						"label": "mapping(address => uint256)",
						"numberOfBytes": "32",
						"value": "t_uint256"
					},
					"t_string_storage": {
						"encoding": "bytes",
						"label": "string",
						"numberOfBytes": "32"
					},
					"t_uint256": {
						"encoding": "inplace",
						"label": "uint256",
						"numberOfBytes": "32"
					}
				}
			},
			"userdoc": {
				"kind": "user",
				"methods": {},
				"version": 1
			}
		}
	}
}