{
	"test15.sol": {
		"Attack": {
			"abi": [
				{
					"inputs": [
						{
							"internalType": "address",
							"name": "_target",
							"type": "address"
						}
					],
					"stateMutability": "nonpayable",
					"type": "constructor"
				},
				{
					"inputs": [],
					"name": "attack",
					"outputs": [],
					"stateMutability": "nonpayable",
					"type": "function"
				},
				{
					"inputs": [],
					"name": "firstCall",
					"outputs": [
						{
							"internalType": "bool",
							"name": "",
							"type": "bool"
						}
					],
					"stateMutability": "view",
					"type": "function"
				},
				{
					"inputs": [],
					"name": "price",
					"outputs": [
						{
							"internalType": "uint256",
							"name": "",
							"type": "uint256"
						}
					],
					"stateMutability": "view",
					"type": "function"
				}
			],
			"devdoc": {
				"kind": "dev",
				"methods": {},
				"version": 1
			},
			"evm": {
				"assembly": "    /* \"test15.sol\":173:572  contract Attack {... */\n  mstore(0x40, 0x80)\n    /* \"test15.sol\":307:311  true */\n  0x01\n    /* \"test15.sol\":283:311  bool public firstCall = true */\n  0x00\n  exp(0x0100, 0x14)\n  dup2\n  sload\n  dup2\n  0xff\n  mul\n  not\n  and\n  swap1\n  dup4\n  iszero\n  iszero\n  mul\n  or\n  swap1\n  sstore\n  pop\n    /* \"test15.sol\":320:397  constructor(address _target) {... */\n  callvalue\n  dup1\n  iszero\n  tag_1\n  jumpi\n  0x00\n  dup1\n  revert\ntag_1:\n  pop\n  mload(0x40)\n  sub(codesize, bytecodeSize)\n  dup1\n  bytecodeSize\n  dup4\n  codecopy\n  dup2\n  dup2\n  add\n  0x40\n  mstore\n  dup2\n  add\n  swap1\n  tag_2\n  swap2\n  swap1\n  tag_3\n  jump\t// in\ntag_2:\n    /* \"test15.sol\":381:388  _target */\n  dup1\n    /* \"test15.sol\":360:366  target */\n  0x00\n  dup1\n    /* \"test15.sol\":360:389  target = IReentrance(_target) */\n  0x0100\n  exp\n  dup2\n  sload\n  dup2\n  0xffffffffffffffffffffffffffffffffffffffff\n  mul\n  not\n  and\n  swap1\n  dup4\n  0xffffffffffffffffffffffffffffffffffffffff\n  and\n  mul\n  or\n  swap1\n  sstore\n  pop\n    /* \"test15.sol\":320:397  constructor(address _target) {... */\n  pop\n    /* \"test15.sol\":173:572  contract Attack {... */\n  jump(tag_6)\n    /* \"#utility.yul\":88:205   */\ntag_8:\n    /* \"#utility.yul\":197:198   */\n  0x00\n    /* \"#utility.yul\":194:195   */\n  dup1\n    /* \"#utility.yul\":187:199   */\n  revert\n    /* \"#utility.yul\":334:460   */\ntag_10:\n    /* \"#utility.yul\":371:378   */\n  0x00\n    /* \"#utility.yul\":411:453   */\n  0xffffffffffffffffffffffffffffffffffffffff\n    /* \"#utility.yul\":404:409   */\n  dup3\n    /* \"#utility.yul\":400:454   */\n  and\n    /* \"#utility.yul\":389:454   */\n  swap1\n  pop\n    /* \"#utility.yul\":334:460   */\n  swap2\n  swap1\n  pop\n  jump\t// out\n    /* \"#utility.yul\":466:562   */\ntag_11:\n    /* \"#utility.yul\":503:510   */\n  0x00\n    /* \"#utility.yul\":532:556   */\n  tag_20\n    /* \"#utility.yul\":550:555   */\n  dup3\n    /* \"#utility.yul\":532:556   */\n  tag_10\n  jump\t// in\ntag_20:\n    /* \"#utility.yul\":521:556   */\n  swap1\n  pop\n    /* \"#utility.yul\":466:562   */\n  swap2\n  swap1\n  pop\n  jump\t// out\n    /* \"#utility.yul\":568:690   */\ntag_12:\n    /* \"#utility.yul\":641:665   */\n  tag_22\n    /* \"#utility.yul\":659:664   */\n  dup2\n    /* \"#utility.yul\":641:665   */\n  tag_11\n  jump\t// in\ntag_22:\n    /* \"#utility.yul\":634:639   */\n  dup2\n    /* \"#utility.yul\":631:666   */\n  eq\n    /* \"#utility.yul\":621:684   */\n  tag_23\n  jumpi\n    /* \"#utility.yul\":680:681   */\n  0x00\n    /* \"#utility.yul\":677:678   */\n  dup1\n    /* \"#utility.yul\":670:682   */\n  revert\n    /* \"#utility.yul\":621:684   */\ntag_23:\n    /* \"#utility.yul\":568:690   */\n  pop\n  jump\t// out\n    /* \"#utility.yul\":696:839   */\ntag_13:\n    /* \"#utility.yul\":753:758   */\n  0x00\n    /* \"#utility.yul\":784:790   */\n  dup2\n    /* \"#utility.yul\":778:791   */\n  mload\n    /* \"#utility.yul\":769:791   */\n  swap1\n  pop\n    /* \"#utility.yul\":800:833   */\n  tag_25\n    /* \"#utility.yul\":827:832   */\n  dup2\n    /* \"#utility.yul\":800:833   */\n  tag_12\n  jump\t// in\ntag_25:\n    /* \"#utility.yul\":696:839   */\n  swap3\n  swap2\n  pop\n  pop\n  jump\t// out\n    /* \"#utility.yul\":845:1196   */\ntag_3:\n    /* \"#utility.yul\":915:921   */\n  0x00\n    /* \"#utility.yul\":964:966   */\n  0x20\n    /* \"#utility.yul\":952:961   */\n  dup3\n    /* \"#utility.yul\":943:950   */\n  dup5\n    /* \"#utility.yul\":939:962   */\n  sub\n    /* \"#utility.yul\":935:967   */\n  slt\n    /* \"#utility.yul\":932:1051   */\n  iszero\n  tag_27\n  jumpi\n    /* \"#utility.yul\":970:1049   */\n  tag_28\n  tag_8\n  jump\t// in\ntag_28:\n    /* \"#utility.yul\":932:1051   */\ntag_27:\n    /* \"#utility.yul\":1090:1091   */\n  0x00\n    /* \"#utility.yul\":1115:1179   */\n  tag_29\n    /* \"#utility.yul\":1171:1178   */\n  dup5\n    /* \"#utility.yul\":1162:1168   */\n  dup3\n    /* \"#utility.yul\":1151:1160   */\n  dup6\n    /* \"#utility.yul\":1147:1169   */\n  add\n    /* \"#utility.yul\":1115:1179   */\n  tag_13\n  jump\t// in\ntag_29:\n    /* \"#utility.yul\":1105:1179   */\n  swap2\n  pop\n    /* \"#utility.yul\":1061:1189   */\n  pop\n    /* \"#utility.yul\":845:1196   */\n  swap3\n  swap2\n  pop\n  pop\n  jump\t// out\n    /* \"test15.sol\":173:572  contract Attack {... */\ntag_6:\n  dataSize(sub_0)\n  dup1\n  dataOffset(sub_0)\n  0x00\n  codecopy\n  0x00\n  return\nstop\n\nsub_0: assembly {\n        /* \"test15.sol\":173:572  contract Attack {... */\n      mstore(0x40, 0x80)\n      callvalue\n      dup1\n      iszero\n      tag_1\n      jumpi\n      0x00\n      dup1\n      revert\n    tag_1:\n      pop\n      jumpi(tag_2, lt(calldatasize, 0x04))\n      shr(0xe0, calldataload(0x00))\n      dup1\n      0x1660d0b1\n      eq\n      tag_3\n      jumpi\n      dup1\n      0x9e5faafc\n      eq\n      tag_4\n      jumpi\n      dup1\n      0xa035b1fe\n      eq\n      tag_5\n      jumpi\n    tag_2:\n      0x00\n      dup1\n      revert\n        /* \"test15.sol\":283:311  bool public firstCall = true */\n    tag_3:\n      tag_6\n      tag_7\n      jump\t// in\n    tag_6:\n      mload(0x40)\n      tag_8\n      swap2\n      swap1\n      tag_9\n      jump\t// in\n    tag_8:\n      mload(0x40)\n      dup1\n      swap2\n      sub\n      swap1\n      return\n        /* \"test15.sol\":405:461  function attack() public {... */\n    tag_4:\n      tag_10\n      tag_11\n      jump\t// in\n    tag_10:\n      stop\n        /* \"test15.sol\":469:569  function price() external view returns (uint256) {... */\n    tag_5:\n      tag_12\n      tag_13\n      jump\t// in\n    tag_12:\n      mload(0x40)\n      tag_14\n      swap2\n      swap1\n      tag_15\n      jump\t// in\n    tag_14:\n      mload(0x40)\n      dup1\n      swap2\n      sub\n      swap1\n      return\n        /* \"test15.sol\":283:311  bool public firstCall = true */\n    tag_7:\n      0x00\n      0x14\n      swap1\n      sload\n      swap1\n      0x0100\n      exp\n      swap1\n      div\n      0xff\n      and\n      dup2\n      jump\t// out\n        /* \"test15.sol\":405:461  function attack() public {... */\n    tag_11:\n        /* \"test15.sol\":441:447  target */\n      0x00\n      dup1\n      sload\n      swap1\n      0x0100\n      exp\n      swap1\n      div\n      0xffffffffffffffffffffffffffffffffffffffff\n      and\n        /* \"test15.sol\":441:451  target.buy */\n      0xffffffffffffffffffffffffffffffffffffffff\n      and\n      0xa6f2ae3a\n        /* \"test15.sol\":441:453  target.buy() */\n      mload(0x40)\n      dup2\n      0xffffffff\n      and\n      0xe0\n      shl\n      dup2\n      mstore\n      0x04\n      add\n      0x00\n      mload(0x40)\n      dup1\n      dup4\n      sub\n      dup2\n      0x00\n      dup8\n      dup1\n      extcodesize\n      iszero\n      dup1\n      iszero\n      tag_17\n      jumpi\n      0x00\n      dup1\n      revert\n    tag_17:\n      pop\n      gas\n      call\n      iszero\n      dup1\n      iszero\n      tag_19\n      jumpi\n      returndatasize\n      0x00\n      dup1\n      returndatacopy\n      revert(0x00, returndatasize)\n    tag_19:\n      pop\n      pop\n      pop\n      pop\n        /* \"test15.sol\":405:461  function attack() public {... */\n      jump\t// out\n        /* \"test15.sol\":469:569  function price() external view returns (uint256) {... */\n    tag_13:\n        /* \"test15.sol\":509:516  uint256 */\n      0x00\n        /* \"test15.sol\":536:542  target */\n      dup1\n      0x00\n      swap1\n      sload\n      swap1\n      0x0100\n      exp\n      swap1\n      div\n      0xffffffffffffffffffffffffffffffffffffffff\n      and\n        /* \"test15.sol\":536:549  target.isSold */\n      0xffffffffffffffffffffffffffffffffffffffff\n      and\n      0xe852e741\n        /* \"test15.sol\":536:551  target.isSold() */\n      mload(0x40)\n      dup2\n      0xffffffff\n      and\n      0xe0\n      shl\n      dup2\n      mstore\n      0x04\n      add\n      0x20\n      mload(0x40)\n      dup1\n      dup4\n      sub\n      dup2\n      dup7\n      gas\n      staticcall\n      iszero\n      dup1\n      iszero\n      tag_22\n      jumpi\n      returndatasize\n      0x00\n      dup1\n      returndatacopy\n      revert(0x00, returndatasize)\n    tag_22:\n      pop\n      pop\n      pop\n      pop\n      mload(0x40)\n      returndatasize\n      not(0x1f)\n      0x1f\n      dup3\n      add\n      and\n      dup3\n      add\n      dup1\n      0x40\n      mstore\n      pop\n      dup2\n      add\n      swap1\n      tag_23\n      swap2\n      swap1\n      tag_24\n      jump\t// in\n    tag_23:\n        /* \"test15.sol\":536:561  target.isSold() ? 0 : 101 */\n      tag_25\n      jumpi\n        /* \"test15.sol\":558:561  101 */\n      0x65\n        /* \"test15.sol\":536:561  target.isSold() ? 0 : 101 */\n      jump(tag_26)\n    tag_25:\n        /* \"test15.sol\":554:555  0 */\n      0x00\n        /* \"test15.sol\":536:561  target.isSold() ? 0 : 101 */\n    tag_26:\n        /* \"test15.sol\":529:561  return target.isSold() ? 0 : 101 */\n      0xff\n      and\n      swap1\n      pop\n        /* \"test15.sol\":469:569  function price() external view returns (uint256) {... */\n      swap1\n      jump\t// out\n        /* \"#utility.yul\":7:97   */\n    tag_27:\n        /* \"#utility.yul\":41:48   */\n      0x00\n        /* \"#utility.yul\":84:89   */\n      dup2\n        /* \"#utility.yul\":77:90   */\n      iszero\n        /* \"#utility.yul\":70:91   */\n      iszero\n        /* \"#utility.yul\":59:91   */\n      swap1\n      pop\n        /* \"#utility.yul\":7:97   */\n      swap2\n      swap1\n      pop\n      jump\t// out\n        /* \"#utility.yul\":103:212   */\n    tag_28:\n        /* \"#utility.yul\":184:205   */\n      tag_39\n        /* \"#utility.yul\":199:204   */\n      dup2\n        /* \"#utility.yul\":184:205   */\n      tag_27\n      jump\t// in\n    tag_39:\n        /* \"#utility.yul\":179:182   */\n      dup3\n        /* \"#utility.yul\":172:206   */\n      mstore\n        /* \"#utility.yul\":103:212   */\n      pop\n      pop\n      jump\t// out\n        /* \"#utility.yul\":218:428   */\n    tag_9:\n        /* \"#utility.yul\":305:309   */\n      0x00\n        /* \"#utility.yul\":343:345   */\n      0x20\n        /* \"#utility.yul\":332:341   */\n      dup3\n        /* \"#utility.yul\":328:346   */\n      add\n        /* \"#utility.yul\":320:346   */\n      swap1\n      pop\n        /* \"#utility.yul\":356:421   */\n      tag_41\n        /* \"#utility.yul\":418:419   */\n      0x00\n        /* \"#utility.yul\":407:416   */\n      dup4\n        /* \"#utility.yul\":403:420   */\n      add\n        /* \"#utility.yul\":394:400   */\n      dup5\n        /* \"#utility.yul\":356:421   */\n      tag_28\n      jump\t// in\n    tag_41:\n        /* \"#utility.yul\":218:428   */\n      swap3\n      swap2\n      pop\n      pop\n      jump\t// out\n        /* \"#utility.yul\":434:511   */\n    tag_29:\n        /* \"#utility.yul\":471:478   */\n      0x00\n        /* \"#utility.yul\":500:505   */\n      dup2\n        /* \"#utility.yul\":489:505   */\n      swap1\n      pop\n        /* \"#utility.yul\":434:511   */\n      swap2\n      swap1\n      pop\n      jump\t// out\n        /* \"#utility.yul\":517:635   */\n    tag_30:\n        /* \"#utility.yul\":604:628   */\n      tag_44\n        /* \"#utility.yul\":622:627   */\n      dup2\n        /* \"#utility.yul\":604:628   */\n      tag_29\n      jump\t// in\n    tag_44:\n        /* \"#utility.yul\":599:602   */\n      dup3\n        /* \"#utility.yul\":592:629   */\n      mstore\n        /* \"#utility.yul\":517:635   */\n      pop\n      pop\n      jump\t// out\n        /* \"#utility.yul\":641:863   */\n    tag_15:\n        /* \"#utility.yul\":734:738   */\n      0x00\n        /* \"#utility.yul\":772:774   */\n      0x20\n        /* \"#utility.yul\":761:770   */\n      dup3\n        /* \"#utility.yul\":757:775   */\n      add\n        /* \"#utility.yul\":749:775   */\n      swap1\n      pop\n        /* \"#utility.yul\":785:856   */\n      tag_46\n        /* \"#utility.yul\":853:854   */\n      0x00\n        /* \"#utility.yul\":842:851   */\n      dup4\n        /* \"#utility.yul\":838:855   */\n      add\n        /* \"#utility.yul\":829:835   */\n      dup5\n        /* \"#utility.yul\":785:856   */\n      tag_30\n      jump\t// in\n    tag_46:\n        /* \"#utility.yul\":641:863   */\n      swap3\n      swap2\n      pop\n      pop\n      jump\t// out\n        /* \"#utility.yul\":950:1067   */\n    tag_32:\n        /* \"#utility.yul\":1059:1060   */\n      0x00\n        /* \"#utility.yul\":1056:1057   */\n      dup1\n        /* \"#utility.yul\":1049:1061   */\n      revert\n        /* \"#utility.yul\":1196:1312   */\n    tag_34:\n        /* \"#utility.yul\":1266:1287   */\n      tag_51\n        /* \"#utility.yul\":1281:1286   */\n      dup2\n        /* \"#utility.yul\":1266:1287   */\n      tag_27\n      jump\t// in\n    tag_51:\n        /* \"#utility.yul\":1259:1264   */\n      dup2\n        /* \"#utility.yul\":1256:1288   */\n      eq\n        /* \"#utility.yul\":1246:1306   */\n      tag_52\n      jumpi\n        /* \"#utility.yul\":1302:1303   */\n      0x00\n        /* \"#utility.yul\":1299:1300   */\n      dup1\n        /* \"#utility.yul\":1292:1304   */\n      revert\n        /* \"#utility.yul\":1246:1306   */\n    tag_52:\n        /* \"#utility.yul\":1196:1312   */\n      pop\n      jump\t// out\n        /* \"#utility.yul\":1318:1455   */\n    tag_35:\n        /* \"#utility.yul\":1372:1377   */\n      0x00\n        /* \"#utility.yul\":1403:1409   */\n      dup2\n        /* \"#utility.yul\":1397:1410   */\n      mload\n        /* \"#utility.yul\":1388:1410   */\n      swap1\n      pop\n        /* \"#utility.yul\":1419:1449   */\n      tag_54\n        /* \"#utility.yul\":1443:1448   */\n      dup2\n        /* \"#utility.yul\":1419:1449   */\n      tag_34\n      jump\t// in\n    tag_54:\n        /* \"#utility.yul\":1318:1455   */\n      swap3\n      swap2\n      pop\n      pop\n      jump\t// out\n        /* \"#utility.yul\":1461:1806   */\n    tag_24:\n        /* \"#utility.yul\":1528:1534   */\n      0x00\n        /* \"#utility.yul\":1577:1579   */\n      0x20\n        /* \"#utility.yul\":1565:1574   */\n      dup3\n        /* \"#utility.yul\":1556:1563   */\n      dup5\n        /* \"#utility.yul\":1552:1575   */\n      sub\n        /* \"#utility.yul\":1548:1580   */\n      slt\n        /* \"#utility.yul\":1545:1664   */\n      iszero\n      tag_56\n      jumpi\n        /* \"#utility.yul\":1583:1662   */\n      tag_57\n      tag_32\n      jump\t// in\n    tag_57:\n        /* \"#utility.yul\":1545:1664   */\n    tag_56:\n        /* \"#utility.yul\":1703:1704   */\n      0x00\n        /* \"#utility.yul\":1728:1789   */\n      tag_58\n        /* \"#utility.yul\":1781:1788   */\n      dup5\n        /* \"#utility.yul\":1772:1778   */\n      dup3\n        /* \"#utility.yul\":1761:1770   */\n      dup6\n        /* \"#utility.yul\":1757:1779   */\n      add\n        /* \"#utility.yul\":1728:1789   */\n      tag_35\n      jump\t// in\n    tag_58:\n        /* \"#utility.yul\":1718:1789   */\n      swap2\n      pop\n        /* \"#utility.yul\":1674:1799   */\n      pop\n        /* \"#utility.yul\":1461:1806   */\n      swap3\n      swap2\n      pop\n      pop\n      jump\t// out\n\n    auxdata: 0xa264697066735822122055c9a7797931d0d0d502b44ef74cc934a1c1e1ece447d598570d1c697483c42c64736f6c63430008110033\n}\n",
				"bytecode": {
					"linkReferences": {},
					"object": "60806040526001600060146101000a81548160ff02191690831515021790555034801561002b57600080fd5b506040516103f93803806103f9833981810160405281019061004d91906100f6565b806000806101000a81548173ffffffffffffffffffffffffffffffffffffffff021916908373ffffffffffffffffffffffffffffffffffffffff16021790555050610123565b600080fd5b600073ffffffffffffffffffffffffffffffffffffffff82169050919050565b60006100c382610098565b9050919050565b6100d3816100b8565b81146100de57600080fd5b50565b6000815190506100f0816100ca565b92915050565b60006020828403121561010c5761010b610093565b5b600061011a848285016100e1565b91505092915050565b6102c7806101326000396000f3fe608060405234801561001057600080fd5b50600436106100415760003560e01c80631660d0b1146100465780639e5faafc14610064578063a035b1fe1461006e575b600080fd5b61004e61008c565b60405161005b91906101e4565b60405180910390f35b61006c61009f565b005b610076610121565b6040516100839190610218565b60405180910390f35b600060149054906101000a900460ff1681565b60008054906101000a900473ffffffffffffffffffffffffffffffffffffffff1673ffffffffffffffffffffffffffffffffffffffff1663a6f2ae3a6040518163ffffffff1660e01b8152600401600060405180830381600087803b15801561010757600080fd5b505af115801561011b573d6000803e3d6000fd5b50505050565b60008060009054906101000a900473ffffffffffffffffffffffffffffffffffffffff1673ffffffffffffffffffffffffffffffffffffffff1663e852e7416040518163ffffffff1660e01b8152600401602060405180830381865afa15801561018f573d6000803e3d6000fd5b505050506040513d601f19601f820116820180604052508101906101b39190610264565b6101be5760656101c1565b60005b60ff16905090565b60008115159050919050565b6101de816101c9565b82525050565b60006020820190506101f960008301846101d5565b92915050565b6000819050919050565b610212816101ff565b82525050565b600060208201905061022d6000830184610209565b92915050565b600080fd5b610241816101c9565b811461024c57600080fd5b50565b60008151905061025e81610238565b92915050565b60006020828403121561027a57610279610233565b5b60006102888482850161024f565b9150509291505056fea264697066735822122055c9a7797931d0d0d502b44ef74cc934a1c1e1ece447d598570d1c697483c42c64736f6c63430008110033",
					"opcodes": "PUSH1 0x80 PUSH1 0x40 MSTORE PUSH1 0x1 PUSH1 0x0 PUSH1 0x14 PUSH2 0x100 EXP DUP2 SLOAD DUP2 PUSH1 0xFF MUL NOT AND SWAP1 DUP4 ISZERO ISZERO MUL OR SWAP1 SSTORE POP CALLVALUE DUP1 ISZERO PUSH2 0x2B JUMPI PUSH1 0x0 DUP1 REVERT JUMPDEST POP PUSH1 0x40 MLOAD PUSH2 0x3F9 CODESIZE SUB DUP1 PUSH2 0x3F9 DUP4 CODECOPY DUP2 DUP2 ADD PUSH1 0x40 MSTORE DUP2 ADD SWAP1 PUSH2 0x4D SWAP2 SWAP1 PUSH2 0xF6 JUMP JUMPDEST DUP1 PUSH1 0x0 DUP1 PUSH2 0x100 EXP DUP2 SLOAD DUP2 PUSH20 0xFFFFFFFFFFFFFFFFFFFFFFFFFFFFFFFFFFFFFFFF MUL NOT AND SWAP1 DUP4 PUSH20 0xFFFFFFFFFFFFFFFFFFFFFFFFFFFFFFFFFFFFFFFF AND MUL OR SWAP1 SSTORE POP POP PUSH2 0x123 JUMP JUMPDEST PUSH1 0x0 DUP1 REVERT JUMPDEST PUSH1 0x0 PUSH20 0xFFFFFFFFFFFFFFFFFFFFFFFFFFFFFFFFFFFFFFFF DUP3 AND SWAP1 POP SWAP2 SWAP1 POP JUMP JUMPDEST PUSH1 0x0 PUSH2 0xC3 DUP3 PUSH2 0x98 JUMP JUMPDEST SWAP1 POP SWAP2 SWAP1 POP JUMP JUMPDEST PUSH2 0xD3 DUP2 PUSH2 0xB8 JUMP JUMPDEST DUP2 EQ PUSH2 0xDE JUMPI PUSH1 0x0 DUP1 REVERT JUMPDEST POP JUMP JUMPDEST PUSH1 0x0 DUP2 MLOAD SWAP1 POP PUSH2 0xF0 DUP2 PUSH2 0xCA JUMP JUMPDEST SWAP3 SWAP2 POP POP JUMP JUMPDEST PUSH1 0x0 PUSH1 0x20 DUP3 DUP5 SUB SLT ISZERO PUSH2 0x10C JUMPI PUSH2 0x10B PUSH2 0x93 JUMP JUMPDEST JUMPDEST PUSH1 0x0 PUSH2 0x11A DUP5 DUP3 DUP6 ADD PUSH2 0xE1 JUMP JUMPDEST SWAP2 POP POP SWAP3 SWAP2 POP POP JUMP JUMPDEST PUSH2 0x2C7 DUP1 PUSH2 0x132 PUSH1 0x0 CODECOPY PUSH1 0x0 RETURN INVALID PUSH1 0x80 PUSH1 0x40 MSTORE CALLVALUE DUP1 ISZERO PUSH2 0x10 JUMPI PUSH1 0x0 DUP1 REVERT JUMPDEST POP PUSH1 0x4 CALLDATASIZE LT PUSH2 0x41 JUMPI PUSH1 0x0 CALLDATALOAD PUSH1 0xE0 SHR DUP1 PUSH4 0x1660D0B1 EQ PUSH2 0x46 JUMPI DUP1 PUSH4 0x9E5FAAFC EQ PUSH2 0x64 JUMPI DUP1 PUSH4 0xA035B1FE EQ PUSH2 0x6E JUMPI JUMPDEST PUSH1 0x0 DUP1 REVERT JUMPDEST PUSH2 0x4E PUSH2 0x8C JUMP JUMPDEST PUSH1 0x40 MLOAD PUSH2 0x5B SWAP2 SWAP1 PUSH2 0x1E4 JUMP JUMPDEST PUSH1 0x40 MLOAD DUP1 SWAP2 SUB SWAP1 RETURN JUMPDEST PUSH2 0x6C PUSH2 0x9F JUMP JUMPDEST STOP JUMPDEST PUSH2 0x76 PUSH2 0x121 JUMP JUMPDEST PUSH1 0x40 MLOAD PUSH2 0x83 SWAP2 SWAP1 PUSH2 0x218 JUMP JUMPDEST PUSH1 0x40 MLOAD DUP1 SWAP2 SUB SWAP1 RETURN JUMPDEST PUSH1 0x0 PUSH1 0x14 SWAP1 SLOAD SWAP1 PUSH2 0x100 EXP SWAP1 DIV PUSH1 0xFF AND DUP2 JUMP JUMPDEST PUSH1 0x0 DUP1 SLOAD SWAP1 PUSH2 0x100 EXP SWAP1 DIV PUSH20 0xFFFFFFFFFFFFFFFFFFFFFFFFFFFFFFFFFFFFFFFF AND PUSH20 0xFFFFFFFFFFFFFFFFFFFFFFFFFFFFFFFFFFFFFFFF AND PUSH4 0xA6F2AE3A PUSH1 0x40 MLOAD DUP2 PUSH4 0xFFFFFFFF AND PUSH1 0xE0 SHL DUP2 MSTORE PUSH1 0x4 ADD PUSH1 0x0 PUSH1 0x40 MLOAD DUP1 DUP4 SUB DUP2 PUSH1 0x0 DUP8 DUP1 EXTCODESIZE ISZERO DUP1 ISZERO PUSH2 0x107 JUMPI PUSH1 0x0 DUP1 REVERT JUMPDEST POP GAS CALL ISZERO DUP1 ISZERO PUSH2 0x11B JUMPI RETURNDATASIZE PUSH1 0x0 DUP1 RETURNDATACOPY RETURNDATASIZE PUSH1 0x0 REVERT JUMPDEST POP POP POP POP JUMP JUMPDEST PUSH1 0x0 DUP1 PUSH1 0x0 SWAP1 SLOAD SWAP1 PUSH2 0x100 EXP SWAP1 DIV PUSH20 0xFFFFFFFFFFFFFFFFFFFFFFFFFFFFFFFFFFFFFFFF AND PUSH20 0xFFFFFFFFFFFFFFFFFFFFFFFFFFFFFFFFFFFFFFFF AND PUSH4 0xE852E741 PUSH1 0x40 MLOAD DUP2 PUSH4 0xFFFFFFFF AND PUSH1 0xE0 SHL DUP2 MSTORE PUSH1 0x4 ADD PUSH1 0x20 PUSH1 0x40 MLOAD DUP1 DUP4 SUB DUP2 DUP7 GAS STATICCALL ISZERO DUP1 ISZERO PUSH2 0x18F JUMPI RETURNDATASIZE PUSH1 0x0 DUP1 RETURNDATACOPY RETURNDATASIZE PUSH1 0x0 REVERT JUMPDEST POP POP POP POP PUSH1 0x40 MLOAD RETURNDATASIZE PUSH1 0x1F NOT PUSH1 0x1F DUP3 ADD AND DUP3 ADD DUP1 PUSH1 0x40 MSTORE POP DUP2 ADD SWAP1 PUSH2 0x1B3 SWAP2 SWAP1 PUSH2 0x264 JUMP JUMPDEST PUSH2 0x1BE JUMPI PUSH1 0x65 PUSH2 0x1C1 JUMP JUMPDEST PUSH1 0x0 JUMPDEST PUSH1 0xFF AND SWAP1 POP SWAP1 JUMP JUMPDEST PUSH1 0x0 DUP2 ISZERO ISZERO SWAP1 POP SWAP2 SWAP1 POP JUMP JUMPDEST PUSH2 0x1DE DUP2 PUSH2 0x1C9 JUMP JUMPDEST DUP3 MSTORE POP POP JUMP JUMPDEST PUSH1 0x0 PUSH1 0x20 DUP3 ADD SWAP1 POP PUSH2 0x1F9 PUSH1 0x0 DUP4 ADD DUP5 PUSH2 0x1D5 JUMP JUMPDEST SWAP3 SWAP2 POP POP JUMP JUMPDEST PUSH1 0x0 DUP2 SWAP1 POP SWAP2 SWAP1 POP JUMP JUMPDEST PUSH2 0x212 DUP2 PUSH2 0x1FF JUMP JUMPDEST DUP3 MSTORE POP POP JUMP JUMPDEST PUSH1 0x0 PUSH1 0x20 DUP3 ADD SWAP1 POP PUSH2 0x22D PUSH1 0x0 DUP4 ADD DUP5 PUSH2 0x209 JUMP JUMPDEST SWAP3 SWAP2 POP POP JUMP JUMPDEST PUSH1 0x0 DUP1 REVERT JUMPDEST PUSH2 0x241 DUP2 PUSH2 0x1C9 JUMP JUMPDEST DUP2 EQ PUSH2 0x24C JUMPI PUSH1 0x0 DUP1 REVERT JUMPDEST POP JUMP JUMPDEST PUSH1 0x0 DUP2 MLOAD SWAP1 POP PUSH2 0x25E DUP2 PUSH2 0x238 JUMP JUMPDEST SWAP3 SWAP2 POP POP JUMP JUMPDEST PUSH1 0x0 PUSH1 0x20 DUP3 DUP5 SUB SLT ISZERO PUSH2 0x27A JUMPI PUSH2 0x279 PUSH2 0x233 JUMP JUMPDEST JUMPDEST PUSH1 0x0 PUSH2 0x288 DUP5 DUP3 DUP6 ADD PUSH2 0x24F JUMP JUMPDEST SWAP2 POP POP SWAP3 SWAP2 POP POP JUMP INVALID LOG2 PUSH5 0x6970667358 0x22 SLT KECCAK256 SSTORE 0xC9 0xA7 PUSH26 0x7931D0D0D502B44EF74CC934A1C1E1ECE447D598570D1C697483 0xC4 0x2C PUSH5 0x736F6C6343 STOP ADDMOD GT STOP CALLER "
				},
				"gasEstimates": {
					"creation": {
						"codeDepositCost": "142200",
						"executionCost": "infinite",
						"totalCost": "infinite"
					},
					"external": {
						"attack()": "infinite",
						"firstCall()": "2499",
						"price()": "infinite"
					}
				},
				"methodIdentifiers": {
					"attack()": "9e5faafc",
					"firstCall()": "1660d0b1",
					"price()": "a035b1fe"
				}
			},
			"storageLayout": {
				"storage": [
					{
						"astId": 13,
						"contract": "test15.sol:Attack",
						"label": "target",
						"offset": 0,
						"slot": "0",
						"type": "t_contract(IReentrance)10"
					},
					{
						"astId": 16,
						"contract": "test15.sol:Attack",
						"label": "firstCall",
						"offset": 20,
						"slot": "0",
						"type": "t_bool"
					}
				],
				"types": {
					"t_bool": {
						"encoding": "inplace",
						"label": "bool",
						"numberOfBytes": "1"
					},
					"t_contract(IReentrance)10": {
						"encoding": "inplace",
						"label": "contract IReentrance",
						"numberOfBytes": "20"
					}
				}
			},
			"userdoc": {
				"kind": "user",
				"methods": {},
				"version": 1
			}
		}
	}
}