{
	"test.sol": {
		"ContractB": {
			"abi": [
				{
					"inputs": [
						{
							"internalType": "address",
							"name": "_contractAAddress",
							"type": "address"
						}
					],
					"stateMutability": "nonpayable",
					"type": "constructor"
				},
				{
					"inputs": [],
					"name": "callA",
					"outputs": [],
					"stateMutability": "nonpayable",
					"type": "function"
				},
				{
					"inputs": [],
					"name": "target",
					"outputs": [
						{
							"internalType": "contract IReentrance",
							"name": "",
							"type": "address"
						}
					],
					"stateMutability": "view",
					"type": "function"
				},
				{
					"stateMutability": "payable",
					"type": "receive"
				}
			],
			"devdoc": {
				"kind": "dev",
				"methods": {},
				"version": 1
			},
			"evm": {
				"assembly": "    /* \"test.sol\":142:475  contract ContractB {\r... */\n  mstore(0x40, 0x80)\n    /* \"test.sol\":202:294  constructor (address _contractAAddress) {\r... */\n  callvalue\n  dup1\n  iszero\n  tag_1\n  jumpi\n  0x00\n  dup1\n  revert\ntag_1:\n  pop\n  mload(0x40)\n  sub(codesize, bytecodeSize)\n  dup1\n  bytecodeSize\n  dup4\n  codecopy\n  dup2\n  dup2\n  add\n  0x40\n  mstore\n  dup2\n  add\n  swap1\n  tag_2\n  swap2\n  swap1\n  tag_3\n  jump\t// in\ntag_2:\n    /* \"test.sol\":271:288  _contractAAddress */\n  dup1\n    /* \"test.sol\":250:256  target */\n  0x00\n  dup1\n    /* \"test.sol\":250:289  target = IReentrance(_contractAAddress) */\n  0x0100\n  exp\n  dup2\n  sload\n  dup2\n  0xffffffffffffffffffffffffffffffffffffffff\n  mul\n  not\n  and\n  swap1\n  dup4\n  0xffffffffffffffffffffffffffffffffffffffff\n  and\n  mul\n  or\n  swap1\n  sstore\n  pop\n    /* \"test.sol\":202:294  constructor (address _contractAAddress) {\r... */\n  pop\n    /* \"test.sol\":142:475  contract ContractB {\r... */\n  jump(tag_6)\n    /* \"#utility.yul\":7:150   */\ntag_8:\n  0x00\n    /* \"#utility.yul\":95:101   */\n  dup2\n    /* \"#utility.yul\":89:102   */\n  mload\n    /* \"#utility.yul\":80:102   */\n  swap1\n  pop\n    /* \"#utility.yul\":111:144   */\n  tag_10\n    /* \"#utility.yul\":138:143   */\n  dup2\n    /* \"#utility.yul\":111:144   */\n  tag_11\n  jump\t// in\ntag_10:\n    /* \"#utility.yul\":70:150   */\n  swap3\n  swap2\n  pop\n  pop\n  jump\t// out\n    /* \"#utility.yul\":156:440   */\ntag_3:\n  0x00\n    /* \"#utility.yul\":275:277   */\n  0x20\n    /* \"#utility.yul\":263:272   */\n  dup3\n    /* \"#utility.yul\":254:261   */\n  dup5\n    /* \"#utility.yul\":250:273   */\n  sub\n    /* \"#utility.yul\":246:278   */\n  slt\n    /* \"#utility.yul\":243:245   */\n  iszero\n  tag_13\n  jumpi\n    /* \"#utility.yul\":291:292   */\n  0x00\n    /* \"#utility.yul\":288:289   */\n  dup1\n    /* \"#utility.yul\":281:293   */\n  revert\n    /* \"#utility.yul\":243:245   */\ntag_13:\n    /* \"#utility.yul\":334:335   */\n  0x00\n    /* \"#utility.yul\":359:423   */\n  tag_14\n    /* \"#utility.yul\":415:422   */\n  dup5\n    /* \"#utility.yul\":406:412   */\n  dup3\n    /* \"#utility.yul\":395:404   */\n  dup6\n    /* \"#utility.yul\":391:413   */\n  add\n    /* \"#utility.yul\":359:423   */\n  tag_8\n  jump\t// in\ntag_14:\n    /* \"#utility.yul\":349:423   */\n  swap2\n  pop\n    /* \"#utility.yul\":305:433   */\n  pop\n    /* \"#utility.yul\":233:440   */\n  swap3\n  swap2\n  pop\n  pop\n  jump\t// out\n    /* \"#utility.yul\":446:542   */\ntag_15:\n  0x00\n    /* \"#utility.yul\":512:536   */\n  tag_17\n    /* \"#utility.yul\":530:535   */\n  dup3\n    /* \"#utility.yul\":512:536   */\n  tag_18\n  jump\t// in\ntag_17:\n    /* \"#utility.yul\":501:536   */\n  swap1\n  pop\n    /* \"#utility.yul\":491:542   */\n  swap2\n  swap1\n  pop\n  jump\t// out\n    /* \"#utility.yul\":548:674   */\ntag_18:\n  0x00\n    /* \"#utility.yul\":625:667   */\n  0xffffffffffffffffffffffffffffffffffffffff\n    /* \"#utility.yul\":618:623   */\n  dup3\n    /* \"#utility.yul\":614:668   */\n  and\n    /* \"#utility.yul\":603:668   */\n  swap1\n  pop\n    /* \"#utility.yul\":593:674   */\n  swap2\n  swap1\n  pop\n  jump\t// out\n    /* \"#utility.yul\":680:802   */\ntag_11:\n    /* \"#utility.yul\":753:777   */\n  tag_21\n    /* \"#utility.yul\":771:776   */\n  dup2\n    /* \"#utility.yul\":753:777   */\n  tag_15\n  jump\t// in\ntag_21:\n    /* \"#utility.yul\":746:751   */\n  dup2\n    /* \"#utility.yul\":743:778   */\n  eq\n    /* \"#utility.yul\":733:735   */\n  tag_22\n  jumpi\n    /* \"#utility.yul\":792:793   */\n  0x00\n    /* \"#utility.yul\":789:790   */\n  dup1\n    /* \"#utility.yul\":782:794   */\n  revert\n    /* \"#utility.yul\":733:735   */\ntag_22:\n    /* \"#utility.yul\":723:802   */\n  pop\n  jump\t// out\n    /* \"test.sol\":142:475  contract ContractB {\r... */\ntag_6:\n  dataSize(sub_0)\n  dup1\n  dataOffset(sub_0)\n  0x00\n  codecopy\n  0x00\n  return\nstop\n\nsub_0: assembly {\n        /* \"test.sol\":142:475  contract ContractB {\r... */\n      mstore(0x40, 0x80)\n      jumpi(tag_1, lt(calldatasize, 0x04))\n      shr(0xe0, calldataload(0x00))\n      dup1\n      0xd4b83992\n      eq\n      tag_3\n      jumpi\n      dup1\n      0xe7f09e05\n      eq\n      tag_4\n      jumpi\n      jump(tag_2)\n    tag_1:\n      jumpi(tag_2, calldatasize)\n        /* \"test.sol\":431:437  target */\n      0x00\n      dup1\n      sload\n      swap1\n      0x0100\n      exp\n      swap1\n      div\n      0xffffffffffffffffffffffffffffffffffffffff\n      and\n        /* \"test.sol\":431:446  target.withdraw */\n      0xffffffffffffffffffffffffffffffffffffffff\n      and\n      0x2e1a7d4d\n        /* \"test.sol\":447:463  1000000000000000 */\n      0x038d7ea4c68000\n        /* \"test.sol\":431:464  target.withdraw(1000000000000000) */\n      mload(0x40)\n      dup3\n      0xffffffff\n      and\n      0xe0\n      shl\n      dup2\n      mstore\n      0x04\n      add\n      tag_7\n      swap2\n      swap1\n      tag_8\n      jump\t// in\n    tag_7:\n      0x00\n      mload(0x40)\n      dup1\n      dup4\n      sub\n      dup2\n      0x00\n      dup8\n      dup1\n      extcodesize\n      iszero\n      dup1\n      iszero\n      tag_9\n      jumpi\n      0x00\n      dup1\n      revert\n    tag_9:\n      pop\n      gas\n      call\n      iszero\n      dup1\n      iszero\n      tag_11\n      jumpi\n      returndatasize\n      0x00\n      dup1\n      returndatacopy\n      revert(0x00, returndatasize)\n    tag_11:\n      pop\n      pop\n      pop\n      pop\n        /* \"test.sol\":142:475  contract ContractB {\r... */\n      stop\n    tag_2:\n      0x00\n      dup1\n      revert\n        /* \"test.sol\":168:193  IReentrance public target */\n    tag_3:\n      callvalue\n      dup1\n      iszero\n      tag_12\n      jumpi\n      0x00\n      dup1\n      revert\n    tag_12:\n      pop\n      tag_13\n      tag_14\n      jump\t// in\n    tag_13:\n      mload(0x40)\n      tag_15\n      swap2\n      swap1\n      tag_16\n      jump\t// in\n    tag_15:\n      mload(0x40)\n      dup1\n      swap2\n      sub\n      swap1\n      return\n        /* \"test.sol\":308:385  function callA() public  {\r... */\n    tag_4:\n      callvalue\n      dup1\n      iszero\n      tag_17\n      jumpi\n      0x00\n      dup1\n      revert\n    tag_17:\n      pop\n      tag_18\n      tag_19\n      jump\t// in\n    tag_18:\n      stop\n        /* \"test.sol\":168:193  IReentrance public target */\n    tag_14:\n      0x00\n      dup1\n      sload\n      swap1\n      0x0100\n      exp\n      swap1\n      div\n      0xffffffffffffffffffffffffffffffffffffffff\n      and\n      dup2\n      jump\t// out\n        /* \"test.sol\":308:385  function callA() public  {\r... */\n    tag_19:\n        /* \"test.sol\":344:350  target */\n      0x00\n      dup1\n      sload\n      swap1\n      0x0100\n      exp\n      swap1\n      div\n      0xffffffffffffffffffffffffffffffffffffffff\n      and\n        /* \"test.sol\":344:359  target.withdraw */\n      0xffffffffffffffffffffffffffffffffffffffff\n      and\n      0x2e1a7d4d\n        /* \"test.sol\":360:376  1000000000000000 */\n      0x038d7ea4c68000\n        /* \"test.sol\":344:377  target.withdraw(1000000000000000) */\n      mload(0x40)\n      dup3\n      0xffffffff\n      and\n      0xe0\n      shl\n      dup2\n      mstore\n      0x04\n      add\n      tag_21\n      swap2\n      swap1\n      tag_8\n      jump\t// in\n    tag_21:\n      0x00\n      mload(0x40)\n      dup1\n      dup4\n      sub\n      dup2\n      0x00\n      dup8\n      dup1\n      extcodesize\n      iszero\n      dup1\n      iszero\n      tag_22\n      jumpi\n      0x00\n      dup1\n      revert\n    tag_22:\n      pop\n      gas\n      call\n      iszero\n      dup1\n      iszero\n      tag_24\n      jumpi\n      returndatasize\n      0x00\n      dup1\n      returndatacopy\n      revert(0x00, returndatasize)\n    tag_24:\n      pop\n      pop\n      pop\n      pop\n        /* \"test.sol\":308:385  function callA() public  {\r... */\n      jump\t// out\n        /* \"#utility.yul\":7:172   */\n    tag_26:\n        /* \"#utility.yul\":111:165   */\n      tag_28\n        /* \"#utility.yul\":159:164   */\n      dup2\n        /* \"#utility.yul\":111:165   */\n      tag_29\n      jump\t// in\n    tag_28:\n        /* \"#utility.yul\":106:109   */\n      dup3\n        /* \"#utility.yul\":99:166   */\n      mstore\n        /* \"#utility.yul\":89:172   */\n      pop\n      pop\n      jump\t// out\n        /* \"#utility.yul\":178:355   */\n    tag_30:\n        /* \"#utility.yul\":288:348   */\n      tag_32\n        /* \"#utility.yul\":342:347   */\n      dup2\n        /* \"#utility.yul\":288:348   */\n      tag_33\n      jump\t// in\n    tag_32:\n        /* \"#utility.yul\":283:286   */\n      dup3\n        /* \"#utility.yul\":276:349   */\n      mstore\n        /* \"#utility.yul\":266:355   */\n      pop\n      pop\n      jump\t// out\n        /* \"#utility.yul\":361:617   */\n    tag_16:\n      0x00\n        /* \"#utility.yul\":509:511   */\n      0x20\n        /* \"#utility.yul\":498:507   */\n      dup3\n        /* \"#utility.yul\":494:512   */\n      add\n        /* \"#utility.yul\":486:512   */\n      swap1\n      pop\n        /* \"#utility.yul\":522:610   */\n      tag_35\n        /* \"#utility.yul\":607:608   */\n      0x00\n        /* \"#utility.yul\":596:605   */\n      dup4\n        /* \"#utility.yul\":592:609   */\n      add\n        /* \"#utility.yul\":583:589   */\n      dup5\n        /* \"#utility.yul\":522:610   */\n      tag_26\n      jump\t// in\n    tag_35:\n        /* \"#utility.yul\":476:617   */\n      swap3\n      swap2\n      pop\n      pop\n      jump\t// out\n        /* \"#utility.yul\":623:891   */\n    tag_8:\n      0x00\n        /* \"#utility.yul\":777:779   */\n      0x20\n        /* \"#utility.yul\":766:775   */\n      dup3\n        /* \"#utility.yul\":762:780   */\n      add\n        /* \"#utility.yul\":754:780   */\n      swap1\n      pop\n        /* \"#utility.yul\":790:884   */\n      tag_37\n        /* \"#utility.yul\":881:882   */\n      0x00\n        /* \"#utility.yul\":870:879   */\n      dup4\n        /* \"#utility.yul\":866:883   */\n      add\n        /* \"#utility.yul\":857:863   */\n      dup5\n        /* \"#utility.yul\":790:884   */\n      tag_30\n      jump\t// in\n    tag_37:\n        /* \"#utility.yul\":744:891   */\n      swap3\n      swap2\n      pop\n      pop\n      jump\t// out\n        /* \"#utility.yul\":897:1023   */\n    tag_38:\n      0x00\n        /* \"#utility.yul\":974:1016   */\n      0xffffffffffffffffffffffffffffffffffffffff\n        /* \"#utility.yul\":967:972   */\n      dup3\n        /* \"#utility.yul\":963:1017   */\n      and\n        /* \"#utility.yul\":952:1017   */\n      swap1\n      pop\n        /* \"#utility.yul\":942:1023   */\n      swap2\n      swap1\n      pop\n      jump\t// out\n        /* \"#utility.yul\":1029:1106   */\n    tag_40:\n      0x00\n        /* \"#utility.yul\":1095:1100   */\n      dup2\n        /* \"#utility.yul\":1084:1100   */\n      swap1\n      pop\n        /* \"#utility.yul\":1074:1106   */\n      swap2\n      swap1\n      pop\n      jump\t// out\n        /* \"#utility.yul\":1112:1272   */\n    tag_29:\n      0x00\n        /* \"#utility.yul\":1212:1266   */\n      tag_43\n        /* \"#utility.yul\":1260:1265   */\n      dup3\n        /* \"#utility.yul\":1212:1266   */\n      tag_44\n      jump\t// in\n    tag_43:\n        /* \"#utility.yul\":1199:1266   */\n      swap1\n      pop\n        /* \"#utility.yul\":1189:1272   */\n      swap2\n      swap1\n      pop\n      jump\t// out\n        /* \"#utility.yul\":1278:1408   */\n    tag_44:\n      0x00\n        /* \"#utility.yul\":1378:1402   */\n      tag_46\n        /* \"#utility.yul\":1396:1401   */\n      dup3\n        /* \"#utility.yul\":1378:1402   */\n      tag_38\n      jump\t// in\n    tag_46:\n        /* \"#utility.yul\":1365:1402   */\n      swap1\n      pop\n        /* \"#utility.yul\":1355:1408   */\n      swap2\n      swap1\n      pop\n      jump\t// out\n        /* \"#utility.yul\":1414:1550   */\n    tag_33:\n      0x00\n        /* \"#utility.yul\":1520:1544   */\n      tag_48\n        /* \"#utility.yul\":1538:1543   */\n      dup3\n        /* \"#utility.yul\":1520:1544   */\n      tag_40\n      jump\t// in\n    tag_48:\n        /* \"#utility.yul\":1507:1544   */\n      swap1\n      pop\n        /* \"#utility.yul\":1497:1550   */\n      swap2\n      swap1\n      pop\n      jump\t// out\n\n    auxdata: 0xa26469706673582212204c17633d2805818eb45f38f8ff8605b00b70c4e27f4c57ec2d47e29b7044d6ca64736f6c63430008000033\n}\n",
				"bytecode": {
					"linkReferences": {},
					"object": "608060405234801561001057600080fd5b506040516103bd3803806103bd8339818101604052810190610032919061008d565b806000806101000a81548173ffffffffffffffffffffffffffffffffffffffff021916908373ffffffffffffffffffffffffffffffffffffffff160217905550506100ff565b600081519050610087816100e8565b92915050565b60006020828403121561009f57600080fd5b60006100ad84828501610078565b91505092915050565b60006100c1826100c8565b9050919050565b600073ffffffffffffffffffffffffffffffffffffffff82169050919050565b6100f1816100b6565b81146100fc57600080fd5b50565b6102af8061010e6000396000f3fe60806040526004361061002d5760003560e01c8063d4b83992146100cb578063e7f09e05146100f6576100c6565b366100c65760008054906101000a900473ffffffffffffffffffffffffffffffffffffffff1673ffffffffffffffffffffffffffffffffffffffff16632e1a7d4d66038d7ea4c680006040518263ffffffff1660e01b815260040161009291906101fe565b600060405180830381600087803b1580156100ac57600080fd5b505af11580156100c0573d6000803e3d6000fd5b50505050005b600080fd5b3480156100d757600080fd5b506100e061010d565b6040516100ed91906101e3565b60405180910390f35b34801561010257600080fd5b5061010b610131565b005b60008054906101000a900473ffffffffffffffffffffffffffffffffffffffff1681565b60008054906101000a900473ffffffffffffffffffffffffffffffffffffffff1673ffffffffffffffffffffffffffffffffffffffff16632e1a7d4d66038d7ea4c680006040518263ffffffff1660e01b815260040161019191906101fe565b600060405180830381600087803b1580156101ab57600080fd5b505af11580156101bf573d6000803e3d6000fd5b50505050565b6101ce81610243565b82525050565b6101dd81610267565b82525050565b60006020820190506101f860008301846101c5565b92915050565b600060208201905061021360008301846101d4565b92915050565b600073ffffffffffffffffffffffffffffffffffffffff82169050919050565b6000819050919050565b600061024e82610255565b9050919050565b600061026082610219565b9050919050565b600061027282610239565b905091905056fea26469706673582212204c17633d2805818eb45f38f8ff8605b00b70c4e27f4c57ec2d47e29b7044d6ca64736f6c63430008000033",
					"opcodes": "PUSH1 0x80 PUSH1 0x40 MSTORE CALLVALUE DUP1 ISZERO PUSH2 0x10 JUMPI PUSH1 0x0 DUP1 REVERT JUMPDEST POP PUSH1 0x40 MLOAD PUSH2 0x3BD CODESIZE SUB DUP1 PUSH2 0x3BD DUP4 CODECOPY DUP2 DUP2 ADD PUSH1 0x40 MSTORE DUP2 ADD SWAP1 PUSH2 0x32 SWAP2 SWAP1 PUSH2 0x8D JUMP JUMPDEST DUP1 PUSH1 0x0 DUP1 PUSH2 0x100 EXP DUP2 SLOAD DUP2 PUSH20 0xFFFFFFFFFFFFFFFFFFFFFFFFFFFFFFFFFFFFFFFF MUL NOT AND SWAP1 DUP4 PUSH20 0xFFFFFFFFFFFFFFFFFFFFFFFFFFFFFFFFFFFFFFFF AND MUL OR SWAP1 SSTORE POP POP PUSH2 0xFF JUMP JUMPDEST PUSH1 0x0 DUP2 MLOAD SWAP1 POP PUSH2 0x87 DUP2 PUSH2 0xE8 JUMP JUMPDEST SWAP3 SWAP2 POP POP JUMP JUMPDEST PUSH1 0x0 PUSH1 0x20 DUP3 DUP5 SUB SLT ISZERO PUSH2 0x9F JUMPI PUSH1 0x0 DUP1 REVERT JUMPDEST PUSH1 0x0 PUSH2 0xAD DUP5 DUP3 DUP6 ADD PUSH2 0x78 JUMP JUMPDEST SWAP2 POP POP SWAP3 SWAP2 POP POP JUMP JUMPDEST PUSH1 0x0 PUSH2 0xC1 DUP3 PUSH2 0xC8 JUMP JUMPDEST SWAP1 POP SWAP2 SWAP1 POP JUMP JUMPDEST PUSH1 0x0 PUSH20 0xFFFFFFFFFFFFFFFFFFFFFFFFFFFFFFFFFFFFFFFF DUP3 AND SWAP1 POP SWAP2 SWAP1 POP JUMP JUMPDEST PUSH2 0xF1 DUP2 PUSH2 0xB6 JUMP JUMPDEST DUP2 EQ PUSH2 0xFC JUMPI PUSH1 0x0 DUP1 REVERT JUMPDEST POP JUMP JUMPDEST PUSH2 0x2AF DUP1 PUSH2 0x10E PUSH1 0x0 CODECOPY PUSH1 0x0 RETURN INVALID PUSH1 0x80 PUSH1 0x40 MSTORE PUSH1 0x4 CALLDATASIZE LT PUSH2 0x2D JUMPI PUSH1 0x0 CALLDATALOAD PUSH1 0xE0 SHR DUP1 PUSH4 0xD4B83992 EQ PUSH2 0xCB JUMPI DUP1 PUSH4 0xE7F09E05 EQ PUSH2 0xF6 JUMPI PUSH2 0xC6 JUMP JUMPDEST CALLDATASIZE PUSH2 0xC6 JUMPI PUSH1 0x0 DUP1 SLOAD SWAP1 PUSH2 0x100 EXP SWAP1 DIV PUSH20 0xFFFFFFFFFFFFFFFFFFFFFFFFFFFFFFFFFFFFFFFF AND PUSH20 0xFFFFFFFFFFFFFFFFFFFFFFFFFFFFFFFFFFFFFFFF AND PUSH4 0x2E1A7D4D PUSH7 0x38D7EA4C68000 PUSH1 0x40 MLOAD DUP3 PUSH4 0xFFFFFFFF AND PUSH1 0xE0 SHL DUP2 MSTORE PUSH1 0x4 ADD PUSH2 0x92 SWAP2 SWAP1 PUSH2 0x1FE JUMP JUMPDEST PUSH1 0x0 PUSH1 0x40 MLOAD DUP1 DUP4 SUB DUP2 PUSH1 0x0 DUP8 DUP1 EXTCODESIZE ISZERO DUP1 ISZERO PUSH2 0xAC JUMPI PUSH1 0x0 DUP1 REVERT JUMPDEST POP GAS CALL ISZERO DUP1 ISZERO PUSH2 0xC0 JUMPI RETURNDATASIZE PUSH1 0x0 DUP1 RETURNDATACOPY RETURNDATASIZE PUSH1 0x0 REVERT JUMPDEST POP POP POP POP STOP JUMPDEST PUSH1 0x0 DUP1 REVERT JUMPDEST CALLVALUE DUP1 ISZERO PUSH2 0xD7 JUMPI PUSH1 0x0 DUP1 REVERT JUMPDEST POP PUSH2 0xE0 PUSH2 0x10D JUMP JUMPDEST PUSH1 0x40 MLOAD PUSH2 0xED SWAP2 SWAP1 PUSH2 0x1E3 JUMP JUMPDEST PUSH1 0x40 MLOAD DUP1 SWAP2 SUB SWAP1 RETURN JUMPDEST CALLVALUE DUP1 ISZERO PUSH2 0x102 JUMPI PUSH1 0x0 DUP1 REVERT JUMPDEST POP PUSH2 0x10B PUSH2 0x131 JUMP JUMPDEST STOP JUMPDEST PUSH1 0x0 DUP1 SLOAD SWAP1 PUSH2 0x100 EXP SWAP1 DIV PUSH20 0xFFFFFFFFFFFFFFFFFFFFFFFFFFFFFFFFFFFFFFFF AND DUP2 JUMP JUMPDEST PUSH1 0x0 DUP1 SLOAD SWAP1 PUSH2 0x100 EXP SWAP1 DIV PUSH20 0xFFFFFFFFFFFFFFFFFFFFFFFFFFFFFFFFFFFFFFFF AND PUSH20 0xFFFFFFFFFFFFFFFFFFFFFFFFFFFFFFFFFFFFFFFF AND PUSH4 0x2E1A7D4D PUSH7 0x38D7EA4C68000 PUSH1 0x40 MLOAD DUP3 PUSH4 0xFFFFFFFF AND PUSH1 0xE0 SHL DUP2 MSTORE PUSH1 0x4 ADD PUSH2 0x191 SWAP2 SWAP1 PUSH2 0x1FE JUMP JUMPDEST PUSH1 0x0 PUSH1 0x40 MLOAD DUP1 DUP4 SUB DUP2 PUSH1 0x0 DUP8 DUP1 EXTCODESIZE ISZERO DUP1 ISZERO PUSH2 0x1AB JUMPI PUSH1 0x0 DUP1 REVERT JUMPDEST POP GAS CALL ISZERO DUP1 ISZERO PUSH2 0x1BF JUMPI RETURNDATASIZE PUSH1 0x0 DUP1 RETURNDATACOPY RETURNDATASIZE PUSH1 0x0 REVERT JUMPDEST POP POP POP POP JUMP JUMPDEST PUSH2 0x1CE DUP2 PUSH2 0x243 JUMP JUMPDEST DUP3 MSTORE POP POP JUMP JUMPDEST PUSH2 0x1DD DUP2 PUSH2 0x267 JUMP JUMPDEST DUP3 MSTORE POP POP JUMP JUMPDEST PUSH1 0x0 PUSH1 0x20 DUP3 ADD SWAP1 POP PUSH2 0x1F8 PUSH1 0x0 DUP4 ADD DUP5 PUSH2 0x1C5 JUMP JUMPDEST SWAP3 SWAP2 POP POP JUMP JUMPDEST PUSH1 0x0 PUSH1 0x20 DUP3 ADD SWAP1 POP PUSH2 0x213 PUSH1 0x0 DUP4 ADD DUP5 PUSH2 0x1D4 JUMP JUMPDEST SWAP3 SWAP2 POP POP JUMP JUMPDEST PUSH1 0x0 PUSH20 0xFFFFFFFFFFFFFFFFFFFFFFFFFFFFFFFFFFFFFFFF DUP3 AND SWAP1 POP SWAP2 SWAP1 POP JUMP JUMPDEST PUSH1 0x0 DUP2 SWAP1 POP SWAP2 SWAP1 POP JUMP JUMPDEST PUSH1 0x0 PUSH2 0x24E DUP3 PUSH2 0x255 JUMP JUMPDEST SWAP1 POP SWAP2 SWAP1 POP JUMP JUMPDEST PUSH1 0x0 PUSH2 0x260 DUP3 PUSH2 0x219 JUMP JUMPDEST SWAP1 POP SWAP2 SWAP1 POP JUMP JUMPDEST PUSH1 0x0 PUSH2 0x272 DUP3 PUSH2 0x239 JUMP JUMPDEST SWAP1 POP SWAP2 SWAP1 POP JUMP INVALID LOG2 PUSH5 0x6970667358 0x22 SLT KECCAK256 0x4C OR PUSH4 0x3D280581 DUP15 0xB4 0x5F CODESIZE 0xF8 SELFDESTRUCT DUP7 SDIV 0xB0 SIGNEXTEND PUSH17 0xC4E27F4C57EC2D47E29B7044D6CA64736F PUSH13 0x63430008000033000000000000 "
				},
				"gasEstimates": {
					"creation": {
						"codeDepositCost": "137400",
						"executionCost": "infinite",
						"totalCost": "infinite"
					},
					"external": {
						"callA()": "infinite",
						"target()": "1232"
					}
				},
				"methodIdentifiers": {
					"callA()": "e7f09e05",
					"target()": "d4b83992"
				}
			},
			"storageLayout": {
				"storage": [
					{
						"astId": 10,
						"contract": "test.sol:ContractB",
						"label": "target",
						"offset": 0,
						"slot": "0",
						"type": "t_contract(IReentrance)7"
					}
				],
				"types": {
					"t_contract(IReentrance)7": {
						"encoding": "inplace",
						"label": "contract IReentrance",
						"numberOfBytes": "20"
					}
				}
			},
			"userdoc": {
				"kind": "user",
				"methods": {},
				"version": 1
			}
		}
	}
}