{
	"puz.sol": {
		"PuzzleWallet": {
			"abi": [
				{
					"inputs": [
						{
							"internalType": "address",
							"name": "addr",
							"type": "address"
						}
					],
					"name": "addToWhitelist",
					"outputs": [],
					"stateMutability": "nonpayable",
					"type": "function"
				},
				{
					"inputs": [
						{
							"internalType": "address",
							"name": "",
							"type": "address"
						}
					],
					"name": "balances",
					"outputs": [
						{
							"internalType": "uint256",
							"name": "",
							"type": "uint256"
						}
					],
					"stateMutability": "view",
					"type": "function"
				},
				{
					"inputs": [],
					"name": "deposit",
					"outputs": [],
					"stateMutability": "payable",
					"type": "function"
				},
				{
					"inputs": [
						{
							"internalType": "address",
							"name": "to",
							"type": "address"
						},
						{
							"internalType": "uint256",
							"name": "value",
							"type": "uint256"
						},
						{
							"internalType": "bytes",
							"name": "data",
							"type": "bytes"
						}
					],
					"name": "execute",
					"outputs": [],
					"stateMutability": "payable",
					"type": "function"
				},
				{
					"inputs": [
						{
							"internalType": "uint256",
							"name": "_maxBalance",
							"type": "uint256"
						}
					],
					"name": "init",
					"outputs": [],
					"stateMutability": "nonpayable",
					"type": "function"
				},
				{
					"inputs": [],
					"name": "maxBalance",
					"outputs": [
						{
							"internalType": "uint256",
							"name": "",
							"type": "uint256"
						}
					],
					"stateMutability": "view",
					"type": "function"
				},
				{
					"inputs": [
						{
							"internalType": "bytes[]",
							"name": "data",
							"type": "bytes[]"
						}
					],
					"name": "multicall",
					"outputs": [],
					"stateMutability": "payable",
					"type": "function"
				},
				{
					"inputs": [],
					"name": "owner",
					"outputs": [
						{
							"internalType": "address",
							"name": "",
							"type": "address"
						}
					],
					"stateMutability": "view",
					"type": "function"
				},
				{
					"inputs": [
						{
							"internalType": "uint256",
							"name": "_maxBalance",
							"type": "uint256"
						}
					],
					"name": "setMaxBalance",
					"outputs": [],
					"stateMutability": "nonpayable",
					"type": "function"
				},
				{
					"inputs": [
						{
							"internalType": "address",
							"name": "",
							"type": "address"
						}
					],
					"name": "whitelisted",
					"outputs": [
						{
							"internalType": "bool",
							"name": "",
							"type": "bool"
						}
					],
					"stateMutability": "view",
					"type": "function"
				}
			],
			"devdoc": {
				"kind": "dev",
				"methods": {},
				"version": 1
			},
			"evm": {
				"assembly": "    /* \"puz.sol\":736:2755  contract PuzzleWallet {... */\n  mstore(0x40, 0x80)\n  callvalue\n  dup1\n  iszero\n  tag_1\n  jumpi\n  0x00\n  dup1\n  revert\ntag_1:\n  pop\n  dataSize(sub_0)\n  dup1\n  dataOffset(sub_0)\n  0x00\n  codecopy\n  0x00\n  return\nstop\n\nsub_0: assembly {\n        /* \"puz.sol\":736:2755  contract PuzzleWallet {... */\n      mstore(0x40, 0x80)\n      jumpi(tag_1, lt(calldatasize, 0x04))\n      shr(0xe0, calldataload(0x00))\n      dup1\n      0xb61d27f6\n      gt\n      tag_12\n      jumpi\n      dup1\n      0xb61d27f6\n      eq\n      tag_7\n      jumpi\n      dup1\n      0xb7b0422d\n      eq\n      tag_8\n      jumpi\n      dup1\n      0xd0e30db0\n      eq\n      tag_9\n      jumpi\n      dup1\n      0xd936547e\n      eq\n      tag_10\n      jumpi\n      dup1\n      0xe43252d7\n      eq\n      tag_11\n      jumpi\n      jump(tag_1)\n    tag_12:\n      dup1\n      0x27e235e3\n      eq\n      tag_2\n      jumpi\n      dup1\n      0x73ad468a\n      eq\n      tag_3\n      jumpi\n      dup1\n      0x8da5cb5b\n      eq\n      tag_4\n      jumpi\n      dup1\n      0x9d51d9b7\n      eq\n      tag_5\n      jumpi\n      dup1\n      0xac9650d8\n      eq\n      tag_6\n      jumpi\n    tag_1:\n      0x00\n      dup1\n      revert\n        /* \"puz.sol\":870:913  mapping(address => uint256) public balances */\n    tag_2:\n      callvalue\n      dup1\n      iszero\n      tag_13\n      jumpi\n      0x00\n      dup1\n      revert\n    tag_13:\n      pop\n      tag_14\n      0x04\n      dup1\n      calldatasize\n      sub\n      dup2\n      add\n      swap1\n      tag_15\n      swap2\n      swap1\n      tag_16\n      jump\t// in\n    tag_15:\n      tag_17\n      jump\t// in\n    tag_14:\n      mload(0x40)\n      tag_18\n      swap2\n      swap1\n      tag_19\n      jump\t// in\n    tag_18:\n      mload(0x40)\n      dup1\n      swap2\n      sub\n      swap1\n      return\n        /* \"puz.sol\":790:815  uint256 public maxBalance */\n    tag_3:\n      callvalue\n      dup1\n      iszero\n      tag_20\n      jumpi\n      0x00\n      dup1\n      revert\n    tag_20:\n      pop\n      tag_21\n      tag_22\n      jump\t// in\n    tag_21:\n      mload(0x40)\n      tag_23\n      swap2\n      swap1\n      tag_19\n      jump\t// in\n    tag_23:\n      mload(0x40)\n      dup1\n      swap2\n      sub\n      swap1\n      return\n        /* \"puz.sol\":764:784  address public owner */\n    tag_4:\n      callvalue\n      dup1\n      iszero\n      tag_24\n      jumpi\n      0x00\n      dup1\n      revert\n    tag_24:\n      pop\n      tag_25\n      tag_26\n      jump\t// in\n    tag_25:\n      mload(0x40)\n      tag_27\n      swap2\n      swap1\n      tag_28\n      jump\t// in\n    tag_27:\n      mload(0x40)\n      dup1\n      swap2\n      sub\n      swap1\n      return\n        /* \"puz.sol\":1206:1390  function setMaxBalance(uint256 _maxBalance) external onlyWhitelisted {... */\n    tag_5:\n      callvalue\n      dup1\n      iszero\n      tag_29\n      jumpi\n      0x00\n      dup1\n      revert\n    tag_29:\n      pop\n      tag_30\n      0x04\n      dup1\n      calldatasize\n      sub\n      dup2\n      add\n      swap1\n      tag_31\n      swap2\n      swap1\n      tag_32\n      jump\t// in\n    tag_31:\n      tag_33\n      jump\t// in\n    tag_30:\n      stop\n        /* \"puz.sol\":2053:2753  function multicall(bytes[] calldata data) external payable onlyWhitelisted {... */\n    tag_6:\n      tag_34\n      0x04\n      dup1\n      calldatasize\n      sub\n      dup2\n      add\n      swap1\n      tag_35\n      swap2\n      swap1\n      tag_36\n      jump\t// in\n    tag_35:\n      tag_37\n      jump\t// in\n    tag_34:\n      stop\n        /* \"puz.sol\":1730:2047  function execute(address to, uint256 value, bytes calldata data) external payable onlyWhitelisted {... */\n    tag_7:\n      tag_38\n      0x04\n      dup1\n      calldatasize\n      sub\n      dup2\n      add\n      swap1\n      tag_39\n      swap2\n      swap1\n      tag_40\n      jump\t// in\n    tag_39:\n      tag_41\n      jump\t// in\n    tag_38:\n      stop\n        /* \"puz.sol\":920:1088  function init(uint256 _maxBalance) public {... */\n    tag_8:\n      callvalue\n      dup1\n      iszero\n      tag_42\n      jumpi\n      0x00\n      dup1\n      revert\n    tag_42:\n      pop\n      tag_43\n      0x04\n      dup1\n      calldatasize\n      sub\n      dup2\n      add\n      swap1\n      tag_44\n      swap2\n      swap1\n      tag_32\n      jump\t// in\n    tag_44:\n      tag_45\n      jump\t// in\n    tag_43:\n      stop\n        /* \"puz.sol\":1545:1724  function deposit() external payable onlyWhitelisted {... */\n    tag_9:\n      tag_46\n      tag_47\n      jump\t// in\n    tag_46:\n      stop\n        /* \"puz.sol\":821:864  mapping(address => bool) public whitelisted */\n    tag_10:\n      callvalue\n      dup1\n      iszero\n      tag_48\n      jumpi\n      0x00\n      dup1\n      revert\n    tag_48:\n      pop\n      tag_49\n      0x04\n      dup1\n      calldatasize\n      sub\n      dup2\n      add\n      swap1\n      tag_50\n      swap2\n      swap1\n      tag_16\n      jump\t// in\n    tag_50:\n      tag_51\n      jump\t// in\n    tag_49:\n      mload(0x40)\n      tag_52\n      swap2\n      swap1\n      tag_53\n      jump\t// in\n    tag_52:\n      mload(0x40)\n      dup1\n      swap2\n      sub\n      swap1\n      return\n        /* \"puz.sol\":1396:1539  function addToWhitelist(address addr) external {... */\n    tag_11:\n      callvalue\n      dup1\n      iszero\n      tag_54\n      jumpi\n      0x00\n      dup1\n      revert\n    tag_54:\n      pop\n      tag_55\n      0x04\n      dup1\n      calldatasize\n      sub\n      dup2\n      add\n      swap1\n      tag_56\n      swap2\n      swap1\n      tag_16\n      jump\t// in\n    tag_56:\n      tag_57\n      jump\t// in\n    tag_55:\n      stop\n        /* \"puz.sol\":870:913  mapping(address => uint256) public balances */\n    tag_17:\n      mstore(0x20, 0x03)\n      dup1\n      0x00\n      mstore\n      keccak256(0x00, 0x40)\n      0x00\n      swap2\n      pop\n      swap1\n      pop\n      sload\n      dup2\n      jump\t// out\n        /* \"puz.sol\":790:815  uint256 public maxBalance */\n    tag_22:\n      sload(0x01)\n      dup2\n      jump\t// out\n        /* \"puz.sol\":764:784  address public owner */\n    tag_26:\n      0x00\n      dup1\n      sload\n      swap1\n      0x0100\n      exp\n      swap1\n      div\n      0xffffffffffffffffffffffffffffffffffffffff\n      and\n      dup2\n      jump\t// out\n        /* \"puz.sol\":1206:1390  function setMaxBalance(uint256 _maxBalance) external onlyWhitelisted {... */\n    tag_33:\n        /* \"puz.sol\":1139:1150  whitelisted */\n      0x02\n        /* \"puz.sol\":1139:1162  whitelisted[msg.sender] */\n      0x00\n        /* \"puz.sol\":1151:1161  msg.sender */\n      caller\n        /* \"puz.sol\":1139:1162  whitelisted[msg.sender] */\n      0xffffffffffffffffffffffffffffffffffffffff\n      and\n      0xffffffffffffffffffffffffffffffffffffffff\n      and\n      dup2\n      mstore\n      0x20\n      add\n      swap1\n      dup2\n      mstore\n      0x20\n      add\n      0x00\n      keccak256\n      0x00\n      swap1\n      sload\n      swap1\n      0x0100\n      exp\n      swap1\n      div\n      0xff\n      and\n        /* \"puz.sol\":1131:1182  require(whitelisted[msg.sender], \"Not whitelisted\") */\n      tag_59\n      jumpi\n      mload(0x40)\n      0x08c379a000000000000000000000000000000000000000000000000000000000\n      dup2\n      mstore\n      0x04\n      add\n      tag_60\n      swap1\n      tag_61\n      jump\t// in\n    tag_60:\n      mload(0x40)\n      dup1\n      swap2\n      sub\n      swap1\n      revert\n    tag_59:\n        /* \"puz.sol\":1318:1319  0 */\n      0x00\n        /* \"puz.sol\":1293:1314  address(this).balance */\n      selfbalance\n        /* \"puz.sol\":1293:1319  address(this).balance == 0 */\n      eq\n        /* \"puz.sol\":1285:1349  require(address(this).balance == 0, \"Contract balance is not 0\") */\n      tag_63\n      jumpi\n      mload(0x40)\n      0x08c379a000000000000000000000000000000000000000000000000000000000\n      dup2\n      mstore\n      0x04\n      add\n      tag_64\n      swap1\n      tag_65\n      jump\t// in\n    tag_64:\n      mload(0x40)\n      dup1\n      swap2\n      sub\n      swap1\n      revert\n    tag_63:\n        /* \"puz.sol\":1372:1383  _maxBalance */\n      dup1\n        /* \"puz.sol\":1359:1369  maxBalance */\n      0x01\n        /* \"puz.sol\":1359:1383  maxBalance = _maxBalance */\n      dup2\n      swap1\n      sstore\n      pop\n        /* \"puz.sol\":1206:1390  function setMaxBalance(uint256 _maxBalance) external onlyWhitelisted {... */\n      pop\n      jump\t// out\n        /* \"puz.sol\":2053:2753  function multicall(bytes[] calldata data) external payable onlyWhitelisted {... */\n    tag_37:\n        /* \"puz.sol\":1139:1150  whitelisted */\n      0x02\n        /* \"puz.sol\":1139:1162  whitelisted[msg.sender] */\n      0x00\n        /* \"puz.sol\":1151:1161  msg.sender */\n      caller\n        /* \"puz.sol\":1139:1162  whitelisted[msg.sender] */\n      0xffffffffffffffffffffffffffffffffffffffff\n      and\n      0xffffffffffffffffffffffffffffffffffffffff\n      and\n      dup2\n      mstore\n      0x20\n      add\n      swap1\n      dup2\n      mstore\n      0x20\n      add\n      0x00\n      keccak256\n      0x00\n      swap1\n      sload\n      swap1\n      0x0100\n      exp\n      swap1\n      div\n      0xff\n      and\n        /* \"puz.sol\":1131:1182  require(whitelisted[msg.sender], \"Not whitelisted\") */\n      tag_67\n      jumpi\n      mload(0x40)\n      0x08c379a000000000000000000000000000000000000000000000000000000000\n      dup2\n      mstore\n      0x04\n      add\n      tag_68\n      swap1\n      tag_61\n      jump\t// in\n    tag_68:\n      mload(0x40)\n      dup1\n      swap2\n      sub\n      swap1\n      revert\n    tag_67:\n        /* \"puz.sol\":2138:2156  bool depositCalled */\n      0x00\n        /* \"puz.sol\":2179:2188  uint256 i */\n      dup1\n        /* \"puz.sol\":2174:2747  for (uint256 i = 0; i < data.length; i++) {... */\n    tag_70:\n        /* \"puz.sol\":2198:2202  data */\n      dup4\n      dup4\n        /* \"puz.sol\":2198:2209  data.length */\n      swap1\n      pop\n        /* \"puz.sol\":2194:2195  i */\n      dup2\n        /* \"puz.sol\":2194:2209  i < data.length */\n      lt\n        /* \"puz.sol\":2174:2747  for (uint256 i = 0; i < data.length; i++) {... */\n      iszero\n      tag_71\n      jumpi\n        /* \"puz.sol\":2230:2248  bytes memory _data */\n      0x00\n        /* \"puz.sol\":2251:2255  data */\n      dup5\n      dup5\n        /* \"puz.sol\":2256:2257  i */\n      dup4\n        /* \"puz.sol\":2251:2258  data[i] */\n      dup2\n      dup2\n      lt\n      tag_73\n      jumpi\n      tag_74\n      tag_75\n      jump\t// in\n    tag_74:\n    tag_73:\n      swap1\n      pop\n      0x20\n      mul\n      dup2\n      add\n      swap1\n      tag_76\n      swap2\n      swap1\n      tag_77\n      jump\t// in\n    tag_76:\n        /* \"puz.sol\":2230:2258  bytes memory _data = data[i] */\n      dup1\n      dup1\n      0x1f\n      add\n      0x20\n      dup1\n      swap2\n      div\n      mul\n      0x20\n      add\n      mload(0x40)\n      swap1\n      dup2\n      add\n      0x40\n      mstore\n      dup1\n      swap4\n      swap3\n      swap2\n      swap1\n      dup2\n      dup2\n      mstore\n      0x20\n      add\n      dup4\n      dup4\n      dup1\n      dup3\n      dup5\n      calldatacopy\n      0x00\n      dup2\n      dup5\n      add\n      mstore\n      not(0x1f)\n      0x1f\n      dup3\n      add\n      and\n      swap1\n      pop\n      dup1\n      dup4\n      add\n      swap3\n      pop\n      pop\n      pop\n      pop\n      pop\n      pop\n      pop\n      swap1\n      pop\n        /* \"puz.sol\":2272:2287  bytes4 selector */\n      0x00\n        /* \"puz.sol\":2357:2359  32 */\n      0x20\n        /* \"puz.sol\":2350:2355  _data */\n      dup3\n        /* \"puz.sol\":2346:2360  add(_data, 32) */\n      add\n        /* \"puz.sol\":2340:2361  mload(add(_data, 32)) */\n      mload\n        /* \"puz.sol\":2328:2361  selector := mload(add(_data, 32)) */\n      swap1\n      pop\n        /* \"puz.sol\":2404:2425  this.deposit.selector */\n      shl(0xe0, 0xd0e30db0)\n        /* \"puz.sol\":2392:2425  selector == this.deposit.selector */\n      not(0xffffffffffffffffffffffffffffffffffffffffffffffffffffffff)\n      and\n        /* \"puz.sol\":2392:2400  selector */\n      dup2\n        /* \"puz.sol\":2392:2425  selector == this.deposit.selector */\n      not(0xffffffffffffffffffffffffffffffffffffffffffffffffffffffff)\n      and\n      sub\n        /* \"puz.sol\":2388:2609  if (selector == this.deposit.selector) {... */\n      tag_78\n      jumpi\n        /* \"puz.sol\":2454:2467  depositCalled */\n      dup4\n        /* \"puz.sol\":2453:2467  !depositCalled */\n      iszero\n        /* \"puz.sol\":2445:2503  require(!depositCalled, \"Deposit can only be called once\") */\n      tag_79\n      jumpi\n      mload(0x40)\n      0x08c379a000000000000000000000000000000000000000000000000000000000\n      dup2\n      mstore\n      0x04\n      add\n      tag_80\n      swap1\n      tag_81\n      jump\t// in\n    tag_80:\n      mload(0x40)\n      dup1\n      swap2\n      sub\n      swap1\n      revert\n    tag_79:\n        /* \"puz.sol\":2590:2594  true */\n      0x01\n        /* \"puz.sol\":2574:2594  depositCalled = true */\n      swap4\n      pop\n        /* \"puz.sol\":2388:2609  if (selector == this.deposit.selector) {... */\n    tag_78:\n        /* \"puz.sol\":2623:2635  bool success */\n      0x00\n        /* \"puz.sol\":2648:2652  this */\n      address\n        /* \"puz.sol\":2640:2666  address(this).delegatecall */\n      0xffffffffffffffffffffffffffffffffffffffff\n      and\n        /* \"puz.sol\":2667:2671  data */\n      dup8\n      dup8\n        /* \"puz.sol\":2672:2673  i */\n      dup7\n        /* \"puz.sol\":2667:2674  data[i] */\n      dup2\n      dup2\n      lt\n      tag_82\n      jumpi\n      tag_83\n      tag_75\n      jump\t// in\n    tag_83:\n    tag_82:\n      swap1\n      pop\n      0x20\n      mul\n      dup2\n      add\n      swap1\n      tag_84\n      swap2\n      swap1\n      tag_77\n      jump\t// in\n    tag_84:\n        /* \"puz.sol\":2640:2675  address(this).delegatecall(data[i]) */\n      mload(0x40)\n      tag_85\n      swap3\n      swap2\n      swap1\n      tag_86\n      jump\t// in\n    tag_85:\n      0x00\n      mload(0x40)\n      dup1\n      dup4\n      sub\n      dup2\n      dup6\n      gas\n      delegatecall\n      swap2\n      pop\n      pop\n      returndatasize\n      dup1\n      0x00\n      dup2\n      eq\n      tag_89\n      jumpi\n      mload(0x40)\n      swap2\n      pop\n      and(add(returndatasize, 0x3f), not(0x1f))\n      dup3\n      add\n      0x40\n      mstore\n      returndatasize\n      dup3\n      mstore\n      returndatasize\n      0x00\n      0x20\n      dup5\n      add\n      returndatacopy\n      jump(tag_88)\n    tag_89:\n      0x60\n      swap2\n      pop\n    tag_88:\n      pop\n        /* \"puz.sol\":2622:2675  (bool success,) = address(this).delegatecall(data[i]) */\n      pop\n      swap1\n      pop\n        /* \"puz.sol\":2697:2704  success */\n      dup1\n        /* \"puz.sol\":2689:2736  require(success, \"Error while delegating call\") */\n      tag_90\n      jumpi\n      mload(0x40)\n      0x08c379a000000000000000000000000000000000000000000000000000000000\n      dup2\n      mstore\n      0x04\n      add\n      tag_91\n      swap1\n      tag_92\n      jump\t// in\n    tag_91:\n      mload(0x40)\n      dup1\n      swap2\n      sub\n      swap1\n      revert\n    tag_90:\n        /* \"puz.sol\":2216:2747  {... */\n      pop\n      pop\n      pop\n        /* \"puz.sol\":2211:2214  i++ */\n      dup1\n      dup1\n      0x01\n      add\n      swap2\n      pop\n      pop\n        /* \"puz.sol\":2174:2747  for (uint256 i = 0; i < data.length; i++) {... */\n      jump(tag_70)\n    tag_71:\n      pop\n        /* \"puz.sol\":2128:2753  {... */\n      pop\n        /* \"puz.sol\":2053:2753  function multicall(bytes[] calldata data) external payable onlyWhitelisted {... */\n      pop\n      pop\n      jump\t// out\n        /* \"puz.sol\":1730:2047  function execute(address to, uint256 value, bytes calldata data) external payable onlyWhitelisted {... */\n    tag_41:\n        /* \"puz.sol\":1139:1150  whitelisted */\n      0x02\n        /* \"puz.sol\":1139:1162  whitelisted[msg.sender] */\n      0x00\n        /* \"puz.sol\":1151:1161  msg.sender */\n      caller\n        /* \"puz.sol\":1139:1162  whitelisted[msg.sender] */\n      0xffffffffffffffffffffffffffffffffffffffff\n      and\n      0xffffffffffffffffffffffffffffffffffffffff\n      and\n      dup2\n      mstore\n      0x20\n      add\n      swap1\n      dup2\n      mstore\n      0x20\n      add\n      0x00\n      keccak256\n      0x00\n      swap1\n      sload\n      swap1\n      0x0100\n      exp\n      swap1\n      div\n      0xff\n      and\n        /* \"puz.sol\":1131:1182  require(whitelisted[msg.sender], \"Not whitelisted\") */\n      tag_94\n      jumpi\n      mload(0x40)\n      0x08c379a000000000000000000000000000000000000000000000000000000000\n      dup2\n      mstore\n      0x04\n      add\n      tag_95\n      swap1\n      tag_61\n      jump\t// in\n    tag_95:\n      mload(0x40)\n      dup1\n      swap2\n      sub\n      swap1\n      revert\n    tag_94:\n        /* \"puz.sol\":1870:1875  value */\n      dup3\n        /* \"puz.sol\":1846:1854  balances */\n      0x03\n        /* \"puz.sol\":1846:1866  balances[msg.sender] */\n      0x00\n        /* \"puz.sol\":1855:1865  msg.sender */\n      caller\n        /* \"puz.sol\":1846:1866  balances[msg.sender] */\n      0xffffffffffffffffffffffffffffffffffffffff\n      and\n      0xffffffffffffffffffffffffffffffffffffffff\n      and\n      dup2\n      mstore\n      0x20\n      add\n      swap1\n      dup2\n      mstore\n      0x20\n      add\n      0x00\n      keccak256\n      sload\n        /* \"puz.sol\":1846:1875  balances[msg.sender] >= value */\n      lt\n      iszero\n        /* \"puz.sol\":1838:1900  require(balances[msg.sender] >= value, \"Insufficient balance\") */\n      tag_97\n      jumpi\n      mload(0x40)\n      0x08c379a000000000000000000000000000000000000000000000000000000000\n      dup2\n      mstore\n      0x04\n      add\n      tag_98\n      swap1\n      tag_99\n      jump\t// in\n    tag_98:\n      mload(0x40)\n      dup1\n      swap2\n      sub\n      swap1\n      revert\n    tag_97:\n        /* \"puz.sol\":1934:1939  value */\n      dup3\n        /* \"puz.sol\":1910:1918  balances */\n      0x03\n        /* \"puz.sol\":1910:1930  balances[msg.sender] */\n      0x00\n        /* \"puz.sol\":1919:1929  msg.sender */\n      caller\n        /* \"puz.sol\":1910:1930  balances[msg.sender] */\n      0xffffffffffffffffffffffffffffffffffffffff\n      and\n      0xffffffffffffffffffffffffffffffffffffffff\n      and\n      dup2\n      mstore\n      0x20\n      add\n      swap1\n      dup2\n      mstore\n      0x20\n      add\n      0x00\n      keccak256\n      0x00\n        /* \"puz.sol\":1910:1939  balances[msg.sender] -= value */\n      dup3\n      dup3\n      sload\n      tag_100\n      swap2\n      swap1\n      tag_101\n      jump\t// in\n    tag_100:\n      swap3\n      pop\n      pop\n      dup2\n      swap1\n      sstore\n      pop\n        /* \"puz.sol\":1950:1962  bool success */\n      0x00\n        /* \"puz.sol\":1967:1969  to */\n      dup5\n        /* \"puz.sol\":1967:1974  to.call */\n      0xffffffffffffffffffffffffffffffffffffffff\n      and\n        /* \"puz.sol\":1982:1987  value */\n      dup5\n        /* \"puz.sol\":1989:1993  data */\n      dup5\n      dup5\n        /* \"puz.sol\":1967:1994  to.call{value: value}(data) */\n      mload(0x40)\n      tag_102\n      swap3\n      swap2\n      swap1\n      tag_86\n      jump\t// in\n    tag_102:\n      0x00\n      mload(0x40)\n      dup1\n      dup4\n      sub\n      dup2\n      dup6\n      dup8\n      gas\n      call\n      swap3\n      pop\n      pop\n      pop\n      returndatasize\n      dup1\n      0x00\n      dup2\n      eq\n      tag_105\n      jumpi\n      mload(0x40)\n      swap2\n      pop\n      and(add(returndatasize, 0x3f), not(0x1f))\n      dup3\n      add\n      0x40\n      mstore\n      returndatasize\n      dup3\n      mstore\n      returndatasize\n      0x00\n      0x20\n      dup5\n      add\n      returndatacopy\n      jump(tag_104)\n    tag_105:\n      0x60\n      swap2\n      pop\n    tag_104:\n      pop\n        /* \"puz.sol\":1949:1994  (bool success,) = to.call{value: value}(data) */\n      pop\n      swap1\n      pop\n        /* \"puz.sol\":2012:2019  success */\n      dup1\n        /* \"puz.sol\":2004:2040  require(success, \"Execution failed\") */\n      tag_106\n      jumpi\n      mload(0x40)\n      0x08c379a000000000000000000000000000000000000000000000000000000000\n      dup2\n      mstore\n      0x04\n      add\n      tag_107\n      swap1\n      tag_108\n      jump\t// in\n    tag_107:\n      mload(0x40)\n      dup1\n      swap2\n      sub\n      swap1\n      revert\n    tag_106:\n        /* \"puz.sol\":1828:2047  {... */\n      pop\n        /* \"puz.sol\":1730:2047  function execute(address to, uint256 value, bytes calldata data) external payable onlyWhitelisted {... */\n      pop\n      pop\n      pop\n      pop\n      jump\t// out\n        /* \"puz.sol\":920:1088  function init(uint256 _maxBalance) public {... */\n    tag_45:\n        /* \"puz.sol\":994:995  0 */\n      0x00\n        /* \"puz.sol\":980:990  maxBalance */\n      sload(0x01)\n        /* \"puz.sol\":980:995  maxBalance == 0 */\n      eq\n        /* \"puz.sol\":972:1019  require(maxBalance == 0, \"Already initialized\") */\n      tag_110\n      jumpi\n      mload(0x40)\n      0x08c379a000000000000000000000000000000000000000000000000000000000\n      dup2\n      mstore\n      0x04\n      add\n      tag_111\n      swap1\n      tag_112\n      jump\t// in\n    tag_111:\n      mload(0x40)\n      dup1\n      swap2\n      sub\n      swap1\n      revert\n    tag_110:\n        /* \"puz.sol\":1042:1053  _maxBalance */\n      dup1\n        /* \"puz.sol\":1029:1039  maxBalance */\n      0x01\n        /* \"puz.sol\":1029:1053  maxBalance = _maxBalance */\n      dup2\n      swap1\n      sstore\n      pop\n        /* \"puz.sol\":1071:1081  msg.sender */\n      caller\n        /* \"puz.sol\":1063:1068  owner */\n      0x00\n      dup1\n        /* \"puz.sol\":1063:1081  owner = msg.sender */\n      0x0100\n      exp\n      dup2\n      sload\n      dup2\n      0xffffffffffffffffffffffffffffffffffffffff\n      mul\n      not\n      and\n      swap1\n      dup4\n      0xffffffffffffffffffffffffffffffffffffffff\n      and\n      mul\n      or\n      swap1\n      sstore\n      pop\n        /* \"puz.sol\":920:1088  function init(uint256 _maxBalance) public {... */\n      pop\n      jump\t// out\n        /* \"puz.sol\":1545:1724  function deposit() external payable onlyWhitelisted {... */\n    tag_47:\n        /* \"puz.sol\":1139:1150  whitelisted */\n      0x02\n        /* \"puz.sol\":1139:1162  whitelisted[msg.sender] */\n      0x00\n        /* \"puz.sol\":1151:1161  msg.sender */\n      caller\n        /* \"puz.sol\":1139:1162  whitelisted[msg.sender] */\n      0xffffffffffffffffffffffffffffffffffffffff\n      and\n      0xffffffffffffffffffffffffffffffffffffffff\n      and\n      dup2\n      mstore\n      0x20\n      add\n      swap1\n      dup2\n      mstore\n      0x20\n      add\n      0x00\n      keccak256\n      0x00\n      swap1\n      sload\n      swap1\n      0x0100\n      exp\n      swap1\n      div\n      0xff\n      and\n        /* \"puz.sol\":1131:1182  require(whitelisted[msg.sender], \"Not whitelisted\") */\n      tag_114\n      jumpi\n      mload(0x40)\n      0x08c379a000000000000000000000000000000000000000000000000000000000\n      dup2\n      mstore\n      0x04\n      add\n      tag_115\n      swap1\n      tag_61\n      jump\t// in\n    tag_115:\n      mload(0x40)\n      dup1\n      swap2\n      sub\n      swap1\n      revert\n    tag_114:\n        /* \"puz.sol\":1640:1650  maxBalance */\n      sload(0x01)\n        /* \"puz.sol\":1615:1636  address(this).balance */\n      selfbalance\n        /* \"puz.sol\":1615:1650  address(this).balance <= maxBalance */\n      gt\n      iszero\n        /* \"puz.sol\":1607:1674  require(address(this).balance <= maxBalance, \"Max balance reached\") */\n      tag_117\n      jumpi\n      mload(0x40)\n      0x08c379a000000000000000000000000000000000000000000000000000000000\n      dup2\n      mstore\n      0x04\n      add\n      tag_118\n      swap1\n      tag_119\n      jump\t// in\n    tag_118:\n      mload(0x40)\n      dup1\n      swap2\n      sub\n      swap1\n      revert\n    tag_117:\n        /* \"puz.sol\":1708:1717  msg.value */\n      callvalue\n        /* \"puz.sol\":1684:1692  balances */\n      0x03\n        /* \"puz.sol\":1684:1704  balances[msg.sender] */\n      0x00\n        /* \"puz.sol\":1693:1703  msg.sender */\n      caller\n        /* \"puz.sol\":1684:1704  balances[msg.sender] */\n      0xffffffffffffffffffffffffffffffffffffffff\n      and\n      0xffffffffffffffffffffffffffffffffffffffff\n      and\n      dup2\n      mstore\n      0x20\n      add\n      swap1\n      dup2\n      mstore\n      0x20\n      add\n      0x00\n      keccak256\n      0x00\n        /* \"puz.sol\":1684:1717  balances[msg.sender] += msg.value */\n      dup3\n      dup3\n      sload\n      tag_120\n      swap2\n      swap1\n      tag_121\n      jump\t// in\n    tag_120:\n      swap3\n      pop\n      pop\n      dup2\n      swap1\n      sstore\n      pop\n        /* \"puz.sol\":1545:1724  function deposit() external payable onlyWhitelisted {... */\n      jump\t// out\n        /* \"puz.sol\":821:864  mapping(address => bool) public whitelisted */\n    tag_51:\n      mstore(0x20, 0x02)\n      dup1\n      0x00\n      mstore\n      keccak256(0x00, 0x40)\n      0x00\n      swap2\n      pop\n      sload\n      swap1\n      0x0100\n      exp\n      swap1\n      div\n      0xff\n      and\n      dup2\n      jump\t// out\n        /* \"puz.sol\":1396:1539  function addToWhitelist(address addr) external {... */\n    tag_57:\n        /* \"puz.sol\":1475:1480  owner */\n      0x00\n      dup1\n      sload\n      swap1\n      0x0100\n      exp\n      swap1\n      div\n      0xffffffffffffffffffffffffffffffffffffffff\n      and\n        /* \"puz.sol\":1461:1480  msg.sender == owner */\n      0xffffffffffffffffffffffffffffffffffffffff\n      and\n        /* \"puz.sol\":1461:1471  msg.sender */\n      caller\n        /* \"puz.sol\":1461:1480  msg.sender == owner */\n      0xffffffffffffffffffffffffffffffffffffffff\n      and\n      eq\n        /* \"puz.sol\":1453:1498  require(msg.sender == owner, \"Not the owner\") */\n      tag_123\n      jumpi\n      mload(0x40)\n      0x08c379a000000000000000000000000000000000000000000000000000000000\n      dup2\n      mstore\n      0x04\n      add\n      tag_124\n      swap1\n      tag_125\n      jump\t// in\n    tag_124:\n      mload(0x40)\n      dup1\n      swap2\n      sub\n      swap1\n      revert\n    tag_123:\n        /* \"puz.sol\":1528:1532  true */\n      0x01\n        /* \"puz.sol\":1508:1519  whitelisted */\n      0x02\n        /* \"puz.sol\":1508:1525  whitelisted[addr] */\n      0x00\n        /* \"puz.sol\":1520:1524  addr */\n      dup4\n        /* \"puz.sol\":1508:1525  whitelisted[addr] */\n      0xffffffffffffffffffffffffffffffffffffffff\n      and\n      0xffffffffffffffffffffffffffffffffffffffff\n      and\n      dup2\n      mstore\n      0x20\n      add\n      swap1\n      dup2\n      mstore\n      0x20\n      add\n      0x00\n      keccak256\n      0x00\n        /* \"puz.sol\":1508:1532  whitelisted[addr] = true */\n      0x0100\n      exp\n      dup2\n      sload\n      dup2\n      0xff\n      mul\n      not\n      and\n      swap1\n      dup4\n      iszero\n      iszero\n      mul\n      or\n      swap1\n      sstore\n      pop\n        /* \"puz.sol\":1396:1539  function addToWhitelist(address addr) external {... */\n      pop\n      jump\t// out\n        /* \"#utility.yul\":88:205   */\n    tag_127:\n        /* \"#utility.yul\":197:198   */\n      0x00\n        /* \"#utility.yul\":194:195   */\n      dup1\n        /* \"#utility.yul\":187:199   */\n      revert\n        /* \"#utility.yul\":211:328   */\n    tag_128:\n        /* \"#utility.yul\":320:321   */\n      0x00\n        /* \"#utility.yul\":317:318   */\n      dup1\n        /* \"#utility.yul\":310:322   */\n      revert\n        /* \"#utility.yul\":334:460   */\n    tag_129:\n        /* \"#utility.yul\":371:378   */\n      0x00\n        /* \"#utility.yul\":411:453   */\n      0xffffffffffffffffffffffffffffffffffffffff\n        /* \"#utility.yul\":404:409   */\n      dup3\n        /* \"#utility.yul\":400:454   */\n      and\n        /* \"#utility.yul\":389:454   */\n      swap1\n      pop\n        /* \"#utility.yul\":334:460   */\n      swap2\n      swap1\n      pop\n      jump\t// out\n        /* \"#utility.yul\":466:562   */\n    tag_130:\n        /* \"#utility.yul\":503:510   */\n      0x00\n        /* \"#utility.yul\":532:556   */\n      tag_177\n        /* \"#utility.yul\":550:555   */\n      dup3\n        /* \"#utility.yul\":532:556   */\n      tag_129\n      jump\t// in\n    tag_177:\n        /* \"#utility.yul\":521:556   */\n      swap1\n      pop\n        /* \"#utility.yul\":466:562   */\n      swap2\n      swap1\n      pop\n      jump\t// out\n        /* \"#utility.yul\":568:690   */\n    tag_131:\n        /* \"#utility.yul\":641:665   */\n      tag_179\n        /* \"#utility.yul\":659:664   */\n      dup2\n        /* \"#utility.yul\":641:665   */\n      tag_130\n      jump\t// in\n    tag_179:\n        /* \"#utility.yul\":634:639   */\n      dup2\n        /* \"#utility.yul\":631:666   */\n      eq\n        /* \"#utility.yul\":621:684   */\n      tag_180\n      jumpi\n        /* \"#utility.yul\":680:681   */\n      0x00\n        /* \"#utility.yul\":677:678   */\n      dup1\n        /* \"#utility.yul\":670:682   */\n      revert\n        /* \"#utility.yul\":621:684   */\n    tag_180:\n        /* \"#utility.yul\":568:690   */\n      pop\n      jump\t// out\n        /* \"#utility.yul\":696:835   */\n    tag_132:\n        /* \"#utility.yul\":742:747   */\n      0x00\n        /* \"#utility.yul\":780:786   */\n      dup2\n        /* \"#utility.yul\":767:787   */\n      calldataload\n        /* \"#utility.yul\":758:787   */\n      swap1\n      pop\n        /* \"#utility.yul\":796:829   */\n      tag_182\n        /* \"#utility.yul\":823:828   */\n      dup2\n        /* \"#utility.yul\":796:829   */\n      tag_131\n      jump\t// in\n    tag_182:\n        /* \"#utility.yul\":696:835   */\n      swap3\n      swap2\n      pop\n      pop\n      jump\t// out\n        /* \"#utility.yul\":841:1170   */\n    tag_16:\n        /* \"#utility.yul\":900:906   */\n      0x00\n        /* \"#utility.yul\":949:951   */\n      0x20\n        /* \"#utility.yul\":937:946   */\n      dup3\n        /* \"#utility.yul\":928:935   */\n      dup5\n        /* \"#utility.yul\":924:947   */\n      sub\n        /* \"#utility.yul\":920:952   */\n      slt\n        /* \"#utility.yul\":917:1036   */\n      iszero\n      tag_184\n      jumpi\n        /* \"#utility.yul\":955:1034   */\n      tag_185\n      tag_127\n      jump\t// in\n    tag_185:\n        /* \"#utility.yul\":917:1036   */\n    tag_184:\n        /* \"#utility.yul\":1075:1076   */\n      0x00\n        /* \"#utility.yul\":1100:1153   */\n      tag_186\n        /* \"#utility.yul\":1145:1152   */\n      dup5\n        /* \"#utility.yul\":1136:1142   */\n      dup3\n        /* \"#utility.yul\":1125:1134   */\n      dup6\n        /* \"#utility.yul\":1121:1143   */\n      add\n        /* \"#utility.yul\":1100:1153   */\n      tag_132\n      jump\t// in\n    tag_186:\n        /* \"#utility.yul\":1090:1153   */\n      swap2\n      pop\n        /* \"#utility.yul\":1046:1163   */\n      pop\n        /* \"#utility.yul\":841:1170   */\n      swap3\n      swap2\n      pop\n      pop\n      jump\t// out\n        /* \"#utility.yul\":1176:1253   */\n    tag_133:\n        /* \"#utility.yul\":1213:1220   */\n      0x00\n        /* \"#utility.yul\":1242:1247   */\n      dup2\n        /* \"#utility.yul\":1231:1247   */\n      swap1\n      pop\n        /* \"#utility.yul\":1176:1253   */\n      swap2\n      swap1\n      pop\n      jump\t// out\n        /* \"#utility.yul\":1259:1377   */\n    tag_134:\n        /* \"#utility.yul\":1346:1370   */\n      tag_189\n        /* \"#utility.yul\":1364:1369   */\n      dup2\n        /* \"#utility.yul\":1346:1370   */\n      tag_133\n      jump\t// in\n    tag_189:\n        /* \"#utility.yul\":1341:1344   */\n      dup3\n        /* \"#utility.yul\":1334:1371   */\n      mstore\n        /* \"#utility.yul\":1259:1377   */\n      pop\n      pop\n      jump\t// out\n        /* \"#utility.yul\":1383:1605   */\n    tag_19:\n        /* \"#utility.yul\":1476:1480   */\n      0x00\n        /* \"#utility.yul\":1514:1516   */\n      0x20\n        /* \"#utility.yul\":1503:1512   */\n      dup3\n        /* \"#utility.yul\":1499:1517   */\n      add\n        /* \"#utility.yul\":1491:1517   */\n      swap1\n      pop\n        /* \"#utility.yul\":1527:1598   */\n      tag_191\n        /* \"#utility.yul\":1595:1596   */\n      0x00\n        /* \"#utility.yul\":1584:1593   */\n      dup4\n        /* \"#utility.yul\":1580:1597   */\n      add\n        /* \"#utility.yul\":1571:1577   */\n      dup5\n        /* \"#utility.yul\":1527:1598   */\n      tag_134\n      jump\t// in\n    tag_191:\n        /* \"#utility.yul\":1383:1605   */\n      swap3\n      swap2\n      pop\n      pop\n      jump\t// out\n        /* \"#utility.yul\":1611:1729   */\n    tag_135:\n        /* \"#utility.yul\":1698:1722   */\n      tag_193\n        /* \"#utility.yul\":1716:1721   */\n      dup2\n        /* \"#utility.yul\":1698:1722   */\n      tag_130\n      jump\t// in\n    tag_193:\n        /* \"#utility.yul\":1693:1696   */\n      dup3\n        /* \"#utility.yul\":1686:1723   */\n      mstore\n        /* \"#utility.yul\":1611:1729   */\n      pop\n      pop\n      jump\t// out\n        /* \"#utility.yul\":1735:1957   */\n    tag_28:\n        /* \"#utility.yul\":1828:1832   */\n      0x00\n        /* \"#utility.yul\":1866:1868   */\n      0x20\n        /* \"#utility.yul\":1855:1864   */\n      dup3\n        /* \"#utility.yul\":1851:1869   */\n      add\n        /* \"#utility.yul\":1843:1869   */\n      swap1\n      pop\n        /* \"#utility.yul\":1879:1950   */\n      tag_195\n        /* \"#utility.yul\":1947:1948   */\n      0x00\n        /* \"#utility.yul\":1936:1945   */\n      dup4\n        /* \"#utility.yul\":1932:1949   */\n      add\n        /* \"#utility.yul\":1923:1929   */\n      dup5\n        /* \"#utility.yul\":1879:1950   */\n      tag_135\n      jump\t// in\n    tag_195:\n        /* \"#utility.yul\":1735:1957   */\n      swap3\n      swap2\n      pop\n      pop\n      jump\t// out\n        /* \"#utility.yul\":1963:2085   */\n    tag_136:\n        /* \"#utility.yul\":2036:2060   */\n      tag_197\n        /* \"#utility.yul\":2054:2059   */\n      dup2\n        /* \"#utility.yul\":2036:2060   */\n      tag_133\n      jump\t// in\n    tag_197:\n        /* \"#utility.yul\":2029:2034   */\n      dup2\n        /* \"#utility.yul\":2026:2061   */\n      eq\n        /* \"#utility.yul\":2016:2079   */\n      tag_198\n      jumpi\n        /* \"#utility.yul\":2075:2076   */\n      0x00\n        /* \"#utility.yul\":2072:2073   */\n      dup1\n        /* \"#utility.yul\":2065:2077   */\n      revert\n        /* \"#utility.yul\":2016:2079   */\n    tag_198:\n        /* \"#utility.yul\":1963:2085   */\n      pop\n      jump\t// out\n        /* \"#utility.yul\":2091:2230   */\n    tag_137:\n        /* \"#utility.yul\":2137:2142   */\n      0x00\n        /* \"#utility.yul\":2175:2181   */\n      dup2\n        /* \"#utility.yul\":2162:2182   */\n      calldataload\n        /* \"#utility.yul\":2153:2182   */\n      swap1\n      pop\n        /* \"#utility.yul\":2191:2224   */\n      tag_200\n        /* \"#utility.yul\":2218:2223   */\n      dup2\n        /* \"#utility.yul\":2191:2224   */\n      tag_136\n      jump\t// in\n    tag_200:\n        /* \"#utility.yul\":2091:2230   */\n      swap3\n      swap2\n      pop\n      pop\n      jump\t// out\n        /* \"#utility.yul\":2236:2565   */\n    tag_32:\n        /* \"#utility.yul\":2295:2301   */\n      0x00\n        /* \"#utility.yul\":2344:2346   */\n      0x20\n        /* \"#utility.yul\":2332:2341   */\n      dup3\n        /* \"#utility.yul\":2323:2330   */\n      dup5\n        /* \"#utility.yul\":2319:2342   */\n      sub\n        /* \"#utility.yul\":2315:2347   */\n      slt\n        /* \"#utility.yul\":2312:2431   */\n      iszero\n      tag_202\n      jumpi\n        /* \"#utility.yul\":2350:2429   */\n      tag_203\n      tag_127\n      jump\t// in\n    tag_203:\n        /* \"#utility.yul\":2312:2431   */\n    tag_202:\n        /* \"#utility.yul\":2470:2471   */\n      0x00\n        /* \"#utility.yul\":2495:2548   */\n      tag_204\n        /* \"#utility.yul\":2540:2547   */\n      dup5\n        /* \"#utility.yul\":2531:2537   */\n      dup3\n        /* \"#utility.yul\":2520:2529   */\n      dup6\n        /* \"#utility.yul\":2516:2538   */\n      add\n        /* \"#utility.yul\":2495:2548   */\n      tag_137\n      jump\t// in\n    tag_204:\n        /* \"#utility.yul\":2485:2548   */\n      swap2\n      pop\n        /* \"#utility.yul\":2441:2558   */\n      pop\n        /* \"#utility.yul\":2236:2565   */\n      swap3\n      swap2\n      pop\n      pop\n      jump\t// out\n        /* \"#utility.yul\":2571:2688   */\n    tag_138:\n        /* \"#utility.yul\":2680:2681   */\n      0x00\n        /* \"#utility.yul\":2677:2678   */\n      dup1\n        /* \"#utility.yul\":2670:2682   */\n      revert\n        /* \"#utility.yul\":2694:2811   */\n    tag_139:\n        /* \"#utility.yul\":2803:2804   */\n      0x00\n        /* \"#utility.yul\":2800:2801   */\n      dup1\n        /* \"#utility.yul\":2793:2805   */\n      revert\n        /* \"#utility.yul\":2817:2934   */\n    tag_140:\n        /* \"#utility.yul\":2926:2927   */\n      0x00\n        /* \"#utility.yul\":2923:2924   */\n      dup1\n        /* \"#utility.yul\":2916:2928   */\n      revert\n        /* \"#utility.yul\":2955:3534   */\n    tag_141:\n        /* \"#utility.yul\":3039:3047   */\n      0x00\n        /* \"#utility.yul\":3049:3055   */\n      dup1\n        /* \"#utility.yul\":3099:3102   */\n      dup4\n        /* \"#utility.yul\":3092:3096   */\n      0x1f\n        /* \"#utility.yul\":3084:3090   */\n      dup5\n        /* \"#utility.yul\":3080:3097   */\n      add\n        /* \"#utility.yul\":3076:3103   */\n      slt\n        /* \"#utility.yul\":3066:3188   */\n      tag_209\n      jumpi\n        /* \"#utility.yul\":3107:3186   */\n      tag_210\n      tag_138\n      jump\t// in\n    tag_210:\n        /* \"#utility.yul\":3066:3188   */\n    tag_209:\n        /* \"#utility.yul\":3220:3226   */\n      dup3\n        /* \"#utility.yul\":3207:3227   */\n      calldataload\n        /* \"#utility.yul\":3197:3227   */\n      swap1\n      pop\n        /* \"#utility.yul\":3250:3268   */\n      0xffffffffffffffff\n        /* \"#utility.yul\":3242:3248   */\n      dup2\n        /* \"#utility.yul\":3239:3269   */\n      gt\n        /* \"#utility.yul\":3236:3353   */\n      iszero\n      tag_211\n      jumpi\n        /* \"#utility.yul\":3272:3351   */\n      tag_212\n      tag_139\n      jump\t// in\n    tag_212:\n        /* \"#utility.yul\":3236:3353   */\n    tag_211:\n        /* \"#utility.yul\":3386:3390   */\n      0x20\n        /* \"#utility.yul\":3378:3384   */\n      dup4\n        /* \"#utility.yul\":3374:3391   */\n      add\n        /* \"#utility.yul\":3362:3391   */\n      swap2\n      pop\n        /* \"#utility.yul\":3440:3443   */\n      dup4\n        /* \"#utility.yul\":3432:3436   */\n      0x20\n        /* \"#utility.yul\":3424:3430   */\n      dup3\n        /* \"#utility.yul\":3420:3437   */\n      mul\n        /* \"#utility.yul\":3410:3418   */\n      dup4\n        /* \"#utility.yul\":3406:3438   */\n      add\n        /* \"#utility.yul\":3403:3444   */\n      gt\n        /* \"#utility.yul\":3400:3528   */\n      iszero\n      tag_213\n      jumpi\n        /* \"#utility.yul\":3447:3526   */\n      tag_214\n      tag_140\n      jump\t// in\n    tag_214:\n        /* \"#utility.yul\":3400:3528   */\n    tag_213:\n        /* \"#utility.yul\":2955:3534   */\n      swap3\n      pop\n      swap3\n      swap1\n      pop\n      jump\t// out\n        /* \"#utility.yul\":3540:4121   */\n    tag_36:\n        /* \"#utility.yul\":3637:3643   */\n      0x00\n        /* \"#utility.yul\":3645:3651   */\n      dup1\n        /* \"#utility.yul\":3694:3696   */\n      0x20\n        /* \"#utility.yul\":3682:3691   */\n      dup4\n        /* \"#utility.yul\":3673:3680   */\n      dup6\n        /* \"#utility.yul\":3669:3692   */\n      sub\n        /* \"#utility.yul\":3665:3697   */\n      slt\n        /* \"#utility.yul\":3662:3781   */\n      iszero\n      tag_216\n      jumpi\n        /* \"#utility.yul\":3700:3779   */\n      tag_217\n      tag_127\n      jump\t// in\n    tag_217:\n        /* \"#utility.yul\":3662:3781   */\n    tag_216:\n        /* \"#utility.yul\":3848:3849   */\n      0x00\n        /* \"#utility.yul\":3837:3846   */\n      dup4\n        /* \"#utility.yul\":3833:3850   */\n      add\n        /* \"#utility.yul\":3820:3851   */\n      calldataload\n        /* \"#utility.yul\":3878:3896   */\n      0xffffffffffffffff\n        /* \"#utility.yul\":3870:3876   */\n      dup2\n        /* \"#utility.yul\":3867:3897   */\n      gt\n        /* \"#utility.yul\":3864:3981   */\n      iszero\n      tag_218\n      jumpi\n        /* \"#utility.yul\":3900:3979   */\n      tag_219\n      tag_128\n      jump\t// in\n    tag_219:\n        /* \"#utility.yul\":3864:3981   */\n    tag_218:\n        /* \"#utility.yul\":4013:4104   */\n      tag_220\n        /* \"#utility.yul\":4096:4103   */\n      dup6\n        /* \"#utility.yul\":4087:4093   */\n      dup3\n        /* \"#utility.yul\":4076:4085   */\n      dup7\n        /* \"#utility.yul\":4072:4094   */\n      add\n        /* \"#utility.yul\":4013:4104   */\n      tag_141\n      jump\t// in\n    tag_220:\n        /* \"#utility.yul\":3995:4104   */\n      swap3\n      pop\n      swap3\n      pop\n        /* \"#utility.yul\":3791:4114   */\n      pop\n        /* \"#utility.yul\":3540:4121   */\n      swap3\n      pop\n      swap3\n      swap1\n      pop\n      jump\t// out\n        /* \"#utility.yul\":4140:4692   */\n    tag_142:\n        /* \"#utility.yul\":4197:4205   */\n      0x00\n        /* \"#utility.yul\":4207:4213   */\n      dup1\n        /* \"#utility.yul\":4257:4260   */\n      dup4\n        /* \"#utility.yul\":4250:4254   */\n      0x1f\n        /* \"#utility.yul\":4242:4248   */\n      dup5\n        /* \"#utility.yul\":4238:4255   */\n      add\n        /* \"#utility.yul\":4234:4261   */\n      slt\n        /* \"#utility.yul\":4224:4346   */\n      tag_222\n      jumpi\n        /* \"#utility.yul\":4265:4344   */\n      tag_223\n      tag_138\n      jump\t// in\n    tag_223:\n        /* \"#utility.yul\":4224:4346   */\n    tag_222:\n        /* \"#utility.yul\":4378:4384   */\n      dup3\n        /* \"#utility.yul\":4365:4385   */\n      calldataload\n        /* \"#utility.yul\":4355:4385   */\n      swap1\n      pop\n        /* \"#utility.yul\":4408:4426   */\n      0xffffffffffffffff\n        /* \"#utility.yul\":4400:4406   */\n      dup2\n        /* \"#utility.yul\":4397:4427   */\n      gt\n        /* \"#utility.yul\":4394:4511   */\n      iszero\n      tag_224\n      jumpi\n        /* \"#utility.yul\":4430:4509   */\n      tag_225\n      tag_139\n      jump\t// in\n    tag_225:\n        /* \"#utility.yul\":4394:4511   */\n    tag_224:\n        /* \"#utility.yul\":4544:4548   */\n      0x20\n        /* \"#utility.yul\":4536:4542   */\n      dup4\n        /* \"#utility.yul\":4532:4549   */\n      add\n        /* \"#utility.yul\":4520:4549   */\n      swap2\n      pop\n        /* \"#utility.yul\":4598:4601   */\n      dup4\n        /* \"#utility.yul\":4590:4594   */\n      0x01\n        /* \"#utility.yul\":4582:4588   */\n      dup3\n        /* \"#utility.yul\":4578:4595   */\n      mul\n        /* \"#utility.yul\":4568:4576   */\n      dup4\n        /* \"#utility.yul\":4564:4596   */\n      add\n        /* \"#utility.yul\":4561:4602   */\n      gt\n        /* \"#utility.yul\":4558:4686   */\n      iszero\n      tag_226\n      jumpi\n        /* \"#utility.yul\":4605:4684   */\n      tag_227\n      tag_140\n      jump\t// in\n    tag_227:\n        /* \"#utility.yul\":4558:4686   */\n    tag_226:\n        /* \"#utility.yul\":4140:4692   */\n      swap3\n      pop\n      swap3\n      swap1\n      pop\n      jump\t// out\n        /* \"#utility.yul\":4698:5515   */\n    tag_40:\n        /* \"#utility.yul\":4786:4792   */\n      0x00\n        /* \"#utility.yul\":4794:4800   */\n      dup1\n        /* \"#utility.yul\":4802:4808   */\n      0x00\n        /* \"#utility.yul\":4810:4816   */\n      dup1\n        /* \"#utility.yul\":4859:4861   */\n      0x60\n        /* \"#utility.yul\":4847:4856   */\n      dup6\n        /* \"#utility.yul\":4838:4845   */\n      dup8\n        /* \"#utility.yul\":4834:4857   */\n      sub\n        /* \"#utility.yul\":4830:4862   */\n      slt\n        /* \"#utility.yul\":4827:4946   */\n      iszero\n      tag_229\n      jumpi\n        /* \"#utility.yul\":4865:4944   */\n      tag_230\n      tag_127\n      jump\t// in\n    tag_230:\n        /* \"#utility.yul\":4827:4946   */\n    tag_229:\n        /* \"#utility.yul\":4985:4986   */\n      0x00\n        /* \"#utility.yul\":5010:5063   */\n      tag_231\n        /* \"#utility.yul\":5055:5062   */\n      dup8\n        /* \"#utility.yul\":5046:5052   */\n      dup3\n        /* \"#utility.yul\":5035:5044   */\n      dup9\n        /* \"#utility.yul\":5031:5053   */\n      add\n        /* \"#utility.yul\":5010:5063   */\n      tag_132\n      jump\t// in\n    tag_231:\n        /* \"#utility.yul\":5000:5063   */\n      swap5\n      pop\n        /* \"#utility.yul\":4956:5073   */\n      pop\n        /* \"#utility.yul\":5112:5114   */\n      0x20\n        /* \"#utility.yul\":5138:5191   */\n      tag_232\n        /* \"#utility.yul\":5183:5190   */\n      dup8\n        /* \"#utility.yul\":5174:5180   */\n      dup3\n        /* \"#utility.yul\":5163:5172   */\n      dup9\n        /* \"#utility.yul\":5159:5181   */\n      add\n        /* \"#utility.yul\":5138:5191   */\n      tag_137\n      jump\t// in\n    tag_232:\n        /* \"#utility.yul\":5128:5191   */\n      swap4\n      pop\n        /* \"#utility.yul\":5083:5201   */\n      pop\n        /* \"#utility.yul\":5268:5270   */\n      0x40\n        /* \"#utility.yul\":5257:5266   */\n      dup6\n        /* \"#utility.yul\":5253:5271   */\n      add\n        /* \"#utility.yul\":5240:5272   */\n      calldataload\n        /* \"#utility.yul\":5299:5317   */\n      0xffffffffffffffff\n        /* \"#utility.yul\":5291:5297   */\n      dup2\n        /* \"#utility.yul\":5288:5318   */\n      gt\n        /* \"#utility.yul\":5285:5402   */\n      iszero\n      tag_233\n      jumpi\n        /* \"#utility.yul\":5321:5400   */\n      tag_234\n      tag_128\n      jump\t// in\n    tag_234:\n        /* \"#utility.yul\":5285:5402   */\n    tag_233:\n        /* \"#utility.yul\":5434:5498   */\n      tag_235\n        /* \"#utility.yul\":5490:5497   */\n      dup8\n        /* \"#utility.yul\":5481:5487   */\n      dup3\n        /* \"#utility.yul\":5470:5479   */\n      dup9\n        /* \"#utility.yul\":5466:5488   */\n      add\n        /* \"#utility.yul\":5434:5498   */\n      tag_142\n      jump\t// in\n    tag_235:\n        /* \"#utility.yul\":5416:5498   */\n      swap3\n      pop\n      swap3\n      pop\n        /* \"#utility.yul\":5211:5508   */\n      pop\n        /* \"#utility.yul\":4698:5515   */\n      swap3\n      swap6\n      swap2\n      swap5\n      pop\n      swap3\n      pop\n      jump\t// out\n        /* \"#utility.yul\":5521:5611   */\n    tag_143:\n        /* \"#utility.yul\":5555:5562   */\n      0x00\n        /* \"#utility.yul\":5598:5603   */\n      dup2\n        /* \"#utility.yul\":5591:5604   */\n      iszero\n        /* \"#utility.yul\":5584:5605   */\n      iszero\n        /* \"#utility.yul\":5573:5605   */\n      swap1\n      pop\n        /* \"#utility.yul\":5521:5611   */\n      swap2\n      swap1\n      pop\n      jump\t// out\n        /* \"#utility.yul\":5617:5726   */\n    tag_144:\n        /* \"#utility.yul\":5698:5719   */\n      tag_238\n        /* \"#utility.yul\":5713:5718   */\n      dup2\n        /* \"#utility.yul\":5698:5719   */\n      tag_143\n      jump\t// in\n    tag_238:\n        /* \"#utility.yul\":5693:5696   */\n      dup3\n        /* \"#utility.yul\":5686:5720   */\n      mstore\n        /* \"#utility.yul\":5617:5726   */\n      pop\n      pop\n      jump\t// out\n        /* \"#utility.yul\":5732:5942   */\n    tag_53:\n        /* \"#utility.yul\":5819:5823   */\n      0x00\n        /* \"#utility.yul\":5857:5859   */\n      0x20\n        /* \"#utility.yul\":5846:5855   */\n      dup3\n        /* \"#utility.yul\":5842:5860   */\n      add\n        /* \"#utility.yul\":5834:5860   */\n      swap1\n      pop\n        /* \"#utility.yul\":5870:5935   */\n      tag_240\n        /* \"#utility.yul\":5932:5933   */\n      0x00\n        /* \"#utility.yul\":5921:5930   */\n      dup4\n        /* \"#utility.yul\":5917:5934   */\n      add\n        /* \"#utility.yul\":5908:5914   */\n      dup5\n        /* \"#utility.yul\":5870:5935   */\n      tag_144\n      jump\t// in\n    tag_240:\n        /* \"#utility.yul\":5732:5942   */\n      swap3\n      swap2\n      pop\n      pop\n      jump\t// out\n        /* \"#utility.yul\":5948:6117   */\n    tag_145:\n        /* \"#utility.yul\":6032:6043   */\n      0x00\n        /* \"#utility.yul\":6066:6072   */\n      dup3\n        /* \"#utility.yul\":6061:6064   */\n      dup3\n        /* \"#utility.yul\":6054:6073   */\n      mstore\n        /* \"#utility.yul\":6106:6110   */\n      0x20\n        /* \"#utility.yul\":6101:6104   */\n      dup3\n        /* \"#utility.yul\":6097:6111   */\n      add\n        /* \"#utility.yul\":6082:6111   */\n      swap1\n      pop\n        /* \"#utility.yul\":5948:6117   */\n      swap3\n      swap2\n      pop\n      pop\n      jump\t// out\n        /* \"#utility.yul\":6123:6288   */\n    tag_146:\n        /* \"#utility.yul\":6263:6280   */\n      0x4e6f742077686974656c69737465640000000000000000000000000000000000\n        /* \"#utility.yul\":6259:6260   */\n      0x00\n        /* \"#utility.yul\":6251:6257   */\n      dup3\n        /* \"#utility.yul\":6247:6261   */\n      add\n        /* \"#utility.yul\":6240:6281   */\n      mstore\n        /* \"#utility.yul\":6123:6288   */\n      pop\n      jump\t// out\n        /* \"#utility.yul\":6294:6660   */\n    tag_147:\n        /* \"#utility.yul\":6436:6439   */\n      0x00\n        /* \"#utility.yul\":6457:6524   */\n      tag_244\n        /* \"#utility.yul\":6521:6523   */\n      0x0f\n        /* \"#utility.yul\":6516:6519   */\n      dup4\n        /* \"#utility.yul\":6457:6524   */\n      tag_145\n      jump\t// in\n    tag_244:\n        /* \"#utility.yul\":6450:6524   */\n      swap2\n      pop\n        /* \"#utility.yul\":6533:6626   */\n      tag_245\n        /* \"#utility.yul\":6622:6625   */\n      dup3\n        /* \"#utility.yul\":6533:6626   */\n      tag_146\n      jump\t// in\n    tag_245:\n        /* \"#utility.yul\":6651:6653   */\n      0x20\n        /* \"#utility.yul\":6646:6649   */\n      dup3\n        /* \"#utility.yul\":6642:6654   */\n      add\n        /* \"#utility.yul\":6635:6654   */\n      swap1\n      pop\n        /* \"#utility.yul\":6294:6660   */\n      swap2\n      swap1\n      pop\n      jump\t// out\n        /* \"#utility.yul\":6666:7085   */\n    tag_61:\n        /* \"#utility.yul\":6832:6836   */\n      0x00\n        /* \"#utility.yul\":6870:6872   */\n      0x20\n        /* \"#utility.yul\":6859:6868   */\n      dup3\n        /* \"#utility.yul\":6855:6873   */\n      add\n        /* \"#utility.yul\":6847:6873   */\n      swap1\n      pop\n        /* \"#utility.yul\":6919:6928   */\n      dup2\n        /* \"#utility.yul\":6913:6917   */\n      dup2\n        /* \"#utility.yul\":6909:6929   */\n      sub\n        /* \"#utility.yul\":6905:6906   */\n      0x00\n        /* \"#utility.yul\":6894:6903   */\n      dup4\n        /* \"#utility.yul\":6890:6907   */\n      add\n        /* \"#utility.yul\":6883:6930   */\n      mstore\n        /* \"#utility.yul\":6947:7078   */\n      tag_247\n        /* \"#utility.yul\":7073:7077   */\n      dup2\n        /* \"#utility.yul\":6947:7078   */\n      tag_147\n      jump\t// in\n    tag_247:\n        /* \"#utility.yul\":6939:7078   */\n      swap1\n      pop\n        /* \"#utility.yul\":6666:7085   */\n      swap2\n      swap1\n      pop\n      jump\t// out\n        /* \"#utility.yul\":7091:7266   */\n    tag_148:\n        /* \"#utility.yul\":7231:7258   */\n      0x436f6e74726163742062616c616e6365206973206e6f74203000000000000000\n        /* \"#utility.yul\":7227:7228   */\n      0x00\n        /* \"#utility.yul\":7219:7225   */\n      dup3\n        /* \"#utility.yul\":7215:7229   */\n      add\n        /* \"#utility.yul\":7208:7259   */\n      mstore\n        /* \"#utility.yul\":7091:7266   */\n      pop\n      jump\t// out\n        /* \"#utility.yul\":7272:7638   */\n    tag_149:\n        /* \"#utility.yul\":7414:7417   */\n      0x00\n        /* \"#utility.yul\":7435:7502   */\n      tag_250\n        /* \"#utility.yul\":7499:7501   */\n      0x19\n        /* \"#utility.yul\":7494:7497   */\n      dup4\n        /* \"#utility.yul\":7435:7502   */\n      tag_145\n      jump\t// in\n    tag_250:\n        /* \"#utility.yul\":7428:7502   */\n      swap2\n      pop\n        /* \"#utility.yul\":7511:7604   */\n      tag_251\n        /* \"#utility.yul\":7600:7603   */\n      dup3\n        /* \"#utility.yul\":7511:7604   */\n      tag_148\n      jump\t// in\n    tag_251:\n        /* \"#utility.yul\":7629:7631   */\n      0x20\n        /* \"#utility.yul\":7624:7627   */\n      dup3\n        /* \"#utility.yul\":7620:7632   */\n      add\n        /* \"#utility.yul\":7613:7632   */\n      swap1\n      pop\n        /* \"#utility.yul\":7272:7638   */\n      swap2\n      swap1\n      pop\n      jump\t// out\n        /* \"#utility.yul\":7644:8063   */\n    tag_65:\n        /* \"#utility.yul\":7810:7814   */\n      0x00\n        /* \"#utility.yul\":7848:7850   */\n      0x20\n        /* \"#utility.yul\":7837:7846   */\n      dup3\n        /* \"#utility.yul\":7833:7851   */\n      add\n        /* \"#utility.yul\":7825:7851   */\n      swap1\n      pop\n        /* \"#utility.yul\":7897:7906   */\n      dup2\n        /* \"#utility.yul\":7891:7895   */\n      dup2\n        /* \"#utility.yul\":7887:7907   */\n      sub\n        /* \"#utility.yul\":7883:7884   */\n      0x00\n        /* \"#utility.yul\":7872:7881   */\n      dup4\n        /* \"#utility.yul\":7868:7885   */\n      add\n        /* \"#utility.yul\":7861:7908   */\n      mstore\n        /* \"#utility.yul\":7925:8056   */\n      tag_253\n        /* \"#utility.yul\":8051:8055   */\n      dup2\n        /* \"#utility.yul\":7925:8056   */\n      tag_149\n      jump\t// in\n    tag_253:\n        /* \"#utility.yul\":7917:8056   */\n      swap1\n      pop\n        /* \"#utility.yul\":7644:8063   */\n      swap2\n      swap1\n      pop\n      jump\t// out\n        /* \"#utility.yul\":8069:8249   */\n    tag_75:\n        /* \"#utility.yul\":8117:8194   */\n      0x4e487b7100000000000000000000000000000000000000000000000000000000\n        /* \"#utility.yul\":8114:8115   */\n      0x00\n        /* \"#utility.yul\":8107:8195   */\n      mstore\n        /* \"#utility.yul\":8214:8218   */\n      0x32\n        /* \"#utility.yul\":8211:8212   */\n      0x04\n        /* \"#utility.yul\":8204:8219   */\n      mstore\n        /* \"#utility.yul\":8238:8242   */\n      0x24\n        /* \"#utility.yul\":8235:8236   */\n      0x00\n        /* \"#utility.yul\":8228:8243   */\n      revert\n        /* \"#utility.yul\":8255:8372   */\n    tag_150:\n        /* \"#utility.yul\":8364:8365   */\n      0x00\n        /* \"#utility.yul\":8361:8362   */\n      dup1\n        /* \"#utility.yul\":8354:8366   */\n      revert\n        /* \"#utility.yul\":8378:8495   */\n    tag_151:\n        /* \"#utility.yul\":8487:8488   */\n      0x00\n        /* \"#utility.yul\":8484:8485   */\n      dup1\n        /* \"#utility.yul\":8477:8489   */\n      revert\n        /* \"#utility.yul\":8501:8618   */\n    tag_152:\n        /* \"#utility.yul\":8610:8611   */\n      0x00\n        /* \"#utility.yul\":8607:8608   */\n      dup1\n        /* \"#utility.yul\":8600:8612   */\n      revert\n        /* \"#utility.yul\":8624:9348   */\n    tag_77:\n        /* \"#utility.yul\":8701:8705   */\n      0x00\n        /* \"#utility.yul\":8707:8713   */\n      dup1\n        /* \"#utility.yul\":8763:8774   */\n      dup4\n        /* \"#utility.yul\":8750:8775   */\n      calldataload\n        /* \"#utility.yul\":8863:8864   */\n      0x01\n        /* \"#utility.yul\":8857:8861   */\n      0x20\n        /* \"#utility.yul\":8853:8865   */\n      sub\n        /* \"#utility.yul\":8842:8850   */\n      dup5\n        /* \"#utility.yul\":8826:8840   */\n      calldatasize\n        /* \"#utility.yul\":8822:8851   */\n      sub\n        /* \"#utility.yul\":8818:8866   */\n      sub\n        /* \"#utility.yul\":8798:8816   */\n      dup2\n        /* \"#utility.yul\":8794:8867   */\n      slt\n        /* \"#utility.yul\":8784:8952   */\n      tag_259\n      jumpi\n        /* \"#utility.yul\":8871:8950   */\n      tag_260\n      tag_150\n      jump\t// in\n    tag_260:\n        /* \"#utility.yul\":8784:8952   */\n    tag_259:\n        /* \"#utility.yul\":8983:9001   */\n      dup1\n        /* \"#utility.yul\":8973:8981   */\n      dup5\n        /* \"#utility.yul\":8969:9002   */\n      add\n        /* \"#utility.yul\":8961:9002   */\n      swap3\n      pop\n        /* \"#utility.yul\":9035:9039   */\n      dup3\n        /* \"#utility.yul\":9022:9040   */\n      calldataload\n        /* \"#utility.yul\":9012:9040   */\n      swap2\n      pop\n        /* \"#utility.yul\":9063:9081   */\n      0xffffffffffffffff\n        /* \"#utility.yul\":9055:9061   */\n      dup3\n        /* \"#utility.yul\":9052:9082   */\n      gt\n        /* \"#utility.yul\":9049:9166   */\n      iszero\n      tag_261\n      jumpi\n        /* \"#utility.yul\":9085:9164   */\n      tag_262\n      tag_151\n      jump\t// in\n    tag_262:\n        /* \"#utility.yul\":9049:9166   */\n    tag_261:\n        /* \"#utility.yul\":9193:9195   */\n      0x20\n        /* \"#utility.yul\":9187:9191   */\n      dup4\n        /* \"#utility.yul\":9183:9196   */\n      add\n        /* \"#utility.yul\":9175:9196   */\n      swap3\n      pop\n        /* \"#utility.yul\":9250:9254   */\n      0x01\n        /* \"#utility.yul\":9242:9248   */\n      dup3\n        /* \"#utility.yul\":9238:9255   */\n      mul\n        /* \"#utility.yul\":9222:9236   */\n      calldatasize\n        /* \"#utility.yul\":9218:9256   */\n      sub\n        /* \"#utility.yul\":9212:9216   */\n      dup4\n        /* \"#utility.yul\":9208:9257   */\n      sgt\n        /* \"#utility.yul\":9205:9341   */\n      iszero\n      tag_263\n      jumpi\n        /* \"#utility.yul\":9260:9339   */\n      tag_264\n      tag_152\n      jump\t// in\n    tag_264:\n        /* \"#utility.yul\":9205:9341   */\n    tag_263:\n        /* \"#utility.yul\":8714:9348   */\n      pop\n        /* \"#utility.yul\":8624:9348   */\n      swap3\n      pop\n      swap3\n      swap1\n      pop\n      jump\t// out\n        /* \"#utility.yul\":9354:9535   */\n    tag_153:\n        /* \"#utility.yul\":9494:9527   */\n      0x4465706f7369742063616e206f6e6c792062652063616c6c6564206f6e636500\n        /* \"#utility.yul\":9490:9491   */\n      0x00\n        /* \"#utility.yul\":9482:9488   */\n      dup3\n        /* \"#utility.yul\":9478:9492   */\n      add\n        /* \"#utility.yul\":9471:9528   */\n      mstore\n        /* \"#utility.yul\":9354:9535   */\n      pop\n      jump\t// out\n        /* \"#utility.yul\":9541:9907   */\n    tag_154:\n        /* \"#utility.yul\":9683:9686   */\n      0x00\n        /* \"#utility.yul\":9704:9771   */\n      tag_267\n        /* \"#utility.yul\":9768:9770   */\n      0x1f\n        /* \"#utility.yul\":9763:9766   */\n      dup4\n        /* \"#utility.yul\":9704:9771   */\n      tag_145\n      jump\t// in\n    tag_267:\n        /* \"#utility.yul\":9697:9771   */\n      swap2\n      pop\n        /* \"#utility.yul\":9780:9873   */\n      tag_268\n        /* \"#utility.yul\":9869:9872   */\n      dup3\n        /* \"#utility.yul\":9780:9873   */\n      tag_153\n      jump\t// in\n    tag_268:\n        /* \"#utility.yul\":9898:9900   */\n      0x20\n        /* \"#utility.yul\":9893:9896   */\n      dup3\n        /* \"#utility.yul\":9889:9901   */\n      add\n        /* \"#utility.yul\":9882:9901   */\n      swap1\n      pop\n        /* \"#utility.yul\":9541:9907   */\n      swap2\n      swap1\n      pop\n      jump\t// out\n        /* \"#utility.yul\":9913:10332   */\n    tag_81:\n        /* \"#utility.yul\":10079:10083   */\n      0x00\n        /* \"#utility.yul\":10117:10119   */\n      0x20\n        /* \"#utility.yul\":10106:10115   */\n      dup3\n        /* \"#utility.yul\":10102:10120   */\n      add\n        /* \"#utility.yul\":10094:10120   */\n      swap1\n      pop\n        /* \"#utility.yul\":10166:10175   */\n      dup2\n        /* \"#utility.yul\":10160:10164   */\n      dup2\n        /* \"#utility.yul\":10156:10176   */\n      sub\n        /* \"#utility.yul\":10152:10153   */\n      0x00\n        /* \"#utility.yul\":10141:10150   */\n      dup4\n        /* \"#utility.yul\":10137:10154   */\n      add\n        /* \"#utility.yul\":10130:10177   */\n      mstore\n        /* \"#utility.yul\":10194:10325   */\n      tag_270\n        /* \"#utility.yul\":10320:10324   */\n      dup2\n        /* \"#utility.yul\":10194:10325   */\n      tag_154\n      jump\t// in\n    tag_270:\n        /* \"#utility.yul\":10186:10325   */\n      swap1\n      pop\n        /* \"#utility.yul\":9913:10332   */\n      swap2\n      swap1\n      pop\n      jump\t// out\n        /* \"#utility.yul\":10338:10485   */\n    tag_155:\n        /* \"#utility.yul\":10439:10450   */\n      0x00\n        /* \"#utility.yul\":10476:10479   */\n      dup2\n        /* \"#utility.yul\":10461:10479   */\n      swap1\n      pop\n        /* \"#utility.yul\":10338:10485   */\n      swap3\n      swap2\n      pop\n      pop\n      jump\t// out\n        /* \"#utility.yul\":10491:10639   */\n    tag_156:\n        /* \"#utility.yul\":10589:10595   */\n      dup3\n        /* \"#utility.yul\":10584:10587   */\n      dup2\n        /* \"#utility.yul\":10579:10582   */\n      dup4\n        /* \"#utility.yul\":10566:10596   */\n      calldatacopy\n        /* \"#utility.yul\":10630:10631   */\n      0x00\n        /* \"#utility.yul\":10621:10627   */\n      dup4\n        /* \"#utility.yul\":10616:10619   */\n      dup4\n        /* \"#utility.yul\":10612:10628   */\n      add\n        /* \"#utility.yul\":10605:10632   */\n      mstore\n        /* \"#utility.yul\":10491:10639   */\n      pop\n      pop\n      pop\n      jump\t// out\n        /* \"#utility.yul\":10667:10994   */\n    tag_157:\n        /* \"#utility.yul\":10781:10784   */\n      0x00\n        /* \"#utility.yul\":10802:10890   */\n      tag_274\n        /* \"#utility.yul\":10883:10889   */\n      dup4\n        /* \"#utility.yul\":10878:10881   */\n      dup6\n        /* \"#utility.yul\":10802:10890   */\n      tag_155\n      jump\t// in\n    tag_274:\n        /* \"#utility.yul\":10795:10890   */\n      swap4\n      pop\n        /* \"#utility.yul\":10900:10956   */\n      tag_275\n        /* \"#utility.yul\":10949:10955   */\n      dup4\n        /* \"#utility.yul\":10944:10947   */\n      dup6\n        /* \"#utility.yul\":10937:10942   */\n      dup5\n        /* \"#utility.yul\":10900:10956   */\n      tag_156\n      jump\t// in\n    tag_275:\n        /* \"#utility.yul\":10981:10987   */\n      dup3\n        /* \"#utility.yul\":10976:10979   */\n      dup5\n        /* \"#utility.yul\":10972:10988   */\n      add\n        /* \"#utility.yul\":10965:10988   */\n      swap1\n      pop\n        /* \"#utility.yul\":10667:10994   */\n      swap4\n      swap3\n      pop\n      pop\n      pop\n      jump\t// out\n        /* \"#utility.yul\":11000:11291   */\n    tag_86:\n        /* \"#utility.yul\":11140:11143   */\n      0x00\n        /* \"#utility.yul\":11162:11265   */\n      tag_277\n        /* \"#utility.yul\":11261:11264   */\n      dup3\n        /* \"#utility.yul\":11252:11258   */\n      dup5\n        /* \"#utility.yul\":11244:11250   */\n      dup7\n        /* \"#utility.yul\":11162:11265   */\n      tag_157\n      jump\t// in\n    tag_277:\n        /* \"#utility.yul\":11155:11265   */\n      swap2\n      pop\n        /* \"#utility.yul\":11282:11285   */\n      dup2\n        /* \"#utility.yul\":11275:11285   */\n      swap1\n      pop\n        /* \"#utility.yul\":11000:11291   */\n      swap4\n      swap3\n      pop\n      pop\n      pop\n      jump\t// out\n        /* \"#utility.yul\":11297:11474   */\n    tag_158:\n        /* \"#utility.yul\":11437:11466   */\n      0x4572726f72207768696c652064656c65676174696e672063616c6c0000000000\n        /* \"#utility.yul\":11433:11434   */\n      0x00\n        /* \"#utility.yul\":11425:11431   */\n      dup3\n        /* \"#utility.yul\":11421:11435   */\n      add\n        /* \"#utility.yul\":11414:11467   */\n      mstore\n        /* \"#utility.yul\":11297:11474   */\n      pop\n      jump\t// out\n        /* \"#utility.yul\":11480:11846   */\n    tag_159:\n        /* \"#utility.yul\":11622:11625   */\n      0x00\n        /* \"#utility.yul\":11643:11710   */\n      tag_280\n        /* \"#utility.yul\":11707:11709   */\n      0x1b\n        /* \"#utility.yul\":11702:11705   */\n      dup4\n        /* \"#utility.yul\":11643:11710   */\n      tag_145\n      jump\t// in\n    tag_280:\n        /* \"#utility.yul\":11636:11710   */\n      swap2\n      pop\n        /* \"#utility.yul\":11719:11812   */\n      tag_281\n        /* \"#utility.yul\":11808:11811   */\n      dup3\n        /* \"#utility.yul\":11719:11812   */\n      tag_158\n      jump\t// in\n    tag_281:\n        /* \"#utility.yul\":11837:11839   */\n      0x20\n        /* \"#utility.yul\":11832:11835   */\n      dup3\n        /* \"#utility.yul\":11828:11840   */\n      add\n        /* \"#utility.yul\":11821:11840   */\n      swap1\n      pop\n        /* \"#utility.yul\":11480:11846   */\n      swap2\n      swap1\n      pop\n      jump\t// out\n        /* \"#utility.yul\":11852:12271   */\n    tag_92:\n        /* \"#utility.yul\":12018:12022   */\n      0x00\n        /* \"#utility.yul\":12056:12058   */\n      0x20\n        /* \"#utility.yul\":12045:12054   */\n      dup3\n        /* \"#utility.yul\":12041:12059   */\n      add\n        /* \"#utility.yul\":12033:12059   */\n      swap1\n      pop\n        /* \"#utility.yul\":12105:12114   */\n      dup2\n        /* \"#utility.yul\":12099:12103   */\n      dup2\n        /* \"#utility.yul\":12095:12115   */\n      sub\n        /* \"#utility.yul\":12091:12092   */\n      0x00\n        /* \"#utility.yul\":12080:12089   */\n      dup4\n        /* \"#utility.yul\":12076:12093   */\n      add\n        /* \"#utility.yul\":12069:12116   */\n      mstore\n        /* \"#utility.yul\":12133:12264   */\n      tag_283\n        /* \"#utility.yul\":12259:12263   */\n      dup2\n        /* \"#utility.yul\":12133:12264   */\n      tag_159\n      jump\t// in\n    tag_283:\n        /* \"#utility.yul\":12125:12264   */\n      swap1\n      pop\n        /* \"#utility.yul\":11852:12271   */\n      swap2\n      swap1\n      pop\n      jump\t// out\n        /* \"#utility.yul\":12277:12447   */\n    tag_160:\n        /* \"#utility.yul\":12417:12439   */\n      0x496e73756666696369656e742062616c616e6365000000000000000000000000\n        /* \"#utility.yul\":12413:12414   */\n      0x00\n        /* \"#utility.yul\":12405:12411   */\n      dup3\n        /* \"#utility.yul\":12401:12415   */\n      add\n        /* \"#utility.yul\":12394:12440   */\n      mstore\n        /* \"#utility.yul\":12277:12447   */\n      pop\n      jump\t// out\n        /* \"#utility.yul\":12453:12819   */\n    tag_161:\n        /* \"#utility.yul\":12595:12598   */\n      0x00\n        /* \"#utility.yul\":12616:12683   */\n      tag_286\n        /* \"#utility.yul\":12680:12682   */\n      0x14\n        /* \"#utility.yul\":12675:12678   */\n      dup4\n        /* \"#utility.yul\":12616:12683   */\n      tag_145\n      jump\t// in\n    tag_286:\n        /* \"#utility.yul\":12609:12683   */\n      swap2\n      pop\n        /* \"#utility.yul\":12692:12785   */\n      tag_287\n        /* \"#utility.yul\":12781:12784   */\n      dup3\n        /* \"#utility.yul\":12692:12785   */\n      tag_160\n      jump\t// in\n    tag_287:\n        /* \"#utility.yul\":12810:12812   */\n      0x20\n        /* \"#utility.yul\":12805:12808   */\n      dup3\n        /* \"#utility.yul\":12801:12813   */\n      add\n        /* \"#utility.yul\":12794:12813   */\n      swap1\n      pop\n        /* \"#utility.yul\":12453:12819   */\n      swap2\n      swap1\n      pop\n      jump\t// out\n        /* \"#utility.yul\":12825:13244   */\n    tag_99:\n        /* \"#utility.yul\":12991:12995   */\n      0x00\n        /* \"#utility.yul\":13029:13031   */\n      0x20\n        /* \"#utility.yul\":13018:13027   */\n      dup3\n        /* \"#utility.yul\":13014:13032   */\n      add\n        /* \"#utility.yul\":13006:13032   */\n      swap1\n      pop\n        /* \"#utility.yul\":13078:13087   */\n      dup2\n        /* \"#utility.yul\":13072:13076   */\n      dup2\n        /* \"#utility.yul\":13068:13088   */\n      sub\n        /* \"#utility.yul\":13064:13065   */\n      0x00\n        /* \"#utility.yul\":13053:13062   */\n      dup4\n        /* \"#utility.yul\":13049:13066   */\n      add\n        /* \"#utility.yul\":13042:13089   */\n      mstore\n        /* \"#utility.yul\":13106:13237   */\n      tag_289\n        /* \"#utility.yul\":13232:13236   */\n      dup2\n        /* \"#utility.yul\":13106:13237   */\n      tag_161\n      jump\t// in\n    tag_289:\n        /* \"#utility.yul\":13098:13237   */\n      swap1\n      pop\n        /* \"#utility.yul\":12825:13244   */\n      swap2\n      swap1\n      pop\n      jump\t// out\n        /* \"#utility.yul\":13250:13430   */\n    tag_162:\n        /* \"#utility.yul\":13298:13375   */\n      0x4e487b7100000000000000000000000000000000000000000000000000000000\n        /* \"#utility.yul\":13295:13296   */\n      0x00\n        /* \"#utility.yul\":13288:13376   */\n      mstore\n        /* \"#utility.yul\":13395:13399   */\n      0x11\n        /* \"#utility.yul\":13392:13393   */\n      0x04\n        /* \"#utility.yul\":13385:13400   */\n      mstore\n        /* \"#utility.yul\":13419:13423   */\n      0x24\n        /* \"#utility.yul\":13416:13417   */\n      0x00\n        /* \"#utility.yul\":13409:13424   */\n      revert\n        /* \"#utility.yul\":13436:13630   */\n    tag_101:\n        /* \"#utility.yul\":13476:13480   */\n      0x00\n        /* \"#utility.yul\":13496:13516   */\n      tag_292\n        /* \"#utility.yul\":13514:13515   */\n      dup3\n        /* \"#utility.yul\":13496:13516   */\n      tag_133\n      jump\t// in\n    tag_292:\n        /* \"#utility.yul\":13491:13516   */\n      swap2\n      pop\n        /* \"#utility.yul\":13530:13550   */\n      tag_293\n        /* \"#utility.yul\":13548:13549   */\n      dup4\n        /* \"#utility.yul\":13530:13550   */\n      tag_133\n      jump\t// in\n    tag_293:\n        /* \"#utility.yul\":13525:13550   */\n      swap3\n      pop\n        /* \"#utility.yul\":13574:13575   */\n      dup3\n        /* \"#utility.yul\":13571:13572   */\n      dup3\n        /* \"#utility.yul\":13567:13576   */\n      sub\n        /* \"#utility.yul\":13559:13576   */\n      swap1\n      pop\n        /* \"#utility.yul\":13598:13599   */\n      dup2\n        /* \"#utility.yul\":13592:13596   */\n      dup2\n        /* \"#utility.yul\":13589:13600   */\n      gt\n        /* \"#utility.yul\":13586:13623   */\n      iszero\n      tag_294\n      jumpi\n        /* \"#utility.yul\":13603:13621   */\n      tag_295\n      tag_162\n      jump\t// in\n    tag_295:\n        /* \"#utility.yul\":13586:13623   */\n    tag_294:\n        /* \"#utility.yul\":13436:13630   */\n      swap3\n      swap2\n      pop\n      pop\n      jump\t// out\n        /* \"#utility.yul\":13636:13802   */\n    tag_163:\n        /* \"#utility.yul\":13776:13794   */\n      0x457865637574696f6e206661696c656400000000000000000000000000000000\n        /* \"#utility.yul\":13772:13773   */\n      0x00\n        /* \"#utility.yul\":13764:13770   */\n      dup3\n        /* \"#utility.yul\":13760:13774   */\n      add\n        /* \"#utility.yul\":13753:13795   */\n      mstore\n        /* \"#utility.yul\":13636:13802   */\n      pop\n      jump\t// out\n        /* \"#utility.yul\":13808:14174   */\n    tag_164:\n        /* \"#utility.yul\":13950:13953   */\n      0x00\n        /* \"#utility.yul\":13971:14038   */\n      tag_298\n        /* \"#utility.yul\":14035:14037   */\n      0x10\n        /* \"#utility.yul\":14030:14033   */\n      dup4\n        /* \"#utility.yul\":13971:14038   */\n      tag_145\n      jump\t// in\n    tag_298:\n        /* \"#utility.yul\":13964:14038   */\n      swap2\n      pop\n        /* \"#utility.yul\":14047:14140   */\n      tag_299\n        /* \"#utility.yul\":14136:14139   */\n      dup3\n        /* \"#utility.yul\":14047:14140   */\n      tag_163\n      jump\t// in\n    tag_299:\n        /* \"#utility.yul\":14165:14167   */\n      0x20\n        /* \"#utility.yul\":14160:14163   */\n      dup3\n        /* \"#utility.yul\":14156:14168   */\n      add\n        /* \"#utility.yul\":14149:14168   */\n      swap1\n      pop\n        /* \"#utility.yul\":13808:14174   */\n      swap2\n      swap1\n      pop\n      jump\t// out\n        /* \"#utility.yul\":14180:14599   */\n    tag_108:\n        /* \"#utility.yul\":14346:14350   */\n      0x00\n        /* \"#utility.yul\":14384:14386   */\n      0x20\n        /* \"#utility.yul\":14373:14382   */\n      dup3\n        /* \"#utility.yul\":14369:14387   */\n      add\n        /* \"#utility.yul\":14361:14387   */\n      swap1\n      pop\n        /* \"#utility.yul\":14433:14442   */\n      dup2\n        /* \"#utility.yul\":14427:14431   */\n      dup2\n        /* \"#utility.yul\":14423:14443   */\n      sub\n        /* \"#utility.yul\":14419:14420   */\n      0x00\n        /* \"#utility.yul\":14408:14417   */\n      dup4\n        /* \"#utility.yul\":14404:14421   */\n      add\n        /* \"#utility.yul\":14397:14444   */\n      mstore\n        /* \"#utility.yul\":14461:14592   */\n      tag_301\n        /* \"#utility.yul\":14587:14591   */\n      dup2\n        /* \"#utility.yul\":14461:14592   */\n      tag_164\n      jump\t// in\n    tag_301:\n        /* \"#utility.yul\":14453:14592   */\n      swap1\n      pop\n        /* \"#utility.yul\":14180:14599   */\n      swap2\n      swap1\n      pop\n      jump\t// out\n        /* \"#utility.yul\":14605:14774   */\n    tag_165:\n        /* \"#utility.yul\":14745:14766   */\n      0x416c726561647920696e697469616c697a656400000000000000000000000000\n        /* \"#utility.yul\":14741:14742   */\n      0x00\n        /* \"#utility.yul\":14733:14739   */\n      dup3\n        /* \"#utility.yul\":14729:14743   */\n      add\n        /* \"#utility.yul\":14722:14767   */\n      mstore\n        /* \"#utility.yul\":14605:14774   */\n      pop\n      jump\t// out\n        /* \"#utility.yul\":14780:15146   */\n    tag_166:\n        /* \"#utility.yul\":14922:14925   */\n      0x00\n        /* \"#utility.yul\":14943:15010   */\n      tag_304\n        /* \"#utility.yul\":15007:15009   */\n      0x13\n        /* \"#utility.yul\":15002:15005   */\n      dup4\n        /* \"#utility.yul\":14943:15010   */\n      tag_145\n      jump\t// in\n    tag_304:\n        /* \"#utility.yul\":14936:15010   */\n      swap2\n      pop\n        /* \"#utility.yul\":15019:15112   */\n      tag_305\n        /* \"#utility.yul\":15108:15111   */\n      dup3\n        /* \"#utility.yul\":15019:15112   */\n      tag_165\n      jump\t// in\n    tag_305:\n        /* \"#utility.yul\":15137:15139   */\n      0x20\n        /* \"#utility.yul\":15132:15135   */\n      dup3\n        /* \"#utility.yul\":15128:15140   */\n      add\n        /* \"#utility.yul\":15121:15140   */\n      swap1\n      pop\n        /* \"#utility.yul\":14780:15146   */\n      swap2\n      swap1\n      pop\n      jump\t// out\n        /* \"#utility.yul\":15152:15571   */\n    tag_112:\n        /* \"#utility.yul\":15318:15322   */\n      0x00\n        /* \"#utility.yul\":15356:15358   */\n      0x20\n        /* \"#utility.yul\":15345:15354   */\n      dup3\n        /* \"#utility.yul\":15341:15359   */\n      add\n        /* \"#utility.yul\":15333:15359   */\n      swap1\n      pop\n        /* \"#utility.yul\":15405:15414   */\n      dup2\n        /* \"#utility.yul\":15399:15403   */\n      dup2\n        /* \"#utility.yul\":15395:15415   */\n      sub\n        /* \"#utility.yul\":15391:15392   */\n      0x00\n        /* \"#utility.yul\":15380:15389   */\n      dup4\n        /* \"#utility.yul\":15376:15393   */\n      add\n        /* \"#utility.yul\":15369:15416   */\n      mstore\n        /* \"#utility.yul\":15433:15564   */\n      tag_307\n        /* \"#utility.yul\":15559:15563   */\n      dup2\n        /* \"#utility.yul\":15433:15564   */\n      tag_166\n      jump\t// in\n    tag_307:\n        /* \"#utility.yul\":15425:15564   */\n      swap1\n      pop\n        /* \"#utility.yul\":15152:15571   */\n      swap2\n      swap1\n      pop\n      jump\t// out\n        /* \"#utility.yul\":15577:15746   */\n    tag_167:\n        /* \"#utility.yul\":15717:15738   */\n      0x4d61782062616c616e6365207265616368656400000000000000000000000000\n        /* \"#utility.yul\":15713:15714   */\n      0x00\n        /* \"#utility.yul\":15705:15711   */\n      dup3\n        /* \"#utility.yul\":15701:15715   */\n      add\n        /* \"#utility.yul\":15694:15739   */\n      mstore\n        /* \"#utility.yul\":15577:15746   */\n      pop\n      jump\t// out\n        /* \"#utility.yul\":15752:16118   */\n    tag_168:\n        /* \"#utility.yul\":15894:15897   */\n      0x00\n        /* \"#utility.yul\":15915:15982   */\n      tag_310\n        /* \"#utility.yul\":15979:15981   */\n      0x13\n        /* \"#utility.yul\":15974:15977   */\n      dup4\n        /* \"#utility.yul\":15915:15982   */\n      tag_145\n      jump\t// in\n    tag_310:\n        /* \"#utility.yul\":15908:15982   */\n      swap2\n      pop\n        /* \"#utility.yul\":15991:16084   */\n      tag_311\n        /* \"#utility.yul\":16080:16083   */\n      dup3\n        /* \"#utility.yul\":15991:16084   */\n      tag_167\n      jump\t// in\n    tag_311:\n        /* \"#utility.yul\":16109:16111   */\n      0x20\n        /* \"#utility.yul\":16104:16107   */\n      dup3\n        /* \"#utility.yul\":16100:16112   */\n      add\n        /* \"#utility.yul\":16093:16112   */\n      swap1\n      pop\n        /* \"#utility.yul\":15752:16118   */\n      swap2\n      swap1\n      pop\n      jump\t// out\n        /* \"#utility.yul\":16124:16543   */\n    tag_119:\n        /* \"#utility.yul\":16290:16294   */\n      0x00\n        /* \"#utility.yul\":16328:16330   */\n      0x20\n        /* \"#utility.yul\":16317:16326   */\n      dup3\n        /* \"#utility.yul\":16313:16331   */\n      add\n        /* \"#utility.yul\":16305:16331   */\n      swap1\n      pop\n        /* \"#utility.yul\":16377:16386   */\n      dup2\n        /* \"#utility.yul\":16371:16375   */\n      dup2\n        /* \"#utility.yul\":16367:16387   */\n      sub\n        /* \"#utility.yul\":16363:16364   */\n      0x00\n        /* \"#utility.yul\":16352:16361   */\n      dup4\n        /* \"#utility.yul\":16348:16365   */\n      add\n        /* \"#utility.yul\":16341:16388   */\n      mstore\n        /* \"#utility.yul\":16405:16536   */\n      tag_313\n        /* \"#utility.yul\":16531:16535   */\n      dup2\n        /* \"#utility.yul\":16405:16536   */\n      tag_168\n      jump\t// in\n    tag_313:\n        /* \"#utility.yul\":16397:16536   */\n      swap1\n      pop\n        /* \"#utility.yul\":16124:16543   */\n      swap2\n      swap1\n      pop\n      jump\t// out\n        /* \"#utility.yul\":16549:16740   */\n    tag_121:\n        /* \"#utility.yul\":16589:16592   */\n      0x00\n        /* \"#utility.yul\":16608:16628   */\n      tag_315\n        /* \"#utility.yul\":16626:16627   */\n      dup3\n        /* \"#utility.yul\":16608:16628   */\n      tag_133\n      jump\t// in\n    tag_315:\n        /* \"#utility.yul\":16603:16628   */\n      swap2\n      pop\n        /* \"#utility.yul\":16642:16662   */\n      tag_316\n        /* \"#utility.yul\":16660:16661   */\n      dup4\n        /* \"#utility.yul\":16642:16662   */\n      tag_133\n      jump\t// in\n    tag_316:\n        /* \"#utility.yul\":16637:16662   */\n      swap3\n      pop\n        /* \"#utility.yul\":16685:16686   */\n      dup3\n        /* \"#utility.yul\":16682:16683   */\n      dup3\n        /* \"#utility.yul\":16678:16687   */\n      add\n        /* \"#utility.yul\":16671:16687   */\n      swap1\n      pop\n        /* \"#utility.yul\":16706:16709   */\n      dup1\n        /* \"#utility.yul\":16703:16704   */\n      dup3\n        /* \"#utility.yul\":16700:16710   */\n      gt\n        /* \"#utility.yul\":16697:16733   */\n      iszero\n      tag_317\n      jumpi\n        /* \"#utility.yul\":16713:16731   */\n      tag_318\n      tag_162\n      jump\t// in\n    tag_318:\n        /* \"#utility.yul\":16697:16733   */\n    tag_317:\n        /* \"#utility.yul\":16549:16740   */\n      swap3\n      swap2\n      pop\n      pop\n      jump\t// out\n        /* \"#utility.yul\":16746:16909   */\n    tag_169:\n        /* \"#utility.yul\":16886:16901   */\n      0x4e6f7420746865206f776e657200000000000000000000000000000000000000\n        /* \"#utility.yul\":16882:16883   */\n      0x00\n        /* \"#utility.yul\":16874:16880   */\n      dup3\n        /* \"#utility.yul\":16870:16884   */\n      add\n        /* \"#utility.yul\":16863:16902   */\n      mstore\n        /* \"#utility.yul\":16746:16909   */\n      pop\n      jump\t// out\n        /* \"#utility.yul\":16915:17281   */\n    tag_170:\n        /* \"#utility.yul\":17057:17060   */\n      0x00\n        /* \"#utility.yul\":17078:17145   */\n      tag_321\n        /* \"#utility.yul\":17142:17144   */\n      0x0d\n        /* \"#utility.yul\":17137:17140   */\n      dup4\n        /* \"#utility.yul\":17078:17145   */\n      tag_145\n      jump\t// in\n    tag_321:\n        /* \"#utility.yul\":17071:17145   */\n      swap2\n      pop\n        /* \"#utility.yul\":17154:17247   */\n      tag_322\n        /* \"#utility.yul\":17243:17246   */\n      dup3\n        /* \"#utility.yul\":17154:17247   */\n      tag_169\n      jump\t// in\n    tag_322:\n        /* \"#utility.yul\":17272:17274   */\n      0x20\n        /* \"#utility.yul\":17267:17270   */\n      dup3\n        /* \"#utility.yul\":17263:17275   */\n      add\n        /* \"#utility.yul\":17256:17275   */\n      swap1\n      pop\n        /* \"#utility.yul\":16915:17281   */\n      swap2\n      swap1\n      pop\n      jump\t// out\n        /* \"#utility.yul\":17287:17706   */\n    tag_125:\n        /* \"#utility.yul\":17453:17457   */\n      0x00\n        /* \"#utility.yul\":17491:17493   */\n      0x20\n        /* \"#utility.yul\":17480:17489   */\n      dup3\n        /* \"#utility.yul\":17476:17494   */\n      add\n        /* \"#utility.yul\":17468:17494   */\n      swap1\n      pop\n        /* \"#utility.yul\":17540:17549   */\n      dup2\n        /* \"#utility.yul\":17534:17538   */\n      dup2\n        /* \"#utility.yul\":17530:17550   */\n      sub\n        /* \"#utility.yul\":17526:17527   */\n      0x00\n        /* \"#utility.yul\":17515:17524   */\n      dup4\n        /* \"#utility.yul\":17511:17528   */\n      add\n        /* \"#utility.yul\":17504:17551   */\n      mstore\n        /* \"#utility.yul\":17568:17699   */\n      tag_324\n        /* \"#utility.yul\":17694:17698   */\n      dup2\n        /* \"#utility.yul\":17568:17699   */\n      tag_170\n      jump\t// in\n    tag_324:\n        /* \"#utility.yul\":17560:17699   */\n      swap1\n      pop\n        /* \"#utility.yul\":17287:17706   */\n      swap2\n      swap1\n      pop\n      jump\t// out\n\n    auxdata: 0xa26469706673582212204b9ecd9c94ea258d1ec533909c53d3f843bdeaf9cd091ec7829f1edbcc78673364736f6c634300081a0033\n}\n",
				"bytecode": {
					"linkReferences": {},
					"object": "6080604052348015600e575f80fd5b506112bb8061001c5f395ff3fe608060405260043610610090575f3560e01c8063b61d27f611610058578063b61d27f614610168578063b7b0422d14610184578063d0e30db0146101ac578063d936547e146101b6578063e43252d7146101f257610090565b806327e235e31461009457806373ad468a146100d05780638da5cb5b146100fa5780639d51d9b714610124578063ac9650d81461014c575b5f80fd5b34801561009f575f80fd5b506100ba60048036038101906100b59190610acd565b61021a565b6040516100c79190610b10565b60405180910390f35b3480156100db575f80fd5b506100e461022f565b6040516100f19190610b10565b60405180910390f35b348015610105575f80fd5b5061010e610235565b60405161011b9190610b38565b60405180910390f35b34801561012f575f80fd5b5061014a60048036038101906101459190610b7b565b610258565b005b61016660048036038101906101619190610c07565b61032d565b005b610182600480360381019061017d9190610ca7565b6105aa565b005b34801561018f575f80fd5b506101aa60048036038101906101a59190610b7b565b6107b9565b005b6101b4610846565b005b3480156101c1575f80fd5b506101dc60048036038101906101d79190610acd565b610969565b6040516101e99190610d32565b60405180910390f35b3480156101fd575f80fd5b5061021860048036038101906102139190610acd565b610986565b005b6003602052805f5260405f205f915090505481565b60015481565b5f8054906101000a900473ffffffffffffffffffffffffffffffffffffffff1681565b60025f3373ffffffffffffffffffffffffffffffffffffffff1673ffffffffffffffffffffffffffffffffffffffff1681526020019081526020015f205f9054906101000a900460ff166102e1576040517f08c379a00000000000000000000000000000000000000000000000000000000081526004016102d890610da5565b60405180910390fd5b5f4714610323576040517f08c379a000000000000000000000000000000000000000000000000000000000815260040161031a90610e0d565b60405180910390fd5b8060018190555050565b60025f3373ffffffffffffffffffffffffffffffffffffffff1673ffffffffffffffffffffffffffffffffffffffff1681526020019081526020015f205f9054906101000a900460ff166103b6576040517f08c379a00000000000000000000000000000000000000000000000000000000081526004016103ad90610da5565b60405180910390fd5b5f805b838390508110156105a4575f8484838181106103d8576103d7610e2b565b5b90506020028101906103ea9190610e64565b8080601f0160208091040260200160405190810160405280939291908181526020018383808284375f81840152601f19601f8201169050808301925050505050505090505f6020820151905063d0e30db060e01b7bffffffffffffffffffffffffffffffffffffffffffffffffffffffff1916817bffffffffffffffffffffffffffffffffffffffffffffffffffffffff1916036104c85783156104c3576040517f08c379a00000000000000000000000000000000000000000000000000000000081526004016104ba90610f10565b60405180910390fd5b600193505b5f3073ffffffffffffffffffffffffffffffffffffffff168787868181106104f3576104f2610e2b565b5b90506020028101906105059190610e64565b604051610513929190610f6a565b5f60405180830381855af49150503d805f811461054b576040519150601f19603f3d011682016040523d82523d5f602084013e610550565b606091505b5050905080610594576040517f08c379a000000000000000000000000000000000000000000000000000000000815260040161058b90610fcc565b60405180910390fd5b50505080806001019150506103b9565b50505050565b60025f3373ffffffffffffffffffffffffffffffffffffffff1673ffffffffffffffffffffffffffffffffffffffff1681526020019081526020015f205f9054906101000a900460ff16610633576040517f08c379a000000000000000000000000000000000000000000000000000000000815260040161062a90610da5565b60405180910390fd5b8260035f3373ffffffffffffffffffffffffffffffffffffffff1673ffffffffffffffffffffffffffffffffffffffff1681526020019081526020015f205410156106b3576040517f08c379a00000000000000000000000000000000000000000000000000000000081526004016106aa90611034565b60405180910390fd5b8260035f3373ffffffffffffffffffffffffffffffffffffffff1673ffffffffffffffffffffffffffffffffffffffff1681526020019081526020015f205f8282546106ff919061107f565b925050819055505f8473ffffffffffffffffffffffffffffffffffffffff1684848460405161072f929190610f6a565b5f6040518083038185875af1925050503d805f8114610769576040519150601f19603f3d011682016040523d82523d5f602084013e61076e565b606091505b50509050806107b2576040517f08c379a00000000000000000000000000000000000000000000000000000000081526004016107a9906110fc565b60405180910390fd5b5050505050565b5f600154146107fd576040517f08c379a00000000000000000000000000000000000000000000000000000000081526004016107f490611164565b60405180910390fd5b80600181905550335f806101000a81548173ffffffffffffffffffffffffffffffffffffffff021916908373ffffffffffffffffffffffffffffffffffffffff16021790555050565b60025f3373ffffffffffffffffffffffffffffffffffffffff1673ffffffffffffffffffffffffffffffffffffffff1681526020019081526020015f205f9054906101000a900460ff166108cf576040517f08c379a00000000000000000000000000000000000000000000000000000000081526004016108c690610da5565b60405180910390fd5b600154471115610914576040517f08c379a000000000000000000000000000000000000000000000000000000000815260040161090b906111cc565b60405180910390fd5b3460035f3373ffffffffffffffffffffffffffffffffffffffff1673ffffffffffffffffffffffffffffffffffffffff1681526020019081526020015f205f82825461096091906111ea565b92505081905550565b6002602052805f5260405f205f915054906101000a900460ff1681565b5f8054906101000a900473ffffffffffffffffffffffffffffffffffffffff1673ffffffffffffffffffffffffffffffffffffffff163373ffffffffffffffffffffffffffffffffffffffff1614610a13576040517f08c379a0000000000000000000000000000000000000000000000000000000008152600401610a0a90611267565b60405180910390fd5b600160025f8373ffffffffffffffffffffffffffffffffffffffff1673ffffffffffffffffffffffffffffffffffffffff1681526020019081526020015f205f6101000a81548160ff02191690831515021790555050565b5f80fd5b5f80fd5b5f73ffffffffffffffffffffffffffffffffffffffff82169050919050565b5f610a9c82610a73565b9050919050565b610aac81610a92565b8114610ab6575f80fd5b50565b5f81359050610ac781610aa3565b92915050565b5f60208284031215610ae257610ae1610a6b565b5b5f610aef84828501610ab9565b91505092915050565b5f819050919050565b610b0a81610af8565b82525050565b5f602082019050610b235f830184610b01565b92915050565b610b3281610a92565b82525050565b5f602082019050610b4b5f830184610b29565b92915050565b610b5a81610af8565b8114610b64575f80fd5b50565b5f81359050610b7581610b51565b92915050565b5f60208284031215610b9057610b8f610a6b565b5b5f610b9d84828501610b67565b91505092915050565b5f80fd5b5f80fd5b5f80fd5b5f8083601f840112610bc757610bc6610ba6565b5b8235905067ffffffffffffffff811115610be457610be3610baa565b5b602083019150836020820283011115610c0057610bff610bae565b5b9250929050565b5f8060208385031215610c1d57610c1c610a6b565b5b5f83013567ffffffffffffffff811115610c3a57610c39610a6f565b5b610c4685828601610bb2565b92509250509250929050565b5f8083601f840112610c6757610c66610ba6565b5b8235905067ffffffffffffffff811115610c8457610c83610baa565b5b602083019150836001820283011115610ca057610c9f610bae565b5b9250929050565b5f805f8060608587031215610cbf57610cbe610a6b565b5b5f610ccc87828801610ab9565b9450506020610cdd87828801610b67565b935050604085013567ffffffffffffffff811115610cfe57610cfd610a6f565b5b610d0a87828801610c52565b925092505092959194509250565b5f8115159050919050565b610d2c81610d18565b82525050565b5f602082019050610d455f830184610d23565b92915050565b5f82825260208201905092915050565b7f4e6f742077686974656c697374656400000000000000000000000000000000005f82015250565b5f610d8f600f83610d4b565b9150610d9a82610d5b565b602082019050919050565b5f6020820190508181035f830152610dbc81610d83565b9050919050565b7f436f6e74726163742062616c616e6365206973206e6f742030000000000000005f82015250565b5f610df7601983610d4b565b9150610e0282610dc3565b602082019050919050565b5f6020820190508181035f830152610e2481610deb565b9050919050565b7f4e487b71000000000000000000000000000000000000000000000000000000005f52603260045260245ffd5b5f80fd5b5f80fd5b5f80fd5b5f8083356001602003843603038112610e8057610e7f610e58565b5b80840192508235915067ffffffffffffffff821115610ea257610ea1610e5c565b5b602083019250600182023603831315610ebe57610ebd610e60565b5b509250929050565b7f4465706f7369742063616e206f6e6c792062652063616c6c6564206f6e6365005f82015250565b5f610efa601f83610d4b565b9150610f0582610ec6565b602082019050919050565b5f6020820190508181035f830152610f2781610eee565b9050919050565b5f81905092915050565b828183375f83830152505050565b5f610f518385610f2e565b9350610f5e838584610f38565b82840190509392505050565b5f610f76828486610f46565b91508190509392505050565b7f4572726f72207768696c652064656c65676174696e672063616c6c00000000005f82015250565b5f610fb6601b83610d4b565b9150610fc182610f82565b602082019050919050565b5f6020820190508181035f830152610fe381610faa565b9050919050565b7f496e73756666696369656e742062616c616e63650000000000000000000000005f82015250565b5f61101e601483610d4b565b915061102982610fea565b602082019050919050565b5f6020820190508181035f83015261104b81611012565b9050919050565b7f4e487b71000000000000000000000000000000000000000000000000000000005f52601160045260245ffd5b5f61108982610af8565b915061109483610af8565b92508282039050818111156110ac576110ab611052565b5b92915050565b7f457865637574696f6e206661696c6564000000000000000000000000000000005f82015250565b5f6110e6601083610d4b565b91506110f1826110b2565b602082019050919050565b5f6020820190508181035f830152611113816110da565b9050919050565b7f416c726561647920696e697469616c697a6564000000000000000000000000005f82015250565b5f61114e601383610d4b565b91506111598261111a565b602082019050919050565b5f6020820190508181035f83015261117b81611142565b9050919050565b7f4d61782062616c616e63652072656163686564000000000000000000000000005f82015250565b5f6111b6601383610d4b565b91506111c182611182565b602082019050919050565b5f6020820190508181035f8301526111e3816111aa565b9050919050565b5f6111f482610af8565b91506111ff83610af8565b925082820190508082111561121757611216611052565b5b92915050565b7f4e6f7420746865206f776e6572000000000000000000000000000000000000005f82015250565b5f611251600d83610d4b565b915061125c8261121d565b602082019050919050565b5f6020820190508181035f83015261127e81611245565b905091905056fea26469706673582212204b9ecd9c94ea258d1ec533909c53d3f843bdeaf9cd091ec7829f1edbcc78673364736f6c634300081a0033",
					"opcodes": "PUSH1 0x80 PUSH1 0x40 MSTORE CALLVALUE DUP1 ISZERO PUSH1 0xE JUMPI PUSH0 DUP1 REVERT JUMPDEST POP PUSH2 0x12BB DUP1 PUSH2 0x1C PUSH0 CODECOPY PUSH0 RETURN INVALID PUSH1 0x80 PUSH1 0x40 MSTORE PUSH1 0x4 CALLDATASIZE LT PUSH2 0x90 JUMPI PUSH0 CALLDATALOAD PUSH1 0xE0 SHR DUP1 PUSH4 0xB61D27F6 GT PUSH2 0x58 JUMPI DUP1 PUSH4 0xB61D27F6 EQ PUSH2 0x168 JUMPI DUP1 PUSH4 0xB7B0422D EQ PUSH2 0x184 JUMPI DUP1 PUSH4 0xD0E30DB0 EQ PUSH2 0x1AC JUMPI DUP1 PUSH4 0xD936547E EQ PUSH2 0x1B6 JUMPI DUP1 PUSH4 0xE43252D7 EQ PUSH2 0x1F2 JUMPI PUSH2 0x90 JUMP JUMPDEST DUP1 PUSH4 0x27E235E3 EQ PUSH2 0x94 JUMPI DUP1 PUSH4 0x73AD468A EQ PUSH2 0xD0 JUMPI DUP1 PUSH4 0x8DA5CB5B EQ PUSH2 0xFA JUMPI DUP1 PUSH4 0x9D51D9B7 EQ PUSH2 0x124 JUMPI DUP1 PUSH4 0xAC9650D8 EQ PUSH2 0x14C JUMPI JUMPDEST PUSH0 DUP1 REVERT JUMPDEST CALLVALUE DUP1 ISZERO PUSH2 0x9F JUMPI PUSH0 DUP1 REVERT JUMPDEST POP PUSH2 0xBA PUSH1 0x4 DUP1 CALLDATASIZE SUB DUP2 ADD SWAP1 PUSH2 0xB5 SWAP2 SWAP1 PUSH2 0xACD JUMP JUMPDEST PUSH2 0x21A JUMP JUMPDEST PUSH1 0x40 MLOAD PUSH2 0xC7 SWAP2 SWAP1 PUSH2 0xB10 JUMP JUMPDEST PUSH1 0x40 MLOAD DUP1 SWAP2 SUB SWAP1 RETURN JUMPDEST CALLVALUE DUP1 ISZERO PUSH2 0xDB JUMPI PUSH0 DUP1 REVERT JUMPDEST POP PUSH2 0xE4 PUSH2 0x22F JUMP JUMPDEST PUSH1 0x40 MLOAD PUSH2 0xF1 SWAP2 SWAP1 PUSH2 0xB10 JUMP JUMPDEST PUSH1 0x40 MLOAD DUP1 SWAP2 SUB SWAP1 RETURN JUMPDEST CALLVALUE DUP1 ISZERO PUSH2 0x105 JUMPI PUSH0 DUP1 REVERT JUMPDEST POP PUSH2 0x10E PUSH2 0x235 JUMP JUMPDEST PUSH1 0x40 MLOAD PUSH2 0x11B SWAP2 SWAP1 PUSH2 0xB38 JUMP JUMPDEST PUSH1 0x40 MLOAD DUP1 SWAP2 SUB SWAP1 RETURN JUMPDEST CALLVALUE DUP1 ISZERO PUSH2 0x12F JUMPI PUSH0 DUP1 REVERT JUMPDEST POP PUSH2 0x14A PUSH1 0x4 DUP1 CALLDATASIZE SUB DUP2 ADD SWAP1 PUSH2 0x145 SWAP2 SWAP1 PUSH2 0xB7B JUMP JUMPDEST PUSH2 0x258 JUMP JUMPDEST STOP JUMPDEST PUSH2 0x166 PUSH1 0x4 DUP1 CALLDATASIZE SUB DUP2 ADD SWAP1 PUSH2 0x161 SWAP2 SWAP1 PUSH2 0xC07 JUMP JUMPDEST PUSH2 0x32D JUMP JUMPDEST STOP JUMPDEST PUSH2 0x182 PUSH1 0x4 DUP1 CALLDATASIZE SUB DUP2 ADD SWAP1 PUSH2 0x17D SWAP2 SWAP1 PUSH2 0xCA7 JUMP JUMPDEST PUSH2 0x5AA JUMP JUMPDEST STOP JUMPDEST CALLVALUE DUP1 ISZERO PUSH2 0x18F JUMPI PUSH0 DUP1 REVERT JUMPDEST POP PUSH2 0x1AA PUSH1 0x4 DUP1 CALLDATASIZE SUB DUP2 ADD SWAP1 PUSH2 0x1A5 SWAP2 SWAP1 PUSH2 0xB7B JUMP JUMPDEST PUSH2 0x7B9 JUMP JUMPDEST STOP JUMPDEST PUSH2 0x1B4 PUSH2 0x846 JUMP JUMPDEST STOP JUMPDEST CALLVALUE DUP1 ISZERO PUSH2 0x1C1 JUMPI PUSH0 DUP1 REVERT JUMPDEST POP PUSH2 0x1DC PUSH1 0x4 DUP1 CALLDATASIZE SUB DUP2 ADD SWAP1 PUSH2 0x1D7 SWAP2 SWAP1 PUSH2 0xACD JUMP JUMPDEST PUSH2 0x969 JUMP JUMPDEST PUSH1 0x40 MLOAD PUSH2 0x1E9 SWAP2 SWAP1 PUSH2 0xD32 JUMP JUMPDEST PUSH1 0x40 MLOAD DUP1 SWAP2 SUB SWAP1 RETURN JUMPDEST CALLVALUE DUP1 ISZERO PUSH2 0x1FD JUMPI PUSH0 DUP1 REVERT JUMPDEST POP PUSH2 0x218 PUSH1 0x4 DUP1 CALLDATASIZE SUB DUP2 ADD SWAP1 PUSH2 0x213 SWAP2 SWAP1 PUSH2 0xACD JUMP JUMPDEST PUSH2 0x986 JUMP JUMPDEST STOP JUMPDEST PUSH1 0x3 PUSH1 0x20 MSTORE DUP1 PUSH0 MSTORE PUSH1 0x40 PUSH0 KECCAK256 PUSH0 SWAP2 POP SWAP1 POP SLOAD DUP2 JUMP JUMPDEST PUSH1 0x1 SLOAD DUP2 JUMP JUMPDEST PUSH0 DUP1 SLOAD SWAP1 PUSH2 0x100 EXP SWAP1 DIV PUSH20 0xFFFFFFFFFFFFFFFFFFFFFFFFFFFFFFFFFFFFFFFF AND DUP2 JUMP JUMPDEST PUSH1 0x2 PUSH0 CALLER PUSH20 0xFFFFFFFFFFFFFFFFFFFFFFFFFFFFFFFFFFFFFFFF AND PUSH20 0xFFFFFFFFFFFFFFFFFFFFFFFFFFFFFFFFFFFFFFFF AND DUP2 MSTORE PUSH1 0x20 ADD SWAP1 DUP2 MSTORE PUSH1 0x20 ADD PUSH0 KECCAK256 PUSH0 SWAP1 SLOAD SWAP1 PUSH2 0x100 EXP SWAP1 DIV PUSH1 0xFF AND PUSH2 0x2E1 JUMPI PUSH1 0x40 MLOAD PUSH32 0x8C379A000000000000000000000000000000000000000000000000000000000 DUP2 MSTORE PUSH1 0x4 ADD PUSH2 0x2D8 SWAP1 PUSH2 0xDA5 JUMP JUMPDEST PUSH1 0x40 MLOAD DUP1 SWAP2 SUB SWAP1 REVERT JUMPDEST PUSH0 SELFBALANCE EQ PUSH2 0x323 JUMPI PUSH1 0x40 MLOAD PUSH32 0x8C379A000000000000000000000000000000000000000000000000000000000 DUP2 MSTORE PUSH1 0x4 ADD PUSH2 0x31A SWAP1 PUSH2 0xE0D JUMP JUMPDEST PUSH1 0x40 MLOAD DUP1 SWAP2 SUB SWAP1 REVERT JUMPDEST DUP1 PUSH1 0x1 DUP2 SWAP1 SSTORE POP POP JUMP JUMPDEST PUSH1 0x2 PUSH0 CALLER PUSH20 0xFFFFFFFFFFFFFFFFFFFFFFFFFFFFFFFFFFFFFFFF AND PUSH20 0xFFFFFFFFFFFFFFFFFFFFFFFFFFFFFFFFFFFFFFFF AND DUP2 MSTORE PUSH1 0x20 ADD SWAP1 DUP2 MSTORE PUSH1 0x20 ADD PUSH0 KECCAK256 PUSH0 SWAP1 SLOAD SWAP1 PUSH2 0x100 EXP SWAP1 DIV PUSH1 0xFF AND PUSH2 0x3B6 JUMPI PUSH1 0x40 MLOAD PUSH32 0x8C379A000000000000000000000000000000000000000000000000000000000 DUP2 MSTORE PUSH1 0x4 ADD PUSH2 0x3AD SWAP1 PUSH2 0xDA5 JUMP JUMPDEST PUSH1 0x40 MLOAD DUP1 SWAP2 SUB SWAP1 REVERT JUMPDEST PUSH0 DUP1 JUMPDEST DUP4 DUP4 SWAP1 POP DUP2 LT ISZERO PUSH2 0x5A4 JUMPI PUSH0 DUP5 DUP5 DUP4 DUP2 DUP2 LT PUSH2 0x3D8 JUMPI PUSH2 0x3D7 PUSH2 0xE2B JUMP JUMPDEST JUMPDEST SWAP1 POP PUSH1 0x20 MUL DUP2 ADD SWAP1 PUSH2 0x3EA SWAP2 SWAP1 PUSH2 0xE64 JUMP JUMPDEST DUP1 DUP1 PUSH1 0x1F ADD PUSH1 0x20 DUP1 SWAP2 DIV MUL PUSH1 0x20 ADD PUSH1 0x40 MLOAD SWAP1 DUP2 ADD PUSH1 0x40 MSTORE DUP1 SWAP4 SWAP3 SWAP2 SWAP1 DUP2 DUP2 MSTORE PUSH1 0x20 ADD DUP4 DUP4 DUP1 DUP3 DUP5 CALLDATACOPY PUSH0 DUP2 DUP5 ADD MSTORE PUSH1 0x1F NOT PUSH1 0x1F DUP3 ADD AND SWAP1 POP DUP1 DUP4 ADD SWAP3 POP POP POP POP POP POP POP SWAP1 POP PUSH0 PUSH1 0x20 DUP3 ADD MLOAD SWAP1 POP PUSH4 0xD0E30DB0 PUSH1 0xE0 SHL PUSH28 0xFFFFFFFFFFFFFFFFFFFFFFFFFFFFFFFFFFFFFFFFFFFFFFFFFFFFFFFF NOT AND DUP2 PUSH28 0xFFFFFFFFFFFFFFFFFFFFFFFFFFFFFFFFFFFFFFFFFFFFFFFFFFFFFFFF NOT AND SUB PUSH2 0x4C8 JUMPI DUP4 ISZERO PUSH2 0x4C3 JUMPI PUSH1 0x40 MLOAD PUSH32 0x8C379A000000000000000000000000000000000000000000000000000000000 DUP2 MSTORE PUSH1 0x4 ADD PUSH2 0x4BA SWAP1 PUSH2 0xF10 JUMP JUMPDEST PUSH1 0x40 MLOAD DUP1 SWAP2 SUB SWAP1 REVERT JUMPDEST PUSH1 0x1 SWAP4 POP JUMPDEST PUSH0 ADDRESS PUSH20 0xFFFFFFFFFFFFFFFFFFFFFFFFFFFFFFFFFFFFFFFF AND DUP8 DUP8 DUP7 DUP2 DUP2 LT PUSH2 0x4F3 JUMPI PUSH2 0x4F2 PUSH2 0xE2B JUMP JUMPDEST JUMPDEST SWAP1 POP PUSH1 0x20 MUL DUP2 ADD SWAP1 PUSH2 0x505 SWAP2 SWAP1 PUSH2 0xE64 JUMP JUMPDEST PUSH1 0x40 MLOAD PUSH2 0x513 SWAP3 SWAP2 SWAP1 PUSH2 0xF6A JUMP JUMPDEST PUSH0 PUSH1 0x40 MLOAD DUP1 DUP4 SUB DUP2 DUP6 GAS DELEGATECALL SWAP2 POP POP RETURNDATASIZE DUP1 PUSH0 DUP2 EQ PUSH2 0x54B JUMPI PUSH1 0x40 MLOAD SWAP2 POP PUSH1 0x1F NOT PUSH1 0x3F RETURNDATASIZE ADD AND DUP3 ADD PUSH1 0x40 MSTORE RETURNDATASIZE DUP3 MSTORE RETURNDATASIZE PUSH0 PUSH1 0x20 DUP5 ADD RETURNDATACOPY PUSH2 0x550 JUMP JUMPDEST PUSH1 0x60 SWAP2 POP JUMPDEST POP POP SWAP1 POP DUP1 PUSH2 0x594 JUMPI PUSH1 0x40 MLOAD PUSH32 0x8C379A000000000000000000000000000000000000000000000000000000000 DUP2 MSTORE PUSH1 0x4 ADD PUSH2 0x58B SWAP1 PUSH2 0xFCC JUMP JUMPDEST PUSH1 0x40 MLOAD DUP1 SWAP2 SUB SWAP1 REVERT JUMPDEST POP POP POP DUP1 DUP1 PUSH1 0x1 ADD SWAP2 POP POP PUSH2 0x3B9 JUMP JUMPDEST POP POP POP POP JUMP JUMPDEST PUSH1 0x2 PUSH0 CALLER PUSH20 0xFFFFFFFFFFFFFFFFFFFFFFFFFFFFFFFFFFFFFFFF AND PUSH20 0xFFFFFFFFFFFFFFFFFFFFFFFFFFFFFFFFFFFFFFFF AND DUP2 MSTORE PUSH1 0x20 ADD SWAP1 DUP2 MSTORE PUSH1 0x20 ADD PUSH0 KECCAK256 PUSH0 SWAP1 SLOAD SWAP1 PUSH2 0x100 EXP SWAP1 DIV PUSH1 0xFF AND PUSH2 0x633 JUMPI PUSH1 0x40 MLOAD PUSH32 0x8C379A000000000000000000000000000000000000000000000000000000000 DUP2 MSTORE PUSH1 0x4 ADD PUSH2 0x62A SWAP1 PUSH2 0xDA5 JUMP JUMPDEST PUSH1 0x40 MLOAD DUP1 SWAP2 SUB SWAP1 REVERT JUMPDEST DUP3 PUSH1 0x3 PUSH0 CALLER PUSH20 0xFFFFFFFFFFFFFFFFFFFFFFFFFFFFFFFFFFFFFFFF AND PUSH20 0xFFFFFFFFFFFFFFFFFFFFFFFFFFFFFFFFFFFFFFFF AND DUP2 MSTORE PUSH1 0x20 ADD SWAP1 DUP2 MSTORE PUSH1 0x20 ADD PUSH0 KECCAK256 SLOAD LT ISZERO PUSH2 0x6B3 JUMPI PUSH1 0x40 MLOAD PUSH32 0x8C379A000000000000000000000000000000000000000000000000000000000 DUP2 MSTORE PUSH1 0x4 ADD PUSH2 0x6AA SWAP1 PUSH2 0x1034 JUMP JUMPDEST PUSH1 0x40 MLOAD DUP1 SWAP2 SUB SWAP1 REVERT JUMPDEST DUP3 PUSH1 0x3 PUSH0 CALLER PUSH20 0xFFFFFFFFFFFFFFFFFFFFFFFFFFFFFFFFFFFFFFFF AND PUSH20 0xFFFFFFFFFFFFFFFFFFFFFFFFFFFFFFFFFFFFFFFF AND DUP2 MSTORE PUSH1 0x20 ADD SWAP1 DUP2 MSTORE PUSH1 0x20 ADD PUSH0 KECCAK256 PUSH0 DUP3 DUP3 SLOAD PUSH2 0x6FF SWAP2 SWAP1 PUSH2 0x107F JUMP JUMPDEST SWAP3 POP POP DUP2 SWAP1 SSTORE POP PUSH0 DUP5 PUSH20 0xFFFFFFFFFFFFFFFFFFFFFFFFFFFFFFFFFFFFFFFF AND DUP5 DUP5 DUP5 PUSH1 0x40 MLOAD PUSH2 0x72F SWAP3 SWAP2 SWAP1 PUSH2 0xF6A JUMP JUMPDEST PUSH0 PUSH1 0x40 MLOAD DUP1 DUP4 SUB DUP2 DUP6 DUP8 GAS CALL SWAP3 POP POP POP RETURNDATASIZE DUP1 PUSH0 DUP2 EQ PUSH2 0x769 JUMPI PUSH1 0x40 MLOAD SWAP2 POP PUSH1 0x1F NOT PUSH1 0x3F RETURNDATASIZE ADD AND DUP3 ADD PUSH1 0x40 MSTORE RETURNDATASIZE DUP3 MSTORE RETURNDATASIZE PUSH0 PUSH1 0x20 DUP5 ADD RETURNDATACOPY PUSH2 0x76E JUMP JUMPDEST PUSH1 0x60 SWAP2 POP JUMPDEST POP POP SWAP1 POP DUP1 PUSH2 0x7B2 JUMPI PUSH1 0x40 MLOAD PUSH32 0x8C379A000000000000000000000000000000000000000000000000000000000 DUP2 MSTORE PUSH1 0x4 ADD PUSH2 0x7A9 SWAP1 PUSH2 0x10FC JUMP JUMPDEST PUSH1 0x40 MLOAD DUP1 SWAP2 SUB SWAP1 REVERT JUMPDEST POP POP POP POP POP JUMP JUMPDEST PUSH0 PUSH1 0x1 SLOAD EQ PUSH2 0x7FD JUMPI PUSH1 0x40 MLOAD PUSH32 0x8C379A000000000000000000000000000000000000000000000000000000000 DUP2 MSTORE PUSH1 0x4 ADD PUSH2 0x7F4 SWAP1 PUSH2 0x1164 JUMP JUMPDEST PUSH1 0x40 MLOAD DUP1 SWAP2 SUB SWAP1 REVERT JUMPDEST DUP1 PUSH1 0x1 DUP2 SWAP1 SSTORE POP CALLER PUSH0 DUP1 PUSH2 0x100 EXP DUP2 SLOAD DUP2 PUSH20 0xFFFFFFFFFFFFFFFFFFFFFFFFFFFFFFFFFFFFFFFF MUL NOT AND SWAP1 DUP4 PUSH20 0xFFFFFFFFFFFFFFFFFFFFFFFFFFFFFFFFFFFFFFFF AND MUL OR SWAP1 SSTORE POP POP JUMP JUMPDEST PUSH1 0x2 PUSH0 CALLER PUSH20 0xFFFFFFFFFFFFFFFFFFFFFFFFFFFFFFFFFFFFFFFF AND PUSH20 0xFFFFFFFFFFFFFFFFFFFFFFFFFFFFFFFFFFFFFFFF AND DUP2 MSTORE PUSH1 0x20 ADD SWAP1 DUP2 MSTORE PUSH1 0x20 ADD PUSH0 KECCAK256 PUSH0 SWAP1 SLOAD SWAP1 PUSH2 0x100 EXP SWAP1 DIV PUSH1 0xFF AND PUSH2 0x8CF JUMPI PUSH1 0x40 MLOAD PUSH32 0x8C379A000000000000000000000000000000000000000000000000000000000 DUP2 MSTORE PUSH1 0x4 ADD PUSH2 0x8C6 SWAP1 PUSH2 0xDA5 JUMP JUMPDEST PUSH1 0x40 MLOAD DUP1 SWAP2 SUB SWAP1 REVERT JUMPDEST PUSH1 0x1 SLOAD SELFBALANCE GT ISZERO PUSH2 0x914 JUMPI PUSH1 0x40 MLOAD PUSH32 0x8C379A000000000000000000000000000000000000000000000000000000000 DUP2 MSTORE PUSH1 0x4 ADD PUSH2 0x90B SWAP1 PUSH2 0x11CC JUMP JUMPDEST PUSH1 0x40 MLOAD DUP1 SWAP2 SUB SWAP1 REVERT JUMPDEST CALLVALUE PUSH1 0x3 PUSH0 CALLER PUSH20 0xFFFFFFFFFFFFFFFFFFFFFFFFFFFFFFFFFFFFFFFF AND PUSH20 0xFFFFFFFFFFFFFFFFFFFFFFFFFFFFFFFFFFFFFFFF AND DUP2 MSTORE PUSH1 0x20 ADD SWAP1 DUP2 MSTORE PUSH1 0x20 ADD PUSH0 KECCAK256 PUSH0 DUP3 DUP3 SLOAD PUSH2 0x960 SWAP2 SWAP1 PUSH2 0x11EA JUMP JUMPDEST SWAP3 POP POP DUP2 SWAP1 SSTORE POP JUMP JUMPDEST PUSH1 0x2 PUSH1 0x20 MSTORE DUP1 PUSH0 MSTORE PUSH1 0x40 PUSH0 KECCAK256 PUSH0 SWAP2 POP SLOAD SWAP1 PUSH2 0x100 EXP SWAP1 DIV PUSH1 0xFF AND DUP2 JUMP JUMPDEST PUSH0 DUP1 SLOAD SWAP1 PUSH2 0x100 EXP SWAP1 DIV PUSH20 0xFFFFFFFFFFFFFFFFFFFFFFFFFFFFFFFFFFFFFFFF AND PUSH20 0xFFFFFFFFFFFFFFFFFFFFFFFFFFFFFFFFFFFFFFFF AND CALLER PUSH20 0xFFFFFFFFFFFFFFFFFFFFFFFFFFFFFFFFFFFFFFFF AND EQ PUSH2 0xA13 JUMPI PUSH1 0x40 MLOAD PUSH32 0x8C379A000000000000000000000000000000000000000000000000000000000 DUP2 MSTORE PUSH1 0x4 ADD PUSH2 0xA0A SWAP1 PUSH2 0x1267 JUMP JUMPDEST PUSH1 0x40 MLOAD DUP1 SWAP2 SUB SWAP1 REVERT JUMPDEST PUSH1 0x1 PUSH1 0x2 PUSH0 DUP4 PUSH20 0xFFFFFFFFFFFFFFFFFFFFFFFFFFFFFFFFFFFFFFFF AND PUSH20 0xFFFFFFFFFFFFFFFFFFFFFFFFFFFFFFFFFFFFFFFF AND DUP2 MSTORE PUSH1 0x20 ADD SWAP1 DUP2 MSTORE PUSH1 0x20 ADD PUSH0 KECCAK256 PUSH0 PUSH2 0x100 EXP DUP2 SLOAD DUP2 PUSH1 0xFF MUL NOT AND SWAP1 DUP4 ISZERO ISZERO MUL OR SWAP1 SSTORE POP POP JUMP JUMPDEST PUSH0 DUP1 REVERT JUMPDEST PUSH0 DUP1 REVERT JUMPDEST PUSH0 PUSH20 0xFFFFFFFFFFFFFFFFFFFFFFFFFFFFFFFFFFFFFFFF DUP3 AND SWAP1 POP SWAP2 SWAP1 POP JUMP JUMPDEST PUSH0 PUSH2 0xA9C DUP3 PUSH2 0xA73 JUMP JUMPDEST SWAP1 POP SWAP2 SWAP1 POP JUMP JUMPDEST PUSH2 0xAAC DUP2 PUSH2 0xA92 JUMP JUMPDEST DUP2 EQ PUSH2 0xAB6 JUMPI PUSH0 DUP1 REVERT JUMPDEST POP JUMP JUMPDEST PUSH0 DUP2 CALLDATALOAD SWAP1 POP PUSH2 0xAC7 DUP2 PUSH2 0xAA3 JUMP JUMPDEST SWAP3 SWAP2 POP POP JUMP JUMPDEST PUSH0 PUSH1 0x20 DUP3 DUP5 SUB SLT ISZERO PUSH2 0xAE2 JUMPI PUSH2 0xAE1 PUSH2 0xA6B JUMP JUMPDEST JUMPDEST PUSH0 PUSH2 0xAEF DUP5 DUP3 DUP6 ADD PUSH2 0xAB9 JUMP JUMPDEST SWAP2 POP POP SWAP3 SWAP2 POP POP JUMP JUMPDEST PUSH0 DUP2 SWAP1 POP SWAP2 SWAP1 POP JUMP JUMPDEST PUSH2 0xB0A DUP2 PUSH2 0xAF8 JUMP JUMPDEST DUP3 MSTORE POP POP JUMP JUMPDEST PUSH0 PUSH1 0x20 DUP3 ADD SWAP1 POP PUSH2 0xB23 PUSH0 DUP4 ADD DUP5 PUSH2 0xB01 JUMP JUMPDEST SWAP3 SWAP2 POP POP JUMP JUMPDEST PUSH2 0xB32 DUP2 PUSH2 0xA92 JUMP JUMPDEST DUP3 MSTORE POP POP JUMP JUMPDEST PUSH0 PUSH1 0x20 DUP3 ADD SWAP1 POP PUSH2 0xB4B PUSH0 DUP4 ADD DUP5 PUSH2 0xB29 JUMP JUMPDEST SWAP3 SWAP2 POP POP JUMP JUMPDEST PUSH2 0xB5A DUP2 PUSH2 0xAF8 JUMP JUMPDEST DUP2 EQ PUSH2 0xB64 JUMPI PUSH0 DUP1 REVERT JUMPDEST POP JUMP JUMPDEST PUSH0 DUP2 CALLDATALOAD SWAP1 POP PUSH2 0xB75 DUP2 PUSH2 0xB51 JUMP JUMPDEST SWAP3 SWAP2 POP POP JUMP JUMPDEST PUSH0 PUSH1 0x20 DUP3 DUP5 SUB SLT ISZERO PUSH2 0xB90 JUMPI PUSH2 0xB8F PUSH2 0xA6B JUMP JUMPDEST JUMPDEST PUSH0 PUSH2 0xB9D DUP5 DUP3 DUP6 ADD PUSH2 0xB67 JUMP JUMPDEST SWAP2 POP POP SWAP3 SWAP2 POP POP JUMP JUMPDEST PUSH0 DUP1 REVERT JUMPDEST PUSH0 DUP1 REVERT JUMPDEST PUSH0 DUP1 REVERT JUMPDEST PUSH0 DUP1 DUP4 PUSH1 0x1F DUP5 ADD SLT PUSH2 0xBC7 JUMPI PUSH2 0xBC6 PUSH2 0xBA6 JUMP JUMPDEST JUMPDEST DUP3 CALLDATALOAD SWAP1 POP PUSH8 0xFFFFFFFFFFFFFFFF DUP2 GT ISZERO PUSH2 0xBE4 JUMPI PUSH2 0xBE3 PUSH2 0xBAA JUMP JUMPDEST JUMPDEST PUSH1 0x20 DUP4 ADD SWAP2 POP DUP4 PUSH1 0x20 DUP3 MUL DUP4 ADD GT ISZERO PUSH2 0xC00 JUMPI PUSH2 0xBFF PUSH2 0xBAE JUMP JUMPDEST JUMPDEST SWAP3 POP SWAP3 SWAP1 POP JUMP JUMPDEST PUSH0 DUP1 PUSH1 0x20 DUP4 DUP6 SUB SLT ISZERO PUSH2 0xC1D JUMPI PUSH2 0xC1C PUSH2 0xA6B JUMP JUMPDEST JUMPDEST PUSH0 DUP4 ADD CALLDATALOAD PUSH8 0xFFFFFFFFFFFFFFFF DUP2 GT ISZERO PUSH2 0xC3A JUMPI PUSH2 0xC39 PUSH2 0xA6F JUMP JUMPDEST JUMPDEST PUSH2 0xC46 DUP6 DUP3 DUP7 ADD PUSH2 0xBB2 JUMP JUMPDEST SWAP3 POP SWAP3 POP POP SWAP3 POP SWAP3 SWAP1 POP JUMP JUMPDEST PUSH0 DUP1 DUP4 PUSH1 0x1F DUP5 ADD SLT PUSH2 0xC67 JUMPI PUSH2 0xC66 PUSH2 0xBA6 JUMP JUMPDEST JUMPDEST DUP3 CALLDATALOAD SWAP1 POP PUSH8 0xFFFFFFFFFFFFFFFF DUP2 GT ISZERO PUSH2 0xC84 JUMPI PUSH2 0xC83 PUSH2 0xBAA JUMP JUMPDEST JUMPDEST PUSH1 0x20 DUP4 ADD SWAP2 POP DUP4 PUSH1 0x1 DUP3 MUL DUP4 ADD GT ISZERO PUSH2 0xCA0 JUMPI PUSH2 0xC9F PUSH2 0xBAE JUMP JUMPDEST JUMPDEST SWAP3 POP SWAP3 SWAP1 POP JUMP JUMPDEST PUSH0 DUP1 PUSH0 DUP1 PUSH1 0x60 DUP6 DUP8 SUB SLT ISZERO PUSH2 0xCBF JUMPI PUSH2 0xCBE PUSH2 0xA6B JUMP JUMPDEST JUMPDEST PUSH0 PUSH2 0xCCC DUP8 DUP3 DUP9 ADD PUSH2 0xAB9 JUMP JUMPDEST SWAP5 POP POP PUSH1 0x20 PUSH2 0xCDD DUP8 DUP3 DUP9 ADD PUSH2 0xB67 JUMP JUMPDEST SWAP4 POP POP PUSH1 0x40 DUP6 ADD CALLDATALOAD PUSH8 0xFFFFFFFFFFFFFFFF DUP2 GT ISZERO PUSH2 0xCFE JUMPI PUSH2 0xCFD PUSH2 0xA6F JUMP JUMPDEST JUMPDEST PUSH2 0xD0A DUP8 DUP3 DUP9 ADD PUSH2 0xC52 JUMP JUMPDEST SWAP3 POP SWAP3 POP POP SWAP3 SWAP6 SWAP2 SWAP5 POP SWAP3 POP JUMP JUMPDEST PUSH0 DUP2 ISZERO ISZERO SWAP1 POP SWAP2 SWAP1 POP JUMP JUMPDEST PUSH2 0xD2C DUP2 PUSH2 0xD18 JUMP JUMPDEST DUP3 MSTORE POP POP JUMP JUMPDEST PUSH0 PUSH1 0x20 DUP3 ADD SWAP1 POP PUSH2 0xD45 PUSH0 DUP4 ADD DUP5 PUSH2 0xD23 JUMP JUMPDEST SWAP3 SWAP2 POP POP JUMP JUMPDEST PUSH0 DUP3 DUP3 MSTORE PUSH1 0x20 DUP3 ADD SWAP1 POP SWAP3 SWAP2 POP POP JUMP JUMPDEST PUSH32 0x4E6F742077686974656C69737465640000000000000000000000000000000000 PUSH0 DUP3 ADD MSTORE POP JUMP JUMPDEST PUSH0 PUSH2 0xD8F PUSH1 0xF DUP4 PUSH2 0xD4B JUMP JUMPDEST SWAP2 POP PUSH2 0xD9A DUP3 PUSH2 0xD5B JUMP JUMPDEST PUSH1 0x20 DUP3 ADD SWAP1 POP SWAP2 SWAP1 POP JUMP JUMPDEST PUSH0 PUSH1 0x20 DUP3 ADD SWAP1 POP DUP2 DUP2 SUB PUSH0 DUP4 ADD MSTORE PUSH2 0xDBC DUP2 PUSH2 0xD83 JUMP JUMPDEST SWAP1 POP SWAP2 SWAP1 POP JUMP JUMPDEST PUSH32 0x436F6E74726163742062616C616E6365206973206E6F74203000000000000000 PUSH0 DUP3 ADD MSTORE POP JUMP JUMPDEST PUSH0 PUSH2 0xDF7 PUSH1 0x19 DUP4 PUSH2 0xD4B JUMP JUMPDEST SWAP2 POP PUSH2 0xE02 DUP3 PUSH2 0xDC3 JUMP JUMPDEST PUSH1 0x20 DUP3 ADD SWAP1 POP SWAP2 SWAP1 POP JUMP JUMPDEST PUSH0 PUSH1 0x20 DUP3 ADD SWAP1 POP DUP2 DUP2 SUB PUSH0 DUP4 ADD MSTORE PUSH2 0xE24 DUP2 PUSH2 0xDEB JUMP JUMPDEST SWAP1 POP SWAP2 SWAP1 POP JUMP JUMPDEST PUSH32 0x4E487B7100000000000000000000000000000000000000000000000000000000 PUSH0 MSTORE PUSH1 0x32 PUSH1 0x4 MSTORE PUSH1 0x24 PUSH0 REVERT JUMPDEST PUSH0 DUP1 REVERT JUMPDEST PUSH0 DUP1 REVERT JUMPDEST PUSH0 DUP1 REVERT JUMPDEST PUSH0 DUP1 DUP4 CALLDATALOAD PUSH1 0x1 PUSH1 0x20 SUB DUP5 CALLDATASIZE SUB SUB DUP2 SLT PUSH2 0xE80 JUMPI PUSH2 0xE7F PUSH2 0xE58 JUMP JUMPDEST JUMPDEST DUP1 DUP5 ADD SWAP3 POP DUP3 CALLDATALOAD SWAP2 POP PUSH8 0xFFFFFFFFFFFFFFFF DUP3 GT ISZERO PUSH2 0xEA2 JUMPI PUSH2 0xEA1 PUSH2 0xE5C JUMP JUMPDEST JUMPDEST PUSH1 0x20 DUP4 ADD SWAP3 POP PUSH1 0x1 DUP3 MUL CALLDATASIZE SUB DUP4 SGT ISZERO PUSH2 0xEBE JUMPI PUSH2 0xEBD PUSH2 0xE60 JUMP JUMPDEST JUMPDEST POP SWAP3 POP SWAP3 SWAP1 POP JUMP JUMPDEST PUSH32 0x4465706F7369742063616E206F6E6C792062652063616C6C6564206F6E636500 PUSH0 DUP3 ADD MSTORE POP JUMP JUMPDEST PUSH0 PUSH2 0xEFA PUSH1 0x1F DUP4 PUSH2 0xD4B JUMP JUMPDEST SWAP2 POP PUSH2 0xF05 DUP3 PUSH2 0xEC6 JUMP JUMPDEST PUSH1 0x20 DUP3 ADD SWAP1 POP SWAP2 SWAP1 POP JUMP JUMPDEST PUSH0 PUSH1 0x20 DUP3 ADD SWAP1 POP DUP2 DUP2 SUB PUSH0 DUP4 ADD MSTORE PUSH2 0xF27 DUP2 PUSH2 0xEEE JUMP JUMPDEST SWAP1 POP SWAP2 SWAP1 POP JUMP JUMPDEST PUSH0 DUP2 SWAP1 POP SWAP3 SWAP2 POP POP JUMP JUMPDEST DUP3 DUP2 DUP4 CALLDATACOPY PUSH0 DUP4 DUP4 ADD MSTORE POP POP POP JUMP JUMPDEST PUSH0 PUSH2 0xF51 DUP4 DUP6 PUSH2 0xF2E JUMP JUMPDEST SWAP4 POP PUSH2 0xF5E DUP4 DUP6 DUP5 PUSH2 0xF38 JUMP JUMPDEST DUP3 DUP5 ADD SWAP1 POP SWAP4 SWAP3 POP POP POP JUMP JUMPDEST PUSH0 PUSH2 0xF76 DUP3 DUP5 DUP7 PUSH2 0xF46 JUMP JUMPDEST SWAP2 POP DUP2 SWAP1 POP SWAP4 SWAP3 POP POP POP JUMP JUMPDEST PUSH32 0x4572726F72207768696C652064656C65676174696E672063616C6C0000000000 PUSH0 DUP3 ADD MSTORE POP JUMP JUMPDEST PUSH0 PUSH2 0xFB6 PUSH1 0x1B DUP4 PUSH2 0xD4B JUMP JUMPDEST SWAP2 POP PUSH2 0xFC1 DUP3 PUSH2 0xF82 JUMP JUMPDEST PUSH1 0x20 DUP3 ADD SWAP1 POP SWAP2 SWAP1 POP JUMP JUMPDEST PUSH0 PUSH1 0x20 DUP3 ADD SWAP1 POP DUP2 DUP2 SUB PUSH0 DUP4 ADD MSTORE PUSH2 0xFE3 DUP2 PUSH2 0xFAA JUMP JUMPDEST SWAP1 POP SWAP2 SWAP1 POP JUMP JUMPDEST PUSH32 0x496E73756666696369656E742062616C616E6365000000000000000000000000 PUSH0 DUP3 ADD MSTORE POP JUMP JUMPDEST PUSH0 PUSH2 0x101E PUSH1 0x14 DUP4 PUSH2 0xD4B JUMP JUMPDEST SWAP2 POP PUSH2 0x1029 DUP3 PUSH2 0xFEA JUMP JUMPDEST PUSH1 0x20 DUP3 ADD SWAP1 POP SWAP2 SWAP1 POP JUMP JUMPDEST PUSH0 PUSH1 0x20 DUP3 ADD SWAP1 POP DUP2 DUP2 SUB PUSH0 DUP4 ADD MSTORE PUSH2 0x104B DUP2 PUSH2 0x1012 JUMP JUMPDEST SWAP1 POP SWAP2 SWAP1 POP JUMP JUMPDEST PUSH32 0x4E487B7100000000000000000000000000000000000000000000000000000000 PUSH0 MSTORE PUSH1 0x11 PUSH1 0x4 MSTORE PUSH1 0x24 PUSH0 REVERT JUMPDEST PUSH0 PUSH2 0x1089 DUP3 PUSH2 0xAF8 JUMP JUMPDEST SWAP2 POP PUSH2 0x1094 DUP4 PUSH2 0xAF8 JUMP JUMPDEST SWAP3 POP DUP3 DUP3 SUB SWAP1 POP DUP2 DUP2 GT ISZERO PUSH2 0x10AC JUMPI PUSH2 0x10AB PUSH2 0x1052 JUMP JUMPDEST JUMPDEST SWAP3 SWAP2 POP POP JUMP JUMPDEST PUSH32 0x457865637574696F6E206661696C656400000000000000000000000000000000 PUSH0 DUP3 ADD MSTORE POP JUMP JUMPDEST PUSH0 PUSH2 0x10E6 PUSH1 0x10 DUP4 PUSH2 0xD4B JUMP JUMPDEST SWAP2 POP PUSH2 0x10F1 DUP3 PUSH2 0x10B2 JUMP JUMPDEST PUSH1 0x20 DUP3 ADD SWAP1 POP SWAP2 SWAP1 POP JUMP JUMPDEST PUSH0 PUSH1 0x20 DUP3 ADD SWAP1 POP DUP2 DUP2 SUB PUSH0 DUP4 ADD MSTORE PUSH2 0x1113 DUP2 PUSH2 0x10DA JUMP JUMPDEST SWAP1 POP SWAP2 SWAP1 POP JUMP JUMPDEST PUSH32 0x416C726561647920696E697469616C697A656400000000000000000000000000 PUSH0 DUP3 ADD MSTORE POP JUMP JUMPDEST PUSH0 PUSH2 0x114E PUSH1 0x13 DUP4 PUSH2 0xD4B JUMP JUMPDEST SWAP2 POP PUSH2 0x1159 DUP3 PUSH2 0x111A JUMP JUMPDEST PUSH1 0x20 DUP3 ADD SWAP1 POP SWAP2 SWAP1 POP JUMP JUMPDEST PUSH0 PUSH1 0x20 DUP3 ADD SWAP1 POP DUP2 DUP2 SUB PUSH0 DUP4 ADD MSTORE PUSH2 0x117B DUP2 PUSH2 0x1142 JUMP JUMPDEST SWAP1 POP SWAP2 SWAP1 POP JUMP JUMPDEST PUSH32 0x4D61782062616C616E6365207265616368656400000000000000000000000000 PUSH0 DUP3 ADD MSTORE POP JUMP JUMPDEST PUSH0 PUSH2 0x11B6 PUSH1 0x13 DUP4 PUSH2 0xD4B JUMP JUMPDEST SWAP2 POP PUSH2 0x11C1 DUP3 PUSH2 0x1182 JUMP JUMPDEST PUSH1 0x20 DUP3 ADD SWAP1 POP SWAP2 SWAP1 POP JUMP JUMPDEST PUSH0 PUSH1 0x20 DUP3 ADD SWAP1 POP DUP2 DUP2 SUB PUSH0 DUP4 ADD MSTORE PUSH2 0x11E3 DUP2 PUSH2 0x11AA JUMP JUMPDEST SWAP1 POP SWAP2 SWAP1 POP JUMP JUMPDEST PUSH0 PUSH2 0x11F4 DUP3 PUSH2 0xAF8 JUMP JUMPDEST SWAP2 POP PUSH2 0x11FF DUP4 PUSH2 0xAF8 JUMP JUMPDEST SWAP3 POP DUP3 DUP3 ADD SWAP1 POP DUP1 DUP3 GT ISZERO PUSH2 0x1217 JUMPI PUSH2 0x1216 PUSH2 0x1052 JUMP JUMPDEST JUMPDEST SWAP3 SWAP2 POP POP JUMP JUMPDEST PUSH32 0x4E6F7420746865206F776E657200000000000000000000000000000000000000 PUSH0 DUP3 ADD MSTORE POP JUMP JUMPDEST PUSH0 PUSH2 0x1251 PUSH1 0xD DUP4 PUSH2 0xD4B JUMP JUMPDEST SWAP2 POP PUSH2 0x125C DUP3 PUSH2 0x121D JUMP JUMPDEST PUSH1 0x20 DUP3 ADD SWAP1 POP SWAP2 SWAP1 POP JUMP JUMPDEST PUSH0 PUSH1 0x20 DUP3 ADD SWAP1 POP DUP2 DUP2 SUB PUSH0 DUP4 ADD MSTORE PUSH2 0x127E DUP2 PUSH2 0x1245 JUMP JUMPDEST SWAP1 POP SWAP2 SWAP1 POP JUMP INVALID LOG2 PUSH5 0x6970667358 0x22 SLT KECCAK256 0x4B SWAP15 0xCD SWAP13 SWAP5 0xEA 0x25 DUP14 0x1E 0xC5 CALLER SWAP1 SWAP13 MSTORE8 0xD3 0xF8 NUMBER 0xBD 0xEA 0xF9 0xCD MULMOD 0x1E 0xC7 DUP3 SWAP16 0x1E 0xDB 0xCC PUSH25 0x673364736F6C634300081A0033000000000000000000000000 "
				},
				"gasEstimates": {
					"creation": {
						"codeDepositCost": "959000",
						"executionCost": "992",
						"totalCost": "959992"
					},
					"external": {
						"addToWhitelist(address)": "27057",
						"balances(address)": "2803",
						"deposit()": "infinite",
						"execute(address,uint256,bytes)": "infinite",
						"init(uint256)": "48924",
						"maxBalance()": "2448",
						"multicall(bytes[])": "infinite",
						"owner()": "2550",
						"setMaxBalance(uint256)": "24845",
						"whitelisted(address)": "2899"
					}
				},
				"methodIdentifiers": {
					"addToWhitelist(address)": "e43252d7",
					"balances(address)": "27e235e3",
					"deposit()": "d0e30db0",
					"execute(address,uint256,bytes)": "b61d27f6",
					"init(uint256)": "b7b0422d",
					"maxBalance()": "73ad468a",
					"multicall(bytes[])": "ac9650d8",
					"owner()": "8da5cb5b",
					"setMaxBalance(uint256)": "9d51d9b7",
					"whitelisted(address)": "d936547e"
				}
			},
			"storageLayout": {
				"storage": [
					{
						"astId": 64,
						"contract": "puz.sol:PuzzleWallet",
						"label": "owner",
						"offset": 0,
						"slot": "0",
						"type": "t_address"
					},
					{
						"astId": 66,
						"contract": "puz.sol:PuzzleWallet",
						"label": "maxBalance",
						"offset": 0,
						"slot": "1",
						"type": "t_uint256"
					},
					{
						"astId": 70,
						"contract": "puz.sol:PuzzleWallet",
						"label": "whitelisted",
						"offset": 0,
						"slot": "2",
						"type": "t_mapping(t_address,t_bool)"
					},
					{
						"astId": 74,
						"contract": "puz.sol:PuzzleWallet",
						"label": "balances",
						"offset": 0,
						"slot": "3",
						"type": "t_mapping(t_address,t_uint256)"
					}
				],
				"types": {
					"t_address": {
						"encoding": "inplace",
						"label": "address",
						"numberOfBytes": "20"
					},
					"t_bool": {
						"encoding": "inplace",
						"label": "bool",
						"numberOfBytes": "1"
					},
					"t_mapping(t_address,t_bool)": {
						"encoding": "mapping",
						"key": "t_address",
						"label": "mapping(address => bool)",
						"numberOfBytes": "32",
						"value": "t_bool"
					},
					"t_mapping(t_address,t_uint256)": {
						"encoding": "mapping",
						"key": "t_address",
						"label": "mapping(address => uint256)",
						"numberOfBytes": "32",
						"value": "t_uint256"
					},
					"t_uint256": {
						"encoding": "inplace",
						"label": "uint256",
						"numberOfBytes": "32"
					}
				}
			},
			"userdoc": {
				"kind": "user",
				"methods": {},
				"version": 1
			}
		}
	}
}