{
	"fort.sol": {
		"AlertBot": {
			"abi": [
				{
					"inputs": [
						{
							"internalType": "address",
							"name": "_cryptoVault",
							"type": "address"
						}
					],
					"stateMutability": "nonpayable",
					"type": "constructor"
				},
				{
					"inputs": [
						{
							"internalType": "address",
							"name": "user",
							"type": "address"
						},
						{
							"internalType": "bytes",
							"name": "msgData",
							"type": "bytes"
						}
					],
					"name": "handleTransaction",
					"outputs": [],
					"stateMutability": "nonpayable",
					"type": "function"
				}
			],
			"devdoc": {
				"kind": "dev",
				"methods": {},
				"version": 1
			},
			"evm": {
				"assembly": "    /* \"fort.sol\":384:866  contract AlertBot is IDetectionBot {\r... */\n  mstore(0x40, 0x80)\n    /* \"fort.sol\":466:552  constructor(address _cryptoVault) public {\r... */\n  callvalue\n  dup1\n  iszero\n  tag_1\n  jumpi\n  0x00\n  dup1\n  revert\ntag_1:\n  pop\n  mload(0x40)\n  sub(codesize, bytecodeSize)\n  dup1\n  bytecodeSize\n  dup4\n  codecopy\n  dup2\n  dup2\n  add\n  0x40\n  mstore\n  dup2\n  add\n  swap1\n  tag_2\n  swap2\n  swap1\n  tag_3\n  jump\t// in\ntag_2:\n    /* \"fort.sol\":532:544  _cryptoVault */\n  dup1\n    /* \"fort.sol\":518:529  cryptoVault */\n  0x00\n  dup1\n    /* \"fort.sol\":518:544  cryptoVault = _cryptoVault */\n  0x0100\n  exp\n  dup2\n  sload\n  dup2\n  0xffffffffffffffffffffffffffffffffffffffff\n  mul\n  not\n  and\n  swap1\n  dup4\n  0xffffffffffffffffffffffffffffffffffffffff\n  and\n  mul\n  or\n  swap1\n  sstore\n  pop\n    /* \"fort.sol\":466:552  constructor(address _cryptoVault) public {\r... */\n  pop\n    /* \"fort.sol\":384:866  contract AlertBot is IDetectionBot {\r... */\n  jump(tag_6)\n    /* \"#utility.yul\":7:150   */\ntag_8:\n  0x00\n    /* \"#utility.yul\":95:101   */\n  dup2\n    /* \"#utility.yul\":89:102   */\n  mload\n    /* \"#utility.yul\":80:102   */\n  swap1\n  pop\n    /* \"#utility.yul\":111:144   */\n  tag_10\n    /* \"#utility.yul\":138:143   */\n  dup2\n    /* \"#utility.yul\":111:144   */\n  tag_11\n  jump\t// in\ntag_10:\n    /* \"#utility.yul\":70:150   */\n  swap3\n  swap2\n  pop\n  pop\n  jump\t// out\n    /* \"#utility.yul\":156:440   */\ntag_3:\n  0x00\n    /* \"#utility.yul\":275:277   */\n  0x20\n    /* \"#utility.yul\":263:272   */\n  dup3\n    /* \"#utility.yul\":254:261   */\n  dup5\n    /* \"#utility.yul\":250:273   */\n  sub\n    /* \"#utility.yul\":246:278   */\n  slt\n    /* \"#utility.yul\":243:245   */\n  iszero\n  tag_13\n  jumpi\n    /* \"#utility.yul\":291:292   */\n  0x00\n    /* \"#utility.yul\":288:289   */\n  dup1\n    /* \"#utility.yul\":281:293   */\n  revert\n    /* \"#utility.yul\":243:245   */\ntag_13:\n    /* \"#utility.yul\":334:335   */\n  0x00\n    /* \"#utility.yul\":359:423   */\n  tag_14\n    /* \"#utility.yul\":415:422   */\n  dup5\n    /* \"#utility.yul\":406:412   */\n  dup3\n    /* \"#utility.yul\":395:404   */\n  dup6\n    /* \"#utility.yul\":391:413   */\n  add\n    /* \"#utility.yul\":359:423   */\n  tag_8\n  jump\t// in\ntag_14:\n    /* \"#utility.yul\":349:423   */\n  swap2\n  pop\n    /* \"#utility.yul\":305:433   */\n  pop\n    /* \"#utility.yul\":233:440   */\n  swap3\n  swap2\n  pop\n  pop\n  jump\t// out\n    /* \"#utility.yul\":446:542   */\ntag_15:\n  0x00\n    /* \"#utility.yul\":512:536   */\n  tag_17\n    /* \"#utility.yul\":530:535   */\n  dup3\n    /* \"#utility.yul\":512:536   */\n  tag_18\n  jump\t// in\ntag_17:\n    /* \"#utility.yul\":501:536   */\n  swap1\n  pop\n    /* \"#utility.yul\":491:542   */\n  swap2\n  swap1\n  pop\n  jump\t// out\n    /* \"#utility.yul\":548:674   */\ntag_18:\n  0x00\n    /* \"#utility.yul\":625:667   */\n  0xffffffffffffffffffffffffffffffffffffffff\n    /* \"#utility.yul\":618:623   */\n  dup3\n    /* \"#utility.yul\":614:668   */\n  and\n    /* \"#utility.yul\":603:668   */\n  swap1\n  pop\n    /* \"#utility.yul\":593:674   */\n  swap2\n  swap1\n  pop\n  jump\t// out\n    /* \"#utility.yul\":680:802   */\ntag_11:\n    /* \"#utility.yul\":753:777   */\n  tag_21\n    /* \"#utility.yul\":771:776   */\n  dup2\n    /* \"#utility.yul\":753:777   */\n  tag_15\n  jump\t// in\ntag_21:\n    /* \"#utility.yul\":746:751   */\n  dup2\n    /* \"#utility.yul\":743:778   */\n  eq\n    /* \"#utility.yul\":733:735   */\n  tag_22\n  jumpi\n    /* \"#utility.yul\":792:793   */\n  0x00\n    /* \"#utility.yul\":789:790   */\n  dup1\n    /* \"#utility.yul\":782:794   */\n  revert\n    /* \"#utility.yul\":733:735   */\ntag_22:\n    /* \"#utility.yul\":723:802   */\n  pop\n  jump\t// out\n    /* \"fort.sol\":384:866  contract AlertBot is IDetectionBot {\r... */\ntag_6:\n  dataSize(sub_0)\n  dup1\n  dataOffset(sub_0)\n  0x00\n  codecopy\n  0x00\n  return\nstop\n\nsub_0: assembly {\n        /* \"fort.sol\":384:866  contract AlertBot is IDetectionBot {\r... */\n      mstore(0x40, 0x80)\n      callvalue\n      dup1\n      iszero\n      tag_1\n      jumpi\n      0x00\n      dup1\n      revert\n    tag_1:\n      pop\n      jumpi(tag_2, lt(calldatasize, 0x04))\n      shr(0xe0, calldataload(0x00))\n      dup1\n      0x220ab6aa\n      eq\n      tag_3\n      jumpi\n    tag_2:\n      0x00\n      dup1\n      revert\n        /* \"fort.sol\":560:863  function handleTransaction(address user, bytes calldata msgData) external override {\r... */\n    tag_3:\n      tag_4\n      0x04\n      dup1\n      calldatasize\n      sub\n      dup2\n      add\n      swap1\n      tag_5\n      swap2\n      swap1\n      tag_6\n      jump\t// in\n    tag_5:\n      tag_7\n      jump\t// in\n    tag_4:\n      stop\n    tag_7:\n        /* \"fort.sol\":656:674  address origSender */\n      0x00\n        /* \"fort.sol\":736:740  0xa8 */\n      0xa8\n        /* \"fort.sol\":723:741  calldataload(0xa8) */\n      calldataload\n        /* \"fort.sol\":709:741  origSender := calldataload(0xa8) */\n      swap1\n      pop\n        /* \"fort.sol\":781:792  cryptoVault */\n      0x00\n      dup1\n      sload\n      swap1\n      0x0100\n      exp\n      swap1\n      div\n      0xffffffffffffffffffffffffffffffffffffffff\n      and\n        /* \"fort.sol\":767:792  origSender == cryptoVault */\n      0xffffffffffffffffffffffffffffffffffffffff\n      and\n        /* \"fort.sol\":767:777  origSender */\n      dup2\n        /* \"fort.sol\":767:792  origSender == cryptoVault */\n      0xffffffffffffffffffffffffffffffffffffffff\n      and\n      eq\n        /* \"fort.sol\":764:856  if(origSender == cryptoVault) {\r... */\n      iszero\n      tag_9\n      jumpi\n        /* \"fort.sol\":816:826  msg.sender */\n      caller\n        /* \"fort.sol\":809:838  IForta(msg.sender).raiseAlert */\n      0xffffffffffffffffffffffffffffffffffffffff\n      and\n      0x087a43c1\n        /* \"fort.sol\":839:843  user */\n      dup6\n        /* \"fort.sol\":809:844  IForta(msg.sender).raiseAlert(user) */\n      mload(0x40)\n      dup3\n      0xffffffff\n      and\n      0xe0\n      shl\n      dup2\n      mstore\n      0x04\n      add\n      tag_10\n      swap2\n      swap1\n      tag_11\n      jump\t// in\n    tag_10:\n      0x00\n      mload(0x40)\n      dup1\n      dup4\n      sub\n      dup2\n      0x00\n      dup8\n      dup1\n      extcodesize\n      iszero\n      dup1\n      iszero\n      tag_12\n      jumpi\n      0x00\n      dup1\n      revert\n    tag_12:\n      pop\n      gas\n      call\n      iszero\n      dup1\n      iszero\n      tag_14\n      jumpi\n      returndatasize\n      0x00\n      dup1\n      returndatacopy\n      revert(0x00, returndatasize)\n    tag_14:\n      pop\n      pop\n      pop\n      pop\n        /* \"fort.sol\":764:856  if(origSender == cryptoVault) {\r... */\n    tag_9:\n        /* \"fort.sol\":560:863  function handleTransaction(address user, bytes calldata msgData) external override {\r... */\n      pop\n      pop\n      pop\n      pop\n      jump\t// out\n        /* \"#utility.yul\":7:146   */\n    tag_16:\n      0x00\n        /* \"#utility.yul\":91:97   */\n      dup2\n        /* \"#utility.yul\":78:98   */\n      calldataload\n        /* \"#utility.yul\":69:98   */\n      swap1\n      pop\n        /* \"#utility.yul\":107:140   */\n      tag_18\n        /* \"#utility.yul\":134:139   */\n      dup2\n        /* \"#utility.yul\":107:140   */\n      tag_19\n      jump\t// in\n    tag_18:\n        /* \"#utility.yul\":59:146   */\n      swap3\n      swap2\n      pop\n      pop\n      jump\t// out\n        /* \"#utility.yul\":165:516   */\n    tag_20:\n      0x00\n      dup1\n        /* \"#utility.yul\":282:285   */\n      dup4\n        /* \"#utility.yul\":275:279   */\n      0x1f\n        /* \"#utility.yul\":267:273   */\n      dup5\n        /* \"#utility.yul\":263:280   */\n      add\n        /* \"#utility.yul\":259:286   */\n      slt\n        /* \"#utility.yul\":249:251   */\n      tag_22\n      jumpi\n        /* \"#utility.yul\":300:301   */\n      0x00\n        /* \"#utility.yul\":297:298   */\n      dup1\n        /* \"#utility.yul\":290:302   */\n      revert\n        /* \"#utility.yul\":249:251   */\n    tag_22:\n        /* \"#utility.yul\":336:342   */\n      dup3\n        /* \"#utility.yul\":323:343   */\n      calldataload\n        /* \"#utility.yul\":313:343   */\n      swap1\n      pop\n        /* \"#utility.yul\":366:384   */\n      0xffffffffffffffff\n        /* \"#utility.yul\":358:364   */\n      dup2\n        /* \"#utility.yul\":355:385   */\n      gt\n        /* \"#utility.yul\":352:354   */\n      iszero\n      tag_23\n      jumpi\n        /* \"#utility.yul\":398:399   */\n      0x00\n        /* \"#utility.yul\":395:396   */\n      dup1\n        /* \"#utility.yul\":388:400   */\n      revert\n        /* \"#utility.yul\":352:354   */\n    tag_23:\n        /* \"#utility.yul\":435:439   */\n      0x20\n        /* \"#utility.yul\":427:433   */\n      dup4\n        /* \"#utility.yul\":423:440   */\n      add\n        /* \"#utility.yul\":411:440   */\n      swap2\n      pop\n        /* \"#utility.yul\":489:492   */\n      dup4\n        /* \"#utility.yul\":481:485   */\n      0x01\n        /* \"#utility.yul\":473:479   */\n      dup3\n        /* \"#utility.yul\":469:486   */\n      mul\n        /* \"#utility.yul\":459:467   */\n      dup4\n        /* \"#utility.yul\":455:487   */\n      add\n        /* \"#utility.yul\":452:493   */\n      gt\n        /* \"#utility.yul\":449:451   */\n      iszero\n      tag_24\n      jumpi\n        /* \"#utility.yul\":506:507   */\n      0x00\n        /* \"#utility.yul\":503:504   */\n      dup1\n        /* \"#utility.yul\":496:508   */\n      revert\n        /* \"#utility.yul\":449:451   */\n    tag_24:\n        /* \"#utility.yul\":239:516   */\n      swap3\n      pop\n      swap3\n      swap1\n      pop\n      jump\t// out\n        /* \"#utility.yul\":522:1060   */\n    tag_6:\n      0x00\n      dup1\n      0x00\n        /* \"#utility.yul\":666:668   */\n      0x40\n        /* \"#utility.yul\":654:663   */\n      dup5\n        /* \"#utility.yul\":645:652   */\n      dup7\n        /* \"#utility.yul\":641:664   */\n      sub\n        /* \"#utility.yul\":637:669   */\n      slt\n        /* \"#utility.yul\":634:636   */\n      iszero\n      tag_26\n      jumpi\n        /* \"#utility.yul\":682:683   */\n      0x00\n        /* \"#utility.yul\":679:680   */\n      dup1\n        /* \"#utility.yul\":672:684   */\n      revert\n        /* \"#utility.yul\":634:636   */\n    tag_26:\n        /* \"#utility.yul\":725:726   */\n      0x00\n        /* \"#utility.yul\":750:803   */\n      tag_27\n        /* \"#utility.yul\":795:802   */\n      dup7\n        /* \"#utility.yul\":786:792   */\n      dup3\n        /* \"#utility.yul\":775:784   */\n      dup8\n        /* \"#utility.yul\":771:793   */\n      add\n        /* \"#utility.yul\":750:803   */\n      tag_16\n      jump\t// in\n    tag_27:\n        /* \"#utility.yul\":740:803   */\n      swap4\n      pop\n        /* \"#utility.yul\":696:813   */\n      pop\n        /* \"#utility.yul\":880:882   */\n      0x20\n        /* \"#utility.yul\":869:878   */\n      dup5\n        /* \"#utility.yul\":865:883   */\n      add\n        /* \"#utility.yul\":852:884   */\n      calldataload\n        /* \"#utility.yul\":911:929   */\n      0xffffffffffffffff\n        /* \"#utility.yul\":903:909   */\n      dup2\n        /* \"#utility.yul\":900:930   */\n      gt\n        /* \"#utility.yul\":897:899   */\n      iszero\n      tag_28\n      jumpi\n        /* \"#utility.yul\":943:944   */\n      0x00\n        /* \"#utility.yul\":940:941   */\n      dup1\n        /* \"#utility.yul\":933:945   */\n      revert\n        /* \"#utility.yul\":897:899   */\n    tag_28:\n        /* \"#utility.yul\":979:1043   */\n      tag_29\n        /* \"#utility.yul\":1035:1042   */\n      dup7\n        /* \"#utility.yul\":1026:1032   */\n      dup3\n        /* \"#utility.yul\":1015:1024   */\n      dup8\n        /* \"#utility.yul\":1011:1033   */\n      add\n        /* \"#utility.yul\":979:1043   */\n      tag_20\n      jump\t// in\n    tag_29:\n        /* \"#utility.yul\":961:1043   */\n      swap3\n      pop\n      swap3\n      pop\n        /* \"#utility.yul\":823:1053   */\n      pop\n        /* \"#utility.yul\":624:1060   */\n      swap3\n      pop\n      swap3\n      pop\n      swap3\n      jump\t// out\n        /* \"#utility.yul\":1066:1184   */\n    tag_30:\n        /* \"#utility.yul\":1153:1177   */\n      tag_32\n        /* \"#utility.yul\":1171:1176   */\n      dup2\n        /* \"#utility.yul\":1153:1177   */\n      tag_33\n      jump\t// in\n    tag_32:\n        /* \"#utility.yul\":1148:1151   */\n      dup3\n        /* \"#utility.yul\":1141:1178   */\n      mstore\n        /* \"#utility.yul\":1131:1184   */\n      pop\n      pop\n      jump\t// out\n        /* \"#utility.yul\":1190:1412   */\n    tag_11:\n      0x00\n        /* \"#utility.yul\":1321:1323   */\n      0x20\n        /* \"#utility.yul\":1310:1319   */\n      dup3\n        /* \"#utility.yul\":1306:1324   */\n      add\n        /* \"#utility.yul\":1298:1324   */\n      swap1\n      pop\n        /* \"#utility.yul\":1334:1405   */\n      tag_35\n        /* \"#utility.yul\":1402:1403   */\n      0x00\n        /* \"#utility.yul\":1391:1400   */\n      dup4\n        /* \"#utility.yul\":1387:1404   */\n      add\n        /* \"#utility.yul\":1378:1384   */\n      dup5\n        /* \"#utility.yul\":1334:1405   */\n      tag_30\n      jump\t// in\n    tag_35:\n        /* \"#utility.yul\":1288:1412   */\n      swap3\n      swap2\n      pop\n      pop\n      jump\t// out\n        /* \"#utility.yul\":1418:1514   */\n    tag_33:\n      0x00\n        /* \"#utility.yul\":1484:1508   */\n      tag_37\n        /* \"#utility.yul\":1502:1507   */\n      dup3\n        /* \"#utility.yul\":1484:1508   */\n      tag_38\n      jump\t// in\n    tag_37:\n        /* \"#utility.yul\":1473:1508   */\n      swap1\n      pop\n        /* \"#utility.yul\":1463:1514   */\n      swap2\n      swap1\n      pop\n      jump\t// out\n        /* \"#utility.yul\":1520:1646   */\n    tag_38:\n      0x00\n        /* \"#utility.yul\":1597:1639   */\n      0xffffffffffffffffffffffffffffffffffffffff\n        /* \"#utility.yul\":1590:1595   */\n      dup3\n        /* \"#utility.yul\":1586:1640   */\n      and\n        /* \"#utility.yul\":1575:1640   */\n      swap1\n      pop\n        /* \"#utility.yul\":1565:1646   */\n      swap2\n      swap1\n      pop\n      jump\t// out\n        /* \"#utility.yul\":1652:1774   */\n    tag_19:\n        /* \"#utility.yul\":1725:1749   */\n      tag_41\n        /* \"#utility.yul\":1743:1748   */\n      dup2\n        /* \"#utility.yul\":1725:1749   */\n      tag_33\n      jump\t// in\n    tag_41:\n        /* \"#utility.yul\":1718:1723   */\n      dup2\n        /* \"#utility.yul\":1715:1750   */\n      eq\n        /* \"#utility.yul\":1705:1707   */\n      tag_42\n      jumpi\n        /* \"#utility.yul\":1764:1765   */\n      0x00\n        /* \"#utility.yul\":1761:1762   */\n      dup1\n        /* \"#utility.yul\":1754:1766   */\n      revert\n        /* \"#utility.yul\":1705:1707   */\n    tag_42:\n        /* \"#utility.yul\":1695:1774   */\n      pop\n      jump\t// out\n\n    auxdata: 0xa2646970667358221220554ff4d7d45cec0a2c81a0b67d18af6bf94fc29e840354bb43f442ceb567ec4e64736f6c63430008000033\n}\n",
				"bytecode": {
					"linkReferences": {},
					"object": "608060405234801561001057600080fd5b506040516103873803806103878339818101604052810190610032919061008d565b806000806101000a81548173ffffffffffffffffffffffffffffffffffffffff021916908373ffffffffffffffffffffffffffffffffffffffff160217905550506100ff565b600081519050610087816100e8565b92915050565b60006020828403121561009f57600080fd5b60006100ad84828501610078565b91505092915050565b60006100c1826100c8565b9050919050565b600073ffffffffffffffffffffffffffffffffffffffff82169050919050565b6100f1816100b6565b81146100fc57600080fd5b50565b6102798061010e6000396000f3fe608060405234801561001057600080fd5b506004361061002b5760003560e01c8063220ab6aa14610030575b600080fd5b61004a60048036038101906100459190610178565b61004c565b005b600060a835905060008054906101000a900473ffffffffffffffffffffffffffffffffffffffff1673ffffffffffffffffffffffffffffffffffffffff168173ffffffffffffffffffffffffffffffffffffffff161415610113573373ffffffffffffffffffffffffffffffffffffffff1663087a43c1856040518263ffffffff1660e01b81526004016100e091906101df565b600060405180830381600087803b1580156100fa57600080fd5b505af115801561010e573d6000803e3d6000fd5b505050505b50505050565b6000813590506101288161022c565b92915050565b60008083601f84011261014057600080fd5b8235905067ffffffffffffffff81111561015957600080fd5b60208301915083600182028301111561017157600080fd5b9250929050565b60008060006040848603121561018d57600080fd5b600061019b86828701610119565b935050602084013567ffffffffffffffff8111156101b857600080fd5b6101c48682870161012e565b92509250509250925092565b6101d9816101fa565b82525050565b60006020820190506101f460008301846101d0565b92915050565b60006102058261020c565b9050919050565b600073ffffffffffffffffffffffffffffffffffffffff82169050919050565b610235816101fa565b811461024057600080fd5b5056fea2646970667358221220554ff4d7d45cec0a2c81a0b67d18af6bf94fc29e840354bb43f442ceb567ec4e64736f6c63430008000033",
					"opcodes": "PUSH1 0x80 PUSH1 0x40 MSTORE CALLVALUE DUP1 ISZERO PUSH2 0x10 JUMPI PUSH1 0x0 DUP1 REVERT JUMPDEST POP PUSH1 0x40 MLOAD PUSH2 0x387 CODESIZE SUB DUP1 PUSH2 0x387 DUP4 CODECOPY DUP2 DUP2 ADD PUSH1 0x40 MSTORE DUP2 ADD SWAP1 PUSH2 0x32 SWAP2 SWAP1 PUSH2 0x8D JUMP JUMPDEST DUP1 PUSH1 0x0 DUP1 PUSH2 0x100 EXP DUP2 SLOAD DUP2 PUSH20 0xFFFFFFFFFFFFFFFFFFFFFFFFFFFFFFFFFFFFFFFF MUL NOT AND SWAP1 DUP4 PUSH20 0xFFFFFFFFFFFFFFFFFFFFFFFFFFFFFFFFFFFFFFFF AND MUL OR SWAP1 SSTORE POP POP PUSH2 0xFF JUMP JUMPDEST PUSH1 0x0 DUP2 MLOAD SWAP1 POP PUSH2 0x87 DUP2 PUSH2 0xE8 JUMP JUMPDEST SWAP3 SWAP2 POP POP JUMP JUMPDEST PUSH1 0x0 PUSH1 0x20 DUP3 DUP5 SUB SLT ISZERO PUSH2 0x9F JUMPI PUSH1 0x0 DUP1 REVERT JUMPDEST PUSH1 0x0 PUSH2 0xAD DUP5 DUP3 DUP6 ADD PUSH2 0x78 JUMP JUMPDEST SWAP2 POP POP SWAP3 SWAP2 POP POP JUMP JUMPDEST PUSH1 0x0 PUSH2 0xC1 DUP3 PUSH2 0xC8 JUMP JUMPDEST SWAP1 POP SWAP2 SWAP1 POP JUMP JUMPDEST PUSH1 0x0 PUSH20 0xFFFFFFFFFFFFFFFFFFFFFFFFFFFFFFFFFFFFFFFF DUP3 AND SWAP1 POP SWAP2 SWAP1 POP JUMP JUMPDEST PUSH2 0xF1 DUP2 PUSH2 0xB6 JUMP JUMPDEST DUP2 EQ PUSH2 0xFC JUMPI PUSH1 0x0 DUP1 REVERT JUMPDEST POP JUMP JUMPDEST PUSH2 0x279 DUP1 PUSH2 0x10E PUSH1 0x0 CODECOPY PUSH1 0x0 RETURN INVALID PUSH1 0x80 PUSH1 0x40 MSTORE CALLVALUE DUP1 ISZERO PUSH2 0x10 JUMPI PUSH1 0x0 DUP1 REVERT JUMPDEST POP PUSH1 0x4 CALLDATASIZE LT PUSH2 0x2B JUMPI PUSH1 0x0 CALLDATALOAD PUSH1 0xE0 SHR DUP1 PUSH4 0x220AB6AA EQ PUSH2 0x30 JUMPI JUMPDEST PUSH1 0x0 DUP1 REVERT JUMPDEST PUSH2 0x4A PUSH1 0x4 DUP1 CALLDATASIZE SUB DUP2 ADD SWAP1 PUSH2 0x45 SWAP2 SWAP1 PUSH2 0x178 JUMP JUMPDEST PUSH2 0x4C JUMP JUMPDEST STOP JUMPDEST PUSH1 0x0 PUSH1 0xA8 CALLDATALOAD SWAP1 POP PUSH1 0x0 DUP1 SLOAD SWAP1 PUSH2 0x100 EXP SWAP1 DIV PUSH20 0xFFFFFFFFFFFFFFFFFFFFFFFFFFFFFFFFFFFFFFFF AND PUSH20 0xFFFFFFFFFFFFFFFFFFFFFFFFFFFFFFFFFFFFFFFF AND DUP2 PUSH20 0xFFFFFFFFFFFFFFFFFFFFFFFFFFFFFFFFFFFFFFFF AND EQ ISZERO PUSH2 0x113 JUMPI CALLER PUSH20 0xFFFFFFFFFFFFFFFFFFFFFFFFFFFFFFFFFFFFFFFF AND PUSH4 0x87A43C1 DUP6 PUSH1 0x40 MLOAD DUP3 PUSH4 0xFFFFFFFF AND PUSH1 0xE0 SHL DUP2 MSTORE PUSH1 0x4 ADD PUSH2 0xE0 SWAP2 SWAP1 PUSH2 0x1DF JUMP JUMPDEST PUSH1 0x0 PUSH1 0x40 MLOAD DUP1 DUP4 SUB DUP2 PUSH1 0x0 DUP8 DUP1 EXTCODESIZE ISZERO DUP1 ISZERO PUSH2 0xFA JUMPI PUSH1 0x0 DUP1 REVERT JUMPDEST POP GAS CALL ISZERO DUP1 ISZERO PUSH2 0x10E JUMPI RETURNDATASIZE PUSH1 0x0 DUP1 RETURNDATACOPY RETURNDATASIZE PUSH1 0x0 REVERT JUMPDEST POP POP POP POP JUMPDEST POP POP POP POP JUMP JUMPDEST PUSH1 0x0 DUP2 CALLDATALOAD SWAP1 POP PUSH2 0x128 DUP2 PUSH2 0x22C JUMP JUMPDEST SWAP3 SWAP2 POP POP JUMP JUMPDEST PUSH1 0x0 DUP1 DUP4 PUSH1 0x1F DUP5 ADD SLT PUSH2 0x140 JUMPI PUSH1 0x0 DUP1 REVERT JUMPDEST DUP3 CALLDATALOAD SWAP1 POP PUSH8 0xFFFFFFFFFFFFFFFF DUP2 GT ISZERO PUSH2 0x159 JUMPI PUSH1 0x0 DUP1 REVERT JUMPDEST PUSH1 0x20 DUP4 ADD SWAP2 POP DUP4 PUSH1 0x1 DUP3 MUL DUP4 ADD GT ISZERO PUSH2 0x171 JUMPI PUSH1 0x0 DUP1 REVERT JUMPDEST SWAP3 POP SWAP3 SWAP1 POP JUMP JUMPDEST PUSH1 0x0 DUP1 PUSH1 0x0 PUSH1 0x40 DUP5 DUP7 SUB SLT ISZERO PUSH2 0x18D JUMPI PUSH1 0x0 DUP1 REVERT JUMPDEST PUSH1 0x0 PUSH2 0x19B DUP7 DUP3 DUP8 ADD PUSH2 0x119 JUMP JUMPDEST SWAP4 POP POP PUSH1 0x20 DUP5 ADD CALLDATALOAD PUSH8 0xFFFFFFFFFFFFFFFF DUP2 GT ISZERO PUSH2 0x1B8 JUMPI PUSH1 0x0 DUP1 REVERT JUMPDEST PUSH2 0x1C4 DUP7 DUP3 DUP8 ADD PUSH2 0x12E JUMP JUMPDEST SWAP3 POP SWAP3 POP POP SWAP3 POP SWAP3 POP SWAP3 JUMP JUMPDEST PUSH2 0x1D9 DUP2 PUSH2 0x1FA JUMP JUMPDEST DUP3 MSTORE POP POP JUMP JUMPDEST PUSH1 0x0 PUSH1 0x20 DUP3 ADD SWAP1 POP PUSH2 0x1F4 PUSH1 0x0 DUP4 ADD DUP5 PUSH2 0x1D0 JUMP JUMPDEST SWAP3 SWAP2 POP POP JUMP JUMPDEST PUSH1 0x0 PUSH2 0x205 DUP3 PUSH2 0x20C JUMP JUMPDEST SWAP1 POP SWAP2 SWAP1 POP JUMP JUMPDEST PUSH1 0x0 PUSH20 0xFFFFFFFFFFFFFFFFFFFFFFFFFFFFFFFFFFFFFFFF DUP3 AND SWAP1 POP SWAP2 SWAP1 POP JUMP JUMPDEST PUSH2 0x235 DUP2 PUSH2 0x1FA JUMP JUMPDEST DUP2 EQ PUSH2 0x240 JUMPI PUSH1 0x0 DUP1 REVERT JUMPDEST POP JUMP INVALID LOG2 PUSH5 0x6970667358 0x22 SLT KECCAK256 SSTORE 0x4F DELEGATECALL 0xD7 0xD4 0x5C 0xEC EXP 0x2C DUP2 LOG0 0xB6 PUSH30 0x18AF6BF94FC29E840354BB43F442CEB567EC4E64736F6C63430008000033 "
				},
				"gasEstimates": {
					"creation": {
						"codeDepositCost": "126600",
						"executionCost": "infinite",
						"totalCost": "infinite"
					},
					"external": {
						"handleTransaction(address,bytes)": "infinite"
					}
				},
				"methodIdentifiers": {
					"handleTransaction(address,bytes)": "220ab6aa"
				}
			},
			"storageLayout": {
				"storage": [
					{
						"astId": 31,
						"contract": "fort.sol:AlertBot",
						"label": "cryptoVault",
						"offset": 0,
						"slot": "0",
						"type": "t_address"
					}
				],
				"types": {
					"t_address": {
						"encoding": "inplace",
						"label": "address",
						"numberOfBytes": "20"
					}
				}
			},
			"userdoc": {
				"kind": "user",
				"methods": {},
				"version": 1
			}
		}
	}
}