{
	"tes.sol": {
		"King": {
			"abi": [
				{
					"inputs": [],
					"stateMutability": "payable",
					"type": "constructor"
				},
				{
					"inputs": [],
					"name": "_king",
					"outputs": [
						{
							"internalType": "address",
							"name": "",
							"type": "address"
						}
					],
					"stateMutability": "view",
					"type": "function"
				},
				{
					"inputs": [],
					"name": "owner",
					"outputs": [
						{
							"internalType": "address",
							"name": "",
							"type": "address"
						}
					],
					"stateMutability": "view",
					"type": "function"
				},
				{
					"inputs": [],
					"name": "prize",
					"outputs": [
						{
							"internalType": "uint256",
							"name": "",
							"type": "uint256"
						}
					],
					"stateMutability": "view",
					"type": "function"
				},
				{
					"stateMutability": "payable",
					"type": "receive"
				}
			],
			"devdoc": {
				"kind": "dev",
				"methods": {},
				"version": 1
			},
			"evm": {
				"assembly": "    /* \"tes.sol\":60:563  contract King {\r... */\n  mstore(0x40, 0x80)\n    /* \"tes.sol\":197:207  msg.sender */\n  caller\n    /* \"tes.sol\":189:194  owner */\n  0x02\n  0x00\n    /* \"tes.sol\":189:207  owner = msg.sender */\n  0x0100\n  exp\n  dup2\n  sload\n  dup2\n  0xffffffffffffffffffffffffffffffffffffffff\n  mul\n  not\n  and\n  swap1\n  dup4\n  0xffffffffffffffffffffffffffffffffffffffff\n  and\n  mul\n  or\n  swap1\n  sstore\n  pop\n    /* \"tes.sol\":225:235  msg.sender */\n  caller\n    /* \"tes.sol\":218:222  king */\n  0x00\n  dup1\n    /* \"tes.sol\":218:235  king = msg.sender */\n  0x0100\n  exp\n  dup2\n  sload\n  dup2\n  0xffffffffffffffffffffffffffffffffffffffff\n  mul\n  not\n  and\n  swap1\n  dup4\n  0xffffffffffffffffffffffffffffffffffffffff\n  and\n  mul\n  or\n  swap1\n  sstore\n  pop\n    /* \"tes.sol\":254:263  msg.value */\n  callvalue\n    /* \"tes.sol\":246:251  prize */\n  0x01\n    /* \"tes.sol\":246:263  prize = msg.value */\n  dup2\n  swap1\n  sstore\n  pop\n    /* \"tes.sol\":60:563  contract King {\r... */\n  dataSize(sub_0)\n  dup1\n  dataOffset(sub_0)\n  0x00\n  codecopy\n  0x00\n  return\nstop\n\nsub_0: assembly {\n        /* \"tes.sol\":60:563  contract King {\r... */\n      mstore(0x40, 0x80)\n      jumpi(tag_1, lt(calldatasize, 0x04))\n      shr(0xe0, calldataload(0x00))\n      dup1\n      0x29cc6d6f\n      eq\n      tag_3\n      jumpi\n      dup1\n      0x8da5cb5b\n      eq\n      tag_4\n      jumpi\n      dup1\n      0xe3ac5d26\n      eq\n      tag_5\n      jumpi\n      jump(tag_2)\n    tag_1:\n      jumpi(tag_2, calldatasize)\n        /* \"tes.sol\":338:343  prize */\n      sload(0x01)\n        /* \"tes.sol\":325:334  msg.value */\n      callvalue\n        /* \"tes.sol\":325:343  msg.value >= prize */\n      lt\n      iszero\n        /* \"tes.sol\":325:366  msg.value >= prize || msg.sender == owner */\n      dup1\n      tag_8\n      jumpi\n      pop\n        /* \"tes.sol\":361:366  owner */\n      0x02\n      0x00\n      swap1\n      sload\n      swap1\n      0x0100\n      exp\n      swap1\n      div\n      0xffffffffffffffffffffffffffffffffffffffff\n      and\n        /* \"tes.sol\":347:366  msg.sender == owner */\n      0xffffffffffffffffffffffffffffffffffffffff\n      and\n        /* \"tes.sol\":347:357  msg.sender */\n      caller\n        /* \"tes.sol\":347:366  msg.sender == owner */\n      0xffffffffffffffffffffffffffffffffffffffff\n      and\n      eq\n        /* \"tes.sol\":325:366  msg.value >= prize || msg.sender == owner */\n    tag_8:\n        /* \"tes.sol\":317:367  require(msg.value >= prize || msg.sender == owner) */\n      tag_9\n      jumpi\n      0x00\n      dup1\n      revert\n    tag_9:\n        /* \"tes.sol\":386:390  king */\n      0x00\n      dup1\n      sload\n      swap1\n      0x0100\n      exp\n      swap1\n      div\n      0xffffffffffffffffffffffffffffffffffffffff\n      and\n        /* \"tes.sol\":378:400  payable(king).transfer */\n      0xffffffffffffffffffffffffffffffffffffffff\n      and\n        /* \"tes.sol\":378:411  payable(king).transfer(msg.value) */\n      0x08fc\n        /* \"tes.sol\":401:410  msg.value */\n      callvalue\n        /* \"tes.sol\":378:411  payable(king).transfer(msg.value) */\n      swap1\n      dup2\n      iszero\n      mul\n      swap1\n      mload(0x40)\n      0x00\n      mload(0x40)\n      dup1\n      dup4\n      sub\n      dup2\n      dup6\n      dup9\n      dup9\n      call\n      swap4\n      pop\n      pop\n      pop\n      pop\n      iszero\n      dup1\n      iszero\n      tag_11\n      jumpi\n      returndatasize\n      0x00\n      dup1\n      returndatacopy\n      revert(0x00, returndatasize)\n    tag_11:\n      pop\n        /* \"tes.sol\":429:439  msg.sender */\n      caller\n        /* \"tes.sol\":422:426  king */\n      0x00\n      dup1\n        /* \"tes.sol\":422:439  king = msg.sender */\n      0x0100\n      exp\n      dup2\n      sload\n      dup2\n      0xffffffffffffffffffffffffffffffffffffffff\n      mul\n      not\n      and\n      swap1\n      dup4\n      0xffffffffffffffffffffffffffffffffffffffff\n      and\n      mul\n      or\n      swap1\n      sstore\n      pop\n        /* \"tes.sol\":458:467  msg.value */\n      callvalue\n        /* \"tes.sol\":450:455  prize */\n      0x01\n        /* \"tes.sol\":450:467  prize = msg.value */\n      dup2\n      swap1\n      sstore\n      pop\n        /* \"tes.sol\":60:563  contract King {\r... */\n      stop\n    tag_2:\n      0x00\n      dup1\n      revert\n        /* \"tes.sol\":483:560  function _king() public view returns (address) {\r... */\n    tag_3:\n      callvalue\n      dup1\n      iszero\n      tag_12\n      jumpi\n      0x00\n      dup1\n      revert\n    tag_12:\n      pop\n      tag_13\n      tag_14\n      jump\t// in\n    tag_13:\n      mload(0x40)\n      tag_15\n      swap2\n      swap1\n      tag_16\n      jump\t// in\n    tag_15:\n      mload(0x40)\n      dup1\n      swap2\n      sub\n      swap1\n      return\n        /* \"tes.sol\":127:147  address public owner */\n    tag_4:\n      callvalue\n      dup1\n      iszero\n      tag_17\n      jumpi\n      0x00\n      dup1\n      revert\n    tag_17:\n      pop\n      tag_18\n      tag_19\n      jump\t// in\n    tag_18:\n      mload(0x40)\n      tag_20\n      swap2\n      swap1\n      tag_16\n      jump\t// in\n    tag_20:\n      mload(0x40)\n      dup1\n      swap2\n      sub\n      swap1\n      return\n        /* \"tes.sol\":100:120  uint256 public prize */\n    tag_5:\n      callvalue\n      dup1\n      iszero\n      tag_21\n      jumpi\n      0x00\n      dup1\n      revert\n    tag_21:\n      pop\n      tag_22\n      tag_23\n      jump\t// in\n    tag_22:\n      mload(0x40)\n      tag_24\n      swap2\n      swap1\n      tag_25\n      jump\t// in\n    tag_24:\n      mload(0x40)\n      dup1\n      swap2\n      sub\n      swap1\n      return\n        /* \"tes.sol\":483:560  function _king() public view returns (address) {\r... */\n    tag_14:\n        /* \"tes.sol\":521:528  address */\n      0x00\n        /* \"tes.sol\":548:552  king */\n      dup1\n      0x00\n      swap1\n      sload\n      swap1\n      0x0100\n      exp\n      swap1\n      div\n      0xffffffffffffffffffffffffffffffffffffffff\n      and\n        /* \"tes.sol\":541:552  return king */\n      swap1\n      pop\n        /* \"tes.sol\":483:560  function _king() public view returns (address) {\r... */\n      swap1\n      jump\t// out\n        /* \"tes.sol\":127:147  address public owner */\n    tag_19:\n      0x02\n      0x00\n      swap1\n      sload\n      swap1\n      0x0100\n      exp\n      swap1\n      div\n      0xffffffffffffffffffffffffffffffffffffffff\n      and\n      dup2\n      jump\t// out\n        /* \"tes.sol\":100:120  uint256 public prize */\n    tag_23:\n      sload(0x01)\n      dup2\n      jump\t// out\n        /* \"#utility.yul\":7:125   */\n    tag_28:\n        /* \"#utility.yul\":94:118   */\n      tag_30\n        /* \"#utility.yul\":112:117   */\n      dup2\n        /* \"#utility.yul\":94:118   */\n      tag_31\n      jump\t// in\n    tag_30:\n        /* \"#utility.yul\":89:92   */\n      dup3\n        /* \"#utility.yul\":82:119   */\n      mstore\n        /* \"#utility.yul\":72:125   */\n      pop\n      pop\n      jump\t// out\n        /* \"#utility.yul\":131:249   */\n    tag_32:\n        /* \"#utility.yul\":218:242   */\n      tag_34\n        /* \"#utility.yul\":236:241   */\n      dup2\n        /* \"#utility.yul\":218:242   */\n      tag_35\n      jump\t// in\n    tag_34:\n        /* \"#utility.yul\":213:216   */\n      dup3\n        /* \"#utility.yul\":206:243   */\n      mstore\n        /* \"#utility.yul\":196:249   */\n      pop\n      pop\n      jump\t// out\n        /* \"#utility.yul\":255:477   */\n    tag_16:\n      0x00\n        /* \"#utility.yul\":386:388   */\n      0x20\n        /* \"#utility.yul\":375:384   */\n      dup3\n        /* \"#utility.yul\":371:389   */\n      add\n        /* \"#utility.yul\":363:389   */\n      swap1\n      pop\n        /* \"#utility.yul\":399:470   */\n      tag_37\n        /* \"#utility.yul\":467:468   */\n      0x00\n        /* \"#utility.yul\":456:465   */\n      dup4\n        /* \"#utility.yul\":452:469   */\n      add\n        /* \"#utility.yul\":443:449   */\n      dup5\n        /* \"#utility.yul\":399:470   */\n      tag_28\n      jump\t// in\n    tag_37:\n        /* \"#utility.yul\":353:477   */\n      swap3\n      swap2\n      pop\n      pop\n      jump\t// out\n        /* \"#utility.yul\":483:705   */\n    tag_25:\n      0x00\n        /* \"#utility.yul\":614:616   */\n      0x20\n        /* \"#utility.yul\":603:612   */\n      dup3\n        /* \"#utility.yul\":599:617   */\n      add\n        /* \"#utility.yul\":591:617   */\n      swap1\n      pop\n        /* \"#utility.yul\":627:698   */\n      tag_39\n        /* \"#utility.yul\":695:696   */\n      0x00\n        /* \"#utility.yul\":684:693   */\n      dup4\n        /* \"#utility.yul\":680:697   */\n      add\n        /* \"#utility.yul\":671:677   */\n      dup5\n        /* \"#utility.yul\":627:698   */\n      tag_32\n      jump\t// in\n    tag_39:\n        /* \"#utility.yul\":581:705   */\n      swap3\n      swap2\n      pop\n      pop\n      jump\t// out\n        /* \"#utility.yul\":711:807   */\n    tag_31:\n      0x00\n        /* \"#utility.yul\":777:801   */\n      tag_41\n        /* \"#utility.yul\":795:800   */\n      dup3\n        /* \"#utility.yul\":777:801   */\n      tag_42\n      jump\t// in\n    tag_41:\n        /* \"#utility.yul\":766:801   */\n      swap1\n      pop\n        /* \"#utility.yul\":756:807   */\n      swap2\n      swap1\n      pop\n      jump\t// out\n        /* \"#utility.yul\":813:939   */\n    tag_42:\n      0x00\n        /* \"#utility.yul\":890:932   */\n      0xffffffffffffffffffffffffffffffffffffffff\n        /* \"#utility.yul\":883:888   */\n      dup3\n        /* \"#utility.yul\":879:933   */\n      and\n        /* \"#utility.yul\":868:933   */\n      swap1\n      pop\n        /* \"#utility.yul\":858:939   */\n      swap2\n      swap1\n      pop\n      jump\t// out\n        /* \"#utility.yul\":945:1022   */\n    tag_35:\n      0x00\n        /* \"#utility.yul\":1011:1016   */\n      dup2\n        /* \"#utility.yul\":1000:1016   */\n      swap1\n      pop\n        /* \"#utility.yul\":990:1022   */\n      swap2\n      swap1\n      pop\n      jump\t// out\n\n    auxdata: 0xa2646970667358221220b5e3113b5b3f86f58875a52c55ca5a6a0df9e65716510fdde1c8084218483cff64736f6c63430008000033\n}\n",
				"bytecode": {
					"linkReferences": {},
					"object": "608060405233600260006101000a81548173ffffffffffffffffffffffffffffffffffffffff021916908373ffffffffffffffffffffffffffffffffffffffff160217905550336000806101000a81548173ffffffffffffffffffffffffffffffffffffffff021916908373ffffffffffffffffffffffffffffffffffffffff160217905550346001819055506102f58061009b6000396000f3fe6080604052600436106100385760003560e01c806329cc6d6f146101595780638da5cb5b14610184578063e3ac5d26146101af57610154565b36610154576001543410158061009b5750600260009054906101000a900473ffffffffffffffffffffffffffffffffffffffff1673ffffffffffffffffffffffffffffffffffffffff163373ffffffffffffffffffffffffffffffffffffffff16145b6100a457600080fd5b60008054906101000a900473ffffffffffffffffffffffffffffffffffffffff1673ffffffffffffffffffffffffffffffffffffffff166108fc349081150290604051600060405180830381858888f1935050505015801561010a573d6000803e3d6000fd5b50336000806101000a81548173ffffffffffffffffffffffffffffffffffffffff021916908373ffffffffffffffffffffffffffffffffffffffff16021790555034600181905550005b600080fd5b34801561016557600080fd5b5061016e6101da565b60405161017b919061024d565b60405180910390f35b34801561019057600080fd5b50610199610203565b6040516101a6919061024d565b60405180910390f35b3480156101bb57600080fd5b506101c4610229565b6040516101d19190610268565b60405180910390f35b60008060009054906101000a900473ffffffffffffffffffffffffffffffffffffffff16905090565b600260009054906101000a900473ffffffffffffffffffffffffffffffffffffffff1681565b60015481565b61023881610283565b82525050565b610247816102b5565b82525050565b6000602082019050610262600083018461022f565b92915050565b600060208201905061027d600083018461023e565b92915050565b600061028e82610295565b9050919050565b600073ffffffffffffffffffffffffffffffffffffffff82169050919050565b600081905091905056fea2646970667358221220b5e3113b5b3f86f58875a52c55ca5a6a0df9e65716510fdde1c8084218483cff64736f6c63430008000033",
					"opcodes": "PUSH1 0x80 PUSH1 0x40 MSTORE CALLER PUSH1 0x2 PUSH1 0x0 PUSH2 0x100 EXP DUP2 SLOAD DUP2 PUSH20 0xFFFFFFFFFFFFFFFFFFFFFFFFFFFFFFFFFFFFFFFF MUL NOT AND SWAP1 DUP4 PUSH20 0xFFFFFFFFFFFFFFFFFFFFFFFFFFFFFFFFFFFFFFFF AND MUL OR SWAP1 SSTORE POP CALLER PUSH1 0x0 DUP1 PUSH2 0x100 EXP DUP2 SLOAD DUP2 PUSH20 0xFFFFFFFFFFFFFFFFFFFFFFFFFFFFFFFFFFFFFFFF MUL NOT AND SWAP1 DUP4 PUSH20 0xFFFFFFFFFFFFFFFFFFFFFFFFFFFFFFFFFFFFFFFF AND MUL OR SWAP1 SSTORE POP CALLVALUE PUSH1 0x1 DUP2 SWAP1 SSTORE POP PUSH2 0x2F5 DUP1 PUSH2 0x9B PUSH1 0x0 CODECOPY PUSH1 0x0 RETURN INVALID PUSH1 0x80 PUSH1 0x40 MSTORE PUSH1 0x4 CALLDATASIZE LT PUSH2 0x38 JUMPI PUSH1 0x0 CALLDATALOAD PUSH1 0xE0 SHR DUP1 PUSH4 0x29CC6D6F EQ PUSH2 0x159 JUMPI DUP1 PUSH4 0x8DA5CB5B EQ PUSH2 0x184 JUMPI DUP1 PUSH4 0xE3AC5D26 EQ PUSH2 0x1AF JUMPI PUSH2 0x154 JUMP JUMPDEST CALLDATASIZE PUSH2 0x154 JUMPI PUSH1 0x1 SLOAD CALLVALUE LT ISZERO DUP1 PUSH2 0x9B JUMPI POP PUSH1 0x2 PUSH1 0x0 SWAP1 SLOAD SWAP1 PUSH2 0x100 EXP SWAP1 DIV PUSH20 0xFFFFFFFFFFFFFFFFFFFFFFFFFFFFFFFFFFFFFFFF AND PUSH20 0xFFFFFFFFFFFFFFFFFFFFFFFFFFFFFFFFFFFFFFFF AND CALLER PUSH20 0xFFFFFFFFFFFFFFFFFFFFFFFFFFFFFFFFFFFFFFFF AND EQ JUMPDEST PUSH2 0xA4 JUMPI PUSH1 0x0 DUP1 REVERT JUMPDEST PUSH1 0x0 DUP1 SLOAD SWAP1 PUSH2 0x100 EXP SWAP1 DIV PUSH20 0xFFFFFFFFFFFFFFFFFFFFFFFFFFFFFFFFFFFFFFFF AND PUSH20 0xFFFFFFFFFFFFFFFFFFFFFFFFFFFFFFFFFFFFFFFF AND PUSH2 0x8FC CALLVALUE SWAP1 DUP2 ISZERO MUL SWAP1 PUSH1 0x40 MLOAD PUSH1 0x0 PUSH1 0x40 MLOAD DUP1 DUP4 SUB DUP2 DUP6 DUP9 DUP9 CALL SWAP4 POP POP POP POP ISZERO DUP1 ISZERO PUSH2 0x10A JUMPI RETURNDATASIZE PUSH1 0x0 DUP1 RETURNDATACOPY RETURNDATASIZE PUSH1 0x0 REVERT JUMPDEST POP CALLER PUSH1 0x0 DUP1 PUSH2 0x100 EXP DUP2 SLOAD DUP2 PUSH20 0xFFFFFFFFFFFFFFFFFFFFFFFFFFFFFFFFFFFFFFFF MUL NOT AND SWAP1 DUP4 PUSH20 0xFFFFFFFFFFFFFFFFFFFFFFFFFFFFFFFFFFFFFFFF AND MUL OR SWAP1 SSTORE POP CALLVALUE PUSH1 0x1 DUP2 SWAP1 SSTORE POP STOP JUMPDEST PUSH1 0x0 DUP1 REVERT JUMPDEST CALLVALUE DUP1 ISZERO PUSH2 0x165 JUMPI PUSH1 0x0 DUP1 REVERT JUMPDEST POP PUSH2 0x16E PUSH2 0x1DA JUMP JUMPDEST PUSH1 0x40 MLOAD PUSH2 0x17B SWAP2 SWAP1 PUSH2 0x24D JUMP JUMPDEST PUSH1 0x40 MLOAD DUP1 SWAP2 SUB SWAP1 RETURN JUMPDEST CALLVALUE DUP1 ISZERO PUSH2 0x190 JUMPI PUSH1 0x0 DUP1 REVERT JUMPDEST POP PUSH2 0x199 PUSH2 0x203 JUMP JUMPDEST PUSH1 0x40 MLOAD PUSH2 0x1A6 SWAP2 SWAP1 PUSH2 0x24D JUMP JUMPDEST PUSH1 0x40 MLOAD DUP1 SWAP2 SUB SWAP1 RETURN JUMPDEST CALLVALUE DUP1 ISZERO PUSH2 0x1BB JUMPI PUSH1 0x0 DUP1 REVERT JUMPDEST POP PUSH2 0x1C4 PUSH2 0x229 JUMP JUMPDEST PUSH1 0x40 MLOAD PUSH2 0x1D1 SWAP2 SWAP1 PUSH2 0x268 JUMP JUMPDEST PUSH1 0x40 MLOAD DUP1 SWAP2 SUB SWAP1 RETURN JUMPDEST PUSH1 0x0 DUP1 PUSH1 0x0 SWAP1 SLOAD SWAP1 PUSH2 0x100 EXP SWAP1 DIV PUSH20 0xFFFFFFFFFFFFFFFFFFFFFFFFFFFFFFFFFFFFFFFF AND SWAP1 POP SWAP1 JUMP JUMPDEST PUSH1 0x2 PUSH1 0x0 SWAP1 SLOAD SWAP1 PUSH2 0x100 EXP SWAP1 DIV PUSH20 0xFFFFFFFFFFFFFFFFFFFFFFFFFFFFFFFFFFFFFFFF AND DUP2 JUMP JUMPDEST PUSH1 0x1 SLOAD DUP2 JUMP JUMPDEST PUSH2 0x238 DUP2 PUSH2 0x283 JUMP JUMPDEST DUP3 MSTORE POP POP JUMP JUMPDEST PUSH2 0x247 DUP2 PUSH2 0x2B5 JUMP JUMPDEST DUP3 MSTORE POP POP JUMP JUMPDEST PUSH1 0x0 PUSH1 0x20 DUP3 ADD SWAP1 POP PUSH2 0x262 PUSH1 0x0 DUP4 ADD DUP5 PUSH2 0x22F JUMP JUMPDEST SWAP3 SWAP2 POP POP JUMP JUMPDEST PUSH1 0x0 PUSH1 0x20 DUP3 ADD SWAP1 POP PUSH2 0x27D PUSH1 0x0 DUP4 ADD DUP5 PUSH2 0x23E JUMP JUMPDEST SWAP3 SWAP2 POP POP JUMP JUMPDEST PUSH1 0x0 PUSH2 0x28E DUP3 PUSH2 0x295 JUMP JUMPDEST SWAP1 POP SWAP2 SWAP1 POP JUMP JUMPDEST PUSH1 0x0 PUSH20 0xFFFFFFFFFFFFFFFFFFFFFFFFFFFFFFFFFFFFFFFF DUP3 AND SWAP1 POP SWAP2 SWAP1 POP JUMP JUMPDEST PUSH1 0x0 DUP2 SWAP1 POP SWAP2 SWAP1 POP JUMP INVALID LOG2 PUSH5 0x6970667358 0x22 SLT KECCAK256 0xB5 0xE3 GT EXTCODESIZE JUMPDEST EXTCODEHASH DUP7 CREATE2 DUP9 PUSH22 0xA52C55CA5A6A0DF9E65716510FDDE1C8084218483CFF PUSH5 0x736F6C6343 STOP ADDMOD STOP STOP CALLER "
				},
				"gasEstimates": {
					"creation": {
						"codeDepositCost": "151400",
						"executionCost": "61917",
						"totalCost": "213317"
					},
					"external": {
						"_king()": "1200",
						"owner()": "1214",
						"prize()": "1151"
					}
				},
				"methodIdentifiers": {
					"_king()": "29cc6d6f",
					"owner()": "8da5cb5b",
					"prize()": "e3ac5d26"
				}
			},
			"storageLayout": {
				"storage": [
					{
						"astId": 3,
						"contract": "tes.sol:King",
						"label": "king",
						"offset": 0,
						"slot": "0",
						"type": "t_address"
					},
					{
						"astId": 5,
						"contract": "tes.sol:King",
						"label": "prize",
						"offset": 0,
						"slot": "1",
						"type": "t_uint256"
					},
					{
						"astId": 7,
						"contract": "tes.sol:King",
						"label": "owner",
						"offset": 0,
						"slot": "2",
						"type": "t_address"
					}
				],
				"types": {
					"t_address": {
						"encoding": "inplace",
						"label": "address",
						"numberOfBytes": "20"
					},
					"t_uint256": {
						"encoding": "inplace",
						"label": "uint256",
						"numberOfBytes": "32"
					}
				}
			},
			"userdoc": {
				"kind": "user",
				"methods": {},
				"version": 1
			}
		}
	}
}