{
	"data": {
		"bytecode": {
			"linkReferences": {},
			"object": "60806040527fa21f6042cb1f0510d18f5a0b890f9fb0a742c3ed745366dcdd488443bb529c985f1b5f555f5460015f6101000a8154816fffffffffffffffffffffffffffffffff021916908360801c0217905550348015605d575f5ffd5b506101318061006b5f395ff3fe6080604052348015600e575f5ffd5b50600436106030575f3560e01c80634089b7fa146034578063b86f58fe14604e575b5f5ffd5b603a6068565b6040516045919060b7565b60405180910390f35b6054607a565b604051605f919060e4565b60405180910390f35b60015f9054906101000a900460801b81565b5f5481565b5f7fffffffffffffffffffffffffffffffff0000000000000000000000000000000082169050919050565b60b181607f565b82525050565b5f60208201905060c85f83018460aa565b92915050565b5f819050919050565b60de8160ce565b82525050565b5f60208201905060f55f83018460d7565b9291505056fea26469706673582212201e8a9539e33ba323da0a2115622578a3b08ad8a98b18e97bfd5fc26626f8979a64736f6c634300081d0033",
			"opcodes": "PUSH1 0x80 PUSH1 0x40 MSTORE PUSH32 0xA21F6042CB1F0510D18F5A0B890F9FB0A742C3ED745366DCDD488443BB529C98 PUSH0 SHL PUSH0 SSTORE PUSH0 SLOAD PUSH1 0x1 PUSH0 PUSH2 0x100 EXP DUP2 SLOAD DUP2 PUSH16 0xFFFFFFFFFFFFFFFFFFFFFFFFFFFFFFFF MUL NOT AND SWAP1 DUP4 PUSH1 0x80 SHR MUL OR SWAP1 SSTORE POP CALLVALUE DUP1 ISZERO PUSH1 0x5D JUMPI PUSH0 PUSH0 REVERT JUMPDEST POP PUSH2 0x131 DUP1 PUSH2 0x6B PUSH0 CODECOPY PUSH0 RETURN INVALID PUSH1 0x80 PUSH1 0x40 MSTORE CALLVALUE DUP1 ISZERO PUSH1 0xE JUMPI PUSH0 PUSH0 REVERT JUMPDEST POP PUSH1 0x4 CALLDATASIZE LT PUSH1 0x30 JUMPI PUSH0 CALLDATALOAD PUSH1 0xE0 SHR DUP1 PUSH4 0x4089B7FA EQ PUSH1 0x34 JUMPI DUP1 PUSH4 0xB86F58FE EQ PUSH1 0x4E JUMPI JUMPDEST PUSH0 PUSH0 REVERT JUMPDEST PUSH1 0x3A PUSH1 0x68 JUMP JUMPDEST PUSH1 0x40 MLOAD PUSH1 0x45 SWAP2 SWAP1 PUSH1 0xB7 JUMP JUMPDEST PUSH1 0x40 MLOAD DUP1 SWAP2 SUB SWAP1 RETURN JUMPDEST PUSH1 0x54 PUSH1 0x7A JUMP JUMPDEST PUSH1 0x40 MLOAD PUSH1 0x5F SWAP2 SWAP1 PUSH1 0xE4 JUMP JUMPDEST PUSH1 0x40 MLOAD DUP1 SWAP2 SUB SWAP1 RETURN JUMPDEST PUSH1 0x1 PUSH0 SWAP1 SLOAD SWAP1 PUSH2 0x100 EXP SWAP1 DIV PUSH1 0x80 SHL DUP2 JUMP JUMPDEST PUSH0 SLOAD DUP2 JUMP JUMPDEST PUSH0 PUSH32 0xFFFFFFFFFFFFFFFFFFFFFFFFFFFFFFFF00000000000000000000000000000000 DUP3 AND SWAP1 POP SWAP2 SWAP1 POP JUMP JUMPDEST PUSH1 0xB1 DUP2 PUSH1 0x7F JUMP JUMPDEST DUP3 MSTORE POP POP JUMP JUMPDEST PUSH0 PUSH1 0x20 DUP3 ADD SWAP1 POP PUSH1 0xC8 PUSH0 DUP4 ADD DUP5 PUSH1 0xAA JUMP JUMPDEST SWAP3 SWAP2 POP POP JUMP JUMPDEST PUSH0 DUP2 SWAP1 POP SWAP2 SWAP1 POP JUMP JUMPDEST PUSH1 0xDE DUP2 PUSH1 0xCE JUMP JUMPDEST DUP3 MSTORE POP POP JUMP JUMPDEST PUSH0 PUSH1 0x20 DUP3 ADD SWAP1 POP PUSH1 0xF5 PUSH0 DUP4 ADD DUP5 PUSH1 0xD7 JUMP JUMPDEST SWAP3 SWAP2 POP POP JUMP INVALID LOG2 PUSH5 0x6970667358 0x22 SLT KECCAK256 0x1E DUP11 SWAP6 CODECOPY CALLF 0x3BA3 0x23 0xDA EXP 0x21 ISZERO PUSH3 0x2578A3 0xB0 DUP11 0xD8 0xA9 DUP12 XOR 0xE9 PUSH28 0xFD5FC26626F8979A64736F6C634300081D0033000000000000000000 "
		},
		"gasEstimates": {
			"creation": {
				"codeDepositCost": "61000",
				"executionCost": "48584",
				"totalCost": "109584"
			},
			"external": {
				"full()": "2424",
				"sliced()": "2444"
			}
		},
		"methodIdentifiers": {
			"full()": "b86f58fe",
			"sliced()": "4089b7fa"
		}
	},
	"abi": [
		{
			"inputs": [],
			"name": "full",
			"outputs": [
				{
					"internalType": "bytes32",
					"name": "",
					"type": "bytes32"
				}
			],
			"stateMutability": "view",
			"type": "function"
		},
		{
			"inputs": [],
			"name": "sliced",
			"outputs": [
				{
					"internalType": "bytes16",
					"name": "",
					"type": "bytes16"
				}
			],
			"stateMutability": "view",
			"type": "function"
		}
	]
}